:200000000200BF32FFFFFFFFFFFFFF32FFFFFFFFFFFFFF32FFFFFFFFFFFFFF32FFFFFFFF70
:20002000FFFFFF32FFFFFFFFFFFFFF32FFFFFFFFFFFFFF32FFFFFFFFFFFFFF32FFFFFFFF14
:20004000FFFFFF32FFFFFFFFFFFFFF32FFFFFFFFFFFFFF32FFFFFFFFFFFFFF32FFFFFFFFF4
:20006000FFFFFF32FFFFFFFFFFFFFF32FFFFFFFFFFFFFF020CC9FFFFFFFFFF32FFFFFFFF2D
:20008000FFFFFF32FFFFFFFFFFFFFF020F3802029CE58124FCC3C8C0E0C082E608467006B2
:2000A000E5824583601218E58296F58208E58396428208E5F0964582D082C8D0E0C82275E6
:2000C00081201295BDE582600302008E7929E94400601B7A01909680787275A00FE493F2DF
:2000E000A308B8000205A0D9F4DAF275A0FFE478FFF6D8FD7800E84400600A790175A00086
:20010000E4F309D8FC7871E8440F600C7910900001E4F0A3D8FCD9FA90000A7400F0A3F0D2
:2001200090000CF0A3F090000EF0A3F0900010F0A3F0900F157400F0A3F0A3F002008E7519
:2001400096295397FEE5EA75EA0075F80022C00D85810DAF82C007124DE6D007E50D24FD34
:20016000F8E660030201BEC374079F5003020212EF240A83F582EF240C83F583E4738E948D
:200180009AA0A6ACB2B8010101010101010143F80102021243F80202021243F80402021267
:2001A00043F80802021243F81002021243F82002021243F84002021243F880020212C3747B
:2001C000079F5003020212EF240A83F582EF240C83F583E473E5EBF1F7FD03090F010101B5
:2001E000010102020253F8FE02021253F8FD02021253F8FB02021253F8F702021253F8EF4C
:2002000002021253F8DF02021253F8BF02021253F87F124DEED00D22AF827E007D00C0075F
:20022000C006C005124DE6D005D006D007C374079F500302027CEF240A83F582EF240C8303
:20024000F583E47354595E63686D727702020202020202027E0102027E7E0202027E7E040E
:2002600002027E7E0802027E7E1002027E7E2002027E7E4002027E7E8002027E7D01BD01C8
:2002800003020298EE55F87003020295EEF4FFEF52F8020298EE42F8124DEE221203B41250
:2002A000013F758201121E3E7582021218DE758200121F967404C0E07400C0E074C2C0E0D7
:2002C0007401C0E07400C0E0758202121BA7E58124FBF5817582021211F57400C0E0C0E068
:2002E000C0E0C0E074CDC0E074ABC0E07400C0E074A7C0E07400C0E074C1C0E07495C0E0BD
:200300007480C0E07582F375830712452FE58124F4F5817400C0E0C0E0C0E0C0E0C0E0C092
:20032000E0C0E074A7C0E07400C0E074C9C0E07495C0E07480C0E07582AF75830412452F2C
:20034000E58124F4F5817400C0E0C0E0C0E0C0E0C0E0C0E0C0E074A7C0E07400C0E074C9C9
:20036000C0E07495C0E07480C0E075825175830612452FE58124F4F5817400C0E0C0E0C06C
:20038000E07403C0E07400C0E0C0E0C0E074A7C0E07400C0E074CEC0E07495C0E07480C004
:2003A000E075822775830412452FE58124F4F581124D782275962D5397DFC2AF53F67F5343
:2003C000F17F75AEEF75920075910743E680D2AF53F7FE53D8FE1203DA22C00D85810D05F6
:2003E00081058153ADF143AD0853ADFEA80D087610087627A80D088606088607A80D08EE9E
:2004000024FFF6EF34FF08F6EE4F60030203F4850D81D00D22E5D820E00302042353D8FEE6
:2004200002042643D801227F00900F72E06003020445759107758296758300C007124D423A
:20044000D007020452758205758300C007124D42D007C007122110AE82D007BE0103020461
:20046000637F01C007121B81AE82D007BE01030204747F01C007121E25AE82D007BE01037C
:200480000204857F01C007121871AE82D007BE01030204967F01BF010280030204A4900F7C
:2004A000727401F0C007120415D00702042922C00D85810DE581240CF581E50D2405F876D6
:2004C0002B08765208769A0876C4A80D0876DD08769A087612087645A80D08E6C0E008E61B
:2004E000C0E008E6C0E008E6C0E0E50D2405F886820886830886F008E6128E24AC82AD8386
:20050000AEF0FFE58124FCF581E50D2409F8A60408A60508A60608A607E50D2409F8E6C0A8
:20052000E008E6C0E008E6C0E008E6C0E07582CD7583E475F08A7444128D56AF82E581243A
:20054000FCF581EF6003020579749AC0E074E1C0E0748AC0E07444C0E0E50D2409F886829F
:200560000886830886F008E6128D56AF82E58124FCF581EF7003020590C0E0C0A8C2AF90DA
:200580000F727401F0D0E053E080E5E042A8D0E0A80D08E6C0E008E6C0E008E6C0E008E666
:2005A000C0E0E50D2405F886820886830886F008E6129265AC82AD83AEF0FFE58124FCF584
:2005C00081E50D2409F8A60408A60508A60608A607E50D2409F8E6C0E008E6C0E008E6C0E4
:2005E000E008E6C0E075825C75838F75F00274BF128D56AF82E58124FCF581EF600302069D
:20060000317414C0E074AEC0E07407C0E074BFC0E0E50D2409F886820886830886F008E635
:20062000128D56AF82E58124FCF581EF70030204BAC0E0C0A8C2AF900F727401F0D0E05384
:20064000E080E5E042A8D0E00204BA850D81D00D22C00D85810DE581240CF581E50D2409FE
:20066000F876450876D20876400876C6E50D2405F8765C0876350876B7087646E50D2405C9
:20068000F8E6C0E008E6C0E008E6C0E008E6C0E0E50D2409F886820886830886F008E61284
:2006A0008E24AC82AD83AEF0FFE58124FCF581A80D08A60408A60508A60608A607A80D0851
:2006C000E6C0E008E6C0E008E6C0E008E6C0E075829A75839875F02D7446128D56AF82E572
:2006E0008124FCF581EF60030207197433C0E07498C0E0742DC0E07446C0E0A80D0886821C
:200700000886830886F008E6128D56AF82E58124FCF581EF7003020730C0E0C0A8C2AF9096
:200720000F727401F0D0E053E080E5E042A8D0E0E50D2405F8860408860508860608E6B2AD
:20074000E7FFC004C005C006C007E50D2409F886820886830886F008E6129265AC82AD839A
:20076000AEF0FFE58124FCF581A80D08A60408A60508A60608A607A80D08E6C0E008E6C06C
:20078000E008E6C0E008E6C0E07582147583AE75F007743F128D56AF82E58124FCF581EF7C
:2007A00060030207D3745CC0E0748FC0E07402C0E0743FC0E0A80D0886820886830886F02A
:2007C00008E6128D56AF82E58124FCF581EF700302065CC0E0C0A8C2AF900F727401F0D084
:2007E000E053E080E5E042A8D0E002065C850D81D00D227420B58103020812C0E0C0A8C2DE
:20080000AF900F727401F0D0E053E080E5E042A8D0E08500E0E5E07003020833C0E0C0A80F
:20082000C2AF900F727401F0D0E053E080E5E042A8D0E08501E07401B5E003020855C0E09D
:20084000C0A8C2AF900F727401F0D0E053E080E5E042A8D0E08502E07402B5E00302087791
:20086000C0E0C0A8C2AF900F727401F0D0E053E080E5E042A8D0E08503E07403B5E003024E
:200880000899C0E0C0A8C2AF900F727401F0D0E053E080E5E042A8D0E08504E07404B5E090
:2008A000030208BBC0E0C0A8C2AF900F727401F0D0E053E080E5E042A8D0E08505E07405DC
:2008C000B5E0030208DDC0E0C0A8C2AF900F727401F0D0E053E080E5E042A8D0E08506E07D
:2008E0007406B5E0030208FFC0E0C0A8C2AF900F727401F0D0E053E080E5E042A8D0E085A7
:2009000007E07407B5E003020921C0E0C0A8C2AF900F727401F0D0E053E080E5E042A8D0E0
:20092000E074CDB58203020940C0E0C0A8C2AF900F727401F0D0E053E080E5E042A8D0E060
:2009400074ABB5830302095FC0E0C0A8C2AF900F727401F0D0E053E080E5E042A8D0E0E53D
:20096000F00207F322C00D85810DE581240EF581AD82AE83AFF0E50D240CF8A60508A60603
:2009800008A607A80D0874012DF674003E08F608A607E50D24FCF886020886037C807F004A
:2009A0008A06A80D0886820886830886F0EE128D3BE50D2408F8A60308A60408A6070876E7
:2009C00000A80D08740126FD74000836FE088607E50D2408F886028D828E838FF0EA128DB7
:2009E0003B0DBD00010E8D828E838FF074AA128D3B0DBD00010E8D828E838FF07480128D41
:200A00003BE50D2408F874012DF674003E08F608A607E50D24F9F886020886030886047F57
:200A2000008A06E50D2408F886820886830886F0EE128D3BE50D2404F8A60308A60408A696
:200A400007087600E50D2408F8740126FD74000836FE088607E50D2404F886028D828E8364
:200A60008FF0EA128D3BE50D2404F808E618F60808E618F60808E618F60876000DBD0001D4
:200A80000EE50D2404F886028D828E838FF0EA128D3B0DBD00010E8D828E838FF07402124B
:200AA0008D3B0DBD00010E8D828E838FF07403128D3B0DBD00010E8D828E838FF0740412A3
:200AC0008D3B0DBD00010E8D828E838FF07405128D3B0DBD00010E8D828E838FF07406127F
:200AE0008D3B0DBD00010E8D828E838FF07407128D3B0DBD00010E8D828E838FF074001263
:200B00008D3B0DBD00010E8D828E838FF07401128D3B0DBD00010E8D828E838FF074001248
:200B20008D3B0DBD00010E8D828E838FF074BB128D3BE50D240CF88602EDC39AFDE50D246D
:200B40000CF886820886830886F0ED128D3BE50D240CF886820886830886F0850D81D00D92
:200B600022120DC3759600900F88E0FDA3E0FEA3E0FF8D828E838FF0129328F509A31293AD
:200B800028F50A750B20850982850A83E0F5080509E4B50902050A050BA90B850982850A6B
:200BA00083E0FFA7071508E5086003020B8F850B81D00DD0D0D001D000D007D006D005D09B
:200BC00004D003D002D0F0D083D082D0E020E705C2AF020BD7D2AFD0E0327582012222C097
:200BE000E0C0A8C2AFC082C083C0F0C002C003C004C005C006C007C000C001C0D075D00016
:200C0000C00D900F88E0FDA3E0FEA3E0FF8D828E838FF0129328F509A3129328F50A750BA7
:200C200021AF81EF24E0F508850982850A83E508F0E5087003020C530509E4B50902050AF2
:200C4000850982850A83A90B8707EFF0050B1508020C31125CAE900F88E0FDA3E0FEA3E0C1
:200C6000FF8D828E838FF0129328F509A3129328F50A750B20850982850A83E0F5080509EF
:200C8000E4B50902050A050BA90B850982850A83E0FFA7071508E5086003020C7E850B8124
:200CA000D00DD0D0D001D000D007D006D005D004D003D002D0F0D083D082D0E020E705C238
:200CC000AF020CC6D2AFD0E032C0E0C0A8C2AFC082C083C0F0C002C003C004C005C006C0EC
:200CE00007C000C001C0D075D000C00D900F88E0FDA3E0FEA3E0FF8D828E838FF012932857
:200D0000F509A3129328F50A750B21AF81EF24E0F508850982850A83E508F0E50870030244
:200D20000D3D0509E4B50902050A850982850A83A90B8707EFF0050B1508020D1B1254F8B0
:200D4000E5827003020D4A125CAE53F17F53AEF7900F88E0FDA3E0FEA3E0FF8D828E838FD3
:200D6000F0129328F509A3129328F50A750B20850982850A83E0F5080509E4B50902050AE9
:200D8000050BA90B850982850A83E0FFA7071508E5086003020D78850B81D00DD0D0D0018D
:200DA000D000D007D006D005D004D003D002D0F0D083D082D0E020E705C2AF020DC0D2AF86
:200DC000D0E032AF96759600C2AF43F68053F17F53AEF75393FE7594017595475393F7538D
:200DE00093FD43930275962D5397EF4397105393FB85939343E6804393018F9622C00D85EB
:200E0000810DC082C083C0F0C0E00581C0E0C0A8C2AFE50D2405F8A696759600750C017420
:200E200000C0E004C0E0E50D24FDF88682122BB3AA82AB83AFF015811581900001EAF0EBF0
:200E4000A3F0EFA3F07400C0E004C0E0E50D24FDF88682122BB3AD82AE83AFF01581158197
:200E6000900004EDF0EEA3F0EFA3F0C2AF43F40453E1FB75963453979F43972075961B43F8
:200E8000971075961B4397207596275397FE43EE107596275397FD53EEDFA80D08080886A4
:200EA0000608E6C454F0CEC4CE6ECE54F0CE6EFF1818E6C4540F4EFE18860408E6C454F0FA
:200EC000CCC4CC6CCC54F0CC6CFDC004C005C006C00775820075833675F06E74011290855B
:200EE000AC82AD83AEF0FFE58124FCF5818CDC8D0474035CF5DE43DE0843DE0443DD40535B
:200F0000DDEF43DD2053DDFB43DD0853DDFD43DD0153DFE743E704E50D2405F88696D0E0FE
:200F200053E080E5E042A8D0E075820075830075F000850D81D00D22C020C0E0C0F0C082C7
:200F4000C083C007C006C005C004C003C002C001C000C0D075D000C00D85810DE5812405EE
:200F6000F581E50D2404F87600C0E0C0A8C2AF53E1FBE5DF20E303020FCFE50D2405F8A668
:200F8000E275DF17E50D2404FF7E007D40E50D2405FCA80D08A60408760008764090000165
:200FA000E0FAA3E0FBA3E0FC7400C0E0C007C006C005A80D08E6C0E008E6C0E008E6C0E095
:200FC0008A828B838CF012305DE58124F9F581E5DF20E003020FDA75DF1EE5DF20E10302F5
:200FE0000FE575DF1DE5DF20E203020FF075DF1BE5DF20E40302105975DF0FE50D2404FFA1
:201000007E007D40E50D2405FCA80D08A604087600087640900004E0FAA3E0FBA3E0FCC0B0
:2010200007C006C005A80D08E6C0E008E6C0E008E6C0E08A828B838CF0123B79AF82E581CC
:2010400024FAF581BF01028003021056E50D2405F886E2021059750C01E50D2404F8E6707F
:2010600003021067120BDFD0E053E080E5E042A8D0E0850D81D00DD0D0D000D001D002D063
:2010800003D004D005D006D007D083D082D0F0D0E0D02032C00D85810DE50D24FBF886054C
:2010A000088606088607900001E0FAA3E0FBA3E0FCE50D24F9F8E6C0E008E6C0E0C005C0FF
:2010C00006C0078A828B838CF01232F9AF82E58124FBF581EF70030210E07582010210E303
:2010E000758200D00D22C00D85810DC0E0C0A8C2AF7401B50C02800302110DE50D24FDF8BB
:2011000086E2750C0075DF0F7F01021154E50D24FDFE8E077D007C40900004E0FAA3E0FBD1
:20112000A3E0FE7400C0E0E50D24FBF8E6C0E008E6C0E0C007C005C0048A828B838EF01203
:201140002D5EAE82E58124FAF5818E07EE60030211547F01D0E053E080E5E042A8D0E08FBC
:2011600082D00D22227400C0E07403C0E0758214122BB3AD82AE83AFF015811581900007E4
:20118000EDF0EEA3F0EFA3F02222C00D85810DC082C083058105810581E50D2403FD7C00A2
:2011A0007B40900007E0FAA3E0FEA3E0FFA80D08E6C0E008E6C0E0C005C004C0038A828E49
:2011C000838FF01232F9AF82E58124FBF581BF010280030211E6E50D2403F886820886833C
:2011E0000886F00211EF75820075830075F000850D81D00D22C00D85810DC082E581240657
:20120000F5817582087583001227D2AC82AD83AEF0A80D0808A60408A60508A606A80D08C7
:2012200008E6084670030213AD7403C0E07400C0E0758201122BB3AA82AB83AFF015811586
:2012400081A80D080886820886830886F0EA128D3BA3EB128D3BA3EF128D3BA80D080886CE
:20126000820886830886F0129328FEA3129328FDA3129328FCEA4B70030212997400C0E050
:20128000C0E0C0E0C0E0C0E0C0E08E828D838CF0122D5EE58124FAF581A80D080886820826
:2012A00086830886F0129328FAA3129328FBA3129328FFEA4B70030213ADA80D0808740360
:2012C00026FA74000836FB088607758204758300C007C003C0021227D2AC82AD83AEF0D096
:2012E00002D003D0078A828B838FF0EC128D3BA3ED128D3BA3EE128D3B8C828D838EF074FE
:20130000FF128D3BA37400128D3BA3128D3BA3128D3BA80D0808740626FD74000836FE08EF
:2013200086078D828E838FF07400128D3BA3128D3BA80D08088604088605088606C0E0C0E0
:20134000E0C0E0C0E0C004C005C00674A7C0E07400C0E074DAC0E07495C0E07480C0E075AF
:20136000827575831512452FE58124F4F581A80D080886040886050886067400C0E0C0E0C5
:20138000C0E0C0E0C004C005C00674A7C0E07400C0E074E2C0E07495C0E07480C0E07582C5
:2013A0007575831512452FE58124F4F5817582087583001227D2AD82AE83AFF0E50D240515
:2013C000F8A60508A60608A607E50D2405F8E60846700302156F7403C0E07400C0E075829F
:2013E00001122BB3AA82AB83ACF015811581E50D2405F886820886830886F0EA128D3BA3C9
:20140000EB128D3BA3EC128D3BE50D2405F886820886830886F0129328FFA3129328FEA317
:20142000129328FDEA4B70030214487400C0E0C0E0C0E0C0E0C0E0C0E08F828E838DF012F7
:201440002D5EE58124FAF581E50D2405F886820886830886F0129328FAA3129328FBA31276
:201460009328FCEA4B700302156FE50D2405F8740326FA74000836FB0886047582047583AB
:2014800000C004C003C0021227D2AD82AE83AFF0D002D003D0048A828B838CF0ED128D3B23
:2014A000A3EE128D3BA3EF128D3B8D828E838FF074FF128D3BA3740F128D3BA37400128DB3
:2014C0003BA3128D3BE50D2405F8740626FD74000836FE0886078D828E838FF0740A128DA3
:2014E0003BA37400128D3BE50D2405F886050886060886077400C0E0C0E0C0E0A80D08E602
:20150000C0E0C005C006C00774A7C0E07400C0E074EAC0E07495C0E07480C0E075827575EE
:20152000831512452FE58124F4F581E50D2405F886050886060886077400C0E0C0E0C0E07E
:20154000A80D08E6C0E0C005C006C00774A7C0E07400C0E074F2C0E07495C0E07480C0E0E4
:2015600075827575831512452FE58124F4F581850D81D00D22C00D85810DE5812411F58175
:20158000AE82AC83ABF0E50D240EF87400F608F6C0E0C0A8C2AF900F7BE0FAA3E0FFE50DEC
:2015A0002410F8A60208A607900F7BE0FAA3E0FD900F7B74012AF074003DA3F0D0E053E05E
:2015C00080E5E042A8D0E07582D775839575F080C006C004C003121189D003D004D006E591
:2015E0000D2407F8A60608A60408A603E50D2407F8740326FB74000836FE0886078B828E1F
:20160000838FF0E50D2404F8129328F6A312932808F6A312932808F6E50D2407F8A90D0943
:20162000740626F77400083609F708E609F7A80D0886820886830886F0129328FEA312930C
:2016400028FFEE4F700302165CE50D240AF876FF08760F740008F608F602166BE50D240A12
:20166000F876FF740008F608F608F6A80D0886820886830886F0129328FEA3129328FFE51C
:201680000D2407F886820886830886F0129328FBA3129328FCA3129328FDC006C0078B8248
:2016A0008C838DF01235BBAF8215811581BF0102800302184AE50D2404F886820886830863
:2016C00086F0129328FBA3129328FDA3129328FEA3129328FFE50D240AF8E6B5031208E6CC
:2016E000B5050D08E6B5060808E6B507030217067582D475839575F080121189E50D240E99
:20170000F876010876007B007E007D007F00E50D240AF8C3E69B08E69E08E69D08E69F5097
:2017200003021770E50D2404F886820886830886F0EB128D3BA3EE128D3BA3ED128D3BA337
:20174000EF128D3BE50D2404F886820886830886F0129328A3129328A3129328A3129328FA
:201760000BBB00090EBE00050DBD00010F02170EE50D2407F886820886830886F01293284F
:20178000FDA3129328FEA3129328FF7400C0E0C0E0C0E0C0E0C0E0C0E08D828E838FF0128A
:2017A0002D5EAF82E58124FAF581EF60030217C67582D475839575F080121189E50D240E35
:2017C000F87601087600E50D240EF8E608466003021817E50D2410F88606088607C3EE94B4
:2017E00004EF648094804003021817E50D2410F8E625E0FE08E633FFEE2473FEEF340FFFAF
:201800008E828F83E0FCA3E0FD0CBC00010D8E828F83ECF0EDA3F0A80D0886820886830818
:2018200086F0129328FEA3129328FFC006C00775820A758300128D86AE82AF8315811581BF
:201840008E828F83124D4202166BA80D0886820886830886F0129328FEA3129328FFEE4F77
:20186000600302166B120BDF02166B850D81D00D227F017E00EE75F002A4FCADF0EC240A47
:20188000F582ED3400F583E0FAA3E0FBEC2473F582ED340FF583E0FCA3E0FDEAB50406EB4E
:2018A000B5050280030218AA7F00EE75F002A4FCADF0EC240AFAED3400FBEC2473F582EDFD
:2018C000340FF583E0FCA3E0FD8A828B83ECF0EDA3F00EBE040050030218758F8222AF8265
:2018E000C0077400C0E07402C0E075820A122BB3AC82AD83AEF015811581D007900012EC79
:20190000F0EDA3F0EEA3F0EC4D7003021984C0077400C0E0C0E0C0E0C0077412C0E074000F
:20192000C0E07400C0E074A7C0E07400C0E07451C0E07496C0E07480C0E075825975831A1F
:2019400012452FE58124F4F581D0077400C0E0C0E0C0E0C0077412C0E07400C0E07400C0AD
:20196000E074A7C0E07400C0E07459C0E07496C0E07480C0E075828575831912452FE58194
:2019800024F4F58122C00D85810DC082C083C0F0058105810581E50D2404F87400F608F676
:2019A0007C00E50D2406F87600C004E50D2404FA7C007F40A80D0886030886050886068B16
:2019C000828D838EF0129328FBA3129328FDA3129328FEC0047400C0E0C0E0C0E0C002C0BA
:2019E00004C0078B828D838EF0122D5EAF82E58124FAF581D004BF0105D004021A05D00457
:201A00007C01021A2DEC6003021A22C0E0C0A8C2AF900F7EE004F0D0E053E080E5E042A8F7
:201A2000D0E0E50D2404F806B600020806E50D2406F806E50D2406F8C3E6648094835003F3
:201A40000219A975820A758300C004124D42D0040219A2850D81D00D22C00D85810DC0829F
:201A6000C083C0F00581058105817B007C00E50D2404F87600C003C004A80D088602088608
:201A8000060886078A828E838FF0129328FBA3129328FCA3129328FD8B828C838DF0C0070E
:201AA000C006C004C003C002123D5CE582D002D003D004D006D007D004D0037003021B6741
:201AC000C003C004E50D2405FD8D037C007D408A828E838FF0129328FAA3129328FEA31218
:201AE0009328FFC004C0037400C0E0C0E0C003C004C0058A828E838FF01232F9AF82E58135
:201B000024FBF581D003D004BF01028007D004D003021A75D004D003E50D2405F8E6B503B0
:201B20000808E6B50403021B3DE50D2404F87601E50D2405F88603088604021B5FE50D2450
:201B400004F8E66003021B5FC0E0C0A8C2AF900F7DE004F0D0E053E080E5E042A8D0E00B8E
:201B6000BB00010C021A75758208758300C004C003124D42D003D004021A75850D81D00DC5
:201B800022900F7DE07003021B93900F7EE06003021B987F00021B9A7F01900F7D7400F0B9
:201BA000900F7EF08F8222C00D85810DAF82E50D24F9F8900F82E6F0C0077418C0E0E50DF1
:201BC00024FAF886820886830886F008E6120DFD1581D0078F061EC0077400C0E0C0E0C0F3
:201BE000E0C006C0E0C0E0C0E074A7C0E07400C0E07461C0E07496C0E07480C0E0758244A2
:201C000075831C12452FE58124F4F581D0077400C0E0C0E0C0E0C007C0E0C0E0C0E074A749
:201C2000C0E07400C0E07467C0E07496C0E07480C0E07582EF75831C12452FE58124F4F544
:201C400081D00D227F41900F7FE0FCA3E0FDA3E0FEC0077400C0E0C0E0C0078C828D838E5B
:201C6000F01210E6AE82158115811581D007BE01028003021C84900F82E0FE8E82C00712D5
:201C80000218D0070FC374589F4003021C46900F82E0FF7400C0E08F8212014E15811254ED
:201CA0005BAE82AF8374032EFE74003FFF7D007C00740FC0E07400C0E0C0E0C0E08E828F03
:201CC000838DF0EC128EC6AC82AD83AEF0FFE58124FCF581C3EC9405ED94004003021CE4AD
:201CE0007C057D008C828D83124D42021C4422C00D85810DE5812405F5817F00E50D240425
:201D0000F876007B41C007E50D2405FCA80D08A604087600087640900F7FE0FDA3E0FEA3F9
:201D2000E0FFC004C00374FFC0E0C0E0A80D08E6C0E008E6C0E008E6C0E08D828E838FF08C
:201D4000121094AF82E58124FBF581D003D004EFD0077003021D84E50D2405F8E6B503026B
:201D60008003021D7F900F82E0FE0E8E82C007C004C003120218D003D004D007021D847F0B
:201D800001021D960BC3745864808BF063F08095F04003021D05900F82E0FE0EC007C0043D
:201DA0007400C0E08E8212014E1581D004D007BF01028003021E068C06E50D2405F8B6583F
:201DC00003021DFB8E077C007B40C006900F7FE0FAA3E0FDA3E0FEC00674FFC0E0C0E0C022
:201DE00007C004C0038A828D838EF0121094E58124FBF581D006D006021DB9E50D2404F874
:201E0000067F00021D03E50D2404F8C3E6648094824003021D03900F83E004F0021D038564
:201E20000D81D00D22900F83E06003021E337F00021E357F01900F837400F08F8222AF821F
:201E40007E00C007C0067400C0E0C0E0C0E0C007C0E0C0E0C0E074A7C0E07400C0E0746DCC
:201E6000C0E07496C0E07480C0E075828A75831E12452FE58124F4F581D006D0070EC3EE07
:201E8000648094815003021E4222C00D85810D058105810581C0E0C0A8C2AF900F84E0FF85
:201EA000E50D2403F8A607E004F0D0E053E080E5E042A8D0E0E50D2403F886057E00C005EF
:201EC000C00675824D758301128D86AD82AE8315811581744D2DFD74013EFE7C007B007447
:201EE0000AC0E07400C0E0C0E0C0E08D828E838CF0EB129085AB82AC83ADF0FEE58124FCB9
:201F0000F5818B05ECC313CD13CDFEC006C00512545BAB82AC83D005D006A80D08A603088D
:201F2000A604AC0D0C8C027B007F40C006C005C004C005C0068A828B838FF0124C5A1581A9
:201F40001581D004D005D006E50D2403F88682C006C005C004120218D004D005D0067F00DA
:201F60007B40C006C005C005C0068C828F838BF0124C5A15811581D005D006E50D2403F855
:201F80008682C006C005120218D005D006021F22850D81D00D22AF827D007E00ED2485FBC5
:201FA000EE340FFC7A00C007C006C0057400C0E0C0E0C0E0C007C003C004C00274A7C0E009
:201FC0007400C0E07472C0E07496C0E07480C0E07582FD75831F12452FE58124F4F581D0D4
:201FE00005D006D0070DBD00010E8D038E04C3EB9401EC648094805003021F9C22C00D8589
:20200000810DE5812407F581AD82AE83AFF07B007C00E50D2405F8A60508A60608A607C04E
:2020200003C004A80D08767B740008F608F608F6A80D08744726F674940836F67403083638
:20204000F674000836F6A80D08E6C0E008E6C0E008E6C0E008E6C0E07582FD7583FF75F0A5
:20206000FF74FF129344AA82AB83ACF0FFE58124FCF581A80D08A60208A60308A60408A69E
:2020800007C0037407C0E07400C0E0C0E0C0E0A80D0886820886830886F008E6128F88ACF0
:2020A00082AD83AEF0FFE58124FCF581D003A80D08A60408A60508A60608A607A80D08B60C
:2020C0001B1308B6770F08B6FE0B08B6FF07D004D0030220DDD004D0037B017C00EB4C6027
:2020E0000302201FC0E0C0A8C2AFE50D2405F886820886830886F07401128D3BD0E053E047
:2021000080E5E042A8D0E002201F850D81D00D227F017D007E00ED2485FBEE340FFC8B8247
:202120008C83E0600302212A7F00ED2485F582EE340FF5837400F00DBD00010E8D038E046C
:20214000C3EB9401EC6480948050030221168F8222C00D85810DC082C083C0F00581058178
:202160000581A80D08740126FF74000836FB088602A80D08E50D2404F9740426F774000864
:202180003609F708E609F7E50D2404F886040886050886068F828B838AF0EC128D3BA3ED69
:2021A000128D3BA3EE128D3BE50D2404F886820886830886F074FF128D3BA3128D3BE50D75
:2021C0002404F8740226FF74000836FD088604E50D2404F886020886030886068F828D8323
:2021E0008CF0EA128D3BA3EB128D3BA3EE128D3BE50D2404F8740526FF74000836FD0886DF
:2022000004E50D2404F886020886030886068F828D838CF0EA128D3BA3EB128D3BA3EE128F
:202220008D3BA80D0886820886830886F07400128D3B850D81D00D22AD82AE83AFF0740BA4
:202240002DFD74003EFE8D828E838FF07400128D3BA3128D3BA3128D3B22C00D85810DC0FB
:2022600082C083C0F0E5812409F581A80D08740126FA74000836FB0886048A828B838CF0B9
:20228000E50D240AF8129328F6A312932808F6A312932808F6E50D24FBF88602088603085D
:2022A000860474022AFD74003BFE8C078D828E838FF0E50D240AF8E6128D3BA308E6128D10
:2022C0003BA308E6128D3BE50D2404F874052AF674003B08F608A604E50D240AF8E50D2420
:2022E00007F9740526F77400083609F708E609F7E50D2407F886820886830886F01293282F
:20230000FDA3129328FEA3129328FFE50D2404F886820886830886F0ED128D3BA3EE128D43
:202320003BA3EF128D3BE50D2407F886820886830886F0129328FDA3129328FEA3129328A2
:20234000FF74022DFD74003EFE8D828E838FF0EA128D3BA3EB128D3BA3EC128D3BE50D24E4
:2023600007F886820886830886F0EA128D3BA3EB128D3BA3EC128D3B740B2AFA74003BFBE5
:202380008A828B838CF0A80D08E6128D3BA308E6128D3BA308E6128D3BA80D088682088601
:2023A000830886F0129328FF0FA80D0886820886830886F0EF128D3B850D81D00D22C00D45
:2023C00085810DC082C083C0F0E581240BF581E50D24FBF886020886030886048A828B83DC
:2023E0008CF0E50D240DF8129328F6A312932808F6E50D240DF8B6FF0608B6FF02800302FB
:202400002443C002C003C004A80D08740426FA74000836FB08860474052AFA74003BFB8AA7
:20242000828B838CF0E50D240AF8129328F6A312932808F6A312932808F6D004D003D00260
:202440000224CDA80D08740426FD74000836FE088607E50D240AF8A60508A60608A607C000
:2024600002C003C004E50D240AF8740226FD74000836FE0886078D828E838FF0129328FA77
:20248000A3129328FBA3129328FC8A828B838CF0129328FAA3129328FBE50D240DF8C3E6D9
:2024A0009A08E69BD004D003D00250030224CD8D828E838FF0E50D240AF8129328F6A3120B
:2024C000932808F6A312932808F602245FE50D2404F874022AF674003B08F608A604E50D57
:2024E000240AF8E50D2407F9740226F77400083609F708E609F7E50D2407F886820886833F
:202500000886F0129328FDA3129328FEA3129328FFE50D2404F886820886830886F0ED12EE
:202520008D3BA3EE128D3BA3EF128D3B74052DFD74003EFE8D828E838FF0EA128D3BA3EBB8
:20254000128D3BA3EC128D3B74052AFD74003BFE8C078D828E838FF0E50D240AF8E6128D1C
:202560003BA308E6128D3BA308E6128D3BE50D2407F886820886830886F0EA128D3BA3EB4C
:20258000128D3BA3EC128D3B740B2AFA74003BFB8A828B838CF0A80D08E6128D3BA308E607
:2025A000128D3BA308E6128D3BA80D0886820886830886F0129328FF0FA80D088682088654
:2025C000830886F0EF128D3B850D81D00D22C00D85810DC082C083C0F0E581240CF581A856
:2025E0000D08740B26FA74000836FB0886048A828B838CF0E50D240DF8129328F6A312932C
:202600002808F6A312932808F6A80D08E50D2404F9740226F77400083609F708E609F7E53E
:202620000D2404F886820886830886F0129328FDA3129328FEA3129328FFE50D240AF874A3
:20264000052DF674003E08F608A607A80D08E50D2407F9740526F77400083609F708E609DB
:20266000F7E50D2407F886820886830886F0129328FDA3129328FEA3129328FFE50D240AF0
:20268000F886820886830886F0ED128D3BA3EE128D3BA3EF128D3BE50D2407F88682088662
:2026A000830886F0129328FDA3129328FEA3129328FFE50D240AF874022DF674003E08F611
:2026C00008A607E50D2404F886820886830886F0129328FDA3129328FEA3129328FFE50D03
:2026E000240AF886820886830886F0ED128D3BA3EE128D3BA3EF128D3BE50D240DF8E50D72
:20270000240AF9740126F77400083609F708E609F7E50D240AF886820886830886F012930C
:2027200028FDA3129328FEA3129328FFA80D08C005C006C00786820886830886F01200914E
:2027400015811581158170028003022783E50D2407F886820886830886F0129328FDA312EB
:202760009328FEA3129328FFE50D240AF886820886830886F0ED128D3BA3EE128D3BA3EFBE
:20278000128D3B8A828B838CF07400128D3BA3128D3BA3128D3BE50D240DF886820886834D
:2027A0000886F0129328FF1FE50D240DF886820886830886F0EF128D3BE50D240DF8868212
:2027C0000886830886F0129328FF8F82850D81D00D22C00D85810DC082C083058105810505
:2027E00081E50D2403F87400F608F6087600124DE6900F15E0F5F0A3E045F060030228134B
:202800007A157D007E007F00900F15EAF0EDA3F0EEA3F0A80D08E60846700302287C900F77
:2028200086E0FEA3E0FFA80D08E62EFC08E63FFDC3EC94FFED940E400302287CA80D08E65E
:202840002EFC08E63FFDC3EE9CEF9D400302287C900F15E0FBA3E0FCA3E0FDEE2BFBEF3C95
:20286000FCE50D2403F8A60308A60408A605A80D08900F86E62EF008E63FA3F0124DEEE565
:202880000D2403F886820886830886F0850D81D00D2222900F867400F0A3F022900F86E0FE
:2028A000FEA3E0FF74FFC39EFE740E9FFF8E828F8322C00D85810DC082C083C0F0E58124C3
:2028C0000AF581E50D240DF87601A80D08E608467003022B9FA80D08742526FA740008368E
:2028E000FB0886048A828B838CF0129328FFBF01005003022B9FC002C003C0048F037C00B3
:20290000C002C003C0047582FF7583FF128CEFAB82AC8315811581D002A80D08E50D2404C3
:20292000F9742626F77400083609F708E609F7E50D2404F886820886830886F0129328FAD7
:202940007F00C3EB9AEC9FD004D003D0025003022B9FC0E0C0A8C2AFA80D08E50D2407F941
:20296000740626F77400083609F708E609F7A80D0886820886830886F0E50D240AF912930E
:2029800028F7A312932809F7A312932809F78A828B838CF0129328FFE50D2404F8868208B4
:2029A00086830886F0129328FE8FF0EEA4C8E50D240AC826FD08E635F0FE088607E50D2425
:2029C00007F886820886830886F0ED128D3BA3EE128D3BA3EF128D3BA80D08742426FD74D7
:2029E000000836FE0886078D828E838FF07400128D3BA80D08E50D240AF9740326F774003B
:202A0000083609F708E609F7A80D0886820886830886F0129328FDA3129328FEA31293288E
:202A2000FFE50D240AF886820886830886F0ED128D3BA3EE128D3BA3EF128D3BE50D24072D
:202A4000F8E50D240AF9740326F77400083609F708E609F7A80D0886820886830886F012CB
:202A60009328FDA3129328FEA3129328FF8A828B838CF0129328FA7C00E50D2407F8EA24C5
:202A8000FFF6EC34FF08F6E50D2404F886820886830886F0129328FB7C00C007C006C005E5
:202AA000C003C004E50D2407F88682088683128D86AB82AC8315811581D005D006D007EB47
:202AC0002DFDEC3EFEE50D240AF886820886830886F0ED128D3BA3EE128D3BA3EF128D3B57
:202AE000A80D08742726FD74000836FE0886078D828E838FF074FF128D3BA80D08742826AB
:202B0000FD74000836FE0886078D828E838FF074FF128D3BE50D24FDF8E66003022B61A8FD
:202B20000D08740C26FD74000836FE0886078D828E838FF01293287003022B91A80D0874CA
:202B40000C26FD74000836FE0886078D828E838FF012605DE5827003022B91120BDF022BD2
:202B600091A80D08740C26FD74000836FE0886078D828E838FF0122151A80D08741826FD90
:202B800074000836FE0886078D828E838FF0122151D0E053E080E5E042A8D0E0022BA6E553
:202BA0000D240DF87600E50D240DF88682850D81D00D22C00D85810DC0827C007D007E009B
:202BC000A80D08E67003022C91C004C005C006A80D0886027B00C006C005C004C002C0033D
:202BE0007582FF7583FF128CEFAA82AB8315811581D004D005D006E50D24FDF886057E0042
:202C0000C3EA9DEB9ED006D005D0045003022C91A80D08E50D24FDF986F0E7A4FAABF0C32E
:202C200074D69A74FF9B5003022C9174292AFA74003BFB8A828B831227D2AA82AB83AFF007
:202C40008A048B058F06EC4D7003022C918C028D038E0774292AFA74003BFBC006C005C0ED
:202C600004C004C005C006E50D24FCF8E6C0E0C002C003C007E50D24FDF8E6C0E0A80D08D7
:202C80008682122C9CE58124F8F581D004D005D0068C828D838EF01581D00D22C00D8581D7
:202CA0000DC082E50D24FDF8E66003022CDFE50D24F6F88604088605088606E50D24F6F8AB
:202CC00086020886030886078C828D838EF0EA128D3BA3EB128D3BA3EF128D3B022D0DE5F1
:202CE0000D24F6F88604088605088606E50D24FAF886020886030886078C828D838EF0EAC8
:202D0000128D3BA3EB128D3BA3EF128D3BE50D24F6F8860508860608860774252DFA740019
:202D20003EFB8F048A828B838CF0A80D08E6128D3B74262DFA74003EFB8F048A828B838C0D
:202D4000F0E50D24FDF8E6128D3B7401C0E08D828E838FF01228B215811581D00D22C00D20
:202D600085810DE5812411F581AD82AB83ACF0E50D240BF87600E50D240CF8A60508A60331
:202D800008A604E50D24F8F8B60204740180027400FFE50D240FFEE50D240AF8A606A80DB9
:202DA0000874242DF674003B08F608A604E50D2404F874252DF674003B08F608A604C0E024
:202DC000C0A8C2AFA80D0886820886830886F0129328FDE50D2404F886820886830886F053
:202DE000129328FCC3ED9C5003022DF2EF7003022E84E50D24F8F8E6C0E0E50D24FBF8E6B9
:202E0000C0E008E6C0E008E6C0E0E50D240CF886820886830886F0123DF7AC82E58124FC4B
:202E2000F5818C07E50D240CF8741826FA74000836FB0886048A828B838CF01293287003AE
:202E4000022E6AE50D240CF8741826FA74000836FB0886048A828B838CF012605DE5827097
:202E600003022E73120BDF022E73EF7003022E73120BDFD0E053E080E5E042A8D0E0758253
:202E800001023057E50D24F9F8E608466003022EA2D0E053E080E5E042A8D0E0758200027D
:202EA0003057E50D240BF8E66003022ECB8E027B007C408A828B838CF0C007C006126E4D77
:202EC000D006D007E50D240BF87601D0E053E080E5E042A8D0E0C007C006124DE6D006D07B
:202EE00007C0E0C0A8C2AFE50D240CF8742726FA74000836FB0886048A828B838CF0129303
:202F000028FDBDFF028003022F158A828B838CF07400128D3BE50D240CF8742826FA7400D7
:202F20000836FB0886048A828B838CF0129328FDBDFF028003022F438A828B838CF07400A7
:202F4000128D3BC007D0E053E080E5E042A8D0E0E50D24F9FCE50D2407F8A60408760008BE
:202F60007640E50D240AF886047D007F40C006E50D2407F8E6C0E008E6C0E008E6C0E08CB4
:202F8000828D838FF0126E7FAF82158115811581D006EFD0076003023041E50D240CF8861C
:202FA000820886830886F0C007C0061244A0E582D006D007700302301BE50D240CF8740C0F
:202FC00026FB74000836FC088605C007C006E50D24F9F8E6C0E008E6C0E08B828C838DF04E
:202FE000125E4115811581D006D007E50D240CF886820886830886F0C007C0061242ABD03A
:2030000006D007C007C006124DEEE582D006D0076003022DBE120BDF022DBEE50D240CF892
:2030200086820886830886F0C007C0061242ABD006D007C007C006124DEED006D007022D0A
:20304000BEE50D240CF886820886830886F01242AB124DEE758200850D81D00D22C00D855A
:20306000810D058105810581AA82AB83ACF0A80D08A60208A60308A60474242AFD74003B04
:20308000FE8C078D828E838FF0129328FD74252AFC74003BFE8C078C828E838FF0129328CC
:2030A000FCC3ED9C50030230B6E50D24F7F8B6020280030231B5A80D08742826FD7400086B
:2030C00036FE0886078D828E838FF0129328FFA80D08742426FC74000836FD0886068C82F4
:2030E0008D838EF0129328C007E50D24F7F8E6C0E0E50D24FBF8E6C0E008E6C0E008E6C058
:20310000E0A80D0886820886830886F0123DF7E58124FCF581D007BFFF028003023183A8C1
:203120000D08741826FC74000836FD0886068C828D838EF012932870030231B0A80D087499
:203140001826FC74000836FD0886068C828D838EF012605DE58270030231B0E50D24F8F8C4
:20316000E6084670030231B0E50D24F8F886040886050886068C828D838EF07401128D3B23
:203180000231B0C007125486AE82D0078F05C3ED9E40030231B0A80D08742826FC74000893
:2031A00036FD0886060F8C828D838EF0EF128D3B7F010231B77F008F82850D81D00D22C008
:2031C0000D85810DE5812407F581C8E50D2404C8A68208A68308A6F0E50D2404F874242657
:2031E000FA74000836FB0886048A828B838CF0E50D2407F8129328F6E50D2404F874252657
:20320000FD74000836FE0886078D828E838FF0129328FDE50D2407F8C3E69D40030232EF42
:20322000E50D2404F8A90D09742826F77400083609F708E609F7A80D088682088683088600
:20324000F0129328FFE50D2407F8E604FE8A828B838CF0EE128D3BBFFF0280030232C7E534
:203260000D2404F8741826FC74000836FD0886068C828D838EF012932870030232EAE50D44
:203280002404F8741826FC74000836FD0886068C828D838EF012605DE58270030232EAE5D5
:2032A0000D24FBF8E6084670030232EAE50D24FBF886040886050886068C828D838EF0745B
:2032C00001128D3B0232EAC007125486AE82D0078F05C3ED9E40030232EA0FA80D08868224
:2032E0000886830886F0EF128D3B7F010232F17F008F82850D81D00D22C00D85810DE581E9
:20330000240BF581AC82AD83AFF0E50D240BF87600E50D2405F8A60408A60508A607E50D65
:203320002408FEE50D2404F8A606A80D0874242CF674003D08F608A607C0E0C0A8C2AFA8A9
:203340000D0886820886830886F0129328FC8C05EC70030233F2C005E50D24FBF8E6C0E08D
:2033600008E6C0E008E6C0E0E50D2405F886820886830886F0124151158115811581D0054C
:20338000E50D2405F8742426FB74000836FC088607ED14FA8B828C838FF0EA128D3BE50DD2
:2033A0002405F8740C26FB74000836FC0886078B828C838FF012932870030233E1E50D2401
:2033C00005F8740C26FB74000836FC0886078B828C838FF012605DE58270030233E1120B95
:2033E000DFD0E053E080E5E042A8D0E07582010235B5E50D24F9F8E608466003023410D094
:20340000E053E080E5E042A8D0E07582000235B5E50D240BF8E660030234358E037C007F7E
:20342000408B828C838FF0C006126E4DD006E50D240BF87601D0E053E080E5E042A8D0E0F6
:20344000C006124DE6D006C0E0C0A8C2AFE50D2405F8742726FB74000836FC0886078B82F3
:203460008C838FF0129328FABAFF02800302347B8B828C838FF07400128D3BE50D2405F80C
:20348000742826FB74000836FC0886078B828C838FF0129328FABAFF0280030234A98B82A0
:2034A0008C838FF07400128D3BC006D0E053E080E5E042A8D0E0E50D24F9FF7C007B40E57E
:2034C0000D2404F886027D007E40C006C007C004C0038A828D838EF0126E7FAF8215811573
:2034E000811581D006D006EF600302357CE50D2405F886820886830886F0C006124443E516
:2035000082D006700302355EE50D2405F8741826FC74000836FD088607C006E50D24F9F879
:20352000E6C0E008E6C0E08C828D838FF0125E4115811581D006E50D2405F88682088683FB
:203540000886F0C0061242ABD006C006124DEEE582D0066003023339120BDF023339E50DD5
:203560002405F886820886830886F0C0061242ABD006C006124DEED006023339E50D240586
:20358000F886820886830886F0C0061242ABD006C006124DEED006E50D2405F8868208866F
:2035A000830886F0C006124443E582D0067003023339758200850D81D00D22C00D85810DA4
:2035C000E581240BF581AC82AD83AFF0E50D2405F87600E50D2406F8A60408A60508A60734
:2035E000E50D2409FEE50D2404F8A606A80D0874242CF674003D08F608A607C0E0C0A8C24B
:20360000AFA80D0886820886830886F0129328FC8C07EC700302367EEF14FCA80D08868272
:203620000886830886F0EC128D3BE50D2406F8740C26FB74000836FC0886078B828C838F92
:20364000F0129328700302366DE50D2406F8740C26FB74000836FC0886078B828C838FF002
:2036600012605DE582700302366D120BDFD0E053E080E5E042A8D0E0758201023841E50DD9
:2036800024FCF8E60846600302369CD0E053E080E5E042A8D0E0758200023841E50D240558
:2036A000F8E660030236C18E037C007F408B828C838FF0C006126E4DD006E50D2405F87677
:2036C00001D0E053E080E5E042A8D0E0C006124DE6D006C0E0C0A8C2AFE50D2406F874271E
:2036E00026FB74000836FC0886078B828C838FF0129328FABAFF0280030237078B828C836A
:203700008FF07400128D3BE50D2406F8742826FB74000836FC0886078B828C838FF0129388
:2037200028FABAFF0280030237358B828C838FF07400128D3BC006D0E053E080E5E042A8FA
:20374000D0E0E50D24FCFF7C007B40E50D2404F886027D007E40C006C007C004C0038A827C
:203760008D838EF0126E7FAF82158115811581D006D006EF6003023808E50D2406F886826D
:203780000886830886F0C006124443E582D00670030237EAE50D2406F8741826FC7400082A
:2037A00036FD088607C006E50D24FCF8E6C0E008E6C0E08C828D838FF0125E4115811581E3
:2037C000D006E50D2406F886820886830886F0C0061242ABD006C006124DEEE582D006601D
:2037E000030235FB120BDF0235FBE50D2406F886820886830886F0C0061242ABD006C0065A
:20380000124DEED0060235FBE50D2406F886820886830886F0C0061242ABD006C006124DE8
:20382000EED006E50D2406F886820886830886F0C006124443E582D00670030235FB7582E1
:2038400000850D81D00D22C00D85810DE581240DF581AD82AB83AFF07C00E50D240BF8A632
:203860000508A60308A607E50D2408FEE50D2404F8A606A80D0874242DF674003B08F608D6
:20388000A607C0E0C0A8C2AFA80D0886820886830886F0129328700302397BE50D240BF89F
:2038A000740626FA74000836FB08860774032AFA74003BFB8A828B838FF0129328FEA312CE
:2038C0009328FDA3129328FCC006C005C004E50D24FBF8E6C0E008E6C0E008E6C0E0E50DD8
:2038E000240BF886820886830886F0124151158115811581D004D005D006E50D240BF87498
:203900000626FA74000836FB08860774032AFA74003BFB8A828B838FF0EE128D3BA3ED12F7
:203920008D3BA3EC128D3BE50D240BF8741826FA74000836FB0886078A828B838FF0129311
:2039400028700302396AE50D240BF8741826FA74000836FB0886078A828B838FF012605DB8
:20396000E582700302396A120BDFD0E053E080E5E042A8D0E0758201023B73E50D24F9F85B
:20398000E608466003023999D0E053E080E5E042A8D0E0758200023B73EC60030239B48E87
:2039A000027B007F408A828B838FF0C006126E4DD0067C01D0E053E080E5E042A8D0E0C0CA
:2039C00006C004124DE6D004D006C0E0C0A8C2AFE50D240BF8742726FA74000836FB0886A6
:2039E000078A828B838FF0129328FDBDFF0280030239FE8A828B838FF07400128D3BE50D0A
:203A0000240BF8742826FA74000836FB0886078A828B838FF0129328FDBDFF028003023AA1
:203A20002C8A828B838FF07400128D3BC004D0E053E080E5E042A8D0E0E50D24F9FFE50DED
:203A40002405F8A607087600087640E50D2404F886047D007F40C006C004E50D2405F8E601
:203A6000C0E008E6C0E008E6C0E08C828D838FF0126E7FAF82158115811581D004D006D081
:203A800004EF6003023B2EE50D240BF886820886830886F0C006C004124443E582D004D087
:203AA000067003023B08E50D240BF8741826FB74000836FD088607C006C004E50D24F9F8AD
:203AC000E6C0E008E6C0E08B828D838FF0125E4115811581D004D006E50D240BF886820886
:203AE00086830886F0C006C0041242ABD004D006C006C004124DEEE582D004D006600302BF
:203B00003882120BDF023882E50D240BF886820886830886F0C006C0041242ABD004D00650
:203B2000C006C004124DEED004D006023882E50D240BF886820886830886F0C006C00412FC
:203B400042ABD004D006C006C004124DEED004D006E50D240BF886820886830886F0C006D7
:203B6000C004124443E582D004D0067003023882758200850D81D00D22C00D85810DC0827D
:203B8000C083C0F0A80D08742426FA74000836FB0886048A828B838CF0129328FA8A04EAA9
:203BA0007003023CA2A80D08742726FA74000836FB0886078A828B838FF0129328FFC007CC
:203BC000C004E50D24FBF8E6C0E008E6C0E008E6C0E0A80D0886820886830886F01241517E
:203BE000158115811581D004D007A80D08742426FB74000836FD0886061C8B828D838EF0E8
:203C0000EC128D3BBFFF028003023C70A80D08740C26FC74000836FD0886068C828D838E9F
:203C2000F01293287003023C9DA80D08740C26FC74000836FD0886068C828D838EF01260C9
:203C40005DE5827003023C9DE50D24F8F8E608467003023C9DE50D24F8F88604088605089F
:203C600086068C828D838EF07401128D3B023C9DC007125486AE82D0078F05C3ED9E400313
:203C8000023C9DA80D08742726FC74000836FD0886060F8C828D838EF0EF128D3B7F010296
:203CA0003CA47F008F82850D81D00D22C00D85810DAD82AE83AFF074242DFA74003EFB8FA8
:203CC000048A828B838CF01293287003023D5574062DFA74003EFB8F0474032AFA74003B4B
:203CE000FB8A828B838CF0129328FAA3129328FBA3129328FCC007C006C005C004C003C0FC
:203D000002E50D24FBF8E6C0E008E6C0E008E6C0E08D828E838FF0124151158115811581F1
:203D2000D002D003D004D005D006D00774062DFD74003EFE74032DFD74003EFE8D828E83C3
:203D40008FF0EA128D3BA3EB128D3BA3EC128D3B7F01023D577F008F82D00D22AD82AE834A
:203D6000AFF0C0E0C0A8C2AF74242DFD74003EFE8D828E838FF0129328FDD0E053E080E508
:203D8000E042A8D0E08D8222AD82AE83AFF0C0E0C0A8C2AF74252DFA74003EFB8F048A82F4
:203DA0008B838CF0129328FA74242DFD74003EFE8D828E838FF0129328FDEAC39DFAD0E0E3
:203DC00053E080E5E042A8D0E08A8222AD82AE83AFF074242DFD74003EFE8D828E838FF093
:203DE000129328FD8D8222AD82AE83AFF08D828E838FF012289222C00D85810DC082C083D7
:203E0000C0F0E581240AF581A80D08742426FA74000836FB0886048A828B838CF0E50D2488
:203E20000DF8129328F6A80D08E50D240AF9742626F77400083609F708E609F7E50D240A6D
:203E4000F886820886830886F0129328FEEE7003024136E50D24FAF8E66003023FB3C00227
:203E6000C003C0048E047D00A80D08E50D2404F9740326F77400083609F708E609F7E50DB6
:203E80002404F886820886830886F0129328FAA3129328FBA3129328FFC004C003C002C0C1
:203EA00004C005E50D24FBF8E6C0E008E6C0E008E6C0E08A828B838FF012910FE58124FBBE
:203EC000F581D002D003D004E50D2404F886820886830886F0129328FCA3129328FDA3125F
:203EE0009328FFE50D240AF886820886830886F0129328FBE50D2407F8EB2CF674003D08B6
:203F0000F608A607E50D2404F886820886830886F0E50D2407F9E7128D3BA309E7128D3B09
:203F2000A309E7128D3BA80D08740626FA74000836FB0886078A828B838FF0129328FAA378
:203F4000129328FBA3129328FFE50D2407F8C002C003C00786820886830886F0120091157A
:203F60008115811581D004D003D0025003024136C002C003C004A80D0886820886830886A2
:203F8000F0129328FCA3129328FDA3129328FFE50D2404F886820886830886F0EC128D3B1D
:203FA000A3ED128D3BA3EF128D3BD004D003D002024136C002C003C0047F00A80D08E50DC2
:203FC0002407F9740626F77400083609F708E609F7E50D2407F8E50D2404F9740326F77456
:203FE00000083609F708E609F7E50D2404F886820886830886F0129328FBA3129328FCA315
:20400000129328FDC004C003C002C006C007E50D24FBF8E6C0E008E6C0E008E6C0E08B8248
:204020008C838DF012910FE58124FBF581D002D003D004E50D2404F886820886830886F025
:20404000129328FDA3129328FEA3129328FFE50D240AF886820886830886F0129328FC7BC6
:2040600000EDC39CFDEE9BFEE50D2404F886820886830886F0ED128D3BA3EE128D3BA3EF03
:20408000128D3BA80D0886820886830886F0129328FAA3129328FBA3129328FCC002C003CF
:2040A000C0048D828E838FF0120091158115811581D004D003D0024003024118C002C0039C
:2040C000C004E50D2407F886820886830886F0129328FDA3129328FEA3129328FFE50D24B3
:2040E0000AF886820886830886F0129328FC7B00EDC39CFDEE9BFEE50D2404F8868208866B
:20410000830886F0ED128D3BA3EE128D3BA3EF128D3BD004D003D002E50D24FAF8B60202C5
:204120008003024136E50D240DF8E67003024136E50D240DF816E50D240DF8E604FF8A8255
:204140008B838CF0EF128D3B758200850D81D00D22C00D85810DE5812407F581C8E50D243E
:2041600005C8A68208A68308A6F0E50D2405F8742626FA74000836FB0886048A828B838CC9
:20418000F0A80D08129328F6A80D08E670030242A5C002C003C004E50D2405F8740626FABA
:2041A00074000836FB088604A80D080874032AF674003B08F608A604A80D080886820886AA
:2041C000830886F0129328FDA3129328FEA3129328FFA80D08E62DFD74003EFEA80D0808F5
:2041E00086820886830886F0ED128D3BA3EE128D3BA3EF128D3B8A828B838CF0129328FA2D
:20420000A3129328FBA3129328FCC002C003C0048D828E838FF0120091158115811581D0AA
:2042200004D003D002500302425FE50D2405F886820886830886F0129328FDA3129328FEFD
:20424000A3129328FFA80D080886820886830886F0ED128D3BA3EE128D3BA3EF128D3B8A6B
:20426000828B838CF0129328FA7F00A80D080886820886830886F0129328FCA3129328FD5A
:20428000A3129328FEC002C007C004C005C006E50D24FBF886820886830886F012910FE5A1
:2042A0008124FBF581850D81D00D22C00D85810DC082C083C0F0E5812404F581C0E0C0A8B5
:2042C000C2AFA80D08742826FA74000836FB0886048A828B838CF0E50D2407F8129328F647
:2042E000A80D08E50D2404F9741826F77400083609F708E609F7E50D2407F8C37400648075
:2043000086F063F08095F04003024364E50D2404F886820886830886F012932870030243B5
:2043200064A80D08741826FD74000836FE0886078D828E838FF0C004C003C00212605DE5CC
:2043400082D002D003D004700302435BC004C003C002126FA6D002D003D004E50D2407F851
:20436000160242F68A828B838CF074FF128D3BD0E053E080E5E042A8D0E0C0E0C0A8C2AFCF
:20438000A80D08742726FD74000836FE0886078D828E838FF0129328FCA80D08E50D24041E
:2043A000F9740C26F77400083609F708E609F7C3740064808CF063F08095F0400302442728
:2043C000E50D2404F886820886830886F01293287003024427C005C006C007A80D08740CF8
:2043E00026FA74000836FB0886078A828B838FF0C007C006C005C00412605DE582D004D0D2
:2044000005D006D007D007D006D0057003024423C007C006C005C004126FA6D004D005D0D6
:2044200006D0071C0243AF8D828E838FF074FF128D3BD0E053E080E5E042A8D0E0850D81CE
:20444000D00D22AD82AE83AFF0C0E0C0A8C2AF74242DFD74003EFE8D828E838FF012932807
:20446000600302446A7F0102446C7F00D0E053E080E5E042A8D0E08F8222AD82AE83AFF084
:2044800074242DFD74003EFE8D828E838FF0129328600302449B7F0102449D7F008F8222E5
:2044A000AD82AE83AFF0C0E0C0A8C2AF74242DFA74003EFB8F048A828B838CF0129328FA28
:2044C00074252DFD74003EFE8D828E838FF0129328FDEAB5050280030244E07F010244E209
:2044E0007F00D0E053E080E5E042A8D0E08F8222AD82AE83AFF074242DFA74003EFB8F044A
:204500008A828B838CF0129328FA74252DFD74003EFE8D828E838FF0129328FDEAB50502BC
:20452000800302452A7F0102452C7F008F8222C00D85810D058105810581AE82AF83758217
:2045400033758300C007C0061227D2AB82AC83ADF0D006D007A80D08A60308A60408A60527
:20456000A80D08E608467003024613C006C007A80D088602088606088607C007C00674334D
:20458000C0E07400C0E0C0E08A828E838FF01291A2158115811581D006D007A80D08742026
:2045A00026FA74000836FE088607E50D24F9F886040886058C828D83C007C006C0021227CC
:2045C000D2AB82AC83ADF0D002D006D0078A828E838FF0EB128D3BA3EC128D3BA3ED128D98
:2045E0003BD007D006EB4C6003024613A80D0886030886040886058B828C838DF0C007C053
:2046000006122892D006D007A80D087400F608F6087600A80D08E6084670030246A2E50D38
:2046200024F9F886020886037C007D007400C0E0C0E0C0E0A80D08E6C0E008E6C0E008E640
:20464000C0E0E50D24F2F8E6C0E008E6C0E008E6C0E0E50D24F5F8E6C0E0E50D24F6F8E6A5
:20466000C0E008E6C0E008E6C0E0C002C003C004C005E50D24FBF8E6C0E008E6C0E008E665
:20468000C0E08E828F831246ACE58124ECF581A80D0886820886830886F012498E7F0102A9
:2046A00046A47FFF8F82850D81D00D22C00D85810DC082C083E581240CF581E50D24EDF803
:2046C000E50D2403F9E6F708E609F708E609F7E50D2403F8742026FA74000836FE08860705
:2046E0008A828E838FF0E50D240CF8129328F6A312932808F6A312932808F6E50D240CF84B
:20470000E50D2409F9E6F708E609F708E609F7E50D2403F8E50D2406F9742B26F77400086A
:204720003609F708E609F7E50D24F7F8E624FFFA08E634FFFE08E634FFFD08E634FFFFE50B
:204740000D240CF8EA26FAEE0836FE088605E50D2406F886820886830886F0EA128D3BA34B
:20476000EE128D3BA3ED128D3BE50D24FBF8E608467003024803E50D2403F8742326FD74CB
:20478000000836FE0886077B00E50D2406F8EB2DF674003E08F608A607C005C006C007E50F
:2047A0000D24FBF8EB26FD74000836FE0886078D828E838FF0129328FCE50D2406F88682FE
:2047C0000886830886F0EC128D3B8D828E838FF0129328D007D006D00570030247E70BBB2D
:2047E00008005003024789E50D2403F8742A26FD74000836FE0886078D828E838FF0740062
:20480000128D3BE50D24F3F8B604005003024817E50D24F3F87603E50D2403F8741F26FD0E
:2048200074000836FE0886078D828E838FF0E50D24F3F8E6128D3BE50D2403F8740326FD28
:2048400074000836FE0886078D828E838FF0122238E50D2403F8741126FD74000836FE0897
:2048600086078D828E838FF0122238E50D2403F8740B26FD74000836FE088607E50D24EDA5
:20488000F886020886030886048D828E838FF0EA128D3BA3EB128D3BA3EC128D3BE50D242B
:2048A00003F8E50D2406F9741126F77400083609F708E609F7E50D24F3F886077E00740422
:2048C000C39FFF74009EFEE50D2406F886820886830886F0EF128D3BA3EE128D3BE50D2472
:2048E00003F8741926FD74000836FE0886078D828E838FF0EA128D3BA3EB128D3BA3EC125C
:204900008D3BE50D24F4F8E6C0E008E6C0E008E6C0E0A80D08E6C0E008E6C0E0E50D24093B
:20492000F886820886830886F0120965AF82AE83ADF0E58124FBF581E50D2403F88682084D
:2049400086830886F0EF128D3BA3EE128D3BA3ED128D3BE50D24F0F8E608467003024988BA
:20496000E50D24F0F886050886060886078D828E838FF0E50D2403F8E6128D3BA308E61272
:204980008D3BA308E6128D3B850D81D00D22C00D85810DC082C083C0F0E581240CF581C0F1
:2049A000E0C0A8C2AF900F8BE004F0900F88E0FAA3E0FBA3E0FCEA4B60030249E0A80D08C2
:2049C000900F88E6F008E6A3F008E6A3F0900F8BE0FCBC01028003024A37126FC5024A3744
:2049E000900F8FE06003024A37900F88E0FAA3E0FBA3E0FC741F2AFA74003BFB8A828B834A
:204A00008CF0129328FAA80D08741F26FB74000836FC0886078B828C838FF0129328FBC379
:204A2000EB9A5003024A37A80D08900F88E6F008E6A3F008E6A3F0900F94E02401F0A80D82
:204A400008741F26FD74000836FE0886078D828E838FF0129328FC900F8EE0FBC3EB9C4059
:204A600003024A69900F8EECF08D828E838FF0129328FCEC75F00CA42418FB740F35F0FC31
:204A80008B828C83A3E50D240DF8E0F6A3E008F6A3E008F6A80D08E50D2404F9740326F700
:204AA0007400083609F708E609F7E50D2404F8740226FA74000836FB0886048A828B838CC9
:204AC000F0E50D240DF8E6128D3BA308E6128D3BA308E6128D3BE50D2404F8E50D2407F90D
:204AE000740526F77400083609F708E609F7E50D240DF8E50D240AF9740526F77400083604
:204B000009F708E609F7E50D240AF886820886830886F0129328FAA3129328FBA312932856
:204B2000FCE50D2407F886820886830886F0EA128D3BA3EB128D3BA3EC128D3BE50D240A18
:204B4000F886820886830886F0129328FAA3129328FBA3129328FC74022AFA74003BFB8A5A
:204B6000828B838CF0E50D2404F8E6128D3BA308E6128D3BA308E6128D3BE50D240AF886E3
:204B8000820886830886F0E50D2404F9E7128D3BA309E7128D3BA309E7128D3BE50D24043C
:204BA000F8E50D240AF9740B26F77400083609F708E609F78D828E838FF0129328FCEC75DF
:204BC000F00CA42418FC740F35F0FB8C027C00E50D240AF886820886830886F0EA128D3BDD
:204BE000A3EB128D3BA3EC128D3B8D828E838FF0129328FCEC75F00CA42418FB740F35F09C
:204C0000FC8B828C83E0FA0A8B828C83EAF0D0E053E080E5E042A8D0E0900F8FE07003025D
:204C20004C54900F88E0FAA3E0FBA3E0FC741F2AFA74003BFB8A828B838CF0129328FA8D8B
:204C4000828E838FF0129328FDC3EA9D4003024C54120BDF850D81D00D22C00D85810DC09B
:204C600082C083C0F0058105817E00C006124DE6D006900F8CE0FAA3E0FBE50D2404F8A619
:204C80000208A603A80D0886820886830886F0129328FBA3129328FCE50D24FCF8E62BFDC1
:204CA00008E63CFF8D02E50D2404F8C3E69B08E69C4003024CD5C3EA9BEF9C4003024CF1A1
:204CC000E50D2404F8C3E69A08E69F4003024CF17E01024CF1C3EA9BEF9C5003024CEFE56A
:204CE0000D2404F8C3E69A08E69F4003024CF17E01A80D0886820886830886F0EA128D3B9E
:204D0000A3EF128D3BEE7003024D29E50D2404F8EAC396FAEF0896FFC0067400C0E08A828D
:204D20008F83128BC31581D006C006124DEEE582D0066003024D3A120BDF8E82850D81D06A
:204D40000D22AE82AF837D00EE4F7003024D6EC007C006124DE6D006D0077400C0E08E8235
:204D60008F83128BC31581124DEEAF828F05ED6003024D77120BDF227497C0E0740FC0E017
:204D80007400C0E0C0E0C0E0C0E0C0E074A7C0E07400C0E0747BC0E07496C0E07480C0E0E3
:204DA0007582AD75836F12452FAF82E58124F4F581BF01028003024DD4C2AF900F9574FFBD
:204DC000F0A3F0900F8F7401F0900F8C7400F0A3F0120B6190967AE49322C2AF900F8F74D1
:204DE00000F0120BDE22900F9AE02401F022C00D85810DE5812416F581E50D2411F87400CD
:204E0000F608F6087600E50D2410F87600C0E0C0A8C2AF900F9AE014F0E06003025443908A
:204E20000F8BE07003025443900F66E070030253DD900F6CE0FAA3E0FBA3E0FC74082AFAE0
:204E400074003BFB8A828B838CF0129328FAA3129328FBA3129328FCE50D2411F8A60208A5
:204E6000A60308A604E50D2411F8A90D09741126F77400083609F708E609F7E50D2411F898
:204E8000741C26FA74000836FB0886048A828B838CF0E50D2414F8129328F6A31293280830
:204EA000F6A312932808F6E50D2411F8741326FA74000836FB0886048A828B838CF012934E
:204EC00028FDA3129328FEA3129328FFE50D2407F874052DF674003E08F608A607E50D24A4
:204EE00011F8E50D2404F9741626F77400083609F708E609F7E50D2404F88682088683081C
:204F000086F0129328FDA3129328FEA3129328FFE50D2407F886820886830886F0ED128D3C
:204F20003BA3EE128D3BA3EF128D3BE50D2404F886820886830886F0129328FDA31293287C
:204F4000FEA3129328FF74022DFD74003EFE8A828B838CF0129328FAA3129328FBA3129384
:204F600028FC8D828E838FF0EA128D3BA3EB128D3BA3EC128D3BE50D2414F8740126FC74AC
:204F8000000836FB0886028C828B838AF0129328FDA3129328FEA3129328FFA80D08C00589
:204FA000C006C00786820886830886F012009115811581158170028003024FEBE50D24041D
:204FC000F886820886830886F0129328FDA3129328FEA3129328FF8C828B838AF0ED128D79
:204FE0003BA3EE128D3BA3EF128D3BA80D08740B26FD74000836FE0886078D828E838FF05C
:205000007400128D3BA3128D3BA3128D3BE50D2414F886820886830886F0129328FF1FE5BF
:205020000D2414F886820886830886F0EF128D3BE50D2411F8740326FD74000836FE0886DC
:2050400007E50D2407F8740B2DF674003E08F608A607E50D2407F886820886830886F0E59C
:205060000D2414F9129328F7A312932809F7A312932809F7E50D2404F874022DF674003EF1
:2050800008F608A607E50D2404F886820886830886F0129328FAA3129328FBA3129328FC16
:2050A000E50D240DF874052AF674003B08F608A604A80D0874052DF674003E08F608A6071F
:2050C000A80D0886820886830886F0129328FAA3129328FBA3129328FCE50D240DF88682BB
:2050E0000886830886F0EA128D3BA3EB128D3BA3EC128D3BA80D0886820886830886F01226
:205100009328FAA3129328FBA3129328FCE50D240DF874022AF674003B08F608A604E50D01
:205120002404F886820886830886F0129328FAA3129328FBA3129328FCE50D240DF88682F7
:205140000886830886F0EA128D3BA3EB128D3BA3EC128D3BE50D2414F8E50D240DF9740178
:2051600026F77400083609F708E609F7E50D240DF886820886830886F0129328FAA31293B1
:2051800028FBA3129328FCC005C006C0078A828B838CF0120091158115811581700280033E
:2051A0000251D7A80D0886820886830886F0129328FAA3129328FBA3129328FCE50D240DB0
:2051C000F886820886830886F0EA128D3BA3EB128D3BA3EC128D3BC005C006C007E50D2443
:2051E00007F886820886830886F07400128D3BA3128D3BA3128D3BE50D2414F88682088619
:20520000830886F0129328FC1CE50D2414F886820886830886F0EC128D3BE50D2411F8E525
:205220000D240AF9741F26F77400083609F708E609F7E50D240AF886820886830886F01229
:205240009328FC900F8EE0FFC3EF9CD007D006D005400302525B900F8EECF0E50D240AF8A8
:2052600086820886830886F0129328FCEC75F00CA42418FB740F35F0FC8B828C83A3E0FA59
:20528000A3E0FBA3E0FCE50D2404F886820886830886F0EA128D3BA3EB128D3BA3EC128D0E
:2052A0003BE50D240DF874052AF674003B08F608A604E50D240DF886820886830886F012DC
:2052C0009328FAA3129328FBA3129328FCA80D0886820886830886F0EA128D3BA3EB128DFD
:2052E0003BA3EC128D3BE50D240DF886820886830886F0129328FAA3129328FBA3129328B6
:20530000FC74022AFA74003BFB8A828B838CF0ED128D3BA3EE128D3BA3EF128D3BE50D2403
:205320000DF886820886830886F0ED128D3BA3EE128D3BA3EF128D3BE50D240AF88682080B
:2053400086830886F0129328FFEF75F00CA42418FE740F35F0FF7D00E50D2407F886820873
:2053600086830886F0EE128D3BA3EF128D3BA3ED128D3BE50D240AF886820886830886F059
:20538000129328FFEF75F00CA42418FE740F35F0FF8E828F83E0FD0D8E828F83EDF0E50D5F
:2053A000240AF886820886830886F0129328FF900F88E0FCA3E0FDA3E0FE741F2CFC740031
:2053C0003DFD8C828D838EF0129328FCC3EF9C5003024E28900F927401F0024E28E50D24F1
:2053E00011F8E6084670030253ED12702E900F90E0FEA3E0FF8E048F05EE4F700302543020
:205400008C068D07C007C0061254F8E582D006D007700302541C900F927401F01EBEFF0110
:205420001FEE4F6003025404900F907400F0A3F0900F92E07003025443E50D2410F876017B
:20544000120BDFD0E053E080E5E042A8D0E0E50D2410F88682850D81D00D22C0E0C0A8C28C
:20546000AF900F8CE0FEA3E0FFD0E053E080E5E042A8D0E08E828F8322900F8CE0FEA3E060
:20548000FF8E828F8322900F8BE0FF8F8222AD82AE83AFF0ED4E60030254A9900F88E0FAF0
:2054A000A3E0FBA3E0FC0254AF8D028E038F0474232AFA74003BFB8A828B838CF022AE82EA
:2054C000AF83C007C006124DE6D006D007C0E0C0A8C2AF900F90E0FCA3E0FD900F90EE2CCE
:2054E000F0EF3DA3F0D0E053E080E5E042A8D0E0124DEEAF828F8222C00D85810DE5812420
:2055000018F581E50D2413F87600900F9AE06003025C95900F8CE0FDA3E0FEE50D2414F84C
:2055200074012DF674003E08F6E50D2414F8900F8CE6F008E6A3F0E50D2414F8E6084660C9
:205540000302557D900F60E0FAA3E0FBA3E0FC8B058C06900F63E0FBA3E0FCA3E0FF900FFF
:2055600060EBF0ECA3F0EFA3F0900F63EAF0EDA3F0EEA3F0900F93E004F012702E900F9528
:20558000E0FBA3E0FCE50D2414F8C3E69B08E69C5003025C44900F60E0FAA3E0FBA3E0FCF6
:2055A0008A828B838CF012932860030255B9900F9574FFF0A3F0025C44900F60E0FAA3E0ED
:2055C000FBA3E0FC74042AFA74003BFB74022AFA74003BFB8A828B838CF0129328FAA312B5
:2055E0009328FBA3129328FC74082AFA74003BFB8A828B838CF0129328FAA3129328FBA3D4
:20560000129328FCE50D2410F8A60208A60308A604E50D2410F8740326FD74000836FE0828
:2056200086078D828E838FF0129328FFA3129328FEE50D2414F8C3E69F08E69E4003025673
:205640004C900F95EFF0EEA3F0025C44E50D2410F8740326FD74000836FE088607E50D24B5
:2056600010F8740E26FA74000836FB0886048A828B838CF0E50D2416F8129328F6A312937C
:205680002808F6A312932808F6E50D2410F8E50D2407F9740526F77400083609F708E60903
:2056A000F7E50D2407F886820886830886F0129328FAA3129328FBA3129328FCE50D24048F
:2056C000F874052AF674003B08F608A604E50D2410F8A90D09740826F77400083609F708AA
:2056E000E609F7A80D0886820886830886F0129328FAA3129328FBA3129328FCE50D2404B8
:20570000F886820886830886F0EA128D3BA3EB128D3BA3EC128D3BA80D0886820886830887
:2057200086F0129328FAA3129328FBA3129328FCE50D2404F874022AF674003B08F608A652
:2057400004E50D2407F886820886830886F0129328FAA3129328FBA3129328FCE50D2404E1
:20576000F886820886830886F0EA128D3BA3EB128D3BA3EC128D3BE50D2416F8E50D2404C7
:20578000F9740126F77400083609F708E609F7E50D2404F886820886830886F0129328FA6E
:2057A000A3129328FBA3129328FCC005C006C0078A828B838CF01200911581158115817055
:2057C0000280030257FAA80D0886820886830886F0129328FAA3129328FBA3129328FCE51A
:2057E0000D2404F886820886830886F0EA128D3BA3EB128D3BA3EC128D3BE50D240AF874C4
:205800000B2DF674003E08F608A607E50D240AF886820886830886F07400128D3BA3128DB6
:205820003BA3128D3BC005C006C007E50D2416F886820886830886F0129328FF1FE50D24A2
:2058400016F886820886830886F0EF128D3BE50D2410F8E50D2404F9741126F77400083655
:2058600009F708E609F7E50D2404F8A90D09740B26F77400083609F708E609F7A80D0886EA
:20588000820886830886F0129328FAA3129328FBA3129328FCD007D006D005EA4B7003022D
:2058A0005A57C005C006C007E50D2416F8A60208A60308A604E50D2404F8740226FD740097
:2058C0000836FE0886078D828E838FF0129328FAA3129328FBA3129328FCE50D240DF8742B
:2058E000052AF674003B08F608A604E50D2404F8E50D2407F9740526F77400083609F708AC
:20590000E609F7E50D2407F886820886830886F0129328FAA3129328FBA3129328FCE50D65
:20592000240DF886820886830886F0EA128D3BA3EB128D3BA3EC128D3BE50D2407F88682F5
:205940000886830886F0129328FAA3129328FBA3129328FC74022AFA74003BFB8D828E83B6
:205960008FF0129328FDA3129328FEA3129328FF8A828B838CF0ED128D3BA3EE128D3BA396
:20598000EF128D3BE50D2416F8E50D240DF9740126F77400083609F708E609F7E50D240DA9
:2059A000F886820886830886F0129328FDA3129328FEA3129328FFE50D2404F8C005C00614
:2059C000C00786820886830886F012009115811581158170028009D007D006D005025A1C0F
:2059E000D007D006D005E50D2407F886820886830886F0129328FAA3129328FBA3129328D7
:205A0000FCE50D240DF886820886830886F0EA128D3BA3EB128D3BA3EC128D3BA80D088600
:205A2000820886830886F07400128D3BA3128D3BA3128D3BE50D2416F88682088683088642
:205A4000F0129328FC1CE50D2416F886820886830886F0EC128D3BC005C006C007E50D2488
:205A600010F8E50D2404F9741F26F77400083609F708E609F7E50D2404F886820886830888
:205A800086F0129328FC900F8EE0FFC3EF9CD007D006D0054003025A9E900F8EECF0E50DB3
:205AA0002404F886820886830886F0129328FCEC75F00CA42418FB740F35F0FC8B828C836E
:205AC000A3E50D2416F8E0F6A3E008F6A3E008F674022DFA74003EFB8F048A828B838CF0B4
:205AE000E50D2416F8E6128D3BA308E6128D3BA308E6128D3BE50D240DF874052DF67400C1
:205B00003E08F608A607E50D2416F8A90D09740526F77400083609F708E609F7A80D088638
:205B2000820886830886F0129328FAA3129328FBA3129328FCE50D240DF88682088683087A
:205B400086F0EA128D3BA3EB128D3BA3EC128D3BA80D0886820886830886F0129328FAA37C
:205B6000129328FBA3129328FC74022AFA74003BFB8A828B838CF0ED128D3BA3EE128D3BE5
:205B8000A3EF128D3BA80D0886820886830886F0ED128D3BA3EE128D3BA3EF128D3BE50DB5
:205BA0002404F886820886830886F0129328FFEF75F00CA42418FE740F35F0FF7D00E50D0E
:205BC000240AF886820886830886F0EE128D3BA3EF128D3BA3ED128D3BE50D2404F8868250
:205BE0000886830886F0129328FFEF75F00CA42418FE740F35F0FF8E828F83E0FD0D8E8249
:205C00008F83EDF0E50D2404F886820886830886F0129328FF900F88E0FCA3E0FDA3E0FE1C
:205C2000741F2CFC74003DFD8C828D838EF0129328FCC3EF9C5003025595E50D2413F87672
:205C400001025595900F88E0FDA3E0FEA3E0FF741F2DFD74003EFE8D828E838FF012932877
:205C6000FDED75F00CA42418F582740F35F0F583E0FFC374019F4003025C82E50D2413F858
:205C80007601900F92E07003025CA1E50D2413F87601025CA1900F90E02401F0A3E0340098
:205CA000F0E50D2413F88682850D81D00D22C00D85810DE581240AF581900F9AE070030241
:205CC0005CCB900F927401F0025E3B900F927400F0900F8EE0FFEF75F00CA4FDAEF0ED241B
:205CE00018FBEE340FFC8B828C83E06003025CF41F025CD6E50D2407F8A607ED2418FDEE8A
:205D0000340FFEE50D2408F8A60508A606087600E50D2408F8740126FA74000836FB088669
:205D2000078A828B838FF0129328FCA3129328FDA3129328FE74022CFC74003DFD8C828D38
:205D4000838EF0129328FCA3129328FDA3129328FE8A828B838FF0EC128D3BA3ED128D3BD5
:205D6000A3EE128D3B8A828B838FF0E50D2404F8129328F6A312932808F6A312932808F66E
:205D8000A80D08A60408A60508A606E50D2408F8740426FC74000836FD088606A80D08C0C5
:205DA00004C005C00686820886830886F012009115811581158170028003025DF6E50D24F8
:205DC00004F8740226FC74000836FD0886068C828D838EF0129328FCA3129328FDA31293D2
:205DE00028FE8A828B838FF0EC128D3BA3ED128D3BA3EE128D3B8A828B838FF0129328FAE9
:205E0000A3129328FBA3129328FF74082AFA74003BFB8A828B838FF0129328FAA31293288E
:205E2000FBA3129328FF900F88EAF0EBA3F0EFA3F0E50D2407F8900F8EE6F0850D81D00DEF
:205E400022C00D85810DAD82AE83AFF0900F88E0FAA3E0FBA3E0FC74112AFA74003BFBC030
:205E600002C003C0048D828E838FF01223BE1581158115817401C0E0E50D24FCF886820816
:205E80008683128BC31581D00D22C00D85810DC082C083C0F0058105810581900F88E0FA5C
:205EA000A3E0FBA3E0FC74112AFA74003BFBE50D24FCF886060886074307808A828B838CF7
:205EC000F0EE128D3BA3EF128D3BA80D08740126FD74000836FE0886078D828E838FF01253
:205EE0009328FDA3129328FEA3129328FF900F88E0FAA3E0FBA3E0FC74112AFA74003BFBBC
:205F000074022AFA74003BFB8A828B838CF0ED128D3BA3EE128D3BA3EF128D3B900F88E002
:205F2000FAA3E0FBA3E0FC74112AFA74003BFBE50D2404F874052AF674003B08F608A6040D
:205F400074052DFD74003EFE8D828E838FF0129328FAA3129328FBA3129328FCE50D240497
:205F6000F886820886830886F0EA128D3BA3EB128D3BA3EC128D3B8D828E838FF012932891
:205F8000FAA3129328FBA3129328FCE50D2404F874022AF674003B08F608A604900F88E022
:205FA000FAA3E0FBA3E0FC74112AFA74003BFBE50D2404F886820886830886F0EA128D3B2A
:205FC000A3EB128D3BA3EC128D3B900F88E0FAA3E0FBA3E0FC74112AFA74003BFB8D828E02
:205FE000838FF0EA128D3BA3EB128D3BA3EC128D3B900F88E0FDA3E0FEA3E0FF74112DFD54
:2060000074003EFE740B2DFD74003EFE8D828E838FF0A80D08E6128D3BA308E6128D3BA34D
:2060200008E6128D3BA80D0886820886830886F0129328FF0FA80D0886820886830886F015
:20604000EF128D3B7401C0E0E50D24FAF88682088683128BC31581850D81D00D22C00D85E7
:20606000810DE5812419F581AD82AE83AFF074042DFD74003EFE74022DFD74003EFE8D82C9
:206080008E838FF0129328FDA3129328FEA3129328FF74082DFD74003EFE8D828E838FF0D4
:2060A000129328FDA3129328FEA3129328FFE50D2414F8A60508A60608A607E50D2414F8E1
:2060C000741126FA74000836FB088604E50D2414F8741C26FD74000836FE0886078D828E25
:2060E000838FF0E50D2417F8129328F6A312932808F6A312932808F6E50D2414F8A90D09F9
:20610000741326F77400083609F708E609F7A80D0886820886830886F0129328FDA31293D5
:2061200028FEA3129328FFE50D2407F874052DF674003E08F608A607E50D2414F8E50D247C
:206140000AF9741626F77400083609F708E609F7E50D240AF886820886830886F012932879
:20616000FDA3129328FEA3129328FFE50D2407F886820886830886F0ED128D3BA3EE128DA2
:206180003BA3EF128D3BE50D240AF886820886830886F0129328FDA3129328FEA312932801
:2061A000FFE50D2407F874022DF674003E08F608A607A80D0886820886830886F0129328AC
:2061C000FDA3129328FEA3129328FFE50D2407F886820886830886F0ED128D3BA3EE128D42
:2061E0003BA3EF128D3BE50D2417F8E50D2407F9740126F77400083609F708E609F7E50D99
:206200002407F886820886830886F0129328FDA3129328FEA3129328FFC002C003C0048D47
:20622000828E838FF01200911581158115817002800302626BE50D240AF8868208868308EA
:2062400086F0129328FDA3129328FEA3129328FFE50D2407F886820886830886F0ED128DE9
:206260003BA3EE128D3BA3EF128D3BE50D2404F8740B2AF674003B08F608A604E50D2404E2
:20628000F886820886830886F07400128D3BA3128D3BA3128D3BC002C003C004E50D2417B1
:2062A000F886820886830886F0129328FC1CE50D2417F886820886830886F0EC128D3B9058
:2062C0000F9AE0D004D003D00260030266AFE50D2414F8740326FC74000836FB088602E565
:2062E0000D240AF8740B2CF674003B08F608A602E50D240AF886820886830886F0129328F1
:20630000FFA3129328FEA3129328FDA80D0874022CF674003B08F608A602A80D0886820824
:2063200086830886F0E50D240DF9129328F7A312932809F7A312932809F7E50D240DF87487
:206340000526F674000836F6E50D2410F874052CF674003B08F608A602E50D2410F8868238
:206360000886830886F0E50D2404F9129328F7A312932809F7A312932809F7E50D240DF8BC
:2063800086820886830886F0E50D2404F9E7128D3BA309E7128D3BA309E7128D3BE50D24A2
:2063A00010F886820886830886F0E50D2404F9129328F7A312932809F7A312932809F7E5A2
:2063C0000D2404F8740226F674000836F6A80D0886820886830886F0E50D240DF912932819
:2063E000F7A312932809F7A312932809F7E50D2404F886820886830886F0E50D240DF9E71A
:20640000128D3BA309E7128D3BA309E7128D3BE50D2404F874012FF674003E08F608A605B9
:20642000E50D2404F886820886830886F0E50D240DF9129328F7A312932809F7A3129328F3
:2064400009F7E50D240DF8C004C003C00286820886830886F012009115811581158170026A
:2064600080030264A9E50D2410F886820886830886F0E50D240DF9129328F7A3129328097C
:20648000F7A312932809F7E50D2404F886820886830886F0E50D240DF9E7128D3BA309E77C
:2064A000128D3BA309E7128D3BE50D240AF886820886830886F07400128D3BA3128D3BA378
:2064C000128D3B8F828E838DF0E50D2404F8129328F6E50D2404F8E50D2404F9E614F78FC9
:2064E000828E838DF0E50D2404F8E6128D3BE50D2414F8741F26FF74000836FE0886058F0E
:20650000828E838DF0E50D240DF8129328F6900F8EE50D2413F8E0F6E50D240DF8E50D2438
:2065200013F9C3E7964003026534E50D240DF8900F8EE6F08F828E838DF0E50D2413F81241
:206540009328F6E50D2413F8E675F00CA4C8E50D240DC82418F6740F35F008F6E50D240DC0
:20656000F88682088683A3E50D2417F8E0F6A3E008F6A3E008F6A80D088682088683088606
:20658000F0E50D2417F9E7128D3BA309E7128D3BA309E7128D3BE50D2417F8E50D240DF909
:2065A000740526F77400083609F708E609F7E50D240DF886820886830886F0A90D0912938F
:2065C00028F7A312932809F7A312932809F7E50D2410F886820886830886F0A90D09E7124F
:2065E0008D3BA309E7128D3BA309E7128D3BE50D240DF886820886830886F0E50D2410F928
:20660000129328F7A312932809F7A312932809F7E50D2410F8740226F674000836F6E50D8C
:206620002410F886820886830886F0EC128D3BA3EB128D3BA3EA128D3BE50D240DF88682DF
:206640000886830886F0EC128D3BA3EB128D3BA3EA128D3B8F828E838DF0129328FCEC754D
:20666000F00CA42418FC740F35F0FB7A00E50D240AF886820886830886F0EC128D3BA3EB22
:20668000128D3BA3EA128D3B8F828E838DF0129328FFEF75F00CA42418FF740F35F0FE8FDA
:2066A000828E83E0FD0D8F828E83EDF00267C0900F67E50D2417F8E0F6A3E008F6A3E00828
:2066C000F674022AFD74003BFE8C078D828E838FF0E50D2417F8E6128D3BA308E6128D3BF8
:2066E000A308E6128D3BE50D2410F874052AF674003B08F608A604E50D2417F8E50D240DD1
:20670000F9740526F77400083609F708E609F7E50D240DF886820886830886F0129328FDCE
:20672000A3129328FEA3129328FFE50D2410F886820886830886F0ED128D3BA3EE128D3B95
:20674000A3EF128D3BE50D240DF886820886830886F0129328FDA3129328FEA3129328FF74
:2067600074022DFD74003EFE8D828E838FF0EA128D3BA3EB128D3BA3EC128D3BE50D240D72
:20678000F886820886830886F0EA128D3BA3EB128D3BA3EC128D3BE50D2404F8868208862D
:2067A000830886F07466128D3BA3740F128D3BA37400128D3B900F66E0FF0F900F66EFF05C
:2067C000E50D2414F8741F26FD74000836FE0886078D828E838FF0129328FD900F88E0FC30
:2067E000A3E0FEA3E0FF741F2CFC74003EFE8C828E838FF0129328FCC3EC9D400302680AC1
:206800007F01900F92EFF002680C7F008F82850D81D00D22C00D85810DC082C083C0F0E5D6
:20682000812415F581E50D24FCF88603088604430480A80D0886820886830886F0EB128D5E
:206840003BA3EC128D3BA80D08740826FA74000836FB0886048A828B838CF0129328FAA3FC
:20686000129328FBA3129328FCE50D2413F8A60208A60308A604A80D08740B26FA740008E0
:2068800036FB0886048A828B838CF0E50D2416F8129328F6A312932808F6A312932808F6DC
:2068A000A80D08E50D240AF9740226F77400083609F708E609F7E50D240AF886820886839E
:2068C0000886F0129328FDA3129328FEA3129328FFE50D2404F874052DF674003E08F6082D
:2068E000A607A80D08E50D2407F9740526F77400083609F708E609F7E50D2407F8868208BD
:2069000086830886F0129328FDA3129328FEA3129328FFE50D2404F886820886830886F0A0
:20692000ED128D3BA3EE128D3BA3EF128D3BE50D2407F886820886830886F0129328FDA3A0
