:200000000200A732FFFFFFFFFFFFFF32FFFFFFFFFFFFFF32FFFFFFFFFFFFFF32FFFFFFFF88
:20002000FFFFFF020CE8FFFFFFFFFF32FFFFFFFFFFFFFF32FFFFFFFFFFFFFF32FFFFFFFF4E
:20004000FFFFFF32FFFFFFFFFFFFFF32FFFFFFFFFFFFFF32FFFFFFFFFFFFFF32FFFFFFFFF4
:20006000FFFFFF32FFFFFFFFFFFFFF32FFFFFFFFFFFFFF020BE7020284E58124FCC3C8C0E0
:20008000E0C082E608467006E5824583601218E58296F58208E58396428208E5F096458263
:2000A000D082C8D0E0C82275812012914BE58260030200767928E94400601B7A0190921E42
:2000C000787275A00FE493F2A308B8000205A0D9F4DAF275A0FFE478FFF6D8FD7800E84428
:2000E00000600A790175A000E4F309D8FC7871E8440F600C7910900001E4F0A3D8FCD9FA8B
:2001000090000A7400F0A3F090000CF0A3F090000EF0A3F0900010F0A3F0900F157400F0D3
:20012000A3F0A3F00200767596295397FEE5EA75EA0075F80022C00D85810DAF82C007125E
:200140004A7AD007E50D24FDF8E660030201A6C374079F50030201FAEF240A83F582EF24B0
:200160000C83F583E473767C82888E949AA0010101010101010143F8020201FA43F8080242
:2001800001FA43F8200201FA43F8010201FA43F8040201FA43F8100201FA43F8400201FAD7
:2001A00043F8800201FAC374079F50030201FAEF240A83F582EF240C83F583E473CDD3D959
:2001C000DFE5EBF1F7010101010101010153F8FD0201FA53F8F70201FA53F8DF0201FA5382
:2001E000F8FE0201FA53F8FB0201FA53F8EF0201FA53F8BF0201FA53F87F124A82D00D22E4
:20020000AF827E007D00C007C006C005124A7AD005D006D007C374079F5003020264EF245D
:200220000A83F582EF240C83F583E4733C41464B50555A5F02020202020202027E02020249
:20024000667E080202667E200202667E010202667E040202667E100202667E400202667ECD
:20026000800202667D01BD0103020280EE55F8700302027DEEF4FFEF52F8020280EE42F8DC
:20028000124A82221202D7120127758201120DFC758200121C897582021210547400C0E0F5
:2002A000C0E0C0E07403C0E07400C0E0C0E0C0E074A7C0E07400C0E0744FC0E07491C0E0BC
:2002C0007480C0E0758252758303124202E58124F4F581124A0C2275962D5397DFC2AF53AD
:2002E000F67F53F17F75AEEF75920075910743E680D2AF53F7FE53D8FE1202FD22C00D8580
:20030000810D05810581A80D08761008762753ADF143AD0853ADFEA80D087610087627A8E4
:200320000D088606088607A80D08EE24FFF6EF34FF08F6EE4F600302031F850D81D00D22CD
:20034000E5D820E00302034E53D8FE02035143D801227F00900F72E0600302036D75828809
:20036000758313C0071249D6D00702037A7582FA758300C0071249D6D007C007121E19AEAE
:2003800082D007BE010302038B7F01C0071216D0AE82D007BE010302039C7F01BF01028047
:2003A000030203AA900F727401F0C007120340D00702035422C00D85810DE581240CF581BB
:2003C000E50D2405F8762B08765208769A0876C4E50D2409F876DD08769A0876120876456A
:2003E000E50D2409F8E6C0E008E6C0E008E6C0E008E6C0E0E50D2405F886820886830886FC
:20040000F008E61289F5AC82AD83AEF0FFE58124FCF581A80D08A60408A60508A60608A6FB
:2004200007A80D08E6C0E008E6C0E008E6C0E008E6C0E07582CD7583E475F08A74441289E6
:2004400027AF82E58124FCF581EF600302047D749AC0E074E1C0E0748AC0E07444C0E0A832
:200460000D0886820886830886F008E6128927AF82E58124FCF581EF7003020494C0E0C097
:20048000A8C2AF900F727401F0D0E053E080E5E042A8D0E0E50D2409F8E6C0E008E6C0E0E0
:2004A00008E6C0E008E6C0E0E50D2405F886820886830886F008E6128D74AC82AD83AEF079
:2004C000FFE58124FCF581A80D08A60408A60508A60608A607A80D08E6C0E008E6C0E008C5
:2004E000E6C0E008E6C0E075825C75838F75F00274BF128927AF82E58124FCF581EF600333
:200500000205317414C0E074AEC0E07407C0E074BFC0E0A80D0886820886830886F008E689
:20052000128927AF82E58124FCF581EF70030203C0C0E0C0A8C2AF900F727401F0D0E053B3
:20054000E080E5E042A8D0E00203C0850D81D00D22C00D85810DE581240CF581E50D2405FE
:20056000F876450876D20876400876C6E50D2409F8765C0876350876B7087646E50D2409C2
:20058000F8E6C0E008E6C0E008E6C0E008E6C0E0E50D2405F886820886830886F008E61289
:2005A00089F5AC82AD83AEF0FFE58124FCF581A80D08A60408A60508A60608A607A80D0886
:2005C000E6C0E008E6C0E008E6C0E008E6C0E075829A75839875F02D7446128927AF82E5A6
:2005E0008124FCF581EF60030206197433C0E07498C0E0742DC0E07446C0E0A80D0886821E
:200600000886830886F008E6128927AF82E58124FCF581EF7003020630C0E0C0A8C2AF90CB
:200620000F727401F0D0E053E080E5E042A8D0E0E50D2409F8860408860508860608E6B2AA
:20064000E7FFC004C005C006C007E50D2405F886820886830886F008E6128D74AC82AD8395
:20066000AEF0FFE58124FCF581A80D08A60408A60508A60608A607A80D08E6C0E008E6C06D
:20068000E008E6C0E008E6C0E07582147583AE75F007743F128927AF82E58124FCF581EFB0
:2006A00060030206D3745CC0E0748FC0E07402C0E0743FC0E0A80D0886820886830886F02C
:2006C00008E6128927AF82E58124FCF581EF700302055CC0E0C0A8C2AF900F727401F0D0B9
:2006E000E053E080E5E042A8D0E002055C850D81D00D227421B58103020712C0E0C0A8C2E0
:20070000AF900F727401F0D0E053E080E5E042A8D0E08500E0E5E07003020733C0E0C0A811
:20072000C2AF900F727401F0D0E053E080E5E042A8D0E08501E07401B5E003020755C0E09F
:20074000C0A8C2AF900F727401F0D0E053E080E5E042A8D0E08502E07402B5E00302077793
:20076000C0E0C0A8C2AF900F727401F0D0E053E080E5E042A8D0E08503E07403B5E003024F
:200780000799C0E0C0A8C2AF900F727401F0D0E053E080E5E042A8D0E08504E07404B5E092
:2007A000030207BBC0E0C0A8C2AF900F727401F0D0E053E080E5E042A8D0E08505E07405DE
:2007C000B5E0030207DDC0E0C0A8C2AF900F727401F0D0E053E080E5E042A8D0E08506E07F
:2007E0007406B5E0030207FFC0E0C0A8C2AF900F727401F0D0E053E080E5E042A8D0E085A9
:2008000007E07407B5E003020821C0E0C0A8C2AF900F727401F0D0E053E080E5E042A8D0E2
:20082000E074CDB58203020840C0E0C0A8C2AF900F727401F0D0E053E080E5E042A8D0E062
:2008400074ABB5830302085FC0E0C0A8C2AF900F727401F0D0E053E080E5E042A8D0E074B0
:2008600001B5F0030206F3C0E0C0A8C2AF900F727401F0D0E053E080E5E042A8D0E002061B
:20088000F322C00D85810DE581240EF581AD82AE83AFF0E50D240CF8A60508A60608A60728
:2008A000A80D0874012DF674003E08F608A607E50D24FCF886020886037C807F008A06A8A8
:2008C0000D0886820886830886F0EE12890CE50D2404F8A60308A60408A607087600A80D82
:2008E00008740126FD74000836FE088607E50D2404F886028D828E838FF0EA12890C0DBD7F
:2009000000010E8D828E838FF074AA12890C0DBD00010E8D828E838FF0748012890CE50D5F
:200920002404F874012DF674003E08F608A607E50D24F9F886020886030886047F008A06D9
:20094000E50D2404F886820886830886F0EE12890CE50D2408F8A60308A60408A6070876B5
:2009600000E50D2404F8740126FD74000836FE088607E50D2408F886028D828E838FF0EA61
:2009800012890CE50D2408F808E618F60808E618F60808E618F60876000DBD00010EE50D4D
:2009A0002408F886028D828E838FF0EA12890C0DBD00010E8D828E838FF0740212890C0DB9
:2009C000BD00010E8D828E838FF0740312890C0DBD00010E8D828E838FF0740412890C0DEA
:2009E000BD00010E8D828E838FF0740512890C0DBD00010E8D828E838FF0740612890C0DC6
:200A0000BD00010E8D828E838FF0740712890C0DBD00010E8D828E838FF0740012890C0DA9
:200A2000BD00010E8D828E838FF0740112890C0DBD00010E8D828E838FF0740012890C0D8F
:200A4000BD00010E8D828E838FF074BB12890CE50D240CF88602EDC39AFDE50D240CF886CC
:200A6000820886830886F0ED12890CE50D240CF886820886830886F0850D81D00D22120CF0
:200A80002F759600900F87E0FDA3E0FEA3E0FF8D828E838FF0128E37F509A3128E37F50A29
:200AA000750B20850982850A83E0F5080509E4B50902050A050BA90B850982850A83E0FF11
:200AC000A7071508E5086003020AAC850B81D00DD0D0D001D000D007D006D005D004D003EB
:200AE000D002D0F0D083D082D0E020E705C2AF020AF4D2AFD0E0327582012222C0E0C0A8EB
:200B0000C2AFC082C083C0F0C002C003C004C005C006C007C000C001C0D075D000C00D90E1
:200B20000F87E0FDA3E0FEA3E0FF8D828E838FF0128E37F509A3128E37F50A750B21AF8181
:200B4000EF24E0F508850982850A83E508F0E5087003020B700509E4B50902050A850982F8
:200B6000850A83A90B8707EFF0050B1508020B4E1258B6900F87E0FDA3E0FEA3E0FF8D8285
:200B80008E838FF0128E37F509A3128E37F50A750B20850982850A83E0F5080509E4B50928
:200BA00002050A050BA90B850982850A83E0FFA7071508E5086003020B9B850B81D00DD0DE
:200BC000D0D001D000D007D006D005D004D003D002D0F0D083D082D0E020E705C2AF020B0A
:200BE000E3D2AFD0E03222C020C0E0C0F0C082C083C007C006C005C004C003C002C001C0BC
:200C000000C0D075D00075910712519553F17F75AEF7D0D0D000D001D002D003D004D0058E
:200C2000D006D007D083D082D0F0D0E0D02032AF96759600C2AF43F68053F17F75AEF75326
:200C400093FE7594007595205393F75393FD43930275962D5397EF4397105393FB859393B1
:200C600043E680439301D2AF8F9622C00D85810DC0E0C0A8C2AFAF96750C01C0077400C011
:200C8000E004C0E0E50D24FDF886821228B4AC82AD83AEF015811581D007900001ECF0ED76
:200CA000A3F0EEA3F0C0077400C0E004C0E0E50D24FDF886821228B4AC82AD83AEF015810E
:200CC0001581D007900004ECF0EDA3F0EEA3F08F96D0E053E080E5E042A8D0E075820075E3
:200CE000830075F000D00D22C020C0E0C0F0C082C083C007C006C005C004C003C002C001FC
:200D0000C000C0D075D000C0E0C0A8C2AFD0E053E080E5E042A8D0E0D0D0D000D001D002F0
:200D2000D003D004D005D006D007D083D082D0F0D0E0D02032C00D85810DE50D24FBF886E4
:200D400005088606088607900001E0FAA3E0FBA3E0FCE50D24F9F8E6C0E008E6C0E0C0051D
:200D6000C006C0078A828B838CF0122FDCAF82E58124FBF581EF7003020D81758201020D0E
:200D800084758200D00D22C00D85810DC0E0C0A8C2AF7401B50C028003020DA4750C007F12
:200DA00001020DEBE50D24FDFE8E077D007C40900004E0FAA3E0FBA3E0FE7400C0E0E50DE6
:200DC00024FBF8E6C0E008E6C0E0C007C005C0048A828B838EF0122A5FAE82E58124FAF5BC
:200DE000818E07EE6003020DEB7F01D0E053E080E5E042A8D0E08F82D00D2222C00D85814B
:200E00000DC082E5812404F581A80D08087600A80D0808B608004003020EF8758203758384
:200E2000001224DDAB82AC83ADF0E50D2403F8A60308A60408A605E50D2403F886820886E0
:200E4000830886F0A90D0909E712890CE50D2403F8740126FA74000836FE088607A80D0893
:200E60000886047D00C007C006C002C004C00575827D758300128957AC82AD8315811581A3
:200E8000D002D006D007747D2CFC74003DFD8A828E838FF0EC12890CA3ED12890C8A828E0C
:200EA000838FF0EC12890CA3ED12890CE50D2403F886030886040886057400C0E0C0E0C033
:200EC000E0A80D08E6C0E0C003C004C00574A7C0E07400C0E07458C0E07491C0E07480C00F
:200EE000E07582FE75830E124202E58124F4F581A80D080806020E0F850D81D00D22C00D04
:200F000085810D058105810581AD82AE83AFF075825575839175F080C007C006C005120F00
:200F2000E8D005D006D007A80D08A60508A60608A607A80D08740126FA74000836FB0886E9
:200F4000048A828B838CF0128E37FEA3128E37FFEFC313CE13CEFF8E828F83C004C003C0CD
:200F6000021249D6D002D003D004A80D0886820886830886F0128E37FF8F82C004C003C043
:200F800002120200D002D003D0048A828B838CF0128E37FAA3128E37FBEBC313CA13CAFB83
:200FA0008A828B831249D6A80D0886820886830886F0128E37FF8F82120200020F32850DC2
:200FC00081D00D227400C0E07403C0E07582141228B4AD82AE83AFF015811581900007EDBE
:200FE000F0EEA3F0EFA3F02222C00D85810DC082C083058105810581E50D2403FD7C007BB6
:2010000040900007E0FAA3E0FEA3E0FFA80D08E6C0E008E6C0E0C005C004C0038A828E83E2
:201020008FF0122FDCAF82E58124FBF581BF01028003021045E50D2403F88682088683081A
:2010400086F002104E75820075830075F000850D81D00D22C00D85810DC082E5812406F5AD
:20106000817582087583001224DDAC82AD83AEF0E50D2405F8A60408A60508A606E50D24AF
:2010800005F8E6084670030212177403C0E07400C0E07582011228B4AA82AB83AFF01581E1
:2010A0001581E50D2405F886820886830886F0EA12890CA3EB12890CA3EF12890CE50D24DB
:2010C00005F886820886830886F0128E37FEA3128E37FDA3128E37FCEA4B70030210FC7490
:2010E00000C0E0C0E0C0E0C0E0C0E0C0E08E828D838CF0122A5FE58124FAF581E50D2405E4
:20110000F886820886830886F0128E37FAA3128E37FBA3128E37FFEA4B7003021217E50DBC
:201120002405F8740326FA74000836FB088607758204758300C007C003C0021224DDAC8235
:20114000AD83AEF0D002D003D0078A828B838FF0EC12890CA3ED12890CA3EE12890C8C829C
:201160008D838EF074FF12890CA3740012890CA312890CA312890CE50D2405F8740626FDC5
:2011800074000836FE0886078D828E838FF0740012890CA312890CE50D2405F886040886DB
:2011A000050886067400C0E0C0E0C0E0C0E0C004C005C00674A7C0E07400C0E0747DC0E0F3
:2011C0007491C0E07480C0E07582D4758313124202E58124F4F581E50D2405F8860408868B
:2011E000050886067400C0E0C0E0C0E0C0E0C004C005C00674A7C0E07400C0E07485C0E0AB
:201200007491C0E07480C0E07582D4758313124202E58124F4F5817582087583001224DD6B
:20122000AD82AE83AFF0A80D0808A60508A60608A607A80D0808E6084670030213CE740310
:20124000C0E07400C0E07582011228B4AA82AB83ACF015811581A80D0808868208868308EC
:2012600086F0EA12890CA3EB12890CA3EC12890CA80D080886820886830886F0128E37FFCA
:20128000A3128E37FEA3128E37FDEA4B70030212AE7400C0E0C0E0C0E0C0E0C0E0C0E08F32
:2012A000828E838DF0122A5FE58124FAF581A80D080886820886830886F0128E37FAA312A7
:2012C0008E37FBA3128E37FCEA4B70030213CEA80D0808740326FA74000836FB088604753D
:2012E0008204758300C004C003C0021224DDAD82AE83AFF0D002D003D0048A828B838CF006
:20130000ED12890CA3EE12890CA3EF12890C8D828E838FF074FF12890CA3740F12890CA39F
:20132000740012890CA312890CA80D0808740626FD74000836FE0886078D828E838FF0748E
:201340006412890CA3740012890CA80D08088605088606088607C0E0C0E0C0E0A80D08E6C8
:20136000C0E0C005C006C00774A7C0E07400C0E0748DC0E07491C0E07480C0E07582D47592
:201380008313124202E58124F4F581A80D080886050886060886077400C0E0C0E0C0E0A8F8
:2013A0000D08E6C0E0C005C006C00774A7C0E07400C0E07495C0E07491C0E07480C0E0751A
:2013C00082D4758313124202E58124F4F581850D81D00D22C00D85810DE5812411F581AEB1
:2013E00082AC83ABF0E50D2404F87400F608F6C0E0C0A8C2AF900F7BE0FAA3E0FFE50D2422
:201400000AF8A60208A607900F7BE0FAA3E0FD900F7B74012AF074003DA3F0D0E053E080A9
:20142000E5E042A8D0E075827A75839175F080C006C004C003120FE8D003D004D006E50DA9
:20144000240FF8A60608A60408A603E50D240FF8740326FB74000836FE0886078B828E833A
:201460008FF0E50D240CF8128E37F6A3128E3708F6A3128E3708F6E50D240FF8A90D0974C6
:201480000626F77400083609F708E609F7A80D0886820886830886F0128E37FEA3128E37E6
:2014A000FFEE4F70030214BBE50D2406F876FF08760F740008F608F60214CAE50D2406F832
:2014C00076FF740008F608F608F6A80D0886820886830886F0128E37FEA3128E37FFE50D95
:2014E000240FF886820886830886F0128E37FBA3128E37FCA3128E37FDC006C0078B828C45
:20150000838DF0123298AF8215811581BF010280030216A9E50D240CF886820886830886CB
:20152000F0128E37FBA3128E37FDA3128E37FEA3128E37FFE50D2406F8E6B5031208E6B51A
:20154000050D08E6B5060808E6B5070302156575827775839175F080120FE8E50D2404F8A8
:2015600076010876007B007E007D007F00E50D2406F8C3E69B08E69E08E69D08E69F500332
:201580000215CFE50D240CF886820886830886F0EB12890CA3EE12890CA3ED12890CA3EF21
:2015A00012890CE50D240CF886820886830886F0128E37A3128E37A3128E37A3128E370B83
:2015C000BB00090EBE00050DBD00010F02156DE50D240FF886820886830886F0128E37FD90
:2015E000A3128E37FEA3128E37FF7400C0E0C0E0C0E0C0E0C0E0C0E08D828E838FF0122AEB
:201600005FAF82E58124FAF581EF600302162575827775839175F080120FE8E50D2404F8BA
:201620007601087600E50D2404F8E608466003021676E50D240AF88606088607C3EE9404FC
:20164000EF648094804003021676E50D240AF8E625E0FE08E633FFEE2473FEEF340FFF8E6F
:20166000828F83E0FCA3E0FD0CBC00010D8E828F83ECF0EDA3F0A80D0886820886830886C2
:20168000F0128E37FEA3128E37FFC006C00775820A758300128957AE82AF83158115818E78
:2016A000828F831249D60214CAA80D0886820886830886F0128E37FEA3128E37FFEE4F6046
:2016C000030214CA120AFC0214CA850D81D00D227F017E00EE75F002A4FCADF0EC240AF57E
:2016E00082ED3400F583E0FAA3E0FBEC2473F582ED340FF583E0FCA3E0FDEAB50406EBB530
:20170000050280030217097F00EE75F002A4FCADF0EC240AFAED3400FBEC2473F582ED34C1
:201720000FF583E0FCA3E0FD8A828B83ECF0EDA3F00EBE040050030216D48F8222AF82C01D
:20174000077400C0E07402C0E075820A1228B4AC82AD83AEF015811581D007900012ECF0EC
:20176000EDA3F0EEA3F0EC4D70030217E3C0077400C0E0C0E0C0E0C0077412C0E07400C084
:20178000E07400C0E074A7C0E07400C0E074F4C0E07491C0E07480C0E07582B87583181274
:2017A0004202E58124F4F581D0077400C0E0C0E0C0E0C0077412C0E07400C0E07400C0E0B1
:2017C00074A7C0E07400C0E074FCC0E07491C0E07480C0E07582E4758317124202E5812427
:2017E000F4F58122C00D85810DC082C083C0F0058105810581E50D2404F87400F608F67CC0
:2018000000E50D2406F87600C004E50D2404FA7C007F40A80D0886030886050886068B82B1
:201820008D838EF0128E37FBA3128E37FDA3128E37FEC0047400C0E0C0E0C0E0C002C004BB
:20184000C0078B828D838EF0122A5FAF82E58124FAF581D004BF0105D004021864D0047C25
:201860000102188CEC6003021881C0E0C0A8C2AF900F7EE004F0D0E053E080E5E042A8D08B
:20188000E0E50D2404F806B600020806E50D2406F806E50D2406F8C3E66480948350030263
:2018A0001808758203758300C0041249D6D004021801850D81D00D22C00D85810DC082C03E
:2018C00083C0F00581058105817B007C00E50D2404F87600C003C004A80D08860208860664
:2018E0000886078A828E838FF0128E37FBA3128E37FCA3128E37FD8B828C838DF0C007C0D8
:2019000006C004C003C002123A2FE582D002D003D004D006D007D004D00370030219C6C0B5
:2019200003C004E50D2405FD8D037C007D408A828E838FF0128E37FAA3128E37FEA3128ED7
:2019400037FFC004C0037400C0E0C0E0C003C004C0058A828E838FF0122FDCAF82E5812456
:20196000FBF581D003D004BF01028007D004D0030218D4D004D003E50D2405F8E6B5030811
:2019800008E6B5040302199CE50D2404F87601E50D2405F886030886040219BEE50D24043C
:2019A000F8E660030219BEC0E0C0A8C2AF900F7DE004F0D0E053E080E5E042A8D0E00BBB1C
:2019C00000010C0218D47582EF7583FFC004C0031249D6D003D0040218D4850D81D00D22D0
:2019E000900F7DE070030219F2900F7EE060030219F77F000219F97F01900F7D7400F090D6
:201A00000F7EF08F8222C00D85810DAF82E50D24F9F8900F82E6F0C0077418C0E0E50D24FE
:201A2000FAF886820886830886F008E6120C6B1581D0078F061EC0077400C0E0C0E0C0E06B
:201A4000C006C0E0C0E0C0E074A7C0E07400C0E07404C0E07492C0E07480C0E07582A375B0
:201A6000831A124202E58124F4F581D0077400C0E0C0E0C0E0C007C0E0C0E0C0E074A7C0D2
:201A8000E07400C0E0740AC0E07492C0E07480C0E075823E75831B124202E58124F4F58168
:201AA000D00D227F41900F7FE0FCA3E0FDA3E0FEC0077400C0E0C0E0C0078C828D838EF08E
:201AC000120D87AE82158115811581D007BE01028003021AE3900F82E0FE8E82C00712026A
:201AE00000D0070FC374589F4003021AA5900F82E0FF7400C0E08F8212013615811250F870
:201B0000AE82AF8374032EFE74003FFF7496C0E07400C0E08E828F83129028AE82AF8315ED
:201B2000811581C3EE9432EF94004003021B337E327F008E828F831249D6021AA322C00DD1
:201B400085810DE5812405F5817F00A80D0876007B41C007E50D2405FCA80D0808A60408AA
:201B60007600087640900F7FE0FDA3E0FEA3E0FFC004C00374FFC0E0C0E0A80D0808E6C08E
:201B8000E008E6C0E008E6C0E08D828E838FF0120D35AF82E58124FBF581D003D004EFD0C4
:201BA000077003021BD3E50D2405F8E6B503028003021BCE900F82E0FE0E8E82C007C004F2
:201BC000C003120200D003D004D007021BD37F01021BE50BC3745864808BF063F08095F0ED
:201BE0004003021B52900F82E0FE0EC007C0047400C0E08E821201361581D004D007BF012D
:201C0000028003021C538C06E50D2405F8B65803021C4A8E077C007B40C006900F7FE0FA26
:201C2000A3E0FDA3E0FEC00674FFC0E0C0E0C007C004C0038A828D838EF0120D35E5812464
:201C4000FBF581D006D006021C08A80D08067F00021B50A80D08C3E6648094824003021BD2
:201C600050900F83E004F0021B50850D81D00D22900F83E06003021C7E7F00021C807F0101
:201C8000900F837400F08F8222AF827D007E00ED2484FBEE340FFC7A00C007C006C0057462
:201CA00000C0E0C0E0C0E0C007C003C004C00274A7C0E07400C0E07410C0E07492C0E07427
:201CC00080C0E07582F075831C124202E58124F4F581D005D006D0070DBD00010E8D038E26
:201CE00004C3EB9401EC648094805003021C8F22C00D85810DE5812407F581AD82AE83AFA1
:201D0000F07B007C00E50D2405F8A60508A60608A607C003C004A80D08767B740008F60806
:201D2000F608F6A80D08744726F674940836F674030836F674000836F6C004C003120AFCED
:201D4000D003D004A80D08E6C0E008E6C0E008E6C0E008E6C0E07582FD7583FF75F0FF742C
:201D6000FF128E53AA82AB83ACF0FFE58124FCF581A80D08A60208A60308A60408A607C043
:201D8000037407C0E07400C0E0C0E0C0E0A80D0886820886830886F008E6128A97AC82AD81
:201DA00083AEF0FFE58124FCF581D003A80D08A60408A60508A60608A607A80D08B61B1310
:201DC00008B6770F08B6FE0B08B6FF07D004D003021DDBD004D0037B017C00EB4C60030258
:201DE0001E05C0E0C0A8C2AFE50D2405F886820886830886F0740112890CD0E053E080E539
:201E0000E042A8D0E0C004C003120AFCD003D004021D12850D81D00D227F017D007E00ED57
:201E20002484FBEE340FFC8B828C83E06003021E337F00ED2484F582EE340FF5837400F088
:201E40000DBD00010E8D038E04C3EB9401EC648094805003021E1F8F8222C00D85810DC0FB
:201E600082C083C0F0058105810581A80D08740126FF74000836FB088602A80D08E50D24F4
:201E800004F9740426F77400083609F708E609F7E50D2404F886040886050886068F828BB1
:201EA000838AF0EC12890CA3ED12890CA3EE12890CE50D2404F886820886830886F074FF07
:201EC00012890CA312890CE50D2404F8740226FF74000836FD088604E50D2404F886020881
:201EE00086030886068F828D838CF0EA12890CA3EB12890CA3EE12890CE50D2404F874059F
:201F000026FF74000836FD088604E50D2404F886020886030886068F828D838CF0EA12897A
:201F20000CA3EB12890CA3EE12890CA80D0886820886830886F0740012890C850D81D00DC9
:201F400022AD82AE83AFF0740B2DFD74003EFE8D828E838FF0740012890CA312890CA3124E
:201F6000890C22C00D85810DC082C083C0F0E5812409F581A80D08740126FA74000836FB8D
:201F80000886048A828B838CF0E50D240AF8128E37F6A3128E3708F6A3128E3708F6E50D52
:201FA00024FBF8860208860308860474022AFD74003BFE8C078D828E838FF0E50D240AF8CB
:201FC000E612890CA308E612890CA308E612890CE50D2407F874052AF674003B08F608A6FB
:201FE00004E50D240AF8E50D2404F9740526F77400083609F708E609F7E50D2404F8868262
:202000000886830886F0128E37FDA3128E37FEA3128E37FFE50D2407F886820886830886B0
:20202000F0ED12890CA3EE12890CA3EF12890CE50D2404F886820886830886F0128E37FD2E
:20204000A3128E37FEA3128E37FF74022DFD74003EFE8D828E838FF0EA12890CA3EB1289E6
:202060000CA3EC12890CE50D2404F886820886830886F0EA12890CA3EB12890CA3EC128985
:202080000C740B2AFA74003BFB8A828B838CF0A80D08E612890CA308E612890CA308E6122C
:2020A000890CA80D0886820886830886F0128E37FF0FA80D0886820886830886F0EF128974
:2020C0000C850D81D00D22C00D85810DC082C083C0F0E581240BF581E50D24FBF886020829
:2020E00086030886048A828B838CF0E50D240DF8128E37F6A3128E3708F6E50D240DF8B6FE
:20210000FF0608B6FF02800302214CC002C003C004A80D08740426FA74000836FB0886042C
:2021200074052AFA74003BFB8A828B838CF0E50D240AF8128E37F6A3128E3708F6A3128E22
:202140003708F6D004D003D0020221D6A80D08740426FD74000836FE088607E50D240AF823
:20216000A60508A60608A607C002C003C004E50D240AF8740226FD74000836FE0886078D7F
:20218000828E838FF0128E37FAA3128E37FBA3128E37FC8A828B838CF0128E37FAA3128EC7
:2021A00037FBE50D240DF8C3E69A08E69BD004D003D00250030221D68D828E838FF0E50DB0
:2021C000240AF8128E37F6A3128E3708F6A3128E3708F6022168E50D2404F874022AF67475
:2021E000003B08F608A604E50D240AF8E50D2407F9740226F77400083609F708E609F7E5AE
:202200000D2407F886820886830886F0128E37FDA3128E37FEA3128E37FFE50D2404F8869A
:20222000820886830886F0ED12890CA3EE12890CA3EF12890C74052DFD74003EFE8D828E98
:20224000838FF0EA12890CA3EB12890CA3EC12890C74052AFD74003BFE8C078D828E838FF1
:20226000F0E50D240AF8E612890CA308E612890CA308E612890CE50D2407F886820886832B
:202280000886F0EA12890CA3EB12890CA3EC12890C740B2AFA74003BFB8A828B838CF0A839
:2022A0000D08E612890CA308E612890CA308E612890CA80D0886820886830886F0128E37E1
:2022C000FF0FA80D0886820886830886F0EF12890C850D81D00D22C00D85810DE581240F7B
:2022E000F581C8E50D240AC8A68208A68308A6F0E50D240AF8740B26FA74000836FB0886CF
:20230000048A828B838CF0E50D240DF8128E37F6A3128E3708F6A3128E3708F6E50D240A2B
:20232000F8E50D2407F9740226F77400083609F708E609F7E50D2407F886820886830886A0
:20234000F0128E37FDA3128E37FEA3128E37FFA80D0874052DF674003E08F608A607E50D18
:20236000240AF8E50D2404F9740526F77400083609F708E609F7E50D2404F88682088683C3
:202380000886F0128E37FDA3128E37FEA3128E37FFA80D0886820886830886F0ED12890C12
:2023A000A3EE12890CA3EF12890CE50D2404F886820886830886F0128E37FDA3128E37FEB7
:2023C000A3128E37FFA80D0874022DF674003E08F608A607E50D2407F8868208868308860D
:2023E000F0128E37FDA3128E37FEA3128E37FFA80D0886820886830886F0ED12890CA3EEAF
:2024000012890CA3EF12890CE50D240DF8A90D09740126F77400083609F708E609F7A80D1B
:202420000886820886830886F0128E37FDA3128E37FEA3128E37FFE50D240AF8C005C00695
:20244000C00786820886830886F01200791581158115817002800302248EE50D2404F88690
:20246000820886830886F0128E37FDA3128E37FEA3128E37FFA80D0886820886830886F032
:20248000ED12890CA3EE12890CA3EF12890C8A828B838CF0740012890CA312890CA31289FE
:2024A0000CE50D240DF886820886830886F0128E37FF1FE50D240DF886820886830886F0B7
:2024C000EF12890CE50D240DF886820886830886F0128E37FF8F82850D81D00D22C00D8569
:2024E000810DC082C083058105810581E50D2403F87400F608F6087600124A7A900F15E0D6
:20250000F5F0A3E045F0600302251E7A157D007E007F00900F15EAF0EDA3F0EEA3F0A80D29
:2025200008E608467003022587900F85E0FEA3E0FFA80D08E62EFC08E63FFDC3EC94FFED94
:20254000940E4003022587A80D08E62EFC08E63FFDC3EE9CEF9D4003022587900F15E0FB98
:20256000A3E0FCA3E0FDEE2BFBEF3CFCE50D2403F8A60308A60408A605A80D08900F85E63B
:202580002EF008E63FA3F0124A82E50D2403F886820886830886F0850D81D00D2222900F04
:2025A000857400F0A3F022900F85E0FEA3E0FF74FFC39EFE740E9FFF8E828F8322C00D8571
:2025C000810DC082C083C0F0E581240AF581E50D240DF87601A80D08E6084670030228A06E
:2025E000A80D08742526FA74000836FB0886048A828B838CF0128E37FFBF0100500302287D
:20260000A0C002C003C0048F037C00C002C003C0047582FF7583FF1288C0AB82AC83158141
:202620001581D002A80D08E50D240AF9742626F77400083609F708E609F7E50D240AF88667
:20264000820886830886F0128E37FA7F00C3EB9AEC9FD004D003D00250030228A0C0E0C050
:20266000A8C2AFA80D08E50D2407F9740626F77400083609F708E609F7A80D0886820886E4
:20268000830886F0E50D2404F9128E37F7A3128E3709F7A3128E3709F78A828B838CF012BC
:2026A0008E37FFE50D240AF886820886830886F0128E37FE8FF0EEA4C8E50D2404C826FDF4
:2026C00008E635F0FE088607E50D2407F886820886830886F0ED12890CA3EE12890CA3EF4A
:2026E00012890CA80D08742426FD74000836FE0886078D828E838FF0740012890CA80D08FF
:20270000E50D2404F9740326F77400083609F708E609F7A80D0886820886830886F0128E7E
:2027200037FDA3128E37FEA3128E37FFE50D2404F886820886830886F0ED12890CA3EE1294
:20274000890CA3EF12890CE50D2407F8E50D2404F9740326F77400083609F708E609F7A8A7
:202760000D0886820886830886F0128E37FDA3128E37FEA3128E37FF8A828B838CF0128EB2
:2027800037FA7C00E50D2407F8EA24FFF6EC34FF08F6E50D240AF886820886830886F01296
:2027A0008E37FB7C00C007C006C005C003C004E50D2407F88682088683128957AB82AC8388
:2027C00015811581D005D006D007EB2DFDEC3EFEE50D2404F886820886830886F0ED1289DD
:2027E0000CA3EE12890CA3EF12890CA80D08742726FD74000836FE0886078D828E838FF0FD
:2028000074FF12890CA80D08742826FD74000836FE0886078D828E838FF074FF12890CE53F
:202820000D24FDF8E66003022862A80D08740C26FD74000836FE0886078D828E838FF01247
:202840008E377003022892A80D08740C26FD74000836FE0886078D828E838FF0125C6D0263
:202860002892A80D08740C26FD74000836FE0886078D828E838FF0121E5AA80D0874182661
:20288000FD74000836FE0886078D828E838FF0121E5AD0E053E080E5E042A8D0E00228A73A
:2028A000E50D240DF87600E50D240DF88682850D81D00D22C00D85810DC0827C007D007EB9
:2028C00000A80D08E67003022992C004C005C006A80D0886027B00C006C005C004C002C045
:2028E000037582FF7583FF1288C0AA82AB8315811581D004D005D006E50D24FDF886057E75
:2029000000C3EA9DEB9ED006D005D0045003022992A80D08E50D24FDF986F0E7A4FAABF0F6
:20292000C374D69A74FF9B500302299274292AFA74003BFB8A828B831224DDAA82AB83AF31
:20294000F08A048B058F06EC4D70030229928C028D038E0774292AFA74003BFBC006C005C2
:20296000C004C004C005C006E50D24FCF8E6C0E0C002C003C007E50D24FDF8E6C0E0A80D22
:2029800008868212299DE58124F8F581D004D005D0068C828D838EF01581D00D22C00D8555
:2029A000810DC082E50D24FDF8E660030229E0E50D24F6F88604088605088606E50D24F627
:2029C000F886020886030886078C828D838EF0EA12890CA3EB12890CA3EF12890C022A0E7C
:2029E000E50D24F6F88604088605088606E50D24FAF886020886030886078C828D838EF0D0
:202A0000EA12890CA3EB12890CA3EF12890CE50D24F6F8860508860608860774252DFA74CB
:202A2000003EFB8F048A828B838CF0A80D08E612890C74262DFA74003EFB8F048A828B83CF
:202A40008CF0E50D24FDF8E612890C7401C0E08D828E838FF01225BD15811581D00D22C0CF
:202A60000D85810DE5812411F581AD82AB83ACF0E50D2411F87600E50D240BF8A60508A625
:202A80000308A604E50D24F8F8B60204740180027400FFE50D240EFEE50D240AF8A606E58A
:202AA0000D2407F874242DF674003B08F608A604A80D0874252DF674003B08F608A604C034
:202AC000E0C0A8C2AFE50D2407F886820886830886F0128E37FDA80D088682088683088659
:202AE000F0128E37FCC3ED9C5003022AF3EF7003022B6BE50D24F8F8E6C0E0E50D24FBF8C6
:202B0000E6C0E008E6C0E008E6C0E0E50D240BF886820886830886F0123ACAE58124FCF5D2
:202B200081E50D240BF8741826FA74000836FB0886048A828B838CF0128E377003022B5AA9
:202B4000E50D240BF8741826FA74000836FB0886048A828B838CF0125C6DD0E053E080E5B8
:202B6000E042A8D0E0758201022D46E50D24F9F8E608466003022B89D0E053E080E5E042B0
:202B8000A8D0E0758200022D46E50D2411F8E66003022BB28E027B007C408A828B838CF0CD
:202BA000C007C006126A61D006D007E50D2411F87601D0E053E080E5E042A8D0E0C007C01F
:202BC00006124A7AD006D007C0E0C0A8C2AFE50D240BF8742726FA74000836FB0886048A56
:202BE000828B838CF0128E37FDBDFF028003022BFC8A828B838CF0740012890CE50D240BB9
:202C0000F8742826FA74000836FB0886048A828B838CF0128E37FDBDFF028003022C2A8A34
:202C2000828B838CF0740012890CC007D0E053E080E5E042A8D0E0E50D24F9FCE50D2404BF
:202C4000F8A604087600087640E50D240AF886047D007F40C006E50D2404F8E6C0E008E66C
:202C6000C0E008E6C0E08C828D838FF0126A93AF82158115811581D006EFD0076003022D59
:202C800030E50D240BF886820886830886F0C007C006124173E582D006D0077003022D0A41
:202CA000E50D240BF8740C26FB74000836FC088605C007C006E50D24F9F8E6C0E008E6C051
:202CC000E08B828C838DF0125A4915811581D006D007E50D240BF886820886830886F0C07D
:202CE00007C006123F7ED006D007C007C006124A82E582D006D0076003022ABFC007C00631
:202D0000120AFCD006D007022ABFE50D240BF886820886830886F0C007C006123F7ED00621
:202D2000D007C007C006124A82D006D007022ABFE50D240BF886820886830886F0123F7E3A
:202D4000124A82758200850D81D00D22C00D85810D058105810581AA82AB83ACF0A80D0867
:202D6000A60208A60308A60474242AFD74003BFE8C078D828E838FF0128E37FD74252AFC17
:202D800074003BFE8C078C828E838FF0128E37FCC3ED9C5003022DA5E50D24F7F8B6020250
:202DA0008003022EA4A80D08742826FD74000836FE0886078D828E838FF0128E37FFA80DD1
:202DC00008742426FC74000836FD0886068C828D838EF0128E37C007E50D24F7F8E6C0E029
:202DE000E50D24FBF8E6C0E008E6C0E008E6C0E0A80D0886820886830886F0123ACAE58158
:202E000024FCF581D007BFFF028003022E72A80D08741826FC74000836FD0886068C828D17
:202E2000838EF0128E377003022E9FA80D08741826FC74000836FD0886068C828D838EF02E
:202E4000125C6DE5827003022E9FE50D24F8F8E608467003022E9FE50D24F8F88604088654
:202E6000050886068C828D838EF0740112890C022E9FC007125123AE82D0078F05C3ED9EFC
:202E80004003022E9FA80D08742826FC74000836FD0886060F8C828D838EF0EF12890C7FA2
:202EA00001022EA67F008F82850D81D00D22C00D85810DC082C083C0F0E5812404F581A8D8
:202EC0000D08742426FA74000836FB0886048A828B838CF0E50D2407F8128E37F6A80D08B1
:202EE000742526FD74000836FE0886078D828E838FF0128E37FDE50D2407F8C3E69D4003C0
:202F0000022FD2A80D08E50D2404F9742826F77400083609F708E609F7E50D2404F886826B
:202F20000886830886F0128E37FFE50D2407F8E604FE8A828B838CF0EE12890CBFFF0280C4
:202F400003022FA8A80D08741826FC74000836FD0886068C828D838EF0128E377003022FD0
:202F6000CDA80D08741826FC74000836FD0886068C828D838EF0125C6DE5827003022FCD87
:202F8000E50D24FBF8E608467003022FCDE50D24FBF886040886050886068C828D838EF02D
:202FA000740112890C022FCDC007125123AE82D0078F05C3ED9E4003022FCD0FE50D240457
:202FC000F886820886830886F0EF12890C7F01022FD47F008F82850D81D00D22C00D8581D2
:202FE0000DE581240BF581AC82AD83AFF0E50D2408F87600E50D2409F8A60408A60508A60E
:2030000007E50D2405FEE50D2404F8A606A80D0874242CF674003D08F608A607C0E0C0A8EF
:20302000C2AFA80D0886820886830886F0128E37FC8C05EC70030230CBC005E50D24FBF83D
:20304000E6C0E008E6C0E008E6C0E0E50D2409F886820886830886F0123E2415811581156B
:2030600081D005E50D2409F8742426FB74000836FC088607ED14FA8B828C838FF0EA1289CC
:203080000CE50D2409F8740C26FB74000836FC0886078B828C838FF0128E3770030230BA58
:2030A000E50D2409F8740C26FB74000836FC0886078B828C838FF0125C6DD0E053E080E557
:2030C000E042A8D0E0758201023292E50D24F9F8E6084660030230E9D0E053E080E5E04295
:2030E000A8D0E0758200023292E50D2408F8E6600302310E8E037C007F408B828C838FF0B4
:20310000C006126A61D006E50D2408F87601D0E053E080E5E042A8D0E0C006124A7AD00675
:20312000C0E0C0A8C2AFE50D2409F8742726FB74000836FC0886078B828C838FF0128E378E
:20314000FABAFF0280030231548B828C838FF0740012890CE50D2409F8742826FB740008AA
:2031600036FC0886078B828C838FF0128E37FABAFF0280030231828B828C838FF074001208
:20318000890CC006D0E053E080E5E042A8D0E0E50D24F9FF7C007B40E50D2404F886027DB6
:2031A000007E40C006C007C004C0038A828D838EF0126A93AF82158115811581D006D006F5
:2031C000EF6003023259E50D2409F886820886830886F0C006124116E582D006700302324F
:2031E0003BE50D2409F8741826FC74000836FD088607C006E50D24F9F8E6C0E008E6C0E0AA
:203200008C828D838FF0125A4915811581D006E50D2409F886820886830886F0C006123F95
:203220007ED006C006124A82E582D006600302301CC006120AFCD00602301CE50D2409F88F
:2032400086820886830886F0C006123F7ED006C006124A82D00602301CE50D2409F8868285
:203260000886830886F0C006123F7ED006C006124A82D006E50D2409F8868208868308861C
:20328000F0C006124116E582D006700302301C758200850D81D00D22C00D85810DE581249E
:2032A0000BF581AC82AD83AFF0E50D2405F87600E50D2406F8A60408A60508A607E50D24CB
:2032C00009FEE50D2404F8A606A80D0874242CF674003D08F608A607C0E0C0A8C2AFA80D20
:2032E0000886820886830886F0128E37FC8C07EC7003023351EF14FCA80D0886820886830F
:203300000886F0EC12890CE50D2406F8740C26FB74000836FC0886078B828C838FF0128E69
:20332000377003023340E50D2406F8740C26FB74000836FC0886078B828C838FF0125C6D00
:20334000D0E053E080E5E042A8D0E0758201023518E50D24FCF8E60846600302336FD0E06F
:2033600053E080E5E042A8D0E0758200023518E50D2405F8E660030233948E037C007F4004
:203380008B828C838FF0C006126A61D006E50D2405F87601D0E053E080E5E042A8D0E0C00D
:2033A00006124A7AD006C0E0C0A8C2AFE50D2406F8742726FB74000836FC0886078B828C36
:2033C000838FF0128E37FABAFF0280030233DA8B828C838FF0740012890CE50D2406F8748F
:2033E0002826FB74000836FC0886078B828C838FF0128E37FABAFF0280030234088B828CC0
:20340000838FF0740012890CC006D0E053E080E5E042A8D0E0E50D24FCFF7C007B40E50DCD
:203420002404F886027D007E40C006C007C004C0038A828D838EF0126A93AF82158115818F
:203440001581D006D006EF60030234DFE50D2406F886820886830886F0C006124116E58282
:20346000D00670030234C1E50D2406F8741826FC74000836FD088607C006E50D24FCF8E650
:20348000C0E008E6C0E08C828D838FF0125A4915811581D006E50D2406F886820886830875
:2034A00086F0C006123F7ED006C006124A82E582D00660030232D8C006120AFCD0060232F3
:2034C000D8E50D2406F886820886830886F0C006123F7ED006C006124A82D0060232D8E593
:2034E0000D2406F886820886830886F0C006123F7ED006C006124A82D006E50D2406F88687
:20350000820886830886F0C006124116E582D00670030232D8758200850D81D00D22C00DD9
:2035200085810DE581240DF581AD82AB83AFF07C00E50D240BF8A60508A60308A607E50DD7
:203540002408FEA80D08A606E50D2405F874242DF674003B08F608A607C0E0C0A8C2AFE54A
:203560000D2405F886820886830886F0128E37700302364AE50D240BF8740626FA7400088B
:2035800036FB08860774032AFA74003BFB8A828B838FF0128E37FEA3128E37FDA3128E37C1
:2035A000FCC006C005C004E50D24FBF8E6C0E008E6C0E008E6C0E0E50D240BF88682088666
:2035C000830886F0123E24158115811581D004D005D006E50D240BF8740626FA74000836D0
:2035E000FB08860774032AFA74003BFB8A828B838FF0EE12890CA3ED12890CA3EC12890C5B
:20360000E50D240BF8741826FA74000836FB0886078A828B838FF0128E377003023639E56A
:203620000D240BF8741826FA74000836FB0886078A828B838FF0125C6DD0E053E080E5E0CC
:2036400042A8D0E0758201023846E50D24F9F8E608466003023668D0E053E080E5E042A808
:20366000D0E0758200023846EC60030236838E027B007F408A828B838FF0C006126A61D043
:20368000067C01D0E053E080E5E042A8D0E0C006C004124A7AD004D006C0E0C0A8C2AFE57D
:2036A0000D240BF8742726FA74000836FB0886078A828B838FF0128E37FDBDFF0280030229
:2036C00036CD8A828B838FF0740012890CE50D240BF8742826FA74000836FB0886078A8210
:2036E0008B838FF0128E37FDBDFF0280030236FB8A828B838FF0740012890CC004D0E0537A
:20370000E080E5E042A8D0E0E50D24F9FFA80D0808A607087600087640A80D0886047D006A
:203720007F40C006C004A80D0808E6C0E008E6C0E008E6C0E08C828D838FF0126A93AF82FC
:20374000158115811581D004D006D004EF6003023801E50D240BF886820886830886F0C02C
:2037600006C004124116E582D004D00670030237DBE50D240BF8741826FB74000836FD0801
:203780008607C006C004E50D24F9F8E6C0E008E6C0E08B828D838FF0125A4915811581D0AA
:2037A00004D006E50D240BF886820886830886F0C006C004123F7ED004D006C006C00412E0
:2037C0004A82E582D004D0066003023559C006C004120AFCD004D006023559E50D240BF824
:2037E00086820886830886F0C006C004123F7ED004D006C006C004124A82D004D0060235E6
:2038000059E50D240BF886820886830886F0C006C004123F7ED004D006C006C004124A8234
:20382000D004D006E50D240BF886820886830886F0C006C004124116E582D004D0067003B7
:20384000023559758200850D81D00D22C00D85810DC082C083C0F0A80D08742426FA7400D1
:203860000836FB0886048A828B838CF0128E37FA8A04EA7003023975A80D08742726FA748F
:20388000000836FB0886078A828B838FF0128E37FFC007C004E50D24FBF8E6C0E008E6C023
:2038A000E008E6C0E0A80D0886820886830886F0123E24158115811581D004D007A80D08A8
:2038C000742426FB74000836FD0886061C8B828D838EF0EC12890CBFFF028003023943A839
:2038E0000D08740C26FC74000836FD0886068C828D838EF0128E377003023970A80D08740C
:203900000C26FC74000836FD0886068C828D838EF0125C6DE5827003023970E50D24F8F834
:20392000E608467003023970E50D24F8F886040886050886068C828D838EF0740112890CC6
:20394000023970C007125123AE82D0078F05C3ED9E4003023970A80D08742726FC740008A2
:2039600036FD0886060F8C828D838EF0EF12890C7F010239777F008F82850D81D00D22C0AB
:203980000D85810DAD82AE83AFF074242DFA74003EFB8F048A828B838CF0128E3770030227
:2039A0003A2874062DFA74003EFB8F0474032AFA74003BFB8A828B838CF0128E37FAA31263
:2039C0008E37FBA3128E37FCC007C006C005C004C003C002E50D24FBF8E6C0E008E6C0E0F9
:2039E00008E6C0E08D828E838FF0123E24158115811581D002D003D004D005D006D00774F5
:203A0000062DFD74003EFE74032DFD74003EFE8D828E838FF0EA12890CA3EB12890CA3EC81
:203A200012890C7F01023A2A7F008F82D00D22AD82AE83AFF0C0E0C0A8C2AF74242DFD74BC
:203A4000003EFE8D828E838FF0128E37FDD0E053E080E5E042A8D0E08D8222AD82AE83AFB5
:203A6000F0C0E0C0A8C2AF74252DFA74003EFB8F048A828B838CF0128E37FA74242DFD7440
:203A8000003EFE8D828E838FF0128E37FDEAC39DFAD0E053E080E5E042A8D0E08A8222AD96
:203AA00082AE83AFF074242DFD74003EFE8D828E838FF0128E37FD8D8222AD82AE83AFF09F
:203AC0008D828E838FF012259D22C00D85810DC082C083C0F0E581240AF581A80D087424DD
:203AE00026FA74000836FB0886048A828B838CF0E50D240DF8128E37F6A80D08E50D240412
:203B0000F9742626F77400083609F708E609F7E50D2404F886820886830886F0128E37FED7
:203B2000EE7003023E09E50D24FAF8E66003023C86C002C003C0048E047D00A80D08E50DBF
:203B4000240AF9740326F77400083609F708E609F7E50D240AF886820886830886F0128EBB
:203B600037FAA3128E37FBA3128E37FFC004C003C002C004C005E50D24FBF8E6C0E008E6D7
:203B8000C0E008E6C0E08A828B838FF0128C1EE58124FBF581D002D003D004E50D240AF816
:203BA00086820886830886F0128E37FCA3128E37FDA3128E37FFE50D2404F8868208868380
:203BC0000886F0128E37FBE50D2407F8EB2CF674003D08F608A607E50D240AF88682088661
:203BE000830886F0E50D2407F9E712890CA309E712890CA309E712890CA80D08740626FA55
:203C000074000836FB0886078A828B838FF0128E37FAA3128E37FBA3128E37FFE50D2407ED
:203C2000F8C002C003C00786820886830886F0120079158115811581D004D003D002500390
:203C4000023E09C002C003C004A80D0886820886830886F0128E37FCA3128E37FDA3128EF1
:203C600037FFE50D240AF886820886830886F0EC12890CA3ED12890CA3EF12890CD004D0B8
:203C800003D002023E09C002C003C0047F00A80D08E50D2407F9740626F77400083609F722
:203CA00008E609F7E50D2407F8E50D240AF9740326F77400083609F708E609F7E50D240A94
:203CC000F886820886830886F0128E37FBA3128E37FCA3128E37FDC004C003C002C006C0C7
:203CE00007E50D24FBF8E6C0E008E6C0E008E6C0E08B828C838DF0128C1EE58124FBF581C2
:203D0000D002D003D004E50D240AF886820886830886F0128E37FDA3128E37FEA3128E37B5
:203D2000FFE50D2404F886820886830886F0128E37FC7B00EDC39CFDEE9BFEE50D240AF8A5
:203D400086820886830886F0ED12890CA3EE12890CA3EF12890CA80D088682088683088663
:203D6000F0128E37FAA3128E37FBA3128E37FCC002C003C0048D828E838FF012007915818E
:203D800015811581D004D003D0024003023DEBC002C003C004E50D2407F886820886830892
:203DA00086F0128E37FDA3128E37FEA3128E37FFE50D2404F886820886830886F0128E3748
:203DC000FC7B00EDC39CFDEE9BFEE50D240AF886820886830886F0ED12890CA3EE12890C21
:203DE000A3EF12890CD004D003D002E50D24FAF8B602028003023E09E50D240DF8E670030F
:203E0000023E09E50D240DF816E50D240DF8E604FF8A828B838CF0EF12890C758200850D6F
:203E200081D00D22C00D85810DE5812407F581C8E50D2405C8A68208A68308A6F0E50D2463
:203E400005F8742626FA74000836FB0886048A828B838CF0A80D08128E37F6A80D08E67039
:203E600003023F78C002C003C004E50D2405F8740626FA74000836FB088604A80D08087418
:203E8000032AF674003B08F608A604A80D080886820886830886F0128E37FDA3128E37FEF8
:203EA000A3128E37FFA80D08E62DFD74003EFEA80D080886820886830886F0ED12890CA379
:203EC000EE12890CA3EF12890C8A828B838CF0128E37FAA3128E37FBA3128E37FCC002C040
:203EE00003C0048D828E838FF0120079158115811581D004D003D0025003023F32E50D24BA
:203F000005F886820886830886F0128E37FDA3128E37FEA3128E37FFA80D080886820886ED
:203F2000830886F0ED12890CA3EE12890CA3EF12890C8A828B838CF0128E37FA7F00A80DE0
:203F4000080886820886830886F0128E37FCA3128E37FDA3128E37FEC002C007C004C005E6
:203F6000C006E50D24FBF886820886830886F0128C1EE58124FBF581850D81D00D22C00D45
:203F800085810DC082C083C0F0E5812404F581C0E0C0A8C2AFA80D08742826FA7400083631
:203FA000FB0886048A828B838CF0E50D2404F8128E37F6A80D08E50D2405F9741826F77411
:203FC00000083609F708E609F7E50D2404F8C37400648086F063F08095F04003024037E519
:203FE0000D2405F886820886830886F0128E377003024037A80D08741826FD74000836FE1D
:204000000886078D828E838FF0C004C003C002125C6DE582D002D003D004700302402EC0C5
:2040200004C003C002126BBAD002D003D004E50D2404F816023FC98A828B838CF074FF12FA
:20404000890CD0E053E080E5E042A8D0E0C0E0C0A8C2AFA80D08742726FD74000836FE085D
:2040600086078D828E838FF0128E37FCA80D08E50D2405F9740C26F77400083609F708E633
:2040800009F7C3740064808CF063F08095F040030240FAE50D2405F886820886830886F008
:2040A000128E3770030240FAC005C006C007A80D08740C26FA74000836FB0886078A828BF2
:2040C000838FF0C007C006C005C004125C6DE582D004D005D006D007D007D006D00570033B
:2040E0000240F6C007C006C005C004126BBAD004D005D006D0071C0240828D828E838FF066
:2041000074FF12890CD0E053E080E5E042A8D0E0850D81D00D22AD82AE83AFF0C0E0C0A8AA
:20412000C2AF74242DFD74003EFE8D828E838FF0128E37600302413D7F0102413F7F00D0F2
:20414000E053E080E5E042A8D0E08F8222AD82AE83AFF074242DFD74003EFE8D828E838F1A
:20416000F0128E37600302416E7F010241707F008F8222AD82AE83AFF0C0E0C0A8C2AF7493
:20418000242DFA74003EFB8F048A828B838CF0128E37FA74252DFD74003EFE8D828E838F0B
:2041A000F0128E37FDEAB5050280030241B37F010241B57F00D0E053E080E5E042A8D0E063
:2041C0008F8222AD82AE83AFF074242DFA74003EFB8F048A828B838CF0128E37FA74252D81
:2041E000FD74003EFE8D828E838FF0128E37FDEAB5050280030241FD7F010241FF7F008F66
:204200008222C00D85810D058105810581AE82AF83758233758300C007C0061224DDAB8237
:20422000AC83ADF0D006D007A80D08A60308A60408A605A80D08E6084670030242E6C006E6
:20424000C007A80D088602088606088607C007C0067433C0E07400C0E0C0E08A828E838FF5
:20426000F0128CB1158115811581D006D007A80D08742026FA74000836FE088607E50D24C4
:20428000F9F886040886058C828D83C007C006C0021224DDAB82AC83ADF0D002D006D00718
:2042A0008A828E838FF0EB12890CA3EC12890CA3ED12890CD007D006EB4C60030242E6A84A
:2042C0000D0886030886040886058B828C838DF0C007C00612259DD006D007A80D08740043
:2042E000F608F6087600A80D08E608467003024375E50D24F9F886020886037C007D0074A1
:2043000000C0E0C0E0C0E0A80D08E6C0E008E6C0E008E6C0E0E50D24F2F8E6C0E008E6C02A
:20432000E008E6C0E0E50D24F5F8E6C0E0E50D24F6F8E6C0E008E6C0E008E6C0E0C002C05E
:2043400003C004C005E50D24FBF8E6C0E008E6C0E008E6C0E08E828F8312437FE58124ECBA
:20436000F581A80D0886820886830886F01246617F010243777FFF8F82850D81D00D22C01D
:204380000D85810DC082C083E581240CF581E50D24EDF8E50D2409F9E6F708E609F708E6A0
:2043A00009F7E50D2409F8742026FA74000836FE0886078A828E838FF0E50D240CF8128E97
:2043C00037F6A3128E3708F6A3128E3708F6E50D240CF8E50D2403F9E6F708E609F708E6DB
:2043E00009F7E50D2409F8E50D2406F9742B26F77400083609F708E609F7E50D24F7F8E64A
:2044000024FFFA08E634FFFE08E634FFFD08E634FFFFE50D240CF8EA26FAEE0836FE088646
:2044200005E50D2406F886820886830886F0EA12890CA3EE12890CA3ED12890CE50D24FBBB
:20444000F8E6084670030244D6E50D2409F8742326FD74000836FE0886077B00E50D2406F4
:20446000F8EB2DF674003E08F608A607C005C006C007E50D24FBF8EB26FD74000836FE08B0
:2044800086078D828E838FF0128E37FCE50D2406F886820886830886F0EC12890C8D828E42
:2044A000838FF0128E37D007D006D00570030244BA0BBB0800500302445CE50D2409F874E0
:2044C0002A26FD74000836FE0886078D828E838FF0740012890CE50D24F3F8B60400500382
:2044E0000244EAE50D24F3F87603E50D2409F8741F26FD74000836FE0886078D828E838F51
:20450000F0E50D24F3F8E612890CE50D2409F8740326FD74000836FE0886078D828E838F78
:20452000F0121F41E50D2409F8741126FD74000836FE0886078D828E838FF0121F41E50D12
:204540002409F8740B26FD74000836FE088607E50D24EDF886020886030886048D828E8389
:204560008FF0EA12890CA3EB12890CA3EC12890CE50D2409F8E50D2406F9741126F774007E
:20458000083609F708E609F7E50D24F3F886077E007404C39FFF74009EFEE50D2406F88660
:2045A000820886830886F0EF12890CA3EE12890CE50D2409F8741926FD74000836FE088617
:2045C000078D828E838FF0EA12890CA3EB12890CA3EC12890CE50D24F4F8E6C0E008E6C003
:2045E000E008E6C0E0A80D08E6C0E008E6C0E0E50D2403F886820886830886F0120882AF89
:2046000082AE83ADF0E58124FBF581E50D2409F886820886830886F0EF12890CA3EE1289DF
:204620000CA3ED12890CE50D24F0F8E60846700302465BE50D24F0F886050886060886073D
:204640008D828E838FF0E50D2409F8E612890CA308E612890CA308E612890C850D81D00DB7
:2046600022C00D85810DC082C083C0F0E581240CF581C0E0C0A8C2AF900F8AE004F0900FE2
:2046800087E0FAA3E0FBA3E0FCEA4B60030246B3A80D08900F87E6F008E6A3F008E6A3F06E
:2046A000900F8AE0FCBC0102800302470A126BCB02470A900F8EE0600302470A900F87E0FC
:2046C000FAA3E0FBA3E0FC741F2AFA74003BFB8A828B838CF0128E37FAA80D08741F26FBAA
:2046E00074000836FC0886078B828C838FF0128E37FBC3EB9A500302470AA80D08900F8739
:20470000E6F008E6A3F008E6A3F0900F93E02401F0A80D08E50D240AF9741F26F774000898
:204720003609F708E609F7E50D240AF886820886830886F0128E37FC900F8DE0FBC3EB9C82
:20474000400302474A900F8DECF0E50D240AF886820886830886F0128E37FCEC75F00CA4F8
:204760002418FB740F35F0FC8B828C83A3E50D240DF8E0F6A3E008F6A3E008F6A80D08747B
:204780000326FA74000836FB08860474022AFD74003BFE8C078D828E838FF0E50D240DF820
:2047A000E612890CA308E612890CA308E612890CE50D2407F874052AF674003B08F608A6F3
:2047C00004E50D240DF8E50D2404F9740526F77400083609F708E609F7E50D2404F8868257
:2047E0000886830886F0128E37FDA3128E37FEA3128E37FFE50D2407F886820886830886A9
:20480000F0ED12890CA3EE12890CA3EF12890CE50D2404F886820886830886F0128E37FD26
:20482000A3128E37FEA3128E37FF74022DFD74003EFE8D828E838FF0EA12890CA3EB1289DE
:204840000CA3EC12890CE50D2404F886820886830886F0EA12890CA3EB12890CA3EC12897D
:204860000C740B2AFA74003BFBE50D240AF886820886830886F0128E37FFEF75F00CA42432
:2048800018FE740F35F0FF7D008A828B838CF0EE12890CA3EF12890CA3ED12890CE50D242D
:2048A0000AF886820886830886F0128E37FFEF75F00CA42418FE740F35F0FF8E828F83E0A2
:2048C000FD0D8E828F83EDF0D0E053E080E5E042A8D0E0900F8EE070030248E4900F87E059
:2048E000A3E0A3E0850D81D00D22C00D85810DC082C083C0F0058105817E00C006124A7A65
:20490000D006900F8BE0FAA3E0FBE50D2404F8A60208A603A80D0886820886830886F0126E
:204920008E37FBA3128E37FCE50D24FCF8E62BFD08E63CFF8D02E50D2404F8C3E69B08E62D
:204940009C4003024965C3EA9BEF9C4003024981E50D2404F8C3E69A08E69F4003024981F5
:204960007E01024981C3EA9BEF9C500302497FE50D2404F8C3E69A08E69F40030249817E8D
:2049800001A80D0886820886830886F0EA12890CA3EF12890CEE70030249B9E50D2404F881
:2049A000EAC396FAEF0896FFC0067400C0E08A828F831287941581D006C006124A82E58292
:2049C000D00660030249CEC006120AFCD0068E82850D81D00D22AE82AF837D00EE4F700320
:2049E000024A02C007C006124A7AD006D0077400C0E08E828F831287941581124A82AF8251
:204A00008F05ED6003024A0B120AFC227496C0E0740FC0E07400C0E0C0E0C0E0C0E0C0E0C0
:204A200074A7C0E07400C0E07419C0E07492C0E07480C0E07582C175836B124202AF82E5B9
:204A40008124F4F581BF01028003024A68C2AF900F9474FFF0A3F0900F8E7401F0900F8BF8
:204A60007400F0A3F0120A7E909218E49322C2AF900F8E7400F0120AFB22900F99E024015A
:204A8000F022C00D85810DE5812415F581E50D2410F87400F608F6087600C0E0C0A8C2AF92
:204AA000900F99E014F0E060030250E4900F8AE070030250E4900F66E0700302508D900FD9
:204AC0006CE0FAA3E0FBA3E0FC74082AFA74003BFB8A828B838CF0128E37FAA3128E37FB6D
:204AE000A3128E37FCE50D2410F8A60208A60308A604E50D2410F8741126FA74000836FBA7
:204B0000088604E50D2410F8741C26FD74000836FE0886078D828E838FF0E50D2413F8121B
:204B20008E37F6A3128E3708F6A3128E3708F6E50D2410F8A90D09741326F774000836098E
:204B4000F708E609F7A80D0886820886830886F0128E37FDA3128E37FEA3128E37FFE50D65
:204B60002407F874052DF674003E08F608A607E50D2410F8E50D2404F9741626F7740008BD
:204B80003609F708E609F7E50D2404F886820886830886F0128E37FDA3128E37FEA3128EB9
:204BA00037FFE50D2407F886820886830886F0ED12890CA3EE12890CA3EF12890CE50D24F8
:204BC00004F886820886830886F0128E37FDA3128E37FEA3128E37FFE50D2407F874022DC5
:204BE000F674003E08F608A607A80D0886820886830886F0128E37FDA3128E37FEA3128E77
:204C000037FFE50D2407F886820886830886F0ED12890CA3EE12890CA3EF12890CE50D2497
:204C200013F8E50D2407F9740126F77400083609F708E609F7E50D2407F8868208868308EB
:204C400086F0128E37FDA3128E37FEA3128E37FFC002C003C0048D828E838FF01200791591
:204C6000811581158170028003024CA2E50D2404F886820886830886F0128E37FDA3128EE2
:204C800037FEA3128E37FFE50D2407F886820886830886F0ED12890CA3EE12890CA3EF124A
:204CA000890C740B2AFA74003BFB8A828B838CF0740012890CA312890CA312890CE50D24B7
:204CC00013F886820886830886F0128E37FF1FE50D2413F886820886830886F0EF12890CEF
:204CE000E50D2410F8740326FD74000836FE088607E50D2407F8740B2DF674003E08F60848
:204D0000A607E50D2407F886820886830886F0E50D2413F9128E37F7A3128E3709F7A3121B
:204D20008E3709F7E50D2404F874022DF674003E08F608A607E50D2404F88682088683086B
:204D400086F0128E37FAA3128E37FBA3128E37FCE50D240AF874052AF674003B08F608A615
:204D600004A80D0874052DF674003E08F608A607A80D0886820886830886F0128E37FAA3A9
:204D8000128E37FBA3128E37FCE50D240AF886820886830886F0EA12890CA3EB12890CA3B3
:204DA000EC12890CA80D0886820886830886F0128E37FAA3128E37FBA3128E37FCE50D243A
:204DC0000AF874022AF674003B08F608A604E50D2404F886820886830886F0128E37FAA3BF
:204DE000128E37FBA3128E37FCE50D240AF886820886830886F0EA12890CA3EB12890CA353
:204E0000EC12890CE50D2413F8E50D240AF9740126F77400083609F708E609F7E50D240A73
:204E2000F886820886830886F0128E37FAA3128E37FBA3128E37FCC005C006C0078A828B3E
:204E4000838CF012007915811581158170028003024E87A80D0886820886830886F0128E46
:204E600037FAA3128E37FBA3128E37FCE50D240AF886820886830886F0EA12890CA3EB1236
:204E8000890CA3EC12890CC005C006C007E50D2407F886820886830886F0740012890CA38B
:204EA00012890CA312890CE50D2413F886820886830886F0128E37FC1CE50D2413F8868231
:204EC0000886830886F0EC12890CE50D2410F8E50D240DF9741F26F77400083609F708E626
:204EE00009F7E50D240DF886820886830886F0128E37FC900F8DE0FFC3EF9CD007D006D057
:204F0000054003024F0B900F8DECF0E50D240DF886820886830886F0128E37FCEC75F00C03
:204F2000A42418FB740F35F0FC8B828C83A3E0FAA3E0FBA3E0FCE50D2404F8868208868331
:204F40000886F0EA12890CA3EB12890CA3EC12890CE50D240AF874052AF674003B08F60871
:204F6000A604E50D240AF886820886830886F0128E37FAA3128E37FBA3128E37FCA80D085F
:204F800086820886830886F0EA12890CA3EB12890CA3EC12890CE50D240AF886820886834D
:204FA0000886F0128E37FAA3128E37FBA3128E37FC74022AFA74003BFB8A828B838CF0EDF0
:204FC00012890CA3EE12890CA3EF12890CE50D240AF886820886830886F0ED12890CA3EEE5
:204FE00012890CA3EF12890CE50D240DF886820886830886F0128E37FFEF75F00CA4241809
:20500000FE740F35F0FF7D00E50D2407F886820886830886F0EE12890CA3EF12890CA3ED64
:2050200012890CE50D240DF886820886830886F0128E37FFEF75F00CA42418FE740F35F05B
:20504000FF8E828F83E0FD0D8E828F83EDF0E50D240DF886820886830886F0128E37FF902E
:205060000F87E0FCA3E0FDA3E0FE741F2CFC74003DFD8C828D838EF0128E37FCC3EF9C5047
:2050800003024AB5900F917401F0024AB5E50D2410F8E60846700302509D126C34900F8FE2
:2050A000E0FEA3E0FF8E048F05EE4F70030250E08C068D07C007C006125195E582D006D0D0
:2050C0000770030250CC900F917401F01EBEFF011FEE4F60030250B4900F8F7400F0A3F0DD
:2050E000900F91E0D0E053E080E5E042A8D0E0758200850D81D00D22C0E0C0A8C2AF900FBD
:205100008BE0FEA3E0FFD0E053E080E5E042A8D0E08E828F8322900F8BE0FEA3E0FF8E8204
:205120008F8322900F8AE0FF8F8222AD82AE83AFF0ED4E6003025146900F87E0FAA3E0FB4C
:20514000A3E0FC02514C8D028E038F0474232AFA74003BFB8A828B838CF022AE82AF83C03F
:2051600007C006124A7AD006D007C0E0C0A8C2AF900F8FE0FCA3E0FD900F8FEE2CF0EF3D78
:20518000A3F0D0E053E080E5E042A8D0E0124A82AF828F8222C00D85810DE5812417F58181
:2051A000900F99E060030258A1900F8BE0FEA3E0FFE50D2413F874012EF674003F08F6E59F
:2051C0000D2413F8900F8BE6F008E6A3F0E50D2413F8E60846600302520F900F60E0FBA37A
:2051E000E0FCA3E0FD900F63E0FAA3E0FEA3E0FF900F60EAF0EEA3F0EFA3F0900F63EBF0BB
:20520000ECA3F0EDA3F0900F92E004F0126C34900F94E0FCA3E0FDE50D2413F8C3E69C08DB
:20522000E69D50030258AD900F60E0FBA3E0FCA3E0FD8B828C838DF0128E37600302524B46
:20524000900F9474FFF0A3F00258AD900F60E0FBA3E0FCA3E0FD74042BFB74003CFC740285
:205260002BFB74003CFC8B828C838DF0128E37FBA3128E37FCA3128E37FD74082BFB7400EE
:205280003CFC8B828C838DF0128E37FBA3128E37FCA3128E37FDE50D2410F8A60308A60405
:2052A00008A605E50D2410F8740326FE74000836FA0886078E828A838FF0128E37FEA3121B
:2052C0008E37FFE50D2413F8C3E69E08E69F40030252DE900F94EEF0EFA3F00258ADE50D14
:2052E0002410F8740326FA74000836FE088607E50D2410F8740E26FB74000836FC088605A4
:205300008B828C838DF0E50D2415F8128E37F6A3128E3708F6A3128E3708F6E50D2410F8F6
:20532000A90D09740526F77400083609F708E609F7A80D0886820886830886F0128E37FB52
:20534000A3128E37FCA3128E37FDE50D2407F874052BF674003C08F608A605E50D2410F832
:20536000E50D2404F9740826F77400083609F708E609F7E50D2404F886820886830886F038
:20538000128E37FBA3128E37FCA3128E37FDE50D2407F886820886830886F0EB12890CA36D
:2053A000EC12890CA3ED12890CE50D2404F886820886830886F0128E37FBA3128E37FCA38F
:2053C000128E37FDE50D2407F874022BF674003C08F608A605A80D0886820886830886F098
:2053E000128E37FBA3128E37FCA3128E37FDE50D2407F886820886830886F0EB12890CA30D
:20540000EC12890CA3ED12890CE50D2415F8E50D2407F9740126F77400083609F708E6094E
:20542000F7E50D2407F886820886830886F0128E37FBA3128E37FCA3128E37FDC002C00682
:20544000C0078B828C838DF01200791581158115817002800302548EE50D2404F8868208A4
:2054600086830886F0128E37FBA3128E37FCA3128E37FDE50D2407F886820886830886F03A
:20548000EB12890CA3EC12890CA3ED12890CE50D240AF8740B2AF674003E08F608A607E50C
:2054A0000D240AF886820886830886F0740012890CA312890CA312890CC002C006C007E53F
:2054C0000D2415F886820886830886F0128E37FF1FE50D2415F886820886830886F0EF1247
:2054E000890CE50D2410F8E50D2407F9741126F77400083609F708E609F7E50D2407F8E5A7
:205500000D2404F9740B26F77400083609F708E609F7E50D2404F886820886830886F01266
:205520008E37FBA3128E37FCA3128E37FDD007D006D002EB4C70030256E9C002C006C00705
:20554000E50D2415F8A60308A60408A605E50D2407F8740226FA74000836FE0886078A821E
:205560008E838FF0128E37FBA3128E37FCA3128E37FDE50D240DF874052BF674003C08F679
:2055800008A605E50D2407F8A90D09740526F77400083609F708E609F7A80D0886820886FB
:2055A000830886F0128E37FBA3128E37FCA3128E37FDE50D240DF886820886830886F0EB8E
:2055C00012890CA3EC12890CA3ED12890CA80D0886820886830886F0128E37FBA3128E3717
:2055E000FCA3128E37FD74022BFB74003CFC8A828E838FF0128E37FAA3128E37FEA3128EC8
:2056000037FF8B828C838DF0EA12890CA3EE12890CA3EF12890CE50D2415F8E50D240DF97A
:20562000740126F77400083609F708E609F7E50D240DF886820886830886F0128E37FDA30F
:20564000128E37FEA3128E37FFE50D2407F8C005C006C00786820886830886F0120079155E
:20566000811581158170028009D007D006D0020256ACD007D006D002A80D088682088683AA
:205680000886F0128E37FBA3128E37FCA3128E37FDE50D240DF886820886830886F0EB121E
:2056A000890CA3EC12890CA3ED12890CE50D2404F886820886830886F0740012890CA3126F
:2056C000890CA312890CE50D2415F886820886830886F0128E37FD1DE50D2415F88682080D
:2056E00086830886F0ED12890CC002C006C007E50D2410F8E50D2407F9741F26F7740008E0
:205700003609F708E609F7E50D2407F886820886830886F0128E37FD900F8DE0FFC3EF9D8B
:20572000D007D006D0024003025730900F8DEDF0E50D2407F886820886830886F0128E3792
:20574000FDED75F00CA42418FC740F35F0FD8C828D83A3E50D2415F8E0F6A3E008F6A3E0AF
:2057600008F674022AFB74003EFC8F058B828C838DF0E50D2415F8E612890CA308E61289D9
:205780000CA308E612890CE50D240DF874052AF674003E08F608A607E50D2415F8E50D2473
:2057A00004F9740526F77400083609F708E609F7E50D2404F886820886830886F0128E3736
:2057C000FBA3128E37FCA3128E37FDE50D240DF886820886830886F0EB12890CA3EC128973
:2057E0000CA3ED12890CE50D2404F886820886830886F0128E37FBA3128E37FCA3128E37FB
:20580000FD74022BFB74003CFC8B828C838DF0EA12890CA3EE12890CA3EF12890CE50D2492
:2058200004F886820886830886F0EA12890CA3EE12890CA3EF12890CE50D2407F8868208AE
:2058400086830886F0128E37FFEF75F00CA42418FE740F35F0FF7D00E50D240AF886820861
:2058600086830886F0EE12890CA3EF12890CA3ED12890CE50D2407F886820886830886F0F0
:20588000128E37FFEF75F00CA42418FE740F35F0FF8E828F83E0FD0D8E828F83EDF00252EE
:2058A00027900F8FE02401F0A3E03400F0758200850D81D00D22C00D85810DE581240AF585
:2058C00081900F99E070030258D3900F917401F0025A43900F917400F0900F8DE0FFEF7558
:2058E000F00CA4FDAEF0ED2418FBEE340FFC8B828C83E060030258FC1F0258DEE50D2407F3
:20590000F8A607ED2418FDEE340FFEE50D2408F8A60508A606087600E50D2408F8740126E9
:20592000FA74000836FB0886078A828B838FF0128E37FCA3128E37FDA3128E37FE74022C2E
:20594000FC74003DFD8C828D838EF0128E37FCA3128E37FDA3128E37FE8A828B838FF0ECBA
:2059600012890CA3ED12890CA3EE12890C8A828B838FF0E50D2404F8128E37F6A3128E371F
:2059800008F6A3128E3708F6A80D08A60408A60508A606E50D2408F8740426FC7400083661
:2059A000FD088606A80D08C004C005C00686820886830886F01200791581158115817002F4
:2059C00080030259FEE50D2404F8740226FC74000836FD0886068C828D838EF0128E37FC8F
:2059E000A3128E37FDA3128E37FE8A828B838FF0EC12890CA3ED12890CA3EE12890C8A8211
:205A00008B838FF0128E37FAA3128E37FBA3128E37FF74082AFA74003BFB8A828B838FF057
:205A2000128E37FAA3128E37FBA3128E37FF900F87EAF0EBA3F0EFA3F0E50D2407F8900FF3
:205A40008DE6F0850D81D00D22C00D85810DAD82AE83AFF0900F87E0FAA3E0FBA3E0FC7481
:205A6000112AFA74003BFBC002C003C0048D828E838FF01220C71581158115817401C0E08F
:205A8000E50D24FCF886820886831287941581D00D22C00D85810DE5812406F581C8E50D81
:205AA0002404C8A68208A68308A6F0900F87E0FAA3E0FBA3E0FC74112AFA74003BFBE50DBD
:205AC00024FCF886060886074307808A828B838CF0EE12890CA3EF12890CE50D2404F874D9
:205AE0000126FD74000836FE0886078D828E838FF0128E37FDA3128E37FEA3128E37FF9049
:205B00000F87E0FAA3E0FBA3E0FC74112AFA74003BFB74022AFA74003BFB8A828B838CF0EB
:205B2000ED12890CA3EE12890CA3EF12890C900F87E0FAA3E0FBA3E0FC74112AFA74003B0B
:205B4000FBA80D0874052AF674003B08F608A60474052DFD74003EFE8D828E838FF0128E03
:205B600037FAA3128E37FBA3128E37FCA80D0886820886830886F0EA12890CA3EB12890CEF
:205B8000A3EC12890C8D828E838FF0128E37FAA3128E37FBA3128E37FCA80D0874022AF621
:205BA00074003B08F608A604900F87E0FAA3E0FBA3E0FC74112AFA74003BFBA80D08868271
:205BC0000886830886F0EA12890CA3EB12890CA3EC12890C900F87E0FAA3E0FBA3E0FC74C9
:205BE000112AFA74003BFB8D828E838FF0EA12890CA3EB12890CA3EC12890C900F87E0FD28
:205C0000A3E0FEA3E0FF74112DFD74003EFE740B2DFD74003EFE8D828E838FF0E50D240410
:205C2000F8E612890CA308E612890CA308E612890CE50D2404F886820886830886F0128E26
:205C400037FF0FE50D2404F886820886830886F0EF12890C7401C0E0E50D24FAF886820893
:205C600086831287941581850D81D00D22C00D85810DE5812419F581AD82AE83AFF07404D6
:205C80002DFD74003EFE74022DFD74003EFE8D828E838FF0128E37FDA3128E37FEA3128EAC
:205CA00037FF74082DFD74003EFE8D828E838FF0128E37FDA3128E37FEA3128E37FFE50D02
:205CC0002414F8A60508A60608A607E50D2414F8741126FA74000836FB088604E50D241450
:205CE000F8741C26FD74000836FE0886078D828E838FF0E50D2417F8128E37F6A3128E37A9
:205D000008F6A3128E3708F6E50D2414F8E50D2404F9741326F77400083609F708E609F794
:205D2000E50D2404F886820886830886F0128E37FDA3128E37FEA3128E37FFA80D087405BF
:205D40002DF674003E08F608A607E50D2414F8E50D2407F9741626F77400083609F708E63C
:205D600009F7E50D2407F886820886830886F0128E37FDA3128E37FEA3128E37FFA80D08F5
:205D800086820886830886F0ED12890CA3EE12890CA3EF12890CE50D2407F8868208868339
:205DA0000886F0128E37FDA3128E37FEA3128E37FFA80D0874022DF674003E08F608A607E5
:205DC000E50D2404F886820886830886F0128E37FDA3128E37FEA3128E37FFA80D08868290
:205DE0000886830886F0ED12890CA3EE12890CA3EF12890CE50D2417F8A90D09740126F799
:205E00007400083609F708E609F7A80D0886820886830886F0128E37FDA3128E37FEA3128D
:205E20008E37FFC002C003C0048D828E838FF012007915811581158170028003025E73E5BC
:205E40000D2407F886820886830886F0128E37FDA3128E37FEA3128E37FFA80D08868208E9
:205E600086830886F0ED12890CA3EE12890CA3EF12890CE50D240DF8740B2AF674003B0825
:205E8000F608A604E50D240DF886820886830886F0740012890CA312890CA312890CC00237
:205EA000C003C004E50D2417F886820886830886F0128E37FC1CE50D2417F8868208868372
:205EC0000886F0EC12890C900F99E0D004D003D00260030262C3E50D2414F8740326FC7467
:205EE000000836FB088602E50D2407F8740B2CF674003B08F608A602E50D2407F8868208A1
:205F000086830886F0128E37FFA3128E37FEA3128E37FDE50D2404F874022CF674003B08D4
:205F2000F608A602E50D2404F886820886830886F0E50D2411F9128E37F7A3128E3709F7AA
:205F4000A3128E3709F7E50D2411F8740526F674000836F6E50D240AF874052CF674003B09
:205F600008F608A602E50D240AF886820886830886F0E50D240DF9128E37F7A3128E370957
:205F8000F7A3128E3709F7E50D2411F886820886830886F0E50D240DF9E712890CA309E79D
:205FA00012890CA309E712890CE50D240AF886820886830886F0E50D240DF9128E37F7A3C4
:205FC000128E3709F7A3128E3709F7E50D240DF8740226F674000836F6E50D2404F8868201
:205FE0000886830886F0E50D2411F9128E37F7A3128E3709F7A3128E3709F7E50D240DF815
:2060000086820886830886F0E50D2411F9E712890CA309E712890CA309E712890CE50D24B1
:206020000DF874012FF674003E08F608A605E50D240DF886820886830886F0E50D2411F98C
:20604000128E37F7A3128E3709F7A3128E3709F7E50D2411F8C004C003C0028682088683FD
:206060000886F0120079158115811581700280030260B7E50D240AF886820886830886F098
:20608000E50D2411F9128E37F7A3128E3709F7A3128E3709F7E50D240DF8868208868308E2
:2060A00086F0E50D2411F9E712890CA309E712890CA309E712890CE50D2407F8868208869D
:2060C000830886F0740012890CA312890CA312890C8F828E838DF0E50D240DF8128E37F689
:2060E000E50D240DF8E50D240DF9E614F78F828E838DF0E50D240DF8E612890CE50D241407
:20610000F8741F26FF74000836FE0886058F828E838DF0E50D2411F8128E37F6900F8DE5F0
:206120000D2410F8E0F6E50D2411F8E50D2410F9C3E7964003026142E50D2411F8900F8D9F
:20614000E6F08F828E838DF0E50D2410F8128E37F6E50D2410F8E675F00CA4C8E50D2411D7
:20616000C82418F6740F35F008F6E50D2411F88682088683A3E50D2417F8E0F6A3E008F628
:20618000A3E008F6E50D2404F886820886830886F0E50D2417F9E712890CA309E712890CE7
:2061A000A309E712890CE50D2417F8E50D2411F9740526F77400083609F708E609F7E50D38
:2061C0002411F886820886830886F0E50D2404F9128E37F7A3128E3709F7A3128E3709F726
:2061E000E50D240AF886820886830886F0E50D2404F9E712890CA309E712890CA309E71270
:20620000890CE50D2411F886820886830886F0E50D240AF9128E37F7A3128E3709F7A3121D
:206220008E3709F7E50D240AF8740226F674000836F6E50D240AF886820886830886F0ECAC
:2062400012890CA3EB12890CA3EA12890CE50D2411F886820886830886F0EC12890CA3EB57
:2062600012890CA3EA12890C8F828E838DF0128E37FCEC75F00CA42418FC740F35F0FB7A7B
:2062800000E50D2407F886820886830886F0EC12890CA3EB12890CA3EA12890C8F828E8334
:2062A0008DF0128E37FFEF75F00CA42418FF740F35F0FE8F828E83E0FD0D8F828E83EDF09B
:2062C0000263D4900F67E50D2417F8E0F6A3E008F6A3E008F674022AFD74003BFE8C078D18
:2062E000828E838FF0E50D2417F8E612890CA308E612890CA308E612890CE50D240AF874DE
:20630000052AF674003B08F608A604E50D2417F8E50D2411F9740526F77400083609F70864
:20632000E609F7E50D2411F886820886830886F0128E37FDA3128E37FEA3128E37FFE50D0A
:20634000240AF886820886830886F0ED12890CA3EE12890CA3EF12890CE50D2411F8868254
:206360000886830886F0128E37FDA3128E37FEA3128E37FF74022DFD74003EFE8D828E8359
:206380008FF0EA12890CA3EB12890CA3EC12890CE50D2411F886820886830886F0EA128947
:2063A0000CA3EB12890CA3EC12890CE50D240DF886820886830886F0746612890CA3740F0D
:2063C00012890CA3740012890C900F66E0FF0F900F66EFF0E50D2414F8741F26FD7400082D
:2063E00036FE0886078D828E838FF0128E37FD900F87E0FCA3E0FEA3E0FF741F2CFC74002D
:206400003EFE8C828E838FF0128E37FCC3EC9D400302641E7F01900F91EFF00264207F0028
:206420008F82850D81D00D22C00D85810DC082C083C0F0E5812415F581E50D24FCF886037C
:20644000088604430480A80D0886820886830886F0EB12890CA3EC12890CA80D0874082668
:20646000FA74000836FB0886048A828B838CF0128E37FAA3128E37FBA3128E37FCE50D247B
:2064800013F8A60208A60308A604A80D08740B26FA74000836FB0886048A828B838CF0E5D0
:2064A0000D2416F8128E37F6A3128E3708F6A3128E3708F6A80D08E50D240DF9740226F774
:2064C0007400083609F708E609F7E50D240DF886820886830886F0128E37FDA3128E37FE1E
:2064E000A3128E37FFE50D240AF874052DF674003E08F608A607A80D08E50D2404F97405C1
:2065000026F77400083609F708E609F7E50D2404F886820886830886F0128E37FDA3128EFE
:2065200037FEA3128E37FFE50D240AF886820886830886F0ED12890CA3EE12890CA3EF128E
:20654000890CE50D2404F886820886830886F0128E37FDA3128E37FEA3128E37FFE50D2422
:206560000AF874022DF674003E08F608A607E50D240DF886820886830886F0128E37FDA3F2
:20658000128E37FEA3128E37FFE50D240AF886820886830886F0ED12890CA3EE12890CA38F
:2065A000EF12890CE50D2416F8E50D240AF9740126F77400083609F708E609F7E50D240AB6
:2065C000F886820886830886F0128E37FDA3128E37FEA3128E37FFA80D08C005C006C00758
:2065E00086820886830886F01200791581158115817002800302662EE50D2404F88682080A
:2066000086830886F0128E37FDA3128E37FEA3128E37FFE50D240AF886820886830886F07F
:20662000ED12890CA3EE12890CA3EF12890C8A828B838CF0740012890CA312890CA312891C
:206640000CE50D2416F886820886830886F0128E37FF1FE50D2416F886820886830886F0C3
:20666000EF12890CE50D2413F8740326FD74000836FE088607E50D240AF8740B2DF6740056
:206680003E08F608A607E50D240AF886820886830886F0E50D2416F9128E37F7A3128E37ED
:2066A00009F7A3128E3709F7E50D2404F874022DF674003E08F608A607E50D2404F8868236
:2066C0000886830886F0128E37FAA3128E37FBA3128E37FCE50D2407F874052AF674003B12
:2066E00008F608A604E50D240DF874052DF674003E08F608A607E50D240DF886820886839A
:206700000886F0128E37FAA3128E37FBA3128E37FCE50D2407F886820886830886F0EA1297
:20672000890CA3EB12890CA3EC12890CE50D240DF886820886830886F0128E37FAA3128E93
:2067400037FBA3128E37FCE50D2407F874022AF674003B08F608A604E50D2404F886820865
:2067600086830886F0128E37FAA3128E37FBA3128E37FCE50D2407F886820886830886F02A
:20678000EA12890CA3EB12890CA3EC12890CE50D2416F8E50D2407F9740126F7740008367F
:2067A00009F708E609F7E50D2407F886820886830886F0128E37FAA3128E37FBA3128E377F
:2067C000FCC005C006C0078A828B838CF012007915811581158170028003026813E50D2400
:2067E0000DF886820886830886F0128E37FAA3128E37FBA3128E37FCE50D2407F88682081C
:2068000086830886F0EA12890CA3EB12890CA3EC12890CC005C006C007E50D240AF8868283
:206820000886830886F0740012890CA312890CA312890CE50D2416F886820886830886F05F
:20684000128E37FC1CE50D2416F886820886830886F0EC12890CE50D2413F8E50D2410F9BB
:20686000741F26F77400083609F708E609F7E50D2410F886820886830886F0128E37FC90B0
:206880000F8DE0FFC3EF9CD007D006D0054003026897900F8DECF0E50D2410F886820886AD
:2068A000830886F0128E37FCEC75F00CA42418FB740F35F0FC8B828C83A3E0FAA3E0FBA36E
:2068C000E0FCE50D2404F886820886830886F0EA12890CA3EB12890CA3EC12890CE50D2421
:2068E00007F874052AF674003B08F608A604E50D2407F886820886830886F0128E37FAA381
:20690000128E37FBA3128E37FCE50D240DF886820886830886F0EA12890CA3EB12890CA314
:20692000EC12890CE50D2407F886820886830886F0128E37FAA3128E37FBA3128E37FC74E8
