:200000000200BF32FFFFFFFFFFFFFF32FFFFFFFFFFFFFF32FFFFFFFFFFFFFF32FFFFFFFF70
:20002000FFFFFF32FFFFFFFFFFFFFF32FFFFFFFFFFFFFF32FFFFFFFFFFFFFF32FFFFFFFF14
:20004000FFFFFF32FFFFFFFFFFFFFF32FFFFFFFFFFFFFF020317FFFFFFFFFF32FFFFFFFF08
:20006000FFFFFF32FFFFFFFFFFFFFF32FFFFFFFFFFFFFF020E02FFFFFFFFFF32FFFFFFFFF2
:20008000FFFFFF32FFFFFFFFFFFFFF0210710203DFE58124FCC3C8C0E0C082E60846700634
:2000A000E5824583601218E58296F58208E58396428208E5F0964582D082C8D0E0C82275E6
:2000C0008120129774E582600302008E792AE94400601B7A01909840788275A00FE493F253
:2000E000A308B8000205A0D9F4DAF275A0FFE478FFF6D8FD7800E84400600A790175A00086
:20010000E4F309D8FC7881E8440F600C7910900001E4F0A3D8FCD9FA90001A7400F0A3F0B2
:2001200090001CF0A3F090001EF0A3F0900020F0A3F0900F257400F0A3F0A3F002008E75D9
:2001400096295397FEE5EA75EA0075F80022C00D85810DAF82C007124FA9D007E50D24FD6F
:20016000F8E660030201BEC374079F5003020212EF240A83F582EF240C83F583E4738E948D
:200180009AA0A6ACB2B8010101010101010143F80102021243F80202021243F80402021267
:2001A00043F80802021243F81002021243F82002021243F84002021243F880020212C3747B
:2001C000079F5003020212EF240A83F582EF240C83F583E473E5EBF1F7FD03090F010101B5
:2001E000010102020253F8FE02021253F8FD02021253F8FB02021253F8F702021253F8EF4C
:2002000002021253F8DF02021253F8BF02021253F87F124FB1D00D22AF827E007D00C0079A
:20022000C006C005124FA9D005D006D007C374079F500302027CEF240A83F582EF240C833E
:20024000F583E47354595E63686D727702020202020202027E0102027E7E0202027E7E040E
:2002600002027E7E0802027E7E1002027E7E2002027E7E4002027E7E8002027E7D01BD01C8
:2002800003020298EE55F87003020295EEF4FFEF52F8020298EE42F8124FB122AF96C0E081
:2002A000C0A8C2AF75960090000F7400F0900010F0C2AF43F60853F1F775965075970275FC
:2002C000961B43971075961B4397207596275397FE43EE107596275397FD43EE207596345F
:2002E0005397EF43971075E3C175E80043E50143E50243E50453E5F743E51043E608D2AF2D
:20030000D0E053E080E5E042A8D0E08F9675820075830075F00022C0E0C0F0C082C083C0EB
:2003200007C006C001C000C0D075D000AF96C0E0C0A8C2AF53F1F7E5E820E1030203425336
:20034000E8FDE5E820E00302034F53E8FEE5E4E5E8E5E820E503020389900010E0FEEE24D2
:2003600009F58274003400F583E0F5E490000FE02401F0E0FEBE0800500302038390000F72
:200380007400F043E5040203BBE5E820E3030203BB90000FE0FEEE2401F58274003400F5D6
:2003A00083E5E4F090000FE02401F0E0FEBE080050030203BB90000F7400F043E504D0E0D7
:2003C00053E080E5E042A8D0E08F96D0D0D000D001D006D007D083D082D0F0D0E03222127D
:2003E00004FD12013F758201121F777582001221677404C0E07400C0E074C2C0E07401C042
:20040000E07400C0E0758202121CE0E58124FBF5817405C0E07582021220CF158175820244
:2004200012132E7400C0E0C0E0C0E0C0E074CDC0E074ABC0E07400C0E074A7C0E07400C0D2
:20044000E07478C0E07497C0E07480C0E075822E7583091246F2E58124F4F5817400C0E079
:20046000C0E0C0E0C0E0C0E0C0E0C0E074A7C0E07400C0E07480C0E07497C0E07480C0E01A
:200480007582E47583051246F2E58124F4F5817400C0E0C0E0C0E0C0E0C0E0C0E0C0E074FE
:2004A000A7C0E07400C0E07480C0E07497C0E07480C0E07582867583071246F2E58124F4CA
:2004C000F5817400C0E0C0E0C0E07403C0E07400C0E0C0E0C0E074A7C0E07400C0E074851F
:2004E000C0E07497C0E07480C0E07582707583051246F2E58124F4F581124F3B2275962D85
:200500005397DFC2AF53F67F53F17F75AEEF75920075910743E680D2AF53F7FE53D8FE1243
:20052000052322C00D85810D0581058153ADF143AD0853ADFEA80D087610087627A80D08F9
:200540008606088607A80D08EE24FFF6EF34FF08F6EE4F600302053D850D81D00D22E5D8E3
:2005600020E00302056C53D8FE02056F43D801227F00900F82E0600302058E7591077582AC
:2005800096758300C007124F05D00702059B758205758300C007124F05D007C0071222E153
:2005A000AE82D007BE01030205AC7F01C007121CBAD007C007121F5ED007C0071219AAAE42
:2005C00082D007BE01030205CB7F01BF010280030205D9900F827401F0C00712055ED007F0
:2005E00002057222C00D85810DE581240CF581A80D08762B08765208769A0876C4E50D24D6
:2006000005F876DD08769A087612087645E50D2405F8E6C0E008E6C0E008E6C0E008E6C0BC
:20062000E0A80D0886820886830886F008E6128FDBAC82AD83AEF0FFE58124FCF581E50D33
:200640002409F8A60408A60508A60608A607E50D2409F8E6C0E008E6C0E008E6C0E008E608
:20066000C0E07582CD7583E475F08A7444128F0DAF82E58124FCF581EF60030206AE749AA2
:20068000C0E074E1C0E0748AC0E07444C0E0E50D2409F886820886830886F008E6128F0D85
:2006A000AF82E58124FCF581EF70030206C5C0E0C0A8C2AF900F827401F0D0E053E080E597
:2006C000E042A8D0E0E50D2405F8E6C0E008E6C0E008E6C0E008E6C0E0A80D08868208860A
:2006E000830886F008E612941CAC82AD83AEF0FFE58124FCF581E50D2409F8A60408A605DE
:2007000008A60608A607E50D2409F8E6C0E008E6C0E008E6C0E008E6C0E075825C75838F4F
:2007200075F00274BF128F0DAF82E58124FCF581EF60030207667414C0E074AEC0E074071E
:20074000C0E074BFC0E0E50D2409F886820886830886F008E6128F0DAF82E58124FCF581AF
:20076000EF70030205EFC0E0C0A8C2AF900F827401F0D0E053E080E5E042A8D0E00205EF6A
:20078000850D81D00D22C00D85810DE581240CF581A80D0876450876D20876400876C6E5AC
:2007A0000D2409F8765C0876350876B7087646E50D2409F8E6C0E008E6C0E008E6C0E008C8
:2007C000E6C0E0A80D0886820886830886F008E6128FDBAC82AD83AEF0FFE58124FCF581DE
:2007E000E50D2405F8A60408A60508A60608A607E50D2405F8E6C0E008E6C0E008E6C0E06B
:2008000008E6C0E075829A75839875F02D7446128F0DAF82E58124FCF581EF600302085056
:200820007433C0E07498C0E0742DC0E07446C0E0E50D2405F886820886830886F008E61280
:200840008F0DAF82E58124FCF581EF7003020867C0E0C0A8C2AF900F827401F0D0E053E01A
:2008600080E5E042A8D0E0E50D2409F8860408860508860608E6B2E7FFC004C005C006C03C
:2008800007A80D0886820886830886F008E612941CAC82AD83AEF0FFE58124FCF581E50D64
:2008A0002405F8A60408A60508A60608A607E50D2405F8E6C0E008E6C0E008E6C0E008E6AE
:2008C000C0E07582147583AE75F007743F128F0DAF82E58124FCF581EF600302090E745C92
:2008E000C0E0748FC0E07402C0E0743FC0E0E50D2405F886820886830886F008E6128F0D06
:20090000AF82E58124FCF581EF7003020791C0E0C0A8C2AF900F827401F0D0E053E080E567
:20092000E042A8D0E0020791850D81D00D227420B5810302094DC0E0C0A8C2AF900F82745E
:2009400001F0D0E053E080E5E042A8D0E08500E0E5E0700302096EC0E0C0A8C2AF900F8234
:200960007401F0D0E053E080E5E042A8D0E08501E07401B5E003020990C0E0C0A8C2AF9039
:200980000F827401F0D0E053E080E5E042A8D0E08502E07402B5E0030209B2C0E0C0A8C2A3
:2009A000AF900F827401F0D0E053E080E5E042A8D0E08503E07403B5E0030209D4C0E0C08A
:2009C000A8C2AF900F827401F0D0E053E080E5E042A8D0E08504E07404B5E0030209F6C07C
:2009E000E0C0A8C2AF900F827401F0D0E053E080E5E042A8D0E08505E07405B5E003020A6F
:200A000018C0E0C0A8C2AF900F827401F0D0E053E080E5E042A8D0E08506E07406B5E00380
:200A2000020A3AC0E0C0A8C2AF900F827401F0D0E053E080E5E042A8D0E08507E07407B513
:200A4000E003020A5CC0E0C0A8C2AF900F827401F0D0E053E080E5E042A8D0E074CDB58212
:200A600003020A7BC0E0C0A8C2AF900F827401F0D0E053E080E5E042A8D0E074ABB58303D1
:200A8000020A9AC0E0C0A8C2AF900F827401F0D0E053E080E5E042A8D0E0E5F002092E22BF
:200AA000C00D85810DE581240EF581AD82AE83AFF0E50D240CF8A60508A60608A607E50D29
:200AC0002409F874012DF674003E08F608A607E50D24FCF886020886037C807F008A06E5E1
:200AE0000D2409F886820886830886F0EE128EF2E50D2405F8A60308A60408A6070876000C
:200B0000E50D2409F8740126FD74000836FE088607E50D2405F886028D828E838FF0EA12AB
:200B20008EF20DBD00010E8D828E838FF074AA128EF20DBD00010E8D828E838FF07480128F
:200B40008EF2E50D2405F874012DF674003E08F608A607E50D24F9F8860208860308860453
:200B60007F008A06E50D2405F886820886830886F0EE128EF2A80D08A60308A60408A6076F
:200B8000087600E50D2405F8740126FD74000836FE088607A80D0886028D828E838FF0EA19
:200BA000128EF2A80D0808E618F60808E618F60808E618F60876000DBD00010EA80D088648
:200BC000028D828E838FF0EA128EF20DBD00010E8D828E838FF07402128EF20DBD00010E9F
:200BE0008D828E838FF07403128EF20DBD00010E8D828E838FF07404128EF20DBD00010EF2
:200C00008D828E838FF07405128EF20DBD00010E8D828E838FF07406128EF20DBD00010ECD
:200C20008D828E838FF07407128EF20DBD00010E8D828E838FF07400128EF20DBD00010EB1
:200C40008D828E838FF07401128EF20DBD00010E8D828E838FF07400128EF20DBD00010E97
:200C60008D828E838FF074BB128EF2E50D240CF88602EDC39AFDE50D240CF88682088683F8
:200C80000886F0ED128EF2E50D240CF886820886830886F0850D81D00D22120EFC7596006D
:200CA000900F99E0FDA3E0FEA3E0FF8D828E838FF01294DFF509A31294DFF50A750B2085AE
:200CC0000982850A83E0F5080509E4B50902050A050BA90B850982850A83E0FFA707150849
:200CE000E5086003020CC8850B81D00DD0D0D001D000D007D006D005D004D003D002D0F0E4
:200D0000D083D082D0E020E705C2AF020D10D2AFD0E0327582012222C0E0C0A8C2AFC08288
:200D2000C083C0F0C002C003C004C005C006C007C000C001C0D075D000C00D900F99E0FDED
:200D4000A3E0FEA3E0FF8D828E838FF01294DFF509A31294DFF50A750B21AF81EF24E0F58E
:200D600008850982850A83E508F0E5087003020D8C0509E4B50902050A850982850A83A9E5
:200D80000B8707EFF0050B1508020D6A125E71900F99E0FDA3E0FEA3E0FF8D828E838FF09D
:200DA0001294DFF509A31294DFF50A750B20850982850A83E0F5080509E4B50902050A0524
:200DC0000BA90B850982850A83E0FFA7071508E5086003020DB7850B81D00DD0D0D001D043
:200DE00000D007D006D005D004D003D002D0F0D083D082D0E020E705C2AF020DFFD2AFD007
:200E0000E032C0E0C0A8C2AFC082C083C0F0C002C003C004C005C006C007C000C001C0D066
:200E200075D000C00D900F99E0FDA3E0FEA3E0FF8D828E838FF01294DFF509A31294DFF549
:200E40000A750B21AF81EF24E0F508850982850A83E508F0E5087003020E760509E4B50932
:200E600002050A850982850A83A90B8707EFF0050B1508020E541256BBE5827003020E83FD
:200E8000125E7153F17F53AEF7900F99E0FDA3E0FEA3E0FF8D828E838FF01294DFF509A3D9
:200EA0001294DFF50A750B20850982850A83E0F5080509E4B50902050A050BA90B8509827A
:200EC000850A83E0FFA7071508E5086003020EB1850B81D00DD0D0D001D000D007D006D099
:200EE00005D004D003D002D0F0D083D082D0E020E705C2AF020EF9D2AFD0E032AF96759626
:200F000000C2AF43F68053F17F53AEF75393FE7594017595475393F75393FD43930275960A
:200F20002D5397EF4397105393FB85939343E6804393018F9622C00D85810DC082C083C049
:200F4000F0C0E00581C0E0C0A8C2AFE50D2405F8A696759600750C017400C0E004C0E0E589
:200F60000D24FDF88682122D84AA82AB83AFF015811581900011EAF0EBA3F0EFA3F074006C
:200F8000C0E004C0E0E50D24FDF88682122D84AD82AE83AFF015811581900014EDF0EEA3FA
:200FA000F0EFA3F0C2AF43F40453E1FB75963453979F43972075961B43971075961B439712
:200FC000207596275397FE43EE107596275397FD53EEDFA80D080808860608E6C454F0CE40
:200FE000C4CE6ECE54F0CE6EFF1818E6C4540F4EFE18860408E6C454F0CCC4CC6CCC54F0AB
:20100000CC6CFDC004C005C006C00775820075833675F06E740112923CAC82AD83AEF0FF3D
:20102000E58124FCF5818CDC8D0474035CF5DE43DE0843DE0443DD4053DDEF43DD2053DDD8
:20104000FB43DD0853DDFD43DD0153DFE743E704E50D2405F88696D0E053E080E5E042A897
:20106000D0E075820075830075F000850D81D00D22C020C0E0C0F0C082C083C007C006C058
:2010800005C004C003C002C001C000C0D075D000C00D85810DE5812405F581E50D2404F8B5
:2010A0007600C0E0C0A8C2AF53E1FBE5DF20E303021108E50D2405F8A6E275DF17E50D2411
:2010C00004FF7E007D40E50D2405FCA80D08A604087600087640900011E0FAA3E0FBA3E09C
:2010E000FC7400C0E0C007C006C005A80D08E6C0E008E6C0E008E6C0E08A828B838CF01287
:20110000322EE58124F9F581E5DF20E00302111375DF1EE5DF20E10302111E75DF1DE5DFE9
:2011200020E20302112975DF1BE5DF20E40302119275DF0FE50D2404FF7E007D40E50D24C2
:2011400005FCA80D08A604087600087640900014E0FAA3E0FBA3E0FCC007C006C005A80D69
:2011600008E6C0E008E6C0E008E6C0E08A828B838CF0123D3CAF82E58124FAF581BF0102B7
:20118000800302118FE50D2405F886E2021192750C01E50D2404F8E670030211A0120D1833
:2011A000D0E053E080E5E042A8D0E0850D81D00DD0D0D000D001D002D003D004D005D00618
:2011C000D007D083D082D0F0D0E0D02032C00D85810DE50D24FBF8860508860608860790D4
:2011E0000011E0FAA3E0FBA3E0FCE50D24F9F8E6C0E008E6C0E0C005C006C0078A828B8380
:201200008CF01234BEAF82E58124FBF581EF700302121975820102121C758200D00D22C0B5
:201220000D85810DC0E0C0A8C2AF7401B50C028003021246E50D24FDF886E2750C0075DFB8
:201240000F7F0102128DE50D24FDFE8E077D007C40900014E0FAA3E0FBA3E0FE7400C0E0EE
:20126000E50D24FBF8E6C0E008E6C0E0C007C005C0048A828B838EF0122F2FAE82E581243F
:20128000FAF5818E07EE600302128D7F01D0E053E080E5E042A8D0E08F82D00D222274006F
:2012A000C0E07403C0E0758214122D84AD82AE83AFF015811581900017EDF0EEA3F0EFA3E7
:2012C000F02222C00D85810DC082C083058105810581E50D2403FD7C007B40900017E0FA15
:2012E000A3E0FEA3E0FFA80D08E6C0E008E6C0E0C005C004C0038A828E838FF01234BEAF7F
:2013000082E58124FBF581BF0102800302131FE50D2403F886820886830886F0021328757D
:20132000820075830075F000850D81D00D22C00D85810DC082E5812406F58175820875839D
:20134000001229A3AC82AD83AEF0E50D2405F8A60408A60508A606E50D2405F8E6084670D8
:20136000030214F17403C0E07400C0E0758201122D84AA82AB83AFF015811581E50D24053D
:20138000F886820886830886F0EA128EF2A3EB128EF2A3EF128EF2E50D2405F88682088655
:2013A000830886F01294DFFEA31294DFFDA31294DFFCEA4B70030213D67400C0E0C0E0C059
:2013C000E0C0E0C0E0C0E08E828D838CF0122F2FE58124FAF581E50D2405F886820886831B
:2013E0000886F01294DFFAA31294DFFBA31294DFFFEA4B70030214F1E50D2405F874032647
:20140000FA74000836FB088607758204758300C007C003C0021229A3AC82AD83AEF0D002A5
:20142000D003D0078A828B838FF0EC128EF2A3ED128EF2A3EE128EF28C828D838EF074FF97
:20144000128EF2A37400128EF2A3128EF2A3128EF2E50D2405F8740626FD74000836FE087F
:2014600086078D828E838FF07400128EF2A3128EF2E50D2405F886040886050886067400CD
:20148000C0E0C0E0C0E0C0E0C004C005C00674A7C0E07400C0E07491C0E07497C0E074806A
:2014A000C0E07582AE7583161246F2E58124F4F581E50D2405F88604088605088606740063
:2014C000C0E0C0E0C0E0C0E0C004C005C00674A7C0E07400C0E07499C0E07497C0E0748022
:2014E000C0E07582AE7583161246F2E58124F4F5817582087583001229A3AD82AE83AFF087
:20150000A80D0808A60508A60608A607A80D0808E6084670030216A87403C0E07400C0E09B
:20152000758201122D84AA82AB83ACF015811581A80D080886820886830886F0EA128EF2F6
:20154000A3EB128EF2A3EC128EF2A80D080886820886830886F01294DFFFA31294DFFEA3A1
:201560001294DFFDEA4B70030215887400C0E0C0E0C0E0C0E0C0E0C0E08F828E838DF012BD
:201580002F2FE58124FAF581A80D080886820886830886F01294DFFAA31294DFFBA31294AC
:2015A000DFFCEA4B70030216A8A80D0808740326FA74000836FB088604758204758300C09A
:2015C00004C003C0021229A3AD82AE83AFF0D002D003D0048A828B838CF0ED128EF2A3EE86
:2015E000128EF2A3EF128EF28D828E838FF074FF128EF2A3740F128EF2A37400128EF2A38D
:20160000128EF2A80D0808740626FD74000836FE0886078D828E838FF0740A128EF2A374CB
:2016200000128EF2A80D08088605088606088607C0E0C0E0C0E0A80D08E6C0E0C005C006F1
:20164000C00774A7C0E07400C0E074A1C0E07497C0E07480C0E07582AE7583161246F2E51E
:201660008124F4F581A80D080886050886060886077400C0E0C0E0C0E0A80D08E6C0E0C08B
:2016800005C006C00774A7C0E07400C0E074A9C0E07497C0E07480C0E07582AE7583161228
:2016A00046F2E58124F4F581850D81D00D22C00D85810DE5812411F581AE82AC83ABF0E51C
:2016C0000D240AF87400F608F6C0E0C0A8C2AF900F8BE0FAA3E0FFE50D2408F8A60208A604
:2016E00007900F8BE0FAA3E0FD900F8B74012AF074003DA3F0D0E053E080E5E042A8D0E0A0
:2017000075828E75839775F080C006C004C0031212C2D003D004D006E50D240CF8A6060852
:20172000A60408A603E50D240CF8740326FB74000836FE0886078B828E838FF0E50D240F95
:20174000F81294DFF6A31294DF08F6A31294DF08F6E50D240CF8A90D09740626F7740008DE
:201760003609F708E609F7A80D0886820886830886F01294DFFEA31294DFFFEE4F70030295
:201780001795E50D2404F876FF08760F740008F608F60217A4E50D2404F876FF740008F663
:2017A00008F608F6A80D0886820886830886F01294DFFEA31294DFFFE50D240CF886820805
:2017C00086830886F01294DFFBA31294DFFCA31294DFFDC006C0078B828C838DF0123780CA
:2017E000AF8215811581BF01028003021983E50D240FF886820886830886F01294DFFBA3D2
:201800001294DFFDA31294DFFEA31294DFFFE50D2404F8E6B5031208E6B5050D08E6B506D9
:201820000808E6B5070302183F75828B75839775F0801212C2E50D240AF876010876007B36
:20184000007E007D007F00E50D2404F8C3E69B08E69E08E69D08E69F50030218A9E50D24E8
:201860000FF886820886830886F0EB128EF2A3EE128EF2A3ED128EF2A3EF128EF2E50D24CE
:201880000FF886820886830886F01294DFA31294DFA31294DFA31294DF0BBB00090EBE0012
:2018A000050DBD00010F021847E50D240CF886820886830886F01294DFFDA31294DFFEA3EC
:2018C0001294DFFF7400C0E0C0E0C0E0C0E0C0E0C0E08D828E838FF0122F2FAF82E5812486
:2018E000FAF581EF60030218FF75828B75839775F0801212C2E50D240AF87601087600E53F
:201900000D240AF8E608466003021950E50D2408F88606088607C3EE9404EF6480948040EB
:2019200003021950E50D2408F8E625E0FE08E633FFEE2483FEEF340FFF8E828F83E0FCA3B5
:20194000E0FD0CBC00010D8E828F83ECF0EDA3F0A80D0886820886830886F01294DFFEA3DC
:201960001294DFFFC006C00775820A758300128F3DAE82AF83158115818E828F83124F0569
:201980000217A4A80D0886820886830886F01294DFFEA31294DFFFEE4F60030217A4120D10
:2019A000180217A4850D81D00D227F017E00EE75F002A4FCADF0EC241AF582ED3400F58376
:2019C000E0FAA3E0FBEC2483F582ED340FF583E0FCA3E0FDEAB50406EBB5050280030219B3
:2019E000E37F00EE75F002A4FCADF0EC241AFAED3400FBEC2483F582ED340FF583E0FCA382
:201A0000E0FD8A828B83ECF0EDA3F00EBE040050030219AE8F8222AF82C0077400C0E074D4
:201A200002C0E075820A122D84AC82AD83AEF015811581D007900022ECF0EDA3F0EEA3F0B2
:201A4000EC4D7003021ABDC0077400C0E0C0E0C0E0C0077422C0E07400C0E07400C0E0744D
:201A6000A7C0E07400C0E07408C0E07498C0E07480C0E075829275831B1246F2E58124F44B
:201A8000F581D0077400C0E0C0E0C0E0C0077422C0E07400C0E07400C0E074A7C0E0740051
:201AA000C0E07410C0E07498C0E07480C0E07582BE75831A1246F2E58124F4F58122C00D2E
:201AC00085810DC082C083C0F0058105810581E50D2404F87400F608F67C00E50D2406F822
:201AE0007600C004E50D2404FA7C007F40A80D0886030886050886068B828D838EF01294AF
:201B0000DFFBA31294DFFDA31294DFFEC0047400C0E0C0E0C0E0C002C004C0078B828D831E
:201B20008EF0122F2FAF82E58124FAF581D004BF0105D004021B3ED0047C01021B66EC60A4
:201B400003021B5BC0E0C0A8C2AF900F8EE004F0D0E053E080E5E042A8D0E0E50D2404F8BC
:201B600006B600020806E50D2406F806E50D2406F8C3E6648094835003021AE275820A7500
:201B80008300C004124F05D004021ADB850D81D00D22C00D85810DC082C083C0F00581051B
:201BA0008105817B007C00E50D2404F87600C003C004A80D0886020886060886078A828E10
:201BC000838FF01294DFFBA31294DFFCA31294DFFD8B828C838DF0C007C006C004C003C0CD
:201BE00002123F1FE582D002D003D004D006D007D004D0037003021CA0C003C004E50D2471
:201C000005FD8D037C007D408A828E838FF01294DFFAA31294DFFEA31294DFFFC004C0030A
:201C20007400C0E0C0E0C003C004C0058A828E838FF01234BEAF82E58124FBF581D003D035
:201C400004BF01028007D004D003021BAED004D003E50D2405F8E6B5030808E6B5040302B9
:201C60001C76E50D2404F87601E50D2405F88603088604021C98E50D2404F8E66003021CEC
:201C800098C0E0C0A8C2AF900F8DE004F0D0E053E080E5E042A8D0E00BBB00010C021BAED3
:201CA000758208758300C004C003124F05D003D004021BAE850D81D00D22900F8DE070033D
:201CC000021CCC900F8EE06003021CD17F00021CD37F01900F8D7400F0900F8EF08F8222EB
:201CE000C00D85810DAF82E50D24F9F8900F92E6F0C0077418C0E0E50D24FAF88682088634
:201D0000830886F008E6120F361581D0078F061EC0077400C0E0C0E0C0E0C006C0E0C0E03C
:201D2000C0E074A7C0E07400C0E07418C0E07498C0E07480C0E075827D75831D1246F2E510
:201D40008124F4F581D0077400C0E0C0E0C0E0C007C0E0C0E0C0E074A7C0E07400C0E0745F
:201D60001EC0E07498C0E07480C0E075822875831E1246F2E58124F4F581D00D227F4190A3
:201D80000F8FE0FCA3E0FDA3E0FEC0077400C0E0C0E0C0078C828D838EF012121FAE821562
:201DA0008115811581D007BE01028003021DBD900F92E0FE8E82C007120218D0070FC37450
:201DC000589F4003021D7F900F92E0FF7400C0E08F8212014E158112561EAE82AF837403A0
:201DE0002EFE74003FFF7D007C00740FC0E07400C0E0C0E0C0E08E828F838DF0EC12907DEB
:201E0000AC82AD83AEF0FFE58124FCF581C3EC9405ED94004003021E1D7C057D008C828DE9
:201E200083124F05021D7D22C00D85810DE5812405F5817F00E50D2404F876007B41C0078C
:201E4000E50D2405FCA80D08A604087600087640900F8FE0FDA3E0FEA3E0FFC004C00374BF
:201E6000FFC0E0C0E0A80D08E6C0E008E6C0E008E6C0E08D828E838FF01211CDAF82E5819E
:201E800024FBF581D003D004EFD0077003021EBDE50D2405F8E6B503028003021EB8900F43
:201EA00092E0FE0E8E82C007C004C003120218D003D004D007021EBD7F01021ECF0BC3740E
:201EC0005864808BF063F08095F04003021E3E900F92E0FE0EC007C0047400C0E08E821274
:201EE000014E1581D004D007BF01028003021F3F8C06E50D2405F8B65803021F348E077C91
:201F0000007B40C006900F8FE0FAA3E0FDA3E0FEC00674FFC0E0C0E0C007C004C0038A8264
:201F20008D838EF01211CDE58124FBF581D006D006021EF2E50D2404F8067F00021E3CE592
:201F40000D2404F8C3E6648094824003021E3C900F93E004F0021E3C850D81D00D22900FFF
:201F600093E06003021F6C7F00021F6E7F01900F937400F08F8222AF827E00C007C00674F7
:201F800000C0E0C0E0C0E0C007C0E0C0E0C0E074A7C0E07400C0E07424C0E07498C0E07493
:201FA00080C0E07582C375831F1246F2E58124F4F581D006D0070EC3EE6480948150030238
:201FC0001F7B22C00D85810D058105810581C0E0C0A8C2AF900F94E0FFE50D2403F8A6078A
:201FE000E004F0D0E053E080E5E042A8D0E0E50D2403F886057E00C005C00675824D75836A
:2020000001128F3DAD82AE8315811581744D2DFD74013EFE7C007B00740AC0E07400C0E090
:20202000C0E0C0E08D828E838CF0EB12923CAB82AC83ADF0FEE58124FCF5818B05ECC313B4
:20204000CD13CDFEC006C00512561EAB82AC83D005D006A80D08A60308A604AC0D0C8C0252
:202060007B007F40C006C005C004C005C0068A828B838FF0124E1D15811581D004D005D091
:2020800006E50D2403F88682C006C005C004120218D004D005D0067F007B40C006C005C0A2
:2020A00005C0068C828F838BF0124E1D15811581D005D006E50D2403F88682C006C00512B0
:2020C0000218D005D00602205B850D81D00D22C00D85810DAF82E50D24FDF8900F95E6F086
:2020E000C00712029CD0077400C0E0C0E0C0E0C007C0E0C0E0C0E074A7C0E07400C0E07454
:2021000029C0E07498C0E07480C0E075821D7583211246F2E58124F4F581D00D22900F9518
:20212000E0FF8F82120218900F95E0FF7400C0E08F8212014E1581900001E0FF7400C0E0D0
:20214000C0E0C00775820075830075F00012121F158115811581758264758300124F050204
:20216000211D2275820122AF827D007E00ED2496FBEE340FFC7A00C007C006C0057400C0EA
:20218000E0C0E0C0E0C007C003C004C00274A7C0E07400C0E07432C0E07498C0E07480C09A
:2021A000E07582CE7583211246F2E58124F4F581D005D006D0070DBD00010E8D038E04C3E3
:2021C000EB9401EC64809480500302216D22C00D85810DE5812407F581AD82AE83AFF07B35
:2021E000007C00E50D2405F8A60508A60608A607C003C004A80D08767B740008F608F6088F
:20220000F6A80D08744726F674940836F674030836F674000836F6A80D08E6C0E008E6C0B4
:20222000E008E6C0E008E6C0E07582FD7583FF75F0FF74FF1294FBAA82AB83ACF0FFE581E4
:2022400024FCF581A80D08A60208A60308A60408A607C0037407C0E07400C0E0C0E0C0E039
:20226000A80D0886820886830886F008E612913FAC82AD83AEF0FFE58124FCF581D003A8C8
:202280000D08A60408A60508A60608A607A80D08B61B1308B6770F08B6FE0B08B6FF07D023
:2022A00004D0030222AED004D0037B017C00EB4C60030221F0C0E0C0A8C2AFE50D2405F89D
:2022C00086820886830886F07401128EF2D0E053E080E5E042A8D0E00221F0850D81D00D9B
:2022E000227F017D007E00ED2496FBEE340FFC8B828C83E060030222FB7F00ED2496F58257
:20230000EE340FF5837400F00DBD00010E8D038E04C3EB9401EC6480948050030222E78FA1
:202320008222C00D85810DC082C083C0F0058105810581A80D08740126FF74000836FB0846
:202340008602A80D08E50D2404F9740426F77400083609F708E609F7E50D2404F88604084C
:2023600086050886068F828B838AF0EC128EF2A3ED128EF2A3EE128EF2E50D2404F88682C8
:202380000886830886F074FF128EF2A3128EF2E50D2404F8740226FF74000836FD08860486
:2023A000E50D2404F886020886030886068F828D838CF0EA128EF2A3EB128EF2A3EE128EF4
:2023C000F2E50D2404F8740526FF74000836FD088604E50D2404F886020886030886068FCC
:2023E000828D838CF0EA128EF2A3EB128EF2A3EE128EF2A80D0886820886830886F0740048
:20240000128EF2850D81D00D22AD82AE83AFF0740B2DFD74003EFE8D828E838FF07400129B
:202420008EF2A3128EF2A3128EF222C00D85810DC082C083C0F0E5812409F581A80D087441
:202440000126FA74000836FB0886048A828B838CF0E50D240AF81294DFF6A31294DF08F6CD
:20246000A31294DF08F6E50D24FBF8860208860308860474022AFD74003BFE8C078D828E08
:20248000838FF0E50D240AF8E6128EF2A308E6128EF2A308E6128EF2E50D2404F874052AAF
:2024A000F674003B08F608A604E50D240AF8E50D2407F9740526F77400083609F708E6095A
:2024C000F7E50D2407F886820886830886F01294DFFDA31294DFFEA31294DFFFE50D240470
:2024E000F886820886830886F0ED128EF2A3EE128EF2A3EF128EF2E50D2407F886820886DC
:20250000830886F01294DFFDA31294DFFEA31294DFFF74022DFD74003EFE8D828E838FF0FC
:20252000EA128EF2A3EB128EF2A3EC128EF2E50D2407F886820886830886F0EA128EF2A313
:20254000EB128EF2A3EC128EF2740B2AFA74003BFB8A828B838CF0A80D08E6128EF2A3081A
:20256000E6128EF2A308E6128EF2A80D0886820886830886F01294DFFF0FA80D088682080C
:2025800086830886F0EF128EF2850D81D00D22C00D85810DC082C083C0F0E581240BF58101
:2025A000E50D24FBF886020886030886048A828B838CF0E50D240DF81294DFF6A31294DF13
:2025C00008F6E50D240DF8B6FF0608B6FF028003022614C002C003C004A80D08740426FA0B
:2025E00074000836FB08860474052AFA74003BFB8A828B838CF0E50D240AF81294DFF6A389
:202600001294DF08F6A31294DF08F6D004D003D00202269EA80D08740426FD74000836FECA
:20262000088607E50D240AF8A60508A60608A607C002C003C004E50D240AF8740226FD746B
:20264000000836FE0886078D828E838FF01294DFFAA31294DFFBA31294DFFC8A828B838C9E
:20266000F01294DFFAA31294DFFBE50D240DF8C3E69A08E69BD004D003D002500302269E4F
:202680008D828E838FF0E50D240AF81294DFF6A31294DF08F6A31294DF08F6022630E50D72
:2026A0002407F874022AF674003B08F608A604E50D240AF8E50D2404F9740226F7740008C8
:2026C0003609F708E609F7E50D2404F886820886830886F01294DFFDA31294DFFEA312943C
:2026E000DFFFE50D2407F886820886830886F0ED128EF2A3EE128EF2A3EF128EF274052DE4
:20270000FD74003EFE8D828E838FF0EA128EF2A3EB128EF2A3EC128EF274052AFD74003B61
:20272000FE8C078D828E838FF0E50D240AF8E6128EF2A308E6128EF2A308E6128EF2E50DA1
:202740002404F886820886830886F0EA128EF2A3EB128EF2A3EC128EF2740B2AFA74003BB3
:20276000FB8A828B838CF0A80D08E6128EF2A308E6128EF2A308E6128EF2A80D0886820880
:2027800086830886F01294DFFF0FA80D0886820886830886F0EF128EF2850D81D00D22C078
:2027A0000D85810DC082C083C0F0E581240CF581A80D08740B26FA74000836FB0886048A93
:2027C000828B838CF0E50D240DF81294DFF6A31294DF08F6A31294DF08F6A80D08E50D2438
:2027E00004F9740226F77400083609F708E609F7E50D2404F886820886830886F01294DF7B
:20280000FDA31294DFFEA31294DFFFE50D2407F874052DF674003E08F608A607A80D08E5B6
:202820000D240AF9740526F77400083609F708E609F7E50D240AF886820886830886F0126D
:2028400094DFFDA31294DFFEA31294DFFFE50D2407F886820886830886F0ED128EF2A3EEFF
:20286000128EF2A3EF128EF2E50D240AF886820886830886F01294DFFDA31294DFFEA31296
:2028800094DFFFE50D2407F874022DF674003E08F608A607E50D2404F886820886830886FA
:2028A000F01294DFFDA31294DFFEA31294DFFFE50D2407F886820886830886F0ED128EF22E
:2028C000A3EE128EF2A3EF128EF2E50D240DF8E50D2407F9740126F77400083609F708E64E
:2028E00009F7E50D2407F886820886830886F01294DFFDA31294DFFEA31294DFFFA80D08A0
:20290000C005C006C00786820886830886F012009115811581158170028003022954E50D03
:20292000240AF886820886830886F01294DFFDA31294DFFEA31294DFFFE50D2407F88682EE
:202940000886830886F0ED128EF2A3EE128EF2A3EF128EF28A828B838CF07400128EF2A3E3
:20296000128EF2A3128EF2E50D240DF886820886830886F01294DFFF1FE50D240DF8868218
:202980000886830886F0EF128EF2E50D240DF886820886830886F01294DFFF8F82850D81CD
:2029A000D00D22C00D85810DC082C083058105810581E50D2403F87400F608F60876001218
:2029C0004FA9900F25E0F5F0A3E045F060030229E47A257D007E007F00900F25EAF0EDA305
:2029E000F0EEA3F0A80D08E608467003022A4D900F97E0FEA3E0FFA80D08E62EFC08E63FF9
:202A0000FDC3EC94FFED940E4003022A4DA80D08E62EFC08E63FFDC3EE9CEF9D4003022AED
:202A20004D900F25E0FBA3E0FCA3E0FDEE2BFBEF3CFCE50D2403F8A60308A60408A605A8A9
:202A40000D08900F97E62EF008E63FA3F0124FB1E50D2403F886820886830886F0850D819A
:202A6000D00D2222900F977400F0A3F022900F97E0FEA3E0FF74FFC39EFE740E9FFF8E824E
:202A80008F8322C00D85810DC082C083C0F0E581240AF581E50D240DF87601A80D08E608A6
:202AA000467003022D70A80D08742526FA74000836FB0886048A828B838CF01294DFFFBF30
:202AC00001005003022D70C002C003C0048F037C00C002C003C0047582FF7583FF128EA630
:202AE000AB82AC8315811581D002A80D08E50D240AF9742626F77400083609F708E609F74F
:202B0000E50D240AF886820886830886F01294DFFA7F00C3EB9AEC9FD004D003D002500369
:202B2000022D70C0E0C0A8C2AFA80D08E50D2404F9740626F77400083609F708E609F7A8CE
:202B40000D0886820886830886F0E50D2407F91294DFF7A31294DF09F7A31294DF09F78A5D
:202B6000828B838CF01294DFFFE50D240AF886820886830886F01294DFFE8FF0EEA4C8E5D5
:202B80000D2407C826FD08E635F0FE088607E50D2404F886820886830886F0ED128EF2A3A1
:202BA000EE128EF2A3EF128EF2A80D08742426FD74000836FE0886078D828E838FF07400A1
:202BC000128EF2A80D08E50D2407F9740326F77400083609F708E609F7A80D088682088609
:202BE000830886F01294DFFDA31294DFFEA31294DFFFE50D2407F886820886830886F0ED6C
:202C0000128EF2A3EE128EF2A3EF128EF2E50D2404F8E50D2407F9740326F7740008360964
:202C2000F708E609F7A80D0886820886830886F01294DFFDA31294DFFEA31294DFFF8A8280
:202C40008B838CF01294DFFA7C00E50D2404F8EA24FFF6EC34FF08F6E50D240AF886820895
:202C600086830886F01294DFFB7C00C007C006C005C003C004E50D2404F8868208868312BB
:202C80008F3DAB82AC8315811581D005D006D007EB2DFDEC3EFEE50D2407F88682088683F3
:202CA0000886F0ED128EF2A3EE128EF2A3EF128EF2A80D08742726FD74000836FE08860710
:202CC0008D828E838FF074FF128EF2A80D08742826FD74000836FE0886078D828E838FF0F0
:202CE00074FF128EF2E50D24FDF8E66003022D32A80D08740C26FD74000836FE0886078DE8
:202D0000828E838FF01294DF7003022D62A80D08740C26FD74000836FE0886078D828E8353
:202D20008FF0126220E5827003022D62120D18022D62A80D08740C26FD74000836FE0886AF
:202D4000078D828E838FF0122322A80D08741826FD74000836FE0886078D828E838FF01214
:202D60002322D0E053E080E5E042A8D0E0022D77E50D240DF87600E50D240DF88682850D60
:202D800081D00D22C00D85810DC0827C007D007E00A80D08E67003022E62C004C005C00623
:202DA000A80D0886027B00C006C005C004C002C0037582FF7583FF128EA6AA82AB8315815C
:202DC0001581D004D005D006E50D24FDF886057E00C3EA9DEB9ED006D005D0045003022EF5
:202DE00062A80D08E50D24FDF986F0E7A4FAABF0C374D69A74FF9B5003022E6274292AFAB7
:202E000074003BFB8A828B831229A3AA82AB83AFF08A048B058F06EC4D7003022E628C0298
:202E20008D038E0774292AFA74003BFBC006C005C004C004C005C006E50D24FCF8E6C0E0D4
:202E4000C002C003C007E50D24FDF8E6C0E0A80D088682122E6DE58124F8F581D004D00582
:202E6000D0068C828D838EF01581D00D22C00D85810DC082E50D24FDF8E66003022EB0E510
:202E80000D24F6F88604088605088606E50D24F6F886020886030886078C828D838EF0EA2A
:202EA000128EF2A3EB128EF2A3EF128EF2022EDEE50D24F6F88604088605088606E50D2463
:202EC000FAF886020886030886078C828D838EF0EA128EF2A3EB128EF2A3EF128EF2E50D04
:202EE00024F6F8860508860608860774252DFA74003EFB8F048A828B838CF0A80D08E612C1
:202F00008EF274262DFA74003EFB8F048A828B838CF0E50D24FDF8E6128EF27401C0E08D75
:202F2000828E838FF0122A8315811581D00D22C00D85810DE5812411F581AD82AB83ACF0AB
:202F4000E50D2411F87600E50D240EF8A60508A60308A604E50D24F8F8B6020474018002F9
:202F60007400FFE50D240BFEE50D240AF8A606A80D0874242DF674003B08F608A604E50D32
:202F80002404F874252DF674003B08F608A604C0E0C0A8C2AFA80D0886820886830886F029
:202FA0001294DFFDE50D2404F886820886830886F01294DFFCC3ED9C5003022FC3EF700370
:202FC000023055E50D24F8F8E6C0E0E50D24FBF8E6C0E008E6C0E008E6C0E0E50D240EF817
:202FE00086820886830886F0123FBAAC82E58124FCF5818C07E50D240EF8741826FA740036
:203000000836FB0886048A828B838CF01294DF700302303BE50D240EF8741826FA740008A6
:2030200036FB0886048A828B838CF0126220E5827003023044120D18023044EF7003023012
:2030400044120D18D0E053E080E5E042A8D0E0758201023228E50D24F9F8E608466003023F
:203060003073D0E053E080E5E042A8D0E0758200023228E50D2411F8E6600302309C8E02D2
:203080007B007C408A828B838CF0C007C006127012D006D007E50D2411F87601D0E053E01C
:2030A00080E5E042A8D0E0C007C006124FA9D006D007C0E0C0A8C2AFE50D240EF874272697
:2030C000FA74000836FB0886048A828B838CF01294DFFDBDFF0280030230E68A828B838CA0
:2030E000F07400128EF2E50D240EF8742826FA74000836FB0886048A828B838CF01294DFA8
:20310000FDBDFF0280030231148A828B838CF07400128EF2C007D0E053E080E5E042A8D0E5
:20312000E0E50D24F9FCE50D2407F8A604087600087640E50D240AF886047D007F40C00605
:20314000E50D2407F8E6C0E008E6C0E008E6C0E08C828D838FF0127044AF821581158115E3
:2031600081D006EFD0076003023212E50D240EF886820886830886F0C007C006124663E5A9
:2031800082D006D00770030231ECE50D240EF8740C26FB74000836FC088605C007C006E5FE
:2031A0000D24F9F8E6C0E008E6C0E08B828C838DF012600415811581D006D007E50D240ECD
:2031C000F886820886830886F0C007C00612446ED006D007C007C006124FB1E582D006D0B6
:2031E000076003022F8F120D18022F8FE50D240EF886820886830886F0C007C00612446EAA
:20320000D006D007C007C006124FB1D006D007022F8FE50D240EF886820886830886F01230
:20322000446E124FB1758200850D81D00D22C00D85810D058105810581AA82AB83ACF0A8B1
:203240000D08A60208A60308A60474242AFD74003BFE8C078D828E838FF01294DFFD742595
:203260002AFC74003BFE8C078C828E838FF01294DFFCC3ED9C5003023287E50D24F7F8B6B4
:2032800002028003023386A80D08742826FD74000836FE0886078D828E838FF01294DFFF08
:2032A000A80D08742426FC74000836FD0886068C828D838EF01294DFC007E50D24F7F8E681
:2032C000C0E0E50D24FBF8E6C0E008E6C0E008E6C0E0A80D0886820886830886F0123FBA44
:2032E000E58124FCF581D007BFFF028003023354A80D08741826FC74000836FD0886068CF5
:20330000828D838EF01294DF7003023381A80D08741826FC74000836FD0886068C828D8323
:203320008EF0126220E5827003023381E50D24F8F8E608467003023381E50D24F8F88604F8
:203340000886050886068C828D838EF07401128EF2023381C007125649AE82D0078F05C317
:20336000ED9E4003023381A80D08742826FC74000836FD0886060F8C828D838EF0EF128ED1
:20338000F27F010233887F008F82850D81D00D22C00D85810DC082C083C0F0E5812404F5C4
:2033A00081A80D08742426FA74000836FB0886048A828B838CF0E50D2407F81294DFF6A80A
:2033C0000D08742526FD74000836FE0886078D828E838FF01294DFFDE50D2407F8C3E69D5B
:2033E00040030234B4A80D08E50D2404F9742826F77400083609F708E609F7E50D2404F865
:2034000086820886830886F01294DFFFE50D2407F8E604FE8A828B838CF0EE128EF2BFFFC0
:2034200002800302348AA80D08741826FC74000836FD0886068C828D838EF01294DF700305
:203440000234AFA80D08741826FC74000836FD0886068C828D838EF0126220E582700302CD
:2034600034AFE50D24FBF8E6084670030234AFE50D24FBF886040886050886068C828D83FC
:203480008EF07401128EF20234AFC007125649AE82D0078F05C3ED9E40030234AF0FE50D38
:2034A0002404F886820886830886F0EF128EF27F010234B67F008F82850D81D00D22C00DF9
:2034C00085810DE581240BF581AC82AD83AFF0E50D240BF87600E50D2405F8A60408A605D2
:2034E00008A607E50D2408FEE50D2404F8A606A80D0874242CF674003D08F608A607C0E0C2
:20350000C0A8C2AFA80D0886820886830886F01294DFFC8C05EC70030235B7C005E50D2444
:20352000FBF8E6C0E008E6C0E008E6C0E0E50D2405F886820886830886F012431415811538
:20354000811581D005E50D2405F8742426FB74000836FC088607ED14FA8B828C838FF0EAF0
:20356000128EF2E50D2405F8740C26FB74000836FC0886078B828C838FF01294DF7003022D
:2035800035A6E50D2405F8740C26FB74000836FC0886078B828C838FF0126220E582700350
:2035A0000235A6120D18D0E053E080E5E042A8D0E075820102377AE50D24F9F8E6084660EF
:2035C000030235D5D0E053E080E5E042A8D0E075820002377AE50D240BF8E660030235FADD
:2035E0008E037C007F408B828C838FF0C006127012D006E50D240BF87601D0E053E080E55C
:20360000E042A8D0E0C006124FA9D006C0E0C0A8C2AFE50D2405F8742726FB74000836FC94
:203620000886078B828C838FF01294DFFABAFF0280030236408B828C838FF07400128EF284
:20364000E50D2405F8742826FB74000836FC0886078B828C838FF01294DFFABAFF028003FF
:2036600002366E8B828C838FF07400128EF2C006D0E053E080E5E042A8D0E0E50D24F9FF6D
:203680007C007B40E50D2404F886027D007E40C006C007C004C0038A828D838EF0127044AA
:2036A000AF82158115811581D006D006EF6003023741E50D2405F886820886830886F0C035
:2036C00006124606E582D0067003023723E50D2405F8741826FC74000836FD088607C006AF
:2036E000E50D24F9F8E6C0E008E6C0E08C828D838FF012600415811581D006E50D2405F887
:2037000086820886830886F0C00612446ED006C006124FB1E582D00660030234FE120D18CF
:203720000234FEE50D2405F886820886830886F0C00612446ED006C006124FB1D006023467
:20374000FEE50D2405F886820886830886F0C00612446ED006C006124FB1D006E50D240598
:20376000F886820886830886F0C006124606E582D00670030234FE758200850D81D00D22A9
:20378000C00D85810DE581240BF581AC82AD83AFF0E50D2405F87600E50D2409F8A60408EF
:2037A000A60508A607E50D2406FEE50D2404F8A606A80D0874242CF674003D08F608A607F6
:2037C000C0E0C0A8C2AFA80D0886820886830886F01294DFFC8C07EC7003023843EF14FC2D
:2037E000A80D0886820886830886F0EC128EF2E50D2409F8740C26FB74000836FC088607FC
:203800008B828C838FF01294DF7003023832E50D2409F8740C26FB74000836FC0886078B23
:20382000828C838FF0126220E5827003023832120D18D0E053E080E5E042A8D0E0758201AD
:20384000023A06E50D24FCF8E608466003023861D0E053E080E5E042A8D0E0758200023AF5
:2038600006E50D2405F8E660030238868E037C007F408B828C838FF0C006127012D006E5AA
:203880000D2405F87601D0E053E080E5E042A8D0E0C006124FA9D006C0E0C0A8C2AFE50DB0
:2038A0002409F8742726FB74000836FC0886078B828C838FF01294DFFABAFF028003023852
:2038C000CC8B828C838FF07400128EF2E50D2409F8742826FB74000836FC0886078B828CCB
:2038E000838FF01294DFFABAFF0280030238FA8B828C838FF07400128EF2C006D0E053E08B
:2039000080E5E042A8D0E0E50D24FCFF7C007B40E50D2404F886027D007E40C006C007C05E
:2039200004C0038A828D838EF0127044AF82158115811581D006D006EF60030239CDE50D75
:203940002409F886820886830886F0C006124606E582D00670030239AFE50D2409F874184A
:2039600026FC74000836FD088607C006E50D24FCF8E6C0E008E6C0E08C828D838FF01260EE
:203980000415811581D006E50D2409F886820886830886F0C00612446ED006C006124FB13B
:2039A000E582D00660030237C0120D180237C0E50D2409F886820886830886F0C006124474
:2039C0006ED006C006124FB1D0060237C0E50D2409F886820886830886F0C00612446ED0F4
:2039E00006C006124FB1D006E50D2409F886820886830886F0C006124606E582D006700391
:203A00000237C0758200850D81D00D22C00D85810DE581240DF581AD82AB83AFF07C00E55A
:203A20000D2408F8A60508A60308A607E50D240BFEA80D08A606E50D2405F874242DF6747A
:203A4000003B08F608A607C0E0C0A8C2AFE50D2405F886820886830886F01294DF7003025B
:203A60003B42E50D2408F8740626FA74000836FB08860774032AFA74003BFB8A828B838FE9
:203A8000F01294DFFEA31294DFFDA31294DFFCC006C005C004E50D24FBF8E6C0E008E6C0DE
:203AA000E008E6C0E0E50D2408F886820886830886F0124314158115811581D004D005D047
:203AC00006E50D2408F8740626FA74000836FB08860774032AFA74003BFB8A828B838FF010
:203AE000EE128EF2A3ED128EF2A3EC128EF2E50D2408F8741826FA74000836FB0886078A75
:203B0000828B838FF01294DF7003023B31E50D2408F8741826FA74000836FB0886078A8220
:203B20008B838FF0126220E5827003023B31120D18D0E053E080E5E042A8D0E07582010229
:203B40003D36E50D24F9F8E608466003023B60D0E053E080E5E042A8D0E0758200023D3689
:203B6000EC6003023B7B8E027B007F408A828B838FF0C006127012D0067C01D0E053E080CB
:203B8000E5E042A8D0E0C006C004124FA9D004D006C0E0C0A8C2AFE50D2408F8742726FA3E
:203BA00074000836FB0886078A828B838FF01294DFFDBDFF028003023BC58A828B838FF0CC
:203BC0007400128EF2E50D2408F8742826FA74000836FB0886078A828B838FF01294DFFDB0
:203BE000BDFF028003023BF38A828B838FF07400128EF2C004D0E053E080E5E042A8D0E02F
:203C0000E50D24F9FFA80D0808A607087600087640A80D0886047D007F40C006C004A80D26
:203C20000808E6C0E008E6C0E008E6C0E08C828D838FF0127044AF82158115811581D004A8
:203C4000D006D004EF6003023CF1E50D2408F886820886830886F0C006C004124606E5823D
:203C6000D004D0067003023CCBE50D2408F8741826FB74000836FD088607C006C004E50D9B
:203C800024F9F8E6C0E008E6C0E08B828D838FF012600415811581D004D006E50D2408F8FD
:203CA00086820886830886F0C006C00412446ED004D006C006C004124FB1E582D004D006C8
:203CC0006003023A47120D18023A47E50D2408F886820886830886F0C006C00412446ED079
:203CE00004D006C006C004124FB1D004D006023A47E50D2408F886820886830886F0C006AE
:203D0000C00412446ED004D006C006C004124FB1D004D006E50D2408F8868208868308866E
:203D2000F0C006C004124606E582D004D0067003023A47758200850D81D00D22C00D8581C8
:203D40000DC082C083C0F0A80D08742426FA74000836FB0886048A828B838CF01294DFFA58
:203D60008A04EA7003023E65A80D08742726FA74000836FB0886078A828B838FF01294DFDB
:203D8000FFC007C004E50D24FBF8E6C0E008E6C0E008E6C0E0A80D0886820886830886F09A
:203DA000124314158115811581D004D007A80D08742426FB74000836FD0886061C8B828DBE
:203DC000838EF0EC128EF2BFFF028003023E33A80D08740C26FC74000836FD0886068C82FE
:203DE0008D838EF01294DF7003023E60A80D08740C26FC74000836FD0886068C828D838E4F
:203E0000F0126220E5827003023E60E50D24F8F8E608467003023E60E50D24F8F8860408BF
:203E200086050886068C828D838EF07401128EF2023E60C007125649AE82D0078F05C3ED5D
:203E40009E4003023E60A80D08742726FC74000836FD0886060F8C828D838EF0EF128EF2F8
:203E60007F01023E677F008F82850D81D00D22C00D85810DAD82AE83AFF074242DFA740067
:203E80003EFB8F048A828B838CF01294DF7003023F1874062DFA74003EFB8F0474032AFAF3
:203EA00074003BFB8A828B838CF01294DFFAA31294DFFBA31294DFFCC007C006C005C004E6
:203EC000C003C002E50D24FBF8E6C0E008E6C0E008E6C0E08D828E838FF0124314158115FF
:203EE000811581D002D003D004D005D006D00774062DFD74003EFE74032DFD74003EFE8D7E
:203F0000828E838FF0EA128EF2A3EB128EF2A3EC128EF27F01023F1A7F008F82D00D22ADBB
:203F200082AE83AFF0C0E0C0A8C2AF74242DFD74003EFE8D828E838FF01294DFFDD0E05320
:203F4000E080E5E042A8D0E08D8222AD82AE83AFF0C0E0C0A8C2AF74252DFA74003EFB8FFD
:203F6000048A828B838CF01294DFFA74242DFD74003EFE8D828E838FF01294DFFDEAC39D4B
:203F8000FAD0E053E080E5E042A8D0E08A8222AD82AE83AFF074242DFD74003EFE8D828E29
:203FA000838FF01294DFFD8D8222AD82AE83AFF08D828E838FF0122A6322C00D85810DC04D
:203FC00082C083C0F0E581240AF581A80D08742426FA74000836FB0886048A828B838CF018
:203FE000E50D240DF81294DFF6A80D08E50D2407F9742626F77400083609F708E609F7E51C
:204000000D2407F886820886830886F01294DFFEEE70030242F9E50D24FAF8E66003024124
:2040200076C002C003C0048E047D00A80D08E50D240AF9740326F77400083609F708E6099F
:20404000F7E50D240AF886820886830886F01294DFFAA31294DFFBA31294DFFFC004C0036A
:20406000C002C004C005E50D24FBF8E6C0E008E6C0E008E6C0E08A828B838FF01292C6E562
:204080008124FBF581D002D003D004E50D240AF886820886830886F01294DFFCA31294DF39
:2040A000FDA31294DFFFE50D2407F886820886830886F01294DFFBE50D2404F8EB2CF6741D
:2040C000003D08F608A607E50D240AF886820886830886F0E50D2404F9E7128EF2A309E722
:2040E000128EF2A309E7128EF2A80D08740626FA74000836FB0886078A828B838FF0129431
:20410000DFFAA31294DFFBA31294DFFFE50D2404F8C002C003C00786820886830886F01275
:204120000091158115811581D004D003D00250030242F9C002C003C004A80D088682088687
:20414000830886F01294DFFCA31294DFFDA31294DFFFE50D240AF886820886830886F0ECF6
:20416000128EF2A3ED128EF2A3EF128EF2D004D003D0020242F9C002C003C0047F00A80D34
:2041800008E50D2404F9740626F77400083609F708E609F7E50D2404F8E50D240AF974032B
:2041A00026F77400083609F708E609F7E50D240AF886820886830886F01294DFFBA31294CA
:2041C000DFFCA31294DFFDC004C003C002C006C007E50D24FBF8E6C0E008E6C0E008E6C03E
:2041E000E08B828C838DF01292C6E58124FBF581D002D003D004E50D240AF8868208868337
:204200000886F01294DFFDA31294DFFEA31294DFFFE50D2407F886820886830886F01294FF
:20422000DFFC7B00EDC39CFDEE9BFEE50D240AF886820886830886F0ED128EF2A3EE128EF9
:20424000F2A3EF128EF2A80D0886820886830886F01294DFFAA31294DFFBA31294DFFCC06E
:2042600002C003C0048D828E838FF0120091158115811581D004D003D00240030242DBC016
:2042800002C003C004E50D2404F886820886830886F01294DFFDA31294DFFEA31294DFFF1D
:2042A000E50D2407F886820886830886F01294DFFC7B00EDC39CFDEE9BFEE50D240AF886E8
:2042C000820886830886F0ED128EF2A3EE128EF2A3EF128EF2D004D003D002E50D24FAF886
:2042E000B6020280030242F9E50D240DF8E670030242F9E50D240DF816E50D240DF8E6045D
:20430000FF8A828B838CF0EF128EF2758200850D81D00D22C00D85810DE5812407F581C8CF
:20432000E50D2405C8A68208A68308A6F0E50D2405F8742626FA74000836FB0886048A828B
:204340008B838CF0A80D081294DFF6A80D08E67003024468C002C003C004E50D2405F87407
:204360000626FA74000836FB088604A80D080874032AF674003B08F608A604A80D080886D2
:20438000820886830886F01294DFFDA31294DFFEA31294DFFFA80D08E62DFD74003EFEA818
:2043A0000D080886820886830886F0ED128EF2A3EE128EF2A3EF128EF28A828B838CF012DB
:2043C00094DFFAA31294DFFBA31294DFFCC002C003C0048D828E838FF01200911581158172
:2043E0001581D004D003D0025003024422E50D2405F886820886830886F01294DFFDA31212
:2044000094DFFEA31294DFFFA80D080886820886830886F0ED128EF2A3EE128EF2A3EF1262
:204420008EF28A828B838CF01294DFFA7F00A80D080886820886830886F01294DFFCA312D6
:2044400094DFFDA31294DFFEC002C007C004C005C006E50D24FBF886820886830886F0123C
:2044600092C6E58124FBF581850D81D00D22C00D85810DC082C083C0F0E5812404F581C0FE
:20448000E0C0A8C2AFA80D08742826FA74000836FB0886048A828B838CF0E50D2407F812EE
:2044A00094DFF6A80D08E50D2404F9741826F77400083609F708E609F7E50D2407F8C3742E
:2044C00000648086F063F08095F04003024527E50D2404F886820886830886F01294DF70DB
:2044E00003024527A80D08741826FD74000836FE0886078D828E838FF0C004C003C00212A0
:204500006220E582D002D003D004700302451EC004C003C00212716BD002D003D004E50DBF
:204520002407F8160244B98A828B838CF074FF128EF2D0E053E080E5E042A8D0E0C0E0C086
:20454000A8C2AFA80D08742726FD74000836FE0886078D828E838FF01294DFFCA80D08E5C0
:204560000D2404F9740C26F77400083609F708E609F7C3740064808CF063F08095F040039E
:204580000245EAE50D2404F886820886830886F01294DF70030245EAC005C006C007A80D11
:2045A00008740C26FA74000836FB0886078A828B838FF0C007C006C005C004126220E58267
:2045C000D004D005D006D007D007D006D00570030245E6C007C006C005C00412716BD0048B
:2045E000D005D006D0071C0245728D828E838FF074FF128EF2D0E053E080E5E042A8D0E0FE
:20460000850D81D00D22AD82AE83AFF0C0E0C0A8C2AF74242DFD74003EFE8D828E838FF0FF
:204620001294DF600302462D7F0102462F7F00D0E053E080E5E042A8D0E08F8222AD82AED5
:2046400083AFF074242DFD74003EFE8D828E838FF01294DF600302465E7F010246607F00F2
:204660008F8222AD82AE83AFF0C0E0C0A8C2AF74242DFA74003EFB8F048A828B838CF012E8
:2046800094DFFA74252DFD74003EFE8D828E838FF01294DFFDEAB5050280030246A37F0185
:2046A0000246A57F00D0E053E080E5E042A8D0E08F8222AD82AE83AFF074242DFA74003E29
:2046C000FB8F048A828B838CF01294DFFA74252DFD74003EFE8D828E838FF01294DFFDEAB9
:2046E000B5050280030246ED7F010246EF7F008F8222C00D85810D058105810581AE82AF8C
:2047000083758233758300C007C0061229A3AB82AC83ADF0D006D007A80D08A60308A604CB
:2047200008A605A80D08E6084670030247D6C006C007A80D088602088606088607C007C0C1
:20474000067433C0E07400C0E0C0E08A828E838FF0129359158115811581D006D007A80D9A
:2047600008742026FA74000836FE088607E50D24F9F886040886058C828D83C007C006C0A9
:20478000021229A3AB82AC83ADF0D002D006D0078A828E838FF0EB128EF2A3EC128EF2A3E4
:2047A000ED128EF2D007D006EB4C60030247D6A80D0886030886040886058B828C838DF010
:2047C000C007C006122A63D006D007A80D087400F608F6087600A80D08E6084670030248AF
:2047E00065E50D24F9F886020886037C007D007400C0E0C0E0C0E0A80D08E6C0E008E6C0F6
:20480000E008E6C0E0E50D24F2F8E6C0E008E6C0E008E6C0E0E50D24F5F8E6C0E0E50D24E9
:20482000F6F8E6C0E008E6C0E008E6C0E0C002C003C004C005E50D24FBF8E6C0E008E6C09D
:20484000E008E6C0E08E828F8312486FE58124ECF581A80D0886820886830886F0124B5111
:204860007F010248677FFF8F82850D81D00D22C00D85810DC082C083E581240CF581E50D03
:2048800024EDF8E50D2409F9E6F708E609F708E609F7E50D2409F8742026FA74000836FEC3
:2048A0000886078A828E838FF0E50D240CF81294DFF6A31294DF08F6A31294DF08F6E50DF4
:2048C000240CF8E50D2403F9E6F708E609F708E609F7E50D2409F8E50D2406F9742B26F7FD
:2048E0007400083609F708E609F7E50D24F7F8E624FFFA08E634FFFE08E634FFFD08E634B1
:20490000FFFFE50D240CF8EA26FAEE0836FE088605E50D2406F886820886830886F0EA1211
:204920008EF2A3EE128EF2A3ED128EF2E50D24FBF8E6084670030249C6E50D2409F8742343
:2049400026FD74000836FE0886077B00E50D2406F8EB2DF674003E08F608A607C005C00662
:20496000C007E50D24FBF8EB26FD74000836FE0886078D828E838FF01294DFFCE50D2406D8
:20498000F886820886830886F0EC128EF28D828E838FF01294DFD007D006D00570030249A6
:2049A000AA0BBB0800500302494CE50D2409F8742A26FD74000836FE0886078D828E838FC9
:2049C000F07400128EF2E50D24F3F8B6040050030249DAE50D24F3F87603E50D2409F874A9
:2049E0001F26FD74000836FE0886078D828E838FF0E50D24F3F8E6128EF2E50D2409F8748D
:204A00000326FD74000836FE0886078D828E838FF0122409E50D2409F8741126FD74000812
:204A200036FE0886078D828E838FF0122409E50D2409F8740B26FD74000836FE088607E5EC
:204A40000D24EDF886020886030886048D828E838FF0EA128EF2A3EB128EF2A3EC128EF239
:204A6000E50D2409F8E50D2406F9741126F77400083609F708E609F7E50D24F3F886077EBC
:204A8000007404C39FFF74009EFEE50D2406F886820886830886F0EF128EF2A3EE128EF2DE
:204AA000E50D2409F8741926FD74000836FE0886078D828E838FF0EA128EF2A3EB128EF2AF
:204AC000A3EC128EF2E50D24F4F8E6C0E008E6C0E008E6C0E0A80D08E6C0E008E6C0E0E55B
:204AE0000D2403F886820886830886F0120AA0AF82AE83ADF0E58124FBF581E50D2409F826
:204B000086820886830886F0EF128EF2A3EE128EF2A3ED128EF2E50D24F0F8E60846700393
:204B2000024B4BE50D24F0F886050886060886078D828E838FF0E50D2409F8E6128EF2A35A
:204B400008E6128EF2A308E6128EF2850D81D00D22C00D85810DC082C083C0F0E581240CF5
:204B6000F581C0E0C0A8C2AF900F9CE004F0900F99E0FAA3E0FBA3E0FCEA4B6003024BA3A0
:204B8000A80D08900F99E6F008E6A3F008E6A3F0900F9CE0FCBC01028003024BFA12718A9B
:204BA000024BFA900FA0E06003024BFA900F99E0FAA3E0FBA3E0FC741F2AFA74003BFB8AEB
:204BC000828B838CF01294DFFAA80D08741F26FB74000836FC0886078B828C838FF0129455
:204BE000DFFBC3EB9A5003024BFAA80D08900F99E6F008E6A3F008E6A3F0900FA5E02401E3
:204C0000F0A80D08741F26FD74000836FE0886078D828E838FF01294DFFC900F9FE0FBC3F0
:204C2000EB9C4003024C2C900F9FECF08D828E838FF01294DFFCEC75F00CA42428FB740F2B
:204C400035F0FC8B828C83A3E50D240DF8E0F6A3E008F6A3E008F6A80D08E50D2404F9743D
:204C60000326F77400083609F708E609F7E50D2404F8740226FA74000836FB0886048A8281
:204C80008B838CF0E50D240DF8E6128EF2A308E6128EF2A308E6128EF2E50D2404F8E50DAD
:204CA0002407F9740526F77400083609F708E609F7E50D240DF8E50D240AF9740526F7745C
:204CC00000083609F708E609F7E50D240AF886820886830886F01294DFFAA31294DFFBA3B4
:204CE0001294DFFCE50D2407F886820886830886F0EA128EF2A3EB128EF2A3EC128EF2E5E5
:204D00000D240AF886820886830886F01294DFFAA31294DFFBA31294DFFC74022AFA7400F5
:204D20003BFB8A828B838CF0E50D2404F8E6128EF2A308E6128EF2A308E6128EF2E50D24C1
:204D40000AF886820886830886F0E50D2404F9E7128EF2A309E7128EF2A309E7128EF2E5FF
:204D60000D2404F8E50D240AF9740B26F77400083609F708E609F78D828E838FF01294DF8D
:204D8000FCEC75F00CA42428FC740F35F0FB8C027C00E50D240AF886820886830886F0EA88
:204DA000128EF2A3EB128EF2A3EC128EF28D828E838FF01294DFFCEC75F00CA42428FB7444
:204DC0000F35F0FC8B828C83E0FA0A8B828C83EAF0D0E053E080E5E042A8D0E0900FA0E0CC
:204DE0007003024E17900F99E0FAA3E0FBA3E0FC741F2AFA74003BFB8A828B838CF012942D
:204E0000DFFA8D828E838FF01294DFFDC3EA9D4003024E17120D18850D81D00D22C00D8509
:204E2000810DC082C083C0F0058105817E00C006124FA9D006900F9DE0FAA3E0FBE50D24D5
:204E400004F8A60208A603A80D0886820886830886F01294DFFBA31294DFFCE50D24FCF8FB
:204E6000E62BFD08E63CFF8D02E50D2404F8C3E69B08E69C4003024E98C3EA9BEF9C40034B
:204E8000024EB4E50D2404F8C3E69A08E69F4003024EB47E01024EB4C3EA9BEF9C5003023A
:204EA0004EB2E50D2404F8C3E69A08E69F4003024EB47E01A80D0886820886830886F0EA0C
:204EC000128EF2A3EF128EF2EE7003024EECE50D2404F8EAC396FAEF0896FFC0067400C0AA
:204EE000E08A828F83128D7A1581D006C006124FB1E582D0066003024EFD120D188E82859E
:204F00000D81D00D22AE82AF837D00EE4F7003024F31C007C006124FA9D006D0077400C07B
:204F2000E08E828F83128D7A1581124FB1AF828F05ED6003024F3A120D182274A8C0E07485
:204F40000FC0E07400C0E0C0E0C0E0C0E0C0E074A7C0E07400C0E0743BC0E07498C0E074D0
:204F600080C0E07582727583711246F2AF82E58124F4F581BF01028003024F97C2AF900F93
:204F8000A674FFF0A3F0900FA07401F0900F9D7400F0A3F0120C9A90983AE49322C2AF90EA
:204FA0000FA07400F0120D1722900FABE02401F022C00D85810DE5812416F581E50D241108
:204FC000F87400F608F6087600E50D2410F87600C0E0C0A8C2AF900FABE014F0E060030273
:204FE0005606900F9CE07003025606900F76E070030255A0900F7CE0FAA3E0FBA3E0FC74A4
:20500000082AFA74003BFB8A828B838CF01294DFFAA31294DFFBA31294DFFCE50D2411F83F
:20502000A60208A60308A604E50D2411F8A90D09741126F77400083609F708E609F7E50D53
:205040002411F8741C26FA74000836FB0886048A828B838CF0E50D2414F81294DFF6A3124C
:2050600094DF08F6A31294DF08F6E50D2411F8741326FA74000836FB0886048A828B838CEE
:20508000F01294DFFDA31294DFFEA31294DFFFE50D2407F874052DF674003E08F608A6073B
:2050A000E50D2411F8E50D2404F9741626F77400083609F708E609F7E50D2404F886820855
:2050C00086830886F01294DFFDA31294DFFEA31294DFFFE50D2407F886820886830886F0CE
:2050E000ED128EF2A3EE128EF2A3EF128EF2E50D2404F886820886830886F01294DFFDA31C
:205100001294DFFEA31294DFFF74022DFD74003EFE8A828B838CF01294DFFAA31294DFFB5D
:20512000A31294DFFC8D828E838FF0EA128EF2A3EB128EF2A3EC128EF2E50D2414F8740158
:2051400026FC74000836FB0886028C828B838AF01294DFFDA31294DFFEA31294DFFFA80DD6
:2051600008C005C006C00786820886830886F0120091158115811581700280030251AEE5FE
:205180000D2404F886820886830886F01294DFFDA31294DFFEA31294DFFF8C828B838AF0E6
:2051A000ED128EF2A3EE128EF2A3EF128EF2A80D08740B26FD74000836FE0886078D828EE8
:2051C000838FF07400128EF2A3128EF2A3128EF2E50D2414F886820886830886F01294DF1F
:2051E000FF1FE50D2414F886820886830886F0EF128EF2E50D2411F8740326FD74000836EC
:20520000FE088607E50D2407F8740B2DF674003E08F608A607E50D2407F8868208868308A9
:2052200086F0E50D2414F91294DFF7A31294DF09F7A31294DF09F7E50D2404F874022DF65E
:2052400074003E08F608A607E50D2404F886820886830886F01294DFFAA31294DFFBA312E9
:2052600094DFFCE50D240DF874052AF674003B08F608A604A80D0874052DF674003E08F6A3
:2052800008A607A80D0886820886830886F01294DFFAA31294DFFBA31294DFFCE50D240D1C
:2052A000F886820886830886F0EA128EF2A3EB128EF2A3EC128EF2A80D08868208868308C4
:2052C00086F01294DFFAA31294DFFBA31294DFFCE50D240DF874022AF674003B08F608A686
:2052E00004E50D2404F886820886830886F01294DFFAA31294DFFBA31294DFFCE50D240D18
:20530000F886820886830886F0EA128EF2A3EB128EF2A3EC128EF2E50D2414F8E50D240DFC
:20532000F9740126F77400083609F708E609F7E50D240DF886820886830886F01294DFFA11
:20534000A31294DFFBA31294DFFCC005C006C0078A828B838CF01200911581158115817049
:2053600002800302539AA80D0886820886830886F01294DFFAA31294DFFBA31294DFFCE5BA
:205380000D240DF886820886830886F0EA128EF2A3EB128EF2A3EC128EF2C005C006C00731
:2053A000E50D2407F886820886830886F07400128EF2A3128EF2A3128EF2E50D2414F88629
:2053C000820886830886F01294DFFC1CE50D2414F886820886830886F0EC128EF2E50D24D2
:2053E00011F8E50D240AF9741F26F77400083609F708E609F7E50D240AF886820886830802
:2054000086F01294DFFC900F9FE0FFC3EF9CD007D006D005400302541E900F9FECF0E50DE5
:20542000240AF886820886830886F01294DFFCEC75F00CA42428FB740F35F0FC8B828C8326
:20544000A3E0FAA3E0FBA3E0FCE50D2404F886820886830886F0EA128EF2A3EB128EF2A3EA
:20546000EC128EF2E50D240DF874052AF674003B08F608A604E50D240DF88682088683085F
:2054800086F01294DFFAA31294DFFBA31294DFFCA80D0886820886830886F0EA128EF2A35D
:2054A000EB128EF2A3EC128EF2E50D240DF886820886830886F01294DFFAA31294DFFBA357
:2054C0001294DFFC74022AFA74003BFB8A828B838CF0ED128EF2A3EE128EF2A3EF128EF2AB
:2054E000E50D240DF886820886830886F0ED128EF2A3EE128EF2A3EF128EF2E50D240AF81C
:2055000086820886830886F01294DFFFEF75F00CA42428FE740F35F0FF7D00E50D2407F8E9
:2055200086820886830886F0EE128EF2A3EF128EF2A3ED128EF2E50D240AF88682088683DD
:205540000886F01294DFFFEF75F00CA42428FE740F35F0FF8E828F83E0FD0D8E828F83ED39
:20556000F0E50D240AF886820886830886F01294DFFF900F99E0FCA3E0FDA3E0FE741F2C34
:20558000FC74003DFD8C828D838EF01294DFFCC3EF9C5003024FEB900FA37401F0024FEB84
:2055A000E50D2411F8E6084670030255B01271F3900FA1E0FEA3E0FF8E048F05EE4F700332
:2055C0000255F38C068D07C007C0061256BBE582D006D00770030255DF900FA37401F01E29
:2055E000BEFF011FEE4F60030255C7900FA17400F0A3F0900FA3E07003025606E50D2410C0
:20560000F87601120D18D0E053E080E5E042A8D0E0E50D2410F88682850D81D00D22C0E04A
:20562000C0A8C2AF900F9DE0FEA3E0FFD0E053E080E5E042A8D0E08E828F8322900F9DE0D3
:20564000FEA3E0FF8E828F8322900F9CE0FF8F8222AD82AE83AFF0ED4E600302566C900F39
:2056600099E0FAA3E0FBA3E0FC0256728D028E038F0474232AFA74003BFB8A828B838CF042
:2056800022AE82AF83C007C006124FA9D006D007C0E0C0A8C2AF900FA1E0FCA3E0FD900F8E
:2056A000A1EE2CF0EF3DA3F0D0E053E080E5E042A8D0E0124FB1AF828F8222C00D85810D68
:2056C000E5812418F581E50D2413F87600900FABE06003025E58900F9DE0FDA3E0FEE50D4A
:2056E0002414F874012DF674003E08F6E50D2414F8900F9DE6F008E6A3F0E50D2414F8E675
:2057000008466003025740900F70E0FAA3E0FBA3E0FC8B058C06900F73E0FBA3E0FCA3E048
:20572000FF900F70EBF0ECA3F0EFA3F0900F73EAF0EDA3F0EEA3F0900FA4E004F01271F305
:20574000900FA6E0FBA3E0FCE50D2414F8C3E69B08E69C5003025E07900F70E0FAA3E0FB99
:20576000A3E0FC8A828B838CF01294DF600302577C900FA674FFF0A3F0025E07900F70E0C6
:20578000FAA3E0FBA3E0FC74042AFA74003BFB74022AFA74003BFB8A828B838CF01294DF6D
:2057A000FAA31294DFFBA31294DFFC74082AFA74003BFB8A828B838CF01294DFFAA3129400
:2057C000DFFBA31294DFFCE50D2410F8A60208A60308A604E50D2410F8740326FD7400086E
:2057E00036FE0886078D828E838FF01294DFFFA31294DFFEE50D2414F8C3E69F08E69E4061
:205800000302580F900FA6EFF0EEA3F0025E07E50D2410F8740326FD74000836FE08860713
:20582000E50D2410F8740E26FA74000836FB0886048A828B838CF0E50D2416F81294DFF634
:20584000A31294DF08F6A31294DF08F6E50D2410F8E50D2407F9740526F77400083609F780
:2058600008E609F7E50D2407F886820886830886F01294DFFAA31294DFFBA31294DFFCE5E3
:205880000D240DF874052AF674003B08F608A604E50D2410F8A90D09740826F774000836B2
:2058A00009F708E609F7A80D0886820886830886F01294DFFAA31294DFFBA31294DFFCE5FB
:2058C0000D240DF886820886830886F0EA128EF2A3EB128EF2A3EC128EF2A80D0886820871
:2058E00086830886F01294DFFAA31294DFFBA31294DFFCE50D240DF874022AF674003B08F3
:20590000F608A604E50D2407F886820886830886F01294DFFAA31294DFFBA31294DFFCE588
:205920000D240DF886820886830886F0EA128EF2A3EB128EF2A3EC128EF2E50D2416F8E5D4
:205940000D240DF9740126F77400083609F708E609F7E50D240DF886820886830886F0121A
:2059600094DFFAA31294DFFBA31294DFFCC005C006C0078A828B838CF012009115811581BC
:205980001581700280030259BDA80D0886820886830886F01294DFFAA31294DFFBA3129425
:2059A000DFFCE50D240DF886820886830886F0EA128EF2A3EB128EF2A3EC128EF2E50D2487
:2059C0000AF8740B2DF674003E08F608A607E50D240AF886820886830886F07400128EF209
:2059E000A3128EF2A3128EF2C005C006C007E50D2416F886820886830886F01294DFFF1F8D
:205A0000E50D2416F886820886830886F0EF128EF2E50D2410F8E50D240DF9741126F774FA
:205A200000083609F708E609F7E50D240DF8A90D09740B26F77400083609F708E609F7A87C
:205A40000D0886820886830886F01294DFFAA31294DFFBA31294DFFCD007D006D005EA4B1D
:205A60007003025C1AC005C006C007E50D2416F8A60208A60308A604E50D240DF874022603
:205A8000FD74000836FE0886078D828E838FF01294DFFAA31294DFFBA31294DFFCE50D2449
:205AA00004F874052AF674003B08F608A604E50D240DF8E50D2407F9740526F77400083679
:205AC00009F708E609F7E50D2407F886820886830886F01294DFFAA31294DFFBA31294DF62
:205AE000FCE50D2404F886820886830886F0EA128EF2A3EB128EF2A3EC128EF2E50D240727
:205B0000F886820886830886F01294DFFAA31294DFFBA31294DFFC74022AFA74003BFB8D5F
:205B2000828E838FF01294DFFDA31294DFFEA31294DFFF8A828B838CF0ED128EF2A3EE12CC
:205B40008EF2A3EF128EF2E50D2416F8E50D2404F9740126F77400083609F708E609F7E553
:205B60000D2404F886820886830886F01294DFFDA31294DFFEA31294DFFFE50D240DF8C0B7
:205B800005C006C00786820886830886F012009115811581158170028009D007D006D005FA
:205BA000025BDFD007D006D005E50D2407F886820886830886F01294DFFAA31294DFFBA336
:205BC0001294DFFCE50D2404F886820886830886F0EA128EF2A3EB128EF2A3EC128EF2A836
:205BE0000D0886820886830886F07400128EF2A3128EF2A3128EF2E50D2416F886820886CF
:205C0000830886F01294DFFC1CE50D2416F886820886830886F0EC128EF2C005C006C0075B
:205C2000E50D2410F8E50D240DF9741F26F77400083609F708E609F7E50D240DF8868208AF
:205C400086830886F01294DFFC900F9FE0FFC3EF9CD007D006D0054003025C61900F9FEC23
:205C6000F0E50D240DF886820886830886F01294DFFCEC75F00CA42428FB740F35F0FC8B8A
:205C8000828C83A3E50D2416F8E0F6A3E008F6A3E008F674022DFA74003EFB8F048A828B60
:205CA000838CF0E50D2416F8E6128EF2A308E6128EF2A308E6128EF2E50D2404F874052D4B
:205CC000F674003E08F608A607E50D2416F8A90D09740526F77400083609F708E609F7A8A8
:205CE0000D0886820886830886F01294DFFAA31294DFFBA31294DFFCE50D2404F886820810
:205D000086830886F0EA128EF2A3EB128EF2A3EC128EF2A80D0886820886830886F0129445
:205D2000DFFAA31294DFFBA31294DFFC74022AFA74003BFB8A828B838CF0ED128EF2A3EE59
:205D4000128EF2A3EF128EF2A80D0886820886830886F0ED128EF2A3EE128EF2A3EF128E65
:205D6000F2E50D240DF886820886830886F01294DFFFEF75F00CA42428FE740F35F0FF7D89
:205D800000E50D240AF886820886830886F0EE128EF2A3EF128EF2A3ED128EF2E50D240D6B
:205DA000F886820886830886F01294DFFFEF75F00CA42428FE740F35F0FF8E828F83E0FDDC
:205DC0000D8E828F83EDF0E50D240DF886820886830886F01294DFFF900F99E0FCA3E0FDED
:205DE000A3E0FE741F2CFC74003DFD8C828D838EF01294DFFCC3EF9C5003025758E50D2434
:205E000013F87601025758900F99E0FDA3E0FEA3E0FF741F2DFD74003EFE8D828E838FF02B
:205E20001294DFFDED75F00CA42428F582740F35F0F583E0FFC374019F4003025E45E50D6B
:205E40002413F87601900FA3E07003025E64E50D2413F87601025E64900FA1E02401F0A30F
:205E6000E03400F0E50D2413F88682850D81D00D22C00D85810DE581240AF581900FABE0CF
:205E80007003025E8E900FA37401F0025FFE900FA37400F0900F9FE0FFEF75F00CA4FDAE29
:205EA000F0ED2428FBEE340FFC8B828C83E06003025EB71F025E99E50D2407F8A607ED2430
:205EC00028FDEE340FFEE50D2408F8A60508A606087600E50D2408F8740126FA740008361E
:205EE000FB0886078A828B838FF01294DFFCA31294DFFDA31294DFFE74022CFC74003DFD61
:205F00008C828D838EF01294DFFCA31294DFFDA31294DFFE8A828B838FF0EC128EF2A3ED72
:205F2000128EF2A3EE128EF28A828B838FF0A80D081294DFF6A31294DF08F6A31294DF0885
:205F4000F6E50D2404F8A60408A60508A606E50D2408F8740426FC74000836FD088606E550
:205F60000D2404F8C004C005C00686820886830886F01200911581158115817002800302B2
:205F80005FB9A80D08740226FC74000836FD0886068C828D838EF01294DFFCA31294DFFD0F
:205FA000A31294DFFE8A828B838FF0EC128EF2A3ED128EF2A3EE128EF28A828B838FF012B4
:205FC00094DFFAA31294DFFBA31294DFFF74082AFA74003BFB8A828B838FF01294DFFAA305
:205FE0001294DFFBA31294DFFF900F99EAF0EBA3F0EFA3F0E50D2407F8900F9FE6F0850D2D
:2060000081D00D22C00D85810DAD82AE83AFF0900F99E0FAA3E0FBA3E0FC74112AFA7400F5
:206020003BFBC002C003C0048D828E838FF012258F1581158115817401C0E0E50D24FCF89B
:206040008682088683128D7A1581D00D22C00D85810DC082C083C0F0058105810581900F33
:2060600099E0FAA3E0FBA3E0FC74112AFA74003BFBE50D24FCF886060886074307808A825C
:206080008B838CF0EE128EF2A3EF128EF2A80D08740126FD74000836FE0886078D828E8318
:2060A0008FF01294DFFDA31294DFFEA31294DFFF900F99E0FAA3E0FBA3E0FC74112AFA7466
:2060C000003BFB74022AFA74003BFB8A828B838CF0ED128EF2A3EE128EF2A3EF128EF2905A
:2060E0000F99E0FAA3E0FBA3E0FC74112AFA74003BFBE50D2404F874052AF674003B08F676
:2061000008A60474052DFD74003EFE8D828E838FF01294DFFAA31294DFFBA31294DFFCE530
:206120000D2404F886820886830886F0EA128EF2A3EB128EF2A3EC128EF28D828E838FF03F
:206140001294DFFAA31294DFFBA31294DFFCE50D2404F874022AF674003B08F608A60490E2
:206160000F99E0FAA3E0FBA3E0FC74112AFA74003BFBE50D2404F886820886830886F0EABA
:20618000128EF2A3EB128EF2A3EC128EF2900F99E0FAA3E0FBA3E0FC74112AFA74003BFBCA
:2061A0008D828E838FF0EA128EF2A3EB128EF2A3EC128EF2900F99E0FDA3E0FEA3E0FF74F7
:2061C000112DFD74003EFE740B2DFD74003EFE8D828E838FF0A80D08E6128EF2A308E61204
:2061E0008EF2A308E6128EF2A80D0886820886830886F01294DFFF0FA80D0886820886833F
:206200000886F0EF128EF27401C0E0E50D24FAF88682088683128D7A1581850D81D00D2288
:20622000C00D85810DE5812419F581AD82AE83AFF074042DFD74003EFE74022DFD74003EC2
:20624000FE8D828E838FF01294DFFDA31294DFFEA31294DFFF74082DFD74003EFE8D828EDF
:20626000838FF01294DFFDA31294DFFEA31294DFFFE50D2414F8A60508A60608A607E50D25
:206280002414F8741126FA74000836FB088604E50D2414F8741C26FD74000836FE088607D0
:2062A0008D828E838FF0E50D2417F81294DFF6A31294DF08F6A31294DF08F6E50D2414F831
:2062C000E50D2404F9741326F77400083609F708E609F7E50D2404F886820886830886F0BE
:2062E0001294DFFDA31294DFFEA31294DFFFE50D240AF874052DF674003E08F608A607E5D1
:206300000D2414F8A90D09741626F77400083609F708E609F7A80D0886820886830886F0E6
:206320001294DFFDA31294DFFEA31294DFFFE50D240AF886820886830886F0ED128EF2A3BD
:20634000EE128EF2A3EF128EF2A80D0886820886830886F01294DFFDA31294DFFEA3129454
:20636000DFFFE50D240AF874022DF674003E08F608A607E50D2404F886820886830886F080
:206380001294DFFDA31294DFFEA31294DFFFE50D240AF886820886830886F0ED128EF2A35D
:2063A000EE128EF2A3EF128EF2E50D2417F8E50D240AF9740126F77400083609F708E609C0
:2063C000F7E50D240AF886820886830886F01294DFFDA31294DFFEA31294DFFFC002C003C3
:2063E000C0048D828E838FF01200911581158115817002800302642CA80D08868208868378
:206400000886F01294DFFDA31294DFFEA31294DFFFE50D240AF886820886830886F0ED1281
:206420008EF2A3EE128EF2A3EF128EF2E50D2411F8740B2AF674003B08F608A604E50D2462
:2064400011F886820886830886F07400128EF2A3128EF2A3128EF2C002C003C004E50D24CD
:2064600017F886820886830886F01294DFFC1CE50D2417F886820886830886F0EC128EF29F
:20648000900FABE0D004D003D0026003026874E50D2414F8740326FC74000836FB08860220
:2064A000A80D08740B2CF674003B08F608A602A80D0886820886830886F01294DFFFA31294
:2064C00094DFFEA31294DFFDE50D2404F874022CF674003B08F608A602E50D2404F8868205
:2064E0000886830886F0E50D2407F91294DFF7A31294DF09F7A31294DF09F7E50D2407F816
:20650000740526F674000836F6E50D240DF874052CF674003B08F608A602E50D240DF8868A
:20652000820886830886F0E50D2411F91294DFF7A31294DF09F7A31294DF09F7E50D240741
:20654000F886820886830886F0E50D2411F9E7128EF2A309E7128EF2A309E7128EF2E50DD7
:20656000240DF886820886830886F0E50D2411F91294DFF7A31294DF09F7A31294DF09F76F
:20658000E50D2411F8740226F674000836F6E50D2404F886820886830886F0E50D2407F9E3
:2065A0001294DFF7A31294DF09F7A31294DF09F7E50D2411F886820886830886F0E50D2443
:2065C00007F9E7128EF2A309E7128EF2A309E7128EF2E50D2411F874012FF674003E08F68F
:2065E00008A605E50D2411F886820886830886F0E50D2407F91294DFF7A31294DF09F7A3D5
:206600001294DF09F7E50D2407F8C004C003C00286820886830886F012009115811581151C
:20662000817002800302666CE50D240DF886820886830886F0E50D2407F91294DFF7A31217
:2066400094DF09F7A31294DF09F7E50D2411F886820886830886F0E50D2407F9E7128EF25A
:20666000A309E7128EF2A309E7128EF2A80D0886820886830886F07400128EF2A3128EF241
:20668000A3128EF28F828E838DF0E50D2411F81294DFF6E50D2411F8E50D2411F9E614F75C
:2066A0008F828E838DF0E50D2411F8E6128EF2E50D2414F8741F26FF74000836FE08860587
:2066C0008F828E838DF0E50D2407F81294DFF6900F9FE50D2410F8E0F6E50D2407F8E50D52
:2066E0002410F9C3E79640030266F5E50D2407F8900F9FE6F08F828E838DF0E50D2410F8A7
:206700001294DFF6E50D2410F8E675F00CA4C8E50D2407C82428F6740F35F008F6E50D243A
:2067200007F88682088683A3E50D2417F8E0F6A3E008F6A3E008F6E50D2404F886820886F9
:20674000830886F0E50D2417F9E7128EF2A309E7128EF2A309E7128EF2E50D2417F8E50D38
:206760002407F9740526F77400083609F708E609F7E50D2407F886820886830886F0E50D21
:206780002404F91294DFF7A31294DF09F7A31294DF09F7E50D240DF886820886830886F05A
:2067A000E50D2404F9E7128EF2A309E7128EF2A309E7128EF2E50D2407F8868208868308CD
:2067C00086F0E50D240DF91294DFF7A31294DF09F7A31294DF09F7E50D240DF8740226F6AE
:2067E00074000836F6E50D240DF886820886830886F0EC128EF2A3EB128EF2A3EA128EF282
:20680000E50D2407F886820886830886F0EC128EF2A3EB128EF2A3EA128EF28F828E838D60
:20682000F01294DFFCEC75F00CA42428FC740F35F0FB7A00A80D0886820886830886F0EC41
:20684000128EF2A3EB128EF2A3EA128EF28F828E838DF01294DFFFEF75F00CA42428FF7481
:206860000F35F0FE8F828E83E0FD0D8F828E83EDF0026985900F77E50D2417F8E0F6A3E057
:2068800008F6A3E008F674022AFD74003BFE8C078D828E838FF0E50D2417F8E6128EF2A3BD
:2068A00008E6128EF2A308E6128EF2E50D240DF874052AF674003B08F608A604E50D2417F5
:2068C000F8E50D2407F9740526F77400083609F708E609F7E50D2407F886820886830886B8
:2068E000F01294DFFDA31294DFFEA31294DFFFE50D240DF886820886830886F0ED128EF2A8
:20690000A3EE128EF2A3EF128EF2E50D2407F886820886830886F01294DFFDA31294DFFEDC
:20692000A31294DFFF74022DFD74003EFE8D828E838FF0EA128EF2A3EB128EF2A3EC128E76
