:200000000200A732FFFFFFFFFFFFFF32FFFFFFFFFFFFFF32FFFFFFFFFFFFFF32FFFFFFFF88
:20002000FFFFFF020E2BFFFFFFFFFF32FFFFFFFFFFFFFF32FFFFFFFFFFFFFF32FFFFFFFF09
:20004000FFFFFF32FFFFFFFFFFFFFF32FFFFFFFFFFFFFF32FFFFFFFFFFFFFF32FFFFFFFFF4
:20006000FFFFFF32FFFFFFFFFFFFFF32FFFFFFFFFFFFFF020C77020284E58124FCC3C8C04F
:20008000E0C082E608467006E5824583601218E58296F58208E58396428208E5F096458263
:2000A000D082C8D0E0C82275812012939AE58260030200767928E94400601B7A0190947A93
:2000C000787275A00FE493F2A308B8000205A0D9F4DAF275A0FFE478FFF6D8FD7800E84428
:2000E00000600A790175A000E4F309D8FC7871E8440F600C7910900001E4F0A3D8FCD9FA8B
:2001000090000A7400F0A3F090000CF0A3F090000EF0A3F0900010F0A3F0900F157400F0D3
:20012000A3F0A3F00200767596295397FEE5EA75EA0075F80022C00D85810DAF82C007125E
:200140004C23D007E50D24FDF8E660030201A6C374079F50030201FAEF240A83F582EF2405
:200160000C83F583E473767C82888E949AA0010101010101010143F8020201FA43F8080242
:2001800001FA43F8200201FA43F8010201FA43F8040201FA43F8100201FA43F8400201FAD7
:2001A00043F8800201FAC374079F50030201FAEF240A83F582EF240C83F583E473CDD3D959
:2001C000DFE5EBF1F7010101010101010153F8FD0201FA53F8F70201FA53F8DF0201FA5382
:2001E000F8FE0201FA53F8FB0201FA53F8EF0201FA53F8BF0201FA53F87F124C2BD00D2239
:20020000AF827E007D00C007C006C005124C23D005D006D007C374079F5003020264EF24B2
:200220000A83F582EF240C83F583E4733C41464B50555A5F02020202020202027E02020249
:20024000667E080202667E200202667E010202667E040202667E100202667E400202667ECD
:20026000800202667D01BD0103020280EE55F8700302027DEEF4FFEF52F8020280EE42F8DC
:20028000124C2B2212037C120127758201120F3F758202121880758200121DD075820212EC
:2002A00011977400C0E0C0E0C0E0C0E074CDC0E074ABC0E07400C0E0745FC0E07400C0E067
:2002C000749EC0E07493C0E07480C0E07582A175830712436CE58124F4F5817400C0E0C011
:2002E000E0C0E0C0E0C0E0C0E0C0E0745FC0E07400C0E074A6C0E07493C0E07480C0E0750D
:20030000826375830412436CE58124F4F5817400C0E0C0E0C0E0C0E0C0E0C0E0C0E0745FA0
:20032000C0E07400C0E074A6C0E07493C0E07480C0E07582FF75830512436CE58124F4F5ED
:20034000817400C0E0C0E0C0E07403C0E07400C0E0C0E0C0E0745FC0E07400C0E074ABC0F7
:20036000E07493C0E07480C0E07582EF75830312436CE58124F4F581124BB52275962D530D
:2003800097DFC2AF53F67F53F17F75AEEF75920075910743E680D2AF53F7FE53D8FE120315
:2003A000A222C00D85810D0581058153ADF143AD0853ADFEA80D087610087627A80D08867B
:2003C00006088607A80D08EE24FFF6EF34FF08F6EE4F60030203BC850D81D00D22E5D8204E
:2003E000E0030203EB53D8FE0203EE43D801227F00900F72E0600302040A75828875831363
:20040000C007124B7FD0070204177582FA758300C007124B7FD007C007121F4AAE82D00799
:20042000BE01030204287F01C007121B23AE82D007BE01030204397F01C007121813AE8279
:20044000D007BE010302044A7F01BF01028003020458900F727401F0C0071203DDD0070288
:2004600003F122C00D85810DE581240CF581E50D2405F8762B08765208769A0876C4E50DAA
:200480002409F876DD08769A087612087645E50D2409F8E6C0E008E6C0E008E6C0E008E6D2
:2004A000C0E0E50D2405F886820886830886F008E6128C44AC82AD83AEF0FFE58124FCF5AC
:2004C00081A80D08A60408A60508A60608A607A80D08E6C0E008E6C0E008E6C0E008E6C00B
:2004E000E07582CD7583E475F08A7444128B76AF82E58124FCF581EF600302052B749AC043
:20050000E074E1C0E0748AC0E07444C0E0A80D0886820886830886F008E6128B76AF82E5A5
:200520008124FCF581EF7003020542C0E0C0A8C2AF900F727401F0D0E053E080E5E042A8F8
:20054000D0E0E50D2409F8E6C0E008E6C0E008E6C0E008E6C0E0E50D2405F8868208868378
:200560000886F008E6128FC3AC82AD83AEF0FFE58124FCF581A80D08A60408A60508A606E6
:2005800008A607A80D08E6C0E008E6C0E008E6C0E008E6C0E075825C75838F75F00274BF45
:2005A000128B76AF82E58124FCF581EF60030205DF7414C0E074AEC0E07407C0E074BFC0CB
:2005C000E0A80D0886820886830886F008E6128B76AF82E58124FCF581EF700302046EC023
:2005E000E0C0A8C2AF900F727401F0D0E053E080E5E042A8D0E002046E850D81D00D22C0C4
:200600000D85810DE581240CF581E50D2409F876450876D20876400876C6E50D2405F87601
:200620005C0876350876B7087646E50D2405F8E6C0E008E6C0E008E6C0E008E6C0E0E50D7D
:200640002409F886820886830886F008E6128C44AC82AD83AEF0FFE58124FCF581A80D085A
:20066000A60408A60508A60608A607A80D08E6C0E008E6C0E008E6C0E008E6C0E075829A36
:2006800075839875F02D7446128B76AF82E58124FCF581EF60030206C77433C0E07498C00A
:2006A000E0742DC0E07446C0E0A80D0886820886830886F008E6128B76AF82E58124FCF5BE
:2006C00081EF70030206DEC0E0C0A8C2AF900F727401F0D0E053E080E5E042A8D0E0E50DAE
:2006E0002405F8860408860508860608E6B2E7FFC004C005C006C007E50D2409F886820865
:2007000086830886F008E6128FC3AC82AD83AEF0FFE58124FCF581A80D08A60408A60508E7
:20072000A60608A607A80D08E6C0E008E6C0E008E6C0E008E6C0E07582147583AE75F0074E
:20074000743F128B76AF82E58124FCF581EF6003020781745CC0E0748FC0E07402C0E0742D
:200760003FC0E0A80D0886820886830886F008E6128B76AF82E58124FCF581EF70030206AE
:200780000AC0E0C0A8C2AF900F727401F0D0E053E080E5E042A8D0E002060A850D81D00D9C
:2007A000227420B581030207C0C0E0C0A8C2AF900F727401F0D0E053E080E5E042A8D0E0D0
:2007C0008500E0E5E070030207E1C0E0C0A8C2AF900F727401F0D0E053E080E5E042A8D0C1
:2007E000E08501E07401B5E003020803C0E0C0A8C2AF900F727401F0D0E053E080E5E04240
:20080000A8D0E08502E07402B5E003020825C0E0C0A8C2AF900F727401F0D0E053E080E5A5
:20082000E042A8D0E08503E07403B5E003020847C0E0C0A8C2AF900F727401F0D0E053E0A4
:2008400080E5E042A8D0E08504E07404B5E003020869C0E0C0A8C2AF900F727401F0D0E02E
:2008600053E080E5E042A8D0E08505E07405B5E00302088BC0E0C0A8C2AF900F727401F067
:20088000D0E053E080E5E042A8D0E08506E07406B5E0030208ADC0E0C0A8C2AF900F727464
:2008A00001F0D0E053E080E5E042A8D0E08507E07407B5E0030208CFC0E0C0A8C2AF900F15
:2008C000727401F0D0E053E080E5E042A8D0E074CDB582030208EEC0E0C0A8C2AF900F7282
:2008E0007401F0D0E053E080E5E042A8D0E074ABB5830302090DC0E0C0A8C2AF900F727461
:2009000001F0D0E053E080E5E042A8D0E0E5F00207A122C00D85810DE581240EF581AD8266
:20092000AE83AFF0E50D240CF8A60508A60608A607A80D0874012DF674003E08F608A607FF
:20094000E50D24FCF886020886037C807F008A06A80D0886820886830886F0EE128B5BE54A
:200960000D2404F8A60308A60408A607087600A80D08740126FD74000836FE088607E50D30
:200980002404F886028D828E838FF0EA128B5B0DBD00010E8D828E838FF074AA128B5B0D93
:2009A000BD00010E8D828E838FF07480128B5BE50D2404F874012DF674003E08F608A607D1
:2009C000E50D24F9F886020886030886047F008A06E50D2404F886820886830886F0EE12AD
:2009E0008B5BE50D2408F8A60308A60408A607087600E50D2404F8740126FD74000836FE13
:200A0000088607E50D2408F886028D828E838FF0EA128B5BE50D2408F808E618F60808E61A
:200A200018F60808E618F60876000DBD00010EE50D2408F886028D828E838FF0EA128B5B2E
:200A40000DBD00010E8D828E838FF07402128B5B0DBD00010E8D828E838FF07403128B5BC9
:200A60000DBD00010E8D828E838FF07404128B5B0DBD00010E8D828E838FF07405128B5BA5
:200A80000DBD00010E8D828E838FF07406128B5B0DBD00010E8D828E838FF07407128B5B81
:200AA0000DBD00010E8D828E838FF07400128B5B0DBD00010E8D828E838FF07401128B5B6D
:200AC0000DBD00010E8D828E838FF07400128B5B0DBD00010E8D828E838FF074BB128B5B93
:200AE000E50D240CF88602EDC39AFDE50D240CF886820886830886F0ED128B5BE50D240C55
:200B0000F886820886830886F0850D81D00D22120D74759600900F87E0FDA3E0FEA3E0FF90
:200B20008D828E838FF0129086F509A3129086F50A750B20850982850A83E0F5080509E495
:200B4000B50902050A050BA90B850982850A83E0FFA7071508E5086003020B3D850B81D0BB
:200B60000DD0D0D001D000D007D006D005D004D003D002D0F0D083D082D0E020E705C2AF9A
:200B8000020B85D2AFD0E0327582012222C0E0C0A8C2AFC082C083C0F0C002C003C004C06D
:200BA00005C006C007C000C001C0D075D000C00D900F87E0FDA3E0FEA3E0FF8D828E838FCB
:200BC000F0129086F509A3129086F50A750B21AF81EF24E0F508850982850A83E508F0E590
:200BE000087003020C010509E4B50902050A850982850A83A90B8707EFF0050B1508020B2D
:200C0000DF125AD7900F87E0FDA3E0FEA3E0FF8D828E838FF0129086F509A3129086F50A1D
:200C2000750B20850982850A83E0F5080509E4B50902050A050BA90B850982850A83E0FF8F
:200C4000A7071508E5086003020C2C850B81D00DD0D0D001D000D007D006D005D004D003E7
:200C6000D002D0F0D083D082D0E020E705C2AF020C74D2AFD0E032759107C0E0C0A8C2AFA5
:200C8000C082C083C0F0C002C003C004C005C006C007C000C001C0D075D000C00D900F873B
:200CA000E0FDA3E0FEA3E0FF8D828E838FF0129086F509A3129086F50A750B21AF81EF24E1
:200CC000E0F508850982850A83E508F0E5087003020CEE0509E4B50902050A850982850A7C
:200CE00083A90B8707EFF0050B1508020CCC12532FE5827003020CFB125AD753F17F53AECB
:200D0000F7900F87E0FDA3E0FEA3E0FF8D828E838FF0129086F509A3129086F50A750B20A7
:200D2000850982850A83E0F5080509E4B50902050A050BA90B850982850A83E0FFA707156B
:200D400008E5086003020D29850B81D00DD0D0D001D000D007D006D005D004D003D002D009
:200D6000F0D083D082D0E020E705C2AF020D71D2AFD0E032AF96759600C2AF43F68053F110
:200D80007F53AEF75393FE7594007595205393F75393FD43930275962D5397EF43971053DF
:200DA00093FB85939343E6804393018F9622C00D85810DC0E0C0A8C2AFAF96750C01C0074C
:200DC0007400C0E004C0E0E50D24FDF886821229F7AC82AD83AEF015811581D00790000186
:200DE000ECF0EDA3F0EEA3F0C0077400C0E004C0E0E50D24FDF886821229F7AC82AD83AE46
:200E0000F015811581D007900004ECF0EDA3F0EEA3F08F96D0E053E080E5E042A8D0E07512
:200E2000820075830075F000D00D22C020C0E0C0F0C082C083C007C006C005C004C003C086
:200E400002C001C000C0D075D000C0E0C0A8C2AFD0E053E080E5E042A8D0E0D0D0D000D0BF
:200E600001D002D003D004D005D006D007D083D082D0F0D0E0D02032C00D85810DE50D2449
:200E8000FBF88605088606088607900001E0FAA3E0FBA3E0FCE50D24F9F8E6C0E008E6C008
:200EA000E0C005C006C0078A828B838CF012313DAF82E58124FBF581EF7003020EC4758291
:200EC00001020EC7758200D00D22C00D85810DC0E0C0A8C2AF7401B50C028003020EE775C4
:200EE0000C007F01020F2EE50D24FDFE8E077D007C40900004E0FAA3E0FBA3E0FE7400C0A7
:200F0000E0E50D24FBF8E6C0E008E6C0E0C007C005C0048A828B838EF0122BA2AE82E58177
:200F200024FAF5818E07EE6003020F2E7F01D0E053E080E5E042A8D0E08F82D00D2222C0C4
:200F40000D85810DC082E5812404F581A80D08087600A80D0808B60800400302103B7582E6
:200F600003758300122616AB82AC83ADF0E50D2403F8A60308A60408A605E50D2403F88679
:200F8000820886830886F0A90D0909E7128B5BE50D2403F8740126FA74000836FE088607AE
:200FA000A80D080886047D00C007C006C002C004C00575827D758300128BA6AC82AD83156B
:200FC000811581D002D006D007747D2CFC74003DFD8A828E838FF0EC128B5BA3ED128B5BAC
:200FE0008A828E838FF0EC128B5BA3ED128B5BE50D2403F886030886040886057400C0E016
:20100000C0E0C0E0A80D08E6C0E0C003C004C005745FC0E07400C0E074B4C0E07493C0E00B
:201020007480C0E075824175831012436CE58124F4F581A80D080806020F52850D81D00D09
:2010400022C00D85810D058105810581AD82AE83AFF07582B175839375F080C007C006C098
:201060000512112BD005D006D007A80D08A60508A60608A607A80D08740126FA74000836C6
:20108000FB0886048A828B838CF0129086FEA3129086FFEFC313CE13CEFF8E828F83C004E4
:2010A000C003C002124B7FD002D003D004A80D0886820886830886F0129086FF8F82C00406
:2010C000C003C002120200D002D003D0048A828B838CF0129086FAA3129086FBEBC313CAF5
:2010E00013CAFB8A828B83124B7FA80D0886820886830886F0129086FF8F82120200021070
:2011000075850D81D00D227400C0E07403C0E07582141229F7AD82AE83AFF0158115819025
:201120000007EDF0EEA3F0EFA3F02222C00D85810DC082C083058105810581E50D2403FD77
:201140007C007B40900007E0FAA3E0FEA3E0FFA80D08E6C0E008E6C0E0C005C004C0038A3D
:20116000828E838FF012313DAF82E58124FBF581BF01028003021188E50D2403F8868208B0
:2011800086830886F002119175820075830075F000850D81D00D22C00D85810DC082E58136
:2011A0002406F581758208758300122616AC82AD83AEF0E50D2405F8A60408A60508A6062A
:2011C000E50D2405F8E60846700302135A7403C0E07400C0E07582011229F7AA82AB83AF88
:2011E000F015811581E50D2405F886820886830886F0EA128B5BA3EB128B5BA3EF128B5B37
:20120000E50D2405F886820886830886F0129086FEA3129086FDA3129086FCEA4B700302C5
:20122000123F7400C0E0C0E0C0E0C0E0C0E0C0E08E828D838CF0122BA2E58124FAF581E5CF
:201240000D2405F886820886830886F0129086FAA3129086FBA3129086FFEA4B700302135A
:201260005AE50D2405F8740326FA74000836FB088607758204758300C007C003C0021226B1
:2012800016AC82AD83AEF0D002D003D0078A828B838FF0EC128B5BA3ED128B5BA3EE128B8D
:2012A0005B8C828D838EF074FF128B5BA37400128B5BA3128B5BA3128B5BE50D2405F87400
:2012C0000626FD74000836FE0886078D828E838FF07400128B5BA3128B5BE50D2405F88661
:2012E000040886050886067400C0E0C0E0C0E0C0E0C004C005C006745FC0E07400C0E07485
:20130000D9C0E07493C0E07480C0E075821775831512436CE58124F4F581E50D2405F886B0
:20132000040886050886067400C0E0C0E0C0E0C0E0C004C005C006745FC0E07400C0E07444
:20134000E1C0E07493C0E07480C0E075821775831512436CE58124F4F5817582087583000A
:20136000122616AD82AE83AFF0A80D0808A60508A60608A607A80D0808E6084670030215C4
:20138000117403C0E07400C0E07582011229F7AA82AB83ACF015811581A80D0808868208F0
:2013A00086830886F0EA128B5BA3EB128B5BA3EC128B5BA80D080886820886830886F01249
:2013C0009086FFA3129086FEA3129086FDEA4B70030213F17400C0E0C0E0C0E0C0E0C0E025
:2013E000C0E08F828E838DF0122BA2E58124FAF581A80D080886820886830886F012908651
:20140000FAA3129086FBA3129086FCEA4B7003021511A80D0808740326FA74000836FB0864
:201420008604758204758300C004C003C002122616AD82AE83AFF0D002D003D0048A828B89
:20144000838CF0ED128B5BA3EE128B5BA3EF128B5B8D828E838FF074FF128B5BA3740F1253
:201460008B5BA37400128B5BA3128B5BA80D0808740626FD74000836FE0886078D828E8315
:201480008FF07464128B5BA37400128B5BA80D08088605088606088607C0E0C0E0C0E0A8ED
:2014A0000D08E6C0E0C005C006C007745FC0E07400C0E074E9C0E07493C0E07480C0E0750B
:2014C000821775831512436CE58124F4F581A80D080886050886060886077400C0E0C0E084
:2014E000C0E0A80D08E6C0E0C005C006C007745FC0E07400C0E074F1C0E07493C0E0748090
:20150000C0E075821775831512436CE58124F4F581850D81D00D22C00D85810DE5812411CE
:20152000F581AE82AC83ABF0E50D2408F87400F608F6C0E0C0A8C2AF900F7BE0FAA3E0FFCE
:20154000E50D240DF8A60208A607900F7BE0FAA3E0FD900F7B74012AF074003DA3F0D0E002
:2015600053E080E5E042A8D0E07582D675839375F080C006C004C00312112BD003D004D00A
:2015800006E50D240AF8A60608A60408A603E50D240AF8740326FB74000836FE0886078B9E
:2015A000828E838FF0E50D240FF8129086F6A312908608F6A312908608F6E50D240AF8A98B
:2015C0000D09740626F77400083609F708E609F7A80D0886820886830886F0129086FEA3A1
:2015E000129086FFEE4F70030215FEE50D2404F876FF08760F740008F608F602160DE50D64
:201600002404F876FF740008F608F608F6A80D0886820886830886F0129086FEA312908682
:20162000FFE50D240AF886820886830886F0129086FBA3129086FCA3129086FDC006C007BD
:201640008B828C838DF01233FDAF8215811581BF010280030217ECE50D240FF88682088655
:20166000830886F0129086FBA3129086FDA3129086FEA3129086FFE50D2404F8E6B5031229
:2016800008E6B5050D08E6B5060808E6B507030216A87582D375839375F08012112BE50DFD
:2016A0002408F876010876007B007E007D007F00E50D2404F8C3E69B08E69E08E69D08E6C1
:2016C0009F5003021712E50D240FF886820886830886F0EB128B5BA3EE128B5BA3ED128BA0
:2016E0005BA3EF128B5BE50D240FF886820886830886F0129086A3129086A3129086A312DE
:2017000090860BBB00090EBE00050DBD00010F0216B0E50D240AF886820886830886F012B0
:201720009086FDA3129086FEA3129086FF7400C0E0C0E0C0E0C0E0C0E0C0E08D828E838F20
:20174000F0122BA2AF82E58124FAF581EF60030217687582D375839375F08012112BE50D42
:201760002408F87601087600E50D2408F8E6084660030217B9E50D240DF88606088607C3D2
:20178000EE9404EF6480948040030217B9E50D240DF8E625E0FE08E633FFEE2473FEEF34FD
:2017A0000FFF8E828F83E0FCA3E0FD0CBC00010D8E828F83ECF0EDA3F0A80D0886820886F6
:2017C000830886F0129086FEA3129086FFC006C00775820A758300128BA6AE82AF83158157
:2017E00015818E828F83124B7F02160DA80D0886820886830886F0129086FEA3129086FFEC
:20180000EE4F600302160D120B8D02160D850D81D00D227F017E00EE75F002A4FCADF0ECA6
:20182000240AF582ED3400F583E0FAA3E0FBEC2473F582ED340FF583E0FCA3E0FDEAB50471
:2018400006EBB50502800302184C7F00EE75F002A4FCADF0EC240AFAED3400FBEC2473F539
:2018600082ED340FF583E0FCA3E0FD8A828B83ECF0EDA3F00EBE040050030218178F8222E5
:20188000AF82C0077400C0E07402C0E075820A1229F7AC82AD83AEF015811581D007900064
:2018A00012ECF0EDA3F0EEA3F0EC4D7003021926C0077400C0E0C0E0C0E0C0077412C0E044
:2018C0007400C0E07400C0E0745FC0E07400C0E07450C0E07494C0E07480C0E07582FB7552
:2018E000831912436CE58124F4F581D0077400C0E0C0E0C0E0C0077412C0E07400C0E074F7
:2019000000C0E0745FC0E07400C0E07458C0E07494C0E07480C0E075822775831912436C08
:20192000E58124F4F58122C00D85810DC082C083C0F0058105810581E50D2404F87400F66E
:2019400008F67C00E50D2406F87600C004E50D2404FA7C007F40A80D088603088605088609
:20196000068B828D838EF0129086FBA3129086FDA3129086FEC0047400C0E0C0E0C0E0C03A
:2019800002C004C0078B828D838EF0122BA2AF82E58124FAF581D004BF0105D0040219A7E6
:2019A000D0047C010219CFEC60030219C4C0E0C0A8C2AF900F7EE004F0D0E053E080E5E02C
:2019C00042A8D0E0E50D2404F806B600020806E50D2406F806E50D2406F8C3E664809483BD
:2019E000500302194B758222758300C004124B7FD004021944850D81D00D22C00D85810D58
:201A0000C082C083C0F00581058105817B007C00E50D2406F87600C003C004A80D088602B2
:201A20000886060886078A828E838FF0129086FBA3129086FCA3129086FD8B828C838DF096
:201A4000C007C006C004C003C002123B9CE582D002D003D004D006D007D004D0037003021E
:201A60001B09C003C004E50D2404FD8D037C007D408A828E838FF0129086FAA3129086FE54
:201A8000A3129086FFC004C0037400C0E0C0E0C003C004C0058A828E838FF012313DAF82A8
:201AA000E58124FBF581D003D004BF01028007D004D003021A17D004D003E50D2404F8E6C2
:201AC000B5030808E6B50403021ADFE50D2406F87601E50D2404F88603088604021B01E5E6
:201AE0000D2406F8E66003021B01C0E0C0A8C2AF900F7DE004F0D0E053E080E5E042A8D005
:201B0000E00BBB00010C021A1775820E758300C004C003124B7FD003D004021A17850D8192
:201B2000D00D22900F7DE07003021B35900F7EE06003021B3A7F00021B3C7F01900F7D7446
:201B400000F0900F7EF08F8222C00D85810DAF82E50D24F9F8900F82E6F0C0077418C0E053
:201B6000E50D24FAF886820886830886F008E6120DAE1581D0078F061EC0077400C0E0C050
:201B8000E0C0E0C006C0E0C0E0C0E0745FC0E07400C0E07460C0E07494C0E07480C0E07573
:201BA00082E675831B12436CE58124F4F581D0077400C0E0C0E0C0E0C007C0E0C0E0C0E023
:201BC000745FC0E07400C0E07466C0E07494C0E07480C0E075828175831C12436CE58124F1
:201BE000F4F581D00D227F41900F7FE0FCA3E0FDA3E0FEC0077400C0E0C0E0C0078C828DE4
:201C0000838EF0120ECAAE82158115811581D007BE01028003021C26900F82E0FE8E82C0B9
:201C200007120200D0070FC374589F4003021BE8900F82E0FF7400C0E08F82120136158129
:201C4000125292AE82AF8374032EFE74003FFF7496C0E07400C0E08E828F83129277AE82AC
:201C6000AF8315811581C3EE9432EF94004003021C767E327F008E828F83124B7F021BE605
:201C800022C00D85810DE5812405F5817F00E50D2404F876007B41C007E50D2405FCA80DE7
:201CA00008A604087600087640900F7FE0FDA3E0FEA3E0FFC004C00374FFC0E0C0E0A80D49
:201CC00008E6C0E008E6C0E008E6C0E08D828E838FF0120E78AF82E58124FBF581D003D054
:201CE00004EFD0077003021D16E50D2405F8E6B503028003021D11900F82E0FE0E8E82C02F
:201D000007C004C003120200D003D004D007021D167F01021D280BC3745864808BF063F05B
:201D20008095F04003021C97900F82E0FE0EC007C0047400C0E08E821201361581D004D067
:201D400007BF01028003021D988C06E50D2405F8B65803021D8D8E077C007B40C006900FED
:201D60007FE0FAA3E0FDA3E0FEC00674FFC0E0C0E0C007C004C0038A828D838EF0120E7810
:201D8000E58124FBF581D006D006021D4BE50D2404F8067F00021C95E50D2404F8C3E664C9
:201DA0008094824003021C95900F83E004F0021C95850D81D00D22900F83E06003021DC593
:201DC0007F00021DC77F01900F837400F08F8222AF827D007E00ED2484FBEE340FFC7A0002
:201DE000C007C006C0057400C0E0C0E0C0E0C007C003C004C002745FC0E07400C0E0746CC6
:201E0000C0E07494C0E07480C0E075823775831E12436CE58124F4F581D005D006D0070D5E
:201E2000BD00010E8D038E04C3EB9401EC648094805003021DD622C00D85810DE5812407B2
:201E4000F581AD82AE83AFF07B007C00E50D2405F8A60508A60608A607C003C004A80D08AB
:201E6000767B740008F608F608F6A80D08744726F674940836F674030836F674000836F6E0
:201E8000A80D08E6C0E008E6C0E008E6C0E008E6C0E07582FD7583FF75F0FF74FF1290A24F
:201EA000AA82AB83ACF0FFE58124FCF581A80D08A60208A60308A60408A607C0037407C0B6
:201EC000E07400C0E0C0E0C0E0A80D0886820886830886F008E6128CE6AC82AD83AEF0FF0D
:201EE000E58124FCF581D003A80D08A60408A60508A60608A607A80D08B61B1308B6770FAB
:201F000008B6FE0B08B6FF07D004D003021F17D004D0037B017C00EB4C6003021E59C0E005
:201F2000C0A8C2AFE50D2405F886820886830886F07401128B5BD0E053E080E5E042A8D0CF
:201F4000E0021E59850D81D00D227F017D007E00ED2484FBEE340FFC8B828C83E06003027D
:201F60001F647F00ED2484F582EE340FF5837400F00DBD00010E8D038E04C3EB9401EC64B8
:201F80008094805003021F508F8222C00D85810DC082C083C0F0058105810581A80D0874DE
:201FA0000126FF74000836FB088602A80D08E50D2404F9740426F77400083609F708E609B0
:201FC000F7E50D2404F886040886050886068F828B838AF0EC128B5BA3ED128B5BA3EE129F
:201FE0008B5BE50D2404F886820886830886F074FF128B5BA3128B5BE50D2404F87402269E
:20200000FF74000836FD088604E50D2404F886020886030886068F828D838CF0EA128B5B42
:20202000A3EB128B5BA3EE128B5BE50D2404F8740526FF74000836FD088604E50D2404F88E
:2020400086020886030886068F828D838CF0EA128B5BA3EB128B5BA3EE128B5BA80D088602
:20206000820886830886F07400128B5B850D81D00D22AD82AE83AFF0740B2DFD74003EFE79
:202080008D828E838FF07400128B5BA3128B5BA3128B5B22C00D85810DC082C083C0F0E5E3
:2020A000812409F581A80D08740126FA74000836FB0886048A828B838CF0E50D240AF812AB
:2020C0009086F6A312908608F6A312908608F6E50D24FBF8860208860308860474022AFD11
:2020E00074003BFE8C078D828E838FF0E50D240AF8E6128B5BA308E6128B5BA308E6128B54
:202100005BE50D2404F874052AF674003B08F608A604E50D240AF8E50D2407F9740526F796
:202120007400083609F708E609F7E50D2407F886820886830886F0129086FDA3129086FE65
:20214000A3129086FFE50D2404F886820886830886F0ED128B5BA3EE128B5BA3EF128B5B14
:20216000E50D2407F886820886830886F0129086FDA3129086FEA3129086FF74022DFD74E7
:20218000003EFE8D828E838FF0EA128B5BA3EB128B5BA3EC128B5BE50D2407F886820886CA
:2021A000830886F0EA128B5BA3EB128B5BA3EC128B5B740B2AFA74003BFB8A828B838CF04C
:2021C000A80D08E6128B5BA308E6128B5BA308E6128B5BA80D0886820886830886F012905C
:2021E00086FF0FA80D0886820886830886F0EF128B5B850D81D00D22C00D85810DC082C01C
:2022000083C0F0E581240BF581E50D24FBF886020886030886048A828B838CF0E50D240D13
:20222000F8129086F6A312908608F6E50D240DF8B6FF0608B6FF02800302227DC002C00381
:20224000C004A80D08740426FA74000836FB08860474052AFA74003BFB8A828B838CF0E564
:202260000D240AF8129086F6A312908608F6A312908608F6D004D003D002022307A80D0819
:20228000740426FD74000836FE088607E50D240AF8A60508A60608A607C002C003C004E504
:2022A0000D240AF8740226FD74000836FE0886078D828E838FF0129086FAA3129086FBA3E3
:2022C000129086FC8A828B838CF0129086FAA3129086FBE50D240DF8C3E69A08E69BD004A1
:2022E000D003D00250030223078D828E838FF0E50D240AF8129086F6A312908608F6A31267
:20230000908608F6022299E50D2404F874022AF674003B08F608A604E50D240AF8E50D24B7
:2023200007F9740226F77400083609F708E609F7E50D2407F886820886830886F012908696
:20234000FDA3129086FEA3129086FFE50D2404F886820886830886F0ED128B5BA3EE128B31
:202360005BA3EF128B5B74052DFD74003EFE8D828E838FF0EA128B5BA3EB128B5BA3EC127D
:202380008B5B74052AFD74003BFE8C078D828E838FF0E50D240AF8E6128B5BA308E6128BB4
:2023A0005BA308E6128B5BE50D2407F886820886830886F0EA128B5BA3EB128B5BA3EC1284
:2023C0008B5B740B2AFA74003BFB8A828B838CF0A80D08E6128B5BA308E6128B5BA308E67F
:2023E000128B5BA80D0886820886830886F0129086FF0FA80D0886820886830886F0EF1206
:202400008B5B850D81D00D22C00D85810DE581240FF581C8E50D240AC8A68208A68308A61E
:20242000F0E50D240AF8740B26FA74000836FB0886048A828B838CF0E50D240DF8129086DD
:20244000F6A312908608F6A312908608F6E50D240AF8A90D09740226F77400083609F708D0
:20246000E609F7A80D0886820886830886F0129086FDA3129086FEA3129086FFE50D240450
:20248000F874052DF674003E08F608A607E50D240AF8E50D2407F9740526F77400083609C4
:2024A000F708E609F7E50D2407F886820886830886F0129086FDA3129086FEA3129086FFD3
:2024C000E50D2404F886820886830886F0ED128B5BA3EE128B5BA3EF128B5BE50D2407F846
:2024E00086820886830886F0129086FDA3129086FEA3129086FFE50D2404F874022DF6746E
:20250000003E08F608A607A80D0886820886830886F0129086FDA3129086FEA3129086FFBE
:20252000E50D2404F886820886830886F0ED128B5BA3EE128B5BA3EF128B5BE50D240DF8DF
:20254000E50D2404F9740126F77400083609F708E609F7E50D2404F886820886830886F08D
:20256000129086FDA3129086FEA3129086FFE50D240AF8C005C006C0078682088683088692
:20258000F0120079158115811581700280030225C7E50D2407F886820886830886F01290CD
:2025A00086FDA3129086FEA3129086FFE50D2404F886820886830886F0ED128B5BA3EE12D4
:2025C0008B5BA3EF128B5B8A828B838CF07400128B5BA3128B5BA3128B5BE50D240DF886B2
:2025E000820886830886F0129086FF1FE50D240DF886820886830886F0EF128B5BE50D24D5
:202600000DF886820886830886F0129086FF8F82850D81D00D22C00D85810DC082C083056A
:202620008105810581E50D2403F87400F608F6087600124C23900F15E0F5F0A3E045F06004
:20264000030226577A157D007E007F00900F15EAF0EDA3F0EEA3F0A80D08E60846700302FA
:2026600026C0900F85E0FEA3E0FFA80D08E62EFC08E63FFDC3EC94FFED940E40030226C0FD
:20268000A80D08E62EFC08E63FFDC3EE9CEF9D40030226C0900F15E0FBA3E0FCA3E0FDEEC3
:2026A0002BFBEF3CFCE50D2403F8A60308A60408A605A80D08900F85E62EF008E63FA3F009
:2026C000124C2BE50D2403F886820886830886F0850D81D00D2222900F857400F0A3F02258
:2026E000900F85E0FEA3E0FF74FFC39EFE740E9FFF8E828F8322C00D85810DC082C083C0FB
:20270000F0E581240AF581E50D240DF87601A80D08E6084670030229E3A80D08742526FA45
:2027200074000836FB0886048A828B838CF0129086FFBF010050030229E3C002C003C00433
:202740008F037C00C002C003C0047582FF7583FF128B0FAB82AC8315811581D002A80D0872
:20276000E50D2407F9742626F77400083609F708E609F7E50D2407F886820886830886F040
:20278000129086FA7F00C3EB9AEC9FD004D003D00250030229E3C0E0C0A8C2AFA80D08E5D0
:2027A0000D240AF9740626F77400083609F708E609F7A80D0886820886830886F0E50D2444
:2027C00004F9129086F7A312908609F7A312908609F78A828B838CF0129086FFE50D24076D
:2027E000F886820886830886F0129086FE8FF0EEA4C8E50D2404C826FD08E635F0FE0886A7
:2028000007E50D240AF886820886830886F0ED128B5BA3EE128B5BA3EF128B5BA80D0874D9
:202820002426FD74000836FE0886078D828E838FF07400128B5BA80D08E50D2404F97403BA
:2028400026F77400083609F708E609F7A80D0886820886830886F0129086FDA3129086FE79
:20286000A3129086FFE50D2404F886820886830886F0ED128B5BA3EE128B5BA3EF128B5BED
:20288000E50D240AF8E50D2404F9740326F77400083609F708E609F7A80D08868208868303
:2028A0000886F0129086FDA3129086FEA3129086FF8A828B838CF0129086FA7C00E50D2498
:2028C0000AF8EA24FFF6EC34FF08F6E50D2407F886820886830886F0129086FB7C00C007C4
:2028E000C006C005C003C004E50D240AF88682088683128BA6AB82AC8315811581D005D025
:2029000006D007EB2DFDEC3EFEE50D2404F886820886830886F0ED128B5BA3EE128B5BA3E3
:20292000EF128B5BA80D08742726FD74000836FE0886078D828E838FF074FF128B5BA80D31
:2029400008742826FD74000836FE0886078D828E838FF074FF128B5BE50D24FDF8E660030D
:202960000229A5A80D08740C26FD74000836FE0886078D828E838FF012908670030229D5A8
:20298000A80D08740C26FD74000836FE0886078D828E838FF0125E86E58270030229D51211
:2029A0000B8D0229D5A80D08740C26FD74000836FE0886078D828E838FF0121F8BA80D08C2
:2029C000741826FD74000836FE0886078D828E838FF0121F8BD0E053E080E5E042A8D0E0E6
:2029E0000229EAE50D240DF87600E50D240DF88682850D81D00D22C00D85810DC0827C005E
:202A00007D007E00A80D08E67003022AD5C004C005C006A80D0886027B00C006C005C00446
:202A2000C002C0037582FF7583FF128B0FAA82AB8315811581D004D005D006E50D24FDF868
:202A400086057E00C3EA9DEB9ED006D005D0045003022AD5A80D08E50D24FDF986F0E7A4FD
:202A6000FAABF0C374D69A74FF9B5003022AD574292AFA74003BFB8A828B83122616AA82B9
:202A8000AB83AFF08A048B058F06EC4D7003022AD58C028D038E0774292AFA74003BFBC02B
:202AA00006C005C004C004C005C006E50D24FCF8E6C0E0C002C003C007E50D24FDF8E6C0AB
:202AC000E0A80D088682122AE0E58124F8F581D004D005D0068C828D838EF01581D00D228D
:202AE000C00D85810DC082E50D24FDF8E66003022B23E50D24F6F88604088605088606E576
:202B00000D24F6F886020886030886078C828D838EF0EA128B5BA3EB128B5BA3EF128B5B5A
:202B2000022B51E50D24F6F88604088605088606E50D24FAF886020886030886078C828D11
:202B4000838EF0EA128B5BA3EB128B5BA3EF128B5BE50D24F6F88605088606088607742531
:202B60002DFA74003EFB8F048A828B838CF0A80D08E6128B5B74262DFA74003EFB8F048A32
:202B8000828B838CF0E50D24FDF8E6128B5B7401C0E08D828E838FF01226F615811581D062
:202BA0000D22C00D85810DE5812411F581AD82AB83ACF0E50D240BF87600E50D240FF8A6AA
:202BC0000508A60308A604E50D24F8F8B60204740180027400FFE50D240CFEE50D2404F82F
:202BE000A606E50D2405F874242DF674003B08F608A604A80D0874252DF674003B08F608CE
:202C0000A604C0E0C0A8C2AFE50D2405F886820886830886F0129086FDA80D08868208866F
:202C2000830886F0129086FCC3ED9C5003022C36EF7003022CC8E50D24F8F8E6C0E0E50D96
:202C400024FBF8E6C0E008E6C0E008E6C0E0E50D240FF886820886830886F0123C37AC8254
:202C6000E58124FCF5818C07E50D240FF8741826FA74000836FB0886048A828B838CF01215
:202C800090867003022CAEE50D240FF8741826FA74000836FB0886048A828B838CF0125EC1
:202CA00086E5827003022CB7120B8D022CB7EF7003022CB7120B8DD0E053E080E5E042A83D
:202CC000D0E0758201022E9BE50D24F9F8E608466003022CE6D0E053E080E5E042A8D0E00D
:202CE000758200022E9BE50D240BF8E66003022D0F8E027B007C408A828B838CF0C007C08E
:202D000006126C76D006D007E50D240BF87601D0E053E080E5E042A8D0E0C007C006124CCF
:202D200023D006D007C0E0C0A8C2AFE50D240FF8742726FA74000836FB0886048A828B8319
:202D40008CF0129086FDBDFF028003022D598A828B838CF07400128B5BE50D240FF874284E
:202D600026FA74000836FB0886048A828B838CF0129086FDBDFF028003022D878A828B8328
:202D80008CF07400128B5BC007D0E053E080E5E042A8D0E0E50D24F9FCE50D2408F8A604F7
:202DA000087600087640E50D2404F886047D007F40C006E50D2408F8E6C0E008E6C0E00807
:202DC000E6C0E08C828D838FF0126CA8AF82158115811581D006EFD0076003022E85E50D11
:202DE000240FF886820886830886F0C007C0061242DDE582D006D0077003022E5FE50D2427
:202E00000FF8740C26FB74000836FC088605C007C006E50D24F9F8E6C0E008E6C0E08B8214
:202E20008C838DF0125C6A15811581D006D007E50D240FF886820886830886F0C007C00614
:202E40001240E8D006D007C007C006124C2BE582D006D0076003022C02120B8D022C02E50F
:202E60000D240FF886820886830886F0C007C0061240E8D006D007C007C006124C2BD00623
:202E8000D007022C02E50D240FF886820886830886F01240E8124C2B758200850D81D00DCD
:202EA00022C00D85810D058105810581AA82AB83ACF0A80D08A60208A60308A60474242AFE
:202EC000FD74003BFE8C078D828E838FF0129086FD74252AFC74003BFE8C078C828E838F44
:202EE000F0129086FCC3ED9C5003022EFAE50D24F7F8B602028003022FF9A80D087428260A
:202F0000FD74000836FE0886078D828E838FF0129086FFA80D08742426FC74000836FD087B
:202F200086068C828D838EF0129086C007E50D24F7F8E6C0E0E50D24FBF8E6C0E008E6C0B2
:202F4000E008E6C0E0A80D0886820886830886F0123C37E58124FCF581D007BFFF02800314
:202F6000022FC7A80D08741826FC74000836FD0886068C828D838EF01290867003022FF44F
:202F8000A80D08741826FC74000836FD0886068C828D838EF0125E86E5827003022FF4E50D
:202FA0000D24F8F8E608467003022FF4E50D24F8F886040886050886068C828D838EF0745D
:202FC00001128B5B022FF4C0071252BDAE82D0078F05C3ED9E4003022FF4A80D087428261B
:202FE000FC74000836FD0886060F8C828D838EF0EF128B5B7F01022FFB7F008F82850D81B1
:20300000D00D22C00D85810DE5812407F581C8E50D2404C8A68208A68308A6F0E50D24040F
:20302000F8742426FA74000836FB0886048A828B838CF0E50D2407F8129086F6E50D2404BE
:20304000F8742526FD74000836FE0886078D828E838FF0129086FDE50D2407F8C3E69D4018
:2030600003023133E50D2404F8A90D09742826F77400083609F708E609F7A80D08868208F0
:2030800086830886F0129086FFE50D2407F8E604FE8A828B838CF0EE128B5BBFFF028003C6
:2030A00002310BE50D2404F8741826FC74000836FD0886068C828D838EF012908670030296
:2030C000312EE50D2404F8741826FC74000836FD0886068C828D838EF0125E86E582700322
:2030E00002312EE50D24FBF8E60846700302312EE50D24FBF886040886050886068C828D09
:20310000838EF07401128B5B02312EC0071252BDAE82D0078F05C3ED9E400302312E0FA8B4
:203120000D0886820886830886F0EF128B5B7F010231357F008F82850D81D00D22C00D8520
:20314000810DE581240BF581AC82AD83AFF0E50D2408F87600E50D2409F8A60408A60508D1
:20316000A607E50D2405FEA80D08A606A80D080874242CF674003D08F608A607C0E0C0A835
:20318000C2AFA80D080886820886830886F0129086FC8C05EC7003023236C005E50D24FB0E
:2031A000F8E6C0E008E6C0E008E6C0E0E50D2409F886820886830886F0123F9115811581B9
:2031C0001581D005E50D2409F8742426FB74000836FC088607ED14FA8B828C838FF0EA12DF
:2031E0008B5BE50D2409F8740C26FB74000836FC0886078B828C838FF01290867003023284
:2032000025E50D2409F8740C26FB74000836FC0886078B828C838FF0125E86E58270030221
:203220003225120B8DD0E053E080E5E042A8D0E07582010233F7E50D24F9F8E60846600309
:20324000023254D0E053E080E5E042A8D0E07582000233F7E50D2408F8E660030232798E67
:20326000037C007F408B828C838FF0C006126C76D006E50D2408F87601D0E053E080E5E030
:2032800042A8D0E0C006124C23D006C0E0C0A8C2AFE50D2409F8742726FB74000836FC0875
:2032A00086078B828C838FF0129086FABAFF0280030232BF8B828C838FF07400128B5BE5A7
:2032C0000D2409F8742826FB74000836FC0886078B828C838FF0129086FABAFF02800302BF
:2032E00032ED8B828C838FF07400128B5BC006D0E053E080E5E042A8D0E0E50D24F9FF7C96
:20330000007B40A80D0886027D007E40C006C007C004C0038A828D838EF0126CA8AF821558
:203320008115811581D006D006EF60030233BEE50D2409F886820886830886F0C006124227
:2033400080E582D00670030233A0E50D2409F8741826FC74000836FD088607C006E50D2483
:20336000F9F8E6C0E008E6C0E08C828D838FF0125C6A15811581D006E50D2409F8868208AA
:2033800086830886F0C0061240E8D006C006124C2BE582D006600302317C120B8D02317CD9
:2033A000E50D2409F886820886830886F0C0061240E8D006C006124C2BD00602317CE50DC3
:2033C0002409F886820886830886F0C0061240E8D006C006124C2BD006E50D2409F8868217
:2033E0000886830886F0C006124280E582D006700302317C758200850D81D00D22C00D85EA
:20340000810DE581240BF581AC82AD83AFF0E50D240BF87600E50D2405F8A60408A605080F
:20342000A607E50D2408FEE50D2404F8A606A80D0874242CF674003D08F608A607C0E0C0CA
:20344000A8C2AFA80D0886820886830886F0129086FC8C07EC70030234C0EF14FCA80D0837
:2034600086820886830886F0EC128B5BE50D2405F8740C26FB74000836FC0886078B828C41
:20348000838FF012908670030234AFE50D2405F8740C26FB74000836FC0886078B828C8397
:2034A0008FF0125E86E58270030234AF120B8DD0E053E080E5E042A8D0E0758201023683B9
:2034C000E50D24FCF8E6084660030234DED0E053E080E5E042A8D0E0758200023683E50DD1
:2034E000240BF8E660030235038E037C007F408B828C838FF0C006126C76D006E50D240B0A
:20350000F87601D0E053E080E5E042A8D0E0C006124C23D006C0E0C0A8C2AFE50D2405F8D1
:20352000742726FB74000836FC0886078B828C838FF0129086FABAFF0280030235498B8204
:203540008C838FF07400128B5BE50D2405F8742826FB74000836FC0886078B828C838FF0C3
:20356000129086FABAFF0280030235778B828C838FF07400128B5BC006D0E053E080E5E048
:2035800042A8D0E0E50D24FCFF7C007B40E50D2404F886027D007E40C006C007C004C00360
:2035A0008A828D838EF0126CA8AF82158115811581D006D006EF600302364AE50D2405F8C5
:2035C00086820886830886F0C006124280E582D006700302362CE50D2405F8741826FC7471
:2035E000000836FD088607C006E50D24FCF8E6C0E008E6C0E08C828D838FF0125C6A15810C
:203600001581D006E50D2405F886820886830886F0C0061240E8D006C006124C2BE582D038
:2036200006600302343D120B8D02343DE50D2405F886820886830886F0C0061240E8D00611
:20364000C006124C2BD00602343DE50D2405F886820886830886F0C0061240E8D006C0068C
:20366000124C2BD006E50D2405F886820886830886F0C006124280E582D006700302343D84
:20368000758200850D81D00D22C00D85810DE581240DF581AD82AB83AFF07C00E50D240B9B
:2036A000F8A60508A60308A607E50D2408FEA80D08A606A80D080874242DF674003B08F64F
:2036C00008A607C0E0C0A8C2AFA80D080886820886830886F012908670030237BDE50D24B9
:2036E0000BF8740626FA74000836FB08860774032AFA74003BFB8A828B838FF0129086FEE7
:20370000A3129086FDA3129086FCC006C005C004E50D24FBF8E6C0E008E6C0E008E6C0E020
:20372000E50D240BF886820886830886F0123F91158115811581D004D005D006E50D240B95
:20374000F8740626FA74000836FB08860774032AFA74003BFB8A828B838FF0EE128B5BA32E
:20376000ED128B5BA3EC128B5BE50D240BF8741826FA74000836FB0886078A828B838FF03D
:2037800012908670030237ACE50D240BF8741826FA74000836FB0886078A828B838FF012F7
:2037A0005E86E58270030237AC120B8DD0E053E080E5E042A8D0E07582010239B3E50D24FE
:2037C000F9F8E6084660030237DBD0E053E080E5E042A8D0E07582000239B3EC600302371E
:2037E000F68E027B007F408A828B838FF0C006126C76D0067C01D0E053E080E5E042A8D081
:20380000E0C006C004124C23D004D006C0E0C0A8C2AFE50D240BF8742726FA74000836FB19
:203820000886078A828B838FF0129086FDBDFF0280030238408A828B838FF07400128B5B75
:20384000E50D240BF8742826FA74000836FB0886078A828B838FF0129086FDBDFF02800352
:2038600002386E8A828B838FF07400128B5BC004D0E053E080E5E042A8D0E0E50D24F9FF07
:20388000E50D2405F8A607087600087640A80D0886047D007F40C006C004E50D2405F8E626
:2038A000C0E008E6C0E008E6C0E08C828D838FF0126CA8AF82158115811581D004D006D01C
:2038C00004EF600302396EE50D240BF886820886830886F0C006C004124280E582D004D0D0
:2038E000067003023948E50D240BF8741826FB74000836FD088607C006C004E50D24F9F831
:20390000E6C0E008E6C0E08B828D838FF0125C6A15811581D004D006E50D240BF886820820
:2039200086830886F0C006C0041240E8D004D006C006C004124C2BE582D004D00660030209
:2039400036C3120B8D0236C3E50D240BF886820886830886F0C006C0041240E8D004D006AB
:20396000C006C004124C2BD004D0060236C3E50D240BF886820886830886F0C006C0041243
:2039800040E8D004D006C006C004124C2BD004D006E50D240BF886820886830886F0C00622
:2039A000C004124280E582D004D00670030236C3758200850D81D00D22C00D85810DC082C5
:2039C000C083C0F0A80D08742426FA74000836FB0886048A828B838CF0129086FA8A04EA10
:2039E0007003023AE2A80D08742726FA74000836FB0886078A828B838FF0129086FFC007F5
:203A0000C004E50D24FBF8E6C0E008E6C0E008E6C0E0A80D0886820886830886F0123F9101
:203A2000158115811581D004D007A80D08742426FB74000836FD0886061C8B828D838EF0A9
:203A4000EC128B5BBFFF028003023AB0A80D08740C26FC74000836FD0886068C828D838E05
:203A6000F01290867003023ADDA80D08740C26FC74000836FD0886068C828D838EF0125EF4
:203A800086E5827003023ADDE50D24F8F8E608467003023ADDE50D24F8F8860408860508BC
:203AA00086068C828D838EF07401128B5B023ADDC0071252BDAE82D0078F05C3ED9E400344
:203AC000023ADDA80D08742726FC74000836FD0886060F8C828D838EF0EF128B5B7F0102FC
:203AE0003AE47F008F82850D81D00D22C00D85810DAD82AE83AFF074242DFA74003EFB8F2C
:203B0000048A828B838CF01290867003023B9574062DFA74003EFB8F0474032AFA74003B73
:203B2000FB8A828B838CF0129086FAA3129086FBA3129086FCC007C006C005C004C003C0AC
:203B400002E50D24FBF8E6C0E008E6C0E008E6C0E08D828E838FF0123F9115811581158175
:203B6000D002D003D004D005D006D00774062DFD74003EFE74032DFD74003EFE8D828E8385
:203B80008FF0EA128B5BA3EB128B5BA3EC128B5B7F01023B977F008F82D00D22AD82AE8374
:203BA000AFF0C0E0C0A8C2AF74242DFD74003EFE8D828E838FF0129086FDD0E053E080E56F
:203BC000E042A8D0E08D8222AD82AE83AFF0C0E0C0A8C2AF74252DFA74003EFB8F048A82B6
:203BE0008B838CF0129086FA74242DFD74003EFE8D828E838FF0129086FDEAC39DFAD0E0EF
:203C000053E080E5E042A8D0E08A8222AD82AE83AFF074242DFD74003EFE8D828E838FF054
:203C2000129086FD8D8222AD82AE83AFF08D828E838FF01226D622C00D85810DC082C083FB
:203C4000C0F0E581240AF581A80D08742426FA74000836FB0886048A828B838CF0E50D244A
:203C60000DF8129086F6A80D08E50D240AF9742626F77400083609F708E609F7E50D240AD4
:203C8000F886820886830886F0129086FEEE7003023F76E50D24FAF8E66003023DF3C00212
:203CA000C003C0048E047D00A80D08E50D2404F9740326F77400083609F708E609F7E50D78
:203CC0002404F886820886830886F0129086FAA3129086FBA3129086FFC004C003C002C072
:203CE00004C005E50D24FBF8E6C0E008E6C0E008E6C0E08A828B838FF0128E6DE58124FB25
:203D0000F581D002D003D004E50D2404F886820886830886F0129086FCA3129086FDA3126A
:203D20009086FFE50D240AF886820886830886F0129086FBE50D2407F8EB2CF674003D08C1
:203D4000F608A607E50D2404F886820886830886F0E50D2407F9E7128B5BA309E7128B5B8F
:203D6000A309E7128B5BA80D08740626FA74000836FB0886078A828B838FF0129086FAA3C1
:203D8000129086FBA3129086FFE50D2407F8C002C003C00786820886830886F0120079159E
:203DA0008115811581D004D003D0025003023F76C002C003C004A80D088682088683088626
:203DC000F0129086FCA3129086FDA3129086FFE50D2404F886820886830886F0EC128B5BB0
:203DE000A3ED128B5BA3EF128B5BD004D003D002023F76C002C003C0047F00A80D08E50D0A
:203E00002407F9740626F77400083609F708E609F7E50D2407F8E50D2404F9740326F77417
:203E200000083609F708E609F7E50D2404F886820886830886F0129086FBA3129086FCA320
:203E4000129086FDC004C003C002C006C007E50D24FBF8E6C0E008E6C0E008E6C0E08B82AF
:203E60008C838DF0128E6DE58124FBF581D002D003D004E50D2404F886820886830886F08C
:203E8000129086FDA3129086FEA3129086FFE50D240AF886820886830886F0129086FC7B1C
:203EA00000EDC39CFDEE9BFEE50D2404F886820886830886F0ED128B5BA3EE128B5BA3EF89
:203EC000128B5BA80D0886820886830886F0129086FAA3129086FBA3129086FCC002C00362
:203EE000C0048D828E838FF0120079158115811581D004D003D0024003023F58C002C00338
:203F0000C004E50D2407F886820886830886F0129086FDA3129086FEA3129086FFE50D2463
:203F20000AF886820886830886F0129086FC7B00EDC39CFDEE9BFEE50D2404F886820886D1
:203F4000830886F0ED128B5BA3EE128B5BA3EF128B5BD004D003D002E50D24FAF8B602022D
:203F60008003023F76E50D240DF8E67003023F76E50D240DF816E50D240DF8E604FF8A829B
:203F80008B838CF0EF128B5B758200850D81D00D22C00D85810DC082C083C0F0E581240404
:203FA000F581A80D08742626FA74000836FB0886048A828B838CF0E50D2404F8129086F60F
:203FC000E50D2404F8E670030240E2C002C003C004A80D08740626FA74000836FB08860473
:203FE000E50D2405F874032AF674003B08F608A604E50D2405F886820886830886F012906C
:2040000086FDA3129086FEA3129086FFE50D2404F8E62DFD74003EFEE50D2405F886820895
:2040200086830886F0ED128B5BA3EE128B5BA3EF128B5B8A828B838CF0129086FAA3129004
:2040400086FBA3129086FCC002C003C0048D828E838FF0120079158115811581D004D0033C
:20406000D002500302409BA80D0886820886830886F0129086FDA3129086FEA3129086FF32
:20408000E50D2405F886820886830886F0ED128B5BA3EE128B5BA3EF128B5B8A828B838CD8
:2040A000F0129086FA7F00E50D2405F886820886830886F0129086FCA3129086FDA3129094
:2040C00086FEC002C007C004C005C006E50D24FBF886820886830886F0128E6DE58124FB52
:2040E000F581850D81D00D22C00D85810DC082C083C0F0E5812404F581C0E0C0A8C2AFA8FE
:204100000D08742826FA74000836FB0886048A828B838CF0E50D2404F8129086F6A80D080C
:20412000E50D2405F9741826F77400083609F708E609F7E50D2404F8C37400648086F0631C
:20414000F08095F040030241A1E50D2405F886820886830886F012908670030241A1A80D65
:2041600008741826FD74000836FE0886078D828E838FF0C004C003C002125E86E582D0022C
:20418000D003D0047003024198C004C003C002126DD6D002D003D004E50D2404F8160241A8
:2041A000338A828B838CF074FF128B5BD0E053E080E5E042A8D0E0C0E0C0A8C2AFA80D08D3
:2041C000742726FD74000836FE0886078D828E838FF0129086FCA80D08E50D2405F9740CC8
:2041E00026F77400083609F708E609F7C3740064808CF063F08095F04003024264E50D2412
:2042000005F886820886830886F01290867003024264C005C006C007A80D08740C26FA74A4
:20422000000836FB0886078A828B838FF0C007C006C005C004125E86E582D004D005D00625
:20424000D007D007D006D0057003024260C007C006C005C004126DD6D004D005D006D0072D
:204260001C0241EC8D828E838FF074FF128B5BD0E053E080E5E042A8D0E0850D81D00D2215
:20428000AD82AE83AFF0C0E0C0A8C2AF74242DFD74003EFE8D828E838FF012908660030208
:2042A00042A77F010242A97F00D0E053E080E5E042A8D0E08F8222AD82AE83AFF074242D70
:2042C000FD74003EFE8D828E838FF012908660030242D87F010242DA7F008F8222AD82AEBE
:2042E00083AFF0C0E0C0A8C2AF74242DFA74003EFB8F048A828B838CF0129086FA74252DA6
:20430000FD74003EFE8D828E838FF0129086FDEAB50502800302431D7F0102431F7F00D06E
:20432000E053E080E5E042A8D0E08F8222AD82AE83AFF074242DFA74003EFB8F048A828BC3
:20434000838CF0129086FA74252DFD74003EFE8D828E838FF0129086FDEAB50502800302DA
:2043600043677F010243697F008F8222C00D85810D058105810581AE82AF837582337583BD
:2043800000C007C006122616AB82AC83ADF0D006D007A80D08A60308A60408A605A80D0814
:2043A000E608467003024450C006C007A80D088602088606088607C007C0067433C0E0747D
:2043C00000C0E0C0E08A828E838FF0128F00158115811581D006D007A80D08742026FA740C
:2043E000000836FE088607E50D24F9F886040886058C828D83C007C006C002122616AB82E0
:20440000AC83ADF0D002D006D0078A828E838FF0EB128B5BA3EC128B5BA3ED128B5BD007EC
:20442000D006EB4C6003024450A80D0886030886040886058B828C838DF0C007C0061226AD
:20444000D6D006D007A80D087400F608F6087600A80D08E6084670030244DFE50D24F9F8A6
:2044600086020886037C007D007400C0E0C0E0C0E0A80D08E6C0E008E6C0E008E6C0E0E592
:204480000D24F2F8E6C0E008E6C0E008E6C0E0E50D24F5F8E6C0E0E50D24F6F8E6C0E00844
:2044A000E6C0E008E6C0E0C002C003C004C005E50D24FBF8E6C0E008E6C0E008E6C0E08EA1
:2044C000828F831244E9E58124ECF581A80D0886820886830886F01247CB7F010244E17F7F
:2044E000FF8F82850D81D00D22C00D85810DC082C083E581240CF581E50D24EDF8E50D2418
:2045000003F9E6F708E609F708E609F7E50D2403F8742026FA74000836FE0886078A828E42
:20452000838FF0E50D240CF8129086F6A312908608F6A312908608F6E50D240CF8E50D247F
:2045400006F9E6F708E609F708E609F7E50D2403F8E50D2409F9742B26F77400083609F70C
:2045600008E609F7E50D24F7F8E624FFFA08E634FFFE08E634FFFD08E634FFFFE50D240CC6
:20458000F8EA26FAEE0836FE088605E50D2409F886820886830886F0EA128B5BA3EE128B9E
:2045A0005BA3ED128B5BE50D24FBF8E608467003024640E50D2403F8742326FD7400083663
:2045C000FE0886077B00E50D2409F8EB2DF674003E08F608A607C005C006C007E50D24FBE0
:2045E000F8EB26FD74000836FE0886078D828E838FF0129086FCE50D2409F886820886837D
:204600000886F0EC128B5B8D828E838FF0129086D007D006D00570030246240BBB080050F2
:20462000030245C6E50D2403F8742A26FD74000836FE0886078D828E838FF07400128B5B48
:20464000E50D24F3F8B604005003024654E50D24F3F87603E50D2403F8741F26FD740008F3
:2046600036FE0886078D828E838FF0E50D24F3F8E6128B5BE50D2403F8740326FD740008CC
:2046800036FE0886078D828E838FF0122072E50D2403F8741126FD74000836FE0886078D83
:2046A000828E838FF0122072E50D2403F8740B26FD74000836FE088607E50D24EDF88602C9
:2046C0000886030886048D828E838FF0EA128B5BA3EB128B5BA3EC128B5BE50D2403F8E533
:2046E0000D2409F9741126F77400083609F708E609F7E50D24F3F886077E007404C39FFF60
:2047000074009EFEE50D2409F886820886830886F0EF128B5BA3EE128B5BE50D2403F874E6
:204720001926FD74000836FE0886078D828E838FF0EA128B5BA3EB128B5BA3EC128B5BE585
:204740000D24F4F8E6C0E008E6C0E008E6C0E0A80D08E6C0E008E6C0E0E50D2406F88682AD
:204760000886830886F0120913AF82AE83ADF0E58124FBF581E50D2403F886820886830850
:2047800086F0EF128B5BA3EE128B5BA3ED128B5BE50D24F0F8E6084670030247C5E50D24E2
:2047A000F0F886050886060886078D828E838FF0E50D2403F8E6128B5BA308E6128B5BA3A3
:2047C00008E6128B5B850D81D00D22C00D85810DC082C083C0F0E581240CF581C0E0C0A8B8
:2047E000C2AF900F8AE004F0900F87E0FAA3E0FBA3E0FCEA4B600302481DA80D08900F876C
:20480000E6F008E6A3F008E6A3F0900F8AE0FCBC01028003024874126DF5024874900F8E5C
:20482000E06003024874900F87E0FAA3E0FBA3E0FC741F2AFA74003BFB8A828B838CF01271
:204840009086FAA80D08741F26FB74000836FC0886078B828C838FF0129086FBC3EB9A503E
:2048600003024874A80D08900F87E6F008E6A3F008E6A3F0900F93E02401F0A80D08741F45
:2048800026FD74000836FE0886078D828E838FF0129086FC900F8DE0FBC3EB9C400302480F
:2048A000A6900F8DECF08D828E838FF0129086FCEC75F00CA42418FB740F35F0FC8B828C12
:2048C00083A3E50D240DF8E0F6A3E008F6A3E008F6A80D08E50D2407F9740326F7740008DC
:2048E0003609F708E609F7E50D2407F8740226FA74000836FB0886048A828B838CF0E50D22
:20490000240DF8E6128B5BA308E6128B5BA308E6128B5BE50D2407F8E50D2404F9740526B7
:20492000F77400083609F708E609F7E50D240DF8E50D240AF9740526F77400083609F7085C
:20494000E609F7E50D240AF886820886830886F0129086FAA3129086FBA3129086FCE50D21
:204960002404F886820886830886F0EA128B5BA3EB128B5BA3EC128B5BE50D240AF8868271
:204980000886830886F0129086FAA3129086FBA3129086FC74022AFA74003BFB8A828B837B
:2049A0008CF0E50D2407F8E6128B5BA308E6128B5BA308E6128B5BE50D240AF886820886C8
:2049C000830886F0E50D2407F9E7128B5BA309E7128B5BA309E7128B5BE50D2407F8E50DC4
:2049E000240AF9740B26F77400083609F708E609F78D828E838FF0129086FCEC75F00CA490
:204A00002418FC740F35F0FB8C027C00E50D240AF886820886830886F0EA128B5BA3EB1280
:204A20008B5BA3EC128B5B8D828E838FF0129086FCEC75F00CA42418FB740F35F0FC8B825D
:204A40008C83E0FA0A8B828C83EAF0D0E053E080E5E042A8D0E0900F8EE07003024A9190BE
:204A60000F87E0FAA3E0FBA3E0FC741F2AFA74003BFB8A828B838CF0129086FA8D828E8390
:204A80008FF0129086FDC3EA9D4003024A91120B8D850D81D00D22C00D85810DC082C083E7
:204AA000C0F0058105817E00C006124C23D006900F8BE0FAA3E0FBE50D2404F8A60208A6B5
:204AC00003A80D0886820886830886F0129086FBA3129086FCE50D24FCF8E62BFD08E63C53
:204AE000FF8D02E50D2404F8C3E69B08E69C4003024B12C3EA9BEF9C4003024B2EE50D24FF
:204B000004F8C3E69A08E69F4003024B2E7E01024B2EC3EA9BEF9C5003024B2CE50D240458
:204B2000F8C3E69A08E69F4003024B2E7E01A80D0886820886830886F0EA128B5BA3EF1296
:204B40008B5BEE7003024B66E50D2404F8EAC396FAEF0896FFC0067400C0E08A828F831276
:204B600089E31581D006C006124C2BE582D0066003024B77120B8D8E82850D81D00D22AE30
:204B800082AF837D00EE4F7003024BABC007C006124C23D006D0077400C0E08E828F831239
:204BA00089E31581124C2BAF828F05ED6003024BB4120B8D227496C0E0740FC0E07400C087
:204BC000E0C0E0C0E0C0E0C0E0745FC0E07400C0E07475C0E07494C0E07480C0E07582DD55
:204BE00075836D12436CAF82E58124F4F581BF01028003024C11C2AF900F9474FFF0A3F02C
:204C0000900F8E7401F0900F8B7400F0A3F0120B0F909474E49322C2AF900F8E7400F01270
:204C20000B8C22900F99E02401F022C00D85810DE5812416F581E50D2410F87400F608F6F0
:204C4000087600E50D2413F87600C0E0C0A8C2AF900F99E014F0E0600302527A900F8AE090
:204C6000700302527A900F66E07003025214900F6CE0FAA3E0FBA3E0FC74082AFA74003B02
:204C8000FB8A828B838CF0129086FAA3129086FBA3129086FCE50D2410F8A60208A6030855
:204CA000A604E50D2410F8E50D2407F9741126F77400083609F708E609F7E50D2410F87442
:204CC0001C26FA74000836FB0886048A828B838CF0E50D2414F8129086F6A312908608F6BA
:204CE000A312908608F6E50D2410F8741326FA74000836FB0886048A828B838CF012908629
:204D0000FDA3129086FEA3129086FFE50D2404F874052DF674003E08F608A607E50D2410CA
:204D2000F8E50D240DF9741626F77400083609F708E609F7E50D240DF88682088683088656
:204D4000F0129086FDA3129086FEA3129086FFE50D2404F886820886830886F0ED128B5B1D
:204D6000A3EE128B5BA3EF128B5BE50D240DF886820886830886F0129086FDA3129086FE80
:204D8000A3129086FF74022DFD74003EFE8A828B838CF0129086FAA3129086FBA3129086B0
:204DA000FC8D828E838FF0EA128B5BA3EB128B5BA3EC128B5BE50D2414F8740126FC74003C
:204DC0000836FB0886028C828B838AF0129086FDA3129086FEA3129086FFE50D2407F8C0E7
:204DE00005C006C00786820886830886F012007915811581158170028003024E2CE50D24B6
:204E00000DF886820886830886F0129086FDA3129086FEA3129086FF8C828B838AF0ED12A9
:204E20008B5BA3EE128B5BA3EF128B5BE50D2407F8740B26FD74000836FE0886078D828EE0
:204E4000838FF07400128B5BA3128B5BA3128B5BE50D2414F886820886830886F0129086CD
:204E6000FF1FE50D2414F886820886830886F0EF128B5BE50D2410F8740326FD740008360A
:204E8000FE088607E50D2404F8740B2DF674003E08F608A607E50D2404F886820886830833
:204EA00086F0E50D2414F9129086F7A312908609F7A312908609F7E50D240DF874022DF6F0
:204EC00074003E08F608A607E50D240DF886820886830886F0129086FAA3129086FBA3121E
:204EE0009086FCA80D0874052AF674003B08F608A604E50D2407F874052DF674003E08F68A
:204F000008A607E50D2407F886820886830886F0129086FAA3129086FBA3129086FCA80DCC
:204F20000886820886830886F0EA128B5BA3EB128B5BA3EC128B5BE50D2407F88682088638
:204F4000830886F0129086FAA3129086FBA3129086FCA80D0874022AF674003B08F608A6F3
:204F600004E50D240DF886820886830886F0129086FAA3129086FBA3129086FCA80D088689
:204F8000820886830886F0EA128B5BA3EB128B5BA3EC128B5BE50D2414F8A90D0974012695
:204FA000F77400083609F708E609F7A80D0886820886830886F0129086FAA3129086FBA37B
:204FC000129086FCC005C006C0078A828B838CF0120079158115811581700280030250141D
:204FE000E50D2407F886820886830886F0129086FAA3129086FBA3129086FCA80D08868291
:205000000886830886F0EA128B5BA3EB128B5BA3EC128B5BC005C006C007E50D2404F88628
:20502000820886830886F07400128B5BA3128B5BA3128B5BE50D2414F886820886830886F4
:20504000F0129086FC1CE50D2414F886820886830886F0EC128B5BE50D2410F8E50D240A45
:20506000F9741F26F77400083609F708E609F7E50D240AF886820886830886F0129086FC14
:20508000900F8DE0FFC3EF9CD007D006D0054003025098900F8DECF0E50D240AF8868208D8
:2050A00086830886F0129086FCEC75F00CA42418FB740F35F0FC8B828C83A3E0FAA3E0FB52
:2050C000A3E0FCE50D240DF886820886830886F0EA128B5BA3EB128B5BA3EC128B5BA80DFB
:2050E0000874052AF674003B08F608A604A80D0886820886830886F0129086FAA31290866F
:20510000FBA3129086FCE50D2407F886820886830886F0EA128B5BA3EB128B5BA3EC128B8D
:205120005BA80D0886820886830886F0129086FAA3129086FBA3129086FC74022AFA740003
:205140003BFB8A828B838CF0ED128B5BA3EE128B5BA3EF128B5BA80D088682088683088627
:20516000F0ED128B5BA3EE128B5BA3EF128B5BE50D240AF886820886830886F0129086FF71
:20518000EF75F00CA42418FE740F35F0FF7D00E50D2404F886820886830886F0EE128B5B1E
:2051A000A3EF128B5BA3ED128B5BE50D240AF886820886830886F0129086FFEF75F00CA403
:2051C0002418FE740F35F0FF8E828F83E0FD0D8E828F83EDF0E50D240AF8868208868308AA
:2051E00086F0129086FF900F87E0FCA3E0FDA3E0FE741F2CFC74003DFD8C828D838EF012F8
:205200009086FCC3EF9C5003024C65900F917401F0024C65E50D2410F8E6084670030252C7
:2052200024126E5E900F8FE0FEA3E0FF8E048F05EE4F70030252678C068D07C007C0061288
:20524000532FE582D006D0077003025253900F917401F01EBEFF011FEE4F600302523B904F
:205260000F8F7400F0A3F0900F91E0700302527AE50D2413F87601120B8DD0E053E080E5BE
:20528000E042A8D0E0E50D2413F88682850D81D00D22C0E0C0A8C2AF900F8BE0FEA3E0FF56
:2052A000D0E053E080E5E042A8D0E08E828F8322900F8BE0FEA3E0FF8E828F8322900F8AF1
:2052C000E0FF8F8222AD82AE83AFF0ED4E60030252E0900F87E0FAA3E0FBA3E0FC0252E6B4
:2052E0008D028E038F0474232AFA74003BFB8A828B838CF022AE82AF83C007C006124C236E
:20530000D006D007C0E0C0A8C2AF900F8FE0FCA3E0FD900F8FEE2CF0EF3DA3F0D0E053E003
:2053200080E5E042A8D0E0124C2BAF828F8222C00D85810DE5812418F581E50D2410F87615
:2053400000900F99E06003025ABE900F8BE0FDA3E0FEE50D2414F874012DF674003E08F6C6
:20536000E50D2414F8900F8BE6F008E6A3F0E50D2414F8E6084660030253B4900F60E0FAEF
:20538000A3E0FBA3E0FC8B058C06900F63E0FBA3E0FCA3E0FF900F60EBF0ECA3F0EFA3F035
:2053A000900F63EAF0EDA3F0EEA3F0900F92E004F0126E5E900F94E0FBA3E0FCE50D241476
:2053C000F8C3E69B08E69C5003025A6D900F60E0FAA3E0FBA3E0FC8A828B838CF012908657
:2053E00060030253F0900F9474FFF0A3F0025A6D900F60E0FAA3E0FBA3E0FC74042AFA742D
:20540000003BFB74022AFA74003BFB8A828B838CF0129086FAA3129086FBA3129086FC7459
:20542000082AFA74003BFB8A828B838CF0129086FAA3129086FBA3129086FCE50D2411F832
:20544000A60208A60308A604E50D2411F8740326FD74000836FE0886078D828E838FF01292
:205460009086FFA3129086FEE50D2414F8C3E69F08E69E4003025483900F94EFF0EEA3F0A9
:20548000025A6DE50D2411F8740326FD74000836FE088607E50D2411F8740E26FA74000808
:2054A00036FB0886048A828B838CF0E50D2416F8129086F6A312908608F6A312908608F6BF
:2054C000E50D2411F8E50D2404F9740526F77400083609F708E609F7E50D2404F886820842
:2054E00086830886F0129086FAA3129086FBA3129086FCA80D0874052AF674003B08F6086B
:20550000A604E50D2411F8E50D2407F9740826F77400083609F708E609F7E50D2407F886D8
:20552000820886830886F0129086FAA3129086FBA3129086FCA80D0886820886830886F057
:20554000EA128B5BA3EB128B5BA3EC128B5BE50D2407F886820886830886F0129086FAA3EB
:20556000129086FBA3129086FCA80D0874022AF674003B08F608A604E50D2404F88682086D
:2055800086830886F0129086FAA3129086FBA3129086FCA80D0886820886830886F0EA1285
:2055A0008B5BA3EB128B5BA3EC128B5BE50D2416F8A90D09740126F77400083609F708E6E3
:2055C00009F7A80D0886820886830886F0129086FAA3129086FBA3129086FCC005C006C07D
:2055E000078A828B838CF01200791581158115817002800302562BE50D2407F8868208869E
:20560000830886F0129086FAA3129086FBA3129086FCA80D0886820886830886F0EA128BFF
:205620005BA3EB128B5BA3EC128B5BE50D240AF8740B2DF674003E08F608A607E50D240AC3
:20564000F886820886830886F07400128B5BA3128B5BA3128B5BC005C006C007E50D24169B
:20566000F886820886830886F0129086FF1FE50D2416F886820886830886F0EF128B5BE5CE
:205680000D2411F8A90D09741126F77400083609F708E609F7A80D08E50D2407F9740B2657
:2056A000F77400083609F708E609F7E50D2407F886820886830886F0129086FAA3129086BA
:2056C000FBA3129086FCD007D006D005EA4B7003025884C005C006C007E50D2416F8A602E2
:2056E00008A60308A604A80D08740226FD74000836FE0886078D828E838FF0129086FAA348
:20570000129086FBA3129086FCE50D240DF874052AF674003B08F608A604A80D08E50D24B9
:2057200004F9740526F77400083609F708E609F7E50D2404F886820886830886F012908665
:20574000FAA3129086FBA3129086FCE50D240DF886820886830886F0EA128B5BA3EB128B03
:205760005BA3EC128B5BE50D2404F886820886830886F0129086FAA3129086FBA3129086EB
:20578000FC74022AFA74003BFB8D828E838FF0129086FDA3129086FEA3129086FF8A828BDB
:2057A000838CF0ED128B5BA3EE128B5BA3EF128B5BE50D2416F8E50D240DF9740126F774AC
:2057C00000083609F708E609F7E50D240DF886820886830886F0129086FDA3129086FEA35A
:2057E000129086FFA80D08C005C006C00786820886830886F012007915811581158170021D
:205800008009D007D006D005025847D007D006D005E50D2404F886820886830886F012900F
:2058200086FAA3129086FBA3129086FCE50D240DF886820886830886F0EA128B5BA3EB1227
:205840008B5BA3EC128B5BE50D2407F886820886830886F07400128B5BA3128B5BA3128BE8
:205860005BE50D2416F886820886830886F0129086FC1CE50D2416F886820886830886F017
:20588000EC128B5BC005C006C007E50D2411F8A90D09741F26F77400083609F708E609F7A4
:2058A000A80D0886820886830886F0129086FC900F8DE0FFC3EF9CD007D006D00540030250
:2058C00058C7900F8DECF0A80D0886820886830886F0129086FCEC75F00CA42418FB740F6E
:2058E00035F0FC8B828C83A3E50D2416F8E0F6A3E008F6A3E008F674022DFA74003EFB8FF3
:20590000048A828B838CF0E50D2416F8E6128B5BA308E6128B5BA308E6128B5BE50D240DB6
:20592000F874052DF674003E08F608A607E50D2416F8E50D2407F9740526F77400083609E3
:20594000F708E609F7E50D2407F886820886830886F0129086FAA3129086FBA3129086FC07
:20596000E50D240DF886820886830886F0EA128B5BA3EB128B5BA3EC128B5BE50D2407F871
:2059800086820886830886F0129086FAA3129086FBA3129086FC74022AFA74003BFB8A8271
:2059A0008B838CF0ED128B5BA3EE128B5BA3EF128B5BE50D2407F886820886830886F0EDCC
:2059C000128B5BA3EE128B5BA3EF128B5BA80D0886820886830886F0129086FFEF75F00CE1
:2059E000A42418FE740F35F0FF7D00E50D240AF886820886830886F0EE128B5BA3EF128BE1
:205A00005BA3ED128B5BA80D0886820886830886F0129086FFEF75F00CA42418FE740F3532
:205A2000F0FF8E828F83E0FD0D8E828F83EDF0A80D0886820886830886F0129086FF900F52
:205A400087E0FCA3E0FDA3E0FE741F2CFC74003DFD8C828D838EF0129086FCC3EF9C500318
:205A60000253CCE50D2410F876010253CC900F87E0FDA3E0FEA3E0FF741F2DFD74003EFEDC
:205A80008D828E838FF0129086FDED75F00CA42418F582740F35F0F583E0FFC374019F4077
:205AA00003025AABE50D2410F87601900F91E07003025ACAE50D2410F87601025ACA900F44
:205AC0008FE02401F0A3E03400F0E50D2410F88682850D81D00D22C00D85810DE581240AEF
:205AE000F581900F99E07003025AF4900F917401F0025C64900F917400F0900F8DE0FFEF70
:205B000075F00CA4FDAEF0ED2418FBEE340FFC8B828C83E06003025B1D1F025AFFE50D241B
:205B200007F8A607ED2418FDEE340FFEE50D2408F8A60508A606087600E50D2408F87401E6
:205B400026FA74000836FB0886078A828B838FF0129086FCA3129086FDA3129086FE74021F
:205B60002CFC74003DFD8C828D838EF0129086FCA3129086FDA3129086FE8A828B838FF065
:205B8000EC128B5BA3ED128B5BA3EE128B5B8A828B838FF0A80D08129086F6A312908608C9
:205BA000F6A312908608F6E50D2404F8A60408A60508A606E50D2408F8740426FC740008D7
:205BC00036FD088606E50D2404F8C004C005C00686820886830886F012007915811581153A
:205BE0008170028003025C1FA80D08740226FC74000836FD0886068C828D838EF012908656
:205C0000FCA3129086FDA3129086FE8A828B838FF0EC128B5BA3ED128B5BA3EE128B5B8ADF
:205C2000828B838FF0129086FAA3129086FBA3129086FF74082AFA74003BFB8A828B838FB0
:205C4000F0129086FAA3129086FBA3129086FF900F87EAF0EBA3F0EFA3F0E50D2407F890FD
:205C60000F8DE6F0850D81D00D22C00D85810DAD82AE83AFF0900F87E0FAA3E0FBA3E0FCC4
:205C800074112AFA74003BFBC002C003C0048D828E838FF01221F81581158115817401C0A7
:205CA000E0E50D24FCF886820886831289E31581D00D22C00D85810DC082C083C0F0058133
:205CC00005810581900F87E0FAA3E0FBA3E0FC74112AFA74003BFBE50D24FCF88606088644
:205CE000074307808A828B838CF0EE128B5BA3EF128B5BA80D08740126FD74000836FE08C0
:205D000086078D828E838FF0129086FDA3129086FEA3129086FF900F87E0FAA3E0FBA3E09E
:205D2000FC74112AFA74003BFB74022AFA74003BFB8A828B838CF0ED128B5BA3EE128B5BCC
:205D4000A3EF128B5B900F87E0FAA3E0FBA3E0FC74112AFA74003BFBE50D2404F874052AB4
:205D6000F674003B08F608A60474052DFD74003EFE8D828E838FF0129086FAA3129086FBF4
:205D8000A3129086FCE50D2404F886820886830886F0EA128B5BA3EB128B5BA3EC128B5BA4
:205DA0008D828E838FF0129086FAA3129086FBA3129086FCE50D2404F874022AF674003B3E
:205DC00008F608A604900F87E0FAA3E0FBA3E0FC74112AFA74003BFBE50D2404F8868208A1
:205DE00086830886F0EA128B5BA3EB128B5BA3EC128B5B900F87E0FAA3E0FBA3E0FC7411AB
:205E00002AFA74003BFB8D828E838FF0EA128B5BA3EB128B5BA3EC128B5B900F87E0FDA380
:205E2000E0FEA3E0FF74112DFD74003EFE740B2DFD74003EFE8D828E838FF0A80D08E612F6
:205E40008B5BA308E6128B5BA308E6128B5BA80D0886820886830886F0129086FF0FA80D0B
:205E60000886820886830886F0EF128B5B7401C0E0E50D24FAF886820886831289E3158152
:205E8000850D81D00D22C00D85810DE5812419F581AD82AE83AFF074042DFD74003EFE7432
:205EA000022DFD74003EFE8D828E838FF0129086FDA3129086FEA3129086FF74082DFD7495
:205EC000003EFE8D828E838FF0129086FDA3129086FEA3129086FFE50D2414F8A60508A6B4
:205EE0000608A607E50D2414F8741126FA74000836FB088604E50D2414F8741C26FD740098
:205F00000836FE0886078D828E838FF0E50D2417F8129086F6A312908608F6A31290860832
:205F2000F6E50D2414F8A90D09741326F77400083609F708E609F7A80D0886820886830868
:205F400086F0129086FDA3129086FEA3129086FFE50D240AF874052DF674003E08F608A601
:205F600007E50D2414F8E50D2404F9741626F77400083609F708E609F7E50D2404F8868284
:205F80000886830886F0129086FDA3129086FEA3129086FFE50D240AF886820886830886FB
:205FA000F0ED128B5BA3EE128B5BA3EF128B5BE50D2404F886820886830886F0129086FD2B
:205FC000A3129086FEA3129086FFE50D240AF874022DF674003E08F608A607A80D08868253
:205FE0000886830886F0129086FDA3129086FEA3129086FFE50D240AF8868208868308869B
:20600000F0ED128B5BA3EE128B5BA3EF128B5BE50D2417F8E50D240AF9740126F77400084C
:206020003609F708E609F7E50D240AF886820886830886F0129086FDA3129086FEA312905A
:2060400086FFC002C003C0048D828E838FF012007915811581158170028003026094E50DA9
:206060002404F886820886830886F0129086FDA3129086FEA3129086FFE50D240AF8868291
:206080000886830886F0ED128B5BA3EE128B5BA3EF128B5BE50D2410F8740B2AF674003B0D
:2060A00008F608A604E50D2410F886820886830886F07400128B5BA3128B5BA3128B5BC019
:2060C00002C003C004E50D2417F886820886830886F0129086FC1CE50D2417F88682088680
:2060E000830886F0EC128B5B900F99E0D004D003D00260030264D8E50D2414F8740326FCCE
:2061000074000836FB088602E50D2404F8740B2CF674003B08F608A602E50D2404F8868218
:206120000886830886F0129086FFA3129086FEA3129086FDA80D0874022CF674003B08F616
:2061400008A602A80D0886820886830886F0E50D2407F9129086F7A312908609F7A31290F6
:206160008609F7E50D2407F8740526F674000836F6E50D240DF874052CF674003B08F608DC
:20618000A602E50D240DF886820886830886F0E50D2410F9129086F7A312908609F7A312E7
:2061A000908609F7E50D2407F886820886830886F0E50D2410F9E7128B5BA309E7128B5B94
:2061C000A309E7128B5BE50D240DF886820886830886F0E50D2410F9129086F7A312908679
:2061E00009F7A312908609F7E50D2410F8740226F674000836F6A80D088682088683088618
:20620000F0E50D2407F9129086F7A312908609F7A312908609F7E50D2410F886820886838C
:206220000886F0E50D2407F9E7128B5BA309E7128B5BA309E7128B5BE50D2410F874012F13
:20624000F674003E08F608A605E50D2410F886820886830886F0E50D2407F9129086F7A358
:2062600012908609F7A312908609F7E50D2407F8C004C003C00286820886830886F0120024
:2062800079158115811581700280030262D2E50D240DF886820886830886F0E50D2407F9D0
:2062A000129086F7A312908609F7A312908609F7E50D2410F886820886830886F0E50D245E
:2062C00007F9E7128B5BA309E7128B5BA309E7128B5BE50D2404F886820886830886F074AC
:2062E00000128B5BA3128B5BA3128B5B8F828E838DF0E50D2410F8129086F6E50D2410F877
:20630000E50D2410F9E614F78F828E838DF0E50D2410F8E6128B5BE50D2414F8741F26FFF8
:2063200074000836FE0886058F828E838DF0E50D2407F8129086F6900F8DE50D2413F8E01B
:20634000F6E50D2407F8E50D2413F9C3E796400302635DE50D2407F8900F8DE6F08F828E15
:20636000838DF0E50D2413F8129086F6E50D2413F8E675F00CA4C8E50D2407C82418F6746F
:206380000F35F008F6E50D2407F88682088683A3E50D2417F8E0F6A3E008F6A3E008F6A855
:2063A0000D0886820886830886F0E50D2417F9E7128B5BA309E7128B5BA309E7128B5BE531
:2063C0000D2417F8E50D2407F9740526F77400083609F708E609F7E50D2407F88682088686
:2063E000830886F0A90D09129086F7A312908609F7A312908609F7E50D240DF88682088677
:20640000830886F0A90D09E7128B5BA309E7128B5BA309E7128B5BE50D2407F8868208861C
:20642000830886F0E50D240DF9129086F7A312908609F7A312908609F7E50D240DF87402F9
:2064400026F674000836F6E50D240DF886820886830886F0EC128B5BA3EB128B5BA3EA12BD
:206460008B5BE50D2407F886820886830886F0EC128B5BA3EB128B5BA3EA128B5B8F828EFC
:20648000838DF0129086FCEC75F00CA42418FC740F35F0FB7A00E50D2404F8868208868357
:2064A0000886F0EC128B5BA3EB128B5BA3EA128B5B8F828E838DF0129086FFEF75F00CA4A5
:2064C0002418FF740F35F0FE8F828E83E0FD0D8F828E83EDF00265E9900F67E50D2417F855
:2064E000E0F6A3E008F6A3E008F674022AFD74003BFE8C078D828E838FF0E50D2417F8E63D
:20650000128B5BA308E6128B5BA308E6128B5BE50D240DF874052AF674003B08F608A6045E
:20652000E50D2417F8E50D2407F9740526F77400083609F708E609F7E50D2407F8868208C5
:2065400086830886F0129086FDA3129086FEA3129086FFE50D240DF886820886830886F04A
:20656000ED128B5BA3EE128B5BA3EF128B5BE50D2407F886820886830886F0129086FDA3AF
:20658000129086FEA3129086FF74022DFD74003EFE8D828E838FF0EA128B5BA3EB128B5BB4
:2065A000A3EC128B5BE50D2407F886820886830886F0EA128B5BA3EB128B5BA3EC128B5BB9
:2065C000E50D2410F886820886830886F07466128B5BA3740F128B5BA37400128B5B900F68
:2065E00066E0FF0F900F66EFF0E50D2414F8741F26FD74000836FE0886078D828E838FF0A7
:20660000129086FD900F87E0FCA3E0FEA3E0FF741F2CFC74003EFE8C828E838FF01290861F
:20662000FCC3EC9D40030266337F01900F91EFF00266357F008F82850D81D00D22C00D8514
:20664000810DC082C083C0F0E5812415F581E50D24FCF88603088604430480A80D088682B1
:206660000886830886F0EB128B5BA3EC128B5BA80D08740826FA74000836FB0886048A827D
:206680008B838CF0129086FAA3129086FBA3129086FCE50D2413F8A60208A60308A604A8ED
:2066A0000D08740B26FA74000836FB0886048A828B838CF0E50D2416F8129086F6A31290CA
:2066C0008608F6A312908608F6A80D08E50D2407F9740226F77400083609F708E609F7E582
:2066E0000D2407F886820886830886F0129086FDA3129086FEA3129086FFE50D240DF8748C
:20670000052DF674003E08F608A607A80D08E50D240AF9740526F77400083609F708E609D7
:20672000F7E50D240AF886820886830886F0129086FDA3129086FEA3129086FFE50D240DD8
:20674000F886820886830886F0ED128B5BA3EE128B5BA3EF128B5BE50D240AF88682088604
:20676000830886F0129086FDA3129086FEA3129086FFE50D240DF874022DF674003E08F6FC
:2067800008A607E50D2407F886820886830886F0129086FDA3129086FEA3129086FFE50DEE
:2067A000240DF886820886830886F0ED128B5BA3EE128B5BA3EF128B5BE50D2416F8E50D0B
:2067C000240DF9740126F77400083609F708E609F7E50D240DF886820886830886F0129009
:2067E00086FDA3129086FEA3129086FFA80D08C005C006C00786820886830886F012007952
:2068000015811581158170028003026843E50D240AF886820886830886F0129086FDA3128B
:206820009086FEA3129086FFE50D240DF886820886830886F0ED128B5BA3EE128B5BA3EFC8
:20684000128B5B8A828B838CF07400128B5BA3128B5BA3128B5BE50D2416F88682088683CB
:206860000886F0129086FF1FE50D2416F886820886830886F0EF128B5BE50D2413F874031A
:2068800026FD74000836FE088607E50D240DF8740B2DF674003E08F608A607E50D240DF853
:2068A00086820886830886F0E50D2416F9129086F7A312908609F7A312908609F7E50D2451
:2068C0000AF874022DF674003E08F608A607E50D240AF886820886830886F0129086FAA344
:2068E000129086FBA3129086FCE50D2404F874052AF674003B08F608A604E50D2407F8741B
:20690000052DF674003E08F608A607E50D2407F886820886830886F0129086FAA312908651
:20692000FBA3129086FCE50D2404F886820886830886F0EA128B5BA3EB128B5BA3EC128B58
