:200000000200A732FFFFFFFFFFFFFF32FFFFFFFFFFFFFF32FFFFFFFFFFFFFF32FFFFFFFF88
:20002000FFFFFF020CFBFFFFFFFFFF32FFFFFFFFFFFFFF32FFFFFFFFFFFFFF32FFFFFFFF3B
:20004000FFFFFF32FFFFFFFFFFFFFF32FFFFFFFFFFFFFF32FFFFFFFFFFFFFF32FFFFFFFFF4
:20006000FFFFFF32FFFFFFFFFFFFFF32FFFFFFFFFFFFFF020BFA020284E58124FCC3C8C0CD
:20008000E0C082E608467006E5824583601218E58296F58208E58396428208E5F096458263
:2000A000D082C8D0E0C82275812012916CE58260030200767928E94400601B7A0190923F00
:2000C000787275A00FE493F2A308B8000205A0D9F4DAF275A0FFE478FFF6D8FD7800E84428
:2000E00000600A790175A000E4F309D8FC7871E8440F600C7910900001E4F0A3D8FCD9FA8B
:2001000090000A7400F0A3F090000CF0A3F090000EF0A3F0900010F0A3F0900F157400F0D3
:20012000A3F0A3F00200767596295397FEE5EA75EA0075F80022C00D85810DAF82C007125E
:200140004A95D007E50D24FDF8E660030201A6C374079F50030201FAEF240A83F582EF2495
:200160000C83F583E473767C82888E949AA0010101010101010143F8020201FA43F8080242
:2001800001FA43F8200201FA43F8010201FA43F8040201FA43F8100201FA43F8400201FAD7
:2001A00043F8800201FAC374079F50030201FAEF240A83F582EF240C83F583E473CDD3D959
:2001C000DFE5EBF1F7010101010101010153F8FD0201FA53F8F70201FA53F8DF0201FA5382
:2001E000F8FE0201FA53F8FB0201FA53F8EF0201FA53F8BF0201FA53F87F124A9DD00D22C9
:20020000AF827E007D00C007C006C005124A95D005D006D007C374079F5003020264EF2442
:200220000A83F582EF240C83F583E4733C41464B50555A5F02020202020202027E02020249
:20024000667E080202667E200202667E010202667E040202667E100202667E400202667ECD
:20026000800202667D01BD0103020280EE55F8700302027DEEF4FFEF52F8020280EE42F8DC
:20028000124A9D221202DD120127758201120E0F758202121750758200121C9C75820212B3
:2002A00010677400C0E0C0E0C0E07403C0E07400C0E0C0E0C0E0745FC0E07400C0E074709D
:2002C000C0E07491C0E07480C0E075825075830312421DE58124F4F581124A272275962DC1
:2002E0005397DFC2AF53F67F53F17F75AEEF75920075910743E680D2AF53F7FE53D8FE1266
:20030000030322C00D85810D0581058153ADF143AD0853ADFEA80D087610087627A80D083D
:200320008606088607A80D08EE24FFF6EF34FF08F6EE4F600302031D850D81D00D22E5D827
:2003400020E00302034C53D8FE02034F43D801227F00900F72E0600302036B7582887583D4
:2003600013C0071249F1D0070203787582FA758300C0071249F1D007C007121E2CAE82D00D
:2003800007BE01030203897F01C0071219F3AE82D007BE010302039A7F01C0071216E3AE39
:2003A00082D007BE01030203AB7F01BF010280030203B9900F727401F0C00712033ED00788
:2003C00002035222C00D85810DE581240CF581E50D2405F8762B08765208769A0876C4A832
:2003E0000D0876DD08769A087612087645A80D08E6C0E008E6C0E008E6C0E008E6C0E0E558
:200400000D2405F886820886830886F008E6128A16AC82AD83AEF0FFE58124FCF581E50D8E
:200420002409F8A60408A60508A60608A607E50D2409F8E6C0E008E6C0E008E6C0E008E62A
:20044000C0E07582CD7583E475F08A7444128948AF82E58124FCF581EF600302048E749AB1
:20046000C0E074E1C0E0748AC0E07444C0E0E50D2409F886820886830886F008E612894872
:20048000AF82E58124FCF581EF70030204A5C0E0C0A8C2AF900F727401F0D0E053E080E5EB
:2004A000E042A8D0E0A80D08E6C0E008E6C0E008E6C0E008E6C0E0E50D2405F8868208862C
:2004C000830886F008E6128D95AC82AD83AEF0FFE58124FCF581E50D2409F8A60408A6058E
:2004E00008A60608A607E50D2409F8E6C0E008E6C0E008E6C0E008E6C0E075825C75838F72
:2005000075F00274BF128948AF82E58124FCF581EF60030205467414C0E074AEC0E074072D
:20052000C0E074BFC0E0E50D2409F886820886830886F008E6128948AF82E58124FCF5819C
:20054000EF70030203CFC0E0C0A8C2AF900F727401F0D0E053E080E5E042A8D0E00203CFE0
:20056000850D81D00D22C00D85810DE581240CF581E50D2409F876450876D208764008761F
:20058000C6E50D2405F8765C0876350876B7087646E50D2405F8E6C0E008E6C0E008E6C02F
:2005A000E008E6C0E0E50D2409F886820886830886F008E6128A16AC82AD83AEF0FFE5811E
:2005C00024FCF581A80D08A60408A60508A60608A607A80D08E6C0E008E6C0E008E6C0E0A3
:2005E00008E6C0E075829A75839875F02D7446128948AF82E58124FCF581EF600302062E68
:200600007433C0E07498C0E0742DC0E07446C0E0A80D0886820886830886F008E612894827
:20062000AF82E58124FCF581EF7003020645C0E0C0A8C2AF900F727401F0D0E053E080E5A7
:20064000E042A8D0E0E50D2405F8860408860508860608E6B2E7FFC004C005C006C007E5DB
:200660000D2409F886820886830886F008E6128D95AC82AD83AEF0FFE58124FCF581A80DE3
:2006800008A60408A60508A60608A607A80D08E6C0E008E6C0E008E6C0E008E6C0E07582A8
:2006A000147583AE75F007743F128948AF82E58124FCF581EF60030206E8745CC0E0748F9C
:2006C000C0E07402C0E0743FC0E0A80D0886820886830886F008E6128948AF82E58124FC35
:2006E000F581EF7003020571C0E0C0A8C2AF900F727401F0D0E053E080E5E042A8D0E002F7
:200700000571850D81D00D227421B58103020727C0E0C0A8C2AF900F727401F0D0E053E081
:2007200080E5E042A8D0E08500E0E5E07003020748C0E0C0A8C2AF900F727401F0D0E053FA
:20074000E080E5E042A8D0E08501E07401B5E00302076AC0E0C0A8C2AF900F727401F0D035
:20076000E053E080E5E042A8D0E08502E07402B5E00302078CC0E0C0A8C2AF900F7274017E
:20078000F0D0E053E080E5E042A8D0E08503E07403B5E0030207AEC0E0C0A8C2AF900F72EF
:2007A0007401F0D0E053E080E5E042A8D0E08504E07404B5E0030207D0C0E0C0A8C2AF90B7
:2007C0000F727401F0D0E053E080E5E042A8D0E08505E07405B5E0030207F2C0E0C0A8C231
:2007E000AF900F727401F0D0E053E080E5E042A8D0E08506E07406B5E003020814C0E0C017
:20080000A8C2AF900F727401F0D0E053E080E5E042A8D0E08507E07407B5E003020836C008
:20082000E0C0A8C2AF900F727401F0D0E053E080E5E042A8D0E074CDB58203020855C0E04D
:20084000C0A8C2AF900F727401F0D0E053E080E5E042A8D0E074ABB58303020874C0E0C04F
:20086000A8C2AF900F727401F0D0E053E080E5E042A8D0E07401B5F003020708C0E0C0A8F1
:20088000C2AF900F727401F0D0E053E080E5E042A8D0E002070822C00D85810DE581240E04
:2008A000F581AD82AE83AFF0E50D240CF8A60508A60608A607E50D2409F874012DF6740072
:2008C0003E08F608A607E50D24FCF886020886037C807F008A06E50D2409F88682088683C9
:2008E0000886F0EE12892DE50D2405F8A60308A60408A607087600E50D2409F8740126FD74
:2009000074000836FE088607E50D2405F886028D828E838FF0EA12892D0DBD00010E8D82BE
:200920008E838FF074AA12892D0DBD00010E8D828E838FF0748012892DE50D2405F8740185
:200940002DF674003E08F608A607E50D24F9F886020886030886047F008A06E50D2405F83B
:2009600086820886830886F0EE12892DA80D08A60308A60408A607087600E50D2405F87458
:200980000126FD74000836FE088607A80D0886028D828E838FF0EA12892DA80D0808E61895
:2009A000F60808E618F60808E618F60876000DBD00010EA80D0886028D828E838FF0EA1202
:2009C000892D0DBD00010E8D828E838FF0740212892D0DBD00010E8D828E838FF0740312AA
:2009E000892D0DBD00010E8D828E838FF0740412892D0DBD00010E8D828E838FF074051286
:200A0000892D0DBD00010E8D828E838FF0740612892D0DBD00010E8D828E838FF074071261
:200A2000892D0DBD00010E8D828E838FF0740012892D0DBD00010E8D828E838FF07401124D
:200A4000892D0DBD00010E8D828E838FF0740012892D0DBD00010E8D828E838FF074BB1273
:200A6000892DE50D240CF88602EDC39AFDE50D240CF886820886830886F0ED12892DE50D7F
:200A8000240CF886820886830886F0850D81D00D22120C42759600900F87E0FDA3E0FEA3F3
:200AA000E0FF8D828E838FF0128E58F509A3128E58F50A750B20850982850A83E0F5080584
:200AC00009E4B50902050A050BA90B850982850A83E0FFA7071508E5086003020ABF850B1F
:200AE00081D00DD0D0D001D000D007D006D005D004D003D002D0F0D083D082D0E020E7053B
:200B0000C2AF020B07D2AFD0E0327582012222C0E0C0A8C2AFC082C083C0F0C002C003C0BE
:200B200004C005C006C007C000C001C0D075D000C00D900F87E0FDA3E0FEA3E0FF8D828E99
:200B4000838FF0128E58F509A3128E58F50A750B21AF81EF24E0F508850982850A83E50833
:200B6000F0E5087003020B830509E4B50902050A850982850A83A90B8707EFF0050B150864
:200B8000020B611258D1900F87E0FDA3E0FEA3E0FF8D828E838FF0128E58F509A3128E5876
:200BA000F50A750B20850982850A83E0F5080509E4B50902050A050BA90B850982850A83F0
:200BC000E0FFA7071508E5086003020BAE850B81D00DD0D0D001D000D007D006D005D004DB
:200BE000D003D002D0F0D083D082D0E020E705C2AF020BF6D2AFD0E03222C020C0E0C0F006
:200C0000C082C083C007C006C005C004C003C002C001C000C0D075D0007591071251B053EB
:200C2000F17F75AEF7D0D0D000D001D002D003D004D005D006D007D083D082D0F0D0E0D009
:200C40002032AF96759600C2AF43F68053F17F75AEF75393FE7594007595205393F7539311
:200C6000FD43930275962D5397EF4397105393FB85939343E680439301D2AF8F9622C00D03
:200C800085810DC0E0C0A8C2AFAF96750C01C0077400C0E004C0E0E50D24FDF88682122835
:200CA000CFAC82AD83AEF015811581D007900001ECF0EDA3F0EEA3F0C0077400C0E004C059
:200CC000E0E50D24FDF886821228CFAC82AD83AEF015811581D007900004ECF0EDA3F0EE3B
:200CE000A3F08F96D0E053E080E5E042A8D0E075820075830075F000D00D22C020C0E0C0E7
:200D0000F0C082C083C007C006C005C004C003C002C001C000C0D075D000C0E0C0A8C2AFF4
:200D2000D0E053E080E5E042A8D0E0D0D0D000D001D002D003D004D005D006D007D083D092
:200D400082D0F0D0E0D02032C00D85810DE50D24FBF88605088606088607900001E0FAA3D4
:200D6000E0FBA3E0FCE50D24F9F8E6C0E008E6C0E0C005C006C0078A828B838CF0122FF5E0
:200D8000AF82E58124FBF581EF7003020D94758201020D97758200D00D22C00D85810DC0EE
:200DA000E0C0A8C2AF7401B50C028003020DB7750C007F01020DFEE50D24FDFE8E077D00C8
:200DC0007C40900004E0FAA3E0FBA3E0FE7400C0E0E50D24FBF8E6C0E008E6C0E0C007C032
:200DE00005C0048A828B838EF0122A7AAE82E58124FAF5818E07EE6003020DFE7F01D0E08F
:200E000053E080E5E042A8D0E08F82D00D2222C00D85810DC082E5812404F581A80D0808A3
:200E20007600A80D0808B608004003020F0B7582037583001224F8AB82AC83ADF0E50D242B
:200E400003F8A60308A60408A605E50D2403F886820886830886F0A90D0909E712892DE585
:200E60000D2403F8740126FA74000836FE088607A80D080886047D00C007C006C002C0048D
:200E8000C00575827D758300128978AC82AD8315811581D002D006D007747D2CFC74003D3B
:200EA000FD8A828E838FF0EC12892DA3ED12892D8A828E838FF0EC12892DA3ED12892DE500
:200EC0000D2403F886030886040886057400C0E0C0E0C0E0A80D08E6C0E0C003C004C00555
:200EE000745FC0E07400C0E07479C0E07491C0E07480C0E075821175830F12421DE581249B
:200F0000F4F581A80D080806020E22850D81D00D22C00D85810D058105810581AD82AE8386
:200F2000AFF075827675839175F080C007C006C005120FFBD005D006D007A80D08A60508D7
:200F4000A60608A607A80D08740126FA74000836FB0886048A828B838CF0128E58FEA3125E
:200F60008E58FFEFC313CE13CEFF8E828F83C004C003C0021249F1D002D003D004A80D082C
:200F800086820886830886F0128E58FF8F82C004C003C002120200D002D003D0048A828B45
:200FA000838CF0128E58FAA3128E58FBEBC313CA13CAFB8A828B831249F1A80D0886820814
:200FC00086830886F0128E58FF8F82120200020F45850D81D00D227400C0E07403C0E07566
:200FE00082141228CFAD82AE83AFF015811581900007EDF0EEA3F0EFA3F02222C00D858199
:201000000DC082C083058105810581E50D2403FD7C007B40900007E0FAA3E0FEA3E0FFA843
:201020000D08E6C0E008E6C0E0C005C004C0038A828E838FF0122FF5AF82E58124FBF5813D
:20104000BF01028003021058E50D2403F886820886830886F002106175820075830075F072
:2010600000850D81D00D22C00D85810DC082E5812406F5817582087583001224F8AC82AD36
:2010800083AEF0A80D0808A60408A60508A606A80D0808E60846700302121F7403C0E0742F
:2010A00000C0E07582011228CFAA82AB83AFF015811581A80D080886820886830886F0EA24
:2010C00012892DA3EB12892DA3EF12892DA80D080886820886830886F0128E58FEA3128E03
:2010E00058FDA3128E58FCEA4B700302110B7400C0E0C0E0C0E0C0E0C0E0C0E08E828D83EA
:201100008CF0122A7AE58124FAF581A80D080886820886830886F0128E58FAA3128E58FBBF
:20112000A3128E58FFEA4B700302121FA80D0808740326FA74000836FB088607758204752C
:201140008300C007C003C0021224F8AC82AD83AEF0D002D003D0078A828B838FF0EC1289FA
:201160002DA3ED12892DA3EE12892D8C828D838EF074FF12892DA3740012892DA312892D70
:20118000A312892DA80D0808740626FD74000836FE0886078D828E838FF0740012892DA3BF
:2011A00012892DA80D08088604088605088606C0E0C0E0C0E0C0E0C004C005C006745FC08F
:2011C000E07400C0E0749EC0E07491C0E07480C0E07582E775831312421DE58124F4F581E2
:2011E000A80D080886040886050886067400C0E0C0E0C0E0C0E0C004C005C006745FC0E0C3
:201200007400C0E074A6C0E07491C0E07480C0E07582E775831312421DE58124F4F5817504
:2012200082087583001224F8AD82AE83AFF0E50D2405F8A60508A60608A607E50D2405F8C5
:20124000E6084670030213E17403C0E07400C0E07582011228CFAA82AB83ACF015811581A3
:20126000E50D2405F886820886830886F0EA12892DA3EB12892DA3EC12892DE50D2405F852
:2012800086820886830886F0128E58FFA3128E58FEA3128E58FDEA4B70030212BA7400C0E5
:2012A000E0C0E0C0E0C0E0C0E0C0E08F828E838DF0122A7AE58124FAF581E50D2405F88646
:2012C000820886830886F0128E58FAA3128E58FBA3128E58FCEA4B70030213E1E50D240525
:2012E000F8740326FA74000836FB088604758204758300C004C003C0021224F8AD82AE8356
:20130000AFF0D002D003D0048A828B838CF0ED12892DA3EE12892DA3EF12892D8D828E8397
:201320008FF074FF12892DA3740F12892DA3740012892DA312892DE50D2405F8740626FD0B
:2013400074000836FE0886078D828E838FF0746412892DA3740012892DE50D2405F886058C
:201360000886060886077400C0E0C0E0C0E0A80D08E6C0E0C005C006C007745FC0E0740074
:20138000C0E074AEC0E07491C0E07480C0E07582E775831312421DE58124F4F581E50D244E
:2013A00005F886050886060886077400C0E0C0E0C0E0A80D08E6C0E0C005C006C007745FC0
:2013C000C0E07400C0E074B6C0E07491C0E07480C0E07582E775831312421DE58124F4F589
:2013E00081850D81D00D22C00D85810DE5812411F581AE82AC83ABF0E50D2407F87400F6F0
:2014000008F6C0E0C0A8C2AF900F7BE0FAA3E0FFE50D240CF8A60208A607900F7BE0FAA3D1
:20142000E0FD900F7B74012AF074003DA3F0D0E053E080E5E042A8D0E075829B7583917590
:20144000F080C006C004C003120FFBD003D004D006E50D2404F8A60608A60408A603E50D23
:201460002404F8740326FB74000836FE0886078B828E838FF0E50D2409F8128E58F6A31218
:201480008E5808F6A3128E5808F6E50D2404F8A90D09740626F77400083609F708E609F7C7
:2014A000A80D0886820886830886F0128E58FEA3128E58FFEE4F70030214CEE50D240EF898
:2014C00076FF08760F740008F608F60214DDE50D240EF876FF740008F608F608F6A80D08EB
:2014E00086820886830886F0128E58FEA3128E58FFE50D2404F886820886830886F0128E7C
:2015000058FBA3128E58FCA3128E58FDC006C0078B828C838DF01232B1AF8215811581BF12
:20152000010280030216BCE50D2409F886820886830886F0128E58FBA3128E58FDA3128ED5
:2015400058FEA3128E58FFE50D240EF8E6B5031208E6B5050D08E6B5060808E6B5070302BA
:20156000157875829875839175F080120FFBE50D2407F876010876007B007E007D007F00C6
:20158000E50D240EF8C3E69B08E69E08E69D08E69F50030215E2E50D2409F88682088683CB
:2015A0000886F0EB12892DA3EE12892DA3ED12892DA3EF12892DE50D2409F88682088683BF
:2015C0000886F0128E58A3128E58A3128E58A3128E580BBB00090EBE00050DBD00010F0248
:2015E0001580E50D2404F886820886830886F0128E58FDA3128E58FEA3128E58FF7400C051
:20160000E0C0E0C0E0C0E0C0E0C0E08D828E838FF0122A7AAF82E58124FAF581EF600302F6
:20162000163875829875839175F080120FFBE50D2407F87601087600E50D2407F8E60846F0
:201640006003021689E50D240CF88606088607C3EE9404EF648094804003021689E50D2421
:201660000CF8E625E0FE08E633FFEE2473FEEF340FFF8E828F83E0FCA3E0FD0CBC00010D55
:201680008E828F83ECF0EDA3F0A80D0886820886830886F0128E58FEA3128E58FFC006C062
:2016A0000775820A758300128978AE82AF83158115818E828F831249F10214DDA80D0886E5
:2016C000820886830886F0128E58FEA3128E58FFEE4F60030214DD120B0F0214DD850D81A4
:2016E000D00D227F017E00EE75F002A4FCADF0EC240AF582ED3400F583E0FAA3E0FBEC24C9
:2017000073F582ED340FF583E0FCA3E0FDEAB50406EBB50502800302171C7F00EE75F002FF
:20172000A4FCADF0EC240AFAED3400FBEC2473F582ED340FF583E0FCA3E0FD8A828B83EC38
:20174000F0EDA3F00EBE040050030216E78F8222AF82C0077400C0E07402C0E075820A128F
:2017600028CFAC82AD83AEF015811581D007900012ECF0EDA3F0EEA3F0EC4D70030217F639
:20178000C0077400C0E0C0E0C0E0C0077412C0E07400C0E07400C0E0745FC0E07400C0E092
:2017A0007415C0E07492C0E07480C0E07582CB75831812421DE58124F4F581D0077400C084
:2017C000E0C0E0C0E0C0077412C0E07400C0E07400C0E0745FC0E07400C0E0741DC0E074A8
:2017E00092C0E07480C0E07582F775831712421DE58124F4F58122C00D85810DC082C0833A
:20180000C0F0058105810581E50D2404F87400F608F67C00E50D2406F87600C004E50D242C
:2018200004FA7C007F40A80D0886030886050886068B828D838EF0128E58FBA3128E58FDDC
:20184000A3128E58FEC0047400C0E0C0E0C0E0C002C004C0078B828D838EF0122A7AAF8208
:20186000E58124FAF581D004BF0105D004021877D0047C0102189FEC6003021894C0E0C009
:20188000A8C2AF900F7EE004F0D0E053E080E5E042A8D0E0E50D2404F806B600020806E5B9
:2018A0000D2406F806E50D2406F8C3E664809483500302181B758222758300C0041249F192
:2018C000D004021814850D81D00D22C00D85810DC082C083C0F00581058105817B007C0056
:2018E000E50D2406F87600C003C004A80D0886020886060886078A828E838FF0128E58FBDA
:20190000A3128E58FCA3128E58FD8B828C838DF0C007C006C004C003C002123A4AE582D05C
:2019200002D003D004D006D007D004D00370030219D9C003C004E50D2404FD8D037C007D1C
:20194000408A828E838FF0128E58FAA3128E58FEA3128E58FFC004C0037400C0E0C0E0C08B
:2019600003C004C0058A828E838FF0122FF5AF82E58124FBF581D003D004BF01028007D01D
:2019800004D0030218E7D004D003E50D2404F8E6B5030808E6B504030219AFE50D2406F888
:2019A0007601E50D2404F886030886040219D1E50D2406F8E660030219D1C0E0C0A8C2AFD5
:2019C000900F7DE004F0D0E053E080E5E042A8D0E00BBB00010C0218E775820E758300C0C4
:2019E00004C0031249F1D003D0040218E7850D81D00D22900F7DE07003021A05900F7EE08D
:201A00006003021A0A7F00021A0C7F01900F7D7400F0900F7EF08F8222C00D85810DAF8245
:201A2000E50D24F9F8900F82E6F0C0077418C0E0E50D24FAF886820886830886F008E61216
:201A40000C7E1581D0078F061EC0077400C0E0C0E0C0E0C006C0E0C0E0C0E0745FC0E07434
:201A600000C0E07425C0E07492C0E07480C0E07582B675831A12421DE58124F4F581D00758
:201A80007400C0E0C0E0C0E0C007C0E0C0E0C0E0745FC0E07400C0E0742BC0E07492C0E0DF
:201AA0007480C0E075825175831B12421DE58124F4F581D00D227F41900F7FE0FCA3E0FD99
:201AC000A3E0FEC0077400C0E0C0E0C0078C828D838EF0120D9AAE82158115811581D00725
:201AE000BE01028003021AF6900F82E0FE8E82C007120200D0070FC374589F4003021AB87B
:201B0000900F82E0FF7400C0E08F821201361581125113AE82AF8374032EFE74003FFF7420
:201B200096C0E07400C0E08E828F83129049AE82AF8315811581C3EE9432EF940040030281
:201B40001B467E327F008E828F831249F1021AB622C00D85810DE5812405F5817F00A80D7A
:201B60000876007B41C007E50D2405FCA80D0808A604087600087640900F7FE0FDA3E0FE26
:201B8000A3E0FFC004C00374FFC0E0C0E0A80D0808E6C0E008E6C0E008E6C0E08D828E8302
:201BA0008FF0120D48AF82E58124FBF581D003D004EFD0077003021BE6E50D2405F8E6B582
:201BC00003028003021BE1900F82E0FE0E8E82C007C004C003120200D003D004D007021B65
:201BE000E67F01021BF80BC3745864808BF063F08095F04003021B65900F82E0FE0EC00780
:201C0000C0047400C0E08E821201361581D004D007BF01028003021C668C06E50D2405F8E4
:201C2000B65803021C5D8E077C007B40C006900F7FE0FAA3E0FDA3E0FEC00674FFC0E0C0F4
:201C4000E0C007C004C0038A828D838EF0120D48E58124FBF581D006D006021C1BA80D08B8
:201C6000067F00021B63A80D08C3E6648094824003021B63900F83E004F0021B63850D81B3
:201C8000D00D22900F83E06003021C917F00021C937F01900F837400F08F8222AF827D001A
:201CA0007E00ED2484FBEE340FFC7A00C007C006C0057400C0E0C0E0C0E0C007C003C0047B
:201CC000C002745FC0E07400C0E07431C0E07492C0E07480C0E075820375831D12421DE5D7
:201CE0008124F4F581D005D006D0070DBD00010E8D038E04C3EB9401EC64809480500302DC
:201D00001CA222C00D85810DE5812407F581AD82AE83AFF07B007C00E50D2405F8A6050840
:201D2000A60608A607C003C004A80D08767B740008F608F608F6A80D08744726F6749408FB
:201D400036F674030836F674000836F6C004C003120B0FD003D004A80D08E6C0E008E6C0B9
:201D6000E008E6C0E008E6C0E07582FD7583FF75F0FF74FF128E74AA82AB83ACF0FFE58136
:201D800024FCF581A80D08A60208A60308A60408A607C0037407C0E07400C0E0C0E0C0E0FE
:201DA000A80D0886820886830886F008E6128AB8AC82AD83AEF0FFE58124FCF581D003A81B
:201DC0000D08A60408A60508A60608A607A80D08B61B1308B6770F08B6FE0B08B6FF07D0E8
:201DE00004D003021DEED004D0037B017C00EB4C6003021E18C0E0C0A8C2AFE50D2405F802
:201E000086820886830886F0740112892DD0E053E080E5E042A8D0E0C004C003120B0FD0A9
:201E200003D004021D25850D81D00D227F017D007E00ED2484FBEE340FFC8B828C83E060E1
:201E400003021E467F00ED2484F582EE340FF5837400F00DBD00010E8D038E04C3EB940143
:201E6000EC648094805003021E328F8222C00D85810DC082C083C0F0058105810581A80D4A
:201E800008740126FF74000836FB088602A80D08E50D2404F9740426F77400083609F70844
:201EA000E609F7E50D2404F886040886050886068F828B838AF0EC12892DA3ED12892DA331
:201EC000EE12892DE50D2404F886820886830886F074FF12892DA312892DE50D2404F87477
:201EE0000226FF74000836FD088604E50D2404F886020886030886068F828D838CF0EA1222
:201F0000892DA3EB12892DA3EE12892DE50D2404F8740526FF74000836FD088604E50D2455
:201F200004F886020886030886068F828D838CF0EA12892DA3EB12892DA3EE12892DA80D45
:201F40000886820886830886F0740012892D850D81D00D22AD82AE83AFF0740B2DFD740078
:201F60003EFE8D828E838FF0740012892DA312892DA312892D22C00D85810DC082C083C02D
:201F8000F0E5812409F581A80D08740126FA74000836FB0886048A828B838CF0E50D240A01
:201FA000F8128E58F6A3128E5808F6A3128E5808F6E50D24FBF886020886030886047402DF
:201FC0002AFD74003BFE8C078D828E838FF0E50D240AF8E612892DA308E612892DA308E64B
:201FE00012892DE50D2404F874052AF674003B08F608A604E50D240AF8E50D2407F9740568
:2020000026F77400083609F708E609F7E50D2407F886820886830886F0128E58FDA3128E1F
:2020200058FEA3128E58FFE50D2404F886820886830886F0ED12892DA3EE12892DA3EF1255
:20204000892DE50D2407F886820886830886F0128E58FDA3128E58FEA3128E58FF74022D53
:20206000FD74003EFE8D828E838FF0EA12892DA3EB12892DA3EC12892DE50D2407F8868298
:202080000886830886F0EA12892DA3EB12892DA3EC12892D740B2AFA74003BFB8A828B83EB
:2020A0008CF0A80D08E612892DA308E612892DA308E612892DA80D0886820886830886F033
:2020C000128E58FF0FA80D0886820886830886F0EF12892D850D81D00D22C00D85810DC03D
:2020E00082C083C0F0E581240BF581E50D24FBF886020886030886048A828B838CF0E50D24
:20210000240DF8128E58F6A3128E5808F6E50D240DF8B6FF0608B6FF02800302215FC002B3
:20212000C003C004A80D08740426FA74000836FB08860474052AFA74003BFB8A828B838C97
:20214000F0E50D240AF8128E58F6A3128E5808F6A3128E5808F6D004D003D0020221E9A82A
:202160000D08740426FD74000836FE088607E50D240AF8A60508A60608A607C002C003C0F9
:2021800004E50D240AF8740226FD74000836FE0886078D828E838FF0128E58FAA3128E5819
:2021A000FBA3128E58FC8A828B838CF0128E58FAA3128E58FBE50D240DF8C3E69A08E69B88
:2021C000D004D003D00250030221E98D828E838FF0E50D240AF8128E58F6A3128E5808F6E9
:2021E000A3128E5808F602217BE50D2404F874022AF674003B08F608A604E50D240AF8E5A4
:202200000D2407F9740226F77400083609F708E609F7E50D2407F886820886830886F0129C
:202220008E58FDA3128E58FEA3128E58FFE50D2404F886820886830886F0ED12892DA3EE99
:2022400012892DA3EF12892D74052DFD74003EFE8D828E838FF0EA12892DA3EB12892DA3BF
:20226000EC12892D74052AFD74003BFE8C078D828E838FF0E50D240AF8E612892DA308E6D4
:2022800012892DA308E612892DE50D2407F886820886830886F0EA12892DA3EB12892DA3C6
:2022A000EC12892D740B2AFA74003BFB8A828B838CF0A80D08E612892DA308E612892DA320
:2022C00008E612892DA80D0886820886830886F0128E58FF0FA80D0886820886830886F09A
:2022E000EF12892D850D81D00D22C00D85810DE581240FF581C8E50D240AC8A68208A6831D
:2023000008A6F0E50D240AF8740B26FA74000836FB0886048A828B838CF0E50D240DF81266
:202320008E58F6A3128E5808F6A3128E5808F6E50D240AF8A90D09740226F774000836096A
:20234000F708E609F7A80D0886820886830886F0128E58FDA3128E58FEA3128E58FFE50D2A
:202360002407F874052DF674003E08F608A607E50D240AF8E50D2404F9740526F7740008FC
:202380003609F708E609F7E50D2404F886820886830886F0128E58FDA3128E58FEA3128E9F
:2023A00058FFE50D2407F886820886830886F0ED12892DA3EE12892DA3EF12892DE50D249C
:2023C00004F886820886830886F0128E58FDA3128E58FEA3128E58FFE50D2407F874022D8A
:2023E000F674003E08F608A607A80D0886820886830886F0128E58FDA3128E58FEA3128E5D
:2024000058FFE50D2407F886820886830886F0ED12892DA3EE12892DA3EF12892DE50D243B
:202420000DF8E50D2407F9740126F77400083609F708E609F7E50D2407F886820886830819
:2024400086F0128E58FDA3128E58FEA3128E58FFE50D240AF8C005C006C00786820886835B
:202460000886F0120079158115811581700280030224A9E50D2404F886820886830886F024
:20248000128E58FDA3128E58FEA3128E58FFE50D2407F886820886830886F0ED12892DA310
:2024A000EE12892DA3EF12892D8A828B838CF0740012892DA312892DA312892DE50D240D41
:2024C000F886820886830886F0128E58FF1FE50D240DF886820886830886F0EF12892DE509
:2024E0000D240DF886820886830886F0128E58FF8F82850D81D00D22C00D85810DC082C013
:2025000083058105810581E50D2403F87400F608F6087600124A95900F15E0F5F0A3E0457D
:20252000F060030225397A157D007E007F00900F15EAF0EDA3F0EEA3F0A80D08E6084670EF
:20254000030225A2900F85E0FEA3E0FFA80D08E62EFC08E63FFDC3EC94FFED940E4003021E
:2025600025A2A80D08E62EFC08E63FFDC3EE9CEF9D40030225A2900F15E0FBA3E0FCA3E027
:20258000FDEE2BFBEF3CFCE50D2403F8A60308A60408A605A80D08900F85E62EF008E63FD2
:2025A000A3F0124A9DE50D2403F886820886830886F0850D81D00D2222900F857400F0A388
:2025C000F022900F85E0FEA3E0FF74FFC39EFE740E9FFF8E828F8322C00D85810DC082C04D
:2025E00083C0F0E581240AF581E50D240DF87601A80D08E6084670030228BBA80D0874256D
:2026000026FA74000836FB0886048A828B838CF0128E58FFBF010050030228BBC002C00351
:20262000C0048F037C00C002C003C0047582FF7583FF1288E1AB82AC8315811581D002A815
:202640000D08E50D2404F9742626F77400083609F708E609F7E50D2404F8868208868308C8
:2026600086F0128E58FA7F00C3EB9AEC9FD004D003D00250030228BBC0E0C0A8C2AFA80DC1
:2026800008E50D2407F9740626F77400083609F708E609F7A80D0886820886830886F0E5AC
:2026A0000D240AF9128E58F7A3128E5809F7A3128E5809F78A828B838CF0128E58FFE50D42
:2026C0002404F886820886830886F0128E58FE8FF0EEA4C8E50D240AC826FD08E635F0FE58
:2026E000088607E50D2407F886820886830886F0ED12892DA3EE12892DA3EF12892DA80D7C
:2027000008742426FD74000836FE0886078D828E838FF0740012892DA80D08E50D240AF900
:20272000740326F77400083609F708E609F7A80D0886820886830886F0128E58FDA3128ED9
:2027400058FEA3128E58FFE50D240AF886820886830886F0ED12892DA3EE12892DA3EF1228
:20276000892DE50D2407F8E50D240AF9740326F77400083609F708E609F7A80D0886820874
:2027800086830886F0128E58FDA3128E58FEA3128E58FF8A828B838CF0128E58FA7C00E5A1
:2027A0000D2407F8EA24FFF6EC34FF08F6E50D2404F886820886830886F0128E58FB7C00B1
:2027C000C007C006C005C003C004E50D2407F88682088683128978AB82AC8315811581D087
:2027E00005D006D007EB2DFDEC3EFEE50D240AF886820886830886F0ED12892DA3EE12895A
:202800002DA3EF12892DA80D08742726FD74000836FE0886078D828E838FF074FF12892D97
:20282000A80D08742826FD74000836FE0886078D828E838FF074FF12892DE50D24FDF8E60C
:20284000600302287DA80D08740C26FD74000836FE0886078D828E838FF0128E58700302BD
:2028600028ADA80D08740C26FD74000836FE0886078D828E838FF0125C880228ADA80D08B5
:20288000740C26FD74000836FE0886078D828E838FF0121E6DA80D08741826FD74000836F6
:2028A000FE0886078D828E838FF0121E6DD0E053E080E5E042A8D0E00228C2E50D240DF880
:2028C0007600E50D240DF88682850D81D00D22C00D85810DC0827C007D007E00A80D08E611
:2028E00070030229ADC004C005C006A80D0886027B00C006C005C004C002C0037582FF753F
:2029000083FF1288E1AA82AB8315811581D004D005D006E50D24FDF886057E00C3EA9DEB6C
:202920009ED006D005D00450030229ADA80D08E50D24FDF986F0E7A4FAABF0C374D69A74D5
:20294000FF9B50030229AD74292AFA74003BFB8A828B831224F8AA82AB83AFF08A048B05E8
:202960008F06EC4D70030229AD8C028D038E0774292AFA74003BFBC006C005C004C004C04D
:2029800005C006E50D24FCF8E6C0E0C002C003C007E50D24FDF8E6C0E0A80D0886821229FF
:2029A000B8E58124F8F581D004D005D0068C828D838EF01581D00D22C00D85810DC082E5B0
:2029C0000D24FDF8E660030229FBE50D24F6F88604088605088606E50D24F6F88602088693
:2029E000030886078C828D838EF0EA12892DA3EB12892DA3EF12892D022A29E50D24F6F8E8
:202A00008604088605088606E50D24FAF886020886030886078C828D838EF0EA12892DA35E
:202A2000EB12892DA3EF12892DE50D24F6F8860508860608860774252DFA74003EFB8F04D1
:202A40008A828B838CF0A80D08E612892D74262DFA74003EFB8F048A828B838CF0E50D24C8
:202A6000FDF8E612892D7401C0E08D828E838FF01225D815811581D00D22C00D85810DE500
:202A8000812411F581AD82AB83ACF0E50D240EF87600E50D240FF8A60508A60308A604E56F
:202AA0000D24F8F8B60204740180027400FFE50D240BFEA80D08A606E50D2408F874242D6C
:202AC000F674003B08F608A604E50D2405F874252DF674003B08F608A604C0E0C0A8C2AFFA
:202AE000E50D2408F886820886830886F0128E58FDE50D2405F886820886830886F0128EEA
:202B000058FCC3ED9C5003022B10EF7003022B88E50D24F8F8E6C0E0E50D24FBF8E6C0E053
:202B200008E6C0E008E6C0E0E50D240FF886820886830886F0123AE5E58124FCF581E50DA6
:202B4000240FF8741826FA74000836FB0886048A828B838CF0128E587003022B77E50D24A4
:202B60000FF8741826FA74000836FB0886048A828B838CF0125C88D0E053E080E5E042A8C5
:202B8000D0E0758201022D5FE50D24F9F8E608466003022BA6D0E053E080E5E042A8D0E0CC
:202BA000758200022D5FE50D240EF8E66003022BCF8E027B007C408A828B838CF0C007C04B
:202BC00006126A76D006D007E50D240EF87601D0E053E080E5E042A8D0E0C007C006124A12
:202BE00095D006D007C0E0C0A8C2AFE50D240FF8742726FA74000836FB0886048A828B83E9
:202C00008CF0128E58FDBDFF028003022C198A828B838CF0740012892DE50D240FF8742830
:202C200026FA74000836FB0886048A828B838CF0128E58FDBDFF028003022C478A828B83DA
:202C40008CF0740012892DC007D0E053E080E5E042A8D0E0E50D24F9FCA80D0808A60408B1
:202C60007600087640A80D0886047D007F40C006A80D0808E6C0E008E6C0E008E6C0E08CE4
:202C8000828D838FF0126AA8AF82158115811581D006EFD0076003022D49E50D240FF886F2
:202CA000820886830886F0C007C00612418EE582D006D0077003022D23E50D240FF8740C1F
:202CC00026FB74000836FC088605C007C006E50D24F9F8E6C0E008E6C0E08B828C838DF051
:202CE000125A6415811581D006D007E50D240FF886820886830886F0C007C006123F99D030
:202D000006D007C007C006124A9DE582D006D0076003022ADAC007C006120B0FD006D0076D
:202D2000022ADAE50D240FF886820886830886F0C007C006123F99D006D007C007C0061216
:202D40004A9DD006D007022ADAE50D240FF886820886830886F0123F99124A9D75820085C6
:202D60000D81D00D22C00D85810D058105810581AA82AB83ACF0A80D08A60208A60308A69A
:202D80000474242AFD74003BFE8C078D828E838FF0128E58FD74252AFC74003BFE8C078C11
:202DA000828E838FF0128E58FCC3ED9C5003022DBEE50D24F7F8B602028003022EBDA80D9D
:202DC00008742826FD74000836FE0886078D828E838FF0128E58FFA80D08742426FC740066
:202DE0000836FD0886068C828D838EF0128E58C007E50D24F7F8E6C0E0E50D24FBF8E6C06F
:202E0000E008E6C0E008E6C0E0A80D0886820886830886F0123AE5E58124FCF581D007BF9F
:202E2000FF028003022E8BA80D08741826FC74000836FD0886068C828D838EF0128E5870A1
:202E400003022EB8A80D08741826FC74000836FD0886068C828D838EF0125C88E58270036D
:202E6000022EB8E50D24F8F8E608467003022EB8E50D24F8F886040886050886068C828D83
:202E8000838EF0740112892D022EB8C00712513EAE82D0078F05C3ED9E4003022EB8A80DDB
:202EA00008742826FC74000836FD0886060F8C828D838EF0EF12892D7F01022EBF7F008F2A
:202EC00082850D81D00D22C00D85810DC082C083C0F0E5812404F581A80D08742426FA745C
:202EE000000836FB0886048A828B838CF0E50D2407F8128E58F6A80D08742526FD74000879
:202F000036FE0886078D828E838FF0128E58FDE50D2407F8C3E69D4003022FEBA80D08E5F8
:202F20000D2404F9742826F77400083609F708E609F7E50D2404F886820886830886F0124F
:202F40008E58FFE50D2407F8E604FE8A828B838CF0EE12892DBFFF028003022FC1A80D0851
:202F6000741826FC74000836FD0886068C828D838EF0128E587003022FE6A80D08741826D3
:202F8000FC74000836FD0886068C828D838EF0125C88E5827003022FE6E50D24FBF8E60878
:202FA000467003022FE6E50D24FBF886040886050886068C828D838EF0740112892D022F7D
:202FC000E6C00712513EAE82D0078F05C3ED9E4003022FE60FE50D2404F88682088683081E
:202FE00086F0EF12892D7F01022FED7F008F82850D81D00D22C00D85810DE581240BF58179
:20300000AC82AD83AFF0E50D2408F87600E50D2405F8A60408A60508A607E50D2409FEE500
:203020000D2404F8A606A80D0874242CF674003D08F608A607C0E0C0A8C2AFA80D0886829E
:203040000886830886F0128E58FC8C05EC70030230E4C005E50D24FBF8E6C0E008E6C0E005
:2030600008E6C0E0E50D2405F886820886830886F0123E3F158115811581D005E50D2405D7
:20308000F8742426FB74000836FC088607ED14FA8B828C838FF0EA12892DE50D2405F8746D
:2030A0000C26FB74000836FC0886078B828C838FF0128E5870030230D3E50D2405F8740C02
:2030C00026FB74000836FC0886078B828C838FF0125C88D0E053E080E5E042A8D0E0758242
:2030E000010232ABE50D24F9F8E608466003023102D0E053E080E5E042A8D0E07582000262
:2031000032ABE50D2408F8E660030231278E037C007F408B828C838FF0C006126A76D00624
:20312000E50D2408F87601D0E053E080E5E042A8D0E0C006124A95D006C0E0C0A8C2AFE555
:203140000D2405F8742726FB74000836FC0886078B828C838FF0128E58FABAFF0280030275
:20316000316D8B828C838FF0740012892DE50D2405F8742826FB74000836FC0886078B82BA
:203180008C838FF0128E58FABAFF02800302319B8B828C838FF0740012892DC006D0E05303
:2031A000E080E5E042A8D0E0E50D24F9FF7C007B40E50D2404F886027D007E40C006C007A9
:2031C000C004C0038A828D838EF0126AA8AF82158115811581D006D006EF6003023272E52E
:2031E0000D2405F886820886830886F0C006124131E582D0067003023254E50D2405F87401
:203200001826FC74000836FD088607C006E50D24F9F8E6C0E008E6C0E08C828D838FF012A0
:203220005A6415811581D006E50D2405F886820886830886F0C006123F99D006C006124A7C
:203240009DE582D0066003023035C006120B0FD006023035E50D2405F886820886830886E1
:20326000F0C006123F99D006C006124A9DD006023035E50D2405F886820886830886F0C072
:2032800006123F99D006C006124A9DD006E50D2405F886820886830886F0C006124131E5FA
:2032A00082D0067003023035758200850D81D00D22C00D85810DE581240BF581AC82AD838A
:2032C000AFF0E50D2405F87600E50D2409F8A60408A60508A607E50D2406FEE50D2404F871
:2032E000A606A80D0874242CF674003D08F608A607C0E0C0A8C2AFA80D08868208868308F0
:2033000086F0128E58FC8C07EC700302336AEF14FCA80D0886820886830886F0EC12892DAB
:20332000E50D2409F8740C26FB74000836FC0886078B828C838FF0128E587003023359E519
:203340000D2409F8740C26FB74000836FC0886078B828C838FF0125C88D0E053E080E5E09E
:2033600042A8D0E0758201023531E50D24FCF8E608466003023388D0E053E080E5E042A8E3
:20338000D0E0758200023531E50D2405F8E660030233AD8E037C007F408B828C838FF0C0B9
:2033A00006126A76D006E50D2405F87601D0E053E080E5E042A8D0E0C006124A95D006C0A6
:2033C000E0C0A8C2AFE50D2409F8742726FB74000836FC0886078B828C838FF0128E58FA91
:2033E000BAFF0280030233F38B828C838FF0740012892DE50D2409F8742826FB740008360A
:20340000FC0886078B828C838FF0128E58FABAFF0280030234218B828C838FF0740012894F
:203420002DC006D0E053E080E5E042A8D0E0E50D24FCFF7C007B40E50D2404F886027D0078
:203440007E40C006C007C004C0038A828D838EF0126AA8AF82158115811581D006D006EF4E
:2034600060030234F8E50D2409F886820886830886F0C006124131E582D00670030234DA03
:20348000E50D2409F8741826FC74000836FD088607C006E50D24FCF8E6C0E008E6C0E08CB3
:2034A000828D838FF0125A6415811581D006E50D2409F886820886830886F0C006123F99CB
:2034C000D006C006124A9DE582D00660030232F1C006120B0FD0060232F1E50D2409F88608
:2034E000820886830886F0C006123F99D006C006124A9DD0060232F1E50D2409F886820854
:2035000086830886F0C006123F99D006C006124A9DD006E50D2409F886820886830886F05B
:20352000C006124131E582D00670030232F1758200850D81D00D22C00D85810DE581240DEC
:20354000F581AD82AB83AFF07C00E50D240BF8A60508A60308A607E50D2408FEE50D24041D
:20356000F8A606A80D0874242DF674003B08F608A607C0E0C0A8C2AFA80D0886820886837E
:203580000886F0128E587003023661E50D240BF8740626FA74000836FB08860774032AFA19
:2035A00074003BFB8A828B838FF0128E58FEA3128E58FDA3128E58FCC006C005C004E50D62
:2035C00024FBF8E6C0E008E6C0E008E6C0E0E50D240BF886820886830886F0123E3F15815D
:2035E00015811581D004D005D006E50D240BF8740626FA74000836FB08860774032AFA741C
:20360000003BFB8A828B838FF0EE12892DA3ED12892DA3EC12892DE50D240BF8741826FAB1
:2036200074000836FB0886078A828B838FF0128E587003023650E50D240BF8741826FA7483
:20364000000836FB0886078A828B838FF0125C88D0E053E080E5E042A8D0E0758201023819
:2036600061E50D24F9F8E60846600302367FD0E053E080E5E042A8D0E0758200023861EC54
:20368000600302369A8E027B007F408A828B838FF0C006126A76D0067C01D0E053E080E53F
:2036A000E042A8D0E0C006C004124A95D004D006C0E0C0A8C2AFE50D240BF8742726FA74AA
:2036C000000836FB0886078A828B838FF0128E58FDBDFF0280030236E48A828B838FF07424
:2036E0000012892DE50D240BF8742826FA74000836FB0886078A828B838FF0128E58FDBDA0
:20370000FF0280030237128A828B838FF0740012892DC004D0E053E080E5E042A8D0E0E59A
:203720000D24F9FFE50D2405F8A607087600087640E50D2404F886047D007F40C006C00402
:20374000E50D2405F8E6C0E008E6C0E008E6C0E08C828D838FF0126AA8AF82158115811581
:2037600081D004D006D004EF600302381CE50D240BF886820886830886F0C006C004124115
:2037800031E582D004D00670030237F6E50D240BF8741826FB74000836FD088607C006C0B5
:2037A00004E50D24F9F8E6C0E008E6C0E08B828D838FF0125A6415811581D004D006E50DB6
:2037C000240BF886820886830886F0C006C004123F99D004D006C006C004124A9DE582D053
:2037E00004D0066003023572C006C004120B0FD004D006023572E50D240BF88682088683A8
:203800000886F0C006C004123F99D004D006C006C004124A9DD004D006023572E50D240B15
:20382000F886820886830886F0C006C004123F99D004D006C006C004124A9DD004D006E5C9
:203840000D240BF886820886830886F0C006C004124131E582D004D006700302357275826B
:2038600000850D81D00D22C00D85810DC082C083C0F0A80D08742426FA74000836FB088671
:20388000048A828B838CF0128E58FA8A04EA7003023990A80D08742726FA74000836FB08B9
:2038A00086078A828B838FF0128E58FFC007C004E50D24FBF8E6C0E008E6C0E008E6C0E0B5
:2038C000A80D0886820886830886F0123E3F158115811581D004D007A80D08742426FB74AE
:2038E000000836FD0886061C8B828D838EF0EC12892DBFFF02800302395EA80D08740C264F
:20390000FC74000836FD0886068C828D838EF0128E58700302398BA80D08740C26FC7400C8
:203920000836FD0886068C828D838EF0125C88E582700302398BE50D24F8F8E608467003D9
:2039400002398BE50D24F8F886040886050886068C828D838EF0740112892D02398BC00784
:2039600012513EAE82D0078F05C3ED9E400302398BA80D08742726FC74000836FD088606F7
:203980000F8C828D838EF0EF12892D7F010239927F008F82850D81D00D22C00D85810DAD49
:2039A00082AE83AFF074242DFA74003EFB8F048A828B838CF0128E587003023A4374062D8F
:2039C000FA74003EFB8F0474032AFA74003BFB8A828B838CF0128E58FAA3128E58FBA31295
:2039E0008E58FCC007C006C005C004C003C002E50D24FBF8E6C0E008E6C0E008E6C0E08D12
:203A0000828E838FF0123E3F158115811581D002D003D004D005D006D00774062DFD740030
:203A20003EFE74032DFD74003EFE8D828E838FF0EA12892DA3EB12892DA3EC12892D7F017B
:203A4000023A457F008F82D00D22AD82AE83AFF0C0E0C0A8C2AF74242DFD74003EFE8D825D
:203A60008E838FF0128E58FDD0E053E080E5E042A8D0E08D8222AD82AE83AFF0C0E0C0A8C7
:203A8000C2AF74252DFA74003EFB8F048A828B838CF0128E58FA74242DFD74003EFE8D82AC
:203AA0008E838FF0128E58FDEAC39DFAD0E053E080E5E042A8D0E08A8222AD82AE83AFF04E
:203AC00074242DFD74003EFE8D828E838FF0128E58FD8D8222AD82AE83AFF08D828E838F01
:203AE000F01225B822C00D85810DC082C083C0F0E581240AF581A80D08742426FA740008B5
:203B000036FB0886048A828B838CF0E50D240DF8128E58F6A80D08E50D2407F9742626F7B9
:203B20007400083609F708E609F7E50D2407F886820886830886F0128E58FEEE7003023EA2
:203B400024E50D24FAF8E66003023CA1C002C003C0048E047D00A80D08E50D2404F9740372
:203B600026F77400083609F708E609F7E50D2404F886820886830886F0128E58FAA3128EAA
:203B800058FBA3128E58FFC004C003C002C004C005E50D24FBF8E6C0E008E6C0E008E6C09B
:203BA000E08A828B838FF0128C3FE58124FBF581D002D003D004E50D2404F8868208868310
:203BC0000886F0128E58FCA3128E58FDA3128E58FFE50D2407F886820886830886F0128EF5
:203BE00058FBE50D240AF8EB2CF674003D08F608A607E50D2404F886820886830886F0E55B
:203C00000D240AF9E712892DA309E712892DA309E712892DA80D08740626FA74000836FB07
:203C20000886078A828B838FF0128E58FAA3128E58FBA3128E58FFE50D240AF8C002C00397
:203C4000C00786820886830886F0120079158115811581D004D003D0025003023E24C002C7
:203C6000C003C004A80D0886820886830886F0128E58FCA3128E58FDA3128E58FFE50D242D
:203C800004F886820886830886F0EC12892DA3ED12892DA3EF12892DD004D003D002023E72
:203CA00024C002C003C0047F00A80D08E50D240AF9740626F77400083609F708E609F7E526
:203CC0000D240AF8E50D2404F9740326F77400083609F708E609F7E50D2404F886820886C2
:203CE000830886F0128E58FBA3128E58FCA3128E58FDC004C003C002C006C007E50D24FBBA
:203D0000F8E6C0E008E6C0E008E6C0E08B828C838DF0128C3FE58124FBF581D002D003D023
:203D200004E50D2404F886820886830886F0128E58FDA3128E58FEA3128E58FFE50D240791
:203D4000F886820886830886F0128E58FC7B00EDC39CFDEE9BFEE50D2404F886820886836A
:203D60000886F0ED12892DA3EE12892DA3EF12892DA80D0886820886830886F0128E58FA17
:203D8000A3128E58FBA3128E58FCC002C003C0048D828E838FF0120079158115811581D0F1
:203DA00004D003D0024003023E06C002C003C004E50D240AF886820886830886F0128E58E1
:203DC000FDA3128E58FEA3128E58FFE50D2407F886820886830886F0128E58FC7B00EDC3E8
:203DE0009CFDEE9BFEE50D2404F886820886830886F0ED12892DA3EE12892DA3EF12892D92
:203E0000D004D003D002E50D24FAF8B602028003023E24E50D240DF8E67003023E24E50DB6
:203E2000240DF816E50D240DF8E604FF8A828B838CF0EF12892D758200850D81D00D22C029
:203E40000D85810DE5812407F581C8E50D2405C8A68208A68308A6F0E50D2405F8742626C6
:203E6000FA74000836FB0886048A828B838CF0A80D08128E58F6A80D08E67003023F93C01E
:203E800002C003C004E50D2405F8740626FA74000836FB088604A80D080874032AF67400DD
:203EA0003B08F608A604A80D080886820886830886F0128E58FDA3128E58FEA3128E58FF93
:203EC000A80D08E62DFD74003EFEA80D080886820886830886F0ED12892DA3EE12892DA358
:203EE000EF12892D8A828B838CF0128E58FAA3128E58FBA3128E58FCC002C003C0048D82FE
:203F00008E838FF0120079158115811581D004D003D0025003023F4DE50D2405F886820847
:203F200086830886F0128E58FDA3128E58FEA3128E58FFA80D080886820886830886F0ED89
:203F400012892DA3EE12892DA3EF12892D8A828B838CF0128E58FA7F00A80D08088682080A
:203F600086830886F0128E58FCA3128E58FDA3128E58FEC002C007C004C005C006E50D24A7
:203F8000FBF886820886830886F0128C3FE58124FBF581850D81D00D22C00D85810DC0828B
:203FA000C083C0F0E5812404F581C0E0C0A8C2AFA80D08742826FA74000836FB0886048A4F
:203FC000828B838CF0E50D2407F8128E58F6A80D08E50D2404F9741826F77400083609F7A7
:203FE00008E609F7E50D2407F8C37400648086F063F08095F04003024052E50D2404F88666
:20400000820886830886F0128E587003024052A80D08741826FD74000836FE0886078D82D0
:204020008E838FF0C004C003C002125C88E582D002D003D0047003024049C004C003C0028A
:20404000126BCFD002D003D004E50D2407F816023FE48A828B838CF074FF12892DD0E05377
:20406000E080E5E042A8D0E0C0E0C0A8C2AFA80D08742726FD74000836FE0886078D828EAB
:20408000838FF0128E58FCA80D08E50D2404F9740C26F77400083609F708E609F7C37400E6
:2040A00064808CF063F08095F04003024115E50D2404F886820886830886F0128E58700399
:2040C000024115C005C006C007A80D08740C26FA74000836FB0886078A828B838FF0C00737
:2040E000C006C005C004125C88E582D004D005D006D007D007D006D0057003024111C007AE
:20410000C006C005C004126BCFD004D005D006D0071C02409D8D828E838FF074FF12892DD9
:20412000D0E053E080E5E042A8D0E0850D81D00D22AD82AE83AFF0C0E0C0A8C2AF74242D6E
:20414000FD74003EFE8D828E838FF0128E5860030241587F0102415A7F00D0E053E080E539
:20416000E042A8D0E08F8222AD82AE83AFF074242DFD74003EFE8D828E838FF0128E58602A
:20418000030241897F0102418B7F008F8222AD82AE83AFF0C0E0C0A8C2AF74242DFA7400A5
:2041A0003EFB8F048A828B838CF0128E58FA74252DFD74003EFE8D828E838FF0128E58FDA4
:2041C000EAB5050280030241CE7F010241D07F00D0E053E080E5E042A8D0E08F8222AD826F
:2041E000AE83AFF074242DFA74003EFB8F048A828B838CF0128E58FA74252DFD74003EFEF5
:204200008D828E838FF0128E58FDEAB5050280030242187F0102421A7F008F8222C00D85A3
:20422000810D058105810581AE82AF83758233758300C007C0061224F8AB82AC83ADF0D056
:2042400006D007A80D08A60308A60408A605A80D08E608467003024301C006C007A80D08C2
:204260008602088606088607C007C0067433C0E07400C0E0C0E08A828E838FF0128CD215E4
:204280008115811581D006D007A80D08742026FA74000836FE088607E50D24F9F886040875
:2042A00086058C828D83C007C006C0021224F8AB82AC83ADF0D002D006D0078A828E838FB4
:2042C000F0EB12892DA3EC12892DA3ED12892DD007D006EB4C6003024301A80D08860308B1
:2042E00086040886058B828C838DF0C007C0061225B8D006D007A80D087400F608F608763C
:2043000000A80D08E608467003024390E50D24F9F886020886037C007D007400C0E0C0E097
:20432000C0E0A80D08E6C0E008E6C0E008E6C0E0E50D24F2F8E6C0E008E6C0E008E6C0E0DC
:20434000E50D24F5F8E6C0E0E50D24F6F8E6C0E008E6C0E008E6C0E0C002C003C004C00520
:20436000E50D24FBF8E6C0E008E6C0E008E6C0E08E828F8312439AE58124ECF581A80D08D8
:2043800086820886830886F012467C7F010243927FFF8F82850D81D00D22C00D85810DC01A
:2043A00082C083E581240CF581E50D24EDF8E50D2409F9E6F708E609F708E609F7E50D244A
:2043C00009F8742026FA74000836FE0886078A828E838FF0E50D240CF8128E58F6A3128EFC
:2043E0005808F6A3128E5808F6E50D240CF8E50D2406F9E6F708E609F708E609F7E50D24D0
:2044000009F8E50D2403F9742B26F77400083609F708E609F7E50D24F7F8E624FFFA08E637
:2044200034FFFE08E634FFFD08E634FFFFE50D240CF8EA26FAEE0836FE088605E50D240313
:20444000F886820886830886F0EA12892DA3EE12892DA3ED12892DE50D24FBF8E6084670BD
:20446000030244F1E50D2409F8742326FD74000836FE0886077B00E50D2403F8EB2DF674DE
:20448000003E08F608A607C005C006C007E50D24FBF8EB26FD74000836FE0886078D828EE0
:2044A000838FF0128E58FCE50D2403F886820886830886F0EC12892D8D828E838FF0128E6B
:2044C00058D007D006D00570030244D50BBB08005003024477E50D2409F8742A26FD74004A
:2044E0000836FE0886078D828E838FF0740012892DE50D24F3F8B604005003024505E50DC4
:2045000024F3F87603E50D2409F8741F26FD74000836FE0886078D828E838FF0E50D24F359
:20452000F8E612892DE50D2409F8740326FD74000836FE0886078D828E838FF0121F54E5D6
:204540000D2409F8741126FD74000836FE0886078D828E838FF0121F54E50D2409F8740B82
:2045600026FD74000836FE088607E50D24EDF886020886030886048D828E838FF0EA128909
:204580002DA3EB12892DA3EC12892DE50D2409F8E50D2403F9741126F77400083609F708BC
:2045A000E609F7E50D24F3F886077E007404C39FFF74009EFEE50D2403F8868208868308EE
:2045C00086F0EF12892DA3EE12892DE50D2409F8741926FD74000836FE0886078D828E8329
:2045E0008FF0EA12892DA3EB12892DA3EC12892DE50D24F4F8E6C0E008E6C0E008E6C0E039
:20460000A80D08E6C0E008E6C0E0E50D2406F886820886830886F0120897AF82AE83ADF06E
:20462000E58124FBF581E50D2409F886820886830886F0EF12892DA3EE12892DA3ED128996
:204640002DE50D24F0F8E608467003024676E50D24F0F886050886060886078D828E838F69
:20466000F0E50D2409F8E612892DA308E612892DA308E612892D850D81D00D22C00D8581EE
:204680000DC082C083C0F0E581240CF581C0E0C0A8C2AF900F8AE004F0900F87E0FAA3E0D3
:2046A000FBA3E0FCEA4B60030246CEA80D08900F87E6F008E6A3F008E6A3F0900F8AE0FC12
:2046C000BC01028003024725126BE0024725900F8EE06003024725900F87E0FAA3E0FBA360
:2046E000E0FC741F2AFA74003BFB8A828B838CF0128E58FAA80D08741F26FB74000836FCD6
:204700000886078B828C838FF0128E58FBC3EB9A5003024725A80D08900F87E6F008E6A323
:20472000F008E6A3F0900F93E02401F0A80D08E50D2407F9741F26F77400083609F708E6BE
:2047400009F7E50D2407F886820886830886F0128E58FC900F8DE0FBC3EB9C400302476577
:20476000900F8DECF0E50D2407F886820886830886F0128E58FCEC75F00CA42418FB740FD6
:2047800035F0FC8B828C83A3E50D240DF8E0F6A3E008F6A3E008F6A80D08740326FA74007E
:2047A0000836FB08860474022AFD74003BFE8C078D828E838FF0E50D240DF8E612892DA346
:2047C00008E612892DA308E612892DE50D240AF874052AF674003B08F608A604E50D240D97
:2047E000F8E50D2404F9740526F77400083609F708E609F7E50D2404F886820886830886BF
:20480000F0128E58FDA3128E58FEA3128E58FFE50D240AF886820886830886F0ED12892D1C
:20482000A3EE12892DA3EF12892DE50D2404F886820886830886F0128E58FDA3128E58FE8E
:20484000A3128E58FF74022DFD74003EFE8D828E838FF0EA12892DA3EB12892DA3EC12899D
:204860002DE50D2404F886820886830886F0EA12892DA3EB12892DA3EC12892D740B2AFA60
:2048800074003BFBE50D2407F886820886830886F0128E58FFEF75F00CA42418FE740F35D5
:2048A000F0FF7D008A828B838CF0EE12892DA3EF12892DA3ED12892DE50D2407F886820869
:2048C00086830886F0128E58FFEF75F00CA42418FE740F35F0FF8E828F83E0FD0D8E828FCA
:2048E00083EDF0D0E053E080E5E042A8D0E0900F8EE070030248FF900F87E0A3E0A3E0853C
:204900000D81D00D22C00D85810DC082C083C0F0058105817E00C006124A95D006900F8BB4
:20492000E0FAA3E0FBE50D2404F8A60208A603A80D0886820886830886F0128E58FBA312B8
:204940008E58FCE50D24FCF8E62BFD08E63CFF8D02E50D2404F8C3E69B08E69C4003024937
:2049600080C3EA9BEF9C400302499CE50D2404F8C3E69A08E69F400302499C7E0102499C48
:20498000C3EA9BEF9C500302499AE50D2404F8C3E69A08E69F400302499C7E01A80D08863E
:2049A000820886830886F0EA12892DA3EF12892DEE70030249D4E50D2404F8EAC396FAEF1C
:2049C0000896FFC0067400C0E08A828F831287B51581D006C006124A9DE582D00660030227
:2049E00049E9C006120B0FD0068E82850D81D00D22AE82AF837D00EE4F7003024A1DC007DC
:204A0000C006124A95D006D0077400C0E08E828F831287B51581124A9DAF828F05ED60030A
:204A2000024A26120B0F227496C0E0740FC0E07400C0E0C0E0C0E0C0E0C0E0745FC0E0746E
:204A400000C0E0743AC0E07492C0E07480C0E07582D675836B12421DAF82E58124F4F58168
:204A6000BF01028003024A83C2AF900F9474FFF0A3F0900F8E7401F0900F8B7400F0A3F0D5
:204A8000120A91909239E49322C2AF900F8E7400F0120B0E22900F99E02401F022C00D8585
:204AA000810DE5812415F581E50D2410F87400F608F6087600C0E0C0A8C2AF900F99E014AA
:204AC000F0E060030250FF900F8AE070030250FF900F66E070030250A8900F6CE0FAA3E0CB
:204AE000FBA3E0FC74082AFA74003BFB8A828B838CF0128E58FAA3128E58FBA3128E58FC3D
:204B0000E50D2410F8A60208A60308A604E50D2410F8741126FA74000836FB088604E50D78
:204B20002410F8741C26FD74000836FE0886078D828E838FF0E50D2413F8128E58F6A312EE
:204B40008E5808F6A3128E5808F6E50D2410F8A90D09741326F77400083609F708E609F7B7
:204B6000A80D0886820886830886F0128E58FDA3128E58FEA3128E58FFE50D240AF8740528
:204B80002DF674003E08F608A607E50D2410F8E50D2404F9741626F77400083609F708E615
:204BA00009F7E50D2404F886820886830886F0128E58FDA3128E58FEA3128E58FFE50D240E
:204BC0000AF886820886830886F0ED12892DA3EE12892DA3EF12892DE50D2404F8868208B2
:204BE00086830886F0128E58FDA3128E58FEA3128E58FFE50D240AF874022DF674003E089B
:204C0000F608A607A80D0886820886830886F0128E58FDA3128E58FEA3128E58FFE50D2457
:204C20000AF886820886830886F0ED12892DA3EE12892DA3EF12892DE50D2413F8E50D243C
:204C40000AF9740126F77400083609F708E609F7E50D240AF886820886830886F0128E5878
:204C6000FDA3128E58FEA3128E58FFC002C003C0048D828E838FF0120079158115811581CF
:204C800070028003024CBDE50D2404F886820886830886F0128E58FDA3128E58FEA3128E9A
:204CA00058FFE50D240AF886820886830886F0ED12892DA3EE12892DA3EF12892D740B2ADD
:204CC000FA74003BFB8A828B838CF0740012892DA312892DA312892DE50D2413F886820857
:204CE00086830886F0128E58FF1FE50D2413F886820886830886F0EF12892DE50D2410F88A
:204D0000740326FD74000836FE088607E50D240AF8740B2DF674003E08F608A607E50D247F
:204D20000AF886820886830886F0E50D2413F9128E58F7A3128E5809F7A3128E5809F7E5AE
:204D40000D2404F874022DF674003E08F608A607E50D2404F886820886830886F0128E5887
:204D6000FAA3128E58FBA3128E58FCE50D240DF874052AF674003B08F608A604A80D0874C8
:204D8000052DF674003E08F608A607A80D0886820886830886F0128E58FAA3128E58FBA307
:204DA000128E58FCE50D240DF886820886830886F0EA12892DA3EB12892DA3EC12892DA846
:204DC0000D0886820886830886F0128E58FAA3128E58FBA3128E58FCE50D240DF874022A4D
:204DE000F674003B08F608A604E50D2404F886820886830886F0128E58FAA3128E58FBA38A
:204E0000128E58FCE50D240DF886820886830886F0EA12892DA3EB12892DA3EC12892DE5A8
:204E20000D2413F8E50D240DF9740126F77400083609F708E609F7E50D240DF88682088637
:204E4000830886F0128E58FAA3128E58FBA3128E58FCC005C006C0078A828B838CF0120038
:204E60007915811581158170028003024EA2A80D0886820886830886F0128E58FAA3128E87
:204E800058FBA3128E58FCE50D240DF886820886830886F0EA12892DA3EB12892DA3EC12CD
:204EA000892DC005C006C007E50D240AF886820886830886F0740012892DA312892DA312DF
:204EC000892DE50D2413F886820886830886F0128E58FC1CE50D2413F8868208868308868C
:204EE000F0EC12892DE50D2410F8E50D2407F9741F26F77400083609F708E609F7E50D2474
:204F000007F886820886830886F0128E58FC900F8DE0FFC3EF9CD007D006D0054003024F98
:204F200026900F8DECF0E50D2407F886820886830886F0128E58FCEC75F00CA42418FB74F7
:204F40000F35F0FC8B828C83A3E0FAA3E0FBA3E0FCE50D2404F886820886830886F0EA12E6
:204F6000892DA3EB12892DA3EC12892DE50D240DF874052AF674003B08F608A604E50D24A5
:204F80000DF886820886830886F0128E58FAA3128E58FBA3128E58FCA80D08868208868380
:204FA0000886F0EA12892DA3EB12892DA3EC12892DE50D240DF886820886830886F0128EC2
:204FC00058FAA3128E58FBA3128E58FC74022AFA74003BFB8A828B838CF0ED12892DA3EE32
:204FE00012892DA3EF12892DE50D240DF886820886830886F0ED12892DA3EE12892DA3EF3D
:2050000012892DE50D2407F886820886830886F0128E58FFEF75F00CA42418FE740F35F03F
:20502000FF7D00E50D240AF886820886830886F0EE12892DA3EF12892DA3ED12892DE50DEB
:205040002407F886820886830886F0128E58FFEF75F00CA42418FE740F35F0FF8E828F8398
:20506000E0FD0D8E828F83EDF0E50D2407F886820886830886F0128E58FF900F87E0FCA3FF
:20508000E0FDA3E0FE741F2CFC74003DFD8C828D838EF0128E58FCC3EF9C5003024AD0906C
:2050A0000F917401F0024AD0E50D2410F8E6084670030250B8126C49900F8FE0FEA3E0FFAB
:2050C0008E048F05EE4F70030250FB8C068D07C007C0061251B0E582D006D007700302500E
:2050E000E7900F917401F01EBEFF011FEE4F60030250CF900F8F7400F0A3F0900F91E0D073
:20510000E053E080E5E042A8D0E0758200850D81D00D22C0E0C0A8C2AF900F8BE0FEA3E090
:20512000FFD0E053E080E5E042A8D0E08E828F8322900F8BE0FEA3E0FF8E828F8322900FFD
:205140008AE0FF8F8222AD82AE83AFF0ED4E6003025161900F87E0FAA3E0FBA3E0FC025112
:20516000678D028E038F0474232AFA74003BFB8A828B838CF022AE82AF83C007C006124AAD
:2051800095D006D007C0E0C0A8C2AF900F8FE0FCA3E0FD900F8FEE2CF0EF3DA3F0D0E053D0
:2051A000E080E5E042A8D0E0124A9DAF828F8222C00D85810DE5812417F581900F99E06064
:2051C000030258BC900F8BE0FEA3E0FFE50D2413F874012EF674003F08F6E50D2413F89010
:2051E0000F8BE6F008E6A3F0E50D2413F8E60846600302522A900F60E0FBA3E0FCA3E0FDAF
:20520000900F63E0FAA3E0FEA3E0FF900F60EAF0EEA3F0EFA3F0900F63EBF0ECA3F0EDA3E7
:20522000F0900F92E004F0126C49900F94E0FCA3E0FDE50D2413F8C3E69C08E69D500302DD
:2052400058C8900F60E0FBA3E0FCA3E0FD8B828C838DF0128E586003025266900F9474FF01
:20526000F0A3F00258C8900F60E0FBA3E0FCA3E0FD74042BFB74003CFC74022BFB74003C1A
:20528000FC8B828C838DF0128E58FBA3128E58FCA3128E58FD74082BFB74003CFC8B828C70
:2052A000838DF0128E58FBA3128E58FCA3128E58FDE50D2410F8A60308A60408A605E50DAE
:2052C0002410F8740326FE74000836FA0886078E828A838FF0128E58FEA3128E58FFE50DA8
:2052E0002413F8C3E69E08E69F40030252F9900F94EEF0EFA3F00258C8E50D2410F87403D1
:2053000026FA74000836FE088607E50D2410F8740E26FB74000836FC0886058B828C838D7D
:20532000F0E50D2415F8128E58F6A3128E5808F6A3128E5808F6E50D2410F8A90D097405E4
:2053400026F77400083609F708E609F7A80D0886820886830886F0128E58FBA3128E58FCB2
:20536000A3128E58FDE50D2404F874052BF674003C08F608A605E50D2410F8E50D240AF951
:20538000740826F77400083609F708E609F7E50D240AF886820886830886F0128E58FBA38F
:2053A000128E58FCA3128E58FDE50D2404F886820886830886F0EB12892DA3EC12892DA30B
:2053C000ED12892DE50D240AF886820886830886F0128E58FBA3128E58FCA3128E58FDE562
:2053E0000D2404F874022BF674003C08F608A605A80D0886820886830886F0128E58FBA39E
:20540000128E58FCA3128E58FDE50D2404F886820886830886F0EB12892DA3EC12892DA3AA
:20542000ED12892DE50D2415F8E50D2404F9740126F77400083609F708E609F7E50D240435
:20544000F886820886830886F0128E58FBA3128E58FCA3128E58FDC002C006C0078B828CB3
:20546000838DF0120079158115811581700280030254A9E50D240AF886820886830886F03C
:20548000128E58FBA3128E58FCA3128E58FDE50D2404F886820886830886F0EB12892DA3EB
:2054A000EC12892DA3ED12892DE50D2407F8740B2AF674003E08F608A607E50D2407F8862C
:2054C000820886830886F0740012892DA312892DA312892DC002C006C007E50D2415F886B1
:2054E000820886830886F0128E58FF1FE50D2415F886820886830886F0EF12892DE50D24FE
:2055000010F8E50D2404F9741126F77400083609F708E609F7E50D2404F8E50D240AF9748F
:205520000B26F77400083609F708E609F7E50D240AF886820886830886F0128E58FBA3124C
:205540008E58FCA3128E58FDD007D006D002EB4C7003025704C002C006C007E50D2415F8D9
:20556000A60308A60408A605E50D2404F8740226FA74000836FE0886078A828E838FF01282
:205580008E58FBA3128E58FCA3128E58FDE50D240DF874052BF674003C08F608A605E50DF3
:2055A0002404F8A90D09740526F77400083609F708E609F7A80D0886820886830886F01270
:2055C0008E58FBA3128E58FCA3128E58FDE50D240DF886820886830886F0EB12892DA3ECC7
:2055E00012892DA3ED12892DA80D0886820886830886F0128E58FBA3128E58FCA3128E5812
:20560000FD74022BFB74003CFC8A828E838FF0128E58FAA3128E58FEA3128E58FF8B828CEB
:20562000838DF0EA12892DA3EE12892DA3EF12892DE50D2415F8E50D240DF9740126F774C0
:2056400000083609F708E609F7E50D240DF886820886830886F0128E58FDA3128E58FEA33B
:20566000128E58FFE50D2404F8C005C006C00786820886830886F0120079158115811581EB
:2056800070028009D007D006D0020256C7D007D006D002A80D0886820886830886F0128EFE
:2056A00058FBA3128E58FCA3128E58FDE50D240DF886820886830886F0EB12892DA3EC1262
:2056C000892DA3ED12892DE50D240AF886820886830886F0740012892DA312892DA3128928
:2056E0002DE50D2415F886820886830886F0128E58FD1DE50D2415F886820886830886F0F7
:20570000ED12892DC002C006C007E50D2410F8E50D2404F9741F26F77400083609F708E604
:2057200009F7E50D2404F886820886830886F0128E58FD900F8DE0FFC3EF9DD007D006D0F4
:2057400002400302574B900F8DEDF0E50D2404F886820886830886F0128E58FDED75F00C5B
:20576000A42418FC740F35F0FD8C828D83A3E50D2415F8E0F6A3E008F6A3E008F674022A4C
:20578000FB74003EFC8F058B828C838DF0E50D2415F8E612892DA308E612892DA308E61266
:2057A000892DE50D240DF874052AF674003E08F608A607E50D2415F8E50D240AF97405263F
:2057C000F77400083609F708E609F7E50D240AF886820886830886F0128E58FBA3128E58F5
:2057E000FCA3128E58FDE50D240DF886820886830886F0EB12892DA3EC12892DA3ED12892E
:205800002DE50D240AF886820886830886F0128E58FBA3128E58FCA3128E58FD74022BFBEE
:2058200074003CFC8B828C838DF0EA12892DA3EE12892DA3EF12892DE50D240AF886820896
:2058400086830886F0EA12892DA3EE12892DA3EF12892DE50D2404F886820886830886F0B3
:20586000128E58FFEF75F00CA42418FE740F35F0FF7D00E50D2407F886820886830886F023
:20588000EE12892DA3EF12892DA3ED12892DE50D2404F886820886830886F0128E58FFEF11
:2058A00075F00CA42418FE740F35F0FF8E828F83E0FD0D8E828F83EDF0025242900F8FE043
:2058C0002401F0A3E03400F0758200850D81D00D22C00D85810DE581240AF581900F99E001
:2058E00070030258EE900F917401F0025A5E900F917400F0900F8DE0FFEF75F00CA4FDAE50
:20590000F0ED2418FBEE340FFC8B828C83E060030259171F0258F9E50D2407F8A607ED2430
:2059200018FDEE340FFEE50D2408F8A60508A606087600E50D2408F8740126FA74000836D3
:20594000FB0886078A828B838FF0128E58FCA3128E58FDA3128E58FE74022CFC74003DFDAD
:205960008C828D838EF0128E58FCA3128E58FDA3128E58FE8A828B838FF0EC12892DA3ED89
:2059800012892DA3EE12892D8A828B838FF0A80D08128E58F6A3128E5808F6A3128E580866
:2059A000F6E50D2404F8A60408A60508A606E50D2408F8740426FC74000836FD088606E5F6
:2059C0000D2404F8C004C005C00686820886830886F0120079158115811581700280030270
:2059E0005A19A80D08740226FC74000836FD0886068C828D838EF0128E58FCA3128E58FD74
:205A0000A3128E58FE8A828B838FF0EC12892DA3ED12892DA3EE12892D8A828B838FF01244
:205A20008E58FAA3128E58FBA3128E58FF74082AFA74003BFB8A828B838FF0128E58FAA3DE
:205A4000128E58FBA3128E58FF900F87EAF0EBA3F0EFA3F0E50D2407F8900F8DE6F0850D10
:205A600081D00D22C00D85810DAD82AE83AFF0900F87E0FAA3E0FBA3E0FC74112AFA7400AD
:205A80003BFBC002C003C0048D828E838FF01220DA1581158115817401C0E0E50D24FCF8FB
:205AA00086820886831287B51581D00D22C00D85810DE5812406F581C8E50D2404C8A68232
:205AC00008A68308A6F0900F87E0FAA3E0FBA3E0FC74112AFA74003BFBE50D24FCF8860611
:205AE0000886074307808A828B838CF0EE12892DA3EF12892DE50D2404F8740126FD740083
:205B00000836FE0886078D828E838FF0128E58FDA3128E58FEA3128E58FF900F87E0FAA34A
:205B2000E0FBA3E0FC74112AFA74003BFB74022AFA74003BFB8A828B838CF0ED12892DA386
:205B4000EE12892DA3EF12892D900F87E0FAA3E0FBA3E0FC74112AFA74003BFBA80D0874B4
:205B6000052AF674003B08F608A60474052DFD74003EFE8D828E838FF0128E58FAA3128E7A
:205B800058FBA3128E58FCA80D0886820886830886F0EA12892DA3EB12892DA3EC12892D68
:205BA0008D828E838FF0128E58FAA3128E58FBA3128E58FCA80D0874022AF674003B08F627
:205BC00008A604900F87E0FAA3E0FBA3E0FC74112AFA74003BFBA80D08868208868308865F
:205BE000F0EA12892DA3EB12892DA3EC12892D900F87E0FAA3E0FBA3E0FC74112AFA74003C
:205C00003BFB8D828E838FF0EA12892DA3EB12892DA3EC12892D900F87E0FDA3E0FEA3E049
:205C2000FF74112DFD74003EFE740B2DFD74003EFE8D828E838FF0E50D2404F8E612892D4E
:205C4000A308E612892DA308E612892DE50D2404F886820886830886F0128E58FF0FE50DF1
:205C60002404F886820886830886F0EF12892D7401C0E0E50D24FAF886820886831287B532
:205C80001581850D81D00D22C00D85810DE5812419F581AD82AE83AFF074042DFD74003E10
:205CA000FE74022DFD74003EFE8D828E838FF0128E58FDA3128E58FEA3128E58FF74082D26
:205CC000FD74003EFE8D828E838FF0128E58FDA3128E58FEA3128E58FFE50D2414F8A60583
:205CE00008A60608A607E50D2414F8741126FA74000836FB088604E50D2414F8741C26FD60
:205D000074000836FE0886078D828E838FF0E50D2417F8128E58F6A3128E5808F6A3128EB0
:205D20005808F6E50D2414F8E50D240AF9741326F77400083609F708E609F7E50D240AF876
:205D400086820886830886F0128E58FDA3128E58FEA3128E58FFE50D2407F874052DF6745F
:205D6000003E08F608A607E50D2414F8E50D2404F9741626F77400083609F708E609F7E5D1
:205D80000D2404F886820886830886F0128E58FDA3128E58FEA3128E58FFE50D2407F8867C
:205DA000820886830886F0ED12892DA3EE12892DA3EF12892DE50D2404F886820886830837
:205DC00086F0128E58FDA3128E58FEA3128E58FFE50D2407F874022DF674003E08F608A619
:205DE00007E50D240AF886820886830886F0128E58FDA3128E58FEA3128E58FFE50D2407A8
:205E0000F886820886830886F0ED12892DA3EE12892DA3EF12892DE50D2417F8E50D240749
:205E2000F9740126F77400083609F708E609F7E50D2407F886820886830886F0128E58FD96
:205E4000A3128E58FEA3128E58FFC002C003C0048D828E838FF0120079158115811581706A
:205E6000028003025E9CE50D2404F886820886830886F0128E58FDA3128E58FEA3128E58CF
:205E8000FFE50D2407F886820886830886F0ED12892DA3EE12892DA3EF12892DE50D2411C8
:205EA000F8740B2AF674003B08F608A604E50D2411F886820886830886F0740012892DA357
:205EC00012892DA312892DC002C003C004E50D2417F886820886830886F0128E58FC1CE595
:205EE0000D2417F886820886830886F0EC12892D900F99E0D004D003D00260030262DCE5FE
:205F00000D2414F8740326FC74000836FB088602E50D2404F8740B2CF674003B08F608A660
:205F200002E50D2404F886820886830886F0128E58FFA3128E58FEA3128E58FDE50D240A6E
:205F4000F874022CF674003B08F608A602E50D240AF886820886830886F0E50D240EF91276
:205F60008E58F7A3128E5809F7A3128E5809F7E50D240EF8740526F674000836F6A80D08F8
:205F800074052CF674003B08F608A602A80D0886820886830886F0E50D2411F9128E58F7A6
:205FA000A3128E5809F7A3128E5809F7E50D240EF886820886830886F0E50D2411F9E712DF
:205FC000892DA309E712892DA309E712892DA80D0886820886830886F0E50D2411F9128E41
:205FE00058F7A3128E5809F7A3128E5809F7E50D2411F8740226F674000836F6E50D240AA3
:20600000F886820886830886F0E50D240EF9128E58F7A3128E5809F7A3128E5809F7E50DBD
:206020002411F886820886830886F0E50D240EF9E712892DA309E712892DA309E712892D1A
:20604000E50D2411F874012FF674003E08F608A605E50D2411F886820886830886F0E50D7C
:20606000240EF9128E58F7A3128E5809F7A3128E5809F7E50D240EF8C004C003C002868263
:206080000886830886F0120079158115811581700280030260D8A80D088682088683088691
:2060A000F0E50D240EF9128E58F7A3128E5809F7A3128E5809F7E50D2411F8868208868376
:2060C0000886F0E50D240EF9E712892DA309E712892DA309E712892DE50D2404F88682089E
:2060E00086830886F0740012892DA312892DA312892D8F828E838DF0E50D2411F8128E5851
:20610000F6E50D2411F8E50D2411F9E614F78F828E838DF0E50D2411F8E612892DE50D24D7
:2061200014F8741F26FF74000836FE0886058F828E838DF0E50D240EF8128E58F6900F8D83
:20614000E50D240DF8E0F6E50D240EF8E50D240DF9C3E7964003026163E50D240EF8900F12
:206160008DE6F08F828E838DF0E50D240DF8128E58F6E50D240DF8E675F00CA4C8E50D2420
:206180000EC82418F6740F35F008F6E50D240EF88682088683A3E50D2417F8E0F6A3E008F3
:2061A000F6A3E008F6E50D240AF886820886830886F0E50D2417F9E712892DA309E71289B6
:2061C0002DA309E712892DE50D2417F8E50D240EF9740526F77400083609F708E609F7E5DA
:2061E0000D240EF886820886830886F0E50D240AF9128E58F7A3128E5809F7A3128E58098A
:20620000F7A80D0886820886830886F0E50D240AF9E712892DA309E712892DA309E71289E2
:206220002DE50D240EF886820886830886F0A90D09128E58F7A3128E5809F7A3128E580991
:20624000F7A80D08740226F674000836F6A80D0886820886830886F0EC12892DA3EB12891F
:206260002DA3EA12892DE50D240EF886820886830886F0EC12892DA3EB12892DA3EA1289B7
:206280002D8F828E838DF0128E58FCEC75F00CA42418FC740F35F0FB7A00E50D2404F88650
:2062A000820886830886F0EC12892DA3EB12892DA3EA12892D8F828E838DF0128E58FFEFE9
:2062C00075F00CA42418FF740F35F0FE8F828E83E0FD0D8F828E83EDF00263E9900F67E584
:2062E0000D2417F8E0F6A3E008F6A3E008F674022AFD74003BFE8C078D828E838FF0E50D18
:206300002417F8E612892DA308E612892DA308E612892DA80D0874052AF674003B08F608DF
:20632000A604E50D2417F8E50D240EF9740526F77400083609F708E609F7E50D240EF88699
:20634000820886830886F0128E58FDA3128E58FEA3128E58FFA80D0886820886830886F0B0
:20636000ED12892DA3EE12892DA3EF12892DE50D240EF886820886830886F0128E58FDA36A
:20638000128E58FEA3128E58FF74022DFD74003EFE8D828E838FF0EA12892DA3EB12892D76
:2063A000A3EC12892DE50D240EF886820886830886F0EA12892DA3EB12892DA3EC12892D74
:2063C000E50D2411F886820886830886F0746612892DA3740F12892DA3740012892D900FF9
:2063E00066E0FF0F900F66EFF0E50D2414F8741F26FD74000836FE0886078D828E838FF0A9
:20640000128E58FD900F87E0FCA3E0FEA3E0FF741F2CFC74003EFE8C828E838FF0128E5881
:20642000FCC3EC9D40030264337F01900F91EFF00264357F008F82850D81D00D22C00D851A
:20644000810DC082C083C0F0E5812415F581E50D24FCF88603088604430480A80D088682B3
:206460000886830886F0EB12892DA3EC12892DA80D08740826FA74000836FB0886048A82DF
:206480008B838CF0128E58FAA3128E58FBA3128E58FCE50D2413F8A60208A60308A604A87F
:2064A0000D08740B26FA74000836FB0886048A828B838CF0E50D2416F8128E58F6A3128EFE
:2064C0005808F6A3128E5808F6A80D08E50D2407F9740226F77400083609F708E609F7E5E2
:2064E0000D2407F886820886830886F0128E58FDA3128E58FEA3128E58FFE50D240DF8741E
:20650000052DF674003E08F608A607A80D08E50D240AF9740526F77400083609F708E609D9
:20652000F7E50D240AF886820886830886F0128E58FDA3128E58FEA3128E58FFE50D240D6A
:20654000F886820886830886F0ED12892DA3EE12892DA3EF12892DE50D240AF88682088696
:20656000830886F0128E58FDA3128E58FEA3128E58FFE50D240DF874022DF674003E08F68E
:2065800008A607E50D2407F886820886830886F0128E58FDA3128E58FEA3128E58FFE50D80
:2065A000240DF886820886830886F0ED12892DA3EE12892DA3EF12892DE50D2416F8E50D9D
:2065C000240DF9740126F77400083609F708E609F7E50D240DF886820886830886F0128E0D
:2065E00058FDA3128E58FEA3128E58FFA80D08C005C006C00786820886830886F0120079E2
:2066000015811581158170028003026643E50D240AF886820886830886F0128E58FDA312BF
:206620008E58FEA3128E58FFE50D240DF886820886830886F0ED12892DA3EE12892DA3EF8A
:2066400012892D8A828B838CF0740012892DA312892DA312892DE50D2416F886820886838D
:206660000886F0128E58FF1FE50D2416F886820886830886F0EF12892DE50D2413F874037C
:2066800026FD74000836FE088607E50D240DF8740B2DF674003E08F608A607E50D240DF855
:2066A00086820886830886F0E50D2416F9128E58F7A3128E5809F7A3128E5809F7E50D24E3
:2066C0000AF874022DF674003E08F608A607E50D240AF886820886830886F0128E58FAA376
:2066E000128E58FBA3128E58FCE50D2404F874052AF674003B08F608A604E50D2407F8747D
:20670000052DF674003E08F608A607E50D2407F886820886830886F0128E58FAA3128E58B3
:20672000FBA3128E58FCE50D2404F886820886830886F0EA12892DA3EB12892DA3EC1289EC
:206740002DE50D2407F886820886830886F0128E58FAA3128E58FBA3128E58FCE50D240427
:20676000F874022AF674003B08F608A604E50D240AF886820886830886F0128E58FAA312D6
:206780008E58FBA3128E58FCE50D2404F886820886830886F0EA12892DA3EB12892DA3EC41
:2067A00012892DE50D2416F8E50D2404F9740126F77400083609F708E609F7E50D2404F896
:2067C00086820886830886F0128E58FAA3128E58FBA3128E58FCC005C006C0078A828B8397
:2067E0008CF012007915811581158170028003026828E50D2407F886820886830886F0128B
:206800008E58FAA3128E58FBA3128E58FCE50D2404F886820886830886F0EA12892DA3EB82
:2068200012892DA3EC12892DC005C006C007E50D240DF886820886830886F0740012892DF9
:20684000A312892DA312892DE50D2416F886820886830886F0128E58FC1CE50D2416F886ED
:20686000820886830886F0EC12892DE50D2413F8E50D2410F9741F26F77400083609F708A9
:20688000E609F7E50D2410F886820886830886F0128E58FC900F8DE0FFC3EF9CD007D00663
:2068A000D00540030268AC900F8DECF0E50D2410F886820886830886F0128E58FCEC75F0A8
:2068C0000CA42418FB740F35F0FC8B828C83A3E0FAA3E0FBA3E0FCE50D240AF886820886E9
:2068E000830886F0EA12892DA3EB12892DA3EC12892DE50D2404F874052AF674003B08F6E0
:2069000008A604E50D2404F886820886830886F0128E58FAA3128E58FBA3128E58FCE50D0B
:206920002407F886820886830886F0EA12892DA3EB12892DA3EC12892DE50D2404F8868224
