:2000000002005F32FFFFFFFFFFFFFF32FFFFFFFFFFFFFF32FFFFFFFFFFFFFF32FFFFFFFFD0
:20002000FFFFFF020E3DFFFFFFFFFF020C8C020295E58124FCC3C8C0E0C082E608467006AB
:20004000E5824583601218E58296F58208E58396428208E5F0964582D082C8D0E0C8227546
:2000600081201293E5E582600302002E7928E94400601B7A019094C5787275A00CE493F23A
:20008000A308B8000205A0D9F4DAF275A0FFE478FFF6D8FD7800E84400600A790175A000E6
:2000A000E4F309D8FC7871E8440C600C790D900001E4F0A3D8FCD9FA90000A7400F0A3F039
:2000C00090000CF0A3F090000EF0A3F0900010F0A3F0900C157400F0A3F0A3F002002EAFA3
:2000E000FF75FF0FE5FF75FFFF8FFFD2B322C00D85810DAF82C007124C5CD007E50D24FD76
:20010000F8E66003020186C374079F50030201E6EF240A83F582EF240C83F583E4732E390D
:20012000444F5A65707B0101010101010101D200A2B3A20092B30201E6D200A2B3A2009228
:20014000B30201E6D200A2B3A20092B30201E6D200A2B3A20092B30201E6D200A2B3A2004C
:2001600092B30201E6D200A2B3A20092B30201E6D200A2B3A20092B30201E6D200A2B3A29A
:200180000092B30201E6C374079F50030201E6EF240A83F582EF240C83F583E473ADB4BB74
:2001A000C2CDD4DBE20101010101010101A2B392B30201E6A2B392B30201E6A2B392B30275
:2001C00001E6C200A2B3A20092B30201E6A2B392B30201E6A2B392B30201E6A2B392B302AF
:2001E00001E6A2B392B3124C64D00D22AF827E007D00C007C006C005124C5CD005D006D00A
:2002000007C374079F5003020250EF240A83F582EF240C83F583E473282D32373C41464BFF
:2002200002020202020202027E020202527E080202527E200202527E010202527E040202AD
:20024000527E100202527E400202527E800202527D01BD0103020291A2B3E433FFEE5F7004
:20026000030202848E057F00EDF4FDEFF4FFA2B3E433FB7C00EB5205EC5207ED4F24FF92C6
:20028000B3020291A2B3E433FFEF4206EE24FF92B3124C64221203AD1200DF758201120F6E
:2002A00051758202121892758200121DDE74C8C0E07400C0E074C2C0E07401C0E07400C025
:2002C000E0758202121B5BE58124FBF5817582021211A97400C0E0C0E0C0E0C0E074CDC008
:2002E000E074ABC0E07400C0E074BAC0E07400C0E074E9C0E07493C0E07480C0E0758298A2
:200300007583071243A1E58124F4F5817400C0E0C0E0C0E0C0E0C0E0C0E0C0E074BAC0E052
:200320007400C0E074F1C0E07493C0E07480C0E075824E7583041243A1E58124F4F58174CA
:2003400000C0E0C0E0C0E0C0E0C0E0C0E0C0E074BAC0E07400C0E074F1C0E07493C0E0743B
:2003600080C0E07582F07583051243A1E58124F4F5817400C0E0C0E0C0E07403C0E07400B0
:20038000C0E0C0E0C0E074BAC0E07400C0E074F6C0E07493C0E07480C0E07582C97583039B
:2003A0001243A1E58124F4F581124BEE222222C200A2F82000030203C0A2F892F80203C86D
:2003C000D200A2F8A20092F8227F00900C72E060030203E4758288758313C007124BB8D074
:2003E000070203F17582FA758300C007124BB8D007C007121F58AE82D007BE010302040243
:200400007F01C007121B35AE82D007BE01030204137F01C007121DC5AE82D007BE0103024B
:2004200004247F01C007121825AE82D007BE01030204357F01BF01028003020443900C72DE
:200440007401F0C0071203AFD0070203CB22C00D85810DE581240CF581E50D2405F8762B43
:2004600008765208769A0876C4A80D0876DD08769A087612087645A80D08E6C0E008E6C0E6
:20048000E008E6C0E008E6C0E0E50D2405F886820886830886F008E6128C8FAC82AD83AE8F
:2004A000F0FFE58124FCF581E50D2409F8A60408A60508A60608A607E50D2409F8E6C0E0D7
:2004C00008E6C0E008E6C0E008E6C0E07582CD7583E475F08A7444128BC1AF82E58124FC16
:2004E000F581EF6003020518749AC0E074E1C0E0748AC0E07444C0E0E50D2409F886820855
:2005000086830886F008E6128BC1AF82E58124FCF581EF700302052FC0E0C0A8C2AF900C2E
:20052000727401F0D0E053E080E5E042A8D0E0A80D08E6C0E008E6C0E008E6C0E008E6C015
:20054000E0E50D2405F886820886830886F008E612900EAC82AD83AEF0FFE58124FCF5817C
:20056000E50D2409F8A60408A60508A60608A607E50D2409F8E6C0E008E6C0E008E6C0E0E5
:2005800008E6C0E075825C75838F75F00274BF128BC1AF82E58124FCF581EF60030205D0A5
:2005A0007414C0E074AEC0E07407C0E074BFC0E0E50D2409F886820886830886F008E612B5
:2005C0008BC1AF82E58124FCF581EF7003020459C0E0C0A8C2AF900C727401F0D0E053E012
:2005E00080E5E042A8D0E0020459850D81D00D22C00D85810DE581240CF581A80D08764547
:200600000876D20876400876C6E50D2409F8765C0876350876B7087646E50D2409F8E6C036
:20062000E008E6C0E008E6C0E008E6C0E0A80D0886820886830886F008E6128C8FAC82ADE6
:2006400083AEF0FFE58124FCF581E50D2405F8A60408A60508A60608A607E50D2405F8E6AC
:20066000C0E008E6C0E008E6C0E008E6C0E075829A75839875F02D7446128BC1AF82E581CE
:2006800024FCF581EF60030206BA7433C0E07498C0E0742DC0E07446C0E0E50D2405F88689
:2006A000820886830886F008E6128BC1AF82E58124FCF581EF70030206D1C0E0C0A8C2AFFC
:2006C000900C727401F0D0E053E080E5E042A8D0E0E50D2409F8860408860508860608E62F
:2006E000B2E7FFC004C005C006C007A80D0886820886830886F008E612900EAC82AD83AE4E
:20070000F0FFE58124FCF581E50D2405F8A60408A60508A60608A607E50D2405F8E6C0E07C
:2007200008E6C0E008E6C0E008E6C0E07582147583AE75F007743F128BC1AF82E58124FC2A
:20074000F581EF6003020778745CC0E0748FC0E07402C0E0743FC0E0E50D2405F8868208B1
:2007600086830886F008E6128BC1AF82E58124FCF581EF70030205FBC0E0C0A8C2AF900C00
:20078000727401F0D0E053E080E5E042A8D0E00205FB850D81D00D22740EB581030207B731
:2007A000C0E0C0A8C2AF900C727401F0D0E053E080E5E042A8D0E08500E0E5E070030207E5
:2007C000D8C0E0C0A8C2AF900C727401F0D0E053E080E5E042A8D0E08501E07401B5E00320
:2007E0000207FAC0E0C0A8C2AF900C727401F0D0E053E080E5E042A8D0E08502E07402B5B6
:20080000E00302081CC0E0C0A8C2AF900C727401F0D0E053E080E5E042A8D0E08503E07445
:2008200003B5E00302083EC0E0C0A8C2AF900C727401F0D0E053E080E5E042A8D0E085049E
:20084000E07404B5E003020860C0E0C0A8C2AF900C727401F0D0E053E080E5E042A8D0E090
:200860008505E07405B5E003020882C0E0C0A8C2AF900C727401F0D0E053E080E5E042A873
:20088000D0E08506E07406B5E0030208A4C0E0C0A8C2AF900C727401F0D0E053E080E5E069
:2008A00042A8D0E08507E07407B5E0030208C6C0E0C0A8C2AF900C727401F0D0E053E08000
:2008C000E5E042A8D0E074CDB582030208E5C0E0C0A8C2AF900C727401F0D0E053E080E51B
:2008E000E042A8D0E074ABB58303020904C0E0C0A8C2AF900C727401F0D0E053E080E5E001
:2009000042A8D0E07401B5F003020798C0E0C0A8C2AF900C727401F0D0E053E080E5E04229
:20092000A8D0E002079822C00D85810DE581240EF581AD82AE83AFF0E50D240CF8A60508E2
:20094000A60608A607A80D0874012DF674003E08F608A607E50D24FCF886020886037C805D
:200960007F008A06A80D0886820886830886F0EE128BA6E50D2408F8A60308A60408A607BD
:20098000087600A80D08740126FD74000836FE088607E50D2408F886028D828E838FF0EA18
:2009A000128BA60DBD00010E8D828E838FF074AA128BA60DBD00010E8D828E838FF07480AF
:2009C000128BA6E50D2408F874012DF674003E08F608A607E50D24F9F88602088603088613
:2009E000047F008A06E50D2408F886820886830886F0EE128BA6E50D2404F8A60308A60499
:200A000008A607087600E50D2408F8740126FD74000836FE088607E50D2404F886028D8207
:200A20008E838FF0EA128BA6E50D2404F808E618F60808E618F60808E618F60876000DBD9B
:200A400000010EE50D2404F886028D828E838FF0EA128BA60DBD00010E8D828E838FF07435
:200A600002128BA60DBD00010E8D828E838FF07403128BA60DBD00010E8D828E838FF07413
:200A800004128BA60DBD00010E8D828E838FF07405128BA60DBD00010E8D828E838FF074EF
:200AA00006128BA60DBD00010E8D828E838FF07407128BA60DBD00010E8D828E838FF074CB
:200AC00000128BA60DBD00010E8D828E838FF07401128BA60DBD00010E8D828E838FF074B7
:200AE00000128BA60DBD00010E8D828E838FF074BB128BA6E50D240CF88602EDC39AFDE5FB
:200B00000D240CF886820886830886F0ED128BA6E50D240CF886820886830886F0850D8115
:200B2000D00D22120DBC75FF00900C87E0FDA3E0FEA3E0FF8D828E838FF01290D1F509A3B1
:200B40001290D1F50A750B0D850982850A83E0F5080509E4B50902050A050BA90B85098202
:200B6000850A83E0FFA7071508E5086003020B51850B81D00DD0D0D001D000D007D006D05F
:200B800005D004D003D002D0F0D083D082D0E020E705C2AF020B99D2AFD0E0327582012222
:200BA00022C0E0C0A8C2AFC082C083C0F0C002C003C004C005C006C007C000C001C0D07544
:200BC000D000C00D900C87E0FDA3E0FEA3E0FF8D828E838FF01290D1F509A31290D1F50A50
:200BE000750B0EAF81EF24F3F508850982850A83E508F0E5087003020C150509E4B5090200
:200C0000050A850982850A83A90B8707EFF0050B1508020BF3125B2C900C87E0FDA3E0FE3B
:200C2000A3E0FF8D828E838FF01290D1F509A31290D1F50A750B0D850982850A83E0F50881
:200C40000509E4B50902050A050BA90B850982850A83E0FFA7071508E5086003020C408520
:200C60000B81D00DD0D0D001D000D007D006D005D004D003D002D0F0D083D082D0E020E7B3
:200C800005C2AF020C88D2AFD0E03222C020C0E0C0F0C082C083C007C006C005C004C00335
:200CA000C002C001C000C0D075D000C0E0C0A8C2AFC082C083C0F0C002C003C004C005C0A0
:200CC00006C007C000C001C0D075D000C00D900C87E0FDA3E0FEA3E0FF8D828E838FF01270
:200CE00090D1F509A31290D1F50A750B0EAF81EF24F3F508850982850A83E508F0E5087063
:200D000003020D1F0509E4B50902050A850982850A83A90B8707EFF0050B1508020CFD1254
:200D2000536EE5827003020D2C125B2C900C87E0FDA3E0FEA3E0FF8D828E838FF01290D12F
:200D4000F509A31290D1F50A750B0D850982850A83E0F5080509E4B50902050A050BA90B6F
:200D6000850982850A83E0FFA7071508E5086003020D54850B81D00DD0D0D001D000D007EE
:200D8000D006D005D004D003D002D0F0D083D082D0E020E705C2AF020D9CD2AFD0E032D0BF
:200DA000D0D000D001D002D003D004D005D006D007D083D082D0F0D0E0D0203285FFFF22EB
:200DC000C00D85810DC0E0C0A8C2AFAFFF750C01C0077400C0E004C0E0E50D24FDF88682F8
:200DE000122A03AC82AD83AEF015811581D007900001ECF0EDA3F0EEA3F0C0077400C0E06C
:200E000004C0E0E50D24FDF88682122A03AC82AD83AEF015811581D007900004ECF0EDA3DD
:200E2000F0EEA3F08FFFD0E053E080E5E042A8D0E075820075830075F000D00D22C020C0FE
:200E4000E0C0F0C082C083C007C006C005C004C003C002C001C000C0D075D000C0E0C0A884
:200E6000C2AFD0E053E080E5E042A8D0E0D0D0D000D001D002D003D004D005D006D007D033
:200E800083D082D0F0D0E0D02032C00D85810DE50D24FBF88605088606088607900001E0DD
:200EA000FAA3E0FBA3E0FCE50D24F9F8E6C0E008E6C0E0C005C006C0078A828B838CF01226
:200EC0003151AF82E58124FBF581EF7003020ED6758201020ED9758200D00D22C00D858172
:200EE0000DC0E0C0A8C2AF7401B50C028003020EF9750C007F01020F40E50D24FDFE8E07B0
:200F00007D007C40900004E0FAA3E0FBA3E0FE7400C0E0E50D24FBF8E6C0E008E6C0E0C03A
:200F200007C005C0048A828B838EF0122BAEAE82E58124FAF5818E07EE6003020F407F01BD
:200F4000D0E053E080E5E042A8D0E08F82D00D2222C00D85810DC082E5812404F581A80DC2
:200F600008087600A80D0808B60800400302104D758203758300122622AB82AC83ADF0E59C
:200F80000D2403F8A60308A60408A605E50D2403F886820886830886F0A90D0909E7128B23
:200FA000A6E50D2403F8740126FA74000836FE088607A80D080886047D00C007C006C00285
:200FC000C004C00575827D758300128BF1AC82AD8315811581D002D006D007747D2CFC74F8
:200FE000003DFD8A828E838FF0EC128BA6A3ED128BA68A828E838FF0EC128BA6A3ED128B21
:20100000A6E50D2403F886030886040886057400C0E0C0E0C0E0A80D08E6C0E0C003C0044D
:20102000C00574BAC0E07400C0E074FFC0E07493C0E07480C0E07582537583101243A1E58E
:201040008124F4F581A80D080806020F64850D81D00D22C00D85810D058105810581AD828E
:20106000AE83AFF07582FC75839375F080C007C006C00512113DD005D006D007A80D08A6A6
:201080000508A60608A607A80D08740126FA74000836FB0886048A828B838CF01290D1FE4A
:2010A000A31290D1FFEFC313CE13CEFF8E828F83C004C003C002124BB8D002D003D004A807
:2010C0000D0886820886830886F01290D1FF8F82C004C003C0021201ECD002D003D0048A96
:2010E000828B838CF01290D1FAA31290D1FBEBC313CA13CAFB8A828B83124BB8A80D088691
:20110000820886830886F01290D1FF8F821201EC021087850D81D00D227400C0E07403C046
:20112000E0758214122A03AD82AE83AFF015811581900007EDF0EEA3F0EFA3F02222C00DD2
:2011400085810DC082C083058105810581E50D2403FD7C007B40900007E0FAA3E0FEA3E0A3
:20116000FFA80D08E6C0E008E6C0E0C005C004C0038A828E838FF0123151AF82E58124FB6D
:20118000F581BF0102800302119AE50D2403F886820886830886F00211A37582007583009A
:2011A00075F000850D81D00D22C00D85810DC082E5812406F581758208758300122622AC93
:2011C00082AD83AEF0A80D0808A60408A60508A606A80D0808E6084670030213617403C0D0
:2011E000E07400C0E0758201122A03AA82AB83AFF015811581A80D08088682088683088633
:20120000F0EA128BA6A3EB128BA6A3EF128BA6A80D080886820886830886F01290D1FEA39B
:201220001290D1FDA31290D1FCEA4B700302124D7400C0E0C0E0C0E0C0E0C0E0C0E08E82DF
:201240008D838CF0122BAEE58124FAF581A80D080886820886830886F01290D1FAA312900F
:20126000D1FBA31290D1FFEA4B7003021361A80D0808740326FA74000836FB0886077582DA
:2012800004758300C007C003C002122622AC82AD83AEF0D002D003D0078A828B838FF0ECAF
:2012A000128BA6A3ED128BA6A3EE128BA68C828D838EF074FF128BA6A37400128BA6A312E3
:2012C0008BA6A3128BA6A80D0808740626FD74000836FE0886078D828E838FF07400128BA0
:2012E000A6A3128BA6A80D08088604088605088606C0E0C0E0C0E0C0E0C004C005C00674A9
:20130000BAC0E07400C0E07424C0E07494C0E07480C0E07582297583151243A1E58124F44A
:20132000F581A80D080886040886050886067400C0E0C0E0C0E0C0E0C004C005C00674BA50
:20134000C0E07400C0E0742CC0E07494C0E07480C0E07582297583151243A1E58124F4F5C7
:2013600081758208758300122622AD82AE83AFF0E50D2405F8A60508A60608A607E50D245F
:2013800005F8E6084670030215237403C0E07400C0E0758201122A03AA82AB83ACF0158181
:2013A0001581E50D2405F886820886830886F0EA128BA6A3EB128BA6A3EC128BA6E50D2407
:2013C00005F886820886830886F01290D1FFA31290D1FEA31290D1FDEA4B70030213FC74B3
:2013E00000C0E0C0E0C0E0C0E0C0E0C0E08F828E838DF0122BAEE58124FAF581E50D24058E
:20140000F886820886830886F01290D1FAA31290D1FBA31290D1FCEA4B7003021523E50DD9
:201420002405F8740326FA74000836FB088604758204758300C004C003C002122622AD82F0
:20144000AE83AFF0D002D003D0048A828B838CF0ED128BA6A3EE128BA6A3EF128BA68D82C5
:201460008E838FF074FF128BA6A3740F128BA6A37400128BA6A3128BA6E50D2405F87406F0
:2014800026FD74000836FE0886078D828E838FF07464128BA6A37400128BA6E50D2405F8BD
:2014A00086050886060886077400C0E0C0E0C0E0A80D08E6C0E0C005C006C00774BAC0E0C1
:2014C0007400C0E07434C0E07494C0E07480C0E07582297583151243A1E58124F4F581E578
:2014E0000D2405F886050886060886077400C0E0C0E0C0E0A80D08E6C0E0C005C006C00721
:2015000074BAC0E07400C0E0743CC0E07494C0E07480C0E07582297583151243A1E58124B0
:20152000F4F581850D81D00D22C00D85810DE5812411F581AE82AC83ABF0E50D240EF874B4
:2015400000F608F6C0E0C0A8C2AF900C7BE0FAA3E0FFE50D2410F8A60208A607900C7BE039
:20156000FAA3E0FD900C7B74012AF074003DA3F0D0E053E080E5E042A8D0E0758221758335
:201580009475F080C006C004C00312113DD003D004D006E50D2404F8A60608A60408A60387
:2015A000E50D2404F8740326FB74000836FE0886078B828E838FF0E50D2407F81290D1F621
:2015C000A31290D108F6A31290D108F6E50D2404F8A90D09740626F77400083609F708E6DB
:2015E00009F7A80D0886820886830886F01290D1FEA31290D1FFEE4F7003021610E50D2423
:201600000AF876FF08760F740008F608F602161FE50D240AF876FF740008F608F608F6A87C
:201620000D0886820886830886F01290D1FEA31290D1FFE50D2404F886820886830886F0CF
:201640001290D1FBA31290D1FCA31290D1FDC006C0078B828C838DF0123417AF8215811598
:2016600081BF010280030217FEE50D2407F886820886830886F01290D1FBA31290D1FDA3BD
:201680001290D1FEA31290D1FFE50D240AF8E6B5031208E6B5050D08E6B5060808E6B507EC
:2016A000030216BA75821E75839475F08012113DE50D240EF876010876007B007E007D00E8
:2016C0007F00E50D240AF8C3E69B08E69E08E69D08E69F5003021724E50D2407F8868208D6
:2016E00086830886F0EB128BA6A3EE128BA6A3ED128BA6A3EF128BA6E50D2407F886820894
:2017000086830886F01290D1A31290D1A31290D1A31290D10BBB00090EBE00050DBD000122
:201720000F0216C2E50D2404F886820886830886F01290D1FDA31290D1FEA31290D1FF740A
:2017400000C0E0C0E0C0E0C0E0C0E0C0E08D828E838FF0122BAEAF82E58124FAF581EF60C5
:201760000302177A75821E75839475F08012113DE50D240EF87601087600E50D240EF8E6DA
:20178000084660030217CBE50D2410F88606088607C3EE9404EF6480948040030217CBE539
:2017A0000D2410F8E625E0FE08E633FFEE2473FEEF340CFF8E828F83E0FCA3E0FD0CBC00F0
:2017C000010D8E828F83ECF0EDA3F0A80D0886820886830886F01290D1FEA31290D1FFC0E3
:2017E00006C00775820A758300128BF1AE82AF83158115818E828F83124BB802161FA80DE4
:201800000886820886830886F01290D1FEA31290D1FFEE4F600302161F120BA102161F8552
:201820000D81D00D227F017E00EE75F002A4FCADF0EC240AF582ED3400F583E0FAA3E0FB09
:20184000EC2473F582ED340CF583E0FCA3E0FDEAB50406EBB50502800302185E7F00EE7560
:20186000F002A4FCADF0EC240AFAED3400FBEC2473F582ED340CF583E0FCA3E0FD8A828B77
:2018800083ECF0EDA3F00EBE040050030218298F8222AF82C0077400C0E07402C0E07582B7
:2018A0000A122A03AC82AD83AEF015811581D007900012ECF0EDA3F0EEA3F0EC4D700302B3
:2018C0001938C0077400C0E0C0E0C0E0C0077412C0E07400C0E07400C0E074BAC0E0740045
:2018E000C0E0749BC0E07494C0E07480C0E075820D75831A1243A1E58124F4F581D0077412
:2019000000C0E0C0E0C0E0C0077412C0E07400C0E07400C0E074BAC0E07400C0E074A3C019
:20192000E07494C0E07480C0E07582397583191243A1E58124F4F58122C00D85810DC0821C
:20194000C083C0F0058105810581E50D2404F87400F608F67C00E50D2406F87600C004E5D9
:201960000D2404FA7C007F40A80D0886030886050886068B828D838EF01290D1FBA3129042
:20198000D1FDA31290D1FEC0047400C0E0C0E0C0E0C002C004C0078B828D838EF0122BAE7A
:2019A000AF82E58124FAF581D004BF0105D0040219B9D0047C010219E1EC60030219D6C06E
:2019C000E0C0A8C2AF900C7EE004F0D0E053E080E5E042A8D0E0E50D2404F806B6000208C6
:2019E00006E50D2406F806E50D2406F8C3E664809483500302195D758203758300C004127C
:201A00004BB8D004021956850D81D00D22C00D85810DC082C083C0F00581058105817B004A
:201A20007C00E50D2406F87600C003C004A80D0886020886060886078A828E838FF012906D
:201A4000D1FBA31290D1FCA31290D1FD8B828C838DF0C007C006C004C003C002123BC4E530
:201A600082D002D003D004D006D007D004D0037003021B1BC003C004E50D2404FD8D037CC2
:201A8000007D408A828E838FF01290D1FAA31290D1FEA31290D1FFC004C0037400C0E0C0FC
:201AA000E0C003C004C0058A828E838FF0123151AF82E58124FBF581D003D004BF010280B5
:201AC00007D004D003021A29D004D003E50D2404F8E6B5030808E6B50403021AF1E50D24E7
:201AE00006F87601E50D2404F88603088604021B13E50D2406F8E66003021B13C0E0C0A87F
:201B0000C2AF900C7DE004F0D0E053E080E5E042A8D0E00BBB00010C021A297582EF7583AF
:201B2000FFC004C003124BB8D003D004021A29850D81D00D22900C7DE07003021B47900CA0
:201B40007EE06003021B4C7F00021B4E7F01900C7D7400F0900C7EF08F8222C00D85810D57
:201B6000AF82E50D24F9F8900C82E6F0C0077418C0E0E50D24FAF886820886830886F0089F
:201B8000E6120DC01581D0078F061EC0077400C0E0C0E0C0E0C006C0E0C0E0C0E074BAC0B1
:201BA000E07400C0E074ABC0E07494C0E07480C0E07582F875831B1243A1E58124F4F5814A
:201BC000D0077400C0E0C0E0C0E0C007C0E0C0E0C0E074BAC0E07400C0E074B1C0E0749484
:201BE000C0E07480C0E075829375831C1243A1E58124F4F581D00D227F41900C7FE0FCA3D0
:201C0000E0FDA3E0FEC0077400C0E0C0E0C0078C828D838EF0120EDCAE821581158115819A
:201C2000D007BE01028003021C38900C82E0FE8E82C0071201ECD0070FC374589F40030208
:201C40001BFA900C82E0FF7400C0E08F821200EE15811252D1AE82AF8374032EFE74003FCA
:201C6000FF7496C0E07400C0E08E828F831292C2AE82AF8315811581C3EE9432EF94004057
:201C800003021C887E327F008E828F83124BB8021BF822C00D85810DE5812405F5817F009A
:201CA000A80D0876007B41C007E50D2405FCA80D0808A604087600087640900C7FE0FDA311
:201CC000E0FEA3E0FFC004C00374FFC0E0C0E0A80D0808E6C0E008E6C0E008E6C0E08D82F4
:201CE0008E838FF0120E8AAF82E58124FBF581D003D004EFD0077003021D28E50D2405F844
:201D0000E6B503028003021D23900C82E0FE0E8E82C007C004C0031201ECD003D004D00779
:201D2000021D287F01021D3A0BC3745864808BF063F08095F04003021CA7900C82E0FE0E20
:201D4000C007C0047400C0E08E821200EE1581D004D007BF01028003021DA88C06E50D24DF
:201D600005F8B65803021D9F8E077C007B40C006900C7FE0FAA3E0FDA3E0FEC00674FFC016
:201D8000E0C0E0C007C004C0038A828D838EF0120E8AE58124FBF581D006D006021D5DA866
:201DA0000D08067F00021CA5A80D08C3E6648094824003021CA5900C83E004F0021CA58525
:201DC0000D81D00D22900C83E06003021DD37F00021DD57F01900C837400F08F8222AF8248
:201DE0007D007E00ED2484FBEE340CFC7A00C007C006C0057400C0E0C0E0C0E0C007C00384
:201E0000C004C00274BAC0E07400C0E074B7C0E07494C0E07480C0E075824575831E1243AC
:201E2000A1E58124F4F581D005D006D0070DBD00010E8D038E04C3EB9401EC648094805019
:201E400003021DE422C00D85810DE5812407F581AD82AE83AFF07B007C00E50D2405F8A6C4
:201E60000508A60608A607C003C004A80D08767B740008F608F608F6A80D08744726F67449
:201E8000940836F674030836F674000836F6A80D08E6C0E008E6C0E008E6C0E008E6C0E03A
:201EA0007582FD7583FF75F0FF74FF1290EDAA82AB83ACF0FFE58124FCF581A80D08A6027B
:201EC00008A60308A60408A607C0037407C0E07400C0E0C0E0C0E0A80D08868208868308DA
:201EE00086F008E6128D31AC82AD83AEF0FFE58124FCF581D003A80D08A60408A60508A61C
:201F00000608A607A80D08B61B1308B6770F08B6FE0B08B6FF07D004D003021F25D004D005
:201F2000037B017C00EB4C6003021E67C0E0C0A8C2AFE50D2405F886820886830886F074EE
:201F400001128BA6D0E053E080E5E042A8D0E0021E67850D81D00D227F017D007E00ED2456
:201F600084FBEE340CFC8B828C83E06003021F727F00ED2484F582EE340CF5837400F00D24
:201F8000BD00010E8D038E04C3EB9401EC648094805003021F5E8F8222C00D85810DC08205
:201FA000C083C0F0058105810581A80D08740126FF74000836FB088602A80D08E50D240431
:201FC000F9740426F77400083609F708E609F7E50D2404F886040886050886068F828B83F1
:201FE0008AF0EC128BA6A3ED128BA6A3EE128BA6E50D2404F886820886830886F074FF1263
:202000008BA6A3128BA6E50D2404F8740226FF74000836FD088604E50D2404F88602088693
:20202000030886068F828D838CF0EA128BA6A3EB128BA6A3EE128BA6E50D2404F8740526E9
:20204000FF74000836FD088604E50D2404F886020886030886068F828D838CF0EA128BA6B7
:20206000A3EB128BA6A3EE128BA6A80D0886820886830886F07400128BA6850D81D00D229E
:20208000AD82AE83AFF0740B2DFD74003EFE8D828E838FF07400128BA6A3128BA6A3128B6C
:2020A000A622C00D85810DC082C083C0F0E5812409F581A80D08740126FA74000836FB0833
:2020C00086048A828B838CF0E50D240AF81290D1F6A31290D108F6A31290D108F6E50D2421
:2020E000FBF8860208860308860474022AFD74003BFE8C078D828E838FF0E50D240AF8E6C8
:20210000128BA6A308E6128BA6A308E6128BA6E50D2404F874052AF674003B08F608A604CA
:20212000E50D240AF8E50D2407F9740526F77400083609F708E609F7E50D2407F886820816
:2021400086830886F01290D1FDA31290D1FEA31290D1FFE50D2404F886820886830886F0B6
:20216000ED128BA6A3EE128BA6A3EF128BA6E50D2407F886820886830886F01290D1FDA3C7
:202180001290D1FEA31290D1FF74022DFD74003EFE8D828E838FF0EA128BA6A3EB128BA6CC
:2021A000A3EC128BA6E50D2407F886820886830886F0EA128BA6A3EB128BA6A3EC128BA6D1
:2021C000740B2AFA74003BFB8A828B838CF0A80D08E6128BA6A308E6128BA6A308E6128B34
:2021E000A6A80D0886820886830886F01290D1FF0FA80D0886820886830886F0EF128BA6DE
:20220000850D81D00D22C00D85810DC082C083C0F0E581240BF581E50D24FBF8860208866D
:20222000030886048A828B838CF0E50D240DF81290D1F6A31290D108F6E50D240DF8B6FF0B
:202240000608B6FF02800302228BC002C003C004A80D08740426FA74000836FB0886047436
:20226000052AFA74003BFB8A828B838CF0E50D240AF81290D1F6A31290D108F6A31290D14A
:2022800008F6D004D003D002022315A80D08740426FD74000836FE088607E50D240AF8A632
:2022A0000508A60608A607C002C003C004E50D240AF8740226FD74000836FE0886078D8262
:2022C0008E838FF01290D1FAA31290D1FBA31290D1FC8A828B838CF01290D1FAA31290D1C5
:2022E000FBE50D240DF8C3E69A08E69BD004D003D00250030223158D828E838FF0E50D2441
:202300000AF81290D1F6A31290D108F6A31290D108F60222A7E50D2404F874022AF6740043
:202320003B08F608A604E50D240AF8E50D2407F9740226F77400083609F708E609F7E50D5F
:202340002407F886820886830886F01290D1FDA31290D1FEA31290D1FFE50D2404F8868210
:202360000886830886F0ED128BA6A3EE128BA6A3EF128BA674052DFD74003EFE8D828E8382
:202380008FF0EA128BA6A3EB128BA6A3EC128BA674052AFD74003BFE8C078D828E838FF06F
:2023A000E50D240AF8E6128BA6A308E6128BA6A308E6128BA6E50D2407F8868208868308FE
:2023C00086F0EA128BA6A3EB128BA6A3EC128BA6740B2AFA74003BFB8A828B838CF0A80D1F
:2023E00008E6128BA6A308E6128BA6A308E6128BA6A80D0886820886830886F01290D1FF3E
:202400000FA80D0886820886830886F0EF128BA6850D81D00D22C00D85810DE581240FF5A7
:2024200081C8E50D240AC8A68208A68308A6F0E50D240AF8740B26FA74000836FB0886047E
:202440008A828B838CF0E50D240DF81290D1F6A31290D108F6A31290D108F6E50D240AF822
:20246000E50D2407F9740226F77400083609F708E609F7E50D2407F886820886830886F067
:202480001290D1FDA31290D1FEA31290D1FFE50D2404F874052DF674003E08F608A607E5AB
:2024A0000D240AF8A90D09740526F77400083609F708E609F7A80D0886820886830886F0A0
:2024C0001290D1FDA31290D1FEA31290D1FFE50D2404F886820886830886F0ED128BA6A3E7
:2024E000EE128BA6A3EF128BA6A80D0886820886830886F01290D1FDA31290D1FEA31290B9
:20250000D1FFE50D2404F874022DF674003E08F608A607E50D2407F886820886830886F02F
:202520001290D1FDA31290D1FEA31290D1FFE50D2404F886820886830886F0ED128BA6A386
:20254000EE128BA6A3EF128BA6E50D240DF8E50D2404F9740126F77400083609F708E6090C
:20256000F7E50D2404F886820886830886F01290D1FDA31290D1FEA31290D1FFE50D240A02
:20258000F8C005C006C00786820886830886F0120031158115811581700280030225D3A8BE
:2025A0000D0886820886830886F01290D1FDA31290D1FEA31290D1FFE50D2404F8868208B4
:2025C00086830886F0ED128BA6A3EE128BA6A3EF128BA68A828B838CF07400128BA6A31299
:2025E0008BA6A3128BA6E50D240DF886820886830886F01290D1FF1FE50D240DF886820856
:2026000086830886F0EF128BA6E50D240DF886820886830886F01290D1FF8F82850D81D0E9
:202620000D22C00D85810DC082C083058105810581E50D2403F87400F608F6087600124C1F
:202640005C900C15E0F5F0A3E045F060030226637A157D007E007F00900C15EAF0EDA3F0EE
:20266000EEA3F0A80D08E6084670030226CC900C85E0FEA3E0FFA80D08E62EFC08E63FFD09
:20268000C3EC94FFED940B40030226CCA80D08E62EFC08E63FFDC3EE9CEF9D40030226CC2E
:2026A000900C15E0FBA3E0FCA3E0FDEE2BFBEF3CFCE50D2403F8A60308A60408A605A80D80
:2026C00008900C85E62EF008E63FA3F0124C64E50D2403F886820886830886F0850D81D0C0
:2026E0000D2222900C857400F0A3F022900C85E0FEA3E0FF74FFC39EFE740B9FFF8E828F40
:202700008322C00D85810DC082C083C0F0E581240AF581E50D240DF87601A80D08E6084672
:2027200070030229EFA80D08742526FA74000836FB0886048A828B838CF01290D1FFBF018F
:202740000050030229EFC002C003C0048F037C00C002C003C0047582FF7583FF128B5AABDD
:2027600082AC8315811581D002A80D08E50D2407F9742626F77400083609F708E609F7E59B
:202780000D2407F886820886830886F01290D1FA7F00C3EB9AEC9FD004D003D002500302E5
:2027A00029EFC0E0C0A8C2AFA80D08E50D240AF9740626F77400083609F708E609F7A80DC6
:2027C0000886820886830886F0E50D2404F91290D1F7A31290D109F7A31290D109F78A82A5
:2027E0008B838CF01290D1FFE50D2407F886820886830886F01290D1FE8FF0EEA4C8E50DF5
:202800002404C826FD08E635F0FE088607E50D240AF886820886830886F0ED128BA6A3EE8F
:20282000128BA6A3EF128BA6A80D08742426FD74000836FE0886078D828E838FF07400129E
:202840008BA6A80D08E50D2404F9740326F77400083609F708E609F7A80D0886820886836D
:202860000886F01290D1FDA31290D1FEA31290D1FFE50D2404F886820886830886F0ED1299
:202880008BA6A3EE128BA6A3EF128BA6E50D240AF8E50D2404F9740326F77400083609F7ED
:2028A00008E609F7A80D0886820886830886F01290D1FDA31290D1FEA31290D1FF8A828BA6
:2028C000838CF01290D1FA7C00E50D240AF8EA24FFF6EC34FF08F6E50D2407F8868208862D
:2028E000830886F01290D1FB7C00C007C006C005C003C004E50D240AF88682088683128B46
:20290000F1AB82AC8315811581D005D006D007EB2DFDEC3EFEE50D2404F88682088683084C
:2029200086F0ED128BA6A3EE128BA6A3EF128BA6A80D08742726FD74000836FE0886078DFB
:20294000828E838FF074FF128BA6A80D08742826FD74000836FE0886078D828E838FF074DB
:20296000FF128BA6E50D24FDF8E660030229B1A80D08740C26FD74000836FE0886078D8231
:202980008E838FF01290D170030229E1A80D08740C26FD74000836FE0886078D828E838F61
:2029A000F0125EDBE58270030229E1120BA10229E1A80D08740C26FD74000836FE08860787
:2029C0008D828E838FF0121F99A80D08741826FD74000836FE0886078D828E838FF0121F0D
:2029E00099D0E053E080E5E042A8D0E00229F6E50D240DF87600E50D240DF88682850D8194
:202A0000D00D22C00D85810DC0827C007D007E00A80D08E67003022AE1C004C005C006A804
:202A20000D0886027B00C006C005C004C002C0037582FF7583FF128B5AAA82AB83158115C1
:202A400081D004D005D006E50D24FDF886057E00C3EA9DEB9ED006D005D0045003022AE1B0
:202A6000A80D08E50D24FDF986F0E7A4FAABF0C374D69A74FF9B5003022AE174292AFA74AD
:202A8000003BFB8A828B83122622AA82AB83AFF08A048B058F06EC4D7003022AE18C028D0C
:202AA000038E0774292AFA74003BFBC006C005C004C004C005C006E50D24FCF8E6C0E0C025
:202AC00002C003C007E50D24FDF8E6C0E0A80D088682122AECE58124F8F581D004D005D07B
:202AE000068C828D838EF01581D00D22C00D85810DC082E50D24FDF8E66003022B2FE50DDB
:202B000024F6F88604088605088606E50D24F6F886020886030886078C828D838EF0EA12A8
:202B20008BA6A3EB128BA6A3EF128BA6022B5DE50D24F6F88604088605088606E50D24FA6F
:202B4000F886020886030886078C828D838EF0EA128BA6A3EB128BA6A3EF128BA6E50D244A
:202B6000F6F8860508860608860774252DFA74003EFB8F048A828B838CF0A80D08E6128BDD
:202B8000A674262DFA74003EFB8F048A828B838CF0E50D24FDF8E6128BA67401C0E08D82A0
:202BA0008E838FF012270215811581D00D22C00D85810DE5812411F581AD82AB83ACF0E550
:202BC0000D240BF87600E50D240CF8A60508A60308A604E50D24F8F8B602047401800274F6
:202BE00000FFE50D240FFEE50D2404F8A606E50D2405F874242DF674003B08F608A604A820
:202C00000D0874252DF674003B08F608A604C0E0C0A8C2AFE50D2405F88682088683088651
:202C2000F01290D1FDA80D0886820886830886F01290D1FCC3ED9C5003022C42EF700302FE
:202C40002CD4E50D24F8F8E6C0E0E50D24FBF8E6C0E008E6C0E008E6C0E0E50D240CF8869D
:202C6000820886830886F0123C5FAC82E58124FCF5818C07E50D240CF8741826FA74000897
:202C800036FB0886048A828B838CF01290D17003022CBAE50D240CF8741826FA7400083695
:202CA000FB0886048A828B838CF0125EDBE5827003022CC3120BA1022CC3EF7003022CC3D9
:202CC000120BA1D0E053E080E5E042A8D0E0758201022EAFE50D24F9F8E608466003022CD1
:202CE000F2D0E053E080E5E042A8D0E0758200022EAFE50D240BF8E66003022D1B8E027B93
:202D0000007C408A828B838CF0C007C006126CB0D006D007E50D240BF87601D0E053E08006
:202D2000E5E042A8D0E0C007C006124C5CD006D007C0E0C0A8C2AFE50D240CF8742726FAF2
:202D400074000836FB0886048A828B838CF01290D1FDBDFF028003022D658A828B838CF0C3
:202D60007400128BA6E50D240CF8742826FA74000836FB0886048A828B838CF01290D1FD81
:202D8000BDFF028003022D938A828B838CF07400128BA6C007D0E053E080E5E042A8D0E05A
:202DA000E50D24F9FCE50D2408F8A604087600087640E50D2404F886047D007F40C006E589
:202DC0000D2408F8E6C0E008E6C0E008E6C0E08C828D838FF0126CE2AF8215811581158130
:202DE000D006EFD0076003022E99E50D240CF886820886830886F0C007C006124312E582FF
:202E0000D006D0077003022E73E50D240CF8740C26FB74000836FC088605C007C006E50D74
:202E200024F9F8E6C0E008E6C0E08B828C838DF0125CBF15811581D006D007E50D240CF8B0
:202E400086820886830886F0C007C00612411DD006D007C007C006124C64E582D006D007CE
:202E60006003022C0EC007C006120BA1D006D007022C0EE50D240CF886820886830886F0CE
:202E8000C007C00612411DD006D007C007C006124C64D006D007022C0EE50D240CF886822E
:202EA0000886830886F012411D124C64758200850D81D00D22C00D85810D058105810581D6
:202EC000AA82AB83ACF0A80D08A60208A60308A60474242AFD74003BFE8C078D828E838F86
:202EE000F01290D1FD74252AFC74003BFE8C078C828E838FF01290D1FCC3ED9C5003022F96
:202F00000EE50D24F7F8B60202800302300DA80D08742826FD74000836FE0886078D828EC4
:202F2000838FF01290D1FFA80D08742426FC74000836FD0886068C828D838EF01290D1C094
:202F400007E50D24F7F8E6C0E0E50D24FBF8E6C0E008E6C0E008E6C0E0A80D0886820886E1
:202F6000830886F0123C5FE58124FCF581D007BFFF028003022FDBA80D08741826FC7400A2
:202F80000836FD0886068C828D838EF01290D17003023008A80D08741826FC74000836FD8C
:202FA0000886068C828D838EF0125EDBE5827003023008E50D24F8F8E6084670030230089B
:202FC000E50D24F8F886040886050886068C828D838EF07401128BA6023008C0071252FC85
:202FE000AE82D0078F05C3ED9E4003023008A80D08742826FC74000836FD0886060F8C8290
:203000008D838EF0EF128BA67F0102300F7F008F82850D81D00D22C00D85810DE58124071C
:20302000F581C8E50D2404C8A68208A68308A6F0E50D2404F8742426FA74000836FB088674
:20304000048A828B838CF0E50D2407F81290D1F6E50D2404F8742526FD74000836FE08864C
:20306000078D828E838FF01290D1FDE50D2407F8C3E69D4003023147E50D2404F8A90D0951
:20308000742826F77400083609F708E609F7A80D0886820886830886F01290D1FFE50D24FB
:2030A00007F8E604FE8A828B838CF0EE128BA6BFFF02800302311FE50D2404F8741826FC0D
:2030C00074000836FD0886068C828D838EF01290D17003023142E50D2404F8741826FC7482
:2030E000000836FD0886068C828D838EF0125EDBE5827003023142E50D24FBF8E60846701E
:2031000003023142E50D24FBF886040886050886068C828D838EF07401128BA6023142C0F4
:20312000071252FCAE82D0078F05C3ED9E40030231420FA80D0886820886830886F0EF1223
:203140008BA67F010231497F008F82850D81D00D22C00D85810DE581240BF581AC82AD8357
:20316000AFF0E50D2405F87600E50D2406F8A60408A60508A607E50D2409FEE50D2404F8D2
:20318000A606A80D0874242CF674003D08F608A607C0E0C0A8C2AFA80D0886820886830851
:2031A00086F01290D1FC8C05EC700302324AC005E50D24FBF8E6C0E008E6C0E008E6C0E04C
:2031C000E50D2406F886820886830886F0123FC3158115811581D005E50D2406F8742426C7
:2031E000FB74000836FC088607ED14FA8B828C838FF0EA128BA6E50D2406F8740C26FB74A5
:20320000000836FC0886078B828C838FF01290D17003023239E50D2406F8740C26FB7400C8
:203220000836FC0886078B828C838FF0125EDBE5827003023239120BA1D0E053E080E5E0AC
:2032400042A8D0E0758201023411E50D24F9F8E608466003023268D0E053E080E5E042A849
:20326000D0E0758200023411E50D2405F8E6600302328D8E037C007F408B828C838FF0C01C
:2032800006126CB0D006E50D2405F87601D0E053E080E5E042A8D0E0C006124C5CD006C0C2
:2032A000E0C0A8C2AFE50D2406F8742726FB74000836FC0886078B828C838FF01290D1FA3A
:2032C000BAFF0280030232D38B828C838FF07400128BA6E50D2406F8742826FB74000836D4
:2032E000FC0886078B828C838FF01290D1FABAFF0280030233018B828C838FF07400128B15
:20330000A6C006D0E053E080E5E042A8D0E0E50D24F9FF7C007B40E50D2404F886027D0023
:203320007E40C006C007C004C0038A828D838EF0126CE2AF82158115811581D006D006EF33
:2033400060030233D8E50D2406F886820886830886F0C0061242B5E582D00670030233BAE4
:20336000E50D2406F8741826FC74000836FD088607C006E50D24F9F8E6C0E008E6C0E08CDA
:20338000828D838FF0125CBF15811581D006E50D2406F886820886830886F0C00612411D0C
:2033A000D006C006124C64E582D0066003023191C006120BA1D006023191E50D2406F88693
:2033C000820886830886F0C00612411DD006C006124C64D006023191E50D2406F88682088A
:2033E00086830886F0C00612411DD006C006124C64D006E50D2406F886820886830886F031
:20340000C0061242B5E582D0067003023191758200850D81D00D22C00D85810DE581240BEB
:20342000F581AC82AD83AFF0E50D2408F87600E50D2409F8A60408A60508A607E50D240549
:20344000FEE50D2404F8A606A80D0874242CF674003D08F608A607C0E0C0A8C2AFA80D089F
:2034600086820886830886F01290D1FC8C07EC70030234DAEF14FCA80D0886820886830867
:2034800086F0EC128BA6E50D2409F8740C26FB74000836FC0886078B828C838FF01290D17E
:2034A00070030234C9E50D2409F8740C26FB74000836FC0886078B828C838FF0125EDBE5D4
:2034C0008270030234C9120BA1D0E053E080E5E042A8D0E07582010236A1E50D24FCF8E6B7
:2034E000084660030234F8D0E053E080E5E042A8D0E07582000236A1E50D2408F8E66003FC
:2035000002351D8E037C007F408B828C838FF0C006126CB0D006E50D2408F87601D0E05396
:20352000E080E5E042A8D0E0C006124C5CD006C0E0C0A8C2AFE50D2409F8742726FB7400B6
:203540000836FC0886078B828C838FF01290D1FABAFF0280030235638B828C838FF07400AD
:20356000128BA6E50D2409F8742826FB74000836FC0886078B828C838FF01290D1FABAFF30
:203580000280030235918B828C838FF07400128BA6C006D0E053E080E5E042A8D0E0E50D12
:2035A00024FCFF7C007B40E50D2404F886027D007E40C006C007C004C0038A828D838EF032
:2035C000126CE2AF82158115811581D006D006EF6003023668E50D2409F8868208868308C2
:2035E00086F0C0061242B5E582D006700302364AE50D2409F8741826FC74000836FD088652
:2036000007C006E50D24FCF8E6C0E008E6C0E08C828D838FF0125CBF15811581D006E50D01
:203620002409F886820886830886F0C00612411DD006C006124C64E582D00660030234570D
:20364000C006120BA1D006023457E50D2409F886820886830886F0C00612411DD006C00603
:20366000124C64D006023457E50D2409F886820886830886F0C00612411DD006C006124C47
:2036800064D006E50D2409F886820886830886F0C0061242B5E582D006700302345775823F
:2036A00000850D81D00D22C00D85810DE581240DF581AD82AB83AFF07C00E50D240BF8A6D4
:2036C0000508A60308A607E50D2408FEE50D2407F8A606A80D0874242DF674003B08F60875
:2036E000A607C0E0C0A8C2AFA80D0886820886830886F01290D170030237DBE50D240BF83D
:20370000740626FA74000836FB08860774032AFA74003BFB8A828B838FF01290D1FEA312C9
:2037200090D1FDA31290D1FCC006C005C004E50D24FBF8E6C0E008E6C0E008E6C0E0E50D2D
:20374000240BF886820886830886F0123FC3158115811581D004D005D006E50D240BF874C9
:203760000626FA74000836FB08860774032AFA74003BFB8A828B838FF0EE128BA6A3ED1230
:203780008BA6A3EC128BA6E50D240BF8741826FA74000836FB0886078A828B838FF01290E4
:2037A000D170030237CAE50D240BF8741826FA74000836FB0886078A828B838FF0125EDBD7
:2037C000E58270030237CA120BA1D0E053E080E5E042A8D0E07582010239DBE50D24F9F877
:2037E000E6084660030237F9D0E053E080E5E042A8D0E07582000239DBEC60030238148E06
:20380000027B007F408A828B838FF0C006126CB0D0067C01D0E053E080E5E042A8D0E0C00A
:2038200006C004124C5CD004D006C0E0C0A8C2AFE50D240BF8742726FA74000836FB0886D2
:20384000078A828B838FF01290D1FDBDFF02800302385E8A828B838FF07400128BA6E50D3D
:20386000240BF8742826FA74000836FB0886078A828B838FF01290D1FDBDFF02800302389F
:203880008C8A828B838FF07400128BA6C004D0E053E080E5E042A8D0E0E50D24F9FFE50DC6
:2038A0002404F8A607087600087640E50D2407F886047D007F40C006C004E50D2404F8E6A2
:2038C000C0E008E6C0E008E6C0E08C828D838FF0126CE2AF82158115811581D004D006D0C2
:2038E00004EF6003023996E50D240BF886820886830886F0C006C0041242B5E582D004D053
:20390000067003023970E50D240BF8741826FB74000836FD088607C006C004E50D24F9F8E8
:20392000E6C0E008E6C0E08B828D838FF0125CBF15811581D004D006E50D240BF8868208AB
:2039400086830886F0C006C00412411DD004D006C006C004124C64E582D004D0066003027A
:2039600036E2C006C004120BA1D004D0060236E2E50D240BF886820886830886F0C006C0ED
:203980000412411DD004D006C006C004124C64D004D0060236E2E50D240BF88682088683C7
:2039A0000886F0C006C00412411DD004D006C006C004124C64D004D006E50D240BF88682CE
:2039C0000886830886F0C006C0041242B5E582D004D00670030236E2758200850D81D00D40
:2039E00022C00D85810DC082C083C0F0A80D08742426FA74000836FB0886048A828B838C36
:203A0000F01290D1FA8A04EA7003023B0AA80D08742726FA74000836FB0886078A828B8343
:203A20008FF01290D1FFC007C004E50D24FBF8E6C0E008E6C0E008E6C0E0A80D0886820892
:203A400086830886F0123FC3158115811581D004D007A80D08742426FB74000836FD0886AB
:203A6000061C8B828D838EF0EC128BA6BFFF028003023AD8A80D08740C26FC74000836FDF5
:203A80000886068C828D838EF01290D17003023B05A80D08740C26FC74000836FD0886062C
:203AA0008C828D838EF0125EDBE5827003023B05E50D24F8F8E608467003023B05E50D24FE
:203AC000F8F886040886050886068C828D838EF07401128BA6023B05C0071252FCAE82D088
:203AE000078F05C3ED9E4003023B05A80D08742726FC74000836FD0886060F8C828D838EE0
:203B0000F0EF128BA67F01023B0C7F008F82850D81D00D22C00D85810DAD82AE83AFF074C5
:203B2000242DFA74003EFB8F048A828B838CF01290D17003023BBD74062DFA74003EFB8FA7
:203B40000474032AFA74003BFB8A828B838CF01290D1FAA31290D1FBA31290D1FCC007C06F
:203B600006C005C004C003C002E50D24FBF8E6C0E008E6C0E008E6C0E08D828E838FF012D5
:203B80003FC3158115811581D002D003D004D005D006D00774062DFD74003EFE74032DFD71
:203BA00074003EFE8D828E838FF0EA128BA6A3EB128BA6A3EC128BA67F01023BBF7F008F5C
:203BC00082D00D22AD82AE83AFF0C0E0C0A8C2AF74242DFD74003EFE8D828E838FF0129039
:203BE000D1FDD0E053E080E5E042A8D0E08D8222AD82AE83AFF0C0E0C0A8C2AF74252DFACC
:203C000074003EFB8F048A828B838CF01290D1FA74242DFD74003EFE8D828E838FF01290AE
:203C2000D1FDEAC39DFAD0E053E080E5E042A8D0E08A8222AD82AE83AFF074242DFD74004D
:203C40003EFE8D828E838FF01290D1FD8D8222AD82AE83AFF08D828E838FF01226E222C04E
:203C60000D85810DE581240DF581C8E50D2404C8A68208A68308A6F0E50D2404F8742426A6
:203C8000FA74000836FB0886048A828B838CF0E50D240DF81290D1F6E50D2404F8E50D24A9
:203CA00007F9742626F77400083609F708E609F7E50D2407F886820886830886F01290D18E
:203CC000FEEE7003023FA8E50D24FAF8E66003023E27C002C003C0048E047D00E50D240472
:203CE000F8E50D240AF9740326F77400083609F708E609F7E50D240AF886820886830886C0
:203D0000F01290D1FAA31290D1FBA31290D1FFC004C003C002C004C005E50D24FBF8E6C09F
:203D2000E008E6C0E008E6C0E08A828B838FF0128EB8E58124FBF581D002D003D004E50D30
:203D4000240AF886820886830886F01290D1FCA31290D1FDA31290D1FFE50D2407F88682F2
:203D60000886830886F01290D1FBA80D08EB2CF674003D08F608A607E50D240AF8868208F0
:203D800086830886F0A90D09E7128BA6A309E7128BA6A309E7128BA6E50D2404F874062655
:203DA000FA74000836FB0886078A828B838FF01290D1FAA31290D1FBA31290D1FFA80D08DE
:203DC000C002C003C00786820886830886F0120031158115811581D004D003D0025003022D
:203DE0003FA8C002C003C004E50D2404F886820886830886F01290D1FCA31290D1FDA312B3
:203E000090D1FFE50D240AF886820886830886F0EC128BA6A3ED128BA6A3EF128BA6D004E8
:203E2000D003D002023FA8C002C003C0047F00E50D2404F8A90D09740626F7740008360909
:203E4000F708E609F7A80D08E50D240AF9740326F77400083609F708E609F7E50D240AF85B
:203E600086820886830886F01290D1FBA31290D1FCA31290D1FDC004C003C002C006C00742
:203E8000E50D24FBF8E6C0E008E6C0E008E6C0E08B828C838DF0128EB8E58124FBF581D0BB
:203EA00002D003D004E50D240AF886820886830886F01290D1FDA31290D1FEA31290D1FF11
:203EC000E50D2407F886820886830886F01290D1FC7B00EDC39CFDEE9BFEE50D240AF886DE
:203EE000820886830886F0ED128BA6A3EE128BA6A3EF128BA6E50D2404F8868208868308A5
:203F000086F01290D1FAA31290D1FBA31290D1FCC002C003C0048D828E838FF0120031155B
:203F20008115811581D004D003D0024003023F8AC002C003C004A80D0886820886830886A0
:203F4000F01290D1FDA31290D1FEA31290D1FFE50D2407F886820886830886F01290D1FCBD
:203F60007B00EDC39CFDEE9BFEE50D240AF886820886830886F0ED128BA6A3EE128BA6A3A0
:203F8000EF128BA6D004D003D002E50D24FAF8B602028003023FA8E50D240DF8E6700302D2
:203FA0003FA8E50D240DF816E50D240DF8E604FF8A828B838CF0EF128BA6758200850D8113
:203FC000D00D22C00D85810DE5812407F581C8E50D2405C8A68208A68308A6F0E50D24053E
:203FE000F8742626FA74000836FB0886048A828B838CF0A80D081290D1F6A80D08E67003FE
:20400000024117C002C003C004E50D2405F8740626FA74000836FB088604A80D08087403D5
:204020002AF674003B08F608A604A80D080886820886830886F01290D1FDA31290D1FEA37E
:204040001290D1FFA80D08E62DFD74003EFEA80D080886820886830886F0ED128BA6A3EE54
:20406000128BA6A3EF128BA68A828B838CF01290D1FAA31290D1FBA31290D1FCC002C0037D
:20408000C0048D828E838FF0120031158115811581D004D003D00250030240D1E50D2405BE
:2040A000F886820886830886F01290D1FDA31290D1FEA31290D1FFA80D08088682088683FA
:2040C0000886F0ED128BA6A3EE128BA6A3EF128BA68A828B838CF01290D1FA7F00A80D084A
:2040E0000886820886830886F01290D1FCA31290D1FDA31290D1FEC002C007C004C005C0B9
:2041000006E50D24FBF886820886830886F0128EB8E58124FBF581850D81D00D22C00D8542
:20412000810DC082C083C0F0E5812404F581C0E0C0A8C2AFA80D08742826FA74000836FB19
:204140000886048A828B838CF0E50D2404F81290D1F6A80D08E50D2405F9741826F77400CE
:20416000083609F708E609F7E50D2404F8C37400648086F063F08095F040030241D6E50DCA
:204180002405F886820886830886F01290D170030241D6A80D08741826FD74000836FE0844
:2041A00086078D828E838FF0C004C003C002125EDBE582D002D003D00470030241CDC00418
:2041C000C003C002126E09D002D003D004E50D2404F8160241688A828B838CF074FF128BDF
:2041E000A6D0E053E080E5E042A8D0E0C0E0C0A8C2AFA80D08742726FD74000836FE088625
:20420000078D828E838FF01290D1FCA80D08E50D2405F9740C26F77400083609F708E60972
:20422000F7C3740064808CF063F08095F04003024299E50D2405F886820886830886F012BC
:2042400090D17003024299C005C006C007A80D08740C26FA74000836FB0886078A828B83A2
:204260008FF0C007C006C005C004125EDBE582D004D005D006D007D007D006D005700302AA
:204280004295C007C006C005C004126E09D004D005D006D0071C0242218D828E838FF074BE
:2042A000FF128BA6D0E053E080E5E042A8D0E0850D81D00D22AD82AE83AFF0C0E0C0A8C21F
:2042C000AF74242DFD74003EFE8D828E838FF01290D160030242DC7F010242DE7F00D0E057
:2042E00053E080E5E042A8D0E08F8222AD82AE83AFF074242DFD74003EFE8D828E838FF069
:204300001290D1600302430D7F0102430F7F008F8222AD82AE83AFF0C0E0C0A8C2AF7424DF
:204320002DFA74003EFB8F048A828B838CF01290D1FA74252DFD74003EFE8D828E838FF001
:204340001290D1FDEAB5050280030243527F010243547F00D0E053E080E5E042A8D0E08F44
:204360008222AD82AE83AFF074242DFA74003EFB8F048A828B838CF01290D1FA74252DFDD5
:2043800074003EFE8D828E838FF01290D1FDEAB50502800302439C7F0102439E7F008F8261
:2043A00022C00D85810D058105810581AE82AF83758233758300C007C006122622AB82AC25
:2043C00083ADF0D006D007A80D08A60308A60408A605A80D08E608467003024485C006C090
:2043E00007A80D088602088606088607C007C0067433C0E07400C0E0C0E08A828E838FF024
:20440000128F4B158115811581D006D007A80D08742026FA74000836FE088607E50D24F97C
:20442000F886040886058C828D83C007C006C002122622AB82AC83ADF0D002D006D0078A9E
:20444000828E838FF0EB128BA6A3EC128BA6A3ED128BA6D007D006EB4C6003024485A80DB0
:204460000886030886040886058B828C838DF0C007C0061226E2D006D007A80D087400F672
:2044800008F6087600A80D08E608467003024514E50D24F9F886020886037C007D00740054
:2044A000C0E0C0E0C0E0A80D08E6C0E008E6C0E008E6C0E0E50D24F2F8E6C0E008E6C0E0A9
:2044C00008E6C0E0E50D24F5F8E6C0E0E50D24F6F8E6C0E008E6C0E008E6C0E0C002C0039A
:2044E000C004C005E50D24FBF8E6C0E008E6C0E008E6C0E08E828F8312451EE58124ECF586
:2045000081A80D0886820886830886F01248007F010245167FFF8F82850D81D00D22C00D21
:2045200085810DC082C083E581240CF581E50D24EDF8E50D2409F9E6F708E609F708E60902
:20454000F7E50D2409F8742026FA74000836FE0886078A828E838FF0E50D240CF81290D12B
:20456000F6A31290D108F6A31290D108F6E50D240CF8E50D2406F9E6F708E609F708E6092C
:20458000F7E50D2409F8E50D2403F9742B26F77400083609F708E609F7E50D24F7F8E62490
:2045A000FFFA08E634FFFE08E634FFFD08E634FFFFE50D240CF8EA26FAEE0836FE088605C4
:2045C000E50D2403F886820886830886F0EA128BA6A3EE128BA6A3ED128BA6E50D24FBF856
:2045E000E608467003024675E50D2409F8742326FD74000836FE0886077B00E50D2403F8B5
:20460000EB2DF674003E08F608A607C005C006C007E50D24FBF8EB26FD74000836FE088680
:20462000078D828E838FF01290D1FCE50D2403F886820886830886F0EC128BA68D828E836E
:204640008FF01290D1D007D006D00570030246590BBB080050030245FBE50D2409F8742ABA
:2046600026FD74000836FE0886078D828E838FF07400128BA6E50D24F3F8B604005003026C
:204680004689E50D24F3F87603E50D2409F8741F26FD74000836FE0886078D828E838FF020
:2046A000E50D24F3F8E6128BA6E50D2409F8740326FD74000836FE0886078D828E838FF03B
:2046C000122080E50D2409F8741126FD74000836FE0886078D828E838FF0122080E50D24BD
:2046E00009F8740B26FD74000836FE088607E50D24EDF886020886030886048D828E838F7D
:20470000F0EA128BA6A3EB128BA6A3EC128BA6E50D2409F8E50D2403F9741126F774000892
:204720003609F708E609F7E50D24F3F886077E007404C39FFF74009EFEE50D2403F8868247
:204740000886830886F0EF128BA6A3EE128BA6E50D2409F8741926FD74000836FE088607B8
:204760008D828E838FF0EA128BA6A3EB128BA6A3EC128BA6E50D24F4F8E6C0E008E6C0E0B4
:2047800008E6C0E0A80D08E6C0E008E6C0E0E50D2406F886820886830886F0120927AF829C
:2047A000AE83ADF0E58124FBF581E50D2409F886820886830886F0EF128BA6A3EE128BA67C
:2047C000A3ED128BA6E50D24F0F8E6084670030247FAE50D24F0F886050886060886078DDF
:2047E000828E838FF0E50D2409F8E6128BA6A308E6128BA6A308E6128BA6850D81D00D22AD
:20480000C00D85810DC082C083C0F0E581240CF581C0E0C0A8C2AF900C8AE004F0900C87E1
:20482000E0FAA3E0FBA3E0FCEA4B6003024852A80D08900C87E6F008E6A3F008E6A3F09025
:204840000C8AE0FCBC010280030248A9126E280248A9900C8EE060030248A9900C87E0FAB9
:20486000A3E0FBA3E0FC741F2AFA74003BFB8A828B838CF01290D1FAA80D08741F26FB74F2
:20488000000836FC0886078B828C838FF01290D1FBC3EB9A50030248A9A80D08900C87E6EC
:2048A000F008E6A3F008E6A3F0900C93E02401F0A80D08741F26FD74000836FE0886078D9D
:2048C000828E838FF01290D1FC900C8DE0FBC3EB9C40030248DB900C8DECF08D828E838FED
:2048E000F01290D1FCEC75F00CA42418FB740C35F0FC8B828C83A3E50D240DF8E0F6A3E04D
:2049000008F6A3E008F6A80D08E50D240AF9740326F77400083609F708E609F7E50D240AEE
:20492000F8740226FA74000836FB0886048A828B838CF0E50D240DF8E6128BA6A308E6122D
:204940008BA6A308E6128BA6E50D240AF8E50D2404F9740526F77400083609F708E609F7F1
:20496000E50D240DF8E50D2407F9740526F77400083609F708E609F7E50D2407F8868208AB
:2049800086830886F01290D1FAA31290D1FBA31290D1FCE50D2404F886820886830886F057
:2049A000EA128BA6A3EB128BA6A3EC128BA6E50D2407F886820886830886F01290D1FAA36B
:2049C0001290D1FBA31290D1FC74022AFA74003BFB8A828B838CF0E50D240AF8E6128BA63C
:2049E000A308E6128BA6A308E6128BA6E50D2407F886820886830886F0E50D240AF9E71251
:204A00008BA6A309E7128BA6A309E7128BA6E50D240AF8E50D2407F9740B26F7740008363D
:204A200009F708E609F78D828E838FF01290D1FCEC75F00CA42418FC740C35F0FB8C027C97
:204A400000E50D2407F886820886830886F0EA128BA6A3EB128BA6A3EC128BA68D828E83BA
:204A60008FF01290D1FCEC75F00CA42418FB740C35F0FC8B828C83E0FA0A8B828C83EAF079
:204A8000D0E053E080E5E042A8D0E0900C8EE07003024AC6900C87E0FAA3E0FBA3E0FC7457
:204AA0001F2AFA74003BFB8A828B838CF01290D1FA8D828E838FF01290D1FDC3EA9D40036A
:204AC000024AC6120BA1850D81D00D22C00D85810DC082C083C0F0058105817E00C006127D
:204AE0004C5CD006900C8BE0FAA3E0FBE50D2404F8A60208A603A80D0886820886830886EA
:204B0000F01290D1FBA31290D1FCE50D24FCF8E62BFD08E63CFF8D02E50D2404F8C3E69BFF
:204B200008E69C4003024B47C3EA9BEF9C4003024B63E50D2404F8C3E69A08E69F40030227
:204B40004B637E01024B63C3EA9BEF9C5003024B61E50D2404F8C3E69A08E69F4003024B32
:204B6000637E01A80D0886820886830886F0EA128BA6A3EF128BA6EE7003024B9BE50D249E
:204B800004F8EAC396FAEF0896FFC0067400C0E08A828F83128A2E1581D006C006124C649A
:204BA000E582D0066003024BB0C006120BA1D0068E82850D81D00D22AE82AF837D00EE4FC0
:204BC0007003024BE4C007C006124C5CD006D0077400C0E08E828F83128A2E1581124C64E5
:204BE000AF828F05ED6003024BED120BA1227496C0E0740CC0E07400C0E0C0E0C0E0C0E0C8
:204C0000C0E074BAC0E07400C0E074C0C0E07494C0E07480C0E075821075836E1243A1AFF0
:204C200082E58124F4F581BF01028003024C4AC2AF900C9474FFF0A3F0900C8E7401F0906B
:204C40000C8B7400F0A3F0120B239094BFE49322C2AF900C8E7400F0120BA022900C99E017
:204C60002401F022C00D85810DE5812416F581E50D2410F87400F608F6087600E50D2413DA
:204C8000F87600C0E0C0A8C2AF900C99E014F0E060030252B9900C8AE070030252B9900CA2
:204CA00066E07003025253900C6CE0FAA3E0FBA3E0FC74082AFA74003BFB8A828B838CF0D5
:204CC0001290D1FAA31290D1FBA31290D1FCE50D2410F8A60208A60308A604E50D2410F8FD
:204CE000A90D09741126F77400083609F708E609F7E50D2410F8741C26FA74000836FB0830
:204D000086048A828B838CF0E50D2414F81290D1F6A31290D108F6A31290D108F6E50D24AA
:204D200010F8741326FA74000836FB0886048A828B838CF01290D1FDA31290D1FEA3129026
:204D4000D1FFE50D2407F874052DF674003E08F608A607E50D2410F8E50D2404F97416268C
:204D6000F77400083609F708E609F7E50D2404F886820886830886F01290D1FDA31290D16D
:204D8000FEA31290D1FFE50D2407F886820886830886F0ED128BA6A3EE128BA6A3EF128B21
:204DA000A6E50D2404F886820886830886F01290D1FDA31290D1FEA31290D1FF74022DFD6B
:204DC00074003EFE8A828B838CF01290D1FAA31290D1FBA31290D1FC8D828E838FF0EA1262
:204DE0008BA6A3EB128BA6A3EC128BA6E50D2414F8740126FC74000836FB0886028C828B50
:204E0000838AF01290D1FDA31290D1FEA31290D1FFA80D08C005C006C007868208868308CC
:204E200086F012003115811581158170028003024E61E50D2404F886820886830886F01296
:204E400090D1FDA31290D1FEA31290D1FF8C828B838AF0ED128BA6A3EE128BA6A3EF128B02
:204E6000A6A80D08740B26FD74000836FE0886078D828E838FF07400128BA6A3128BA6A309
:204E8000128BA6E50D2414F886820886830886F01290D1FF1FE50D2414F886820886830842
:204EA00086F0EF128BA6E50D2410F8740326FD74000836FE088607E50D2407F8740B2DF696
:204EC00074003E08F608A607E50D2407F886820886830886F0E50D2414F91290D1F7A3127F
:204EE00090D109F7A31290D109F7E50D2404F874022DF674003E08F608A607E50D2404F819
:204F000086820886830886F01290D1FAA31290D1FBA31290D1FCE50D240DF874052AF67442
:204F2000003B08F608A604A80D0874052DF674003E08F608A607A80D088682088683088664
:204F4000F01290D1FAA31290D1FBA31290D1FCE50D240DF886820886830886F0EA128BA6F2
:204F6000A3EB128BA6A3EC128BA6A80D0886820886830886F01290D1FAA31290D1FBA31207
:204F800090D1FCE50D240DF874022AF674003B08F608A604E50D2404F886820886830886EB
:204FA000F01290D1FAA31290D1FBA31290D1FCE50D240DF886820886830886F0EA128BA692
:204FC000A3EB128BA6A3EC128BA6E50D2414F8E50D240DF9740126F77400083609F708E6BE
:204FE00009F7E50D240DF886820886830886F01290D1FAA31290D1FBA31290D1FCC005C0EA
:2050000006C0078A828B838CF01200311581158115817002800302504DA80D088682088641
:20502000830886F01290D1FAA31290D1FBA31290D1FCE50D240DF886820886830886F0EA43
:20504000128BA6A3EB128BA6A3EC128BA6C005C006C007E50D2407F886820886830886F06C
:205060007400128BA6A3128BA6A3128BA6E50D2414F886820886830886F01290D1FC1CE584
:205080000D2414F886820886830886F0EC128BA6E50D2410F8E50D240AF9741F26F77400B2
:2050A000083609F708E609F7E50D240AF886820886830886F01290D1FC900C8DE0FFC3EFEC
:2050C0009CD007D006D00540030250D1900C8DECF0E50D240AF886820886830886F01290F6
:2050E000D1FCEC75F00CA42418FB740C35F0FC8B828C83A3E0FAA3E0FBA3E0FCE50D24045A
:20510000F886820886830886F0EA128BA6A3EB128BA6A3EC128BA6E50D240DF874052AF67C
:2051200074003B08F608A604E50D240DF886820886830886F01290D1FAA31290D1FBA3122B
:2051400090D1FCA80D0886820886830886F0EA128BA6A3EB128BA6A3EC128BA6E50D240DAB
:20516000F886820886830886F01290D1FAA31290D1FBA31290D1FC74022AFA74003BFB8A42
:20518000828B838CF0ED128BA6A3EE128BA6A3EF128BA6E50D240DF886820886830886F078
:2051A000ED128BA6A3EE128BA6A3EF128BA6E50D240AF886820886830886F01290D1FFEF06
:2051C00075F00CA42418FE740C35F0FF7D00E50D2407F886820886830886F0EE128BA6A3DF
:2051E000EF128BA6A3ED128BA6E50D240AF886820886830886F01290D1FFEF75F00CA42461
:2052000018FE740C35F0FF8E828F83E0FD0D8E828F83EDF0E50D240AF8868208868308860A
:20522000F01290D1FF900C87E0FCA3E0FDA3E0FE741F2CFC74003DFD8C828D838EF0129065
:20524000D1FCC3EF9C5003024C9E900C917401F0024C9EE50D2410F8E608467003025263FA
:20526000126E91900C8FE0FEA3E0FF8E048F05EE4F70030252A68C068D07C007C0061253AA
:205280006EE582D006D0077003025292900C917401F01EBEFF011FEE4F600302527A900C9C
:2052A0008F7400F0A3F0900C91E070030252B9E50D2413F87601120BA1D0E053E080E5E05D
:2052C00042A8D0E0E50D2413F88682850D81D00D22C0E0C0A8C2AF900C8BE0FEA3E0FFD029
:2052E000E053E080E5E042A8D0E08E828F8322900C8BE0FEA3E0FF8E828F8322900C8AE0A7
:20530000FF8F8222AD82AE83AFF0ED4E600302531F900C87E0FAA3E0FBA3E0FC0253258D49
:20532000028E038F0474232AFA74003BFB8A828B838CF022AE82AF83C007C006124C5CD0B1
:2053400006D007C0E0C0A8C2AF900C8FE0FCA3E0FD900C8FEE2CF0EF3DA3F0D0E053E08019
:20536000E5E042A8D0E0124C64AF828F8222C00D85810DE5812418F581E50D2413F8760019
:20538000900C99E06003025B13900C8BE0FDA3E0FEE50D2414F874012DF674003E08F6E551
:2053A0000D2414F8900C8BE6F008E6A3F0E50D2414F8E6084660030253F3900C60E0FAA3B8
:2053C000E0FBA3E0FC8B058C06900C63E0FBA3E0FCA3E0FF900C60EBF0ECA3F0EFA3F0900E
:2053E0000C63EAF0EDA3F0EEA3F0900C92E004F0126E91900C94E0FBA3E0FCE50D2414F8A4
:20540000C3E69B08E69C5003025AC2900C60E0FAA3E0FBA3E0FC8A828B838CF01290D16011
:205420000302542F900C9474FFF0A3F0025AC2900C60E0FAA3E0FBA3E0FC74042AFA7400BD
:205440003BFB74022AFA74003BFB8A828B838CF01290D1FAA31290D1FBA31290D1FC740830
:205460002AFA74003BFB8A828B838CF01290D1FAA31290D1FBA31290D1FCE50D2410F8A674
:205480000208A60308A604E50D2410F8740326FD74000836FE0886078D828E838FF0129069
:2054A000D1FFA31290D1FEE50D2414F8C3E69F08E69E40030254C2900C94EFF0EEA3F00225
:2054C0005AC2E50D2410F8740326FD74000836FE088607E50D2410F8740E26FA7400083641
:2054E000FB0886048A828B838CF0E50D2416F81290D1F6A31290D108F6A31290D108F6E5EF
:205500000D2410F8A90D09740526F77400083609F708E609F7A80D0886820886830886F009
:205520001290D1FAA31290D1FBA31290D1FCE50D240AF874052AF674003B08F608A604E5E6
:205540000D2410F8E50D2404F9740826F77400083609F708E609F7E50D2404F8868208861E
:20556000830886F01290D1FAA31290D1FBA31290D1FCE50D240AF886820886830886F0EA01
:20558000128BA6A3EB128BA6A3EC128BA6E50D2404F886820886830886F01290D1FAA3125A
:2055A00090D1FBA31290D1FCE50D240AF874022AF674003B08F608A604A80D08868208861D
:2055C000830886F01290D1FAA31290D1FBA31290D1FCE50D240AF886820886830886F0EAA1
:2055E000128BA6A3EB128BA6A3EC128BA6E50D2416F8E50D240AF9740126F774000836093B
:20560000F708E609F7E50D240AF886820886830886F01290D1FAA31290D1FBA31290D1FC66
:20562000C005C006C0078A828B838CF012003115811581158170028003025672E50D2404A4
:20564000F886820886830886F01290D1FAA31290D1FBA31290D1FCE50D240AF8868208867D
:20566000830886F0EA128BA6A3EB128BA6A3EC128BA6E50D2407F8740B2DF674003E08F6F2
:2056800008A607E50D2407F886820886830886F07400128BA6A3128BA6A3128BA6C005C0A1
:2056A00006C007E50D2416F886820886830886F01290D1FF1FE50D2416F88682088683088C
:2056C00086F0EF128BA6E50D2410F8E50D240AF9741126F77400083609F708E609F7E50DB7
:2056E000240AF8E50D2404F9740B26F77400083609F708E609F7E50D2404F886820886830A
:205700000886F01290D1FAA31290D1FBA31290D1FCD007D006D005EA4B70030258CDC00565
:20572000C006C007E50D2416F8A60208A60308A604E50D240AF8740226FD74000836FE0844
:2057400086078D828E838FF01290D1FAA31290D1FBA31290D1FCE50D240DF874052AF67465
:20576000003B08F608A604E50D240AF8A90D09740526F77400083609F708E609F7A80D0874
:2057800086820886830886F01290D1FAA31290D1FBA31290D1FCE50D240DF88682088683AE
:2057A0000886F0EA128BA6A3EB128BA6A3EC128BA6A80D0886820886830886F01290D1FADA
:2057C000A31290D1FBA31290D1FC74022AFA74003BFB8D828E838FF01290D1FDA31290D13D
:2057E000FEA31290D1FF8A828B838CF0ED128BA6A3EE128BA6A3EF128BA6E50D2416F8E51E
:205800000D240DF9740126F77400083609F708E609F7E50D240DF886820886830886F0125B
:2058200090D1FDA31290D1FEA31290D1FFE50D240AF8C005C006C00786820886830886F0E0
:2058400012003115811581158170028009D007D006D005025890D007D006D005A80D088617
:20586000820886830886F01290D1FAA31290D1FBA31290D1FCE50D240DF88682088683084B
:2058800086F0EA128BA6A3EB128BA6A3EC128BA6E50D2404F886820886830886F074001293
:2058A0008BA6A3128BA6A3128BA6E50D2416F886820886830886F01290D1FC1CE50D241679
:2058C000F886820886830886F0EC128BA6C005C006C007E50D2410F8E50D240AF9741F26C8
:2058E000F77400083609F708E609F7E50D240AF886820886830886F01290D1FC900C8DE0EA
:20590000FFC3EF9CD007D006D0054003025914900C8DECF0E50D240AF88682088683088642
:20592000F01290D1FCEC75F00CA42418FB740C35F0FC8B828C83A3E50D2416F8E0F6A3E0F3
:2059400008F6A3E008F674022DFA74003EFB8F048A828B838CF0E50D2416F8E6128BA6A365
:2059600008E6128BA6A308E6128BA6E50D240DF874052DF674003E08F608A607E50D2416DA
:20598000F8E50D2404F9740526F77400083609F708E609F7E50D2404F8868208868308860D
:2059A000F01290D1FAA31290D1FBA31290D1FCE50D240DF886820886830886F0EA128BA688
:2059C000A3EB128BA6A3EC128BA6E50D2404F886820886830886F01290D1FAA31290D1FBFD
:2059E000A31290D1FC74022AFA74003BFB8A828B838CF0ED128BA6A3EE128BA6A3EF128B88
:205A0000A6E50D2404F886820886830886F0ED128BA6A3EE128BA6A3EF128BA6E50D240A3E
:205A2000F886820886830886F01290D1FFEF75F00CA42418FE740C35F0FF7D00E50D2407E9
:205A4000F886820886830886F0EE128BA6A3EF128BA6A3ED128BA6E50D240AF88682088630
:205A6000830886F01290D1FFEF75F00CA42418FE740C35F0FF8E828F83E0FD0D8E828F83A3
:205A8000EDF0E50D240AF886820886830886F01290D1FF900C87E0FCA3E0FDA3E0FE741F75
:205AA0002CFC74003DFD8C828D838EF01290D1FCC3EF9C500302540BE50D2413F876010269
:205AC000540B900C87E0FDA3E0FEA3E0FF741F2DFD74003EFE8D828E838FF01290D1FDEDFB
:205AE00075F00CA42418F582740C35F0F583E0FFC374019F4003025B00E50D2413F87601D3
:205B0000900C91E07003025B1FE50D2413F87601025B1F900C8FE02401F0A3E03400F0E5C9
:205B20000D2413F88682850D81D00D22C00D85810DE581240AF581900C99E07003025B49F7
:205B4000900C917401F0025CB9900C917400F0900C8DE0FFEF75F00CA4FDAEF0ED2418FB40
:205B6000EE340CFC8B828C83E06003025B721F025B54E50D2407F8A607ED2418FDEE340CE7
:205B8000FEE50D2408F8A60508A606087600E50D2408F8740126FA74000836FB0886078A9D
:205BA000828B838FF01290D1FCA31290D1FDA31290D1FE74022CFC74003DFD8C828D838E48
:205BC000F01290D1FCA31290D1FDA31290D1FE8A828B838FF0EC128BA6A3ED128BA6A3EE13
:205BE000128BA68A828B838FF0A80D081290D1F6A31290D108F6A31290D108F6E50D240461
:205C0000F8A60408A60508A606E50D2408F8740426FC74000836FD088606E50D2404F8C0B6
:205C200004C005C00686820886830886F012003115811581158170028003025C74A80D08B5
:205C4000740226FC74000836FD0886068C828D838EF01290D1FCA31290D1FDA31290D1FE37
:205C60008A828B838FF0EC128BA6A3ED128BA6A3EE128BA68A828B838FF01290D1FAA312FA
:205C800090D1FBA31290D1FF74082AFA74003BFB8A828B838FF01290D1FAA31290D1FBA38F
:205CA0001290D1FF900C87EAF0EBA3F0EFA3F0E50D2407F8900C8DE6F0850D81D00D22C08F
:205CC0000D85810DAD82AE83AFF0900C87E0FAA3E0FBA3E0FC74112AFA74003BFBC002C0D6
:205CE00003C0048D828E838FF01222061581158115817401C0E0E50D24FCF886820886830A
:205D0000128A2E1581D00D22C00D85810DC082C083C0F0058105810581900C87E0FAA3E0FD
:205D2000FBA3E0FC74112AFA74003BFBE50D24FCF886060886074307808A828B838CF0EE1D
:205D4000128BA6A3EF128BA6A80D08740126FD74000836FE0886078D828E838FF01290D17F
:205D6000FDA31290D1FEA31290D1FF900C87E0FAA3E0FBA3E0FC74112AFA74003BFB74023A
:205D80002AFA74003BFB8A828B838CF0ED128BA6A3EE128BA6A3EF128BA6900C87E0FAA326
:205DA000E0FBA3E0FC74112AFA74003BFBE50D2404F874052AF674003B08F608A6047405B3
:205DC0002DFD74003EFE8D828E838FF01290D1FAA31290D1FBA31290D1FCE50D2404F88622
:205DE000820886830886F0EA128BA6A3EB128BA6A3EC128BA68D828E838FF01290D1FAA313
:205E00001290D1FBA31290D1FCE50D2404F874022AF674003B08F608A604900C87E0FAA35B
:205E2000E0FBA3E0FC74112AFA74003BFBE50D2404F886820886830886F0EA128BA6A3EB51
:205E4000128BA6A3EC128BA6900C87E0FAA3E0FBA3E0FC74112AFA74003BFB8D828E838F31
:205E6000F0EA128BA6A3EB128BA6A3EC128BA6900C87E0FDA3E0FEA3E0FF74112DFD74003C
:205E80003EFE740B2DFD74003EFE8D828E838FF0A80D08E6128BA6A308E6128BA6A308E683
:205EA000128BA6A80D0886820886830886F01290D1FF0FA80D0886820886830886F0EF1275
:205EC0008BA67401C0E0E50D24FAF88682088683128A2E1581850D81D00D22C00D85810D09
:205EE000E5812419F581AD82AE83AFF074042DFD74003EFE74022DFD74003EFE8D828E83C8
:205F00008FF01290D1FDA31290D1FEA31290D1FF74082DFD74003EFE8D828E838FF01290D2
:205F2000D1FDA31290D1FEA31290D1FFE50D2414F8A60508A60608A607E50D2414F874118D
:205F400026FA74000836FB088604E50D2414F8741C26FD74000836FE0886078D828E838F19
:205F6000F0E50D2417F81290D1F6A31290D108F6A31290D108F6E50D2414F8E50D240EF93C
:205F8000741326F77400083609F708E609F7E50D240EF886820886830886F01290D1FDA3F7
:205FA0001290D1FEA31290D1FFE50D2411F874052DF674003E08F608A607E50D2414F8E534
:205FC0000D240AF9741626F77400083609F708E609F7E50D240AF886820886830886F01285
:205FE00090D1FDA31290D1FEA31290D1FFE50D2411F886820886830886F0ED128BA6A3EEA3
:20600000128BA6A3EF128BA6E50D240AF886820886830886F01290D1FDA31290D1FEA31280
:2060200090D1FFE50D2411F874022DF674003E08F608A607E50D240EF88682088683088620
:20604000F01290D1FDA31290D1FEA31290D1FFE50D2411F886820886830886F0ED128BA6D1
:20606000A3EE128BA6A3EF128BA6E50D2417F8E50D2411F9740126F77400083609F708E600
:2060800009F7E50D2411F886820886830886F01290D1FDA31290D1FEA31290D1FFC002C02F
:2060A00003C0048D828E838FF0120031158115811581700280030260EFE50D240AF886820F
:2060C0000886830886F01290D1FDA31290D1FEA31290D1FFE50D2411F886820886830886D2
:2060E000F0ED128BA6A3EE128BA6A3EF128BA6E50D2407F8740B2AF674003B08F608A604C4
:20610000E50D2407F886820886830886F07400128BA6A3128BA6A3128BA6C002C003C00407
:20612000E50D2417F886820886830886F01290D1FC1CE50D2417F886820886830886F0EC70
:20614000128BA6900C99E0D004D003D002600302651AE50D2414F8740326FC74000836FB22
:20616000088602E50D240AF8740B2CF674003B08F608A602E50D240AF886820886830886BA
:20618000F01290D1FFA31290D1FEA31290D1FDE50D240EF874022CF674003B08F608A60265
:2061A000E50D240EF886820886830886F0A90D091290D1F7A31290D109F7A31290D109F7D7
:2061C000A80D08740526F674000836F6E50D2404F874052CF674003B08F608A602E50D24A5
:2061E00004F886820886830886F0E50D2407F91290D1F7A31290D109F7A31290D109F7A8B8
:206200000D0886820886830886F0E50D2407F9E7128BA6A309E7128BA6A309E7128BA6E501
:206220000D2404F886820886830886F0E50D2407F91290D1F7A31290D109F7A31290D109E5
:20624000F7E50D2407F8740226F674000836F6E50D240EF886820886830886F0A90D091274
:2062600090D1F7A31290D109F7A31290D109F7E50D2407F886820886830886F0A90D09E748
:20628000128BA6A309E7128BA6A309E7128BA6E50D2407F874012FF674003E08F608A605FD
:2062A000E50D2407F886820886830886F0A90D091290D1F7A31290D109F7A31290D109F7DD
:2062C000A80D08C004C003C00286820886830886F0120031158115811581700280030263C2
:2062E00021E50D2404F886820886830886F0A90D091290D1F7A31290D109F7A31290D10976
:20630000F7E50D2407F886820886830886F0A90D09E7128BA6A309E7128BA6A309E7128BEB
:20632000A6E50D240AF886820886830886F07400128BA6A3128BA6A3128BA68F828E838DD6
:20634000F0E50D2407F81290D1F6E50D2407F8E50D2407F9E614F78F828E838DF0E50D24FE
:2063600007F8E6128BA6E50D2414F8741F26FF74000836FE0886058F828E838DF0A80D087C
:206380001290D1F6900C8DE50D240DF8E0F6A80D08E50D240DF9C3E79640030263A6A80D5E
:2063A00008900C8DE6F08F828E838DF0E50D240DF81290D1F6E50D240DF8E675F00CA4A8F5
:2063C0000D082418F6740C35F008F6A80D088682088683A3E50D2417F8E0F6A3E008F6A33B
:2063E000E008F6E50D240EF886820886830886F0E50D2417F9E7128BA6A309E7128BA6A343
:2064000009E7128BA6E50D2417F8A90D09740526F77400083609F708E609F7A80D0886826A
:206420000886830886F0E50D240EF91290D1F7A31290D109F7A31290D109F7E50D2404F808
:2064400086820886830886F0E50D240EF9E7128BA6A309E7128BA6A309E7128BA6A80D08F5
:2064600086820886830886F0E50D2404F91290D1F7A31290D109F7A31290D109F7E50D24C6
:2064800004F8740226F674000836F6E50D2404F886820886830886F0EC128BA6A3EB128BC3
:2064A000A6A3EA128BA6A80D0886820886830886F0EC128BA6A3EB128BA6A3EA128BA68FB3
:2064C000828E838DF01290D1FCEC75F00CA42418FC740C35F0FB7A00E50D240AF8868208C2
:2064E00086830886F0EC128BA6A3EB128BA6A3EA128BA68F828E838DF01290D1FFEF75F0E0
:206500000CA42418FF740C35F0FE8F828E83E0FD0D8F828E83EDF0026623900C67E50D243E
:2065200017F8E0F6A3E008F6A3E008F674022AFD74003BFE8C078D828E838FF0E50D2417CB
:20654000F8E6128BA6A308E6128BA6A308E6128BA6E50D2404F874052AF674003B08F60812
:20656000A604E50D2417F8A90D09740526F77400083609F708E609F7A80D08868208868381
:206580000886F01290D1FDA31290D1FEA31290D1FFE50D2404F886820886830886F0ED123C
:2065A0008BA6A3EE128BA6A3EF128BA6A80D0886820886830886F01290D1FDA31290D1FE29
:2065C000A31290D1FF74022DFD74003EFE8D828E838FF0EA128BA6A3EB128BA6A3EC128B8D
:2065E000A6A80D0886820886830886F0EA128BA6A3EB128BA6A3EC128BA6E50D2407F88636
:20660000820886830886F07466128BA6A3740C128BA6A37400128BA6900C66E0FF0F900C00
:2066200066EFF0E50D2414F8741F26FD74000836FE0886078D828E838FF01290D1FD900C4D
:2066400087E0FCA3E0FEA3E0FF741F2CFC74003EFE8C828E838FF01290D1FCC3EC9D4003CD
:2066600002666D7F01900C91EFF002666F7F008F82850D81D00D22C00D85810DC082C083DB
:20668000C0F0E5812415F581E50D24FCF88603088604430480A80D0886820886830886F0F5
:2066A000EB128BA6A3EC128BA6A80D08740826FA74000836FB0886048A828B838CF012900A
:2066C000D1FAA31290D1FBA31290D1FCE50D2413F8A60208A60308A604A80D08740B26FA44
:2066E00074000836FB0886048A828B838CF0E50D2416F81290D1F6A31290D108F6A31290DF
:20670000D108F6A80D08E50D240DF9740226F77400083609F708E609F7E50D240DF886827B
:206720000886830886F01290D1FDA31290D1FEA31290D1FFE50D240AF874052DF674003ECB
:2067400008F608A607A80D08E50D2404F9740526F77400083609F708E609F7E50D2404F86E
:2067600086820886830886F01290D1FDA31290D1FEA31290D1FFE50D240AF88682088683B8
:206780000886F0ED128BA6A3EE128BA6A3EF128BA6E50D2404F886820886830886F0129057
:2067A000D1FDA31290D1FEA31290D1FFE50D240AF874022DF674003E08F608A607E50D24B6
:2067C0000DF886820886830886F01290D1FDA31290D1FEA31290D1FFE50D240AF88682085C
:2067E00086830886F0ED128BA6A3EE128BA6A3EF128BA6E50D2416F8E50D240AF974012661
:20680000F77400083609F708E609F7E50D240AF886820886830886F01290D1FDA31290D1AC
:20682000FEA31290D1FFA80D08C005C006C00786820886830886F01200311581158115819A
:206840007002800302687DE50D2404F886820886830886F01290D1FDA31290D1FEA31290EA
:20686000D1FFE50D240AF886820886830886F0ED128BA6A3EE128BA6A3EF128BA68A828B29
:20688000838CF07400128BA6A3128BA6A3128BA6E50D2416F886820886830886F01290D148
:2068A000FF1FE50D2416F886820886830886F0EF128BA6E50D2413F8740326FD7400083660
:2068C000FE088607E50D240AF8740B2DF674003E08F608A607E50D240AF8868208868308CD
:2068E00086F0E50D2416F91290D1F7A31290D109F7A31290D109F7E50D2404F874022DF6BC
:2069000074003E08F608A607E50D2404F886820886830886F01290D1FAA31290D1FBA31236
:2069200090D1FCE50D2410F874052AF674003B08F608A604E50D240DF874052DF674003E7B
