:200000000200BF32FFFFFFFFFFFFFF32FFFFFFFFFFFFFF32FFFFFFFFFFFFFF32FFFFFFFF70
:20002000FFFFFF32FFFFFFFFFFFFFF32FFFFFFFFFFFFFF32FFFFFFFFFFFFFF32FFFFFFFF14
:20004000FFFFFF32FFFFFFFFFFFFFF32FFFFFFFFFFFFFF0205DEFFFFFFFFFF32FFFFFFFF3F
:20006000FFFFFF32FFFFFFFFFFFFFF32FFFFFFFFFFFFFF0210CFFFFFFFFFFF32FFFFFFFF23
:20008000FFFFFF32FFFFFFFFFFFFFF02133E0206D2E58124FCC3C8C0E0C082E6084670066E
:2000A000E5824583601218E58296F58208E58396428208E5F0964582D082C8D0E0C82275E6
:2000C0008120129AB8E582600302008E792AE94400601B7A01909B84789275A00FE493F2B5
:2000E000A308B8000205A0D9F4DAF275A0FFE478FFF6D8FD7800E84400600A790175A00086
:20010000E4F309D8FC7891E8440F600C7910900001E4F0A3D8FCD9FA90001A7400F0A3F0A2
:2001200090001CF0A3F090001EF0A3F0900020F0A3F0900F357400F0A3F0A3F002008E75C9
:2001400096295397FEE5EA75EA0075F80022C00D85810DAF82C0071252D4D007E50D24FD41
:20016000F8E660030201BEC374079F5003020212EF240A83F582EF240C83F583E4738E948D
:200180009AA0A6ACB2B8010101010101010143F80102021243F80202021243F80402021267
:2001A00043F80802021243F81002021243F82002021243F84002021243F880020212C3747B
:2001C000079F5003020212EF240A83F582EF240C83F583E473E5EBF1F7FD03090F010101B5
:2001E000010102020253F8FE02021253F8FD02021253F8FB02021253F8F702021253F8EF4C
:2002000002021253F8DF02021253F8BF02021253F87F1252DCD00D22AF827E007D00C0076C
:20022000C006C0051252D4D005D006D007C374079F500302027CEF240A83F582EF240C8310
:20024000F583E47354595E63686D727702020202020202027E0102027E7E0202027E7E040E
:2002600002027E7E0802027E7E1002027E7E2002027E7E4002027E7E8002027E7D01BD01C8
:2002800003020298EE55F87003020295EEF4FFEF52F8020298EE42F81252DC22AF96C0E053
:2002A000C0A8C2AF7596007596285397FD53EFDF7596285397FE53EFEF43C02043C010D0CD
:2002C000E053E080E5E042A8D0E08F9622AF82EF70030202E27E111EEE60030202D71F0272
:2002E00002CF227596285397FD53EFDF43C02043C0107582011202CD53C0DF7582011202C3
:20030000CD53C0EF7582011202CD2253C0EF7596285397FD53EFDF53C0DF7582011202CD0B
:2003200043C0107582011202CD43C020227F007596285397FD43EF207E0053C0EF75820228
:20034000C007C0061202CDD006D00743C010758202C007C0061202CDD006D007E5B020E5C1
:2003600003020367430701BE070040030203758F05ED25E0FF0EBE0800500302033A53C043
:20038000EF7596285397FD53EFDF53C0DF8F8222AF827E0053C0EF758201C007C0061202C4
:2003A000CDD006D007EF20E7030203B243C0200203B553C0DF758201C007C0061202CDD00E
:2003C00006D00743C010758201C007C0061202CDD006D0078F05ED25E0FF0EBE080050036E
:2003E00002039453C0EF7582011202CD7596285397FD43EF207582011202CD43C01075823A
:20040000021202CDE5B0A2E5E433FFEF24FFE433FF53C0EF758201C0071202CDD00775961B
:20042000285397FD53EFDF53C0DF758201C0071202CDD0078F8222AF827596285397FD5352
:20044000EFDF53C0DF53C0EFEF700302045443C02002045753C0DF7582011202CD43C010C0
:200460007582011202CD53C0EF22C00D85810DAF82C0071202E3D0075307FE8F82120390CB
:20048000E582700302048D12030B0204D37F00E50D24FAF8C3EF9640030204D0E50D24FBFD
:2004A000F8EF26FC74000836FD0886068C828D838EF0129823FC8C82C007120390E582D0DA
:2004C0000770030204CC12030B0204D30F02048F12030BD00D22C00D85810DAF82C007122A
:2004E00002E3D0074307018F82120390E58270030204F912030B02056B7F00E50D24FAF84D
:20050000C3EF964003020562E50D24FBF8EF26FC74000836FD088606C007C006C005C00474
:2005200012032DAB82D004D005D006D0078C828D838EF0EB129236E50D24FAF886057E0084
:200540001DBDFF011E8F037C00EBB50507ECB50603020562758200C007120437D0070F02E3
:2005600004FB75820112043712030BD00D2222AF96C0E0C0A8C2AF75960090000F7400F02A
:20058000900010F0C2AF43F60853F1F775965075970275961943971075961943972075963E
:2005A000265397BF43EC1075962653977F43EC207596345397EF75E3C075E80043E501434B
:2005C000E50243E50453E5F743E51043E608D2AFD0E053E080E5E042A8D0E08F9622C0E046
:2005E000C0F0C082C083C007C006C001C000C0D075D000AF96C0E0C0A8C2AF53F1F7E5E81D
:2006000020E10302060953E8FDE5E820E00302061653E8FEE5E4E5E830E4030206459000DC
:200620000F7400F0900010F0E5E820E50302063C900009E0F5E443E5040206AE900001E5F4
:20064000E4F00206AEE5E820E50302067C900010E0FEEE2409F58274003400F583E0F5E4CE
:20066000900010EE04F0E0FEBE080050030206769000107400F043E5040206AEE5E820E3CD
:20068000030206AE90000FE0FEEE2401F58274003400F583E5E4F090000FE02401F0E0FE4F
:2006A000BE080050030206AE90000F7400F043E504D0E053E080E5E042A8D0E08F96D0D0B5
:2006C000D000D001D006D007D083D082D0F0D0E032221207D012013F7582011222407582C5
:2006E000001224807405C0E075820212239315817582021215FB7400C0E0C0E0C0E0C0E0C5
:2007000074CDC0E074ABC0E07400C0E074A7C0E07400C0E074BCC0E0749AC0E07480C0E044
:200720007582FB75830B124A1DE58124F4F5817400C0E0C0E0C0E0C0E0C0E0C0E0C0E0740F
:20074000A7C0E07400C0E074C4C0E0749AC0E07480C0E07582B7758308124A1DE58124F47F
:20076000F5817400C0E0C0E0C0E0C0E0C0E0C0E0C0E074A7C0E07400C0E074C4C0E0749A7A
:20078000C0E07480C0E075825975830A124A1DE58124F4F5817400C0E0C0E0C0E07403C0DB
:2007A000E07400C0E0C0E0C0E074A7C0E07400C0E074C9C0E0749AC0E07480C0E0758243DD
:2007C000758308124A1DE58124F4F5811252662275962D5397DFC2AF53F67F53F17F75AEA0
:2007E000EF75920075910743E680D2AF53F7FE53D8FE1207F622C00D85810D0581058153EB
:20080000ADF143AD0853ADFEA80D087610087627A80D088606088607A80D08EE24FFF6EFCB
:2008200034FF08F6EE4F6003020810850D81D00D22E5D820E00302083F53D8FE02084243FA
:20084000D801227F00900F92E06003020861759107758296758300C007125230D007020871
:200860006E758205758300C007125230D007C0071225FAAE82D007BE010302087F7F01C05A
:2008800007121F87D007C007122227D007C007121C77AE82D007BE010302089E7F01BF01AC
:2008A0000280030208AC900F927401F0C007120831D00702084522C00D85810DE581240C97
:2008C000F581A80D08762B08765208769A0876C4E50D2405F876DD08769A08761208764549
:2008E000E50D2405F8E6C0E008E6C0E008E6C0E008E6C0E0A80D0886820886830886F00859
:20090000E612931FAC82AD83AEF0FFE58124FCF581E50D2409F8A60408A60508A60608A660
:2009200007E50D2409F8E6C0E008E6C0E008E6C0E008E6C0E07582CD7583E475F08A744422
:20094000129251AF82E58124FCF581EF6003020981749AC0E074E1C0E0748AC0E07444C0DE
:20096000E0E50D2409F886820886830886F008E6129251AF82E58124FCF581EF700302096C
:2009800098C0E0C0A8C2AF900F927401F0D0E053E080E5E042A8D0E0E50D2405F8E6C0E055
:2009A00008E6C0E008E6C0E008E6C0E0A80D0886820886830886F008E6129760AC82AD83E4
:2009C000AEF0FFE58124FCF581E50D2409F8A60408A60508A60608A607E50D2409F8E6C0E4
:2009E000E008E6C0E008E6C0E008E6C0E075825C75838F75F00274BF129251AF82E5812449
:200A0000FCF581EF6003020A397414C0E074AEC0E07407C0E074BFC0E0E50D2409F88682D6
:200A20000886830886F008E6129251AF82E58124FCF581EF70030208C2C0E0C0A8C2AF90E0
:200A40000F927401F0D0E053E080E5E042A8D0E00208C2850D81D00D22C00D85810DE581AA
:200A6000240CF581E50D2409F876450876D20876400876C6E50D2405F8765C087635087696
:200A8000B7087646E50D2405F8E6C0E008E6C0E008E6C0E008E6C0E0E50D2409F886820871
:200AA00086830886F008E612931FAC82AD83AEF0FFE58124FCF581A80D08A60408A60508E4
:200AC000A60608A607A80D08E6C0E008E6C0E008E6C0E008E6C0E075829A75839875F02D15
:200AE0007446129251AF82E58124FCF581EF6003020B217433C0E07498C0E0742DC0E074F2
:200B000046C0E0A80D0886820886830886F008E6129251AF82E58124FCF581EF7003020B1C
:200B200038C0E0C0A8C2AF900F927401F0D0E053E080E5E042A8D0E0E50D2405F886040807
:200B4000860508860608E6B2E7FFC004C005C006C007E50D2409F886820886830886F00824
:200B6000E6129760AC82AD83AEF0FFE58124FCF581A80D08A60408A60508A60608A607A864
:200B80000D08E6C0E008E6C0E008E6C0E008E6C0E07582147583AE75F007743F129251AF9C
:200BA00082E58124FCF581EF6003020BDB745CC0E0748FC0E07402C0E0743FC0E0A80D0844
:200BC00086820886830886F008E6129251AF82E58124FCF581EF7003020A64C0E0C0A8C2D2
:200BE000AF900F927401F0D0E053E080E5E042A8D0E0020A64850D81D00D227420B581039F
:200C0000020C1AC0E0C0A8C2AF900F927401F0D0E053E080E5E042A8D0E08500E0E5E07041
:200C200003020C3BC0E0C0A8C2AF900F927401F0D0E053E080E5E042A8D0E08501E07401BC
:200C4000B5E003020C5DC0E0C0A8C2AF900F927401F0D0E053E080E5E042A8D0E08502E059
:200C60007402B5E003020C7FC0E0C0A8C2AF900F927401F0D0E053E080E5E042A8D0E08583
:200C800003E07403B5E003020CA1C0E0C0A8C2AF900F927401F0D0E053E080E5E042A8D0C2
:200CA000E08504E07404B5E003020CC3C0E0C0A8C2AF900F927401F0D0E053E080E5E04291
:200CC000A8D0E08505E07405B5E003020CE5C0E0C0A8C2AF900F927401F0D0E053E080E5F7
:200CE000E042A8D0E08506E07406B5E003020D07C0E0C0A8C2AF900F927401F0D0E053E0F5
:200D000080E5E042A8D0E08507E07407B5E003020D29C0E0C0A8C2AF900F927401F0D0E07E
:200D200053E080E5E042A8D0E074CDB58203020D48C0E0C0A8C2AF900F927401F0D0E053BD
:200D4000E080E5E042A8D0E074ABB58303020D67C0E0C0A8C2AF900F927401F0D0E053E012
:200D600080E5E042A8D0E0E5F0020BFB22C00D85810DE581240EF581AD82AE83AFF0E50DB6
:200D8000240CF8A60508A60608A607E50D2405F874012DF674003E08F608A607E50D24FCF5
:200DA000F886020886037C807F008A06E50D2405F886820886830886F0EE129236E50D248F
:200DC00008F8A60308A60408A607087600E50D2405F8740126FD74000836FE088607E50DA3
:200DE0002408F886028D828E838FF0EA1292360DBD00010E8D828E838FF074AA1292360D67
:200E0000BD00010E8D828E838FF07480129236E50D2408F874012DF674003E08F608A60786
:200E2000E50D24F9F886020886030886047F008A06E50D2408F886820886830886F0EE1244
:200E40009236A80D08A60308A60408A607087600E50D2408F8740126FD74000836FE088693
:200E600007A80D0886028D828E838FF0EA129236A80D0808E618F60808E618F60808E618F8
:200E8000F60876000DBD00010EA80D0886028D828E838FF0EA1292360DBD00010E8D828EE7
:200EA000838FF074021292360DBD00010E8D828E838FF074031292360DBD00010E8D828EA1
:200EC000838FF074041292360DBD00010E8D828E838FF074051292360DBD00010E8D828E7D
:200EE000838FF074061292360DBD00010E8D828E838FF074071292360DBD00010E8D828E59
:200F0000838FF074001292360DBD00010E8D828E838FF074011292360DBD00010E8D828E44
:200F2000838FF074001292360DBD00010E8D828E838FF074BB129236E50D240CF88602ED51
:200F4000C39AFDE50D240CF886820886830886F0ED129236E50D240CF886820886830886FE
:200F6000F0850D81D00D221211C9759600900FA9E0FDA3E0FEA3E0FF8D828E838FF0129807
:200F800023F509A3129823F50A750B20850982850A83E0F5080509E4B50902050A050BA9A8
:200FA0000B850982850A83E0FFA7071508E5086003020F95850B81D00DD0D0D001D000D065
:200FC00007D006D005D004D003D002D0F0D083D082D0E020E705C2AF020FDDD2AFD0E03203
:200FE0007582012222C0E0C0A8C2AFC082C083C0F0C002C003C004C005C006C007C000C0EC
:2010000001C0D075D000C00D900FA9E0FDA3E0FEA3E0FF8D828E838FF0129823F509A312E6
:201020009823F50A750B21AF81EF24E0F508850982850A83E508F0E508700302105905095D
:20104000E4B50902050A850982850A83A90B8707EFF0050B150802103712619C900FA9E0ED
:20106000FDA3E0FEA3E0FF8D828E838FF0129823F509A3129823F50A750B20850982850A58
:2010800083E0F5080509E4B50902050A050BA90B850982850A83E0FFA7071508E50860034F
:2010A000021084850B81D00DD0D0D001D000D007D006D005D004D003D002D0F0D083D0820B
:2010C000D0E020E705C2AF0210CCD2AFD0E032C0E0C0A8C2AFC082C083C0F0C002C003C0AF
:2010E00004C005C006C007C000C001C0D075D000C00D900FA9E0FDA3E0FEA3E0FF8D828EB2
:20110000838FF0129823F509A3129823F50A750B21AF81EF24E0F508850982850A83E508C3
:20112000F0E50870030211430509E4B50902050A850982850A83A90B8707EFF0050B1508D8
:201140000211211259E6E582700302115012619C53F17F53AEF7900FA9E0FDA3E0FEA3E0DA
:20116000FF8D828E838FF0129823F509A3129823F50A750B20850982850A83E0F5080509EA
:20118000E4B50902050A050BA90B850982850A83E0FFA7071508E508600302117E850B811A
:2011A000D00DD0D0D001D000D007D006D005D004D003D002D0F0D083D082D0E020E705C233
:2011C000AF0211C6D2AFD0E032AF96759600C2AF43F68053F17F53AEF75393FE759401758C
:2011E00095475393F75393FD43930275962D5397EF4397105393FB85939343E68043930174
:201200008F9622C00D85810DC082C083C0F0C0E00581C0E0C0A8C2AFE50D2405F8A696750F
:201220009600750C017400C0E004C0E0E50D24FDF886821230A5AA82AB83AFF015811581BF
:20124000900011EAF0EBA3F0EFA3F07400C0E004C0E0E50D24FDF886821230A5AD82AE8301
:20126000AFF015811581900014EDF0EEA3F0EFA3F0C2AF43F40453E1FB75963453979F4339
:20128000972075961B43971075961B4397207596275397FE43EE107596275397FD53EEDFD3
:2012A000A80D080808860608E6C454F0CEC4CE6ECE54F0CE6EFF1818E6C4540F4EFE18869D
:2012C0000408E6C454F0CCC4CC6CCC54F0CC6CFDC004C005C006C00775820075833675F067
:2012E0006E7401129580AC82AD83AEF0FFE58124FCF5818CDC8D0474035CF5DE43DE0843E2
:20130000DE0443DD4053DDEF43DD2053DDFB43DD0853DDFD43DD0153DFE743E704E50D242E
:2013200005F88696D0E053E080E5E042A8D0E075820075830075F000850D81D00D22C0208C
:20134000C0E0C0F0C082C083C007C006C005C004C003C002C001C000C0D075D000C00D8575
:20136000810DE5812405F581E50D2404F87600C0E0C0A8C2AF53E1FBE5DF20E3030213D5F6
:20138000E50D2405F8A6E275DF17E50D2404FF7E007D40E50D2405FCA80D08A604087600F7
:2013A000087640900011E0FAA3E0FBA3E0FC7400C0E0C007C006C005A80D08E6C0E008E660
:2013C000C0E008E6C0E08A828B838CF012354DE58124F9F581E5DF20E0030213E075DF1E8E
:2013E000E5DF20E1030213EB75DF1DE5DF20E2030213F675DF1BE5DF20E40302145F75DFDD
:201400000FE50D2404FF7E007D40E50D2405FCA80D08A604087600087640900014E0FAA38E
:20142000E0FBA3E0FCC007C006C005A80D08E6C0E008E6C0E008E6C0E08A828B838CF012F9
:201440004067AF82E58124FAF581BF0102800302145CE50D2405F886E202145F750C01E5AC
:201460000D2404F8E6700302146D120FE5D0E053E080E5E042A8D0E0850D81D00DD0D0D03B
:2014800000D001D002D003D004D005D006D007D083D082D0F0D0E0D02032C00D85810DE584
:2014A0000D24FBF88605088606088607900011E0FAA3E0FBA3E0FCE50D24F9F8E6C0E00847
:2014C000E6C0E0C005C006C0078A828B838CF01237E9AF82E58124FBF581EF70030214E6E2
:2014E0007582010214E9758200D00D22C00D85810DC0E0C0A8C2AF7401B50C0280030215D4
:2015000013E50D24FDF886E2750C0075DF0F7F0102155AE50D24FDFE8E077D007C40900001
:2015200014E0FAA3E0FBA3E0FE7400C0E0E50D24FBF8E6C0E008E6C0E0C007C005C0048AB3
:20154000828B838EF0123250AE82E58124FAF5818E07EE600302155A7F01D0E053E080E5A0
:20156000E042A8D0E08F82D00D22227400C0E07403C0E07582141230A5AD82AE83AFF0158E
:20158000811581900017EDF0EEA3F0EFA3F02222C00D85810DC082C083058105810581E58D
:2015A0000D2403FD7C007B40900017E0FAA3E0FEA3E0FFA80D08E6C0E008E6C0E0C005C0E9
:2015C00004C0038A828E838FF01237E9AF82E58124FBF581BF010280030215ECE50D2403E9
:2015E000F886820886830886F00215F575820075830075F000850D81D00D22C00D85810D0A
:20160000C082E5812406F581758208758300122CC4AC82AD83AEF0E50D2405F8A60408A622
:201620000508A606E50D2405F8E6084670030217BE7403C0E07400C0E07582011230A5AAAC
:2016400082AB83AFF015811581E50D2405F886820886830886F0EA129236A3EB129236A396
:20166000EF129236E50D2405F886820886830886F0129823FEA3129823FDA3129823FCEA69
:201680004B70030216A37400C0E0C0E0C0E0C0E0C0E0C0E08E828D838CF0123250E58124E3
:2016A000FAF581E50D2405F886820886830886F0129823FAA3129823FBA3129823FFEA4B3A
:2016C00070030217BEE50D2405F8740326FA74000836FB088607758204758300C007C00357
:2016E000C002122CC4AC82AD83AEF0D002D003D0078A828B838FF0EC129236A3ED129236E5
:20170000A3EE1292368C828D838EF074FF129236A37400129236A3129236A3129236E50D98
:201720002405F8740626FD74000836FE0886078D828E838FF07400129236A3129236E50D4A
:201740002405F886040886050886067400C0E0C0E0C0E0C0E0C004C005C00674A7C0E07445
:2017600000C0E074D5C0E0749AC0E07480C0E075827B758319124A1DE58124F4F581E50DBC
:201780002405F886040886050886067400C0E0C0E0C0E0C0E0C004C005C00674A7C0E07405
:2017A00000C0E074DDC0E0749AC0E07480C0E075827B758319124A1DE58124F4F58175826F
:2017C00008758300122CC4AD82AE83AFF0A80D0808A60508A60608A607A80D0808E6084636
:2017E00070030219757403C0E07400C0E07582011230A5AA82AB83ACF015811581A80D08FD
:201800000886820886830886F0EA129236A3EB129236A3EC129236A80D08088682088683B6
:201820000886F0129823FFA3129823FEA3129823FDEA4B70030218557400C0E0C0E0C0E018
:20184000C0E0C0E0C0E08F828E838DF0123250E58124FAF581A80D0808868208868308860F
:20186000F0129823FAA3129823FBA3129823FCEA4B7003021975A80D0808740326FA7400D2
:201880000836FB088604758204758300C004C003C002122CC4AD82AE83AFF0D002D003D0CB
:2018A000048A828B838CF0ED129236A3EE129236A3EF1292368D828E838FF074FF12923604
:2018C000A3740F129236A37400129236A3129236A80D0808740626FD74000836FE088607F3
:2018E0008D828E838FF0740A129236A37400129236A80D08088605088606088607C0E0C027
:20190000E0C0E0A80D08E6C0E0C005C006C00774A7C0E07400C0E074E5C0E0749AC0E074C8
:2019200080C0E075827B758319124A1DE58124F4F581A80D080886050886060886077400AA
:20194000C0E0C0E0C0E0A80D08E6C0E0C005C006C00774A7C0E07400C0E074EDC0E0749A34
:20196000C0E07480C0E075827B758319124A1DE58124F4F581850D81D00D22C00D85810D51
:20198000E5812411F581AE82AC83ABF0E50D2410F87400F608F6C0E0C0A8C2AF900F9BE023
:2019A000FAA3E0FFE50D240BF8A60208A607900F9BE0FAA3E0FD900F9B74012AF074003D27
:2019C000A3F0D0E053E080E5E042A8D0E07582D275839A75F080C006C004C00312158FD09F
:2019E00003D004D006E50D240DF8A60608A60408A603E50D240DF8740326FB74000836FEAD
:201A00000886078B828E838FF0E50D2404F8129823F6A312982308F6A312982308F6E50DF1
:201A2000240DF8A90D09740626F77400083609F708E609F7A80D0886820886830886F01221
:201A40009823FEA3129823FFEE4F7003021A62E50D2407F876FF08760F740008F608F602A7
:201A60001A71E50D2407F876FF740008F608F608F6A80D0886820886830886F0129823FEC4
:201A8000A3129823FFE50D240DF886820886830886F0129823FBA3129823FCA3129823FD84
:201AA000C006C0078B828C838DF0123AA9AF8215811581BF01028003021C50E50D2404F8E9
:201AC00086820886830886F0129823FBA3129823FDA3129823FEA3129823FFE50D2407F848
:201AE000E6B5031208E6B5050D08E6B5060808E6B50703021B0C7582CF75839A75F08012AB
:201B0000158FE50D2410F876010876007B007E007D007F00E50D2407F8C3E69B08E69E082C
:201B2000E69D08E69F5003021B76E50D2404F886820886830886F0EB129236A3EE129236D6
:201B4000A3ED129236A3EF129236E50D2404F886820886830886F0129823A3129823A31214
:201B60009823A31298230BBB00090EBE00050DBD00010F021B14E50D240DF886820886835B
:201B80000886F0129823FDA3129823FEA3129823FF7400C0E0C0E0C0E0C0E0C0E0C0E08D5F
:201BA000828E838FF0123250AF82E58124FAF581EF6003021BCC7582CF75839A75F08012CA
:201BC000158FE50D2410F87601087600E50D2410F8E608466003021C1DE50D240BF88606B9
:201BE000088607C3EE9404EF648094804003021C1DE50D240BF8E625E0FE08E633FFEE246E
:201C000093FEEF340FFF8E828F83E0FCA3E0FD0CBC00010D8E828F83ECF0EDA3F0A80D0873
:201C200086820886830886F0129823FEA3129823FFC006C00775820A758300129281AE82F8
:201C4000AF83158115818E828F83125230021A71A80D0886820886830886F0129823FEA321
:201C6000129823FFEE4F6003021A71120FE5021A71850D81D00D227F017E00EE75F002A4CF
:201C8000FCADF0EC241AF582ED3400F583E0FAA3E0FBEC2493F582ED340FF583E0FCA3E0F8
:201CA000FDEAB50406EBB505028003021CB07F00EE75F002A4FCADF0EC241AFAED3400FB35
:201CC000EC2493F582ED340FF583E0FCA3E0FD8A828B83ECF0EDA3F00EBE04005003021C2F
:201CE0007B8F8222AF82C0077400C0E07402C0E075820A1230A5AC82AD83AEF01581158104
:201D0000D007900022ECF0EDA3F0EEA3F0EC4D7003021D8AC0077400C0E0C0E0C0E0C00726
:201D20007422C0E07400C0E07400C0E074A7C0E07400C0E0744CC0E0749BC0E07480C0E0D3
:201D400075825F75831E124A1DE58124F4F581D0077400C0E0C0E0C0E0C0077422C0E0740E
:201D600000C0E07400C0E074A7C0E07400C0E07454C0E0749BC0E07480C0E075828B7583BB
:201D80001D124A1DE58124F4F58122C00D85810DC082C083C0F0058105810581E50D2404D6
:201DA000F87400F608F67C00E50D2406F87600C004E50D2404FA7C007F40A80D088603085C
:201DC00086050886068B828D838EF0129823FBA3129823FDA3129823FEC0047400C0E0C00E
:201DE000E0C0E0C002C004C0078B828D838EF0123250AF82E58124FAF581D004BF0105D053
:201E000004021E0BD0047C01021E33EC6003021E28C0E0C0A8C2AF900F9EE004F0D0E053CB
:201E2000E080E5E042A8D0E0E50D2404F806B600020806E50D2406F806E50D2406F8C3E62E
:201E4000648094835003021DAF75820A758300C004125230D004021DA8850D81D00D22C0A8
:201E60000D85810DC082C083C0F00581058105817B007C00E50D2406F87600C003C004A8CB
:201E80000D0886020886060886078A828E838FF0129823FBA3129823FCA3129823FD8B8232
:201EA0008C838DF0C007C006C004C003C00212424AE582D002D003D004D006D007D004D0F1
:201EC000037003021F6DC003C004E50D2404FD8D037C007D408A828E838FF0129823FAA391
:201EE000129823FEA3129823FFC004C0037400C0E0C0E0C003C004C0058A828E838FF01273
:201F000037E9AF82E58124FBF581D003D004BF01028007D004D003021E7BD004D003E50DAA
:201F20002404F8E6B5030808E6B50403021F43E50D2406F87601E50D2404F8860308860415
:201F4000021F65E50D2406F8E66003021F65C0E0C0A8C2AF900F9DE004F0D0E053E080E547
:201F6000E042A8D0E00BBB00010C021E7B758208758300C004C003125230D003D004021EA0
:201F80007B850D81D00D22900F9DE07003021F99900F9EE06003021F9E7F00021FA07F016C
:201FA000900F9D7400F0900F9EF08F8222C00D85810DAF82E50D24F9F8900FA2E6F0C0072B
:201FC0007418C0E0E50D24FAF886820886830886F008E61212031581D0078F061EC00774C6
:201FE00000C0E0C0E0C0E0C006C0E0C0E0C0E074A7C0E07400C0E0745CC0E0749BC0E074F9
:2020000080C0E075824A758320124A1DE58124F4F581D0077400C0E0C0E0C0E0C007C0E048
:20202000C0E0C0E074A7C0E07400C0E07462C0E0749BC0E07480C0E07582F5758320124A78
:202040001DE58124F4F581D00D227F41900F9FE0FCA3E0FDA3E0FEC0077400C0E0C0E0C05A
:20206000078C828D838EF01214ECAE82158115811581D007BE0102800302208A900FA2E0D1
:20208000FE8E82C007120218D0070FC374589F400302204C900FA2E0FF7400C0E08F821223
:2020A000014E1581125949AE82AF8374032EFE74003FFF7D007C00740FC0E07400C0E0C0E0
:2020C000E0C0E08E828F838DF0EC1293C1AC82AD83AEF0FFE58124FCF581C3EC9405ED94CF
:2020E0000040030220EA7C057D008C828D8312523002204A22C00D85810DE5812405F5816E
:202100007F00A80D0876007B41C007E50D2405FCA80D0808A604087600087640900F9FE0AA
:20212000FDA3E0FEA3E0FFC004C00374FFC0E0C0E0A80D0808E6C0E008E6C0E008E6C0E0FE
:202140008D828E838FF012149AAF82E58124FBF581D003D004EFD007700302218AE50D2451
:2021600005F8E6B503028003022185900FA2E0FE0E8E82C007C004C003120218D003D00439
:20218000D00702218A7F0102219C0BC3745864808BF063F08095F04003022109900FA2E09B
:2021A000FE0EC007C0047400C0E08E8212014E1581D004D007BF0102800302220A8C06E5D8
:2021C0000D2405F8B658030222018E077C007B40C006900F9FE0FAA3E0FDA3E0FEC00674B6
:2021E000FFC0E0C0E0C007C004C0038A828D838EF012149AE58124FBF581D006D00602212E
:20220000BFA80D08067F00022107A80D08C3E6648094824003022107900FA3E004F002218D
:2022200007850D81D00D22900FA3E060030222357F000222377F01900FA37400F08F822274
:20224000AF827E00C007C0067400C0E0C0E0C0E0C007C0E0C0E0C0E074A7C0E07400C0E078
:202260007468C0E0749BC0E07480C0E075828C758322124A1DE58124F4F581D006D0070EDA
:20228000C3EE64809481500302224422C00D85810D058105810581C0E0C0A8C2AF900FA489
:2022A000E0FFA80D08A607E004F0D0E053E080E5E042A8D0E0A80D0886057E00C005C006EE
:2022C00075824D758301129281AD82AE8315811581744D2DFD74013EFE7C007B00740AC03F
:2022E000E07400C0E0C0E0C0E08D828E838CF0EB129580AB82AC83ADF0FEE58124FCF58109
:202300008B05ECC313CD13CDFEC006C005125949AB82AC83D005D006A80D0808A60308A65E
:2023200004E50D2402FC8C027B007F40C006C005C004C005C0068A828B838FF0125148158A
:20234000811581D004D005D006A80D088682C006C005C004120218D004D005D0067F007B2E
:2023600040C006C005C005C0068C828F838BF012514815811581D005D006A80D088682C065
:2023800006C005120218D005D006022321850D81D00D22C00D85810DAF82E50D24FDF89097
:2023A0000FA5E6F0C00712056FD007C00712029CD0077400C0E0C0E0C0E0C007C0E0C0E0C6
:2023C000C0E074A7C0E07400C0E0746DC0E0749BC0E07480C0E07582E8758323124A1DE572
:2023E0008124F4F581D00D229000257401F090002604F090002704F090002804F0900029FB
:2024000004F090002A04F0900FA5E0FF8F821202187406C0E07425C0E07400C0E07400C01F
:20242000E07582C012046AE58124FCF58175820A758300125230900001E0FF0F900025EFD9
:20244000F0900002E0FF0F900026EFF0900003E0FF0F900027EFF0900004E0FF0F90002826
:20246000EFF0900005E0FF0F900029EFF0900006E0FF0F90002AEFF00224072275820122DC
:20248000AF827D007E00ED24A6FBEE340FFC7A00C007C006C0057400C0E0C0E0C0E0C0074A
:2024A000C003C004C00274A7C0E07400C0E07476C0E0749BC0E07480C0E07582E77583243D
:2024C000124A1DE58124F4F581D005D006D0070DBD00010E8D038E04C3EB9401EC6480946B
:2024E00080500302248622C00D85810DE5812407F581AD82AE83AFF07B007C00E50D240543
:20250000F8A60508A60608A607C003C004A80D08767B740008F608F608F6A80D087447266E
:20252000F674940836F674030836F674000836F6A80D08E6C0E008E6C0E008E6C0E008E6C9
:20254000C0E07582FD7583FF75F0FF74FF12983FAA82AB83ACF0FFE58124FCF581A80D0882
:20256000A60208A60308A60408A607C0037407C0E07400C0E0C0E0C0E0A80D088682088616
:20258000830886F008E6129483AC82AD83AEF0FFE58124FCF581D003A80D08A60408A6053F
:2025A00008A60608A607A80D08B61B1308B6770F08B6FE0B08B6FF07D004D0030225C7D0DD
:2025C00004D0037B017C00EB4C6003022509C0E0C0A8C2AFE50D2405F8868208868308862F
:2025E000F07401129236D0E053E080E5E042A8D0E0022509850D81D00D227F017D007E001D
:20260000ED24A6FBEE340FFC8B828C83E060030226147F00ED24A6F582EE340FF583740076
:20262000F00DBD00010E8D038E04C3EB9401EC6480948050030226008F8222C00D85810DFA
:20264000C082C083C0F0058105810581A80D08740126FF74000836FB088602A80D08E50D70
:202660002404F9740426F77400083609F708E609F7E50D2404F886040886050886068F8230
:202680008B838AF0EC129236A3ED129236A3EE129236E50D2404F886820886830886F074FA
:2026A000FF129236A3129236E50D2404F8740226FF74000836FD088604E50D2404F886023C
:2026C0000886030886068F828D838CF0EA129236A3EB129236A3EE129236E50D2404F8741B
:2026E0000526FF74000836FD088604E50D2404F886020886030886068F828D838CF0EA1217
:202700009236A3EB129236A3EE129236A80D0886820886830886F07400129236850D81D099
:202720000D22AD82AE83AFF0740B2DFD74003EFE8D828E838FF07400129236A3129236A305
:2027400012923622C00D85810DC082C083C0F0E5812409F581A80D08740126FA740008365B
:20276000FB0886048A828B838CF0E50D240AF8129823F6A312982308F6A312982308F6E59A
:202780000D24FBF8860208860308860474022AFD74003BFE8C078D828E838FF0E50D240ACE
:2027A000F8E6129236A308E6129236A308E6129236E50D2404F874052AF674003B08F6082B
:2027C000A604E50D240AF8E50D2407F9740526F77400083609F708E609F7E50D2407F88650
:2027E000820886830886F0129823FDA3129823FEA3129823FFE50D2404F8868208868308EE
:2028000086F0ED129236A3EE129236A3EF129236E50D2407F886820886830886F01298232B
:20282000FDA3129823FEA3129823FF74022DFD74003EFE8D828E838FF0EA129236A3EB126B
:202840009236A3EC129236E50D2407F886820886830886F0EA129236A3EB129236A3EC12CE
:202860009236740B2AFA74003BFB8A828B838CF0A80D08E6129236A308E6129236A308E634
:20288000129236A80D0886820886830886F0129823FF0FA80D0886820886830886F0EF12DA
:2028A0009236850D81D00D22C00D85810DC082C083C0F0E581240BF581E50D24FBF886028D
:2028C0000886030886048A828B838CF0E50D240DF8129823F6A312982308F6E50D240DF8D8
:2028E000B6FF0608B6FF02800302292DC002C003C004A80D08740426FA74000836FB0886AA
:202900000474052AFA74003BFB8A828B838CF0E50D240AF8129823F6A312982308F6A312D8
:20292000982308F6D004D003D0020229B7A80D08740426FD74000836FE088607E50D240AC6
:20294000F8A60508A60608A607C002C003C004E50D240AF8740226FD74000836FE0886072C
:202960008D828E838FF0129823FAA3129823FBA3129823FC8A828B838CF0129823FAA31208
:202980009823FBE50D240DF8C3E69A08E69BD004D003D00250030229B78D828E838FF0E568
:2029A0000D240AF8129823F6A312982308F6A312982308F6022949E50D2407F874022AF626
:2029C00074003B08F608A604E50D240AF8E50D2404F9740226F77400083609F708E609F73A
:2029E000E50D2404F886820886830886F0129823FDA3129823FEA3129823FFE50D2407F872
:202A000086820886830886F0ED129236A3EE129236A3EF12923674052DFD74003EFE8D821F
:202A20008E838FF0EA129236A3EB129236A3EC12923674052AFD74003BFE8C078D828E8371
:202A40008FF0E50D240AF8E6129236A308E6129236A308E6129236E50D2404F886820886A1
:202A6000830886F0EA129236A3EB129236A3EC129236740B2AFA74003BFB8A828B838CF0DD
:202A8000A80D08E6129236A308E6129236A308E6129236A80D0886820886830886F01298E5
:202AA00023FF0FA80D0886820886830886F0EF129236850D81D00D22C00D85810DE581244C
:202AC0000FF581C8E50D240AC8A68208A68308A6F0E50D240AF8740B26FA74000836FB085E
:202AE00086048A828B838CF0E50D240DF8129823F6A312982308F6A312982308F6E50D24E6
:202B00000AF8E50D2407F9740226F77400083609F708E609F7E50D2407F886820886830834
:202B200086F0129823FDA3129823FEA3129823FFE50D2404F874052DF674003E08F608A66C
:202B400007E50D240AF8A90D09740526F77400083609F708E609F7A80D0886820886830883
:202B600086F0129823FDA3129823FEA3129823FFE50D2404F886820886830886F0ED1292FE
:202B800036A3EE129236A3EF129236A80D0886820886830886F0129823FDA3129823FEA3F9
:202BA000129823FFE50D2404F874022DF674003E08F608A607E50D2407F886820886830803
:202BC00086F0129823FDA3129823FEA3129823FFE50D2404F886820886830886F0ED12929E
:202BE00036A3EE129236A3EF129236E50D240DF8E50D2404F9740126F77400083609F7084E
:202C0000E609F7E50D2404F886820886830886F0129823FDA3129823FEA3129823FFE50D8C
:202C2000240AF8C005C006C00786820886830886F012009115811581158170028003022CFD
:202C400075A80D0886820886830886F0129823FDA3129823FEA3129823FFE50D2404F8866C
:202C6000820886830886F0ED129236A3EE129236A3EF1292368A828B838CF07400129236C1
:202C8000A3129236A3129236E50D240DF886820886830886F0129823FF1FE50D240DF886FC
:202CA000820886830886F0EF129236E50D240DF886820886830886F0129823FF8F82850D19
:202CC00081D00D22C00D85810DC082C083058105810581E50D2403F87400F608F608760086
:202CE0001252D4900F35E0F5F0A3E045F06003022D057A357D007E007F00900F35EAF0EDF0
:202D0000A3F0EEA3F0A80D08E608467003022D6E900FA7E0FEA3E0FFA80D08E62EFC08E63D
:202D20003FFDC3EC94FFED940E4003022D6EA80D08E62EFC08E63FFDC3EE9CEF9D40030291
:202D40002D6E900F35E0FBA3E0FCA3E0FDEE2BFBEF3CFCE50D2403F8A60308A60408A605D0
:202D6000A80D08900FA7E62EF008E63FA3F01252DCE50D2403F886820886830886F0850D12
:202D800081D00D2222900FA77400F0A3F022900FA7E0FEA3E0FF74FFC39EFE740E9FFF8E0C
:202DA000828F8322C00D85810DC082C083C0F0E581240AF581E50D240DF87601A80D08E609
:202DC00008467003023091A80D08742526FA74000836FB0886048A828B838CF0129823FF58
:202DE000BF01005003023091C002C003C0048F037C00C002C003C0047582FF7583FF1291CD
:202E0000EAAB82AC8315811581D002A80D08E50D2404F9742626F77400083609F708E6093E
:202E2000F7E50D2404F886820886830886F0129823FA7F00C3EB9AEC9FD004D003D0025010
:202E400003023091C0E0C0A8C2AFA80D08E50D2407F9740626F77400083609F708E609F729
:202E6000A80D0886820886830886F0E50D240AF9129823F7A312982309F7A312982309F741
:202E80008A828B838CF0129823FFE50D2404F886820886830886F0129823FE8FF0EEA4C883
:202EA000E50D240AC826FD08E635F0FE088607E50D2407F886820886830886F0ED129236EE
:202EC000A3EE129236A3EF129236A80D08742426FD74000836FE0886078D828E838FF0744B
:202EE00000129236A80D08E50D240AF9740326F77400083609F708E609F7A80D0886820821
:202F000086830886F0129823FDA3129823FEA3129823FFE50D240AF886820886830886F0D4
:202F2000ED129236A3EE129236A3EF129236E50D2407F8E50D240AF9740326F7740008367F
:202F400009F708E609F7A80D0886820886830886F0129823FDA3129823FEA3129823FF8AFE
:202F6000828B838CF0129823FA7C00E50D2407F8EA24FFF6EC34FF08F6E50D2404F88682B3
:202F80000886830886F0129823FB7C00C007C006C005C003C004E50D2407F8868208868357
:202FA000129281AB82AC8315811581D005D006D007EB2DFDEC3EFEE50D240AF886820886F7
:202FC000830886F0ED129236A3EE129236A3EF129236A80D08742726FD74000836FE088699
:202FE000078D828E838FF074FF129236A80D08742826FD74000836FE0886078D828E838F6E
:20300000F074FF129236E50D24FDF8E66003023053A80D08740C26FD74000836FE088607F5
:203020008D828E838FF01298237003023083A80D08740C26FD74000836FE0886078D828EBA
:20304000838FF0126553E5827003023083120FE5023083A80D08740C26FD74000836FE0842
:2030600086078D828E838FF012263BA80D08741826FD74000836FE0886078D828E838FF061
:2030800012263BD0E053E080E5E042A8D0E0023098E50D240DF87600E50D240DF8868285F8
:2030A0000D81D00D22C00D85810DC0827C007D007E00A80D08E67003023183C004C005C0D5
:2030C00006A80D0886027B00C006C005C004C002C0037582FF7583FF1291EAAA82AB83156D
:2030E000811581D004D005D006E50D24FDF886057E00C3EA9DEB9ED006D005D0045003027F
:203100003183A80D08E50D24FDF986F0E7A4FAABF0C374D69A74FF9B500302318374292A17
:20312000FA74003BFB8A828B83122CC4AA82AB83AFF08A048B058F06EC4D70030231838C35
:20314000028D038E0774292AFA74003BFBC006C005C004C004C005C006E50D24FCF8E6C08F
:20316000E0C002C003C007E50D24FDF8E6C0E0A80D08868212318EE58124F8F581D004D060
:2031800005D0068C828D838EF01581D00D22C00D85810DC082E50D24FDF8E660030231D1A9
:2031A000E50D24F6F88604088605088606E50D24F6F886020886030886078C828D838EF00C
:2031C000EA129236A3EB129236A3EF1292360231FFE50D24F6F88604088605088606E50D7E
:2031E00024FAF886020886030886078C828D838EF0EA129236A3EB129236A3EF129236E5F2
:203200000D24F6F8860508860608860774252DFA74003EFB8F048A828B838CF0A80D08E6A2
:2032200012923674262DFA74003EFB8F048A828B838CF0E50D24FDF8E61292367401C0E03D
:203240008D828E838FF0122DA415811581D00D22C00D85810DE5812411F581AD82AB83ACC7
:20326000F0E50D240BF87600E50D240CF8A60508A60308A604E50D24F8F8B60204740180F0
:20328000027400FFE50D240FFEA80D08A606E50D2405F874242DF674003B08F608A604A858
:2032A0000D080874252DF674003B08F608A604C0E0C0A8C2AFE50D2405F886820886830829
:2032C00086F0129823FDA80D080886820886830886F0129823FCC3ED9C50030232E4EF7073
:2032E00003023376E50D24F8F8E6C0E0E50D24FBF8E6C0E008E6C0E008E6C0E0E50D240CC7
:20330000F886820886830886F01242E5AC82E58124FCF5818C07E50D240CF8741826FA74EE
:20332000000836FB0886048A828B838CF0129823700302335CE50D240CF8741826FA740021
:203340000836FB0886048A828B838CF0126553E5827003023365120FE5023365EF700302CA
:203360003365120FE5D0E053E080E5E042A8D0E0758201023547E50D24F9F8E608466003D9
:20338000023394D0E053E080E5E042A8D0E0758200023547E50D240BF8E660030233BD8E4B
:2033A000027B007C408A828B838CF0C007C006127347D006D007E50D240BF87601D0E053A5
:2033C000E080E5E042A8D0E0C007C0061252D4D006D007C0E0C0A8C2AFE50D240CF874278E
:2033E00026FA74000836FB0886048A828B838CF0129823FDBDFF0280030234078A828B8376
:203400008CF07400129236E50D240CF8742826FA74000836FB0886048A828B838CF012988D
:2034200023FDBDFF0280030234358A828B838CF07400129236C007D0E053E080E5E042A803
:20344000D0E0E50D24F9FCE50D2408F8A604087600087640A80D0886047D007F40C006E587
:203460000D2408F8E6C0E008E6C0E008E6C0E08C828D838FF0127379AF82158115811581EB
:20348000D006EFD0076003023531E50D240CF886820886830886F0C007C00612498EE58237
:2034A000D006D007700302350BE50D240CF8740C26FB74000836FC088605C007C006E50D2F
:2034C00024F9F8E6C0E008E6C0E08B828C838DF012632F15811581D006D007E50D240CF893
:2034E00086820886830886F0C007C006124799D006D007C007C0061252DCE582D006D00728
:2035000060030232AF120FE50232AFE50D240CF886820886830886F0C007C006124799D07C
:2035200006D007C007C0061252DCD006D0070232AFE50D240CF886820886830886F0124747
:20354000991252DC758200850D81D00D22C00D85810D058105810581AA82AB83ACF0A80D6C
:2035600008A60208A60308A60474242AFD74003BFE8C078D828E838FF0129823FD74252A0D
:20358000FC74003BFE8C078C828E838FF0129823FCC3ED9C50030235A6E50D24F7F8B6024F
:2035A0000280030236A5A80D08742826FD74000836FE0886078D828E838FF0129823FFA8D5
:2035C0000D08742426FC74000836FD0886068C828D838EF0129823C007E50D24F7F8E6C0FE
:2035E000E0E50D24FBF8E6C0E008E6C0E008E6C0E0A80D0886820886830886F01242E5E5CE
:203600008124FCF581D007BFFF028003023673A80D08741826FC74000836FD0886068C8212
:203620008D838EF012982370030236A0A80D08741826FC74000836FD0886068C828D838E8A
:20364000F0126553E58270030236A0E50D24F8F8E6084670030236A0E50D24F8F8860408E1
:2036600086050886068C828D838EF074011292360236A0C007125974AE82D0078F05C3ED77
:203680009E40030236A0A80D08742826FC74000836FD0886060F8C828D838EF0EF1292363F
:2036A0007F010236A77F008F82850D81D00D22C00D85810DE5812407F581C8E50D2404C878
:2036C000A68208A68308A6F0E50D2404F8742426FA74000836FB0886048A828B838CF0E56F
:2036E0000D2407F8129823F6E50D2404F8742526FD74000836FE0886078D828E838FF01213
:203700009823FDE50D2407F8C3E69D40030237DFE50D2404F8A90D09742826F774000836FF
:2037200009F708E609F7A80D0886820886830886F0129823FFE50D2407F8E604FE8A828BE7
:20374000838CF0EE129236BFFF0280030237B7E50D2404F8741826FC74000836FD0886066C
:203760008C828D838EF012982370030237DAE50D2404F8741826FC74000836FD0886068CCB
:20378000828D838EF0126553E58270030237DAE50D24FBF8E6084670030237DAE50D24FB8E
:2037A000F886040886050886068C828D838EF074011292360237DAC007125974AE82D007B5
:2037C0008F05C3ED9E40030237DA0FA80D0886820886830886F0EF1292367F010237E17F6C
:2037E000008F82850D81D00D22C00D85810DE581240BF581AC82AD83AFF0E50D2405F87635
:2038000000E50D2409F8A60408A60508A607E50D2406FEA80D08A606A80D080874242CF67D
:2038200074003D08F608A607C0E0C0A8C2AFA80D080886820886830886F0129823FC8C05F5
:20384000EC70030238E2C005E50D24FBF8E6C0E008E6C0E008E6C0E0E50D2409F886820856
:2038600086830886F012463F158115811581D005E50D2409F8742426FB74000836FC088687
:2038800007ED14FA8B828C838FF0EA129236E50D2409F8740C26FB74000836FC0886078B41
:2038A000828C838FF012982370030238D1E50D2409F8740C26FB74000836FC0886078B82A5
:2038C0008C838FF0126553E58270030238D1120FE5D0E053E080E5E042A8D0E075820102E9
:2038E0003AA3E50D24F9F8E608466003023900D0E053E080E5E042A8D0E0758200023AA37A
:20390000E50D2405F8E660030239258E037C007F408B828C838FF0C006127347D006E50D2A
:203920002405F87601D0E053E080E5E042A8D0E0C0061252D4D006C0E0C0A8C2AFE50D24CA
:2039400009F8742726FB74000836FC0886078B828C838FF0129823FABAFF02800302396B21
:203960008B828C838FF07400129236E50D2409F8742826FB74000836FC0886078B828C832B
:203980008FF0129823FABAFF0280030239998B828C838FF07400129236C006D0E053E080BD
:2039A000E5E042A8D0E0E50D24F9FF7C007B40A80D0886027D007E40C006C007C004C003CF
:2039C0008A828D838EF0127379AF82158115811581D006D006EF6003023A6AE50D2409F8A1
:2039E00086820886830886F0C006124931E582D0067003023A4CE50D2409F8741826FC746D
:203A0000000836FD088607C006E50D24F9F8E6C0E008E6C0E08C828D838FF012632F15811E
:203A20001581D006E50D2409F886820886830886F0C006124799D006C0061252DCE582D0A1
:203A4000066003023828120FE5023828E50D2409F886820886830886F0C006124799D006F7
:203A6000C0061252DCD006023828E50D2409F886820886830886F0C006124799D006C00606
:203A80001252DCD006E50D2409F886820886830886F0C006124931E582D0067003023828FE
:203AA000758200850D81D00D22C00D85810DE581240BF581AC82AD83AFF0E50D240BF87686
:203AC00000E50D2405F8A60408A60508A607E50D2408FEE50D2404F8A606A80D0874242C66
:203AE000F674003D08F608A607C0E0C0A8C2AFA80D0886820886830886F0129823FC8C0743
:203B0000EC7003023B6CEF14FCA80D0886820886830886F0EC129236E50D2405F8740C26CB
:203B2000FB74000836FC0886078B828C838FF01298237003023B5BE50D2405F8740C26FB20
:203B400074000836FC0886078B828C838FF0126553E5827003023B5B120FE5D0E053E080E2
:203B6000E5E042A8D0E0758201023D2FE50D24FCF8E608466003023B8AD0E053E080E5E0F0
:203B800042A8D0E0758200023D2FE50D240BF8E66003023BAF8E037C007F408B828C838F61
:203BA000F0C006127347D006E50D240BF87601D0E053E080E5E042A8D0E0C0061252D4D08D
:203BC00006C0E0C0A8C2AFE50D2405F8742726FB74000836FC0886078B828C838FF012980F
:203BE00023FABAFF028003023BF58B828C838FF07400129236E50D2405F8742826FB74000B
:203C00000836FC0886078B828C838FF0129823FABAFF028003023C238B828C838FF07400C5
:203C2000129236C006D0E053E080E5E042A8D0E0E50D24FCFF7C007B40E50D2404F8860240
:203C40007D007E40C006C007C004C0038A828D838EF0127379AF82158115811581D006D0E4
:203C600006EF6003023CF6E50D2405F886820886830886F0C006124931E582D0067003020A
:203C80003CD8E50D2405F8741826FC74000836FD088607C006E50D24FCF8E6C0E008E6C007
:203CA000E08C828D838FF012632F15811581D006E50D2405F886820886830886F0C006125F
:203CC0004799D006C0061252DCE582D0066003023AE9120FE5023AE9E50D2405F886820815
:203CE00086830886F0C006124799D006C0061252DCD006023AE9E50D2405F8868208868382
:203D00000886F0C006124799D006C0061252DCD006E50D2405F886820886830886F0C0064B
:203D2000124931E582D0067003023AE9758200850D81D00D22C00D85810DE581240DF5812C
:203D4000AD82AB83AFF07C00E50D2408F8A60508A60308A607E50D240BFEE50D2404F8A6ED
:203D600006A80D0874242DF674003B08F608A607C0E0C0A8C2AFA80D088682088683088686
:203D8000F01298237003023E69E50D2408F8740626FA74000836FB08860774032AFA740049
:203DA0003BFB8A828B838FF0129823FEA3129823FDA3129823FCC006C005C004E50D24FB30
:203DC000F8E6C0E008E6C0E008E6C0E0E50D2408F886820886830886F012463F15811581D9
:203DE0001581D004D005D006E50D2408F8740626FA74000836FB08860774032AFA74003B72
:203E0000FB8A828B838FF0EE129236A3ED129236A3EC129236E50D2408F8741826FA74003D
:203E20000836FB0886078A828B838FF01298237003023E58E50D2408F8741826FA74000805
:203E400036FB0886078A828B838FF0126553E5827003023E58120FE5D0E053E080E5E04257
:203E6000A8D0E0758201024061E50D24F9F8E608466003023E87D0E053E080E5E042A8D008
:203E8000E0758200024061EC6003023EA28E027B007F408A828B838FF0C006127347D006AC
:203EA0007C01D0E053E080E5E042A8D0E0C006C0041252D4D004D006C0E0C0A8C2AFE50DEC
:203EC0002408F8742726FA74000836FB0886078A828B838FF0129823FDBDFF028003023EDD
:203EE000EC8A828B838FF07400129236E50D2408F8742826FA74000836FB0886078A828B44
:203F0000838FF0129823FDBDFF028003023F1A8A828B838FF07400129236C004D0E053E0AB
:203F200080E5E042A8D0E0E50D24F9FFE50D2405F8A607087600087640E50D2404F88604FC
:203F40007D007F40C006C004E50D2405F8E6C0E008E6C0E008E6C0E08C828D838FF01273C4
:203F600079AF82158115811581D004D006D004EF600302401CE50D2408F886820886830870
:203F800086F0C006C004124931E582D004D0067003023FF6E50D2408F8741826FB7400089B
:203FA00036FD088607C006C004E50D24F9F8E6C0E008E6C0E08B828D838FF012632F1581BE
:203FC0001581D004D006E50D2408F886820886830886F0C006C004124799D004D006C00608
:203FE000C0041252DCE582D004D0066003023D70120FE5023D70E50D2408F88682088683B6
:204000000886F0C006C004124799D004D006C006C0041252DCD004D006023D70E50D2408BB
:20402000F886820886830886F0C006C004124799D004D006C006C0041252DCD004D006E572
:204040000D2408F886820886830886F0C006C004124931E582D004D0067003023D70758258
:2040600000850D81D00D22C00D85810DC082C083C0F0A80D08742426FA74000836FB088669
:20408000048A828B838CF0129823FA8A04EA7003024190A80D08742726FA74000836FB08D4
:2040A00086078A828B838FF0129823FFC007C004E50D24FBF8E6C0E008E6C0E008E6C0E0D8
:2040C000A80D0886820886830886F012463F158115811581D004D007A80D08742426FB749E
:2040E000000836FD0886061C8B828D838EF0EC129236BFFF02800302415EA80D08740C262D
:20410000FC74000836FD0886068C828D838EF0129823700302418BA80D08740C26FC7400E3
:204120000836FD0886068C828D838EF0126553E582700302418BE50D24F8F8E608467003F5
:2041400002418BE50D24F8F886040886050886068C828D838EF0740112923602418BC0075A
:20416000125974AE82D0078F05C3ED9E400302418BA80D08742726FC74000836FD088606A9
:204180000F8C828D838EF0EF1292367F010241927F008F82850D81D00D22C00D85810DAD27
:2041A00082AE83AFF074242DFA74003EFB8F048A828B838CF0129823700302424374062DAA
:2041C000FA74003EFB8F0474032AFA74003BFB8A828B838CF0129823FAA3129823FBA312E3
:2041E0009823FCC007C006C005C004C003C002E50D24FBF8E6C0E008E6C0E008E6C0E08D35
:20420000828E838FF012463F158115811581D002D003D004D005D006D00774062DFD740020
:204220003EFE74032DFD74003EFE8D828E838FF0EA129236A3EB129236A3EC1292367F013D
:204240000242457F008F82D00D22AD82AE83AFF0C0E0C0A8C2AF74242DFD74003EFE8D824D
:204260008E838FF0129823FDD0E053E080E5E042A8D0E08D8222AD82AE83AFF0C0E0C0A8EA
:20428000C2AF74252DFA74003EFB8F048A828B838CF0129823FA74242DFD74003EFE8D82CF
:2042A0008E838FF0129823FDEAC39DFAD0E053E080E5E042A8D0E08A8222AD82AE83AFF071
:2042C00074242DFD74003EFE8D828E838FF0129823FD8D8222AD82AE83AFF08D828E838F24
:2042E000F0122D8422C00D85810DC082C083C0F0E581240AF581A80D08742426FA740008D9
:2043000036FB0886048A828B838CF0E50D240DF8129823F6A80D08E50D2407F9742626F7DC
:204320007400083609F708E609F7E50D2407F886820886830886F0129823FEEE70030246BD
:2043400024E50D24FAF8E660030244A1C002C003C0048E047D00A80D08E50D2404F9740362
:2043600026F77400083609F708E609F7E50D2404F886820886830886F0129823FAA31298C3
:2043800023FBA3129823FFC004C003C002C004C005E50D24FBF8E6C0E008E6C0E008E6C0F3
:2043A000E08A828B838FF012960AE58124FBF581D002D003D004E50D2404F8868208868333
:2043C0000886F0129823FCA3129823FDA3129823FFE50D2407F886820886830886F0129864
:2043E00023FBE50D240AF8EB2CF674003D08F608A607E50D2404F886820886830886F0E588
:204400000D240AF9E7129236A309E7129236A309E7129236A80D08740626FA74000836FBC9
:204420000886078A828B838FF0129823FAA3129823FBA3129823FFE50D240AF8C002C00310
:20444000C00786820886830886F0120091158115811581D004D003D0025003024624C0029F
:20446000C003C004A80D0886820886830886F0129823FCA3129823FDA3129823FFE50D24A6
:2044800004F886820886830886F0EC129236A3ED129236A3EF129236D004D003D00202462C
:2044A00024C002C003C0047F00A80D08E50D240AF9740626F77400083609F708E609F7E51E
:2044C0000D240AF8E50D2404F9740326F77400083609F708E609F7E50D2404F886820886BA
:2044E000830886F0129823FBA3129823FCA3129823FDC004C003C002C006C007E50D24FB33
:20450000F8E6C0E008E6C0E008E6C0E08B828C838DF012960AE58124FBF581D002D003D046
:2045200004E50D2404F886820886830886F0129823FDA3129823FEA3129823FFE50D24070A
:20454000F886820886830886F0129823FC7B00EDC39CFDEE9BFEE50D2404F886820886838D
:204560000886F0ED129236A3EE129236A3EF129236A80D0886820886830886F0129823FA04
:20458000A3129823FBA3129823FCC002C003C0048D828E838FF0120091158115811581D027
:2045A00004D003D0024003024606C002C003C004E50D240AF886820886830886F0129823FC
:2045C000FDA3129823FEA3129823FFE50D2407F886820886830886F0129823FC7B00EDC361
:2045E0009CFDEE9BFEE50D2404F886820886830886F0ED129236A3EE129236A3EF12923654
:20460000D004D003D002E50D24FAF8B602028003024624E50D240DF8E67003024624E50D9E
:20462000240DF816E50D240DF8E604FF8A828B838CF0EF129236758200850D81D00D22C00F
:204640000D85810DE5812407F581C8E50D2405C8A68208A68308A6F0E50D2405F8742626BE
:20466000FA74000836FB0886048A828B838CF0A80D08129823F6A80D08E67003024793C039
:2046800002C003C004E50D2405F8740626FA74000836FB088604A80D080874032AF67400D5
:2046A0003B08F608A604A80D080886820886830886F0129823FDA3129823FEA3129823FF0C
:2046C000A80D08E62DFD74003EFEA80D080886820886830886F0ED129236A3EE129236A32C
:2046E000EF1292368A828B838CF0129823FAA3129823FBA3129823FCC002C003C0048D8265
:204700008E838FF0120091158115811581D004D003D002500302474DE50D2405F88682081F
:2047200086830886F0129823FDA3129823FEA3129823FFA80D080886820886830886F0ED02
:20474000129236A3EE129236A3EF1292368A828B838CF0129823FA7F00A80D0808868208F7
:2047600086830886F0129823FCA3129823FDA3129823FEC002C007C004C005C006E50D2420
:20478000FBF886820886830886F012960AE58124FBF581850D81D00D22C00D85810DC082AE
:2047A000C083C0F0E5812404F581C0E0C0A8C2AFA80D08742826FA74000836FB0886048A47
:2047C000828B838CF0E50D2407F8129823F6A80D08E50D2404F9741826F77400083609F7CA
:2047E00008E609F7E50D2407F8C37400648086F063F08095F04003024852E50D2404F88656
:20480000820886830886F01298237003024852A80D08741826FD74000836FE0886078D82EB
:204820008E838FF0C004C003C002126553E582D002D003D0047003024849C004C003C002A6
:204840001274A7D002D003D004E50D2407F8160247E48A828B838CF074FF129236D0E05374
:20486000E080E5E042A8D0E0C0E0C0A8C2AFA80D08742726FD74000836FE0886078D828EA3
:20488000838FF0129823FCA80D08E50D2404F9740C26F77400083609F708E609F7C3740009
:2048A00064808CF063F08095F04003024915E50D2404F886820886830886F01298237003B4
:2048C000024915C005C006C007A80D08740C26FA74000836FB0886078A828B838FF0C00727
:2048E000C006C005C004126553E582D004D005D006D007D007D006D0057003024911C007CA
:20490000C006C005C0041274A7D004D005D006D0071C02489D8D828E838FF074FF129236D6
:20492000D0E053E080E5E042A8D0E0850D81D00D22AD82AE83AFF0C0E0C0A8C2AF74242D66
:20494000FD74003EFE8D828E838FF012982360030249587F0102495A7F00D0E053E080E54C
:20496000E042A8D0E08F8222AD82AE83AFF074242DFD74003EFE8D828E838FF0129823604D
:20498000030249897F0102498B7F008F8222AD82AE83AFF0C0E0C0A8C2AF74242DFA74008D
:2049A0003EFB8F048A828B838CF0129823FA74252DFD74003EFE8D828E838FF0129823FDF2
:2049C000EAB5050280030249CE7F010249D07F00D0E053E080E5E042A8D0E08F8222AD8257
:2049E000AE83AFF074242DFA74003EFB8F048A828B838CF0129823FA74252DFD74003EFE18
:204A00008D828E838FF0129823FDEAB505028003024A187F01024A1A7F008F8222C00D85B6
:204A2000810D058105810581AE82AF83758233758300C007C006122CC4AB82AC83ADF0D07A
:204A400006D007A80D08A60308A60408A605A80D08E608467003024B01C006C007A80D08B2
:204A60008602088606088607C007C0067433C0E07400C0E0C0E08A828E838FF012969D1507
:204A80008115811581D006D007A80D08742026FA74000836FE088607E50D24F9F88604086D
:204AA00086058C828D83C007C006C002122CC4AB82AC83ADF0D002D006D0078A828E838FD8
:204AC000F0EB129236A3EC129236A3ED129236D007D006EB4C6003024B01A80D088603086B
:204AE00086040886058B828C838DF0C007C006122D84D006D007A80D087400F608F6087660
:204B000000A80D08E608467003024B90E50D24F9F886020886037C007D007400C0E0C0E087
:204B2000C0E0A80D08E6C0E008E6C0E008E6C0E0E50D24F2F8E6C0E008E6C0E008E6C0E0D4
:204B4000E50D24F5F8E6C0E0E50D24F6F8E6C0E008E6C0E008E6C0E0C002C003C004C00518
:204B6000E50D24FBF8E6C0E008E6C0E008E6C0E08E828F83124B9AE58124ECF581A80D08C8
:204B800086820886830886F0124E7C7F01024B927FFF8F82850D81D00D22C00D85810DC002
:204BA00082C083E581240CF581E50D24EDF8E50D2409F9E6F708E609F708E609F7E50D2442
:204BC00009F8742026FA74000836FE0886078A828E838FF0E50D240CF8129823F6A3129815
:204BE0002308F6A312982308F6E50D240CF8E50D2403F9E6F708E609F708E609F7E50D242B
:204C000009F8E50D2406F9742B26F77400083609F708E609F7E50D24F7F8E624FFFA08E62C
:204C200034FFFE08E634FFFD08E634FFFFE50D240CF8EA26FAEE0836FE088605E50D240608
:204C4000F886820886830886F0EA129236A3EE129236A3ED129236E50D24FBF8E60846707F
:204C600003024CF1E50D2409F8742326FD74000836FE0886077B00E50D2406F8EB2DF674CB
:204C8000003E08F608A607C005C006C007E50D24FBF8EB26FD74000836FE0886078D828ED8
:204CA000838FF0129823FCE50D2406F886820886830886F0EC1292368D828E838FF012986F
:204CC00023D007D006D0057003024CD50BBB08005003024C77E50D2409F8742A26FD740067
:204CE0000836FE0886078D828E838FF07400129236E50D24F3F8B604005003024D05E50DA2
:204D000024F3F87603E50D2409F8741F26FD74000836FE0886078D828E838FF0E50D24F351
:204D2000F8E6129236E50D2409F8740326FD74000836FE0886078D828E838FF0122722E5E6
:204D40000D2409F8741126FD74000836FE0886078D828E838FF0122722E50D2409F8740BA4
:204D600026FD74000836FE088607E50D24EDF886020886030886048D828E838FF0EA1292F8
:204D800036A3EB129236A3EC129236E50D2409F8E50D2406F9741126F77400083609F70884
:204DA000E609F7E50D24F3F886077E007404C39FFF74009EFEE50D2406F8868208868308E3
:204DC00086F0EF129236A3EE129236E50D2409F8741926FD74000836FE0886078D828E83FD
:204DE0008FF0EA129236A3EB129236A3EC129236E50D24F4F8E6C0E008E6C0E008E6C0E0FB
:204E0000A80D08E6C0E008E6C0E0E50D2403F886820886830886F0120D6DAF82AE83ADF08E
:204E2000E58124FBF581E50D2409F886820886830886F0EF129236A3EE129236A3ED129261
:204E400036E50D24F0F8E608467003024E76E50D24F0F886050886060886078D828E838F50
:204E6000F0E50D2409F8E6129236A308E6129236A308E6129236850D81D00D22C00D8581B0
:204E80000DC082C083C0F0E581240CF581C0E0C0A8C2AF900FACE004F0900FA9E0FAA3E087
:204EA000FBA3E0FCEA4B6003024ECEA80D08900FA9E6F008E6A3F008E6A3F0900FACE0FCBE
:204EC000BC01028003024F251274C6024F25900FB0E06003024F25900FA9E0FAA3E0FBA30D
:204EE000E0FC741F2AFA74003BFB8A828B838CF0129823FAA80D08741F26FB74000836FCF9
:204F00000886078B828C838FF0129823FBC3EB9A5003024F25A80D08900FA9E6F008E6A31C
:204F2000F008E6A3F0900FB5E02401F0A80D08741F26FD74000836FE0886078D828E838F50
:204F4000F0129823FC900FAFE0FBC3EB9C4003024F57900FAFECF08D828E838FF0129823A4
:204F6000FCEC75F00CA42438FB740F35F0FC8B828C83A3E50D240DF8E0F6A3E008F6A3E085
:204F800008F6A80D08E50D240AF9740326F77400083609F708E609F7E50D240AF874022655
:204FA000FA74000836FB0886048A828B838CF0E50D240DF8E6129236A308E6129236A30831
:204FC000E6129236E50D240AF8E50D2407F9740526F77400083609F708E609F7E50D240D8A
:204FE000F8E50D2404F9740526F77400083609F708E609F7E50D2404F886820886830886B7
:20500000F0129823FAA3129823FBA3129823FCE50D2407F886820886830886F0EA12923692
:20502000A3EB129236A3EC129236E50D2404F886820886830886F0129823FAA3129823FBC4
:20504000A3129823FC74022AFA74003BFB8A828B838CF0E50D240AF8E6129236A308E6128F
:205060009236A308E6129236E50D2404F886820886830886F0E50D240AF9E7129236A309CE
:20508000E7129236A309E7129236E50D240AF8E50D2404F9740B26F77400083609F708E67B
:2050A00009F78D828E838FF0129823FCEC75F00CA42438FC740F35F0FB8C027C00E50D246C
:2050C00004F886820886830886F0EA129236A3EB129236A3EC1292368D828E838FF012985F
:2050E00023FCEC75F00CA42438FB740F35F0FC8B828C83E0FA0A8B828C83EAF0D0E053E0BC
:2051000080E5E042A8D0E0900FB0E07003025142900FA9E0FAA3E0FBA3E0FC741F2AFA742F
:20512000003BFB8A828B838CF0129823FA8D828E838FF0129823FDC3EA9D4003025142123F
:205140000FE5850D81D00D22C00D85810DC082C083C0F0058105817E00C0061252D4D006D6
:20516000900FADE0FAA3E0FBE50D2404F8A60208A603A80D0886820886830886F0129823FF
:20518000FBA3129823FCE50D24FCF8E62BFD08E63CFF8D02E50D2404F8C3E69B08E69C40B8
:2051A000030251C3C3EA9BEF9C40030251DFE50D2404F8C3E69A08E69F40030251DF7E01B8
:2051C0000251DFC3EA9BEF9C50030251DDE50D2404F8C3E69A08E69F40030251DF7E01A8C9
:2051E0000D0886820886830886F0EA129236A3EF129236EE7003025217E50D2404F8EAC348
:2052000096FAEF0896FFC0067400C0E08A828F831290BE1581D006C0061252DCE582D0066B
:205220006003025228120FE58E82850D81D00D22AE82AF837D00EE4F700302525CC007C0A1
:20524000061252D4D006D0077400C0E08E828F831290BE15811252DCAF828F05ED600302E0
:205260005265120FE52274B8C0E0740FC0E07400C0E0C0E0C0E0C0E0C0E074A7C0E074009D
:20528000C0E0747FC0E0749BC0E07480C0E07582AE758374124A1DAF82E58124F4F581BF2A
:2052A000010280030252C2C2AF900FB674FFF0A3F0900FB07401F0900FAD7400F0A3F0128D
:2052C0000F67909B7EE49322C2AF900FB07400F0120FE422900FBBE02401F022C00D858187
:2052E0000DE5812416F581E50D2410F87400F608F6087600E50D2413F87600C0E0C0A8C226
:20530000AF900FBBE014F0E06003025931900FACE07003025931900F86E070030258CB907A
:205320000F8CE0FAA3E0FBA3E0FC74082AFA74003BFB8A828B838CF0129823FAA3129823E4
:20534000FBA3129823FCE50D2410F8A60208A60308A604E50D2410F8A90D09741126F774CA
:2053600000083609F708E609F7E50D2410F8741C26FA74000836FB0886048A828B838CF05E
:20538000E50D2414F8129823F6A312982308F6A312982308F6E50D2410F8741326FA740013
:2053A0000836FB0886048A828B838CF0129823FDA3129823FEA3129823FFE50D2407F8745C
:2053C000052DF674003E08F608A607E50D2410F8E50D2404F9741626F77400083609F708AE
:2053E000E609F7E50D2404F886820886830886F0129823FDA3129823FEA3129823FFE50D85
:205400002407F886820886830886F0ED129236A3EE129236A3EF129236E50D2404F886821A
:205420000886830886F0129823FDA3129823FEA3129823FF74022DFD74003EFE8A828B83CC
:205440008CF0129823FAA3129823FBA3129823FC8D828E838FF0EA129236A3EB129236A3C4
:20546000EC129236E50D2414F8740126FC74000836FB0886028C828B838AF0129823FDA36D
:20548000129823FEA3129823FFA80D08C005C006C00786820886830886F0120091158115DE
:2054A000811581700280030254D9E50D2404F886820886830886F0129823FDA3129823FED0
:2054C000A3129823FF8C828B838AF0ED129236A3EE129236A3EF129236A80D08740B26FDCA
:2054E00074000836FE0886078D828E838FF07400129236A3129236A3129236E50D2414F85E
:2055000086820886830886F0129823FF1FE50D2414F886820886830886F0EF129236E50D95
:205520002410F8740326FD74000836FE088607E50D2407F8740B2DF674003E08F608A60744
:20554000E50D2407F886820886830886F0E50D2414F9129823F7A312982309F7A3129823D8
:2055600009F7E50D2404F874022DF674003E08F608A607E50D2404F886820886830886F072
:20558000129823FAA3129823FBA3129823FCE50D240AF874052AF674003B08F608A604A8B5
:2055A0000D0874052DF674003E08F608A607A80D0886820886830886F0129823FAA312986D
:2055C00023FBA3129823FCE50D240AF886820886830886F0EA129236A3EB129236A3EC12C5
:2055E0009236A80D0886820886830886F0129823FAA3129823FBA3129823FCE50D240AF8D9
:2056000074022AF674003B08F608A604E50D2404F886820886830886F0129823FAA31298D8
:2056200023FBA3129823FCE50D240AF886820886830886F0EA129236A3EB129236A3EC1264
:205640009236E50D2414F8E50D240AF9740126F77400083609F708E609F7E50D240AF88677
:20566000820886830886F0129823FAA3129823FBA3129823FCC005C006C0078A828B838C83
:20568000F0120091158115811581700280030256C5A80D0886820886830886F0129823FA88
:2056A000A3129823FBA3129823FCE50D240AF886820886830886F0EA129236A3EB12923638
:2056C000A3EC129236C005C006C007E50D2407F886820886830886F07400129236A31292CE
:2056E00036A3129236E50D2414F886820886830886F0129823FC1CE50D2414F886820886A1
:20570000830886F0EC129236E50D2410F8E50D240DF9741F26F77400083609F708E609F738
:20572000E50D240DF886820886830886F0129823FC900FAFE0FFC3EF9CD007D006D00540B1
:2057400003025749900FAFECF0E50D240DF886820886830886F0129823FCEC75F00CA424DA
:2057600038FB740F35F0FC8B828C83A3E0FAA3E0FBA3E0FCE50D2404F88682088683088603
:20578000F0EA129236A3EB129236A3EC129236E50D240AF874052AF674003B08F608A60474
:2057A000E50D240AF886820886830886F0129823FAA3129823FBA3129823FCA80D088682D7
:2057C0000886830886F0EA129236A3EB129236A3EC129236E50D240AF886820886830886E6
:2057E000F0129823FAA3129823FBA3129823FC74022AFA74003BFB8A828B838CF0ED1292B0
:2058000036A3EE129236A3EF129236E50D240AF886820886830886F0ED129236A3EE1292D0
:2058200036A3EF129236E50D240DF886820886830886F0129823FFEF75F00CA42438FE7476
:205840000F35F0FF7D00E50D2407F886820886830886F0EE129236A3EF129236A3ED129284
:2058600036E50D240DF886820886830886F0129823FFEF75F00CA42438FE740F35F0FF8EE1
:20588000828F83E0FD0D8E828F83EDF0E50D240DF886820886830886F0129823FF900FA9C5
:2058A000E0FCA3E0FDA3E0FE741F2CFC74003DFD8C828D838EF0129823FCC3EF9C5003029A
:2058C0005316900FB37401F0025316E50D2410F8E6084670030258DB12752F900FB1E0FE5F
:2058E000A3E0FF8E048F05EE4F700302591E8C068D07C007C0061259E6E582D006D007704F
:205900000302590A900FB37401F01EBEFF011FEE4F60030258F2900FB17400F0A3F0900F9B
:20592000B3E07003025931E50D2413F87601120FE5D0E053E080E5E042A8D0E0E50D24134C
:20594000F88682850D81D00D22C0E0C0A8C2AF900FADE0FEA3E0FFD0E053E080E5E042A8FE
:20596000D0E08E828F8322900FADE0FEA3E0FF8E828F8322900FACE0FF8F8222AD82AE8386
:20598000AFF0ED4E6003025997900FA9E0FAA3E0FBA3E0FC02599D8D028E038F0474232A4D
:2059A000FA74003BFB8A828B838CF022AE82AF83C007C0061252D4D006D007C0E0C0A8C2ED
:2059C000AF900FB1E0FCA3E0FD900FB1EE2CF0EF3DA3F0D0E053E080E5E042A8D0E012522D
:2059E000DCAF828F8222C00D85810DE5812418F581E50D2413F87600900FBBE060030261D8
:205A000083900FADE0FDA3E0FEE50D2414F874012DF674003E08F6E50D2414F8900FADE69B
:205A2000F008E6A3F0E50D2414F8E608466003025A6B900F80E0FAA3E0FBA3E0FC8B058C63
:205A400006900F83E0FBA3E0FCA3E0FF900F80EBF0ECA3F0EFA3F0900F83EAF0EDA3F0EEDD
:205A6000A3F0900FB4E004F012752F900FB6E0FBA3E0FCE50D2414F8C3E69B08E69C5003C4
:205A8000026132900F80E0FAA3E0FBA3E0FC8A828B838CF01298236003025AA7900FB674E9
:205AA000FFF0A3F0026132900F80E0FAA3E0FBA3E0FC74042AFA74003BFB74022AFA740085
:205AC0003BFB8A828B838CF0129823FAA3129823FBA3129823FC74082AFA74003BFB8A8206
:205AE0008B838CF0129823FAA3129823FBA3129823FCE50D2410F8A60208A60308A604E570
:205B00000D2410F8740326FD74000836FE0886078D828E838FF0129823FFA3129823FEE5AF
:205B20000D2414F8C3E69F08E69E4003025B3A900FB6EFF0EEA3F0026132E50D2410F8749E
:205B40000326FD74000836FE088607E50D2410F8740E26FA74000836FB0886048A828B83C1
:205B60008CF0E50D2416F8129823F6A312982308F6A312982308F6E50D2410F8E50D2407AB
:205B8000F9740526F77400083609F708E609F7E50D2407F886820886830886F0129823FA63
:205BA000A3129823FBA3129823FCE50D240DF874052AF674003B08F608A604E50D2410F8DD
:205BC000A90D09740826F77400083609F708E609F7A80D0886820886830886F0129823FAB2
:205BE000A3129823FBA3129823FCE50D240DF886820886830886F0EA129236A3EB129236F0
:205C0000A3EC129236A80D0886820886830886F0129823FAA3129823FBA3129823FCE50D37
:205C2000240DF874022AF674003B08F608A604E50D2407F886820886830886F0129823FAD3
:205C4000A3129823FBA3129823FCE50D240DF886820886830886F0EA129236A3EB1292368F
:205C6000A3EC129236E50D2416F8E50D240DF9740126F77400083609F708E609F7E50D2433
:205C80000DF886820886830886F0129823FAA3129823FBA3129823FCC005C006C0078A826C
:205CA0008B838CF012009115811581158170028003025CE8A80D0886820886830886F01254
:205CC0009823FAA3129823FBA3129823FCE50D240DF886820886830886F0EA129236A3EB34
:205CE000129236A3EC129236E50D2404F8740B2DF674003E08F608A607E50D2404F886822E
:205D00000886830886F07400129236A3129236A3129236C005C006C007E50D2416F886822E
:205D20000886830886F0129823FF1FE50D2416F886820886830886F0EF129236E50D24103F
:205D4000F8E50D240DF9741126F77400083609F708E609F7E50D240DF8A90D09740B26F777
:205D60007400083609F708E609F7A80D0886820886830886F0129823FAA3129823FBA31248
:205D80009823FCD007D006D005EA4B7003025F45C005C006C007E50D2416F8A60208A603AD
:205DA00008A604E50D240DF8740226FD74000836FE0886078D828E838FF0129823FAA3121D
:205DC0009823FBA3129823FCE50D240AF874052AF674003B08F608A604E50D240DF8E50D84
:205DE0002407F9740526F77400083609F708E609F7E50D2407F886820886830886F01298F3
:205E000023FAA3129823FBA3129823FCE50D240AF886820886830886F0EA129236A3EB127B
:205E20009236A3EC129236E50D2407F886820886830886F0129823FAA3129823FBA3129806
:205E400023FC74022AFA74003BFB8D828E838FF0129823FDA3129823FEA3129823FF8A828D
:205E60008B838CF0ED129236A3EE129236A3EF129236E50D2416F8E50D240AF9740126F72B
:205E80007400083609F708E609F7E50D240AF886820886830886F0129823FDA3129823FE7B
:205EA000A3129823FFE50D240DF8C005C006C00786820886830886F012009115811581158B
:205EC0008170028009D007D006D005025F0AD007D006D005E50D2407F8868208868308861B
:205EE000F0129823FAA3129823FBA3129823FCE50D240AF886820886830886F0EA129236A1
:205F0000A3EB129236A3EC129236A80D0886820886830886F07400129236A3129236A312DC
:205F20009236E50D2416F886820886830886F0129823FC1CE50D2416F8868208868308862E
:205F4000F0EC129236C005C006C007E50D2410F8E50D240DF9741F26F77400083609F70895
:205F6000E609F7E50D240DF886820886830886F0129823FC900FAFE0FFC3EF9CD007D00698
:205F8000D0054003025F8C900FAFECF0E50D240DF886820886830886F0129823FCEC75F006
:205FA0000CA42438FB740F35F0FC8B828C83A3E50D2416F8E0F6A3E008F6A3E008F6740205
:205FC0002DFA74003EFB8F048A828B838CF0E50D2416F8E6129236A308E6129236A308E6E4
:205FE000129236E50D240AF874052DF674003E08F608A607E50D2416F8A90D09740526F735
:206000007400083609F708E609F7A80D0886820886830886F0129823FAA3129823FBA312A5
:206020009823FCE50D240AF886820886830886F0EA129236A3EB129236A3EC129236A80DB0
:206040000886820886830886F0129823FAA3129823FBA3129823FC74022AFA74003BFB8A35
:20606000828B838CF0ED129236A3EE129236A3EF129236A80D0886820886830886F0ED1223
:206080009236A3EE129236A3EF129236E50D240DF886820886830886F0129823FFEF75F08F
:2060A0000CA42438FE740F35F0FF7D00E50D2404F886820886830886F0EE129236A3EF129D
:2060C0009236A3ED129236E50D240DF886820886830886F0129823FFEF75F00CA42438FEB2
:2060E000740F35F0FF8E828F83E0FD0D8E828F83EDF0E50D240DF886820886830886F0122A
:206100009823FF900FA9E0FCA3E0FDA3E0FE741F2CFC74003DFD8C828D838EF0129823FCD2
:20612000C3EF9C5003025A83E50D2413F87601025A83900FA9E0FDA3E0FEA3E0FF741F2D80
:20614000FD74003EFE8D828E838FF0129823FDED75F00CA42438F582740F35F0F583E0FF55
:20616000C374019F4003026170E50D2413F87601900FB3E0700302618FE50D2413F876016B
:2061800002618F900FB1E02401F0A3E03400F0E50D2413F88682850D81D00D22C00D858113
:2061A0000DE581240AF581900FBBE070030261B9900FB37401F0026329900FB37400F09074
:2061C0000FAFE0FFEF75F00CA4FDAEF0ED2438FBEE340FFC8B828C83E060030261E21F024D
:2061E00061C4E50D2407F8A607ED2438FDEE340FFEE50D2408F8A60508A606087600E50D5E
:206200002408F8740126FA74000836FB0886078A828B838FF0129823FCA3129823FDA312FF
:206220009823FE74022CFC74003DFD8C828D838EF0129823FCA3129823FDA3129823FE8A8F
:20624000828B838FF0EC129236A3ED129236A3EE1292368A828B838FF0E50D2404F812983F
:2062600023F6A312982308F6A312982308F6A80D08A60408A60508A606E50D2408F87404CD
:2062800026FC74000836FD088606A80D08C004C005C00686820886830886F01200911581BD
:2062A00015811581700280030262E4E50D2404F8740226FC74000836FD0886068C828D836A
:2062C0008EF0129823FCA3129823FDA3129823FE8A828B838FF0EC129236A3ED129236A330
:2062E000EE1292368A828B838FF0129823FAA3129823FBA3129823FF74082AFA74003BFB52
:206300008A828B838FF0129823FAA3129823FBA3129823FF900FA9EAF0EBA3F0EFA3F0E53C
:206320000D2407F8900FAFE6F0850D81D00D22C00D85810DAD82AE83AFF0900FA9E0FAA353
:20634000E0FBA3E0FC74112AFA74003BFBC002C003C0048D828E838FF01228A8158115819A
:2063600015817401C0E0E50D24FCF886820886831290BE1581D00D22C00D85810DE58124F0
:2063800006F581C8E50D2404C8A68208A68308A6F0900FA9E0FAA3E0FBA3E0FC74112AFA18
:2063A00074003BFBE50D24FCF886060886074307808A828B838CF0EE129236A3EF12923674
:2063C000E50D2404F8740126FD74000836FE0886078D828E838FF0129823FDA3129823FEF7
:2063E000A3129823FF900FA9E0FAA3E0FBA3E0FC74112AFA74003BFB74022AFA74003BFB78
:206400008A828B838CF0ED129236A3EE129236A3EF129236900FA9E0FAA3E0FBA3E0FC74B5
:20642000112AFA74003BFBA80D0874052AF674003B08F608A60474052DFD74003EFE8D8266
:206440008E838FF0129823FAA3129823FBA3129823FCA80D0886820886830886F0EA12922C
:2064600036A3EB129236A3EC1292368D828E838FF0129823FAA3129823FBA3129823FCA830
:206480000D0874022AF674003B08F608A604900FA9E0FAA3E0FBA3E0FC74112AFA74003B7B
:2064A000FBA80D0886820886830886F0EA129236A3EB129236A3EC129236900FA9E0FAA333
:2064C000E0FBA3E0FC74112AFA74003BFB8D828E838FF0EA129236A3EB129236A3EC129211
:2064E00036900FA9E0FDA3E0FEA3E0FF74112DFD74003EFE740B2DFD74003EFE8D828E8366
:206500008FF0E50D2404F8E6129236A308E6129236A308E6129236E50D2404F886820886AC
:20652000830886F0129823FF0FE50D2404F886820886830886F0EF1292367401C0E0E50D06
:2065400024FAF886820886831290BE1581850D81D00D22C00D85810DE5812419F581AD82DC
:20656000AE83AFF074042DFD74003EFE74022DFD74003EFE8D828E838FF0129823FDA3128B
:206580009823FEA3129823FF74082DFD74003EFE8D828E838FF0129823FDA3129823FEA303
:2065A000129823FFE50D2414F8A60508A60608A607E50D2414F8741126FA74000836FB085D
:2065C0008604E50D2414F8741C26FD74000836FE0886078D828E838FF0E50D2417F81298A9
:2065E00023F6A312982308F6A312982308F6E50D2414F8E50D2404F9741326F7740008361B
:2066000009F708E609F7E50D2404F886820886830886F0129823FDA3129823FEA31298233B
:20662000FFA80D0874052DF674003E08F608A607E50D2414F8E50D240DF9741626F7740044
:20664000083609F708E609F7E50D240DF886820886830886F0129823FDA3129823FEA3126F
:206660009823FFA80D0886820886830886F0ED129236A3EE129236A3EF129236E50D240D4B
:20668000F886820886830886F0129823FDA3129823FEA3129823FFA80D0874022DF67400FA
:2066A0003E08F608A607E50D2404F886820886830886F0129823FDA3129823FEA312982398
:2066C000FFA80D0886820886830886F0ED129236A3EE129236A3EF129236E50D2417F8A9FB
:2066E0000D09740126F77400083609F708E609F7A80D0886820886830886F0129823FDA391
:20670000129823FEA3129823FFC002C003C0048D828E838FF0120091158115811581700280
:206720008003026759E50D240DF886820886830886F0129823FDA3129823FEA3129823FFBB
:20674000A80D0886820886830886F0ED129236A3EE129236A3EF129236E50D240AF8740BB0
:206760002AF674003B08F608A604E50D240AF886820886830886F07400129236A312923620
:20678000A3129236C002C003C004E50D2417F886820886830886F0129823FC1CE50D241765
:2067A000F886820886830886F0EC129236900FBBE0D004D003D0026003026BA9E50D24142E
:2067C000F8740326FC74000836FB088602E50D240DF8740B2CF674003B08F608A602E50DE0
:2067E000240DF886820886830886F0129823FFA3129823FEA3129823FDE50D2404F87402AA
:206800002CF674003B08F608A602E50D2404F886820886830886F0E50D2410F9129823F76D
:20682000A312982309F7A312982309F7E50D2410F8740526F674000836F6E50D2407F87494
:20684000052CF674003B08F608A602E50D2407F886820886830886F0E50D240AF912982322
:20686000F7A312982309F7A312982309F7E50D2410F886820886830886F0E50D240AF9E78C
:20688000129236A309E7129236A309E7129236E50D2407F886820886830886F0E50D240A78
:2068A000F9129823F7A312982309F7A312982309F7E50D240AF8740226F674000836F6E504
:2068C0000D2404F886820886830886F0E50D2410F9129823F7A312982309F7A31298230928
:2068E000F7E50D240AF886820886830886F0E50D2410F9E7129236A309E7129236A309E712
:20690000129236E50D240AF874012FF674003E08F608A605E50D240AF886820886830886C9
:20692000F0E50D2410F9129823F7A312982309F7A312982309F7E50D2410F8C004C003C03F
