:200000000200BF32FFFFFFFFFFFFFF32FFFFFFFFFFFFFF32FFFFFFFFFFFFFF32FFFFFFFF70
:20002000FFFFFF32FFFFFFFFFFFFFF32FFFFFFFFFFFFFF32FFFFFFFFFFFFFF32FFFFFFFF14
:20004000FFFFFF32FFFFFFFFFFFFFF32FFFFFFFFFFFFFF020628FFFFFFFFFF32FFFFFFFFF4
:20006000FFFFFF32FFFFFFFFFFFFFF32FFFFFFFFFFFFFF0212D1FFFFFFFFFF32FFFFFFFF1F
:20008000FFFFFF32FFFFFFFFFFFFFF0215400208D1E58124FCC3C8C0E0C082E60846700669
:2000A000E5824583601218E58296F58208E58396428208E5F0964582D082C8D0E0C82275E6
:2000C0008120129E64E582600302008E792AE94400601B7A01909F37788675A00FE493F25A
:2000E000A308B8000205A0D9F4DAF275A0FFE478FFF6D8FD7800E84400600A790175A00086
:20010000E4F309D8FC7885E8440F600C7910900001E4F0A3D8FCD9FA9000127400F0A3F0B6
:20012000900014F0A3F0900016F0A3F0900018F0A3F0900F297400F0A3F0A3F002008E75ED
:2001400096295397FEE5EA75EA0075F80022C00D85810DAF82C0071256A3D007E50D24FD6E
:20016000F8E660030201BEC374079F5003020212EF240A83F582EF240C83F583E4738E948D
:200180009AA0A6ACB2B8010101010101010143F80102021243F80202021243F80402021267
:2001A00043F80802021243F81002021243F82002021243F84002021243F880020212C3747B
:2001C000079F5003020212EF240A83F582EF240C83F583E473E5EBF1F7FD03090F010101B5
:2001E000010102020253F8FE02021253F8FD02021253F8FB02021253F8F702021253F8EF4C
:2002000002021253F8DF02021253F8BF02021253F87F1256ABD00D22AF827E007D00C00799
:20022000C006C0051256A3D005D006D007C374079F500302027CEF240A83F582EF240C833D
:20024000F583E47354595E63686D727702020202020202027E0102027E7E0202027E7E040E
:2002600002027E7E0802027E7E1002027E7E2002027E7E4002027E7E8002027E7D01BD01C8
:2002800003020298EE55F87003020295EEF4FFEF52F8020298EE42F81256AB22AF96C0E080
:2002A000C0A8C2AF7596007596285397FD53EFDF7596285397FE53EFEF43C02043C010D0CD
:2002C000E053E080E5E042A8D0E08F9622AF82EF70030202E27E111EEE60030202D71F0272
:2002E00002CF227596285397FD53EFDF43C02043C0107582011202CD53C0DF7582011202C3
:20030000CD53C0EF7582011202CD2253C0EF7596285397FD53EFDF53C0DF7582011202CD0B
:2003200043C0107582011202CD43C020227F007596285397FD43EF207E0053C0EF75820228
:20034000C007C0061202CDD006D00743C010758202C007C0061202CDD006D007E5C020E5B1
:2003600003020367430701BE070040030203758F05ED25E0FF0EBE0800500302033A53C043
:20038000EF7596285397FD53EFDF53C0DF8F8222AF827E0053C0EF758201C007C0061202C4
:2003A000CDD006D007EF20E7030203B243C0200203B553C0DF758201C007C0061202CDD00E
:2003C00006D00743C010758201C007C0061202CDD006D0078F05ED25E0FF0EBE080050036E
:2003E00002039453C0EF7582011202CD7596285397FD43EF207582011202CD43C01075823A
:20040000021202CDE5C0A2E5E433FFEF24FFE433FF53C0EF758201C0071202CDD00775960B
:20042000285397FD53EFDF53C0DF758201C0071202CDD0078F8222AF827596285397FD5352
:20044000EFDF53C0DF53C0EFEF700302045443C02002045753C0DF7582011202CD43C010C0
:200460007582011202CD53C0EF22C00D85810DAF82C0071202E3D0075307FE8F82120390CB
:20048000E582700302048D12030B0204D37F00E50D24FAF8C3EF9640030204D0E50D24FBFD
:2004A000F8EF26FC74000836FD0886068C828D838EF0129BCFFC8C82C007120390E582D02B
:2004C0000770030204CC12030B0204D30F02048F12030BD00D22C00D85810DAF82C007122A
:2004E00002E3D0074307018F82120390E58270030204F912030B02056B7F00E50D24FAF84D
:20050000C3EF964003020562E50D24FBF8EF26FC74000836FD088606C007C006C005C00474
:2005200012032DAB82D004D005D006D0078C828D838EF0EB1295E2E50D24FAF886057E00D5
:200540001DBDFF011E8F037C00EBB50507ECB50603020562758200C007120437D0070F02E3
:2005600004FB75820112043712030BD00D2222AF96C0E0C0A8C2AF7596009000087400F031
:20058000900007F0C007C0E004C0E0758206123475AC82AD83AEF015811581D00790000181
:2005A000ECF0EDA3F0EEA3F0C0077400C0E004C0E0758206123475AC82AD83AEF015811580
:2005C00081D007900004ECF0EDA3F0EEA3F0C2AF43F60853F1F77596507597027596194395
:2005E00097107596194397207596265397BF43EC1075962653977F43EC207596345397EF1C
:2006000075E3C075E80043E50143E50243E50453E5F743E51043E608D2AFD0E053E080E585
:20062000E042A8D0E08F9622C020C0E0C0F0C082C083C007C006C005C004C003C002C001E8
:20064000C000C0D075D000C00D85810DE5812408F581E50D2408F87600C0E0C0A8C2AFD246
:2006600080AF96C28053F1F7E5E820E10302067353E8FDE5E820E00302068553E8FEE50D2C
:200680002407F8A6E4E5E830E4030207119000087400F0900007F0E5E820E503020707C087
:2006A00007E50D2408FE7D007C40E50D2407FBE50D2404F8A603087600087640900004E05B
:2006C000FAA3E0FBA3E0FFC006C005C004E50D2404F8E6C0E008E6C0E008E6C0E08A828B86
:2006E000838FF0124439AF82E58124FAF581BF01028005D007020701D007E50D2407F886A4
:20070000E443E504020890E50D2407F8A6E4020890E5E820E503020798C007E50D2408FE9D
:200720007D007C40E50D2407FBE50D2404F8A603087600087640900004E0FAA3E0FBA3E002
:20074000FFC006C005C004E50D2404F8E6C0E008E6C0E008E6C0E08A828B838FF01244396F
:20076000AF82E58124FAF581BF01028005D00702077BD007E50D2407F886E4900007E024BB
:2007800001F0E0FEBE060050030207929000077400F043E504020890E5E820E30302085BDF
:2007A000C007E50D2407F8A6E4E50D2408FEE50D2404F8A606087600087640E50D2407FAA6
:2007C000A80D08A602087600087640900001E0FBA3E0FCA3E0FFC007C0067400C0E0E50D78
:2007E0002404F8E6C0E008E6C0E008E6C0E0A80D08E6C0E008E6C0E008E6C0E08B828C83BC
:200800008FF012391DE58124F9F581D006D007900008E02401F0E0FFBF0600D007500302EE
:200820000890C0079000087400F0D2807D007C4090001DE0FAA3E0FBA3E0FFC007C006C0FE
:2008400005C0048A828B838FF0123A7F158115811581D007C280D007020890C007D280E521
:200860000D2408FE7D007C40900020E0FAA3E0FBA3E0FFC007C006C005C0048A828B838FBF
:20088000F0123A7F158115811581D007C280D00743E504E50D2408F8E670030208A1121182
:2008A000E78F96D0E053E080E5E042A8D0E0850D81D00DD0D0D000D001D002D003D004D0F0
:2008C00005D006D007D083D082D0F0D0E0D02032221209CF12013F75820112244675820066
:2008E00012284E7405C0E075820212259E15817582021217FD7400C0E0C0E0C0E0C0E0746C
:20090000CDC0E074ABC0E07400C0E074A7C0E07400C0E07468C0E0749EC0E07480C0E07591
:20092000820075830E124DECE58124F4F5817400C0E0C0E0C0E0C0E0C0E0C0E0C0E074A701
:20094000C0E07400C0E07470C0E0749EC0E07480C0E07582B675830A124DECE58124F4F5AC
:20096000817400C0E0C0E0C0E0C0E0C0E0C0E0C0E074A7C0E07400C0E07470C0E0749EC0FD
:20098000E07480C0E075825875830C124DECE58124F4F5817400C0E0C0E0C0E07403C0E0E6
:2009A0007400C0E0C0E0C0E074A7C0E07400C0E07475C0E0749EC0E07480C0E07582427597
:2009C000830A124DECE58124F4F5811256352275962D5397DFC2AF53F67F53F17F75AEEF7D
:2009E00075920075910743E680D2AF53F7FE53D8FE1209F522C00D85810D0581058153AD2A
:200A0000F143AD0853ADFEA80D087610087627A80D088606088607A80D08EE24FFF6EF3442
:200A2000FF08F6EE4F6003020A0F850D81D00D22E5D820E003020A3E53D8FE020A4143D851
:200A400001227F00900F86E06003020A60759107758296758300C0071255FFD007020A6D11
:200A6000758205758300C0071255FFD007C0071229C8AE82D007BE0103020A7E7F01C0071A
:200A8000122189D007C00712242DD007C007121E79AE82D007BE0103020A9D7F01BF01029E
:200AA0008003020AAB900F867401F0C007120A30D007020A4422C00D85810DE581240CF5AB
:200AC00081A80D08762B08765208769A0876C4E50D2405F876DD08769A087612087645E557
:200AE0000D2405F8E6C0E008E6C0E008E6C0E008E6C0E0A80D0886820886830886F008E656
:200B00001296CBAC82AD83AEF0FFE58124FCF581E50D2409F8A60408A60508A60608A6078E
:200B2000E50D2409F8E6C0E008E6C0E008E6C0E008E6C0E07582CD7583E475F08A74441215
:200B400095FDAF82E58124FCF581EF6003020B80749AC0E074E1C0E0748AC0E07444C0E05E
:200B6000E50D2409F886820886830886F008E61295FDAF82E58124FCF581EF7003020B9702
:200B8000C0E0C0A8C2AF900F867401F0D0E053E080E5E042A8D0E0E50D2405F8E6C0E008EF
:200BA000E6C0E008E6C0E008E6C0E0A80D0886820886830886F008E6129B0CAC82AD83AE8C
:200BC000F0FFE58124FCF581E50D2409F8A60408A60508A60608A607E50D2409F8E6C0E0B0
:200BE00008E6C0E008E6C0E008E6C0E075825C75838F75F00274BF1295FDAF82E58124FC7C
:200C0000F581EF6003020C387414C0E074AEC0E07407C0E074BFC0E0E50D2409F8868208C7
:200C200086830886F008E61295FDAF82E58124FCF581EF7003020AC1C0E0C0A8C2AF900F27
:200C4000867401F0D0E053E080E5E042A8D0E0020AC1850D81D00D22C00D85810DE581249E
:200C60000CF581E50D2405F876450876D20876400876C6A80D08765C0876350876B70876DD
:200C800046A80D08E6C0E008E6C0E008E6C0E008E6C0E0E50D2405F886820886830886F077
:200CA00008E61296CBAC82AD83AEF0FFE58124FCF581E50D2409F8A60408A60508A60608AC
:200CC000A607E50D2409F8E6C0E008E6C0E008E6C0E008E6C0E075829A75839875F02D74F9
:200CE000461295FDAF82E58124FCF581EF6003020D227433C0E07498C0E0742DC0E074466C
:200D0000C0E0E50D2409F886820886830886F008E61295FDAF82E58124FCF581EF70030262
:200D20000D39C0E0C0A8C2AF900F867401F0D0E053E080E5E042A8D0E0A80D0886040886D3
:200D40000508860608E6B2E7FFC004C005C006C007E50D2405F886820886830886F008E6C6
:200D6000129B0CAC82AD83AEF0FFE58124FCF581E50D2409F8A60408A60508A60608A607E6
:200D8000E50D2409F8E6C0E008E6C0E008E6C0E008E6C0E07582147583AE75F007743F122A
:200DA00095FDAF82E58124FCF581EF6003020DE0745CC0E0748FC0E07402C0E0743FC0E0B7
:200DC000E50D2409F886820886830886F008E61295FDAF82E58124FCF581EF7003020C63D3
:200DE000C0E0C0A8C2AF900F867401F0D0E053E080E5E042A8D0E0020C63850D81D00D22AB
:200E00007420B58103020E1FC0E0C0A8C2AF900F867401F0D0E053E080E5E042A8D0E0858C
:200E200000E0E5E07003020E40C0E0C0A8C2AF900F867401F0D0E053E080E5E042A8D0E085
:200E40008501E07401B5E003020E62C0E0C0A8C2AF900F867401F0D0E053E080E5E042A898
:200E6000D0E08502E07402B5E003020E84C0E0C0A8C2AF900F867401F0D0E053E080E5E08E
:200E800042A8D0E08503E07403B5E003020EA6C0E0C0A8C2AF900F867401F0D0E053E08025
:200EA000E5E042A8D0E08504E07404B5E003020EC8C0E0C0A8C2AF900F867401F0D0E0537C
:200EC000E080E5E042A8D0E08505E07405B5E003020EEAC0E0C0A8C2AF900F867401F0D00B
:200EE000E053E080E5E042A8D0E08506E07406B5E003020F0CC0E0C0A8C2AF900F86740153
:200F0000F0D0E053E080E5E042A8D0E08507E07407B5E003020F2EC0E0C0A8C2AF900F86C3
:200F20007401F0D0E053E080E5E042A8D0E074CDB58203020F4DC0E0C0A8C2AF900F86749F
:200F400001F0D0E053E080E5E042A8D0E074ABB58303020F6CC0E0C0A8C2AF900F867401F4
:200F6000F0D0E053E080E5E042A8D0E0E5F0020E0022C00D85810DE581240EF581AD82AEED
:200F800083AFF0E50D240CF8A60508A60608A607E50D2409F874012DF674003E08F608A6F4
:200FA00007E50D24FCF886020886037C807F008A06E50D2409F886820886830886F0EE124E
:200FC00095E2A80D08A60308A60408A607087600E50D2409F8740126FD74000836FE088662
:200FE00007A80D0886028D828E838FF0EA1295E20DBD00010E8D828E838FF074AA1295E274
:201000000DBD00010E8D828E838FF074801295E2A80D08232DF674003E08F608A607E50D81
:2010200024F9F886020886030886047F008A06A80D0886820886830886F0EE1295E2E50D24
:201040002405F8A60308A60408A607087600A80D08740126FD74000836FE088607E50D2431
:2010600005F886028D828E838FF0EA1295E2E50D2405F808E618F60808E618F60808E618B8
:20108000F60876000DBD00010EE50D2405F886028D828E838FF0EA1295E20DBD00010E8DF0
:2010A000828E838FF074021295E20DBD00010E8D828E838FF074031295E20DBD00010E8D41
:2010C000828E838FF074041295E20DBD00010E8D828E838FF074051295E20DBD00010E8D1D
:2010E000828E838FF074061295E20DBD00010E8D828E838FF074071295E20DBD00010E8DF9
:20110000828E838FF074001295E20DBD00010E8D828E838FF074011295E20DBD00010E8DE4
:20112000828E838FF074001295E20DBD00010E8D828E838FF074BB1295E2E50D240CF886D0
:2011400002EDC39AFDE50D240CF886820886830886F0ED1295E2E50D240CF88682088683EC
:201160000886F0850D81D00D221213CB759600900F9DE0FDA3E0FEA3E0FF8D828E838FF029
:20118000129BCFF509A3129BCFF50A750B20850982850A83E0F5080509E4B50902050A0552
:2011A0000BA90B850982850A83E0FFA7071508E5086003021197850B81D00DD0D0D001D07B
:2011C00000D007D006D005D004D003D002D0F0D083D082D0E020E705C2AF0211DFD2AFD03F
:2011E000E0327582012222C0E0C0A8C2AFC082C083C0F0C002C003C004C005C006C007C098
:2012000000C001C0D075D000C00D900F9DE0FDA3E0FEA3E0FF8D828E838FF0129BCFF50936
:20122000A3129BCFF50A750B21AF81EF24E0F508850982850A83E508F0E508700302125B01
:201240000509E4B50902050A850982850A83A90B8707EFF0050B150802123912656F900F8B
:201260009DE0FDA3E0FEA3E0FF8D828E838FF0129BCFF509A3129BCFF50A750B208509820A
:20128000850A83E0F5080509E4B50902050A050BA90B850982850A83E0FFA7071508E50821
:2012A0006003021286850B81D00DD0D0D001D000D007D006D005D004D003D002D0F0D083F4
:2012C000D082D0E020E705C2AF0212CED2AFD0E032C0E0C0A8C2AFC082C083C0F0C002C01A
:2012E00003C004C005C006C007C000C001C0D075D000C00D900F9DE0FDA3E0FEA3E0FF8D09
:20130000828E838FF0129BCFF509A3129BCFF50A750B21AF81EF24E0F508850982850A8340
:20132000E508F0E50870030213450509E4B50902050A850982850A83A90B8707EFF0050B02
:201340001508021323125DB9E582700302135212656F53F17F53AEF7900F9DE0FDA3E0FE94
:20136000A3E0FF8D828E838FF0129BCFF509A3129BCFF50A750B20850982850A83E0F50815
:201380000509E4B50902050A050BA90B850982850A83E0FFA7071508E50860030213808592
:2013A0000B81D00DD0D0D001D000D007D006D005D004D003D002D0F0D083D082D0E020E76C
:2013C00005C2AF0213C8D2AFD0E032AF96759600C2AF43F68053F17F53AEF75393FE759435
:2013E000017595475393F75393FD43930275962D5397EF4397105393FB85939343E6804390
:2014000093018F9622C00D85810DC082C083C0F0C0E00581C0E0C0A8C2AFE50D2405F8A684
:2014200096759600750C017400C0E004C0E0E50D24FDF88682123475AA82AB83AFF0158174
:201440001581900009EAF0EBA3F0EFA3F07400C0E004C0E0E50D24FDF88682123475AD82CE
:20146000AE83AFF01581158190000CEDF0EEA3F0EFA3F0C2AF43F40453E1FB7596345397F0
:201480009F43972075961B43971075961B4397207596275397FE43EE107596275397FD53BC
:2014A000EEDFA80D080808860608E6C454F0CEC4CE6ECE54F0CE6EFF1818E6C4540F4EFE6C
:2014C00018860408E6C454F0CCC4CC6CCC54F0CC6CFDC004C005C006C0077582007583362C
:2014E00075F06E740112992CAC82AD83AEF0FFE58124FCF5818CDC8D0474035CF5DE43DE16
:201500000843DE0443DD4053DDEF43DD2053DDFB43DD0853DDFD43DD0153DFE743E704E512
:201520000D2405F88696D0E053E080E5E042A8D0E075820075830075F000850D81D00D2239
:20154000C020C0E0C0F0C082C083C007C006C005C004C003C002C001C000C0D075D000C025
:201560000D85810DE5812405F581E50D2405F87600C0E0C0A8C2AF53E1FBE5DF20E3030249
:2015800015D7E50D2404F8A6E275DF17E50D2405FF7E007D40E50D2404FCA80D08A6040880
:2015A0007600087640900009E0FAA3E0FBA3E0FC7400C0E0C007C006C005A80D08E6C0E0DE
:2015C00008E6C0E008E6C0E08A828B838CF012391DE58124F9F581E5DF20E0030215E275C3
:2015E000DF1EE5DF20E1030215ED75DF1DE5DF20E2030215F875DF1BE5DF20E40302166126
:2016000075DF0FE50D2405FF7E007D40E50D2404FCA80D08A60408760008764090000CE0DD
:20162000FAA3E0FBA3E0FCC007C006C005A80D08E6C0E008E6C0E008E6C0E08A828B838C5C
:20164000F0124439AF82E58124FAF581BF0102800302165EE50D2404F886E2021661750CB1
:2016600001E50D2405F8E6700302166F1211E7D0E053E080E5E042A8D0E0850D81D00DD0EA
:20168000D0D000D001D002D003D004D005D006D007D083D082D0F0D0E0D02032C00D8581D4
:2016A0000DE50D24FBF88605088606088607900009E0FAA3E0FBA3E0FCE50D24F9F8E6C043
:2016C000E008E6C0E0C005C006C0078A828B838CF0123BB9AF82E58124FBF581EF7003021E
:2016E00016E87582010216EB758200D00D22C00D85810DC0E0C0A8C2AF7401B50C028003E7
:20170000021715E50D24FDF886E2750C0075DF0F7F0102175CE50D24FDFE8E077D007C4070
:2017200090000CE0FAA3E0FBA3E0FE7400C0E0E50D24FBF8E6C0E008E6C0E0C007C005C0B7
:20174000048A828B838EF0123620AE82E58124FAF5818E07EE600302175C7F01D0E053E09D
:2017600080E5E042A8D0E08F82D00D22227400C0E07403C0E0758214123475AD82AE83AF58
:20178000F01581158190000FEDF0EEA3F0EFA3F02222C00D85810DC082C0830581058105F4
:2017A00081E50D2403FD7C007B4090000FE0FAA3E0FEA3E0FFA80D08E6C0E008E6C0E0C04E
:2017C00005C004C0038A828E838FF0123BB9AF82E58124FBF581BF010280030217EEE50D71
:2017E0002403F886820886830886F00217F775820075830075F000850D81D00D22C00D856B
:20180000810DC082E5812406F581758208758300123094AC82AD83AEF0E50D2405F8A6046C
:2018200008A60508A606E50D2405F8E6084670030219C07403C0E07400C0E0758201123443
:2018400075AA82AB83AFF015811581E50D2405F886820886830886F0EA1295E2A3EB12959C
:20186000E2A3EF1295E2E50D2405F886820886830886F0129BCFFEA3129BCFFDA3129BCF0C
:20188000FCEA4B70030218A57400C0E0C0E0C0E0C0E0C0E0C0E08E828D838CF0123620E5C8
:2018A0008124FAF581E50D2405F886820886830886F0129BCFFAA3129BCFFBA3129BCFFFBB
:2018C000EA4B70030219C0E50D2405F8740326FA74000836FB088607758204758300C007DF
:2018E000C003C002123094AC82AD83AEF0D002D003D0078A828B838FF0EC1295E2A3ED1265
:2019000095E2A3EE1295E28C828D838EF074FF1295E2A374001295E2A31295E2A31295E2A6
:20192000E50D2405F8740626FD74000836FE0886078D828E838FF074001295E2A31295E2EA
:20194000E50D2405F886040886050886067400C0E0C0E0C0E0C0E0C004C005C00674A7C0A5
:20196000E07400C0E07481C0E0749EC0E07480C0E075827D75831B124DECE58124F4F581D2
:20198000E50D2405F886040886050886067400C0E0C0E0C0E0C0E0C004C005C00674A7C065
:2019A000E07400C0E07489C0E0749EC0E07480C0E075827D75831B124DECE58124F4F5818A
:2019C000758208758300123094AD82AE83AFF0A80D0808A60508A60608A607A80D0808E6B7
:2019E00008467003021B777403C0E07400C0E0758201123475AA82AB83ACF015811581A8EA
:201A00000D080886820886830886F0EA1295E2A3EB1295E2A3EC1295E2A80D08088682089B
:201A200086830886F0129BCFFFA3129BCFFEA3129BCFFDEA4B7003021A577400C0E0C0E09C
:201A4000C0E0C0E0C0E0C0E08F828E838DF0123620E58124FAF581A80D0808868208868327
:201A60000886F0129BCFFAA3129BCFFBA3129BCFFCEA4B7003021B77A80D0808740326FAA5
:201A800074000836FB088604758204758300C004C003C002123094AD82AE83AFF0D002D054
:201AA00003D0048A828B838CF0ED1295E2A3EE1295E2A3EF1295E28D828E838FF074FF12EA
:201AC00095E2A3740F1295E2A374001295E2A31295E2A80D0808740626FD74000836FE08FA
:201AE00086078D828E838FF0740A1295E2A374001295E2A80D08088605088606088607C0DA
:201B0000E0C0E0C0E0A80D08E6C0E0C005C006C00774A7C0E07400C0E07491C0E0749EC0CA
:201B2000E07480C0E075827D75831B124DECE58124F4F581A80D08088605088606088607F2
:201B40007400C0E0C0E0C0E0A80D08E6C0E0C005C006C00774A7C0E07400C0E07499C0E020
:201B6000749EC0E07480C0E075827D75831B124DECE58124F4F581850D81D00D22C00D85F5
:201B8000810DE5812411F581AE82AC83ABF0E50D2410F87400F608F6C0E0C0A8C2AF900F0E
:201BA0008FE0FAA3E0FFE50D2407F8A60208A607900F8FE0FAA3E0FD900F8F74012AF0740F
:201BC000003DA3F0D0E053E080E5E042A8D0E075827E75839E75F080C006C004C00312170D
:201BE00091D003D004D006E50D2409F8A60608A60408A603E50D2409F8740326FB74000886
:201C000036FE0886078B828E838FF0E50D2404F8129BCFF6A3129BCF08F6A3129BCF08F6A0
:201C2000E50D2409F8A90D09740626F77400083609F708E609F7A80D088682088683088633
:201C4000F0129BCFFEA3129BCFFFEE4F7003021C64E50D240CF876FF08760F740008F60834
:201C6000F6021C73E50D240CF876FF740008F608F608F6A80D0886820886830886F0129BDF
:201C8000CFFEA3129BCFFFE50D2409F886820886830886F0129BCFFBA3129BCFFCA3129BC9
:201CA000CFFDC006C0078B828C838DF0123E7BAF8215811581BF01028003021E52E50D243D
:201CC00004F886820886830886F0129BCFFBA3129BCFFDA3129BCFFEA3129BCFFFE50D248D
:201CE0000CF8E6B5031208E6B5050D08E6B5060808E6B50703021D0E75827B75839E75F083
:201D000080121791E50D2410F876010876007B007E007D007F00E50D240CF8C3E69B08E635
:201D20009E08E69D08E69F5003021D78E50D2404F886820886830886F0EB1295E2A3EE1243
:201D400095E2A3ED1295E2A3EF1295E2E50D2404F886820886830886F0129BCFA3129BCF94
:201D6000A3129BCFA3129BCF0BBB00090EBE00050DBD00010F021D16E50D2409F88682084F
:201D800086830886F0129BCFFDA3129BCFFEA3129BCFFF7400C0E0C0E0C0E0C0E0C0E0C0B4
:201DA000E08D828E838FF0123620AF82E58124FAF581EF6003021DCE75827B75839E75F065
:201DC00080121791E50D2410F87601087600E50D2410F8E608466003021E1FE50D2407F8AD
:201DE0008606088607C3EE9404EF648094804003021E1FE50D2407F8E625E0FE08E633FFF2
:201E0000EE2487FEEF340FFF8E828F83E0FCA3E0FD0CBC00010D8E828F83ECF0EDA3F0A880
:201E20000D0886820886830886F0129BCFFEA3129BCFFFC006C00775820A75830012962D03
:201E4000AE82AF83158115818E828F831255FF021C73A80D0886820886830886F0129BCF0B
:201E6000FEA3129BCFFFEE4F6003021C731211E7021C73850D81D00D227F017E00EE75F017
:201E800002A4FCADF0EC2412F582ED3400F583E0FAA3E0FBEC2487F582ED340FF583E0FCE7
:201EA000A3E0FDEAB50406EBB505028003021EB27F00EE75F002A4FCADF0EC2412FAED34AF
:201EC00000FBEC2487F582ED340FF583E0FCA3E0FD8A828B83ECF0EDA3F00EBE040050035C
:201EE000021E7D8F8222AF82C0077400C0E07402C0E075820A123475AC82AD83AEF01581A2
:201F00001581D00790001AECF0EDA3F0EEA3F0EC4D7003021F8CC0077400C0E0C0E0C0E059
:201F2000C007741AC0E07400C0E07400C0E074A7C0E07400C0E074F8C0E0749EC0E0748003
:201F4000C0E0758261758320124DECE58124F4F581D0077400C0E0C0E0C0E0C007741AC0F2
:201F6000E07400C0E07400C0E074A7C0E07400C0E07400C0E0749FC0E07480C0E075828DAB
:201F800075831F124DECE58124F4F58122C00D85810DC082C083C0F0058105810581E50D30
:201FA0002404F87400F608F67C00E50D2406F87600C004E50D2404FA7C007F40A80D08863D
:201FC000030886050886068B828D838EF0129BCFFBA3129BCFFDA3129BCFFEC0047400C094
:201FE000E0C0E0C0E0C002C004C0078B828D838EF0123620AF82E58124FAF581D004BF01B2
:2020000005D00402200DD0047C01022035EC600302202AC0E0C0A8C2AF900F92E004F0D027
:20202000E053E080E5E042A8D0E0E50D2404F806B600020806E50D2406F806E50D2406F8A2
:20204000C3E6648094835003021FB175820A758300C0041255FFD004021FAA850D81D00D05
:2020600022C00D85810DC082C083C0F00581058105817B007C00E50D2406F87600C003C093
:2020800004A80D0886020886060886078A828E838FF0129BCFFBA3129BCFFCA3129BCFFD84
:2020A0008B828C838DF0C007C006C004C003C00212461CE582D002D003D004D006D007D0E0
:2020C00004D003700302216FC003C004E50D2404FD8D037C007D408A828E838FF0129BCFA5
:2020E000FAA3129BCFFEA3129BCFFFC004C0037400C0E0C0E0C003C004C0058A828E838F78
:20210000F0123BB9AF82E58124FBF581D003D004BF01028007D004D00302207DD004D003C0
:20212000E50D2404F8E6B5030808E6B50403022145E50D2406F87601E50D2404F8860308A7
:202140008604022167E50D2406F8E66003022167C0E0C0A8C2AF900F91E004F0D0E053E024
:2021600080E5E042A8D0E00BBB00010C02207D758208758300C004C0031255FFD003D00483
:2021800002207D850D81D00D22900F91E0700302219B900F92E060030221A07F000221A2D2
:2021A0007F01900F917400F0900F92F08F8222C00D85810DAF82E50D24F9F8900F96E6F094
:2021C000C0077418C0E0E50D24FAF886820886830886F008E61214051581D0078F061EC074
:2021E000077400C0E0C0E0C0E0C006C0E0C0E0C0E074A7C0E07400C0E07408C0E0749FC020
:20220000E07480C0E075824C758322124DECE58124F4F581D0077400C0E0C0E0C0E0C007BC
:20222000C0E0C0E0C0E074A7C0E07400C0E0740EC0E0749FC0E07480C0E07582F77583227E
:20224000124DECE58124F4F581D00D227F41900F93E0FCA3E0FDA3E0FEC0077400C0E0C0D6
:20226000E0C0078C828D838EF01216EEAE82158115811581D007BE0102800302228C900FA9
:2022800096E0FE8E82C007120218D0070FC374589F400302224E900F96E0FF7400C0E08F47
:2022A0008212014E1581125D1CAE82AF8374032EFE74003FFF7D007C00740FC0E07400C013
:2022C000E0C0E0C0E08E828F838DF0EC12976DAC82AD83AEF0FFE58124FCF581C3EC9405FE
:2022E000ED940040030222EC7C057D008C828D831255FF02224C22C00D85810DE581240587
:20230000F5817F00E50D2404F876007B41C007E50D2405FCA80D08A6040876000876409073
:202320000F93E0FDA3E0FEA3E0FFC004C00374FFC0E0C0E0A80D08E6C0E008E6C0E008E622
:20234000C0E08D828E838FF012169CAF82E58124FBF581D003D004EFD007700302238CE5D8
:202360000D2405F8E6B503028003022387900F96E0FE0E8E82C007C004C003120218D003E2
:20238000D004D00702238C7F0102239E0BC3745864808BF063F08095F0400302230D900F39
:2023A00096E0FE0EC007C0047400C0E08E8212014E1581D004D007BF0102800302240E8C45
:2023C00006E50D2405F8B658030224038E077C007B40C006900F93E0FAA3E0FDA3E0FEC04B
:2023E0000674FFC0E0C0E0C007C004C0038A828D838EF012169CE58124FBF581D006D006D1
:202400000223C1E50D2404F8067F0002230BE50D2404F8C3E664809482400302230B900F48
:2024200097E004F002230B850D81D00D22900F97E0600302243B7F0002243D7F01900F977D
:202440007400F08F8222AF827E00C007C0067400C0E0C0E0C0E0C007C0E0C0E0C0E074A793
:20246000C0E07400C0E07414C0E0749FC0E07480C0E0758292758324124DECE58124F4F5D6
:2024800081D006D0070EC3EE64809481500302244A22C00D85810D058105810581C0E0C09F
:2024A000A8C2AF900F98E0FFE50D2403F8A607E004F0D0E053E080E5E042A8D0E0E50D2483
:2024C00003F886057E00C005C00675824D75830112962DAD82AE8315811581744D2DFD7470
:2024E000013EFE7C007B00740AC0E07400C0E0C0E0C0E08D828E838CF0EB12992CAB82ACFF
:2025000083ADF0FEE58124FCF5818B05ECC313CD13CDFEC006C005125D1CAB82AC83D0055D
:20252000D006A80D08A60308A604AC0D0C8C027B007F40C006C005C004C005C0068A828BAF
:20254000838FF012551715811581D004D005D006E50D2403F88682C006C005C004120218BC
:20256000D004D005D0067F007B40C006C005C005C0068C828F838BF012551715811581D077
:2025800005D006E50D2403F88682C006C005120218D005D00602252A850D81D00D22C00DB5
:2025A00085810DAF82E50D24FDF8900F99E6F0C00712056FD007C00712029CD00753EBFE10
:2025C000C280C0077403C0E07400C0E0758201123475AC82AD83AEF015811581D007900085
:2025E00020ECF0EDA3F0EEA3F0EC4D7003022611C0077400C0E0C0E0C0E0C0E0C0E0C0E0FE
:202600008C828D838EF0123620E58124FAF581D007C0077403C0E07400C0E07582011234B5
:2026200075AC82AD83AEF015811581D00790001DECF0EDA3F0EEA3F0EC4D7003022660C0A8
:20264000077400C0E0C0E0C0E0C0E0C0E0C0E08C828D838EF0123620E58124FAF581D0076A
:20266000C0077400C0E0C0E0C0E0C007C0E0C0E0C0E074A7C0E07400C0E07419C0E0749F89
:20268000C0E07480C0E07582CD758326124DECE58124F4F581D0077400C0E0C0E0C0E0C0FA
:2026A00007C0E0C0E0C0E074A7C0E07400C0E07421C0E0749FC0E07480C0E07582D0758329
:2026C00027124DECE58124F4F581D00D22C00D85810D05810581A80D08760090001DE0FDEC
:2026E000A3E0FEA3E0FF74FFC0E0C0E08D828E838FF0123E7BAF8215811581BF0102800318
:202700000226DBA80D08087600AE0D0E7D007C40900001E0FAA3E0FBA3E0FF7400C0E0C03A
:20272000E0C006C005C0048A828B838FF0123BB9AF82E58124FBF581BF010280030227A28F
:20274000A80D088606A80D08EE04F6A80D0808E62423FD74003400FEA80D0808068D828E8E
:2027600083A80D08E6F0AE0D0E7D007C40900004E0FAA3E0FBA3E0FF7400C0E0C0E0C0E07F
:20278000C006C005C0048A828B838FF0123620E58124FAF581900F99E0FF8F821202180299
:2027A00027097406C0E07423C0E07400C0E07400C0E07582C01204D6E58124FCF5817582DA
:2027C000327583001255FF0226DB850D81D00D229000237401F090002404F090002504F0EB
:2027E00090002604F090002704F090002804F0900020E0FDA3E0FEA3E0FF74FFC0E0C0E095
:202800008D828E838FF0123E7BAF8215811581BF010280030227EF900F99E0FF8F82120258
:20282000187406C0E07423C0E07400C0E07400C0E07582C012046AE58124FCF581758232AB
:202840007583001255FF0227EF2275820122AF827D007E00ED249AFBEE340FFC7A00C00786
:20286000C006C0057400C0E0C0E0C0E0C007C003C004C00274A7C0E07400C0E07429C0E05D
:20288000749FC0E07480C0E07582B5758328124DECE58124F4F581D005D006D0070DBD009A
:2028A000010E8D038E04C3EB9401EC64809480500302285422C00D85810DE5812407F581E6
:2028C000AD82AE83AFF07B007C00E50D2405F8A60508A60608A607C003C004A80D08767BA6
:2028E000740008F608F608F6A80D08744726F674940836F674030836F674000836F6A80D92
:2029000008E6C0E008E6C0E008E6C0E008E6C0E07582FD7583FF75F0FF74FF129BEBAA82F9
:20292000AB83ACF0FFE58124FCF581A80D08A60208A60308A60408A607C0037407C0E07403
:2029400000C0E0C0E0C0E0A80D0886820886830886F008E612982FAC82AD83AEF0FFE5811B
:2029600024FCF581D003A80D08A60408A60508A60608A607A80D08B61B1308B6770F08B6C8
:20298000FE0B08B6FF07D004D003022995D004D0037B017C00EB4C60030228D7C0E0C0A8C1
:2029A000C2AFE50D2405F886820886830886F074011295E2D0E053E080E5E042A8D0E0023A
:2029C00028D7850D81D00D227F017D007E00ED249AFBEE340FFC8B828C83E060030229E22C
:2029E0007F00ED249AF582EE340FF5837400F00DBD00010E8D038E04C3EB9401EC64809487
:202A00008050030229CE8F8222C00D85810DC082C083C0F0058105810581A80D08740126B8
:202A2000FF74000836FB088602A80D08E50D2404F9740426F77400083609F708E609F7E570
:202A40000D2404F886040886050886068F828B838AF0EC1295E2A3ED1295E2A3EE1295E257
:202A6000E50D2404F886820886830886F074FF1295E2A31295E2E50D2404F8740226FF7464
:202A8000000836FD088604E50D2404F886020886030886068F828D838CF0EA1295E2A3EB0C
:202AA0001295E2A3EE1295E2E50D2404F8740526FF74000836FD088604E50D2404F88602E8
:202AC0000886030886068F828D838CF0EA1295E2A3EB1295E2A3EE1295E2A80D08868208C3
:202AE00086830886F074001295E2850D81D00D22AD82AE83AFF0740B2DFD74003EFE8D82D9
:202B00008E838FF074001295E2A31295E2A31295E222C00D85810DC082C083C0F0E581240F
:202B200009F581A80D08740126FA74000836FB0886048A828B838CF0E50D240AF8129BCF5B
:202B4000F6A3129BCF08F6A3129BCF08F6E50D24FBF8860208860308860474022AFD740080
:202B60003BFE8C078D828E838FF0E50D240AF8E61295E2A308E61295E2A308E61295E2E54A
:202B80000D2407F874052AF674003B08F608A604E50D240AF8E50D2404F9740526F77400D8
:202BA000083609F708E609F7E50D2404F886820886830886F0129BCFFDA3129BCFFEA312F5
:202BC0009BCFFFE50D2407F886820886830886F0ED1295E2A3EE1295E2A3EF1295E2E50D43
:202BE0002404F886820886830886F0129BCFFDA3129BCFFEA3129BCFFF74022DFD74003E18
:202C0000FE8D828E838FF0EA1295E2A3EB1295E2A3EC1295E2E50D2404F886820886830842
:202C200086F0EA1295E2A3EB1295E2A3EC1295E2740B2AFA74003BFB8A828B838CF0A80DE4
:202C400008E61295E2A308E61295E2A308E61295E2A80D0886820886830886F0129BCFFFFA
:202C60000FA80D0886820886830886F0EF1295E2850D81D00D22C00D85810DC082C083C042
:202C8000F0E581240BF581E50D24FBF886020886030886048A828B838CF0E50D240DF812C2
:202CA0009BCFF6A3129BCF08F6E50D240DF8B6FF0608B6FF028003022CFBC002C003C0040D
:202CC000A80D08740426FA74000836FB08860474052AFA74003BFB8A828B838CF0E50D246D
:202CE0000AF8129BCFF6A3129BCF08F6A3129BCF08F6D004D003D002022D85A80D087404C4
:202D000026FD74000836FE088607E50D240AF8A60508A60608A607C002C003C004E50D24C0
:202D20000AF8740226FD74000836FE0886078D828E838FF0129BCFFAA3129BCFFBA3129B34
:202D4000CFFC8A828B838CF0129BCFFAA3129BCFFBE50D240DF8C3E69A08E69BD004D003F4
:202D6000D0025003022D858D828E838FF0E50D240AF8129BCFF6A3129BCF08F6A3129BCF15
:202D800008F6022D17E50D2404F874022AF674003B08F608A604E50D240AF8E50D2407F9BA
:202DA000740226F77400083609F708E609F7E50D2407F886820886830886F0129BCFFDA318
:202DC000129BCFFEA3129BCFFFE50D2404F886820886830886F0ED1295E2A3EE1295E2A37F
:202DE000EF1295E274052DFD74003EFE8D828E838FF0EA1295E2A3EB1295E2A3EC1295E2C7
:202E000074052AFD74003BFE8C078D828E838FF0E50D240AF8E61295E2A308E61295E2A3EF
:202E200008E61295E2E50D2407F886820886830886F0EA1295E2A3EB1295E2A3EC1295E2CD
:202E4000740B2AFA74003BFB8A828B838CF0A80D08E61295E2A308E61295E2A308E6129511
:202E6000E2A80D0886820886830886F0129BCFFF0FA80D0886820886830886F0EF1295E2C6
:202E8000850D81D00D22C00D85810DE581240FF581C8E50D240AC8A68208A68308A6F0E5A5
:202EA0000D240AF8740B26FA74000836FB0886048A828B838CF0E50D240DF8129BCFF6A33B
:202EC000129BCF08F6A3129BCF08F6E50D240AF8A90D09740226F77400083609F708E60948
:202EE000F7A80D0886820886830886F0129BCFFDA3129BCFFEA3129BCFFFE50D2407F8744A
:202F0000052DF674003E08F608A607E50D240AF8E50D2404F9740526F77400083609F708A9
:202F2000E609F7E50D2404F886820886830886F0129BCFFDA3129BCFFEA3129BCFFFE50D5C
:202F40002407F886820886830886F0ED1295E2A3EE1295E2A3EF1295E2E50D2404F88682F2
:202F60000886830886F0129BCFFDA3129BCFFEA3129BCFFFE50D2407F874022DF674003EAE
:202F800008F608A607A80D0886820886830886F0129BCFFDA3129BCFFEA3129BCFFFE50D84
:202FA0002407F886820886830886F0ED1295E2A3EE1295E2A3EF1295E2E50D240DF8E50D9F
:202FC0002407F9740126F77400083609F708E609F7E50D2407F886820886830886F0129B42
:202FE000CFFDA3129BCFFEA3129BCFFFE50D240AF8C005C006C00786820886830886F012B7
:20300000009115811581158170028003023045E50D2404F886820886830886F0129BCFFDCF
:20302000A3129BCFFEA3129BCFFFE50D2407F886820886830886F0ED1295E2A3EE1295E219
:20304000A3EF1295E28A828B838CF074001295E2A31295E2A31295E2E50D240DF88682083F
:2030600086830886F0129BCFFF1FE50D240DF886820886830886F0EF1295E2E50D240DF8EA
:2030800086820886830886F0129BCFFF8F82850D81D00D22C00D85810DC082C0830581050B
:2030A000810581E50D2403F87400F608F60876001256A3900F29E0F5F0A3E045F06003025D
:2030C00030D57A297D007E007F00900F29EAF0EDA3F0EEA3F0A80D08E60846700302313E56
:2030E000900F9BE0FEA3E0FFA80D08E62EFC08E63FFDC3EC94FFED940E400302313EA80D05
:2031000008E62EFC08E63FFDC3EE9CEF9D400302313E900F29E0FBA3E0FCA3E0FDEE2BFB2A
:20312000EF3CFCE50D2403F8A60308A60408A605A80D08900F9BE62EF008E63FA3F0125626
:20314000ABE50D2403F886820886830886F0850D81D00D2222900F9B7400F0A3F022900FF6
:203160009BE0FEA3E0FF74FFC39EFE740E9FFF8E828F8322C00D85810DC082C083C0F0E524
:2031800081240AF581E50D240DF87601A80D08E608467003023461A80D08742526FA740093
:2031A0000836FB0886048A828B838CF0129BCFFFBF01005003023461C002C003C0048F03AE
:2031C0007C00C002C003C0047582FF7583FF129596AB82AC8315811581D002A80D08E50DF7
:2031E0002404F9742626F77400083609F708E609F7E50D2404F886820886830886F0129B01
:20320000CFFA7F00C3EB9AEC9FD004D003D0025003023461C0E0C0A8C2AFA80D08E50D24E4
:2032200007F9740626F77400083609F708E609F7A80D0886820886830886F0E50D240AF9EA
:20324000129BCFF7A3129BCF09F7A3129BCF09F78A828B838CF0129BCFFFE50D2404F88614
:20326000820886830886F0129BCFFE8FF0EEA4C8E50D240AC826FD08E635F0FE088607E554
:203280000D2407F886820886830886F0ED1295E2A3EE1295E2A3EF1295E2A80D0874242641
:2032A000FD74000836FE0886078D828E838FF074001295E2A80D08E50D240AF9740326F7C6
:2032C0007400083609F708E609F7A80D0886820886830886F0129BCFFDA3129BCFFEA312AF
:2032E0009BCFFFE50D240AF886820886830886F0ED1295E2A3EE1295E2A3EF1295E2E50D19
:203300002407F8E50D240AF9740326F77400083609F708E609F7A80D0886820886830886D9
:20332000F0129BCFFDA3129BCFFEA3129BCFFF8A828B838CF0129BCFFA7C00E50D2407F84C
:20334000EA24FFF6EC34FF08F6E50D2404F886820886830886F0129BCFFB7C00C007C00624
:20336000C005C003C004E50D2407F8868208868312962DAB82AC8315811581D005D006D0FB
:2033800007EB2DFDEC3EFEE50D240AF886820886830886F0ED1295E2A3EE1295E2A3EF1206
:2033A00095E2A80D08742726FD74000836FE0886078D828E838FF074FF1295E2A80D08740A
:2033C0002826FD74000836FE0886078D828E838FF074FF1295E2E50D24FDF8E66003023438
:2033E00023A80D08740C26FD74000836FE0886078D828E838FF0129BCF7003023453A80D39
:2034000008740C26FD74000836FE0886078D828E838FF012691EE58270030234531211E717
:20342000023453A80D08740C26FD74000836FE0886078D828E838FF0122A09A80D08741831
:2034400026FD74000836FE0886078D828E838FF0122A09D0E053E080E5E042A8D0E0023428
:2034600068E50D240DF87600E50D240DF88682850D81D00D22C00D85810DC0827C007D0003
:203480007E00A80D08E67003023553C004C005C006A80D0886027B00C006C005C004C002EE
:2034A000C0037582FF7583FF129596AA82AB8315811581D004D005D006E50D24FDF8860584
:2034C0007E00C3EA9DEB9ED006D005D0045003023553A80D08E50D24FDF986F0E7A4FAABD0
:2034E000F0C374D69A74FF9B500302355374292AFA74003BFB8A828B83123094AA82AB8395
:20350000AFF08A048B058F06EC4D70030235538C028D038E0774292AFA74003BFBC006C07F
:2035200005C004C004C005C006E50D24FCF8E6C0E0C002C003C007E50D24FDF8E6C0E0A85E
:203540000D08868212355EE58124F8F581D004D005D0068C828D838EF01581D00D22C00D34
:2035600085810DC082E50D24FDF8E660030235A1E50D24F6F88604088605088606E50D24FF
:20358000F6F886020886030886078C828D838EF0EA1295E2A3EB1295E2A3EF1295E2023517
:2035A000CFE50D24F6F88604088605088606E50D24FAF886020886030886078C828D838E25
:2035C000F0EA1295E2A3EB1295E2A3EF1295E2E50D24F6F8860508860608860774252DFADE
:2035E00074003EFB8F048A828B838CF0A80D08E61295E274262DFA74003EFB8F048A828B31
:20360000838CF0E50D24FDF8E61295E27401C0E08D828E838FF012317415811581D00D229B
:20362000C00D85810DE5812411F581AD82AB83ACF0E50D2411F87600E50D240BF8A605083F
:20364000A60308A604E50D24F8F8B60204740180027400FFE50D240EFEA80D08A606E50D66
:203660002408F874242DF674003B08F608A604E50D2405F874252DF674003B08F608A604DE
:20368000C0E0C0A8C2AFE50D2408F886820886830886F0129BCFFDE50D2405F886820886E2
:2036A000830886F0129BCFFCC3ED9C50030236B6EF7003023748E50D24F8F8E6C0E0E50DA3
:2036C00024FBF8E6C0E008E6C0E008E6C0E0E50D240BF886820886830886F01246B7AC8244
:2036E000E58124FCF5818C07E50D240BF8741826FA74000836FB0886048A828B838CF0128F
:203700009BCF700302372EE50D240BF8741826FA74000836FB0886048A828B838CF0126950
:203720001EE58270030237371211E7023737EF70030237371211E7D0E053E080E5E042A8B9
:20374000D0E0758201023917E50D24F9F8E608466003023766D0E053E080E5E042A8D0E070
:20376000758200023917E50D2411F8E6600302378F8E027B007C408A828B838CF0C007C0EC
:2037800006127702D006D007E50D2411F87601D0E053E080E5E042A8D0E0C007C00612569E
:2037A000A3D006D007C0E0C0A8C2AFE50D240BF8742726FA74000836FB0886048A828B8313
:2037C0008CF0129BCFFDBDFF0280030237D98A828B838CF074001295E2E50D240BF8742859
:2037E00026FA74000836FB0886048A828B838CF0129BCFFDBDFF0280030238078A828B83BF
:203800008CF074001295E2C007D0E053E080E5E042A8D0E0E50D24F9FCA80D0808A6040824
:203820007600087640A80D0886047D007F40C006A80D0808E6C0E008E6C0E008E6C0E08C18
:20384000828D838FF0127734AF82158115811581D006EFD0076003023901E50D240BF886CD
:20386000820886830886F0C007C006124D5DE582D006D00770030238DBE50D240BF8740CB9
:2038800026FB74000836FC088605C007C006E50D24F9F8E6C0E008E6C0E08B828C838DF085
:2038A00012670215811581D006D007E50D240BF886820886830886F0C007C006124B68D0E2
:2038C00006D007C007C0061256ABE582D006D00760030236801211E7023680E50D240BF861
:2038E00086820886830886F0C007C006124B68D006D007C007C0061256ABD006D0070236AD
:2039000080E50D240BF886820886830886F0124B681256AB758200850D81D00D22C00D8544
:20392000810D058105810581AA82AB83ACF0A80D08A60208A60308A60474242AFD74003B3B
:20394000FE8C078D828E838FF0129BCFFD74252AFC74003BFE8C078C828E838FF0129BCFA5
:20396000FCC3ED9C5003023976E50D24F7F8B602028003023A75A80D08742826FD74000810
:2039800036FE0886078D828E838FF0129BCFFFA80D08742426FC74000836FD0886068C827C
:2039A0008D838EF0129BCFC007E50D24F7F8E6C0E0E50D24FBF8E6C0E008E6C0E008E6C0E0
:2039C000E0A80D0886820886830886F01246B7E58124FCF581D007BFFF028003023A43A867
:2039E0000D08741826FC74000836FD0886068C828D838EF0129BCF7003023A70A80D087459
:203A00001826FC74000836FD0886068C828D838EF012691EE5827003023A70E50D24F8F868
:203A2000E608467003023A70E50D24F8F886040886050886068C828D838EF074011295E2E2
:203A4000023A70C007125D47AE82D0078F05C3ED9E4003023A70A80D08742826FC7400086E
:203A600036FD0886060F8C828D838EF0EF1295E27F01023A777F008F82850D81D00D22C0C7
:203A80000D85810DE5812407F581C8E50D2404C8A68208A68308A6F0E50D2404F87424268E
:203AA000FA74000836FB0886048A828B838CF0E50D2407F8129BCFF6E50D2404F8742526DF
:203AC000FD74000836FE0886078D828E838FF0129BCFFDE50D2407F8C3E69D4003023BAF02
:203AE000E50D2404F8A90D09742826F77400083609F708E609F7A80D088682088683088638
:203B0000F0129BCFFFE50D2407F8E604FE8A828B838CF0EE1295E2BFFF028003023B87E544
:203B20000D2404F8741826FC74000836FD0886068C828D838EF0129BCF7003023BAAE50D03
:203B40002404F8741826FC74000836FD0886068C828D838EF012691EE5827003023BAAE579
:203B60000D24FBF8E608467003023BAAE50D24FBF886040886050886068C828D838EF074C9
:203B8000011295E2023BAAC007125D47AE82D0078F05C3ED9E4003023BAA0FA80D08868250
:203BA0000886830886F0EF1295E27F01023BB17F008F82850D81D00D22C00D85810DE581A8
:203BC000240BF581AC82AD83AFF0E50D2408F87600E50D2405F8A60408A60508A607E50DA0
:203BE0002409FEE50D2404F8A606A80D0874242CF674003D08F608A607C0E0C0A8C2AFA8E0
:203C00000D0886820886830886F0129BCFFC8C05EC7003023CB2C005E50D24FBF8E6C0E04C
:203C200008E6C0E008E6C0E0E50D2405F886820886830886F0124A11158115811581D005BA
:203C4000E50D2405F8742426FB74000836FC088607ED14FA8B828C838FF0EA1295E2E50D5A
:203C60002405F8740C26FB74000836FC0886078B828C838FF0129BCF7003023CA1E50D24C0
:203C800005F8740C26FB74000836FC0886078B828C838FF012691EE5827003023CA1121133
:203CA000E7D0E053E080E5E042A8D0E0758201023E75E50D24F9F8E608466003023CD0D032
:203CC000E053E080E5E042A8D0E0758200023E75E50D2408F8E66003023CF58E037C007F28
:203CE000408B828C838FF0C006127702D006E50D2408F87601D0E053E080E5E042A8D0E073
:203D0000C0061256A3D006C0E0C0A8C2AFE50D2405F8742726FB74000836FC0886078B8264
:203D20008C838FF0129BCFFABAFF028003023D3B8B828C838FF074001295E2E50D2405F81C
:203D4000742826FB74000836FC0886078B828C838FF0129BCFFABAFF028003023D698B825F
:203D60008C838FF074001295E2C006D0E053E080E5E042A8D0E0E50D24F9FF7C007B40E506
:203D80000D2404F886027D007E40C006C007C004C0038A828D838EF0127734AF82158115EC
:203DA000811581D006D006EF6003023E3CE50D2405F886820886830886F0C006124D00E5BE
:203DC00082D0067003023E1EE50D2405F8741826FC74000836FD088607C006E50D24F9F8E8
:203DE000E6C0E008E6C0E08C828D838FF012670215811581D006E50D2405F8868208868369
:203E00000886F0C006124B68D006C0061256ABE582D0066003023BF91211E7023BF9E50DE2
:203E20002405F886820886830886F0C006124B68D006C0061256ABD006023BF9E50D240569
:203E4000F886820886830886F0C006124B68D006C0061256ABD006E50D2405F8868208861A
:203E6000830886F0C006124D00E582D0067003023BF9758200850D81D00D22C00D85810D4D
:203E8000E581240BF581AC82AD83AFF0E50D2408F87600E50D2409F8A60408A60508A60765
:203EA000E50D2405FEE50D2404F8A606A80D0874242CF674003D08F608A607C0E0C0A8C286
:203EC000AFA80D0886820886830886F0129BCFFC8C07EC7003023F3EEF14FCA80D08868232
:203EE0000886830886F0EC1295E2E50D2409F8740C26FB74000836FC0886078B828C838F18
:203F0000F0129BCF7003023F2DE50D2409F8740C26FB74000836FC0886078B828C838FF0BE
:203F200012691EE5827003023F2D1211E7D0E053E080E5E042A8D0E0758201024101E50DA6
:203F400024FCF8E608466003023F5CD0E053E080E5E042A8D0E0758200024101E50D2408FA
:203F6000F8E66003023F818E037C007F408B828C838FF0C006127702D006E50D2408F87624
:203F800001D0E053E080E5E042A8D0E0C0061256A3D006C0E0C0A8C2AFE50D2409F874278C
:203FA00026FB74000836FC0886078B828C838FF0129BCFFABAFF028003023FC78B828C832A
:203FC0008FF074001295E2E50D2409F8742826FB74000836FC0886078B828C838FF0129B06
:203FE000CFFABAFF028003023FF58B828C838FF074001295E2C006D0E053E080E5E042A814
:20400000D0E0E50D24FCFF7C007B40E50D2404F886027D007E40C006C007C004C0038A82B3
:204020008D838EF0127734AF82158115811581D006D006EF60030240C8E50D2409F886821B
:204040000886830886F0C006124D00E582D00670030240AAE50D2409F8741826FC740008CF
:2040600036FD088607C006E50D24FCF8E6C0E008E6C0E08C828D838FF01267021581158150
:20408000D006E50D2409F886820886830886F0C006124B68D006C0061256ABE582D00660C5
:2040A00003023EBB1211E7023EBBE50D2409F886820886830886F0C006124B68D006C00628
:2040C0001256ABD006023EBBE50D2409F886820886830886F0C006124B68D006C0061256BF
:2040E000ABD006E50D2409F886820886830886F0C006124D00E582D0067003023EBB7582CA
:2041000000850D81D00D22C00D85810DE581240DF581AD82AB83AFF07C00E50D2408F8A66C
:204120000508A60308A607E50D240BFEE50D2404F8A606A80D0874242DF674003B08F6080A
:20414000A607C0E0C0A8C2AFA80D0886820886830886F0129BCF700302423BE50D2408F861
:20416000740626FA74000836FB08860774032AFA74003BFB8A828B838FF0129BCFFEA31256
:204180009BCFFDA3129BCFFCC006C005C004E50D24FBF8E6C0E008E6C0E008E6C0E0E50DB1
:2041A0002408F886820886830886F0124A11158115811581D004D005D006E50D2408F8740C
:2041C0000626FA74000836FB08860774032AFA74003BFB8A828B838FF0EE1295E2A3ED1280
:2041E00095E2A3EC1295E2E50D2408F8741826FA74000836FB0886078A828B838FF0129BE6
:20420000CF700302422AE50D2408F8741826FA74000836FB0886078A828B838FF012691EB8
:20422000E582700302422A1211E7D0E053E080E5E042A8D0E0758201024433E50D24F9F8F2
:20424000E608466003024259D0E053E080E5E042A8D0E0758200024433EC60030242748E63
:20426000027B007F408A828B838FF0C006127702D0067C01D0E053E080E5E042A8D0E0C043
:2042800006C0041256A3D004D006C0E0C0A8C2AFE50D2408F8742726FA74000836FB08861A
:2042A000078A828B838FF0129BCFFDBDFF0280030242BE8A828B838FF074001295E2E50D1A
:2042C0002408F8742826FA74000836FB0886078A828B838FF0129BCFFDBDFF028003024225
:2042E000EC8A828B838FF074001295E2C004D0E053E080E5E042A8D0E0E50D24F9FFE50DB6
:204300002405F8A607087600087640E50D2404F886047D007F40C006C004E50D2405F8E638
:20432000C0E008E6C0E008E6C0E08C828D838FF0127734AF82158115811581D004D006D0FA
:2043400004EF60030243EEE50D2408F886820886830886F0C006C004124D00E582D004D033
:204360000670030243C8E50D2408F8741826FB74000836FD088607C006C004E50D24F9F81F
:20438000E6C0E008E6C0E08B828D838FF012670215811581D004D006E50D2408F8868208F6
:2043A00086830886F0C006C004124B68D004D006C006C0041256ABE582D004D0066003026A
:2043C00041421211E7024142E50D2408F886820886830886F0C006C004124B68D004D00625
:2043E000C006C0041256ABD004D006024142E50D2408F886820886830886F0C006C00412A8
:204400004B68D004D006C006C0041256ABD004D006E50D2408F886820886830886F0C00685
:20442000C004124D00E582D004D0067003024142758200850D81D00D22C00D85810DC08225
:20444000C083C0F0A80D08742426FA74000836FB0886048A828B838CF0129BCFFA8A04EA31
:204460007003024562A80D08742726FA74000836FB0886078A828B838FF0129BCFFFC0078B
:20448000C004E50D24FBF8E6C0E008E6C0E008E6C0E0A80D0886820886830886F0124A11EC
:2044A000158115811581D004D007A80D08742426FB74000836FD0886061C8B828D838EF01F
:2044C000EC1295E2BFFF028003024530A80D08740C26FC74000836FD0886068C828D838E5F
:2044E000F0129BCF700302455DA80D08740C26FC74000836FD0886068C828D838EF0126980
:204500001EE582700302455DE50D24F8F8E60846700302455DE50D24F8F886040886050883
:2045200086068C828D838EF074011295E202455DC007125D47AE82D0078F05C3ED9E400308
:2045400002455DA80D08742726FC74000836FD0886060F8C828D838EF0EF1295E27F010255
:2045600045647F008F82850D81D00D22C00D85810DAD82AE83AFF074242DFA74003EFB8F16
:20458000048A828B838CF0129BCF700302461574062DFA74003EFB8F0474032AFA74003B0A
:2045A000FB8A828B838CF0129BCFFAA3129BCFFBA3129BCFFCC007C006C005C004C003C026
:2045C00002E50D24FBF8E6C0E008E6C0E008E6C0E08D828E838FF0124A1115811581158160
:2045E000D002D003D004D005D006D00774062DFD74003EFE74032DFD74003EFE8D828E83FB
:204600008FF0EA1295E2A3EB1295E2A3EC1295E27F010246177F008F82D00D22AD82AE83AB
:20462000AFF0C0E0C0A8C2AF74242DFD74003EFE8D828E838FF0129BCFFDD0E053E080E590
:20464000E042A8D0E08D8222AD82AE83AFF0C0E0C0A8C2AF74252DFA74003EFB8F048A822B
:204660008B838CF0129BCFFA74242DFD74003EFE8D828E838FF0129BCFFDEAC39DFAD0E0BC
:2046800053E080E5E042A8D0E08A8222AD82AE83AFF074242DFD74003EFE8D828E838FF0CA
:2046A000129BCFFD8D8222AD82AE83AFF08D828E838FF012315422C00D85810DC082C08394
:2046C000C0F0E581240AF581A80D08742426FA74000836FB0886048A828B838CF0E50D24C0
:2046E0000DF8129BCFF6A80D08E50D2404F9742626F77400083609F708E609F7E50D240402
:20470000F886820886830886F0129BCFFEEE70030249F6E50D24FAF8E66003024873C0021E
:20472000C003C0048E047D00A80D08E50D2407F9740326F77400083609F708E609F7E50DEA
:204740002407F886820886830886F0129BCFFAA3129BCFFBA3129BCFFFC004C003C002C0E8
:2047600004C005E50D24FBF8E6C0E008E6C0E008E6C0E08A828B838FF01299B6E58124FB46
:20478000F581D002D003D004E50D2407F886820886830886F0129BCFFCA3129BCFFDA31235
:2047A0009BCFFFE50D2404F886820886830886F0129BCFFBE50D240AF8EB2CF674003D0892
:2047C000F608A607E50D2407F886820886830886F0E50D240AF9E71295E2A309E71295E2DD
:2047E000A309E71295E2A80D08740626FA74000836FB0886078A828B838FF0129BCFFAA352
:20480000129BCFFBA3129BCFFFE50D240AF8C002C003C00786820886830886F01200911550
:204820008115811581D004D003D00250030249F6C002C003C004A80D088682088683088611
:20484000F0129BCFFCA3129BCFFDA3129BCFFFE50D2407F886820886830886F0EC1295E295
:20486000A3ED1295E2A3EF1295E2D004D003D0020249F6C002C003C0047F00A80D08E50DD3
:20488000240AF9740626F77400083609F708E609F7E50D240AF8E50D2407F9740326F77484
:2048A00000083609F708E609F7E50D2407F886820886830886F0129BCFFBA3129BCFFCA3EB
:2048C000129BCFFDC004C003C002C006C007E50D24FBF8E6C0E008E6C0E008E6C0E08B82D1
:2048E0008C838DF01299B6E58124FBF581D002D003D004E50D2407F886820886830886F0AB
:20490000129BCFFDA3129BCFFEA3129BCFFFE50D2404F886820886830886F0129BCFFC7B47
:2049200000EDC39CFDEE9BFEE50D2407F886820886830886F0ED1295E2A3EE1295E2A3EFD9
:204940001295E2A80D0886820886830886F0129BCFFAA3129BCFFBA3129BCFFCC002C0034A
:20496000C0048D828E838FF0120091158115811581D004D003D00240030249D8C002C0030B
:20498000C004E50D240AF886820886830886F0129BCFFDA3129BCFFEA3129BCFFFE50D24DA
:2049A00004F886820886830886F0129BCFFC7B00EDC39CFDEE9BFEE50D2407F886820886F6
:2049C000830886F0ED1295E2A3EE1295E2A3EF1295E2D004D003D002E50D24FAF8B60202F0
:2049E00080030249F6E50D240DF8E670030249F6E50D240DF816E50D240DF8E604FF8A82FD
:204A00008B838CF0EF1295E2758200850D81D00D22C00D85810DC082C083C0F0E5812404E8
:204A2000F581A80D08742626FA74000836FB0886048A828B838CF0E50D2404F8129BCFF630
:204A4000E50D2404F8E67003024B62C002C003C004A80D08740626FA74000836FB0886045D
:204A6000E50D2405F874032AF674003B08F608A604E50D2405F886820886830886F0129BD6
:204A8000CFFDA3129BCFFEA3129BCFFFE50D2404F8E62DFD74003EFEE50D2405F88682081A
:204AA00086830886F0ED1295E2A3EE1295E2A3EF1295E28A828B838CF0129BCFFAA3129B68
:204AC000CFFBA3129BCFFCC002C003C0048D828E838FF0120091158115811581D004D003FD
:204AE000D0025003024B1BA80D0886820886830886F0129BCFFDA3129BCFFEA3129BCFFF21
:204B0000E50D2405F886820886830886F0ED1295E2A3EE1295E2A3EF1295E28A828B838C9A
:204B2000F0129BCFFA7F00E50D2405F886820886830886F0129BCFFCA3129BCFFDA3129B02
:204B4000CFFEC002C007C004C005C006E50D24FBF886820886830886F01299B6E58124FB2A
:204B6000F581850D81D00D22C00D85810DC082C083C0F0E5812404F581C0E0C0A8C2AFA873
:204B80000D08742826FA74000836FB0886048A828B838CF0E50D2404F8129BCFF6A80D082E
:204BA000E50D2405F9741826F77400083609F708E609F7E50D2404F8C37400648086F06392
:204BC000F08095F04003024C21E50D2405F886820886830886F0129BCF7003024C21A80D71
:204BE00008741826FD74000836FE0886078D828E838FF0C004C003C00212691EE582D002FF
:204C0000D003D0047003024C18C004C003C00212785BD002D003D004E50D2404F816024BF8
:204C2000B38A828B838CF074FF1295E2D0E053E080E5E042A8D0E0C0E0C0A8C2AFA80D0837
:204C4000742726FD74000836FE0886078D828E838FF0129BCFFCA80D08E50D2405F9740CE9
:204C600026F77400083609F708E609F7C3740064808CF063F08095F04003024CE4E50D24FD
:204C800005F886820886830886F0129BCF7003024CE4C005C006C007A80D08740C26FA743C
:204CA000000836FB0886078A828B838FF0C007C006C005C00412691EE582D004D005D006F8
:204CC000D007D007D006D0057003024CE0C007C006C005C00412785BD004D005D006D00789
:204CE0001C024C6C8D828E838FF074FF1295E2D0E053E080E5E042A8D0E0850D81D00D226F
:204D0000AD82AE83AFF0C0E0C0A8C2AF74242DFD74003EFE8D828E838FF0129BCF60030229
:204D20004D277F01024D297F00D0E053E080E5E042A8D0E08F8222AD82AE83AFF074242DCF
:204D4000FD74003EFE8D828E838FF0129BCF6003024D587F01024D5A7F008F8222AD82AEC9
:204D600083AFF0C0E0C0A8C2AF74242DFA74003EFB8F048A828B838CF0129BCFFA74252DC7
:204D8000FD74003EFE8D828E838FF0129BCFFDEAB505028003024D9D7F01024D9F7F00D07C
:204DA000E053E080E5E042A8D0E08F8222AD82AE83AFF074242DFA74003EFB8F048A828B39
:204DC000838CF0129BCFFA74252DFD74003EFE8D828E838FF0129BCFFDEAB50502800302A8
:204DE0004DE77F01024DE97F008F8222C00D85810D058105810581AE82AF8375823375831F
:204E000000C007C006123094AB82AC83ADF0D006D007A80D08A60308A60408A605A80D0801
:204E2000E608467003024ED0C006C007A80D088602088606088607C007C0067433C0E07468
:204E400000C0E0C0E08A828E838FF0129A49158115811581D006D007A80D08742026FA742D
:204E6000000836FE088607E50D24F9F886040886058C828D83C007C006C002123094AB82CD
:204E8000AC83ADF0D002D006D0078A828E838FF0EB1295E2A3EC1295E2A3ED1295E2D007AF
:204EA000D006EB4C6003024ED0A80D0886030886040886058B828C838DF0C007C00612318E
:204EC00054D006D007A80D087400F608F6087600A80D08E608467003024F5FE50D24F9F813
:204EE00086020886037C007D007400C0E0C0E0C0E0A80D08E6C0E008E6C0E008E6C0E0E508
:204F00000D24F2F8E6C0E008E6C0E008E6C0E0E50D24F5F8E6C0E0E50D24F6F8E6C0E008B9
:204F2000E6C0E008E6C0E0C002C003C004C005E50D24FBF8E6C0E008E6C0E008E6C0E08E16
:204F4000828F83124F69E58124ECF581A80D0886820886830886F012524B7F01024F617F53
:204F6000FF8F82850D81D00D22C00D85810DC082C083E581240CF581E50D24EDF8E50D248D
:204F800003F9E6F708E609F708E609F7E50D2403F8742026FA74000836FE0886078A828EB8
:204FA000838FF0E50D240CF8129BCFF6A3129BCF08F6A3129BCF08F6E50D240CF8E50D24F9
:204FC00006F9E6F708E609F708E609F7E50D2403F8E50D2409F9742B26F77400083609F782
:204FE00008E609F7E50D24F7F8E624FFFA08E634FFFE08E634FFFD08E634FFFFE50D240C3C
:20500000F8EA26FAEE0836FE088605E50D2409F886820886830886F0EA1295E2A3EE129578
:20502000E2A3ED1295E2E50D24FBF8E6084670030250C0E50D2403F8742326FD7400083636
:20504000FE0886077B00E50D2409F8EB2DF674003E08F608A607C005C006C007E50D24FB55
:20506000F8EB26FD74000836FE0886078D828E838FF0129BCFFCE50D2409F886820886839E
:205080000886F0EC1295E28D828E838FF0129BCFD007D006D00570030250A40BBB080050F9
:2050A00003025046E50D2403F8742A26FD74000836FE0886078D828E838FF074001295E2A2
:2050C000E50D24F3F8B6040050030250D4E50D24F3F87603E50D2403F8741F26FD740008DF
:2050E00036FE0886078D828E838FF0E50D24F3F8E61295E2E50D2403F8740326FD740008B1
:2051000036FE0886078D828E838FF0122AF0E50D2403F8741126FD74000836FE0886078D70
:20512000828E838FF0122AF0E50D2403F8740B26FD74000836FE088607E50D24EDF88602B6
:205140000886030886048D828E838FF0EA1295E2A3EB1295E2A3EC1295E2E50D2403F8E5F5
:205160000D2409F9741126F77400083609F708E609F7E50D24F3F886077E007404C39FFFD5
:2051800074009EFEE50D2409F886820886830886F0EF1295E2A3EE1295E2E50D2403F8743A
:2051A0001926FD74000836FE0886078D828E838FF0EA1295E2A3EB1295E2A3EC1295E2E548
:2051C0000D24F4F8E6C0E008E6C0E008E6C0E0A80D08E6C0E008E6C0E0E50D2406F8868223
:2051E0000886830886F0120F72AF82AE83ADF0E58124FBF581E50D2403F886820886830861
:2052000086F0EF1295E2A3EE1295E2A3ED1295E2E50D24F0F8E608467003025245E50D2419
:20522000F0F886050886060886078D828E838FF0E50D2403F8E61295E2A308E61295E2A3F6
:2052400008E61295E2850D81D00D22C00D85810DC082C083C0F0E581240CF581C0E0C0A89C
:20526000C2AF900FA0E004F0900F9DE0FAA3E0FBA3E0FCEA4B600302529DA80D08900F9D15
:20528000E6F008E6A3F008E6A3F0900FA0E0FCBC010280030252F412787A0252F4900FA402
:2052A000E060030252F4900F9DE0FAA3E0FBA3E0FC741F2AFA74003BFB8A828B838CF01247
:2052C0009BCFFAA80D08741F26FB74000836FC0886078B828C838FF0129BCFFBC3EB9A500C
:2052E000030252F4A80D08900F9DE6F008E6A3F008E6A3F0900FA9E02401F0A80D08741F05
:2053000026FD74000836FE0886078D828E838FF0129BCFFC900FA3E0FBC3EB9C400302530F
:2053200026900FA3ECF08D828E838FF0129BCFFCEC75F00CA4242CFB740F35F0FC8B828C89
:2053400083A3E50D240DF8E0F6A3E008F6A3E008F6A80D08E50D2404F9740326F774000854
:205360003609F708E609F7E50D2404F8740226FA74000836FB0886048A828B838CF0E50D9A
:20538000240DF8E61295E2A308E61295E2A308E61295E2E50D2404F8E50D2407F97405267A
:2053A000F77400083609F708E609F7E50D240DF8E50D240AF9740526F77400083609F708D2
:2053C000E609F7E50D240AF886820886830886F0129BCFFAA3129BCFFBA3129BCFFCE50D9B
:2053E0002407F886820886830886F0EA1295E2A3EB1295E2A3EC1295E2E50D240AF8868231
:205400000886830886F0129BCFFAA3129BCFFBA3129BCFFC74022AFA74003BFB8A828B83F4
:205420008CF0E50D2404F8E61295E2A308E61295E2A308E61295E2E50D240AF8868208868D
:20544000830886F0E50D2404F9E71295E2A309E71295E2A309E71295E2E50D2404F8E50D8C
:20546000240AF9740B26F77400083609F708E609F78D828E838FF0129BCFFCEC75F00CA4B1
:20548000242CFC740F35F0FB8C027C00E50D240AF886820886830886F0EA1295E2A3EB1251
:2054A00095E2A3EC1295E28D828E838FF0129BCFFCEC75F00CA4242CFB740F35F0FC8B8249
:2054C0008C83E0FA0A8B828C83EAF0D0E053E080E5E042A8D0E0900FA4E070030255119093
:2054E0000F9DE0FAA3E0FBA3E0FC741F2AFA74003BFB8A828B838CF0129BCFFA8D828E839C
:205500008FF0129BCFFDC3EA9D40030255111211E7850D81D00D22C00D85810DC082C0831D
:20552000C0F0058105817E00C0061256A3D006900FA1E0FAA3E0FBE50D2404F8A60208A68A
:2055400003A80D0886820886830886F0129BCFFBA3129BCFFCE50D24FCF8E62BFD08E63C20
:20556000FF8D02E50D2404F8C3E69B08E69C4003025592C3EA9BEF9C40030255AEE50D2460
:2055800004F8C3E69A08E69F40030255AE7E010255AEC3EA9BEF9C50030255ACE50D240430
:2055A000F8C3E69A08E69F40030255AE7E01A80D0886820886830886F0EA1295E2A3EF12F1
:2055C00095E2EE70030255E6E50D2404F8EAC396FAEF0896FFC0067400C0E08A828F8312D1
:2055E000946A1581D006C0061256ABE582D00660030255F71211E78E82850D81D00D22AEA0
:2056000082AF837D00EE4F700302562BC007C0061256A3D006D0077400C0E08E828F831299
:20562000946A15811256ABAF828F05ED60030256341211E72274ACC0E0740FC0E07400C0DF
:20564000E0C0E0C0E0C0E0C0E074A7C0E07400C0E07432C0E0749FC0E07480C0E075826235
:20566000758378124DECAF82E58124F4F581BF01028003025691C2AF900FAA74FFF0A3F06C
:20568000900FA47401F0900FA17400F0A3F0121169909F31E49322C2AF900FA47400F0127C
:2056A00011E622900FAFE02401F022C00D85810DE5812416F581E50D2410F87400F608F6F0
:2056C000087600E50D2413F87600C0E0C0A8C2AF900FAFE014F0E06003025D04900FA0E045
:2056E0007003025D04900F7AE07003025C9E900F80E0FAA3E0FBA3E0FC74082AFA74003B27
:20570000FB8A828B838CF0129BCFFAA3129BCFFBA3129BCFFCE50D2410F8A60208A60308CE
:20572000A604E50D2410F8E50D240AF9741126F77400083609F708E609F7E50D2410F874B4
:205740001C26FA74000836FB0886048A828B838CF0E50D2414F8129BCFF6A3129BCF08F687
:20576000A3129BCF08F6E50D2410F8741326FA74000836FB0886048A828B838CF0129BCFF6
:20578000FDA3129BCFFEA3129BCFFFA80D0874052DF674003E08F608A607E50D2410F8E510
:2057A0000D2404F9741626F77400083609F708E609F7E50D2404F886820886830886F012B9
:2057C0009BCFFDA3129BCFFEA3129BCFFFA80D0886820886830886F0ED1295E2A3EE129525
:2057E000E2A3EF1295E2E50D2404F886820886830886F0129BCFFDA3129BCFFEA3129BCF4E
:20580000FF74022DFD74003EFE8A828B838CF0129BCFFAA3129BCFFBA3129BCFFC8D828E5B
:20582000838FF0EA1295E2A3EB1295E2A3EC1295E2E50D2414F8740126FC74000836FB0856
:2058400086028C828B838AF0129BCFFDA3129BCFFEA3129BCFFFE50D240AF8C005C006C013
:205860000786820886830886F0120091158115811581700280030258A8E50D2404F8868214
:205880000886830886F0129BCFFDA3129BCFFEA3129BCFFF8C828B838AF0ED1295E2A3EE28
:2058A0001295E2A3EF1295E2E50D240AF8740B26FD74000836FE0886078D828E838FF07432
:2058C000001295E2A31295E2A31295E2E50D2414F886820886830886F0129BCFFF1FE50DA2
:2058E0002414F886820886830886F0EF1295E2E50D2410F8740326FD74000836FE0886076C
:20590000A80D08740B2DF674003E08F608A607A80D0886820886830886F0E50D2414F9123A
:205920009BCFF7A3129BCF09F7A3129BCF09F7E50D2404F874022DF674003E08F608A607B8
:20594000E50D2404F886820886830886F0129BCFFAA3129BCFFBA3129BCFFCE50D2407F8DE
:2059600074052AF674003B08F608A604E50D240AF874052DF674003E08F608A607E50D2400
:205980000AF886820886830886F0129BCFFAA3129BCFFBA3129BCFFCE50D2407F88682089E
:2059A00086830886F0EA1295E2A3EB1295E2A3EC1295E2E50D240AF886820886830886F00F
:2059C000129BCFFAA3129BCFFBA3129BCFFCE50D2407F874022AF674003B08F608A604E52D
:2059E0000D2404F886820886830886F0129BCFFAA3129BCFFBA3129BCFFCE50D2407F8869D
:205A0000820886830886F0EA1295E2A3EB1295E2A3EC1295E2E50D2414F8E50D2407F97427
:205A20000126F77400083609F708E609F7E50D2407F886820886830886F0129BCFFAA312D1
:205A40009BCFFBA3129BCFFCC005C006C0078A828B838CF012009115811581158170028087
:205A600003025A9AE50D240AF886820886830886F0129BCFFAA3129BCFFBA3129BCFFCE5EE
:205A80000D2407F886820886830886F0EA1295E2A3EB1295E2A3EC1295E2C005C006C0074B
:205AA000A80D0886820886830886F074001295E2A31295E2A31295E2E50D2414F88682080B
:205AC00086830886F0129BCFFC1CE50D2414F886820886830886F0EC1295E2E50D2410F85F
:205AE000E50D240DF9741F26F77400083609F708E609F7E50D240DF886820886830886F088
:205B0000129BCFFC900FA3E0FFC3EF9CD007D006D0054003025B1C900FA3ECF0E50D240D1F
:205B2000F886820886830886F0129BCFFCEC75F00CA4242CFB740F35F0FC8B828C83A3E0CF
:205B4000FAA3E0FBA3E0FCE50D2404F886820886830886F0EA1295E2A3EB1295E2A3EC127A
:205B600095E2E50D2407F874052AF674003B08F608A604E50D2407F886820886830886F0F5
:205B8000129BCFFAA3129BCFFBA3129BCFFCE50D240AF886820886830886F0EA1295E2A395
:205BA000EB1295E2A3EC1295E2E50D2407F886820886830886F0129BCFFAA3129BCFFBA37A
:205BC000129BCFFC74022AFA74003BFB8A828B838CF0ED1295E2A3EE1295E2A3EF1295E2C8
:205BE000E50D2407F886820886830886F0ED1295E2A3EE1295E2A3EF1295E2E50D240DF833
:205C000086820886830886F0129BCFFFEF75F00CA4242CFE740F35F0FF7D00A80D08868237
:205C20000886830886F0EE1295E2A3EF1295E2A3ED1295E2E50D240DF88682088683088668
:205C4000F0129BCFFFEF75F00CA4242CFE740F35F0FF8E828F83E0FD0D8E828F83EDF0E5F0
:205C60000D240DF886820886830886F0129BCFFF900F9DE0FCA3E0FDA3E0FE741F2CFC7494
:205C8000003DFD8C828D838EF0129BCFFCC3EF9C50030256E5900FA77401F00256E5E50DFE
:205CA0002410F8E608467003025CAE1278E3900FA5E0FEA3E0FF8E048F05EE4F7003025CC0
:205CC000F18C068D07C007C006125DB9E582D006D0077003025CDD900FA77401F01EBEFFB0
:205CE000011FEE4F6003025CC5900FA57400F0A3F0900FA7E07003025D04E50D2413F876F3
:205D0000011211E7D0E053E080E5E042A8D0E0E50D2413F88682850D81D00D22C0E0C0A873
:205D2000C2AF900FA1E0FEA3E0FFD0E053E080E5E042A8D0E08E828F8322900FA1E0FEA38B
:205D4000E0FF8E828F8322900FA0E0FF8F8222AD82AE83AFF0ED4E6003025D6A900F9DE04D
:205D6000FAA3E0FBA3E0FC025D708D028E038F0474232AFA74003BFB8A828B838CF022AEDF
:205D800082AF83C007C0061256A3D006D007C0E0C0A8C2AF900FA5E0FCA3E0FD900FA5EEBF
:205DA0002CF0EF3DA3F0D0E053E080E5E042A8D0E01256ABAF828F8222C00D85810DE58189
:205DC0002418F581E50D2413F87600900FAFE06003026556900FA1E0FDA3E0FEE50D241464
:205DE000F874012DF674003E08F6E50D2414F8900FA1E6F008E6A3F0E50D2414F8E6084654
:205E00006003025E3E900F74E0FAA3E0FBA3E0FC8B058C06900F77E0FBA3E0FCA3E0FF90F3
:205E20000F74EBF0ECA3F0EFA3F0900F77EAF0EDA3F0EEA3F0900FA8E004F01278E3900FEB
:205E4000AAE0FBA3E0FCE50D2414F8C3E69B08E69C5003026505900F74E0FAA3E0FBA3E0A1
:205E6000FC8A828B838CF0129BCF6003025E7A900FAA74FFF0A3F0026505900F74E0FAA39C
:205E8000E0FBA3E0FC74042AFA74003BFB74022AFA74003BFB8A828B838CF0129BCFFAA36F
:205EA000129BCFFBA3129BCFFC74082AFA74003BFB8A828B838CF0129BCFFAA3129BCFFBE0
:205EC000A3129BCFFCE50D2410F8A60208A60308A604E50D2410F8740326FD74000836FE16
:205EE0000886078D828E838FF0129BCFFFA3129BCFFEE50D2414F8C3E69F08E69E4003029B
:205F00005F0D900FAAEFF0EEA3F0026505E50D2410F8740326FD74000836FE088607E50D11
:205F20002410F8740E26FA74000836FB0886048A828B838CF0E50D2416F8129BCFF6A31273
:205F40009BCF08F6A3129BCF08F6E50D2410F8E50D2404F9740526F77400083609F708E655
:205F600009F7E50D2404F886820886830886F0129BCFFAA3129BCFFBA3129BCFFCE50D24B7
:205F800007F874052AF674003B08F608A604E50D2410F8A90D09740826F77400083609F7E2
:205FA00008E609F7A80D0886820886830886F0129BCFFAA3129BCFFBA3129BCFFCE50D24DE
:205FC00007F886820886830886F0EA1295E2A3EB1295E2A3EC1295E2A80D088682088683B3
:205FE0000886F0129BCFFAA3129BCFFBA3129BCFFCE50D2407F874022AF674003B08F60818
:20600000A604E50D2404F886820886830886F0129BCFFAA3129BCFFBA3129BCFFCE50D246C
:2060200007F886820886830886F0EA1295E2A3EB1295E2A3EC1295E2E50D2416F8E50D24EE
:2060400007F9740126F77400083609F708E609F7E50D2407F886820886830886F0129BCFE6
:20606000FAA3129BCFFBA3129BCFFCC005C006C0078A828B838CF0120091158115811581A4
:20608000700280030260BBA80D0886820886830886F0129BCFFAA3129BCFFBA3129BCFFCEF
:2060A000E50D2407F886820886830886F0EA1295E2A3EB1295E2A3EC1295E2E50D240DF877
:2060C000740B2DF674003E08F608A607E50D240DF886820886830886F074001295E2A31255
:2060E00095E2A31295E2C005C006C007E50D2416F886820886830886F0129BCFFF1FE50D64
:206100002416F886820886830886F0EF1295E2E50D2410F8E50D2407F9741126F7740008EC
:206120003609F708E609F7E50D2407F8A90D09740B26F77400083609F708E609F7A80D086E
:2061400086820886830886F0129BCFFAA3129BCFFBA3129BCFFCD007D006D005EA4B7003D3
:20616000026318C005C006C007E50D2416F8A60208A60308A604E50D2407F8740226FD74FF
:20618000000836FE0886078D828E838FF0129BCFFAA3129BCFFBA3129BCFFCE50D240AF8CC
:2061A00074052AF674003B08F608A604E50D2407F8E50D2404F9740526F77400083609F777
:2061C00008E609F7E50D2404F886820886830886F0129BCFFAA3129BCFFBA3129BCFFCE598
:2061E0000D240AF886820886830886F0EA1295E2A3EB1295E2A3EC1295E2E50D2404F8869B
:20620000820886830886F0129BCFFAA3129BCFFBA3129BCFFC74022AFA74003BFB8D828EE1
:20622000838FF0129BCFFDA3129BCFFEA3129BCFFF8A828B838CF0ED1295E2A3EE1295E282
:20624000A3EF1295E2E50D2416F8E50D240AF9740126F77400083609F708E609F7E50D249E
:206260000AF886820886830886F0129BCFFDA3129BCFFEA3129BCFFFE50D2407F8C005C037
:2062800006C00786820886830886F012009115811581158170028009D007D006D005026254
:2062A000DDD007D006D005E50D2404F886820886830886F0129BCFFAA3129BCFFBA3129BF6
:2062C000CFFCE50D240AF886820886830886F0EA1295E2A3EB1295E2A3EC1295E2A80D08E5
:2062E00086820886830886F074001295E2A31295E2A31295E2E50D2416F88682088683086D
:2063000086F0129BCFFC1CE50D2416F886820886830886F0EC1295E2C005C006C007E50DFF
:206320002410F8E50D2407F9741F26F77400083609F708E609F7E50D2407F886820886839D
:206340000886F0129BCFFC900FA3E0FFC3EF9CD007D006D005400302635F900FA3ECF0E54C
:206360000D2407F886820886830886F0129BCFFCEC75F00CA4242CFB740F35F0FC8B828C55
:2063800083A3E50D2416F8E0F6A3E008F6A3E008F674022DFA74003EFB8F048A828B838C58
:2063A000F0E50D2416F8E61295E2A308E61295E2A308E61295E2E50D240AF874052DF674FE
:2063C000003E08F608A607E50D2416F8A90D09740526F77400083609F708E609F7A80D08F6
:2063E00086820886830886F0129BCFFAA3129BCFFBA3129BCFFCE50D240AF886820886832A
:206400000886F0EA1295E2A3EB1295E2A3EC1295E2A80D0886820886830886F0129BCFFA92
:20642000A3129BCFFBA3129BCFFC74022AFA74003BFB8A828B838CF0ED1295E2A3EE12959F
:20644000E2A3EF1295E2A80D0886820886830886F0ED1295E2A3EE1295E2A3EF1295E2E55B
:206460000D2407F886820886830886F0129BCFFFEF75F00CA4242CFE740F35F0FF7D00E57F
:206480000D240DF886820886830886F0EE1295E2A3EF1295E2A3ED1295E2E50D2407F886E9
:2064A000820886830886F0129BCFFFEF75F00CA4242CFE740F35F0FF8E828F83E0FD0D8EBD
:2064C000828F83EDF0E50D2407F886820886830886F0129BCFFF900F9DE0FCA3E0FDA3E009
:2064E000FE741F2CFC74003DFD8C828D838EF0129BCFFCC3EF9C5003025E56E50D2413F8A9
:206500007601025E56900F9DE0FDA3E0FEA3E0FF741F2DFD74003EFE8D828E838FF0129B79
:20652000CFFDED75F00CA4242CF582740F35F0F583E0FFC374019F4003026543E50D2413DA
:20654000F87601900FA7E07003026562E50D2413F87601026562900FA5E02401F0A3E03419
:2065600000F0E50D2413F88682850D81D00D22C00D85810DE581240AF581900FAFE0700365
:2065800002658C900FA77401F00266FC900FA77400F0900FA3E0FFEF75F00CA4FDAEF0EDA2
:2065A000242CFBEE340FFC8B828C83E060030265B51F026597E50D2407F8A607ED242CFDCF
:2065C000EE340FFEE50D2408F8A60508A606087600E50D2408F8740126FA74000836FB0839
:2065E00086078A828B838FF0129BCFFCA3129BCFFDA3129BCFFE74022CFC74003DFD8C826A
:206600008D838EF0129BCFFCA3129BCFFDA3129BCFFE8A828B838FF0EC1295E2A3ED1295F6
:20662000E2A3EE1295E28A828B838FF0A80D08129BCFF6A3129BCF08F6A3129BCF08F6E577
:206640000D2404F8A60408A60508A606E50D2408F8740426FC74000836FD088606E50D24F3
:2066600004F8C004C005C00686820886830886F0120091158115811581700280030266B7BF
:20668000A80D08740226FC74000836FD0886068C828D838EF0129BCFFCA3129BCFFDA3127D
:2066A0009BCFFE8A828B838FF0EC1295E2A3ED1295E2A3EE1295E28A828B838FF0129BCF1C
:2066C000FAA3129BCFFBA3129BCFFF74082AFA74003BFB8A828B838FF0129BCFFAA3129BDF
:2066E000CFFBA3129BCFFF900F9DEAF0EBA3F0EFA3F0E50D2407F8900FA3E6F0850D81D08C
:206700000D22C00D85810DAD82AE83AFF0900F9DE0FAA3E0FBA3E0FC74112AFA74003BFB05
:20672000C002C003C0048D828E838FF0122C761581158115817401C0E0E50D24FCF88682D4
:2067400008868312946A1581D00D22C00D85810DC082C083C0F0058105810581900F9DE0C0
:20676000FAA3E0FBA3E0FC74112AFA74003BFBE50D24FCF886060886074307808A828B83C0
:206780008CF0EE1295E2A3EF1295E2A80D08740126FD74000836FE0886078D828E838FF0B2
:2067A000129BCFFDA3129BCFFEA3129BCFFF900F9DE0FAA3E0FBA3E0FC74112AFA74003BBA
:2067C000FB74022AFA74003BFB8A828B838CF0ED1295E2A3EE1295E2A3EF1295E2900F9DFD
:2067E000E0FAA3E0FBA3E0FC74112AFA74003BFBE50D2404F874052AF674003B08F608A669
:206800000474052DFD74003EFE8D828E838FF0129BCFFAA3129BCFFBA3129BCFFCE50D24C1
:2068200004F886820886830886F0EA1295E2A3EB1295E2A3EC1295E28D828E838FF0129BD7
:20684000CFFAA3129BCFFBA3129BCFFCE50D2404F874022AF674003B08F608A604900F9DF7
:20686000E0FAA3E0FBA3E0FC74112AFA74003BFBE50D2404F886820886830886F0EA1295B4
:20688000E2A3EB1295E2A3EC1295E2900F9DE0FAA3E0FBA3E0FC74112AFA74003BFB8D8272
:2068A0008E838FF0EA1295E2A3EB1295E2A3EC1295E2900F9DE0FDA3E0FEA3E0FF74112DD8
:2068C000FD74003EFE740B2DFD74003EFE8D828E838FF0A80D08E61295E2A308E61295E2CD
:2068E000A308E61295E2A80D0886820886830886F0129BCFFF0FA80D08868208868308863C
:20690000F0EF1295E27401C0E0E50D24FAF8868208868312946A1581850D81D00D22C00D54
:2069200085810DE5812419F581AD82AE83AFF074042DFD74003EFE74022DFD74003EFE8DFD
