:200000000200BF32FFFFFFFFFFFFFF32FFFFFFFFFFFFFF32FFFFFFFFFFFFFF32FFFFFFFF70
:20002000FFFFFF32FFFFFFFFFFFFFF32FFFFFFFFFFFFFF32FFFFFFFFFFFFFF32FFFFFFFF14
:20004000FFFFFF32FFFFFFFFFFFFFF32FFFFFFFFFFFFFF020638FFFFFFFFFF32FFFFFFFFE4
:20006000FFFFFF32FFFFFFFFFFFFFF32FFFFFFFFFFFFFF021315FFFFFFFFFF32FFFFFFFFDA
:20008000FFFFFF32FFFFFFFFFFFFFF0215840208D7E58124FCC3C8C0E0C082E6084670061F
:2000A000E5824583601218E58296F58208E58396428208E5F0964582D082C8D0E0C82275E6
:2000C0008120129F95E582600302008E792BE94400601B7A0190A072789A75A00FE493F2D7
:2000E000A308B8000205A0D9F4DAF275A0FFE478FFF6D8FD7800E84400600A790175A00086
:20010000E4F309D8FC7899E8440F600C7910900001E4F0A3D8FCD9FA9000147400F0A3F0A0
:20012000900016F0A3F0900018F0A3F090001AF0A3F0900F3D7400F0A3F0A3F002008E75D3
:2001400096295397FEE5EA75EA0075F80022C00D85810DAF82C0071257D0D007E50D24FD40
:20016000F8E660030201BEC374079F5003020212EF240A83F582EF240C83F583E4738E948D
:200180009AA0A6ACB2B8010101010101010143F80102021243F80202021243F80402021267
:2001A00043F80802021243F81002021243F82002021243F84002021243F880020212C3747B
:2001C000079F5003020212EF240A83F582EF240C83F583E473E5EBF1F7FD03090F010101B5
:2001E000010102020253F8FE02021253F8FD02021253F8FB02021253F8F702021253F8EF4C
:2002000002021253F8DF02021253F8BF02021253F87F1257D8D00D22AF827E007D00C0076B
:20022000C006C0051257D0D005D006D007C374079F500302027CEF240A83F582EF240C830F
:20024000F583E47354595E63686D727702020202020202027E0102027E7E0202027E7E040E
:2002600002027E7E0802027E7E1002027E7E2002027E7E4002027E7E8002027E7D01BD01C8
:2002800003020298EE55F87003020295EEF4FFEF52F8020298EE42F81257D822AF96C0E052
:2002A000C0A8C2AF7596007596285397FD53EFDF7596285397FE53EFEF43C02043C010D0CD
:2002C000E053E080E5E042A8D0E08F9622AF82EF70030202E27E111EEE60030202D71F0272
:2002E00002CF227596285397FD53EFDF43C02043C0107582011202CD53C0DF7582011202C3
:20030000CD53C0EF7582011202CD2253C0EF7596285397FD53EFDF53C0DF7582011202CD0B
:2003200043C0107582011202CD43C020227F007596285397FD43EF207E0053C0EF75820228
:20034000C007C0061202CDD006D00743C010758202C007C0061202CDD006D007E5C020E5B1
:2003600003020367430701BE070040030203758F05ED25E0FF0EBE0800500302033A53C043
:20038000EF7596285397FD53EFDF53C0DF8F8222AF827E0053C0EF758201C007C0061202C4
:2003A000CDD006D007EF20E7030203B243C0200203B553C0DF758201C007C0061202CDD00E
:2003C00006D00743C010758201C007C0061202CDD006D0078F05ED25E0FF0EBE080050036E
:2003E00002039453C0EF7582011202CD7596285397FD43EF207582011202CD43C01075823A
:20040000021202CDE5C0A2E5E433FFEF24FFE433FF53C0EF758201C0071202CDD00775960B
:20042000285397FD53EFDF53C0DF758201C0071202CDD0078F8222AF827596285397FD5352
:20044000EFDF53C0DF53C0EFEF700302045443C02002045753C0DF7582011202CD43C010C0
:200460007582011202CD53C0EF22C00D85810DAF82C0071202E3D0075307FE8F82120390CB
:20048000E582700302048D12030B0204D37F00E50D24FAF8C3EF9640030204D0E50D24FBFD
:2004A000F8EF26FC74000836FD0886068C828D838EF0129D00FC8C82C007120390E582D0F8
:2004C0000770030204CC12030B0204D30F02048F12030BD00D22C00D85810DAF82C007122A
:2004E00002E3D0074307018F82120390E58270030204F912030B02056B7F00E50D24FAF84D
:20050000C3EF964003020562E50D24FBF8EF26FC74000836FD088606C007C006C005C00474
:2005200012032DAB82D004D005D006D0078C828D838EF0EB129713E50D24FAF886057E00A2
:200540001DBDFF011E8F037C00EBB50507ECB50603020562758200C007120437D0070F02E3
:2005600004FB75820112043712030BD00D2222AF82AE96C0E0C0A8C2AF75960090000874F1
:2005800000F0900007F090000AEFF0900009EFF0C007C0067400C0E004C0E08F821235A1B5
:2005A000AB82AC83ADF015811581D006D007900001EBF0ECA3F0EDA3F0C0067400C0E00420
:2005C000C0E08F821235A1AC82AD83AFF015811581D006900004ECF0EDA3F0EFA3F0C2AFA0
:2005E00043F60853F1F77596507597027596194397107596194397207596265397BF43ECE1
:200600001075962653977F43EC207596345397EF75E3C075E80043E50143E50243E5045382
:20062000E5F743E51043E608D2AFD0E053E080E5E042A8D0E08E9622C020C0E0C0F0C0827A
:20064000C083C007C006C005C004C003C002C001C000C0D075D000C00D85810DE5812408F4
:20066000F581E50D2408F87600C0E0C0A8C2AFAF9653F1F7E5E820E10302067F53E8FDE50A
:20068000E820E00302069153E8FEE50D2407F8A6E4E5E830E4030207199000087400F0906C
:2006A0000007F0E5E820E50302070FC007E50D2408FE7D007C40E50D2407FBA80D08A603BC
:2006C000087600087640900004E0FAA3E0FBA3E0FFC006C005C004A80D08E6C0E008E6C030
:2006E000E008E6C0E08A828B838FF0124566AF82E58124FAF581BF01028005D007020709DB
:20070000D007E50D2407F886E443E504020896E50D2407F8A6E4020896E5E820E50302079A
:20072000A1C007E50D2408FE7D007C40E50D2407FBA80D08A603087600087640900004E0CE
:20074000FAA3E0FBA3E0FFC006C005C004A80D08E6C0E008E6C0E008E6C0E08A828B838F48
:20076000F0124566AF82E58124FAF581BF01028005D00702077FD007E50D2407F886E49015
:200780000007E02401F0E0FE900009E0FDC3EE9D500302079B9000077400F043E504020893
:2007A00096E5E820E303020865C007E50D2407F8A6E4E50D2408FEA80D08A60608760008F0
:2007C0007640E50D2407FAE50D2404F8A602087600087640900001E0FBA3E0FCA3E0FFC029
:2007E00007C0067400C0E0A80D08E6C0E008E6C0E008E6C0E0E50D2404F8E6C0E008E6C073
:20080000E008E6C0E08B828C838FF0123A4BE58124F9F581D006D007900008E02401F0E025
:20082000FF90000AE0FDC3EF9DD0075003020896C0079000087400F07D007C4090001FE09E
:20084000FAA3E0FBA3E0FFC007C006C005C0048A828B838FF0123BAD158115811581D0075C
:20086000D007020896C007E50D2408FE7D007C40900022E0FAA3E0FBA3E0FFC007C006C00C
:2008800005C0048A828B838FF0123BAD158115811581D007D00743E504E50D2408F8E670F4
:2008A000030208A712122B8F96D0E053E080E5E042A8D0E0850D81D00DD0D0D000D001D04D
:2008C00002D003D004D005D006D007D083D082D0F0D0E0D02032221209F512013F7582013A
:2008E000122486758202121F2A75820012297C7404C0E07400C0E074C2C0E07401C0E074AF
:2009000000C0E07582021221F3E58124FBF5817405C0E07582021225D915817400C0E0C091
:20092000E0C0E0C0E074CDC0E074ABC0E07400C0E074A7C0E07400C0E07499C0E0749FC094
:20094000E07480C0E075824175830E124F19E58124F4F5817400C0E0C0E0C0E0C0E0C0E0E3
:20096000C0E0C0E074A7C0E07400C0E074A1C0E0749FC0E07480C0E07582F775830A124F1B
:2009800019E58124F4F5817400C0E0C0E0C0E0C0E0C0E0C0E0C0E074A7C0E07400C0E07433
:2009A000A1C0E0749FC0E07480C0E075829975830C124F19E58124F4F5817400C0E0C0E0F9
:2009C000C0E07403C0E07400C0E0C0E0C0E074A7C0E07400C0E074A6C0E0749FC0E07480DC
:2009E000C0E075826875830A124F19E58124F4F5811257622275962D5397DFC2AF53F67F61
:200A000053F17F75AEEF75920075910743E680D2AF53F7FE53D8FE120A1B22C00D85810D19
:200A20000581058153ADF143AD0853ADFEA80D087610087627A80D088606088607A80D0840
:200A4000EE24FFF6EF34FF08F6EE4F6003020A35850D81D00D22E5D820E003020A6453D821
:200A6000FE020A6743D801227F00900F9AE06003020A86759107758296758300C007125778
:200A80002CD007020A93758205758300C00712572CD007C007122AF6AE82D007BE010302C9
:200AA0000AA47F01C0071221CDAE82D007BE0103020AB57F01C00712246DAE82D007BE0107
:200AC00003020AC67F01C007122963AE82D007BE0103020AD77F01C007121EBDD007BF01E5
:200AE000028003020AEC900F9A7401F0C007120A56D007020A6A22C00D85810DE581240CBD
:200B0000F581A80D08762B08765208769A0876C4E50D2409F876DD08769A08761208764502
:200B2000E50D2409F8E6C0E008E6C0E008E6C0E008E6C0E0A80D0886820886830886F00812
:200B4000E61297FCAC82AD83AEF0FFE58124FCF581E50D2405F8A60408A60508A60608A641
:200B600007E50D2405F8E6C0E008E6C0E008E6C0E008E6C0E07582CD7583E475F08A7444E4
:200B800012972EAF82E58124FCF581EF6003020BC1749AC0E074E1C0E0748AC0E07444C078
:200BA000E0E50D2405F886820886830886F008E612972EAF82E58124FCF581EF7003020B4A
:200BC000D8C0E0C0A8C2AF900F9A7401F0D0E053E080E5E042A8D0E0E50D2409F8E6C0E0C7
:200BE00008E6C0E008E6C0E008E6C0E0A80D0886820886830886F008E6129C3DAC82AD83C0
:200C0000AEF0FFE58124FCF581E50D2405F8A60408A60508A60608A607E50D2405F8E6C0A9
:200C2000E008E6C0E008E6C0E008E6C0E075825C75838F75F00274BF12972EAF82E5812424
:200C4000FCF581EF6003020C797414C0E074AEC0E07407C0E074BFC0E0E50D2405F8868256
:200C60000886830886F008E612972EAF82E58124FCF581EF7003020B02C0E0C0A8C2AF9079
:200C80000F9A7401F0D0E053E080E5E042A8D0E0020B02850D81D00D22C00D85810DE5811D
:200CA000240CF581E50D2405F876450876D20876400876C6A80D08765C0876350876B708EF
:200CC0007646A80D08E6C0E008E6C0E008E6C0E008E6C0E0E50D2405F886820886830886B1
:200CE000F008E61297FCAC82AD83AEF0FFE58124FCF581E50D2409F8A60408A60508A60652
:200D000008A607E50D2409F8E6C0E008E6C0E008E6C0E008E6C0E075829A75839875F02D24
:200D2000744612972EAF82E58124FCF581EF6003020D637433C0E07498C0E0742DC0E07489
:200D400046C0E0E50D2409F886820886830886F008E612972EAF82E58124FCF581EF7003AB
:200D6000020D7AC0E0C0A8C2AF900F9A7401F0D0E053E080E5E042A8D0E0A80D08860408C2
:200D8000860508860608E6B2E7FFC004C005C006C007E50D2405F886820886830886F008E6
:200DA000E6129C3DAC82AD83AEF0FFE58124FCF581E50D2409F8A60408A60508A60608A695
:200DC00007E50D2409F8E6C0E008E6C0E008E6C0E008E6C0E07582147583AE75F007743FF5
:200DE00012972EAF82E58124FCF581EF6003020E21745CC0E0748FC0E07402C0E0743FC0D0
:200E0000E0E50D2409F886820886830886F008E612972EAF82E58124FCF581EF7003020CE2
:200E2000A4C0E0C0A8C2AF900F9A7401F0D0E053E080E5E042A8D0E0020CA4850D81D00D93
:200E4000227420B58103020E60C0E0C0A8C2AF900F9A7401F0D0E053E080E5E042A8D0E05A
:200E60008500E0E5E07003020E81C0E0C0A8C2AF900F9A7401F0D0E053E080E5E042A8D04B
:200E8000E08501E07401B5E003020EA3C0E0C0A8C2AF900F9A7401F0D0E053E080E5E042CB
:200EA000A8D0E08502E07402B5E003020EC5C0E0C0A8C2AF900F9A7401F0D0E053E080E531
:200EC000E042A8D0E08503E07403B5E003020EE7C0E0C0A8C2AF900F9A7401F0D0E053E030
:200EE00080E5E042A8D0E08504E07404B5E003020F09C0E0C0A8C2AF900F9A7401F0D0E0B9
:200F000053E080E5E042A8D0E08505E07405B5E003020F2BC0E0C0A8C2AF900F9A7401F0F1
:200F2000D0E053E080E5E042A8D0E08506E07406B5E003020F4DC0E0C0A8C2AF900F9A74EE
:200F400001F0D0E053E080E5E042A8D0E08507E07407B5E003020F6FC0E0C0A8C2AF900FC7
:200F60009A7401F0D0E053E080E5E042A8D0E074CDB58203020F8EC0E0C0A8C2AF900F9AE4
:200F80007401F0D0E053E080E5E042A8D0E074ABB58303020FADC0E0C0A8C2AF900F9A74EC
:200FA00001F0D0E053E080E5E042A8D0E0E5F0020E4122C00D85810DE581240EF581AD8219
:200FC000AE83AFF0E50D240CF8A60508A60608A607E50D2409F874012DF674003E08F608AC
:200FE000A607E50D24FCF886020886037C807F008A06E50D2409F886820886830886F0EE7A
:20100000129713E50D2405F8A60308A60408A607087600E50D2409F8740126FD7400083612
:20102000FE088607E50D2405F886028D828E838FF0EA1297130DBD00010E8D828E838FF0C5
:2010400074AA1297130DBD00010E8D828E838FF07480129713E50D2405F874012DF674006F
:201060003E08F608A607E50D24F9F886020886030886047F008A06E50D2405F88682088615
:20108000830886F0EE129713A80D08A60308A60408A607087600E50D2405F8740126FD743B
:2010A000000836FE088607A80D0886028D828E838FF0EA129713A80D0808E618F60808E626
:2010C00018F60808E618F60876000DBD00010EA80D0886028D828E838FF0EA1297130DBD53
:2010E00000010E8D828E838FF074021297130DBD00010E8D828E838FF074031297130DBD9B
:2011000000010E8D828E838FF074041297130DBD00010E8D828E838FF074051297130DBD76
:2011200000010E8D828E838FF074061297130DBD00010E8D828E838FF074071297130DBD52
:2011400000010E8D828E838FF074001297130DBD00010E8D828E838FF074011297130DBD3E
:2011600000010E8D828E838FF074001297130DBD00010E8D828E838FF074BB129713E50D3C
:20118000240CF88602EDC39AFDE50D240CF886820886830886F0ED129713E50D240CF8865E
:2011A000820886830886F0850D81D00D2212140F759600900FB2E0FDA3E0FEA3E0FF8D828C
:2011C0008E838FF0129D00F509A3129D00F50A750B20850982850A83E0F5080509E4B50932
:2011E00002050A050BA90B850982850A83E0FFA7071508E50860030211DB850B81D00DD052
:20120000D0D001D000D007D006D005D004D003D002D0F0D083D082D0E020E705C2AF0212BC
:2012200023D2AFD0E0327582012222C0E0C0A8C2AFC082C083C0F0C002C003C004C005C070
:2012400006C007C000C001C0D075D000C00D900FB2E0FDA3E0FEA3E0FF8D828E838FF012BC
:201260009D00F509A3129D00F50A750B21AF81EF24E0F508850982850A83E508F0E5087065
:201280000302129F0509E4B50902050A850982850A83A90B8707EFF0050B150802127D12C4
:2012A000668E900FB2E0FDA3E0FEA3E0FF8D828E838FF0129D00F509A3129D00F50A750BEC
:2012C00020850982850A83E0F5080509E4B50902050A050BA90B850982850A83E0FFA707BB
:2012E0001508E50860030212CA850B81D00DD0D0D001D000D007D006D005D004D003D00279
:20130000D0F0D083D082D0E020E705C2AF021312D2AFD0E032C0E0C0A8C2AFC082C083C0F3
:20132000F0C002C003C004C005C006C007C000C001C0D075D000C00D900FB2E0FDA3E0FE50
:20134000A3E0FF8D828E838FF0129D00F509A3129D00F50A750B21AF81EF24E0F50885091F
:2013600082850A83E508F0E50870030213890509E4B50902050A850982850A83A90B8707D9
:20138000EFF0050B1508021367125EE6E582700302139612668E53F17F53AEF7900FB2E0F8
:2013A000FDA3E0FEA3E0FF8D828E838FF0129D00F509A3129D00F50A750B20850982850A51
:2013C00083E0F5080509E4B50902050A050BA90B850982850A83E0FFA7071508E50860030C
:2013E0000213C4850B81D00DD0D0D001D000D007D006D005D004D003D002D0F0D083D08285
:20140000D0E020E705C2AF02140CD2AFD0E032AF96759600C2AF43F68053F17F53AEF75392
:2014200093FE7594017595475393F75393FD43930275962D5397EF4397105393FB859393A1
:2014400043E6804393018F9622C00D85810DC082C083C0F0C0E00581C0E0C0A8C2AFE50D1F
:201460002405F8A696759600750C017400C0E004C0E0E50D24FDF886821235A1AA82AB8375
:20148000AFF01581158190000BEAF0EBA3F0EFA3F07400C0E004C0E0E50D24FDF88682122F
:2014A00035A1AD82AE83AFF01581158190000EEDF0EEA3F0EFA3F0C2AF43F40453E1FB755D
:2014C000963453979F43972075961B43971075961B4397207596275397FE43EE1075962702
:2014E0005397FD53EEDFA80D080808860608E6C454F0CEC4CE6ECE54F0CE6EFF1818E6C4A1
:20150000540F4EFE18860408E6C454F0CCC4CC6CCC54F0CC6CFDC004C005C006C00775826A
:201520000075833675F06E7401129A5DAC82AD83AEF0FFE58124FCF5818CDC8D0474035C69
:20154000F5DE43DE0843DE0443DD4053DDEF43DD2053DDFB43DD0853DDFD43DD0153DFE7F1
:2015600043E704E50D2405F88696D0E053E080E5E042A8D0E075820075830075F000850D66
:2015800081D00D22C020C0E0C0F0C082C083C007C006C005C004C003C002C001C000C0D06A
:2015A00075D000C00D85810DE5812405F581E50D2405F87600C0E0C0A8C2AF53E1FBE5DF0C
:2015C00020E30302161BE50D2404F8A6E275DF17E50D2405FF7E007D40E50D2404FCA80DAD
:2015E00008A60408760008764090000BE0FAA3E0FBA3E0FC7400C0E0C007C006C005A80D70
:2016000008E6C0E008E6C0E008E6C0E08A828B838CF0123A4BE58124F9F581E5DF20E00333
:2016200002162675DF1EE5DF20E10302163175DF1DE5DF20E20302163C75DF1BE5DF20E424
:20164000030216A575DF0FE50D2405FF7E007D40E50D2404FCA80D08A60408760008764059
:2016600090000EE0FAA3E0FBA3E0FCC007C006C005A80D08E6C0E008E6C0E008E6C0E08ABA
:20168000828B838CF0124566AF82E58124FAF581BF010280030216A2E50D2404F886E202DB
:2016A00016A5750C01E50D2405F8E670030216B312122BD0E053E080E5E042A8D0E0850D13
:2016C00081D00DD0D0D000D001D002D003D004D005D006D007D083D082D0F0D0E0D0203239
:2016E000C00D85810DE50D24FBF8860508860608860790000BE0FAA3E0FBA3E0FCE50D24C5
:20170000F9F8E6C0E008E6C0E0C005C006C0078A828B838CF0123CE7AF82E58124FBF5817B
:20172000EF700302172C75820102172F758200D00D22C00D85810DC0E0C0A8C2AF7401B549
:201740000C028003021759E50D24FDF886E2750C0075DF0F7F010217A0E50D24FDFE8E0750
:201760007D007C4090000EE0FAA3E0FBA3E0FE7400C0E0E50D24FBF8E6C0E008E6C0E0C0C8
:2017800007C005C0048A828B838EF012374CAE82E58124FAF5818E07EE60030217A07F0143
:2017A000D0E053E080E5E042A8D0E08F82D00D22227400C0E07403C0E07582141235A1AD6A
:2017C00082AE83AFF015811581900011EDF0EEA3F0EFA3F02222C00D85810DC082C083055C
:2017E0008105810581E50D2403FD7C007B40900011E0FAA3E0FEA3E0FFA80D08E6C0E00846
:20180000E6C0E0C005C004C0038A828E838FF0123CE7AF82E58124FBF581BF0102800302B2
:201820001832E50D2403F886820886830886F002183B75820075830075F000850D81D00D1D
:2018400022C00D85810DC082E5812406F5817582087583001231C0AC82AD83AEF0A80D088B
:2018600008A60408A60508A606A80D0808E6084670030219F97403C0E07400C0E0758201AC
:201880001235A1AA82AB83AFF015811581A80D080886820886830886F0EA129713A3EB1299
:2018A0009713A3EF129713A80D080886820886830886F0129D00FEA3129D00FDA3129D0086
:2018C000FCEA4B70030218E57400C0E0C0E0C0E0C0E0C0E0C0E08E828D838CF012374CE51B
:2018E0008124FAF581A80D080886820886830886F0129D00FAA3129D00FBA3129D00FFEA46
:201900004B70030219F9A80D0808740326FA74000836FB088607758204758300C007C003DA
:20192000C0021231C0AC82AD83AEF0D002D003D0078A828B838FF0EC129713A3ED129713DD
:20194000A3EE1297138C828D838EF074FF129713A37400129713A3129713A3129713A80D29
:201960000808740626FD74000836FE0886078D828E838FF07400129713A3129713A80D088A
:20198000088604088605088606C0E0C0E0C0E0C0E0C004C005C00674A7C0E07400C0E0747C
:2019A000B2C0E0749FC0E07480C0E07582C175831B124F19E58124F4F581A80D0808860406
:2019C0000886050886067400C0E0C0E0C0E0C0E0C004C005C00674A7C0E07400C0E074BAA0
:2019E000C0E0749FC0E07480C0E07582C175831B124F19E58124F4F58175820875830012BE
:201A000031C0AD82AE83AFF0E50D2405F8A60508A60608A607E50D2405F8E60846700302F3
:201A20001BBB7403C0E07400C0E07582011235A1AA82AB83ACF015811581E50D2405F8860A
:201A4000820886830886F0EA129713A3EB129713A3EC129713E50D2405F886820886830806
:201A600086F0129D00FFA3129D00FEA3129D00FDEA4B7003021A947400C0E0C0E0C0E0C037
:201A8000E0C0E0C0E08F828E838DF012374CE58124FAF581E50D2405F8868208868308863E
:201AA000F0129D00FAA3129D00FBA3129D00FCEA4B7003021BBBE50D2405F8740326FA7454
:201AC000000836FB088604758204758300C004C003C0021231C0AD82AE83AFF0D002D00358
:201AE000D0048A828B838CF0ED129713A3EE129713A3EF1297138D828E838FF074FF12977D
:201B000013A3740F129713A37400129713A3129713E50D2405F8740626FD74000836FE0836
:201B200086078D828E838FF0740A129713A37400129713E50D2405F88605088606088607A5
:201B40007400C0E0C0E0C0E0A80D08E6C0E0C005C006C00774A7C0E07400C0E074C2C0E0F7
:201B6000749FC0E07480C0E07582C175831B124F19E58124F4F581E50D2405F886050886B9
:201B8000060886077400C0E0C0E0C0E0A80D08E6C0E0C005C006C00774A7C0E07400C0E0F2
:201BA00074CAC0E0749FC0E07480C0E07582C175831B124F19E58124F4F581850D81D00DD7
:201BC00022C00D85810DE5812411F581AE82AC83ABF0E50D240EF87400F608F6C0E0C0A86C
:201BE000C2AF900FA3E0FAA3E0FFE50D2410F8A60208A607900FA3E0FAA3E0FD900FA37409
:201C0000012AF074003DA3F0D0E053E080E5E042A8D0E07582AF75839F75F080C006C004F7
:201C2000C0031217D5D003D004D006E50D2407F8A60608A60408A603E50D2407F874032690
:201C4000FB74000836FE0886078B828E838FF0E50D2404F8129D00F6A3129D0008F6A312EB
:201C60009D0008F6E50D2407F8A90D09740626F77400083609F708E609F7A80D08868208F1
:201C800086830886F0129D00FEA3129D00FFEE4F7003021CA8E50D240AF876FF08760F74BB
:201CA0000008F608F6021CB7E50D240AF876FF740008F608F608F6A80D088682088683087A
:201CC00086F0129D00FEA3129D00FFE50D2407F886820886830886F0129D00FBA3129D00E8
:201CE000FCA3129D00FDC006C0078B828C838DF0123FA9AF8215811581BF01028003021EB7
:201D000096E50D2404F886820886830886F0129D00FBA3129D00FDA3129D00FEA3129D00E9
:201D2000FFE50D240AF8E6B5031208E6B5050D08E6B5060808E6B50703021D527582AC7540
:201D4000839F75F0801217D5E50D240EF876010876007B007E007D007F00E50D240AF8C39D
:201D6000E69B08E69E08E69D08E69F5003021DBCE50D2404F886820886830886F0EB1297D3
:201D800013A3EE129713A3ED129713A3EF129713E50D2404F886820886830886F0129D00F1
:201DA000A3129D00A3129D00A3129D000BBB00090EBE00050DBD00010F021D5AE50D24071D
:201DC000F886820886830886F0129D00FDA3129D00FEA3129D00FF7400C0E0C0E0C0E0C013
:201DE000E0C0E0C0E08D828E838FF012374CAF82E58124FAF581EF6003021E127582AC75C8
:201E0000839F75F0801217D5E50D240EF87601087600E50D240EF8E608466003021E63E591
:201E20000D2410F88606088607C3EE9404EF648094804003021E63E50D2410F8E625E0FE4B
:201E400008E633FFEE249BFEEF340FFF8E828F83E0FCA3E0FD0CBC00010D8E828F83ECF034
:201E6000EDA3F0A80D0886820886830886F0129D00FEA3129D00FFC006C00775820A75830A
:201E80000012975EAE82AF83158115818E828F8312572C021CB7A80D0886820886830886BD
:201EA000F0129D00FEA3129D00FFEE4F6003021CB712122B021CB7850D81D00D227F017E8B
:201EC00000EE75F002A4FCADF0EC2414F582ED3400F583E0FAA3E0FBEC249BF582ED340F92
:201EE000F583E0FCA3E0FDEAB50406EBB505028003021EF67F00EE75F002A4FCADF0EC2404
:201F000014FAED3400FBEC249BF582ED340FF583E0FCA3E0FD8A828B83ECF0EDA3F00EBE2F
:201F200004005003021EC18F8222AF82C0077400C0E07402C0E075820A1235A1AC82AD83CD
:201F4000AEF015811581D00790001CECF0EDA3F0EEA3F0EC4D7003021FD0C0077400C0E0DF
:201F6000C0E0C0E0C007741CC0E07400C0E07400C0E074A7C0E07400C0E07429C0E074A0E2
:201F8000C0E07480C0E07582A5758320124F19E58124F4F581D0077400C0E0C0E0C0E0C000
:201FA00007741CC0E07400C0E07400C0E074A7C0E07400C0E07431C0E074A0C0E07480C046
:201FC000E07582D175831F124F19E58124F4F58122C00D85810DC082C083C0F00581058191
:201FE0000581E50D2404F87400F608F67C00E50D2406F87600C004E50D2404FA7C007F40C8
:20200000A80D0886030886050886068B828D838EF0129D00FBA3129D00FDA3129D00FEC0AF
:20202000047400C0E0C0E0C0E0C002C004C0078B828D838EF012374CAF82E58124FAF581A0
:20204000D004BF0105D004022051D0047C01022079EC600302206EC0E0C0A8C2AF900FA617
:20206000E004F0D0E053E080E5E042A8D0E0E50D2404F806B600020806E50D2406F806E5ED
:202080000D2406F8C3E6648094835003021FF575820A758300C00412572CD004021FEE854A
:2020A0000D81D00D22C00D85810DC082C083C0F00581058105817B007C00E50D2406F8766B
:2020C00000C003C004A80D0886020886060886078A828E838FF0129D00FBA3129D00FCA3D4
:2020E000129D00FD8B828C838DF0C007C006C004C003C002124749E582D002D003D004D073
:2021000006D007D004D00370030221B3C003C004E50D2404FD8D037C007D408A828E838FDF
:20212000F0129D00FAA3129D00FEA3129D00FFC004C0037400C0E0C0E0C003C004C0058A54
:20214000828E838FF0123CE7AF82E58124FBF581D003D004BF01028007D004D0030220C192
:20216000D004D003E50D2404F8E6B5030808E6B50403022189E50D2406F87601E50D240405
:20218000F886030886040221ABE50D2406F8E660030221ABC0E0C0A8C2AF900FA5E004F0A2
:2021A000D0E053E080E5E042A8D0E00BBB00010C0220C1758208758300C004C00312572C94
:2021C000D003D0040220C1850D81D00D22900FA5E070030221DF900FA6E060030221E47FBC
:2021E000000221E67F01900FA57400F0900FA6F08F8222C00D85810DAF82E50D24F9F8909E
:202200000FAAE6F0C0077418C0E0E50D24FAF886820886830886F008E61214491581D007D3
:202220008F061EC0077400C0E0C0E0C0E0C006C0E0C0E0C0E074A7C0E07400C0E07439C0EE
:20224000E074A0C0E07480C0E0758290758322124F19E58124F4F581D0077400C0E0C0E0BC
:20226000C0E0C007C0E0C0E0C0E074A7C0E07400C0E0743FC0E074A0C0E07480C0E07582B6
:202280003B758323124F19E58124F4F581D00D227F41900FA7E0FCA3E0FDA3E0FEC007745D
:2022A00000C0E0C0E0C0078C828D838EF0121732AE82158115811581D007BE010280030211
:2022C00022D0900FAAE0FE8E82C007120218D0070FC374589F4003022292900FAAE0FF7439
:2022E00000C0E08F8212014E1581125E49AE82AF8374032EFE74003FFF7D007C00740FC08A
:20230000E07400C0E0C0E0C0E08E828F838DF0EC12989EAC82AD83AEF0FFE58124FCF581BF
:20232000C3EC9405ED940040030223307C057D008C828D8312572C02229022C00D85810DD5
:20234000E5812405F5817F00A80D0876007B41C007E50D2405FCA80D0808A6040876000837
:202360007640900FA7E0FDA3E0FEA3E0FFC004C00374FFC0E0C0E0A80D0808E6C0E008E60E
:20238000C0E008E6C0E08D828E838FF01216E0AF82E58124FBF581D003D004EFD00770035C
:2023A0000223D0E50D2405F8E6B5030280030223CB900FAAE0FE0E8E82C007C004C003125D
:2023C0000218D003D004D0070223D07F010223E20BC3745864808BF063F08095F040030253
:2023E000234F900FAAE0FE0EC007C0047400C0E08E8212014E1581D004D007BF01028003A0
:202400000224508C06E50D2405F8B658030224478E077C007B40C006900FA7E0FAA3E0FDF1
:20242000A3E0FEC00674FFC0E0C0E0C007C004C0038A828D838EF01216E0E58124FBF581B7
:20244000D006D006022405A80D08067F0002234DA80D08C3E664809482400302234D900F3D
:20246000ABE004F002234D850D81D00D22900FABE0600302247B7F0002247D7F01900FAB3F
:202480007400F08F8222AF827E00C007C0067400C0E0C0E0C0E0C007C0E0C0E0C0E074A753
:2024A000C0E07400C0E07445C0E074A0C0E07480C0E07582D2758324124F19E58124F4F5F5
:2024C00081D006D0070EC3EE64809481500302248A22C00D85810D058105810581C0E0C01F
:2024E000A8C2AF900FACE0FFA80D08A607E004F0D0E053E080E5E042A8D0E0A80D08860551
:202500007E00C005C00675824D75830112975EAD82AE8315811581744D2DFD74013EFE7CCA
:20252000007B00740AC0E07400C0E0C0E0C0E08D828E838CF0EB129A5DAB82AC83ADF0FE27
:20254000E58124FCF5818B05ECC313CD13CDFEC006C005125E49AB82AC83D005D006A80D82
:202560000808A60308A604E50D2402FC8C027B007F40C006C005C004C005C0068A828B8320
:202580008FF012564415811581D004D005D006A80D088682C006C005C004120218D004D081
:2025A00005D0067F007B40C006C005C005C0068C828F838BF012564415811581D005D006D2
:2025C000A80D088682C006C005120218D005D006022567850D81D00D22C00D85810DAF8223
:2025E000E50D24FDF8900FADE6F0758218C00712056FD007C00712029CD007C0077403C02F
:20260000E07400C0E07582011235A1AC82AD83AEF015811581D007900022ECF0EDA3F0EEEB
:20262000A3F0EC4D700302264AC0077400C0E0C0E0C0E0C0E0C0E0C0E08C828D838EF01240
:20264000374CE58124FAF581D007C0077403C0E07400C0E07582011235A1AC82AD83AEF058
:2026600015811581D00790001FECF0EDA3F0EEA3F0EC4D7003022699C0077400C0E0C0E0E3
:20268000C0E0C0E0C0E0C0E08C828D838EF012374CE58124FAF581D007C0077400C0E0C01D
:2026A000E0C0E0C007C0E0C0E0C0E074A7C0E07400C0E0744AC0E074A0C0E07480C0E07509
:2026C00082C3758327124F19E58124F4F581D007C0077400C0E0C0E0C0E0C007C0E0C0E02F
:2026E000C0E074A7C0E07400C0E07452C0E074A0C0E07480C0E075823E758327124F19E50A
:202700008124F4F581D0071F7400C0E0C0E0C0E0C007C0E0C0E0C0E074A7C0E07400C0E0EA
:20272000745AC0E074A0C0E07480C0E075828D758328124F19E58124F4F581D00D22C00D05
:2027400085810D0581900022E0FDA3E0FEA3E0FF74FFC0E0C0E08D828E838FF0123FA9AF53
:202760008215811581BF01028003022745A80D087641AF0D0F7E007D40900004E0FAA3E08D
:20278000FBA3E0FC7400C0E0C0E0C0E0C007C006C0058A828B838CF012374CE58124FAF575
:2027A00081900FADE0FF8F82120218A80D0806A80D08C374589640030227720227451581A9
:2027C000D00D22C00D85810D058105817F0090001FE0FCA3E0FDA3E0FEC00774FFC0E0C069
:2027E000E08C828D838EF0123FA9AE8215811581D007BE010280030228738F06A80D087687
:2028000041C006E50D2402FC8C077B007A40900001E0FCA3E0FDA3E0FE7400C0E0C0E0C0F3
:2028200007C003C0028C828D838EF0123CE7AE82E58124FBF581BE01028005D00602286169
:20284000D006A80D0808A90D0986F0E7B5F0030228530E900FADE0FD8D82C006120218D094
:2028600006A80D0806A80D08C374589640030228018E07C3EF6480948240030227CE900F25
:20288000AEE004F00227CE850D81D00D227418C0E07425C0E07400C0E07400C0E07582C069
:2028A0001204D6E58124FCF581125E49AE82AF8374032EFE74003FFF7D007C00740FC0E0A4
:2028C0007400C0E0C0E0C0E08E828F838DF0EC12989EAC82AD83AEF0FFE58124FCF581C317
:2028E000EC9405ED940040030228EF7C057D008C828D8312572C7418C0E07425C0E07400EC
:20290000C0E07400C0E07582C012046AE58124FCF581125E49AE82AF8374032EFE74003F5F
:20292000FF7D007C00740FC0E07400C0E0C0E0C0E08E828F838DF0EC12989EAC82AD83AE49
:20294000F0FFE58124FCF581C3EC9405ED940040030229587C057D008C828D8312572C024A
:20296000288D22900FAEE060030229717F000229737F01900FAE7400F08F8222AF827D0025
:202980007E00ED24AFFBEE340FFC7A00C007C006C0057400C0E0C0E0C0E0C007C003C00463
:2029A000C00274A7C0E07400C0E07464C0E074A0C0E07480C0E07582E3758329124F19E56C
:2029C0008124F4F581D005D006D0070DBD00010E8D038E04C3EB9401EC64809480500302EF
:2029E000298222C00D85810DE5812407F581AD82AE83AFF07B007C00E50D2405F8A6050867
:202A0000A60608A607C003C004A80D08767B740008F608F608F6A80D08744726F67494080E
:202A200036F674030836F674000836F6A80D08E6C0E008E6C0E008E6C0E008E6C0E0758233
:202A4000FD7583FF75F0FF74FF129D1CAA82AB83ACF0FFE58124FCF581A80D08A60208A6DC
:202A60000308A60408A607C0037407C0E07400C0E0C0E0C0E0A80D0886820886830886F066
:202A800008E6129960AC82AD83AEF0FFE58124FCF581D003A80D08A60408A60508A606089D
:202AA000A607A80D08B61B1308B6770F08B6FE0B08B6FF07D004D003022AC3D004D0037B41
:202AC000017C00EB4C6003022A05C0E0C0A8C2AFE50D2405F886820886830886F074011204
:202AE0009713D0E053E080E5E042A8D0E0022A05850D81D00D227F017D007E00ED24AFFBF1
:202B0000EE340FFC8B828C83E06003022B107F00ED24AFF582EE340FF5837400F00DBD005F
:202B2000010E8D038E04C3EB9401EC648094805003022AFC8F8222C00D85810DC082C0832A
:202B4000C0F0058105810581A80D08740126FF74000836FB088602A80D08E50D2404F9745B
:202B60000426F77400083609F708E609F7E50D2404F886040886050886068F828B838AF038
:202B8000EC129713A3ED129713A3EE129713E50D2404F886820886830886F074FF1297131C
:202BA000A3129713E50D2404F8740226FF74000836FD088604E50D2404F886020886030895
:202BC00086068F828D838CF0EA129713A3EB129713A3EE129713E50D2404F8740526FF746B
:202BE000000836FD088604E50D2404F886020886030886068F828D838CF0EA129713A3EB78
:202C0000129713A3EE129713A80D0886820886830886F07400129713850D81D00D22AD82E6
:202C2000AE83AFF0740B2DFD74003EFE8D828E838FF07400129713A3129713A312971322BC
:202C4000C00D85810DC082C083C0F0E5812409F581A80D08740126FA74000836FB088604C5
:202C60008A828B838CF0E50D240AF8129D00F6A3129D0008F6A3129D0008F6E50D24FBF858
:202C8000860208860308860474022AFD74003BFE8C078D828E838FF0E50D240AF8E6129766
:202CA00013A308E6129713A308E6129713E50D2407F874052AF674003B08F608A604E50D68
:202CC000240AF8E50D2404F9740526F77400083609F708E609F7E50D2404F886820886835A
:202CE0000886F0129D00FDA3129D00FEA3129D00FFE50D2407F886820886830886F0ED125E
:202D00009713A3EE129713A3EF129713E50D2404F886820886830886F0129D00FDA3129DC7
:202D200000FEA3129D00FF74022DFD74003EFE8D828E838FF0EA129713A3EB129713A3ECD6
:202D4000129713E50D2404F886820886830886F0EA129713A3EB129713A3EC129713740B54
:202D60002AFA74003BFB8A828B838CF0A80D08E6129713A308E6129713A308E6129713A84E
:202D80000D0886820886830886F0129D00FF0FA80D0886820886830886F0EF129713850D39
:202DA00081D00D22C00D85810DC082C083C0F0E581240BF581E50D24FBF886020886030849
:202DC00086048A828B838CF0E50D240DF8129D00F6A3129D0008F6E50D240DF8B6FF0608E5
:202DE000B6FF028003022E29C002C003C004A80D08740426FA74000836FB08860474052AC0
:202E0000FA74003BFB8A828B838CF0E50D240AF8129D00F6A3129D0008F6A3129D0008F61B
:202E2000D004D003D002022EB3A80D08740426FD74000836FE088607E50D240AF8A60508CE
:202E4000A60608A607C002C003C004E50D240AF8740226FD74000836FE0886078D828E83B2
:202E60008FF0129D00FAA3129D00FBA3129D00FC8A828B838CF0129D00FAA3129D00FBE51E
:202E80000D240DF8C3E69A08E69BD004D003D0025003022EB38D828E838FF0E50D240AF8CA
:202EA000129D00F6A3129D0008F6A3129D0008F6022E45E50D2407F874022AF674003B08F6
:202EC000F608A604E50D240AF8E50D2404F9740226F77400083609F708E609F7E50D2404D2
:202EE000F886820886830886F0129D00FDA3129D00FEA3129D00FFE50D2407F8868208864B
:202F0000830886F0ED129713A3EE129713A3EF12971374052DFD74003EFE8D828E838FF07A
:202F2000EA129713A3EB129713A3EC12971374052AFD74003BFE8C078D828E838FF0E50DE5
:202F4000240AF8E6129713A308E6129713A308E6129713E50D2404F886820886830886F066
:202F6000EA129713A3EB129713A3EC129713740B2AFA74003BFB8A828B838CF0A80D08E690
:202F8000129713A308E6129713A308E6129713A80D0886820886830886F0129D00FF0FA822
:202FA0000D0886820886830886F0EF129713850D81D00D22C00D85810DE581240FF581C8F1
:202FC000E50D240AC8A68208A68308A6F0E50D240AF8740B26FA74000836FB0886048A8210
:202FE0008B838CF0E50D240DF8129D00F6A3129D0008F6A3129D0008F6E50D240AF8E50DDD
:203000002404F9740226F77400083609F708E609F7E50D2404F886820886830886F0129D04
:2030200000FDA3129D00FEA3129D00FFE50D2407F874052DF674003E08F608A607E50D24C6
:203040000AF8A90D09740526F77400083609F708E609F7A80D0886820886830886F0129D76
:2030600000FDA3129D00FEA3129D00FFE50D2407F886820886830886F0ED129713A3EE12BA
:203080009713A3EF129713A80D0886820886830886F0129D00FDA3129D00FEA3129D00FF97
:2030A000E50D2407F874022DF674003E08F608A607E50D2404F886820886830886F0129DA5
:2030C00000FDA3129D00FEA3129D00FFE50D2407F886820886830886F0ED129713A3EE125A
:2030E0009713A3EF129713E50D240DF8E50D2407F9740126F77400083609F708E609F7E590
:203100000D2407F886820886830886F0129D00FDA3129D00FEA3129D00FFE50D240AF8C0C3
:2031200005C006C00786820886830886F012009115811581158170028003023171A80D08AB
:2031400086820886830886F0129D00FDA3129D00FEA3129D00FFE50D2407F886820886835D
:203160000886F0ED129713A3EE129713A3EF1297138A828B838CF07400129713A312971368
:20318000A3129713E50D240DF886820886830886F0129D00FF1FE50D240DF886820886831D
:2031A0000886F0EF129713E50D240DF886820886830886F0129D00FF8F82850D81D00D2263
:2031C000C00D85810DC082C083058105810581E50D2403F87400F608F60876001257D09038
:2031E0000F3DE0F5F0A3E045F060030232017A3D7D007E007F00900F3DEAF0EDA3F0EEA376
:20320000F0A80D08E60846700302326A900FB0E0FEA3E0FFA80D08E62EFC08E63FFDC3EC67
:2032200094FFED940E400302326AA80D08E62EFC08E63FFDC3EE9CEF9D400302326A900F3B
:203240003DE0FBA3E0FCA3E0FDEE2BFBEF3CFCE50D2403F8A60308A60408A605A80D0890B0
:203260000FB0E62EF008E63FA3F01257D8E50D2403F886820886830886F0850D81D00D22D0
:2032800022900FB07400F0A3F022900FB0E0FEA3E0FF74FFC39EFE740E9FFF8E828F8322BF
:2032A000C00D85810DC082C083C0F0E581240AF581E50D240DF87601A80D08E608467003F9
:2032C00002358DA80D08742526FA74000836FB0886048A828B838CF0129D00FFBF01005021
:2032E0000302358DC002C003C0048F037C00C002C003C0047582FF7583FF1296C7AB82AC32
:203300008315811581D002A80D08E50D240AF9742626F77400083609F708E609F7E50D24E9
:203320000AF886820886830886F0129D00FA7F00C3EB9AEC9FD004D003D002500302358D69
:20334000C0E0C0A8C2AFA80D08E50D2404F9740626F77400083609F708E609F7A80D0886AA
:20336000820886830886F0E50D2407F9129D00F7A3129D0009F7A3129D0009F78A828B83C2
:203380008CF0129D00FFE50D240AF886820886830886F0129D00FE8FF0EEA4C8E50D2407B1
:2033A000C826FD08E635F0FE088607E50D2404F886820886830886F0ED129713A3EE1297F0
:2033C00013A3EF129713A80D08742426FD74000836FE0886078D828E838FF0740012971300
:2033E000A80D08E50D2407F9740326F77400083609F708E609F7A80D088682088683088662
:20340000F0129D00FDA3129D00FEA3129D00FFE50D2407F886820886830886F0ED1297131A
:20342000A3EE129713A3EF129713E50D2404F8E50D2407F9740326F77400083609F708E695
:2034400009F7A80D0886820886830886F0129D00FDA3129D00FEA3129D00FF8A828B838C25
:20346000F0129D00FA7C00E50D2404F8EA24FFF6EC34FF08F6E50D240AF8868208868308CC
:2034800086F0129D00FB7C00C007C006C005C003C004E50D2404F8868208868312975EABDA
:2034A00082AC8315811581D005D006D007EB2DFDEC3EFEE50D2407F886820886830886F0C4
:2034C000ED129713A3EE129713A3EF129713A80D08742726FD74000836FE0886078D828E4B
:2034E000838FF074FF129713A80D08742826FD74000836FE0886078D828E838FF074FF12B6
:203500009713E50D24FDF8E6600302354FA80D08740C26FD74000836FE0886078D828E8362
:203520008FF0129D00700302357FA80D08740C26FD74000836FE0886078D828E838FF012DE
:203540006A3DE582700302357F12122B02357FA80D08740C26FD74000836FE0886078D827B
:203560008E838FF0122B37A80D08741826FD74000836FE0886078D828E838FF0122B37D0B3
:20358000E053E080E5E042A8D0E0023594E50D240DF87600E50D240DF88682850D81D00DCA
:2035A00022C00D85810DC0827C007D007E00A80D08E6700302367FC004C005C006A80D0877
:2035C00086027B00C006C005C004C002C0037582FF7583FF1296C7AA82AB8315811581D062
:2035E00004D005D006E50D24FDF886057E00C3EA9DEB9ED006D005D004500302367FA80DF7
:2036000008E50D24FDF986F0E7A4FAABF0C374D69A74FF9B500302367F74292AFA74003BD1
:20362000FB8A828B831231C0AA82AB83AFF08A048B058F06EC4D700302367F8C028D038EB7
:203640000774292AFA74003BFBC006C005C004C004C005C006E50D24FCF8E6C0E0C002C048
:2036600003C007E50D24FDF8E6C0E0A80D08868212368AE58124F8F581D004D005D0068C55
:20368000828D838EF01581D00D22C00D85810DC082E50D24FDF8E660030236CDE50D24F6FE
:2036A000F88604088605088606E50D24F6F886020886030886078C828D838EF0EA1297136D
:2036C000A3EB129713A3EF1297130236FBE50D24F6F88604088605088606E50D24FAF886DC
:2036E000020886030886078C828D838EF0EA129713A3EB129713A3EF129713E50D24F6F8C4
:20370000860508860608860774252DFA74003EFB8F048A828B838CF0A80D08E6129713748C
:20372000262DFA74003EFB8F048A828B838CF0E50D24FDF8E61297137401C0E08D828E8384
:203740008FF01232A015811581D00D22C00D85810DE5812411F581AD82AB83ACF0E50D24DB
:203760000EF87600E50D240BF8A60508A60308A604E50D24F8F8B60204740180027400FF7A
:20378000E50D240FFEE50D2407F8A606E50D2404F874242DF674003B08F608A604A80D085C
:2037A00074252DF674003B08F608A604C0E0C0A8C2AFE50D2404F886820886830886F012BA
:2037C0009D00FDA80D0886820886830886F0129D00FCC3ED9C50030237E0EF70030238728A
:2037E000E50D24F8F8E6C0E0E50D24FBF8E6C0E008E6C0E008E6C0E0E50D240BF886820869
:2038000086830886F01247E4AC82E58124FCF5818C07E50D240BF8741826FA74000836FBB5
:203820000886048A828B838CF0129D007003023858E50D240BF8741826FA74000836FB0832
:2038400086048A828B838CF0126A3DE582700302386112122B023861EF700302386112120F
:203860002BD0E053E080E5E042A8D0E0758201023A45E50D24F9F8E608466003023890D0AA
:20388000E053E080E5E042A8D0E0758200023A45E50D240EF8E660030238B98E027B007CDF
:2038A000408A828B838CF0C007C00612782DD006D007E50D240EF87601D0E053E080E5E086
:2038C00042A8D0E0C007C0061257D0D006D007C0E0C0A8C2AFE50D240BF8742726FA74001A
:2038E0000836FB0886048A828B838CF0129D00FDBDFF0280030239038A828B838CF0740032
:20390000129713E50D240BF8742826FA74000836FB0886048A828B838CF0129D00FDBDFFD9
:203920000280030239318A828B838CF07400129713C007D0E053E080E5E042A8D0E0E50D55
:2039400024F9FCE50D2408F8A604087600087640E50D2407F886047D007F40C006E50D249B
:2039600008F8E6C0E008E6C0E008E6C0E08C828D838FF012785FAF82158115811581D00656
:20398000EFD0076003023A2FE50D240BF886820886830886F0C007C006124E8AE582D0062F
:2039A000D0077003023A09E50D240BF8740C26FB74000836FC088605C007C006E50D24F9E1
:2039C000F8E6C0E008E6C0E08B828C838DF012682115811581D006D007E50D240BF88682AD
:2039E0000886830886F0C007C006124C95D006D007C007C0061257D8E582D006D0076003C6
:203A00000237AC12122B0237ACE50D240BF886820886830886F0C007C006124C95D006D0B7
:203A200007C007C0061257D8D006D0070237ACE50D240BF886820886830886F0124C95126A
:203A400057D8758200850D81D00D22C00D85810D058105810581AA82AB83ACF0A80D08A663
:203A60000208A60308A60474242AFD74003BFE8C078D828E838FF0129D00FD74252AFC7464
:203A8000003BFE8C078C828E838FF0129D00FCC3ED9C5003023AA4E50D24F7F8B602028053
:203AA00003023BA3A80D08742826FD74000836FE0886078D828E838FF0129D00FFA80D0858
:203AC000742426FC74000836FD0886068C828D838EF0129D00C007E50D24F7F8E6C0E0E567
:203AE0000D24FBF8E6C0E008E6C0E008E6C0E0A80D0886820886830886F01247E4E58124E5
:203B0000FCF581D007BFFF028003023B71A80D08741826FC74000836FD0886068C828D839F
:203B20008EF0129D007003023B9EA80D08741826FC74000836FD0886068C828D838EF012AE
:203B40006A3DE5827003023B9EE50D24F8F8E608467003023B9EE50D24F8F886040886055E
:203B60000886068C828D838EF07401129713023B9EC007125E74AE82D0078F05C3ED9E4035
:203B800003023B9EA80D08742826FC74000836FD0886060F8C828D838EF0EF1297137F01B3
:203BA000023BA57F008F82850D81D00D22C00D85810DE5812407F581C8E50D2404C8A682C8
:203BC00008A68308A6F0E50D2404F8742426FA74000836FB0886048A828B838CF0E50D2461
:203BE00007F8129D00F6E50D2404F8742526FD74000836FE0886078D828E838FF0129D00C0
:203C0000FDE50D2407F8C3E69D4003023CDDE50D2404F8A90D09742826F77400083609F7B2
:203C200008E609F7A80D0886820886830886F0129D00FFE50D2407F8E604FE8A828B838CF1
:203C4000F0EE129713BFFF028003023CB5E50D2404F8741826FC74000836FD0886068C8283
:203C60008D838EF0129D007003023CD8E50D2404F8741826FC74000836FD0886068C828DE0
:203C8000838EF0126A3DE5827003023CD8E50D24FBF8E608467003023CD8E50D24FBF88625
:203CA000040886050886068C828D838EF07401129713023CD8C007125E74AE82D0078F05B0
:203CC000C3ED9E4003023CD80FA80D0886820886830886F0EF1297137F01023CDF7F008F84
:203CE00082850D81D00D22C00D85810DE581240BF581AC82AD83AFF0E50D2408F87600E5D7
:203D00000D2405F8A60408A60508A607E50D2409FEE50D2404F8A606A80D0874242CF6749D
:203D2000003D08F608A607C0E0C0A8C2AFA80D0886820886830886F0129D00FC8C05EC702E
:203D400003023DE0C005E50D24FBF8E6C0E008E6C0E008E6C0E0E50D2405F88682088683A5
:203D60000886F0124B3E158115811581D005E50D2405F8742426FB74000836FC088607ED97
:203D800014FA8B828C838FF0EA129713E50D2405F8740C26FB74000836FC0886078B828C44
:203DA000838FF0129D007003023DCFE50D2405F8740C26FB74000836FC0886078B828C83BE
:203DC0008FF0126A3DE5827003023DCF12122BD0E053E080E5E042A8D0E0758201023FA3D6
:203DE000E50D24F9F8E608466003023DFED0E053E080E5E042A8D0E0758200023FA3E50D59
:203E00002408F8E66003023E238E037C007F408B828C838FF0C00612782DD006E50D2408FA
:203E2000F87601D0E053E080E5E042A8D0E0C0061257D0D006C0E0C0A8C2AFE50D2405F8F0
:203E4000742726FB74000836FC0886078B828C838FF0129D00FABAFF028003023E698B822B
:203E60008C838FF07400129713E50D2405F8742826FB74000836FC0886078B828C838FF0D6
:203E8000129D00FABAFF028003023E978B828C838FF07400129713C006D0E053E080E5E0AB
:203EA00042A8D0E0E50D24F9FF7C007B40E50D2404F886027D007E40C006C007C004C0033A
:203EC0008A828D838EF012785FAF82158115811581D006D006EF6003023F6AE50D2405F8B0
:203EE00086820886830886F0C006124E2DE582D0067003023F4CE50D2405F8741826FC7466
:203F0000000836FD088607C006E50D24F9F8E6C0E008E6C0E08C828D838FF0126821158122
:203F20001581D006E50D2405F886820886830886F0C006124C95D006C0061257D8E582D09E
:203F4000066003023D2712122B023D27E50D2405F886820886830886F0C006124C95D006A4
:203F6000C0061257D8D006023D27E50D2405F886820886830886F0C006124C95D006C006FF
:203F80001257D8D006E50D2405F886820886830886F0C006124E2DE582D0067003023D27F7
:203FA000758200850D81D00D22C00D85810DE581240BF581AC82AD83AFF0E50D2408F87684
:203FC00000E50D2405F8A60408A60508A607E50D2409FEA80D08A606A80D080874242CF6B7
:203FE00074003D08F608A607C0E0C0A8C2AFA80D080886820886830886F0129D00FC8C074A
:20400000EC700302406DEF14FCA80D080886820886830886F0EC129713E50D2405F8740CFC
:2040200026FB74000836FC0886078B828C838FF0129D00700302405CE50D2405F8740C2608
:20404000FB74000836FC0886078B828C838FF0126A3DE582700302405C12122BD0E053E024
:2040600080E5E042A8D0E075820102422EE50D24FCF8E60846600302408BD0E053E080E541
:20408000E042A8D0E075820002422EE50D2408F8E660030240B08E037C007F408B828C8304
:2040A0008FF0C00612782DD006E50D2408F87601D0E053E080E5E042A8D0E0C0061257D0E0
:2040C000D006C0E0C0A8C2AFE50D2405F8742726FB74000836FC0886078B828C838FF012D2
:2040E0009D00FABAFF0280030240F68B828C838FF07400129713E50D2405F8742826FB74A4
:20410000000836FC0886078B828C838FF0129D00FABAFF0280030241248B828C838FF074D8
:2041200000129713C006D0E053E080E5E042A8D0E0E50D24FCFF7C007B40A80D0886027D31
:20414000007E40C006C007C004C0038A828D838EF012785FAF82158115811581D006D0066B
:20416000EF60030241F5E50D2405F886820886830886F0C006124E2DE582D00670030241C5
:20418000D7E50D2405F8741826FC74000836FD088607C006E50D24FCF8E6C0E008E6C0E05F
:2041A0008C828D838FF012682115811581D006E50D2405F886820886830886F0C006124CF7
:2041C00095D006C0061257D8E582D0066003023FE812122B023FE8E50D2405F88682088683
:2041E000830886F0C006124C95D006C0061257D8D006023FE8E50D2405F8868208868308F5
:2042000086F0C006124C95D006C0061257D8D006E50D2405F886820886830886F0C006123A
:204220004E2DE582D0067003023FE8758200850D81D00D22C00D85810DE581240DF581AD87
:2042400082AB83AFF07C00E50D2408F8A60508A60308A607E50D240BFEE50D2404F8A6068F
:20426000E50D2405F874242DF674003B08F608A607C0E0C0A8C2AFE50D2405F886820886EC
:20428000830886F0129D00700302436CE50D2408F8740626FA74000836FB08860774032AB7
:2042A000FA74003BFB8A828B838FF0129D00FEA3129D00FDA3129D00FCC006C005C004E543
:2042C0000D24FBF8E6C0E008E6C0E008E6C0E0E50D2408F886820886830886F0124B3E15BB
:2042E0008115811581D004D005D006E50D2408F8740626FA74000836FB08860774032AFA05
:2043000074003BFB8A828B838FF0EE129713A3ED129713A3EC129713E50D2408F874182651
:20432000FA74000836FB0886078A828B838FF0129D00700302435BE50D2408F8741826FA24
:2043400074000836FB0886078A828B838FF0126A3DE582700302435B12122BD0E053E0809D
:20436000E5E042A8D0E0758201024560E50D24F9F8E60846600302438AD0E053E080E5E0AA
:2043800042A8D0E0758200024560EC60030243A58E027B007F408A828B838FF0C0061278F9
:2043A0002DD0067C01D0E053E080E5E042A8D0E0C006C0041257D0D004D006C0E0C0A8C284
:2043C000AFE50D2408F8742726FA74000836FB0886078A828B838FF0129D00FDBDFF028098
:2043E000030243EF8A828B838FF07400129713E50D2408F8742826FA74000836FB088607A9
:204400008A828B838FF0129D00FDBDFF02800302441D8A828B838FF07400129713C004D056
:20442000E053E080E5E042A8D0E0E50D24F9FFA80D08A607087600087640E50D2404F8863E
:20444000047D007F40C006C004A80D08E6C0E008E6C0E008E6C0E08C828D838FF012785FAD
:20446000AF82158115811581D004D006D004EF600302451BE50D2408F8868208868308865A
:20448000F0C006C004124E2DE582D004D00670030244F5E50D2408F8741826FB74000836E1
:2044A000FD088607C006C004E50D24F9F8E6C0E008E6C0E08B828D838FF0126821158115E3
:2044C00081D004D006E50D2408F886820886830886F0C006C004124C95D004D006C006C057
:2044E000041257D8E582D004D006600302427112122B024271E50D2408F886820886830813
:2045000086F0C006C004124C95D004D006C006C0041257D8D004D006024271E50D2408F8BE
:2045200086820886830886F0C006C004124C95D004D006C006C0041257D8D004D006E50D56
:204540002408F886820886830886F0C006C004124E2DE582D004D006700302427175820059
:20456000850D81D00D22C00D85810DC082C083C0F0A80D08742426FA74000836FB08860460
:204580008A828B838CF0129D00FA8A04EA700302468FA80D08742726FA74000836FB088667
:2045A000078A828B838FF0129D00FFC007C004E50D24FBF8E6C0E008E6C0E008E6C0E0A8CF
:2045C0000D0886820886830886F0124B3E158115811581D004D007A80D08742426FB74003D
:2045E0000836FD0886061C8B828D838EF0EC129713BFFF02800302465DA80D08740C26FC46
:2046000074000836FD0886068C828D838EF0129D00700302468AA80D08740C26FC740008EC
:2046200036FD0886068C828D838EF0126A3DE582700302468AE50D24F8F8E6084670030203
:20464000468AE50D24F8F886040886050886068C828D838EF0740112971302468AC007125B
:204660005E74AE82D0078F05C3ED9E400302468AA80D08742726FC74000836FD0886060F9E
:204680008C828D838EF0EF1297137F010246917F008F82850D81D00D22C00D85810DAD82C9
:2046A000AE83AFF074242DFA74003EFB8F048A828B838CF0129D00700302474274062DFA47
:2046C00074003EFB8F0474032AFA74003BFB8A828B838CF0129D00FAA3129D00FBA3129D77
:2046E00000FCC007C006C005C004C003C002E50D24FBF8E6C0E008E6C0E008E6C0E08D8269
:204700008E838FF0124B3E158115811581D002D003D004D005D006D00774062DFD74003E5B
:20472000FE74032DFD74003EFE8D828E838FF0EA129713A3EB129713A3EC1297137F0102CE
:2047400047447F008F82D00D22AD82AE83AFF0C0E0C0A8C2AF74242DFD74003EFE8D828EB8
:20476000838FF0129D00FDD0E053E080E5E042A8D0E08D8222AD82AE83AFF0C0E0C0A8C2CF
:20478000AF74252DFA74003EFB8F048A828B838CF0129D00FA74242DFD74003EFE8D828E1C
:2047A000838FF0129D00FDEAC39DFAD0E053E080E5E042A8D0E08A8222AD82AE83AFF074A4
:2047C000242DFD74003EFE8D828E838FF0129D00FD8D8222AD82AE83AFF08D828E838FF0C1
:2047E00012328022C00D85810DC082C083C0F0E581240AF581A80D08742426FA740008368D
:20480000FB0886048A828B838CF0E50D240DF8129D00F6A80D08E50D2404F9742626F774BA
:2048200000083609F708E609F7E50D2404F886820886830886F0129D00FEEE7003024B2325
:20484000E50D24FAF8E660030249A0C002C003C0048E047D00A80D08E50D2407F974032654
:20486000F77400083609F708E609F7E50D2407F886820886830886F0129D00FAA3129D00FA
:20488000FBA3129D00FFC004C003C002C004C005E50D24FBF8E6C0E008E6C0E008E6C0E04F
:2048A0008A828B838FF0129AE7E58124FBF581D002D003D004E50D2407F886820886830822
:2048C00086F0129D00FCA3129D00FDA3129D00FFE50D2404F886820886830886F0129D00BF
:2048E000FBE50D240AF8EB2CF674003D08F608A607E50D2407F886820886830886F0E50D96
:20490000240AF9E7129713A309E7129713A309E7129713A80D08740626FA74000836FB0823
:2049200086078A828B838FF0129D00FAA3129D00FBA3129D00FFE50D240AF8C002C003C0AD
:204940000786820886830886F0120091158115811581D004D003D0025003024B23C002C096
:2049600003C004A80D0886820886830886F0129D00FCA3129D00FDA3129D00FFE50D2407B4
:20498000F886820886830886F0EC129713A3ED129713A3EF129713D004D003D002024B235D
:2049A000C002C003C0047F00A80D08E50D240AF9740626F77400083609F708E609F7E50D30
:2049C000240AF8E50D2407F9740326F77400083609F708E609F7E50D2407F8868208868339
:2049E0000886F0129D00FBA3129D00FCA3129D00FDC004C003C002C006C007E50D24FBF813
:204A0000E6C0E008E6C0E008E6C0E08B828C838DF0129AE7E58124FBF581D002D003D00454
:204A2000E50D2407F886820886830886F0129D00FDA3129D00FEA3129D00FFE50D2404F86B
:204A400086820886830886F0129D00FC7B00EDC39CFDEE9BFEE50D2407F886820886830893
:204A600086F0ED129713A3EE129713A3EF129713A80D0886820886830886F0129D00FAA3DC
:204A8000129D00FBA3129D00FCC002C003C0048D828E838FF0120091158115811581D004FD
:204AA000D003D0024003024B05C002C003C004E50D240AF886820886830886F0129D00FD18
:204AC000A3129D00FEA3129D00FFE50D2404F886820886830886F0129D00FC7B00EDC39C1A
:204AE000FDEE9BFEE50D2407F886820886830886F0ED129713A3EE129713A3EF129713D072
:204B000004D003D002E50D24FAF8B602028003024B23E50D240DF8E67003024B23E50D243D
:204B20000DF816E50D240DF8E604FF8A828B838CF0EF129713758200850D81D00D22C00D3F
:204B400085810DC082C083C0F0E5812404F581A80D08742626FA74000836FB0886048A8247
:204B60008B838CF0E50D2404F8129D00F6E50D2404F8E67003024C8FC002C003C004A80DAE
:204B800008740626FA74000836FB088604E50D2405F874032AF674003B08F608A604E50D39
:204BA0002405F886820886830886F0129D00FDA3129D00FEA3129D00FFE50D2404F8E62DCB
:204BC000FD74003EFEE50D2405F886820886830886F0ED129713A3EE129713A3EF1297133A
:204BE0008A828B838CF0129D00FAA3129D00FBA3129D00FCC002C003C0048D828E838FF0F3
:204C0000120091158115811581D004D003D0025003024C48A80D0886820886830886F01267
:204C20009D00FDA3129D00FEA3129D00FFE50D2405F886820886830886F0ED129713A3EE55
:204C4000129713A3EF1297138A828B838CF0129D00FA7F00E50D2405F886820886830886D2
:204C6000F0129D00FCA3129D00FDA3129D00FEC002C007C004C005C006E50D24FBF8868211
:204C80000886830886F0129AE7E58124FBF581850D81D00D22C00D85810DC082C083C0F0D0
:204CA000E5812404F581C0E0C0A8C2AFA80D08742826FA74000836FB0886048A828B838C19
:204CC000F0E50D2404F8129D00F6A80D08E50D2405F9741826F77400083609F708E609F713
:204CE000E50D2404F8C37400648086F063F08095F04003024D4EE50D2405F88682088683AD
:204D00000886F0129D007003024D4EA80D08741826FD74000836FE0886078D828E838FF006
:204D2000C004C003C002126A3DE582D002D003D0047003024D45C004C003C002127986D060
:204D400002D003D004E50D2404F816024CE08A828B838CF074FF129713D0E053E080E5E067
:204D600042A8D0E0C0E0C0A8C2AFA80D08742726FD74000836FE0886078D828E838FF012AF
:204D80009D00FCA80D08E50D2405F9740C26F77400083609F708E609F7C3740064808CF0D5
:204DA00063F08095F04003024E11E50D2405F886820886830886F0129D007003024E11C00A
:204DC00005C006C007A80D08740C26FA74000836FB0886078A828B838FF0C007C006C005B7
:204DE000C004126A3DE582D004D005D006D007D007D006D0057003024E0DC007C006C005D5
:204E0000C004127986D004D005D006D0071C024D998D828E838FF074FF129713D0E053E0B2
:204E200080E5E042A8D0E0850D81D00D22AD82AE83AFF0C0E0C0A8C2AF74242DFD74003E95
:204E4000FE8D828E838FF0129D006003024E547F01024E567F00D0E053E080E5E042A8D078
:204E6000E08F8222AD82AE83AFF074242DFD74003EFE8D828E838FF0129D006003024E8528
:204E80007F01024E877F008F8222AD82AE83AFF0C0E0C0A8C2AF74242DFA74003EFB8F0492
:204EA0008A828B838CF0129D00FA74252DFD74003EFE8D828E838FF0129D00FDEAB505024F
:204EC0008003024ECA7F01024ECC7F00D0E053E080E5E042A8D0E08F8222AD82AE83AFF026
:204EE00074242DFA74003EFB8F048A828B838CF0129D00FA74252DFD74003EFE8D828E83E1
:204F00008FF0129D00FDEAB505028003024F147F01024F167F008F8222C00D85810D0581D9
:204F200005810581AE82AF83758233758300C007C0061231C0AB82AC83ADF0D006D007A803
:204F40000D08A60308A60408A605A80D08E608467003024FFDC006C007A80D08860208861C
:204F600006088607C007C0067433C0E07400C0E0C0E08A828E838FF0129B7A15811581150A
:204F800081D006D007A80D08742026FA74000836FE088607E50D24F9F886040886058C82FB
:204FA0008D83C007C006C0021231C0AB82AC83ADF0D002D006D0078A828E838FF0EB1297E7
:204FC00013A3EC129713A3ED129713D007D006EB4C6003024FFDA80D08860308860408862C
:204FE000058B828C838DF0C007C006123280D006D007A80D087400F608F6087600A80D08B5
:20500000E60846700302508CE50D24F9F886020886037C007D007400C0E0C0E0C0E0A80DE9
:2050200008E6C0E008E6C0E008E6C0E0E50D24F2F8E6C0E008E6C0E008E6C0E0E50D24F519
:20504000F8E6C0E0E50D24F6F8E6C0E008E6C0E008E6C0E0C002C003C004C005E50D24FB0D
:20506000F8E6C0E008E6C0E008E6C0E08E828F83125096E58124ECF581A80D08868208863D
:20508000830886F01253787F0102508E7FFF8F82850D81D00D22C00D85810DC082C083E5E7
:2050A00081240CF581E50D24EDF8E50D2409F9E6F708E609F708E609F7E50D2409F8742052
:2050C00026FA74000836FE0886078A828E838FF0E50D240CF8129D00F6A3129D0008F6A31D
:2050E000129D0008F6E50D240CF8E50D2403F9E6F708E609F708E609F7E50D2409F8E50D15
:205100002406F9742B26F77400083609F708E609F7E50D24F7F8E624FFFA08E634FFFE08E1
:20512000E634FFFD08E634FFFFE50D240CF8EA26FAEE0836FE088605E50D2406F886820834
:2051400086830886F0EA129713A3EE129713A3ED129713E50D24FBF8E6084670030251ED99
:20516000E50D2409F8742326FD74000836FE0886077B00E50D2406F8EB2DF674003E08F6CC
:2051800008A607C005C006C007E50D24FBF8EB26FD74000836FE0886078D828E838FF012FB
:2051A0009D00FCE50D2406F886820886830886F0EC1297138D828E838FF0129D00D007D00E
:2051C00006D00570030251D10BBB08005003025173E50D2409F8742A26FD74000836FE08E6
:2051E00086078D828E838FF07400129713E50D24F3F8B604005003025201E50D24F3F87679
:2052000003E50D2409F8741F26FD74000836FE0886078D828E838FF0E50D24F3F8E612974A
:2052200013E50D2409F8740326FD74000836FE0886078D828E838FF0122C1EE50D2409F853
:20524000741126FD74000836FE0886078D828E838FF0122C1EE50D2409F8740B26FD740039
:205260000836FE088607E50D24EDF886020886030886048D828E838FF0EA129713A3EB12D2
:205280009713A3EC129713E50D2409F8E50D2406F9741126F77400083609F708E609F7E5C6
:2052A0000D24F3F886077E007404C39FFF74009EFEE50D2406F886820886830886F0EF1232
:2052C0009713A3EE129713E50D2409F8741926FD74000836FE0886078D828E838FF0EA1230
:2052E0009713A3EB129713A3EC129713E50D24F4F8E6C0E008E6C0E008E6C0E0A80D08E628
:20530000C0E008E6C0E0E50D2403F886820886830886F0120FB3AF82AE83ADF0E58124FB5F
:20532000F581E50D2409F886820886830886F0EF129713A3EE129713A3ED129713E50D24EF
:20534000F0F8E608467003025372E50D24F0F886050886060886078D828E838FF0E50D2490
:2053600009F8E6129713A308E6129713A308E6129713850D81D00D22C00D85810DC082C0FC
:2053800083C0F0E581240CF581C0E0C0A8C2AF900FB5E004F0900FB2E0FAA3E0FBA3E0FC05
:2053A000EA4B60030253CAA80D08900FB2E6F008E6A3F008E6A3F0900FB5E0FCBC010280E1
:2053C000030254211279A5025421900FB9E06003025421900FB2E0FAA3E0FBA3E0FC741FDF
:2053E0002AFA74003BFB8A828B838CF0129D00FAA80D08741F26FB74000836FC0886078B61
:20540000828C838FF0129D00FBC3EB9A5003025421A80D08900FB2E6F008E6A3F008E6A3CA
:20542000F0900FBEE02401F0A80D08741F26FD74000836FE0886078D828E838FF0129D0024
:20544000FC900FB8E0FBC3EB9C4003025453900FB8ECF08D828E838FF0129D00FCEC75F01A
:205460000CA42440FB740F35F0FC8B828C83A3E50D240DF8E0F6A3E008F6A3E008F6A80D12
:2054800008E50D240AF9740326F77400083609F708E609F7E50D240AF8740226FA7400088D
:2054A00036FB0886048A828B838CF0E50D240DF8E6129713A308E6129713A308E61297133C
:2054C000E50D240AF8E50D2407F9740526F77400083609F708E609F7E50D240DF8E50D2437
:2054E00004F9740526F77400083609F708E609F7E50D2404F886820886830886F0129D0021
:20550000FAA3129D00FBA3129D00FCE50D2407F886820886830886F0EA129713A3EB12976D
:2055200013A3EC129713E50D2404F886820886830886F0129D00FAA3129D00FBA3129D001C
:20554000FC74022AFA74003BFB8A828B838CF0E50D240AF8E6129713A308E6129713A308C3
:20556000E6129713E50D2404F886820886830886F0E50D240AF9E7129713A309E7129713D5
:20558000A309E7129713E50D240AF8E50D2404F9740B26F77400083609F708E609F78D8246
:2055A0008E838FF0129D00FCEC75F00CA42440FC740F35F0FB8C027C00E50D2404F8868288
:2055C0000886830886F0EA129713A3EB129713A3EC1297138D828E838FF0129D00FCEC7556
:2055E000F00CA42440FB740F35F0FC8B828C83E0FA0A8B828C83EAF0D0E053E080E5E042A8
:20560000A8D0E0900FB9E0700302563E900FB2E0FAA3E0FBA3E0FC741F2AFA74003BFB8ADE
:20562000828B838CF0129D00FA8D828E838FF0129D00FDC3EA9D400302563E12122B850D66
:2056400081D00D22C00D85810DC082C083C0F0058105817E00C0061257D0D006900FB6E021
:20566000FAA3E0FBE50D2404F8A60208A603A80D0886820886830886F0129D00FBA3129DF7
:2056800000FCE50D24FCF8E62BFD08E63CFF8D02E50D2404F8C3E69B08E69C40030256BF04
:2056A000C3EA9BEF9C40030256DBE50D2404F8C3E69A08E69F40030256DB7E010256DBC3D4
:2056C000EA9BEF9C50030256D9E50D2404F8C3E69A08E69F40030256DB7E01A80D0886829A
:2056E0000886830886F0EA129713A3EF129713EE7003025713E50D2404F8EAC396FAEF0814
:2057000096FFC0067400C0E08A828F8312959B1581D006C0061257D8E582D006600302574E
:205720002412122B8E82850D81D00D22AE82AF837D00EE4F7003025758C007C0061257D0CE
:20574000D006D0077400C0E08E828F8312959B15811257D8AF828F05ED600302576112125A
:205760002B2274C1C0E0740FC0E07400C0E0C0E0C0E0C0E0C0E074A7C0E07400C0E0746DA0
:20578000C0E074A0C0E07480C0E075828D758379124F19AF82E58124F4F581BF0102800348
:2057A0000257BEC2AF900FBF74FFF0A3F0900FB97401F0900FB67400F0A3F01211AD90A004
:2057C0006CE49322C2AF900FB97400F012122A22900FC4E02401F022C00D85810DE5812443
:2057E00016F581E50D2411F87400F608F6087600E50D2410F87600C0E0C0A8C2AF900FC4A8
:20580000E014F0E06003025E31900FB5E07003025E31900F8EE07003025DCB900F94E0FAE1
:20582000A3E0FBA3E0FC74082AFA74003BFB8A828B838CF0129D00FAA3129D00FBA3129D43
:2058400000FCE50D2411F8A60208A60308A604E50D2411F8E50D240DF9741126F7740008C9
:205860003609F708E609F7E50D2411F8741C26FA74000836FB0886048A828B838CF0E50D6E
:205880002414F8129D00F6A3129D0008F6A3129D0008F6E50D2411F8741326FA740008361B
:2058A000FB0886048A828B838CF0129D00FDA3129D00FEA3129D00FFE50D240AF874052DBA
:2058C000F674003E08F608A607E50D2411F8E50D2404F9741626F77400083609F708E609EB
:2058E000F7E50D2404F886820886830886F0129D00FDA3129D00FEA3129D00FFE50D240A9B
:20590000F886820886830886F0ED129713A3EE129713A3EF129713E50D2404F8868208860C
:20592000830886F0129D00FDA3129D00FEA3129D00FF74022DFD74003EFE8A828B838CF033
:20594000129D00FAA3129D00FBA3129D00FC8D828E838FF0EA129713A3EB129713A3EC12D3
:205960009713E50D2414F8740126FC74000836FB0886028C828B838AF0129D00FDA3129DF3
:2059800000FEA3129D00FFE50D240DF8C005C006C00786820886830886F012009115811566
:2059A000811581700280030259D9E50D2404F886820886830886F0129D00FDA3129D00FE02
:2059C000A3129D00FF8C828B838AF0ED129713A3EE129713A3EF129713E50D240DF8740B02
:2059E00026FD74000836FE0886078D828E838FF07400129713A3129713A3129713E50D249C
:205A000014F886820886830886F0129D00FF1FE50D2414F886820886830886F0EF129713B2
:205A2000E50D2411F8740326FD74000836FE088607E50D240AF8740B2DF674003E08F608F6
:205A4000A607E50D240AF886820886830886F0E50D2414F9129D00F7A3129D0009F7A3121A
:205A60009D0009F7E50D2404F874022DF674003E08F608A607E50D2404F886820886830846
:205A800086F0129D00FAA3129D00FBA3129D00FCE50D2407F874052AF674003B08F608A643
:205AA00004E50D240DF874052DF674003E08F608A607E50D240DF886820886830886F01202
:205AC0009D00FAA3129D00FBA3129D00FCE50D2407F886820886830886F0EA129713A3EBB4
:205AE000129713A3EC129713E50D240DF886820886830886F0129D00FAA3129D00FBA31242
:205B00009D00FCE50D2407F874022AF674003B08F608A604E50D2404F88682088683088629
:205B2000F0129D00FAA3129D00FBA3129D00FCE50D2407F886820886830886F0EA129713DF
:205B4000A3EB129713A3EC129713E50D2414F8E50D2407F9740126F77400083609F708E646
:205B600009F7E50D2407F886820886830886F0129D00FAA3129D00FBA3129D00FCC005C0B0
:205B800006C0078A828B838CF012009115811581158170028003025BCFE50D240DF88682F9
:205BA0000886830886F0129D00FAA3129D00FBA3129D00FCE50D2407F88682088683088656
:205BC000F0EA129713A3EB129713A3EC129713C005C006C007E50D240AF88682088683080F
:205BE00086F07400129713A3129713A3129713E50D2414F886820886830886F0129D00FCDD
:205C00001CE50D2414F886820886830886F0EC129713E50D2411F8A90D09741F26F7740005
:205C2000083609F708E609F7A80D0886820886830886F0129D00FC900FB8E0FFC3EF9CD0E5
:205C400007D006D0054003025C4F900FB8ECF0A80D0886820886830886F0129D00FCEC750F
:205C6000F00CA42440FB740F35F0FC8B828C83A3E0FAA3E0FBA3E0FCE50D2404F8868208C9
:205C800086830886F0EA129713A3EB129713A3EC129713E50D2407F874052AF674003B08DD
:205CA000F608A604E50D2407F886820886830886F0129D00FAA3129D00FBA3129D00FCE567
:205CC0000D240DF886820886830886F0EA129713A3EB129713A3EC129713E50D2407F88621
:205CE000820886830886F0129D00FAA3129D00FBA3129D00FC74022AFA74003BFB8A828B74
:205D0000838CF0ED129713A3EE129713A3EF129713E50D2407F886820886830886F0ED1295
:205D20009713A3EE129713A3EF129713A80D0886820886830886F0129D00FFEF75F00CA418
:205D40002440FE740F35F0FF7D00E50D240AF886820886830886F0EE129713A3EF12971316
:205D6000A3ED129713A80D0886820886830886F0129D00FFEF75F00CA42440FE740F35F0C7
:205D8000FF8E828F83E0FD0D8E828F83EDF0A80D0886820886830886F0129D00FF900FB2A6
:205DA000E0FCA3E0FDA3E0FE741F2CFC74003DFD8C828D838EF0129D00FCC3EF9C500302B3
:205DC0005812900FBC7401F0025812E50D2411F8E608467003025DDB127A0E900FBAE0FE5C
:205DE000A3E0FF8E048F05EE4F7003025E1E8C068D07C007C006125EE6E582D006D0077040
:205E000003025E0A900FBC7401F01EBEFF011FEE4F6003025DF2900FBA7400F0A3F0900F7A
:205E2000BCE07003025E31E50D2410F8760112122BD0E053E080E5E042A8D0E0E50D2410F6
:205E4000F88682850D81D00D22C0E0C0A8C2AF900FB6E0FEA3E0FFD0E053E080E5E042A8F0
:205E6000D0E08E828F8322900FB6E0FEA3E0FF8E828F8322900FB5E0FF8F8222AD82AE836F
:205E8000AFF0ED4E6003025E97900FB2E0FAA3E0FBA3E0FC025E9D8D028E038F0474232A35
:205EA000FA74003BFB8A828B838CF022AE82AF83C007C0061257D0D006D007C0E0C0A8C2E7
:205EC000AF900FBAE0FCA3E0FD900FBAEE2CF0EF3DA3F0D0E053E080E5E042A8D0E0125711
:205EE000D8AF828F8222C00D85810DE5812418F581E50D2413F87600900FC4E060030266C9
:205F000075900FB6E0FDA3E0FEE50D2414F874012DF674003E08F6E50D2414F8900FB6E692
:205F2000F008E6A3F0E50D2414F8E608466003025F6B900F88E0FAA3E0FBA3E0FC8B058C51
:205F400006900F8BE0FBA3E0FCA3E0FF900F88EBF0ECA3F0EFA3F0900F8BEAF0EDA3F0EEC0
:205F6000A3F0900FBDE004F0127A0E900FBFE0FBA3E0FCE50D2414F8C3E69B08E69C5003C9
:205F8000026624900F88E0FAA3E0FBA3E0FC8A828B838CF0129D006003025FA7900FBF74F5
:205FA000FFF0A3F0026624900F88E0FAA3E0FBA3E0FC74042AFA74003BFB74022AFA740081
:205FC0003BFB8A828B838CF0129D00FAA3129D00FBA3129D00FC74082AFA74003BFB8A825B
:205FE0008B838CF0129D00FAA3129D00FBA3129D00FCE50D2410F8A60208A60308A604E5C5
:206000000D2410F8740326FD74000836FE0886078D828E838FF0129D00FFA3129D00FEE5E6
:206020000D2414F8C3E69F08E69E400302603A900FBFEFF0EEA3F0026624E50D2410F87494
:206040000326FD74000836FE088607E50D2410F8740E26FA74000836FB0886048A828B83BC
:206060008CF0E50D2416F8129D00F6A3129D0008F6A3129D0008F6E50D2410F8E50D240403
:20608000F9740526F77400083609F708E609F7E50D2404F886820886830886F0129D00FA7F
:2060A000A3129D00FBA3129D00FCA80D0874052AF674003B08F608A604E50D2410F8E50D80
:2060C0002407F9740826F77400083609F708E609F7E50D2407F886820886830886F0129D08
:2060E00000FAA3129D00FBA3129D00FCA80D0886820886830886F0EA129713A3EB129713C7
:20610000A3EC129713E50D2407F886820886830886F0129D00FAA3129D00FBA3129D00FC44
:20612000A80D0874022AF674003B08F608A604E50D2404F886820886830886F0129D00FA5B
:20614000A3129D00FBA3129D00FCA80D0886820886830886F0EA129713A3EB129713A3ECD1
:20616000129713E50D2416F8A90D09740126F77400083609F708E609F7A80D0886820886FB
:20618000830886F0129D00FAA3129D00FBA3129D00FCC005C006C0078A828B838CF01200C0
:2061A00091158115811581700280030261E2E50D2407F886820886830886F0129D00FAA35A
:2061C000129D00FBA3129D00FCA80D0886820886830886F0EA129713A3EB129713A3EC12E2
:2061E0009713E50D240DF8740B2DF674003E08F608A607E50D240DF886820886830886F021
:206200007400129713A3129713A3129713C005C006C007E50D2416F886820886830886F083
:20622000129D00FF1FE50D2416F886820886830886F0EF129713E50D2410F8A90D097411C9
:2062400026F77400083609F708E609F7A80D08E50D2407F9740B26F77400083609F708E672
:2062600009F7E50D2407F886820886830886F0129D00FAA3129D00FBA3129D00FCD007D087
:2062800006D005EA4B700302643BC005C006C007E50D2416F8A60208A60308A604A80D089C
:2062A000740226FD74000836FE0886078D828E838FF0129D00FAA3129D00FBA3129D00FC1D
:2062C000E50D240AF874052AF674003B08F608A604A80D08E50D2404F9740526F7740008CC
:2062E0003609F708E609F7E50D2404F886820886830886F0129D00FAA3129D00FBA3129D89
:2063000000FCE50D240AF886820886830886F0EA129713A3EB129713A3EC129713E50D2481
:2063200004F886820886830886F0129D00FAA3129D00FBA3129D00FC74022AFA74003BFB42
:206340008D828E838FF0129D00FDA3129D00FEA3129D00FF8A828B838CF0ED129713A3EE81
:20636000129713A3EF129713E50D2416F8E50D240AF9740126F77400083609F708E609F7A4
:20638000E50D240AF886820886830886F0129D00FDA3129D00FEA3129D00FFA80D08C0057F
:2063A000C006C00786820886830886F012009115811581158170028009D007D006D00502D5
:2063C00063FED007D006D005E50D2404F886820886830886F0129D00FAA3129D00FBA31286
:2063E0009D00FCE50D240AF886820886830886F0EA129713A3EB129713A3EC129713E50D28
:206400002407F886820886830886F07400129713A3129713A3129713E50D2416F8868208A0
:2064200086830886F0129D00FC1CE50D2416F886820886830886F0EC129713C005C006C060
:2064400007E50D2410F8A90D09741F26F77400083609F708E609F7A80D088682088683082A
:2064600086F0129D00FC900FB8E0FFC3EF9CD007D006D005400302647E900FB8ECF0A80DE6
:206480000886820886830886F0129D00FCEC75F00CA42440FB740F35F0FC8B828C83A3E50A
:2064A0000D2416F8E0F6A3E008F6A3E008F674022DFA74003EFB8F048A828B838CF0E50D60
:2064C0002416F8E6129713A308E6129713A308E6129713E50D240AF874052DF674003E08E0
:2064E000F608A607E50D2416F8E50D2407F9740526F77400083609F708E609F7E50D240764
:20650000F886820886830886F0129D00FAA3129D00FBA3129D00FCE50D240AF886820886FA
:20652000830886F0EA129713A3EB129713A3EC129713E50D2407F886820886830886F01261
:206540009D00FAA3129D00FBA3129D00FC74022AFA74003BFB8A828B838CF0ED129713A3E3
:20656000EE129713A3EF129713E50D2407F886820886830886F0ED129713A3EE129713A3DE
:20658000EF129713A80D0886820886830886F0129D00FFEF75F00CA42440FE740F35F0FF41
:2065A0007D00E50D240DF886820886830886F0EE129713A3EF129713A3ED129713A80D08AB
:2065C00086820886830886F0129D00FFEF75F00CA42440FE740F35F0FF8E828F83E0FD0D5D
:2065E0008E828F83EDF0A80D0886820886830886F0129D00FF900FB2E0FCA3E0FDA3E0FE6C
:20660000741F2CFC74003DFD8C828D838EF0129D00FCC3EF9C5003025F83E50D2413F876AE
:2066200001025F83900FB2E0FDA3E0FEA3E0FF741F2DFD74003EFE8D828E838FF0129D0089
:20664000FDED75F00CA42440F582740F35F0F583E0FFC374019F4003026662E50D2413F85C
:206660007601900FBCE07003026681E50D2413F87601026681900FBAE02401F0A3E0340086
:20668000F0E50D2413F88682850D81D00D22C00D85810DE581240AF581900FC4E07003022D
:2066A00066AB900FBC7401F002681B900FBC7400F0900FB8E0FFEF75F00CA4FDAEF0ED24DF
:2066C00040FBEE340FFC8B828C83E060030266D41F0266B6E50D2407F8A607ED2440FDEE7C
:2066E000340FFEE50D2408F8A60508A606087600E50D2408F8740126FA74000836FB088680
:20670000078A828B838FF0129D00FCA3129D00FDA3129D00FE74022CFC74003DFD8C828DA8
:20672000838EF0129D00FCA3129D00FDA3129D00FE8A828B838FF0EC129713A3ED12971381
:20674000A3EE1297138A828B838FF0A80D08129D00F6A3129D0008F6A3129D0008F6E50D5F
:206760002404F8A60408A60508A606E50D2408F8740426FC74000836FD088606E50D2404DB
:20678000F8C004C005C00686820886830886F0120091158115811581700280030267D6A8DA
:2067A0000D08740226FC74000836FD0886068C828D838EF0129D00FCA3129D00FDA3129D01
:2067C00000FE8A828B838FF0EC129713A3ED129713A3EE1297138A828B838FF0129D00FA9F
:2067E000A3129D00FBA3129D00FF74082AFA74003BFB8A828B838FF0129D00FAA3129D001D
:20680000FBA3129D00FF900FB2EAF0EBA3F0EFA3F0E50D2407F8900FB8E6F0850D81D00DCF
:2068200022C00D85810DAD82AE83AFF0900FB2E0FAA3E0FBA3E0FC74112AFA74003BFBC01C
:2068400002C003C0048D828E838FF0122DA41581158115817401C0E0E50D24FCF88682083C
:20686000868312959B1581D00D22C00D85810DC082C083C0F0058105810581900FB2E0FA66
:20688000A3E0FBA3E0FC74112AFA74003BFBE50D24FCF886060886074307808A828B838C0D
:2068A000F0EE129713A3EF129713A80D08740126FD74000836FE0886078D828E838FF012A5
:2068C0009D00FDA3129D00FEA3129D00FF900FB2E0FAA3E0FBA3E0FC74112AFA74003BFB02
:2068E00074022AFA74003BFB8A828B838CF0ED129713A3EE129713A3EF129713900FB2E049
:20690000FAA3E0FBA3E0FC74112AFA74003BFBE50D2404F874052AF674003B08F608A60423
:2069200074052DFD74003EFE8D828E838FF0129D00FAA3129D00FBA3129D00FCE50D240407
