:200000000200A732FFFFFFFFFFFFFF32FFFFFFFFFFFFFF32FFFFFFFFFFFFFF32FFFFFFFF88
:20002000FFFFFF020BF7FFFFFFFFFF32FFFFFFFFFFFFFF32FFFFFFFFFFFFFF32FFFFFFFF40
:20004000FFFFFF32FFFFFFFFFFFFFF32FFFFFFFFFFFFFF32FFFFFFFFFFFFFF32FFFFFFFFF4
:20006000FFFFFF32FFFFFFFFFFFFFF32FFFFFFFFFFFFFF020A4C02014BE58124FCC3C8C0B6
:20008000E0C082E608467006E5824583601218E58296F58208E58396428208E5F096458263
:2000A000D082C8D0E0C822758120129180E58260030200767928E94400601B7A0190924DDE
:2000C000787275A00CE493F2A308B8000205A0D9F4DAF275A0FFE478FFF6D8FD7800E8442B
:2000E00000600A790175A000E4F309D8FC7871E8440C600C790D900001E4F0A3D8FCD9FA91
:2001000090000A7400F0A3F090000CF0A3F090000EF0A3F0900010F0A3F0900C157400F0D6
:20012000A3F0A3F00200767596295397FEE5EA75EA0075F80022C00D85810D124A00124AB0
:2001400008D00D22124A00124A082212015512012712498D2275962D5397DFC2AF53F67FD0
:2001600053F17F75AEEF75920075910743E680D2AF1201752253ADF143AD0853ADFE22E5D4
:20018000F820E00302018A53F8FE227F00900C72E060030201A6758288758313C007124947
:2001A00057D0070201B37582FA758300C007124957D007C007121D17AE82D007BE0103024A
:2001C00001C47F01C0071218F0AE82D007BE01030201D57F01C007121B84AE82D007BE019A
:2001E000030201E67F01C0071215E0AE82D007BE01030201F77F01BF0102800302020590A4
:200200000C727401F0C00712017FD00702018D22C00D85810DE581240CF581A80D08762BCF
:2002200008765208769A0876C4E50D2405F876DD08769A087612087645E50D2405F8E6C00A
:20024000E008E6C0E008E6C0E008E6C0E0A80D0886820886830886F008E6128A2AAC82AD31
:2002600083AEF0FFE58124FCF581E50D2409F8A60408A60508A60608A607E50D2409F8E688
:20028000C0E008E6C0E008E6C0E008E6C0E07582CD7583E475F08A744412895CAF82E5813F
:2002A00024FCF581EF60030202DA749AC0E074E1C0E0748AC0E07444C0E0E50D2409F88642
:2002C000820886830886F008E612895CAF82E58124FCF581EF70030202F1C0E0C0A8C2AF2B
:2002E000900C727401F0D0E053E080E5E042A8D0E0E50D2405F8E6C0E008E6C0E008E6C0F4
:20030000E008E6C0E0A80D0886820886830886F008E6128DA9AC82AD83AEF0FFE58124FC64
:20032000F581E50D2409F8A60408A60508A60608A607E50D2409F8E6C0E008E6C0E008E651
:20034000C0E008E6C0E075825C75838F75F00274BF12895CAF82E58124FCF581EF60030283
:2003600003927414C0E074AEC0E07407C0E074BFC0E0E50D2409F886820886830886F0085A
:20038000E612895CAF82E58124FCF581EF700302021BC0E0C0A8C2AF900C727401F0D0E036
:2003A00053E080E5E042A8D0E002021B850D81D00D22C00D85810DE581240CF581E50D24F8
:2003C00005F876450876D20876400876C6A80D08765C0876350876B7087646A80D08E6C075
:2003E000E008E6C0E008E6C0E008E6C0E0E50D2405F886820886830886F008E6128A2AAC69
:2004000082AD83AEF0FFE58124FCF581E50D2409F8A60408A60508A60608A607E50D240995
:20042000F8E6C0E008E6C0E008E6C0E008E6C0E075829A75839875F02D744612895CAF82FF
:20044000E58124FCF581EF600302047C7433C0E07498C0E0742DC0E07446C0E0E50D24091F
:20046000F886820886830886F008E612895CAF82E58124FCF581EF7003020493C0E0C0A8D8
:20048000C2AF900C727401F0D0E053E080E5E042A8D0E0A80D08860408860508860608E65A
:2004A000B2E7FFC004C005C006C007E50D2405F886820886830886F008E6128DA9AC82ADD3
:2004C00083AEF0FFE58124FCF581E50D2409F8A60408A60508A60608A607E50D2409F8E626
:2004E000C0E008E6C0E008E6C0E008E6C0E07582147583AE75F007743F12895CAF82E58154
:2005000024FCF581EF600302053A745CC0E0748FC0E07402C0E0743FC0E0E50D2409F88699
:20052000820886830886F008E612895CAF82E58124FCF581EF70030203BDC0E0C0A8C2AFFB
:20054000900C727401F0D0E053E080E5E042A8D0E00203BD850D81D00D227421B5810302C2
:200560000579C0E0C0A8C2AF900C727401F0D0E053E080E5E042A8D0E08500E0E5E07003B2
:2005800002059AC0E0C0A8C2AF900C727401F0D0E053E080E5E042A8D0E08501E07401B57C
:2005A000E0030205BCC0E0C0A8C2AF900C727401F0D0E053E080E5E042A8D0E08502E0740C
:2005C00002B5E0030205DEC0E0C0A8C2AF900C727401F0D0E053E080E5E042A8D0E0850366
:2005E000E07403B5E003020600C0E0C0A8C2AF900C727401F0D0E053E080E5E042A8D0E056
:200600008504E07404B5E003020622C0E0C0A8C2AF900C727401F0D0E053E080E5E042A839
:20062000D0E08505E07405B5E003020644C0E0C0A8C2AF900C727401F0D0E053E080E5E02F
:2006400042A8D0E08506E07406B5E003020666C0E0C0A8C2AF900C727401F0D0E053E080C6
:20066000E5E042A8D0E08507E07407B5E003020688C0E0C0A8C2AF900C727401F0D0E0531D
:20068000E080E5E042A8D0E074CDB582030206A7C0E0C0A8C2AF900C727401F0D0E053E0A2
:2006A00080E5E042A8D0E074ABB583030206C6C0E0C0A8C2AF900C727401F0D0E053E080E4
:2006C000E5E042A8D0E07401B5F00302055AC0E0C0A8C2AF900C727401F0D0E053E080E509
:2006E000E042A8D0E002055A22C00D85810DE581240EF581AD82AE83AFF0E50D240CF8A650
:200700000508A60608A607E50D2405F874012DF674003E08F608A607E50D24FCF8860208C1
:2007200086037C807F008A06E50D2405F886820886830886F0EE128941E50D2408F8A603F2
:2007400008A60408A607087600E50D2405F8740126FD74000836FE088607E50D2408F88628
:20076000028D828E838FF0EA1289410DBD00010E8D828E838FF074AA1289410DBD00010EC7
:200780008D828E838FF07480128941E50D2408F874012DF674003E08F608A607E50D24F9C8
:2007A000F886020886030886047F008A06E50D2408F886820886830886F0EE128941A80D5B
:2007C00008A60308A60408A607087600E50D2408F8740126FD74000836FE088607A80D08D3
:2007E00086028D828E838FF0EA128941A80D0808E618F60808E618F60808E618F6087600CD
:200800000DBD00010EA80D0886028D828E838FF0EA1289410DBD00010E8D828E838FF07469
:20082000021289410DBD00010E8D828E838FF074031289410DBD00010E8D828E838FF07423
:20084000041289410DBD00010E8D828E838FF074051289410DBD00010E8D828E838FF074FF
:20086000061289410DBD00010E8D828E838FF074071289410DBD00010E8D828E838FF074DB
:20088000001289410DBD00010E8D828E838FF074011289410DBD00010E8D828E838FF074C7
:2008A000001289410DBD00010E8D828E838FF074BB128941E50D240CF88602EDC39AFDE50B
:2008C0000D240CF886820886830886F0ED128941E50D240CF886820886830886F0850D81BF
:2008E000D00D22120B3E759600900C87E0FDA3E0FEA3E0FF8D828E838FF0128E6CF509A344
:20090000128E6CF50A750B20850982850A83E0F5080509E4B50902050A050BA90B85098298
:20092000850A83E0FFA7071508E5086003020911850B81D00DD0D0D001D000D007D006D0E3
:2009400005D004D003D002D0F0D083D082D0E020E705C2AF020959D2AFD0E03275820122A6
:2009600022C0E0C0A8C2AFC082C083C0F0C002C003C004C005C006C007C000C001C0D07586
:20098000D000C00D900C87E0FDA3E0FEA3E0FF8D828E838FF0128E6CF509A3128E6CF50A60
:2009A000750B21AF81EF24E0F508850982850A83E508F0E50870030209D50509E4B5090285
:2009C000050A850982850A83A90B8707EFF0050B15080209B31258BA900C87E0FDA3E0FE35
:2009E000A3E0FF8D828E838FF0128E6CF509A3128E6CF50A750B20850982850A83E0F5087F
:200A00000509E4B50902050A050BA90B850982850A83E0FFA7071508E5086003020A0085A4
:200A20000B81D00DD0D0D001D000D007D006D005D004D003D002D0F0D083D082D0E020E7F5
:200A400005C2AF020A48D2AFD0E03222C0E0C0F0C082C083C007C006C005C001C000C0D00F
:200A600075D000B2F8C0E0C0A8C2AFC082C083C0F0C002C003C004C005C006C007C000C0BE
:200A800001C0D075D000C00D900C87E0FDA3E0FEA3E0FF8D828E838FF0128E6CF509A31252
:200AA0008E6CF50A750B21AF81EF24E0F508850982850A83E508F0E5087003020AD905092A
:200AC000E4B50902050A850982850A83A90B8707EFF0050B1508020AB753F17F75AEF790C3
:200AE0000C87E0FDA3E0FEA3E0FF8D828E838FF0128E6CF509A3128E6CF50A750B208509FE
:200B000082850A83E0F5080509E4B50902050A050BA90B850982850A83E0FFA7071508E52E
:200B2000086003020B07850B81D0D0D000D001D005D006D007D083D082D0F0D0E032AF96D6
:200B4000759600C2AF43F68053F17F75AEF75393FE7594007595205393F75393FD439302D4
:200B600075962D5397EF4397105393FB85939343E680439301D2AF8F9622C00D85810DC006
:200B8000E0C0A8C2AFAF96750C01C0077400C0E004C0E0E50D24FDF886821227BAAC82AD75
:200BA00083AEF015811581D007900001ECF0EDA3F0EEA3F0C0077400C0E004C0E0E50D240E
:200BC000FDF886821227BAAC82AD83AEF015811581D007900004ECF0EDA3F0EEA3F08F9690
:200BE000D0E053E080E5E042A8D0E075820075830075F000D00D22C020C0E0C0F0C082C0AE
:200C000083C007C006C005C004C003C002C001C000C0D075D000C0E0C0A8C2AFD0E053E004
:200C200080E5E042A8D0E0D0D0D000D001D002D003D004D005D006D007D083D082D0F0D064
:200C4000E0D02032C00D85810DE50D24FBF88605088606088607900001E0FAA3E0FBA3E089
:200C6000FCE50D24F9F8E6C0E008E6C0E0C005C006C0078A828B838CF0122EFCAF82E581A2
:200C800024FBF581EF7003020C90758201020C93758200D00D22C00D85810DC0E0C0A8C286
:200CA000AF7401B50C028003020CB3750C007F01020CFAE50D24FDFE8E077D007C40900091
:200CC00004E0FAA3E0FBA3E0FE7400C0E0E50D24FBF8E6C0E008E6C0E0C007C005C0048A2C
:200CE000828B838EF0122965AE82E58124FAF5818E07EE6003020CFA7F01D0E053E080E566
:200D0000E042A8D0E08F82D00D2222C00D85810DC082E5812404F581E50D2405F87600E593
:200D20000D2405F8B608004003020E087582037583001223D9AB82AC83ADF0A80D0808A608
:200D40000308A60408A605A80D080886820886830886F0E50D2405F9E7128941A80D080833
:200D6000740126FA74000836FE088607E50D2405F886047D00C007C006C002C004C0057532
:200D8000827D75830012898CAC82AD8315811581D002D006D007747D2CFC74003DFD8A8259
:200DA0008E838FF0EC128941A3ED1289418A828E838FF0EC128941A3ED128941A80D0808DA
:200DC00086030886040886057400C0E0C0E0C0E0A80D08E6C0E0C003C004C00574A7C0E0C7
:200DE0007400C0E07487C0E07491C0E07480C0E075820E75830E124140E58124F4F581E594
:200E00000D2405F806020D1F850D81D00D22C00D85810D058105810581AD82AE83AFF07578
:200E2000828475839175F080C007C006C005120EF8D005D006D007A80D08A60508A606082E
:200E4000A607A80D08740126FA74000836FB0886048A828B838CF0128E6CFEA3128E6CFF06
:200E6000EFC313CE13CEFF8E828F83C004C003C002124957D002D003D004A80D088682089C
:200E800086830886F0128E6CFF8F82C004C003C002120144D002D003D0048A828B838CF000
:200EA000128E6CFAA3128E6CFBEBC313CA13CAFB8A828B83124957A80D0886820886830875
:200EC00086F0128E6CFF8F82120144020E42850D81D00D227400C0E07403C0E0758214127D
:200EE00027BAAD82AE83AFF015811581900007EDF0EEA3F0EFA3F02222C00D85810DC08209
:200F0000C083058105810581E50D2403FD7C007B40900007E0FAA3E0FEA3E0FFA80D08E698
:200F2000C0E008E6C0E0C005C004C0038A828E838FF0122EFCAF82E58124FBF581BF010271
:200F40008003020F55E50D2403F886820886830886F0020F5E75820075830075F000850DAB
:200F600081D00D22C00D85810DC082E5812406F5817582087583001223D9AC82AD83AEF0C8
:200F8000E50D2405F8A60408A60508A606E50D2405F8E6084670030211277403C0E07400AE
:200FA000C0E07582011227BAAA82AB83AFF015811581E50D2405F886820886830886F0EAED
:200FC000128941A3EB128941A3EF128941E50D2405F886820886830886F0128E6CFEA312F4
:200FE0008E6CFDA3128E6CFCEA4B700302100C7400C0E0C0E0C0E0C0E0C0E0C0E08E828DB8
:20100000838CF0122965E58124FAF581E50D2405F886820886830886F0128E6CFAA3128E44
:201020006CFBA3128E6CFFEA4B7003021127E50D2405F8740326FA74000836FB0886077558
:201040008204758300C007C003C0021223D9AC82AD83AEF0D002D003D0078A828B838FF0A7
:20106000EC128941A3ED128941A3EE1289418C828D838EF074FF128941A37400128941A34E
:20108000128941A3128941E50D2405F8740626FD74000836FE0886078D828E838FF07400ED
:2010A000128941A3128941E50D2405F886040886050886067400C0E0C0E0C0E0C0E0C00459
:2010C000C005C00674A7C0E07400C0E074ACC0E07491C0E07480C0E07582E4758312124185
:2010E00040E58124F4F581E50D2405F886040886050886067400C0E0C0E0C0E0C0E0C00440
:20110000C005C00674A7C0E07400C0E074B4C0E07491C0E07480C0E07582E475831212413C
:2011200040E58124F4F5817582087583001223D9AD82AE83AFF0A80D0808A60508A606084B
:20114000A607A80D0808E6084670030212DE7403C0E07400C0E07582011227BAAA82AB8314
:20116000ACF015811581A80D080886820886830886F0EA128941A3EB128941A3EC128941B0
:20118000A80D080886820886830886F0128E6CFFA3128E6CFEA3128E6CFDEA4B70030211D4
:2011A000BE7400C0E0C0E0C0E0C0E0C0E0C0E08F828E838DF0122965E58124FAF581A80D4F
:2011C000080886820886830886F0128E6CFAA3128E6CFBA3128E6CFCEA4B70030212DEA8CB
:2011E0000D0808740326FA74000836FB088604758204758300C004C003C0021223D9AD8283
:20120000AE83AFF0D002D003D0048A828B838CF0ED128941A3EE128941A3EF1289418D823C
:201220008E838FF074FF128941A3740F128941A37400128941A3128941A80D0808740626F6
:20124000FD74000836FE0886078D828E838FF07464128941A37400128941A80D08088605B6
:20126000088606088607C0E0C0E0C0E0A80D08E6C0E0C005C006C00774A7C0E07400C0E001
:2012800074BCC0E07491C0E07480C0E07582E4758312124140E58124F4F581A80D0808868E
:2012A000050886060886077400C0E0C0E0C0E0A80D08E6C0E0C005C006C00774A7C0E074E8
:2012C00000C0E074C4C0E07491C0E07480C0E07582E4758312124140E58124F4F581850D5F
:2012E00081D00D22C00D85810DE5812411F581AE82AC83ABF0E50D2404F87400F608F6C049
:20130000E0C0A8C2AF900C7BE0FAA3E0FFE50D2409F8A60208A607900C7BE0FAA3E0FD902C
:201320000C7B74012AF074003DA3F0D0E053E080E5E042A8D0E07582A975839175F080C0C3
:2013400006C004C003120EF8D003D004D006E50D2406F8A60608A60408A603E50D2406F834
:20136000740326FB74000836FE0886078B828E838FF0E50D240BF8128E6CF6A3128E6C0821
:20138000F6A3128E6C08F6E50D2406F8A90D09740626F77400083609F708E609F7A80D08E3
:2013A00086820886830886F0128E6CFEA3128E6CFFEE4F70030213CBE50D240EF876FF08B5
:2013C000760F740008F608F60213DAE50D240EF876FF740008F608F608F6A80D088682085D
:2013E00086830886F0128E6CFEA3128E6CFFE50D2406F886820886830886F0128E6CFBA359
:20140000128E6CFCA3128E6CFDC006C0078B828C838DF01231C0AF8215811581BF01028050
:20142000030215B9E50D240BF886820886830886F0128E6CFBA3128E6CFDA3128E6CFEA326
:20144000128E6CFFE50D240EF8E6B5031208E6B5050D08E6B5060808E6B5070302147575A2
:2014600082A675839175F080120EF8E50D2404F876010876007B007E007D007F00E50D24AC
:201480000EF8C3E69B08E69E08E69D08E69F50030214DFE50D240BF886820886830886F066
:2014A000EB128941A3EE128941A3ED128941A3EF128941E50D240BF886820886830886F06E
:2014C000128E6CA3128E6CA3128E6CA3128E6C0BBB00090EBE00050DBD00010F02147DE501
:2014E0000D2406F886820886830886F0128E6CFDA3128E6CFEA3128E6CFF7400C0E0C0E00E
:20150000C0E0C0E0C0E0C0E08D828E838FF0122965AF82E58124FAF581EF600302153575CE
:2015200082A675839175F080120EF8E50D2404F87601087600E50D2404F8E608466003024B
:201540001586E50D2409F88606088607C3EE9404EF648094804003021586E50D2409F8E6AB
:2015600025E0FE08E633FFEE2473FEEF340CFF8E828F83E0FCA3E0FD0CBC00010D8E828FA4
:2015800083ECF0EDA3F0A80D0886820886830886F0128E6CFEA3128E6CFFC006C0077582DC
:2015A0000A75830012898CAE82AF83158115818E828F831249570213DAA80D08868208865E
:2015C000830886F0128E6CFEA3128E6CFFEE4F60030213DA1209610213DA850D81D00D2246
:2015E0007F017E00EE75F002A4FCADF0EC240AF582ED3400F583E0FAA3E0FBEC2473F582DF
:20160000ED340CF583E0FCA3E0FDEAB50406EBB5050280030216197F00EE75F002A4FCADA4
:20162000F0EC240AFAED3400FBEC2473F582ED340CF583E0FCA3E0FD8A828B83ECF0EDA309
:20164000F00EBE040050030215E48F8222AF82C0077400C0E07402C0E075820A1227BAAC87
:2016600082AD83AEF015811581D007900012ECF0EDA3F0EEA3F0EC4D70030216F3C00774A6
:2016800000C0E0C0E0C0E0C0077412C0E07400C0E07400C0E074A7C0E07400C0E07423C02F
:2016A000E07492C0E07480C0E07582C8758317124140E58124F4F581D0077400C0E0C0E030
:2016C000C0E0C0077412C0E07400C0E07400C0E074A7C0E07400C0E0742BC0E07492C0E0A1
:2016E0007480C0E07582F4758316124140E58124F4F58122C00D85810DC082C083C0F0059A
:201700008105810581E50D2404F87400F608F67C00E50D2406F87600C004E50D2404FA7C68
:20172000007F40A80D0886030886050886068B828D838EF0128E6CFBA3128E6CFDA3128EEC
:201740006CFEC0047400C0E0C0E0C0E0C002C004C0078B828D838EF0122965AF82E58124C4
:20176000FAF581D004BF0105D004021774D0047C0102179CEC6003021791C0E0C0A8C2AF87
:20178000900C7EE004F0D0E053E080E5E042A8D0E0E50D2404F806B600020806E50D24069F
:2017A000F806E50D2406F8C3E6648094835003021718758203758300C004124957D00402B1
:2017C0001711850D81D00D22C00D85810DC082C083C0F00581058105817B007C00E50D241B
:2017E00006F87600C003C004A80D0886020886060886078A828E838FF0128E6CFBA3128E9A
:201800006CFCA3128E6CFD8B828C838DF0C007C006C004C003C00212396DE582D002D00381
:20182000D004D006D007D004D00370030218D6C003C004E50D2404FD8D037C007D408A82AA
:201840008E838FF0128E6CFAA3128E6CFEA3128E6CFFC004C0037400C0E0C0E0C003C004D5
:20186000C0058A828E838FF0122EFCAF82E58124FBF581D003D004BF01028007D004D00308
:201880000217E4D004D003E50D2404F8E6B5030808E6B504030218ACE50D2406F87601E50C
:2018A0000D2404F886030886040218CEE50D2406F8E660030218CEC0E0C0A8C2AF900C7D21
:2018C000E004F0D0E053E080E5E042A8D0E00BBB00010C0217E47582EF7583FFC004C0033E
:2018E000124957D003D0040217E4850D81D00D22900C7DE07003021902900C7EE060030298
:2019000019077F000219097F01900C7D7400F0900C7EF08F8222C00D85810DAF82E50D24A3
:20192000F9F8900C82E6F0C0077418C0E0E50D24FAF886820886830886F008E6120B7A1596
:2019400081D0078F061EC0077400C0E0C0E0C0E0C006C0E0C0E0C0E074A7C0E07400C0E0EC
:201960007433C0E07492C0E07480C0E07582B3758319124140E58124F4F581D0077400C099
:20198000E0C0E0C0E0C007C0E0C0E0C0E074A7C0E07400C0E07439C0E07492C0E07480C00A
:2019A000E075824E75831A124140E58124F4F581D00D227F41900C7FE0FCA3E0FDA3E0FEB2
:2019C000C0077400C0E0C0E0C0078C828D838EF0120C96AE82158115811581D007BE0102EB
:2019E00080030219F3900C82E0FE8E82C007120144D0070FC374589F40030219B5900C82E7
:201A0000E0FF7400C0E08F821201361581125075AE82AF8374032EFE74003FFF7496C0E0AB
:201A20007400C0E08E828F8312905DAE82AF8315811581C3EE9432EF94004003021A437EC9
:201A4000327F008E828F831249570219B322C00D85810DE5812405F5817F00E50D2404F89B
:201A600076007B41C007E50D2405FCA80D08A604087600087640900C7FE0FDA3E0FEA3E0B7
:201A8000FFC004C00374FFC0E0C0E0A80D08E6C0E008E6C0E008E6C0E08D828E838FF012FD
:201AA0000C44AF82E58124FBF581D003D004EFD0077003021AE3E50D2405F8E6B503028098
:201AC00003021ADE900C82E0FE0E8E82C007C004C003120144D003D004D007021AE37F014D
:201AE000021AF50BC3745864808BF063F08095F04003021A64900C82E0FE0EC007C00474B8
:201B000000C0E08E821201361581D004D007BF01028003021B658C06E50D2405F8B658030E
:201B2000021B5A8E077C007B40C006900C7FE0FAA3E0FDA3E0FEC00674FFC0E0C0E0C00766
:201B4000C004C0038A828D838EF0120C44E58124FBF581D006D006021B18E50D2404F8060E
:201B60007F00021A62E50D2404F8C3E6648094824003021A62900C83E004F0021A62850DEF
:201B800081D00D22900C83E06003021B927F00021B947F01900C837400F08F8222AF827DA0
:201BA000007E00ED2484FBEE340CFC7A00C007C006C0057400C0E0C0E0C0E0C007C003C083
:201BC00004C00274A7C0E07400C0E0743FC0E07492C0E07480C0E075820475831C12414041
:201BE000E58124F4F581D005D006D0070DBD00010E8D038E04C3EB9401EC648094805003FA
:201C0000021BA322C00D85810DE5812407F581AD82AE83AFF07B007C00E50D2405F8A60547
:201C200008A60608A607C003C004A80D08767B740008F608F608F6A80D08744726F67494FC
:201C40000836F674030836F674000836F6A80D08E6C0E008E6C0E008E6C0E008E6C0E0759B
:201C600082FD7583FF75F0FF74FF128E88AA82AB83ACF0FFE58124FCF581A80D08A6020891
:201C8000A60308A60408A607C0037407C0E07400C0E0C0E0C0E0A80D08868208868308869E
:201CA000F008E6128ACCAC82AD83AEF0FFE58124FCF581D003A80D08A60408A60508A60646
:201CC00008A607A80D08B61B1308B6770F08B6FE0B08B6FF07D004D003021CE4D004D0038F
:201CE0007B017C00EB4C6003021C26C0E0C0A8C2AFE50D2405F886820886830886F0740176
:201D0000128941D0E053E080E5E042A8D0E0021C26850D81D00D227F017D007E00ED2484BF
:201D2000FBEE340CFC8B828C83E06003021D317F00ED2484F582EE340CF5837400F00DBD70
:201D400000010E8D038E04C3EB9401EC648094805003021D1D8F8222C00D85810DC082C087
:201D600083C0F0058105810581A80D08740126FF74000836FB088602A80D08E50D2404F93A
:201D8000740426F77400083609F708E609F7E50D2404F886040886050886068F828B838AA2
:201DA000F0EC128941A3ED128941A3EE128941E50D2404F886820886830886F074FF1289DB
:201DC00041A3128941E50D2404F8740226FF74000836FD088604E50D2404F886020886032A
:201DE0000886068F828D838CF0EA128941A3EB128941A3EE128941E50D2404F8740526FF65
:201E000074000836FD088604E50D2404F886020886030886068F828D838CF0EA128941A3BC
:201E2000EB128941A3EE128941A80D0886820886830886F07400128941850D81D00D22AD0B
:201E400082AE83AFF0740B2DFD74003EFE8D828E838FF07400128941A3128941A3128941EA
:201E600022C00D85810DC082C083C0F0E5812409F581A80D08740126FA74000836FB088695
:201E8000048A828B838CF0E50D240AF8128E6CF6A3128E6C08F6A3128E6C08F6E50D24FB23
:201EA000F8860208860308860474022AFD74003BFE8C078D828E838FF0E50D240AF8E612F3
:201EC0008941A308E6128941A308E6128941E50D2404F874052AF674003B08F608A604E56F
:201EE0000D240AF8E50D2407F9740526F77400083609F708E609F7E50D2407F886820886B8
:201F0000830886F0128E6CFDA3128E6CFEA3128E6CFFE50D2404F886820886830886F0EDC6
:201F2000128941A3EE128941A3EF128941E50D2407F886820886830886F0128E6CFDA31280
:201F40008E6CFEA3128E6CFF74022DFD74003EFE8D828E838FF0EA128941A3EB128941A319
:201F6000EC128941E50D2407F886820886830886F0EA128941A3EB128941A3EC12894174DE
:201F80000B2AFA74003BFB8A828B838CF0A80D08E6128941A308E6128941A308E612894179
:201FA000A80D0886820886830886F0128E6CFF0FA80D0886820886830886F0EF128941850F
:201FC0000D81D00D22C00D85810DC082C083C0F0E581240BF581E50D24FBF8860208860332
:201FE0000886048A828B838CF0E50D240AF8128E6CF6A3128E6C08F6E50D240AF8B6FF061F
:2020000008B6FF02800302204AC002C003C004A80D08740426FA74000836FB0886047405BC
:202020002AFA74003BFB8A828B838CF0E50D240CF8128E6CF6A3128E6C08F6A3128E6C08BC
:20204000F6D004D003D0020220D4A80D08740426FD74000836FE088607E50D240CF8A605B9
:2020600008A60608A607C002C003C004E50D240CF8740226FD74000836FE0886078D828E19
:20208000838FF0128E6CFAA3128E6CFBA3128E6CFC8A828B838CF0128E6CFAA3128E6CFB9D
:2020A000E50D240AF8C3E69A08E69BD004D003D00250030220D48D828E838FF0E50D240CB9
:2020C000F8128E6CF6A3128E6C08F6A3128E6C08F6022066E50D2407F874022AF674003BCA
:2020E00008F608A604E50D240CF8E50D2404F9740226F77400083609F708E609F7E50D24BA
:2021000004F886820886830886F0128E6CFDA3128E6CFEA3128E6CFFE50D2407F8868208A3
:2021200086830886F0ED128941A3EE128941A3EF12894174052DFD74003EFE8D828E838F72
:20214000F0EA128941A3EB128941A3EC12894174052AFD74003BFE8C078D828E838FF0E590
:202160000D240CF8E6128941A308E6128941A308E6128941E50D2404F886820886830886D5
:20218000F0EA128941A3EB128941A3EC128941740B2AFA74003BFB8A828B838CF0A80D0814
:2021A000E6128941A308E6128941A308E6128941A80D0886820886830886F0128E6CFF0F15
:2021C000A80D0886820886830886F0EF128941850D81D00D22C00D85810DC082C083C0F0B9
:2021E000E581240CF581A80D08740B26FA74000836FB0886048A828B838CF0E50D240DF887
:20220000128E6CF6A3128E6C08F6A3128E6C08F6A80D08E50D2404F9740226F7740008364D
:2022200009F708E609F7E50D2404F886820886830886F0128E6CFDA3128E6CFEA3128E6CA2
:20224000FFE50D2407F874052DF674003E08F608A607A80D08E50D240AF9740526F7740089
:20226000083609F708E609F7E50D240AF886820886830886F0128E6CFDA3128E6CFEA31218
:202280008E6CFFE50D2407F886820886830886F0ED128941A3EE128941A3EF128941E50D03
:2022A000240AF886820886830886F0128E6CFDA3128E6CFEA3128E6CFFE50D2407F8740272
:2022C0002DF674003E08F608A607E50D2404F886820886830886F0128E6CFDA3128E6CFE17
:2022E000A3128E6CFFE50D2407F886820886830886F0ED128941A3EE128941A3EF128941E0
:20230000E50D240DF8E50D2407F9740126F77400083609F708E609F7E50D2407F886820835
:2023200086830886F0128E6CFDA3128E6CFEA3128E6CFFA80D08C005C006C007868208860D
:20234000830886F01200791581158115817002800302238AE50D240AF886820886830886CC
:20236000F0128E6CFDA3128E6CFEA3128E6CFFE50D2407F886820886830886F0ED12894194
:20238000A3EE128941A3EF1289418A828B838CF07400128941A3128941A3128941E50D2468
:2023A0000DF886820886830886F0128E6CFF1FE50D240DF886820886830886F0EF128941DA
:2023C000E50D240DF886820886830886F0128E6CFF8F82850D81D00D22C00D85810DC082FB
:2023E000C083058105810581E50D2403F87400F608F6087600124A00900C15E0F5F0A3E0BC
:2024000045F0600302241A7A157D007E007F00900C15EAF0EDA3F0EEA3F0A80D08E608465E
:202420007003022483900C85E0FEA3E0FFA80D08E62EFC08E63FFDC3EC94FFED940B4003F7
:20244000022483A80D08E62EFC08E63FFDC3EE9CEF9D4003022483900C15E0FBA3E0FCA369
:20246000E0FDEE2BFBEF3CFCE50D2403F8A60308A60408A605A80D08900C85E62EF008E655
:202480003FA3F0124A08E50D2403F886820886830886F0850D81D00D2222900C857400F0A5
:2024A000A3F022900C85E0FEA3E0FF74FFC39EFE740B9FFF8E828F8322C00D85810DC08291
:2024C000C083C0F0E581240AF581E50D240DF87601A80D08E6084670030227A6A80D087409
:2024E0002526FA74000836FB0886048A828B838CF0128E6CFFBF010050030227A6C002C053
:2025000003C0048F037C00C002C003C0047582FF7583FF1288F5AB82AC8315811581D002C7
:20252000A80D08E50D240AF9742626F77400083609F708E609F7E50D240AF886820886833D
:202540000886F0128E6CFA7F00C3EB9AEC9FD004D003D00250030227A6C0E0C0A8C2AFA8E9
:202560000D08E50D2404F9740626F77400083609F708E609F7A80D0886820886830886F0A8
:20258000E50D2407F9128E6CF7A3128E6C09F7A3128E6C09F78A828B838CF0128E6CFFE53E
:2025A0000D240AF886820886830886F0128E6CFE8FF0EEA4C8E50D2407C826FD08E635F053
:2025C000FE088607E50D2404F886820886830886F0ED128941A3EE128941A3EF128941A873
:2025E0000D08742426FD74000836FE0886078D828E838FF07400128941A80D08E50D2407FD
:20260000F9740326F77400083609F708E609F7A80D0886820886830886F0128E6CFDA3127B
:202620008E6CFEA3128E6CFFE50D2407F886820886830886F0ED128941A3EE128941A3EF80
:20264000128941E50D2404F8E50D2407F9740326F77400083609F708E609F7A80D0886827D
:202660000886830886F0128E6CFDA3128E6CFEA3128E6CFF8A828B838CF0128E6CFA7C004F
:20268000E50D2404F8EA24FFF6EC34FF08F6E50D240AF886820886830886F0128E6CFB7CD6
:2026A00000C007C006C005C003C004E50D2404F8868208868312898CAB82AC831581158167
:2026C000D005D006D007EB2DFDEC3EFEE50D2407F886820886830886F0ED128941A3EE1223
:2026E0008941A3EF128941A80D08742726FD74000836FE0886078D828E838FF074FF128935
:2027000041A80D08742826FD74000836FE0886078D828E838FF074FF128941E50D24FDF8BE
:20272000E66003022768A80D08740C26FD74000836FE0886078D828E838FF0128E6C7003FC
:20274000022798A80D08740C26FD74000836FE0886078D828E838FF0125C69E582700302C1
:202760002798120961022798A80D08740C26FD74000836FE0886078D828E838FF0121D5892
:20278000A80D08741826FD74000836FE0886078D828E838FF0121D58D0E053E080E5E042F8
:2027A000A8D0E00227ADE50D240DF87600E50D240DF88682850D81D00D22C00D85810DC085
:2027C000827C007D007E00A80D08E67003022898C004C005C006A80D0886027B00C006C093
:2027E00005C004C002C0037582FF7583FF1288F5AA82AB8315811581D004D005D006E50D18
:2028000024FDF886057E00C3EA9DEB9ED006D005D0045003022898A80D08E50D24FDF986E0
:20282000F0E7A4FAABF0C374D69A74FF9B500302289874292AFA74003BFB8A828B83122304
:20284000D9AA82AB83AFF08A048B058F06EC4D70030228988C028D038E0774292AFA74009D
:202860003BFBC006C005C004C004C005C006E50D24FCF8E6C0E0C002C003C007E50D24FD95
:20288000F8E6C0E0A80D0886821228A3E58124F8F581D004D005D0068C828D838EF015816F
:2028A000D00D22C00D85810DC082E50D24FDF8E660030228E6E50D24F6F88604088605086A
:2028C0008606E50D24F6F886020886030886078C828D838EF0EA128941A3EB128941A3EF5C
:2028E000128941022914E50D24F6F88604088605088606E50D24FAF8860208860308860752
:202900008C828D838EF0EA128941A3EB128941A3EF128941E50D24F6F886050886060886CC
:202920000774252DFA74003EFB8F048A828B838CF0A80D08E612894174262DFA74003EFB0D
:202940008F048A828B838CF0E50D24FDF8E61289417401C0E08D828E838FF01224B9158148
:202960001581D00D22C00D85810DE5812411F581AD82AB83ACF0E50D2411F87600E50D242D
:202980000EF8A60508A60308A604E50D24F8F8B60204740180027400FFE50D240BFEE50DE6
:2029A000240AF8A606A80D0874242DF674003B08F608A604E50D2407F874252DF674003BEE
:2029C00008F608A604C0E0C0A8C2AFA80D0886820886830886F0128E6CFDE50D2407F886D6
:2029E000820886830886F0128E6CFCC3ED9C50030229F9EF7003022A8BE50D24F8F8E6C036
:202A0000E0E50D24FBF8E6C0E008E6C0E008E6C0E0E50D240EF886820886830886F0123A2C
:202A200008AC82E58124FCF5818C07E50D240EF8741826FA74000836FB0886048A828B83B0
:202A40008CF0128E6C7003022A71E50D240EF8741826FA74000836FB0886048A828B838C31
:202A6000F0125C69E5827003022A7A120961022A7AEF7003022A7A120961D0E053E080E521
:202A8000E042A8D0E0758201022C66E50D24F9F8E608466003022AA9D0E053E080E5E04253
:202AA000A8D0E0758200022C66E50D2411F8E66003022AD28E027B007C408A828B838CF070
:202AC000C007C006126A5DD006D007E50D2411F87601D0E053E080E5E042A8D0E0C007C004
:202AE00006124A00D006D007C0E0C0A8C2AFE50D240EF8742726FA74000836FB0886048AAE
:202B0000828B838CF0128E6CFDBDFF028003022B1C8A828B838CF07400128941E50D240E0C
:202B2000F8742826FA74000836FB0886048A828B838CF0128E6CFDBDFF028003022B4A8AC1
:202B4000828B838CF07400128941C007D0E053E080E5E042A8D0E0E50D24F9FCE50D24046B
:202B6000F8A604087600087640E50D240AF886047D007F40C006E50D2404F8E6C0E008E64D
:202B8000C0E008E6C0E08C828D838FF0126A8FAF82158115811581D006EFD0076003022C3F
:202BA00050E50D240EF886820886830886F0C007C0061240B1E582D006D0077003022C2AA3
:202BC000E50D240EF8740C26FB74000836FC088605C007C006E50D24F9F8E6C0E008E6C02F
:202BE000E08B828C838DF0125A4D15811581D006D007E50D240EF886820886830886F0C057
:202C000007C006123EBCD006D007C007C006124A08E582D006D00760030229C5C007C00649
:202C2000120961D006D0070229C5E50D240EF886820886830886F0C007C006123EBCD00659
:202C4000D007C007C006124A08D006D0070229C5E50D240EF886820886830886F0123EBC50
:202C6000124A08758200850D81D00D22C00D85810D058105810581AA82AB83ACF0A80D08C2
:202C8000A60208A60308A60474242AFD74003BFE8C078D828E838FF0128E6CFD74252AFCC3
:202CA00074003BFE8C078C828E838FF0128E6CFCC3ED9C5003022CC5E50D24F7F8B60202DD
:202CC0008003022DC4A80D08742826FD74000836FE0886078D828E838FF0128E6CFFA80D5E
:202CE00008742426FC74000836FD0886068C828D838EF0128E6CC007E50D24F7F8E6C0E0D5
:202D0000E50D24FBF8E6C0E008E6C0E008E6C0E0A80D0886820886830886F0123A08E581FA
:202D200024FCF581D007BFFF028003022D92A80D08741826FC74000836FD0886068C828DD9
:202D4000838EF0128E6C7003022DBFA80D08741826FC74000836FD0886068C828D838EF0BB
:202D6000125C69E5827003022DBFE50D24F8F8E608467003022DBFE50D24F8F886040886FB
:202D8000050886068C828D838EF07401128941022DBFC0071250A0AE82D0078F05C3ED9E0D
:202DA0004003022DBFA80D08742826FC74000836FD0886060F8C828D838EF0EF1289417F2F
:202DC00001022DC67F008F82850D81D00D22C00D85810DC082C083C0F0E5812404F581A89A
:202DE0000D08742426FA74000836FB0886048A828B838CF0E50D2407F8128E6CF6A80D085D
:202E0000742526FD74000836FE0886078D828E838FF0128E6CFDE50D2407F8C3E69D40036B
:202E2000022EF2A80D08E50D2404F9742826F77400083609F708E609F7E50D2404F886822D
:202E40000886830886F0128E6CFFE50D2407F8E604FE8A828B838CF0EE128941BFFF02803B
:202E600003022EC8A80D08741826FC74000836FD0886068C828D838EF0128E6C7003022E5E
:202E8000EDA80D08741826FC74000836FD0886068C828D838EF0125C69E5827003022EED2D
:202EA000E50D24FBF8E608467003022EEDE50D24FBF886040886050886068C828D838EF0EF
:202EC0007401128941022EEDC0071250A0AE82D0078F05C3ED9E4003022EED0FE50D240449
:202EE000F886820886830886F0EF1289417F01022EF47F008F82850D81D00D22C00D85815F
:202F00000DE581240BF581AC82AD83AFF0E50D240BF87600E50D2405F8A60408A60508A6EF
:202F200007E50D2408FEA80D08A606A80D080874242CF674003D08F608A607C0E0C0A8C258
:202F4000AFA80D080886820886830886F0128E6CFC8C05EC7003022FF5C005E50D24FBF87A
:202F6000E6C0E008E6C0E008E6C0E0E50D2405F886820886830886F0123D62158115811513
:202F800081D005E50D2405F8742426FB74000836FC088607ED14FA8B828C838FF0EA1289B1
:202FA00041E50D2405F8740C26FB74000836FC0886078B828C838FF0128E6C7003022FE4AA
:202FC000E50D2405F8740C26FB74000836FC0886078B828C838FF0125C69E5827003022F7D
:202FE000E4120961D0E053E080E5E042A8D0E07582010231BAE50D24F9F8E608466003022A
:203000003013D0E053E080E5E042A8D0E07582000231BAE50D240BF8E660030230388E036A
:203020007C007F408B828C838FF0C006126A5DD006E50D240BF87601D0E053E080E5E0424B
:20304000A8D0E0C006124A00D006C0E0C0A8C2AFE50D2405F8742726FB74000836FC08869C
:20306000078B828C838FF0128E6CFABAFF02800302307E8B828C838FF07400128941E50DDD
:203080002405F8742826FB74000836FC0886078B828C838FF0128E6CFABAFF0280030230FE
:2030A000AC8B828C838FF07400128941C006D0E053E080E5E042A8D0E0E50D24F9FF7C0067
:2030C0007B40A80D0886027D007E40C006C007C004C0038A828D838EF0126A8FAF82158135
:2030E00015811581D006D006EF6003023181E50D2405F886820886830886F0C006124054DC
:20310000E582D0067003023163E50D2405F8741826FC74000836FD088607C006E50D24F98F
:20312000F8E6C0E008E6C0E08C828D838FF0125A4D15811581D006E50D2405F88682088682
:20314000830886F0C006123EBCD006C006124A08E582D0066003022F3BC006120961D00678
:20316000022F3BE50D2405F886820886830886F0C006123EBCD006C006124A08D006022F60
:203180003BE50D2405F886820886830886F0C006123EBCD006C006124A08D006E50D240587
:2031A000F886820886830886F0C006124054E582D0067003022F3B758200850D81D00D22EF
:2031C000C00D85810DE581240BF581AC82AD83AFF0E50D2408F87600E50D2409F8A60408B2
:2031E000A60508A607E50D2405FEE50D2404F8A606A80D0874242CF674003D08F608A607BD
:20320000C0E0C0A8C2AFA80D0886820886830886F0128E6CFC8C07EC7003023283EF14FC31
:20322000A80D0886820886830886F0EC128941E50D2409F8740C26FB74000836FC08860777
:203240008B828C838FF0128E6C7003023272E50D2409F8740C26FB74000836FC0886078B28
:20326000828C838FF0125C69E5827003023272120961D0E053E080E5E042A8D0E0758201B1
:2032800002344AE50D24FCF8E6084660030232A1D0E053E080E5E042A8D0E0758200023449
:2032A0004AE50D2408F8E660030232C68E037C007F408B828C838FF0C006126A5DD006E5AA
:2032C0000D2408F87601D0E053E080E5E042A8D0E0C006124A00D006C0E0C0A8C2AFE50D21
:2032E0002409F8742726FB74000836FC0886078B828C838FF0128E6CFABAFF028003023396
:203300000C8B828C838FF07400128941E50D2409F8742826FB74000836FC0886078B828C06
:20332000838FF0128E6CFABAFF02800302333A8B828C838FF07400128941C006D0E053E044
:2033400080E5E042A8D0E0E50D24FCFF7C007B40E50D2404F886027D007E40C006C007C024
:2033600004C0038A828D838EF0126A8FAF82158115811581D006D006EF6003023411E50DB7
:203380002409F886820886830886F0C006124054E582D00670030233F3E50D2409F874188A
:2033A00026FC74000836FD088607C006E50D24FCF8E6C0E008E6C0E08C828D838FF0125ABA
:2033C0004D15811581D006E50D2409F886820886830886F0C006123EBCD006C006124A081E
:2033E000E582D0066003023200C006120961D006023200E50D2409F886820886830886F0FF
:20340000C006123EBCD006C006124A08D006023200E50D2409F886820886830886F0C0065C
:20342000123EBCD006C006124A08D006E50D2409F886820886830886F0C006124054E58229
:20344000D0067003023200758200850D81D00D22C00D85810DE581240DF581AD82AB83AFED
:20346000F07C00E50D240BF8A60508A60308A607E50D2408FEE50D2404F8A606A80D0874AB
:20348000242DF674003B08F608A607C0E0C0A8C2AFA80D0886820886830886F0128E6C703A
:2034A00003023584E50D240BF8740626FA74000836FB08860774032AFA74003BFB8A828B7D
:2034C000838FF0128E6CFEA3128E6CFDA3128E6CFCC006C005C004E50D24FBF8E6C0E008A3
:2034E000E6C0E008E6C0E0E50D240BF886820886830886F0123D62158115811581D004D0F1
:2035000005D006E50D240BF8740626FA74000836FB08860774032AFA74003BFB8A828B837C
:203520008FF0EE128941A3ED128941A3EC128941E50D240BF8741826FA74000836FB08866B
:20354000078A828B838FF0128E6C7003023573E50D240BF8741826FA74000836FB0886079B
:203560008A828B838FF0125C69E5827003023573120961D0E053E080E5E042A8D0E0758222
:2035800001023784E50D24F9F8E6084660030235A2D0E053E080E5E042A8D0E0758200023B
:2035A0003784EC60030235BD8E027B007F408A828B838FF0C006126A5DD0067C01D0E053B5
:2035C000E080E5E042A8D0E0C006C004124A00D004D006C0E0C0A8C2AFE50D240BF874276F
:2035E00026FA74000836FB0886078A828B838FF0128E6CFDBDFF0280030236078A828B832D
:203600008FF07400128941E50D240BF8742826FA74000836FB0886078A828B838FF0128E8B
:203620006CFDBDFF0280030236358A828B838FF07400128941C004D0E053E080E5E042A8B4
:20364000D0E0E50D24F9FFE50D2405F8A607087600087640E50D2404F886047D007F40C018
:2036600006C004E50D2405F8E6C0E008E6C0E008E6C0E08C828D838FF0126A8FAF8215815C
:2036800015811581D004D006D004EF600302373FE50D240BF886820886830886F0C006C080
:2036A00004124054E582D004D0067003023719E50D240BF8741826FB74000836FD08860780
:2036C000C006C004E50D24F9F8E6C0E008E6C0E08B828D838FF0125A4D15811581D004D020
:2036E00006E50D240BF886820886830886F0C006C004123EBCD004D006C006C004124A08E6
:20370000E582D004D006600302348BC006C004120961D004D00602348BE50D240BF88682E2
:203720000886830886F0C006C004123EBCD004D006C006C004124A08D004D00602348BE57C
:203740000D240BF886820886830886F0C006C004123EBCD004D006C006C004124A08D0049C
:20376000D006E50D240BF886820886830886F0C006C004124054E582D004D00670030234D9
:203780008B758200850D81D00D22C00D85810DC082C083C0F0A80D08742426FA7400083659
:2037A000FB0886048A828B838CF0128E6CFA8A04EA70030238B3A80D08742726FA74000814
:2037C00036FB0886078A828B838FF0128E6CFFC007C004E50D24FBF8E6C0E008E6C0E008CF
:2037E000E6C0E0A80D0886820886830886F0123D62158115811581D004D007A80D0874247C
:2038000026FB74000836FD0886061C8B828D838EF0EC128941BFFF028003023881A80D080A
:20382000740C26FC74000836FD0886068C828D838EF0128E6C70030238AEA80D08740C263D
:20384000FC74000836FD0886068C828D838EF0125C69E58270030238AEE50D24F8F8E60800
:203860004670030238AEE50D24F8F886040886050886068C828D838EF074011289410238C9
:20388000AEC0071250A0AE82D0078F05C3ED9E40030238AEA80D08742726FC74000836FD74
:2038A0000886060F8C828D838EF0EF1289417F010238B57F008F82850D81D00D22C00D859B
:2038C000810DAD82AE83AFF074242DFA74003EFB8F048A828B838CF0128E6C7003023966A6
:2038E00074062DFA74003EFB8F0474032AFA74003BFB8A828B838CF0128E6CFAA3128E6C57
:20390000FBA3128E6CFCC007C006C005C004C003C002E50D24FBF8E6C0E008E6C0E008E65B
:20392000C0E08D828E838FF0123D62158115811581D002D003D004D005D006D00774062D33
:20394000FD74003EFE74032DFD74003EFE8D828E838FF0EA128941A3EB128941A3EC128970
:20396000417F010239687F008F82D00D22AD82AE83AFF0C0E0C0A8C2AF74242DFD74003E68
:20398000FE8D828E838FF0128E6CFDD0E053E080E5E042A8D0E08D8222AD82AE83AFF0C0CF
:2039A000E0C0A8C2AF74252DFA74003EFB8F048A828B838CF0128E6CFA74242DFD74003E3E
:2039C000FE8D828E838FF0128E6CFDEAC39DFAD0E053E080E5E042A8D0E08A8222AD82AE30
:2039E00083AFF074242DFD74003EFE8D828E838FF0128E6CFD8D8222AD82AE83AFF08D824C
:203A00008E838FF012249922C00D85810DC082C083C0F0E581240AF581A80D08742426FA91
:203A200074000836FB0886048A828B838CF0E50D240DF8128E6CF6A80D08E50D240AF9744A
:203A40002626F77400083609F708E609F7E50D240AF886820886830886F0128E6CFEEE706C
:203A600003023D47E50D24FAF8E66003023BC4C002C003C0048E047D00A80D08E50D240739
:203A8000F9740326F77400083609F708E609F7E50D2407F886820886830886F0128E6CFA47
:203AA000A3128E6CFBA3128E6CFFC004C003C002C004C005E50D24FBF8E6C0E008E6C0E0BF
:203AC00008E6C0E08A828B838FF0128C53E58124FBF581D002D003D004E50D2407F886823D
:203AE0000886830886F0128E6CFCA3128E6CFDA3128E6CFFE50D240AF88682088683088616
:203B0000F0128E6CFBE50D2404F8EB2CF674003D08F608A607E50D2407F8868208868308F5
:203B200086F0E50D2404F9E7128941A309E7128941A309E7128941A80D08740626FA740090
:203B40000836FB0886078A828B838FF0128E6CFAA3128E6CFBA3128E6CFFE50D2404F8C0CE
:203B600002C003C00786820886830886F0120079158115811581D004D003D0025003023DCA
:203B800047C002C003C004A80D0886820886830886F0128E6CFCA3128E6CFDA3128E6CFFDF
:203BA000E50D2407F886820886830886F0EC128941A3ED128941A3EF128941D004D003D040
:203BC00002023D47C002C003C0047F00A80D08E50D2404F9740626F77400083609F708E68E
:203BE00009F7E50D2404F8E50D2407F9740326F77400083609F708E609F7E50D2407F886CE
:203C0000820886830886F0128E6CFBA3128E6CFCA3128E6CFDC004C003C002C006C007E57A
:203C20000D24FBF8E6C0E008E6C0E008E6C0E08B828C838DF0128C53E58124FBF581D00267
:203C4000D003D004E50D2407F886820886830886F0128E6CFDA3128E6CFEA3128E6CFFE5C8
:203C60000D240AF886820886830886F0128E6CFC7B00EDC39CFDEE9BFEE50D2407F886820A
:203C80000886830886F0ED128941A3EE128941A3EF128941A80D0886820886830886F0128B
:203CA0008E6CFAA3128E6CFBA3128E6CFCC002C003C0048D828E838FF0120079158115811C
:203CC0001581D004D003D0024003023D29C002C003C004E50D2404F886820886830886F038
:203CE000128E6CFDA3128E6CFEA3128E6CFFE50D240AF886820886830886F0128E6CFC7B2E
:203D000000EDC39CFDEE9BFEE50D2407F886820886830886F0ED128941A3EE128941A3EF5F
:203D2000128941D004D003D002E50D24FAF8B602028003023D47E50D240DF8E67003023DB0
:203D400047E50D240DF816E50D240DF8E604FF8A828B838CF0EF128941758200850D81D0AC
:203D60000D22C00D85810DE5812407F581C8E50D2405C8A68208A68308A6F0E50D2405F878
:203D8000742626FA74000836FB0886048A828B838CF0A80D08128E6CF6A80D08E6700302BD
:203DA0003EB6C002C003C004E50D2405F8740626FA74000836FB088604A80D080874032A74
:203DC000F674003B08F608A604A80D080886820886830886F0128E6CFDA3128E6CFEA312C7
:203DE0008E6CFFA80D08E62DFD74003EFEA80D080886820886830886F0ED128941A3EE1285
:203E00008941A3EF1289418A828B838CF0128E6CFAA3128E6CFBA3128E6CFCC002C003C034
:203E2000048D828E838FF0120079158115811581D004D003D0025003023E70E50D2405F803
:203E400086820886830886F0128E6CFDA3128E6CFEA3128E6CFFA80D080886820886830881
:203E600086F0ED128941A3EE128941A3EF1289418A828B838CF0128E6CFA7F00A80D080848
:203E800086820886830886F0128E6CFCA3128E6CFDA3128E6CFEC002C007C004C005C00652
:203EA000E50D24FBF886820886830886F0128C53E58124FBF581850D81D00D22C00D858191
:203EC0000DC082C083C0F0E5812404F581C0E0C0A8C2AFA80D08742826FA74000836FB08F5
:203EE00086048A828B838CF0E50D2407F8128E6CF6A80D08E50D2404F9741826F774000896
:203F00003609F708E609F7E50D2407F8C37400648086F063F08095F04003023F75E50D2470
:203F200004F886820886830886F0128E6C7003023F75A80D08741826FD74000836FE08860F
:203F4000078D828E838FF0C004C003C002125C69E582D002D003D0047003023F6CC004C017
:203F600003C002126BB6D002D003D004E50D2407F816023F078A828B838CF074FF12894178
:203F8000D0E053E080E5E042A8D0E0C0E0C0A8C2AFA80D08742726FD74000836FE08860726
:203FA0008D828E838FF0128E6CFCA80D08E50D2404F9740C26F77400083609F708E609F74D
:203FC000C3740064808CF063F08095F04003024038E50D2404F886820886830886F0128EEC
:203FE0006C7003024038C005C006C007A80D08740C26FA74000836FB0886078A828B838FCE
:20400000F0C007C006C005C004125C69E582D004D005D006D007D007D006D00570030240CF
:2040200034C007C006C005C004126BB6D004D005D006D0071C023FC08D828E838FF074FF7E
:20404000128941D0E053E080E5E042A8D0E0850D81D00D22AD82AE83AFF0C0E0C0A8C2AF38
:2040600074242DFD74003EFE8D828E838FF0128E6C600302407B7F0102407D7F00D0E05342
:20408000E080E5E042A8D0E08F8222AD82AE83AFF074242DFD74003EFE8D828E838FF0120C
:2040A0008E6C60030240AC7F010240AE7F008F8222AD82AE83AFF0C0E0C0A8C2AF74242D56
:2040C000FA74003EFB8F048A828B838CF0128E6CFA74252DFD74003EFE8D828E838FF012E6
:2040E0008E6CFDEAB5050280030240F17F010240F37F00D0E053E080E5E042A8D0E08F8266
:2041000022AD82AE83AFF074242DFA74003EFB8F048A828B838CF0128E6CFA74252DFD74AC
:20412000003EFE8D828E838FF0128E6CFDEAB50502800302413B7F0102413D7F008F822242
:20414000C00D85810D058105810581AE82AF83758233758300C007C0061223D9AB82AC8372
:20416000ADF0D006D007A80D08A60308A60408A605A80D08E608467003024224C006C007D1
:20418000A80D088602088606088607C007C0067433C0E07400C0E0C0E08A828E838FF0127B
:2041A0008CE6158115811581D006D007A80D08742026FA74000836FE088607E50D24F9F861
:2041C00086040886058C828D83C007C006C0021223D9AB82AC83ADF0D002D006D0078A82C3
:2041E0008E838FF0EB128941A3EC128941A3ED128941D007D006EB4C6003024224A80D0825
:2042000086030886040886058B828C838DF0C007C006122499D006D007A80D087400F6081F
:20422000F6087600A80D08E6084670030242B3E50D24F9F886020886037C007D007400C062
:20424000E0C0E0C0E0A80D08E6C0E008E6C0E008E6C0E0E50D24F2F8E6C0E008E6C0E008C3
:20426000E6C0E0E50D24F5F8E6C0E0E50D24F6F8E6C0E008E6C0E008E6C0E0C002C003C044
:2042800004C005E50D24FBF8E6C0E008E6C0E008E6C0E08E828F831242BDE58124ECF5818B
:2042A000A80D0886820886830886F012459F7F010242B57FFF8F82850D81D00D22C00D8548
:2042C000810DC082C083E581240CF581E50D24EDF8E50D2409F9E6F708E609F708E609F7F3
:2042E000E50D2409F8742026FA74000836FE0886078A828E838FF0E50D240CF8128E6CF6F6
:20430000A3128E6C08F6A3128E6C08F6E50D240CF8E50D2403F9E6F708E609F708E609F75E
:20432000E50D2409F8E50D2406F9742B26F77400083609F708E609F7E50D24F7F8E624FFE7
:20434000FA08E634FFFE08E634FFFD08E634FFFFE50D240CF8EA26FAEE0836FE088605E540
:204360000D2406F886820886830886F0EA128941A3EE128941A3ED128941E50D24FBF8E6E9
:2043800008467003024414E50D2409F8742326FD74000836FE0886077B00E50D2406F8EB72
:2043A0002DF674003E08F608A607C005C006C007E50D24FBF8EB26FD74000836FE088607C7
:2043C0008D828E838FF0128E6CFCE50D2406F886820886830886F0EC1289418D828E838F14
:2043E000F0128E6CD007D006D00570030243F80BBB0800500302439AE50D2409F8742A26B4
:20440000FD74000836FE0886078D828E838FF07400128941E50D24F3F8B604005003024417
:2044200028E50D24F3F87603E50D2409F8741F26FD74000836FE0886078D828E838FF0E544
:204440000D24F3F8E6128941E50D2409F8740326FD74000836FE0886078D828E838FF012D7
:204460001E3FE50D2409F8741126FD74000836FE0886078D828E838FF0121E3FE50D2409AE
:20448000F8740B26FD74000836FE088607E50D24EDF886020886030886048D828E838FF0F8
:2044A000EA128941A3EB128941A3EC128941E50D2409F8E50D2406F9741126F774000836E1
:2044C00009F708E609F7E50D24F3F886077E007404C39FFF74009EFEE50D2406F8868208D5
:2044E00086830886F0EF128941A3EE128941E50D2409F8741926FD74000836FE0886078D64
:20450000828E838FF0EA128941A3EB128941A3EC128941E50D24F4F8E6C0E008E6C0E008D0
:20452000E6C0E0A80D08E6C0E008E6C0E0E50D2403F886820886830886F01206E9AF82AE9C
:2045400083ADF0E58124FBF581E50D2409F886820886830886F0EF128941A3EE128941A3B7
:20456000ED128941E50D24F0F8E608467003024599E50D24F0F886050886060886078D822C
:204580008E838FF0E50D2409F8E6128941A308E6128941A308E6128941850D81D00D22C006
:2045A0000D85810DC082C083C0F0E581240CF581C0E0C0A8C2AF900C8AE004F0900C87E024
:2045C000FAA3E0FBA3E0FCEA4B60030245F1A80D08900C87E6F008E6A3F008E6A3F0900CC0
:2045E0008AE0FCBC01028003024648126BD5024648900C8EE06003024648900C87E0FAA304
:20460000E0FBA3E0FC741F2AFA74003BFB8A828B838CF0128E6CFAA80D08741F26FB74005E
:204620000836FC0886078B828C838FF0128E6CFBC3EB9A5003024648A80D08900C87E6F028
:2046400008E6A3F008E6A3F0900C93E02401F0A80D08741F26FD74000836FE0886078D826D
:204660008E838FF0128E6CFC900C8DE0FBC3EB9C400302467A900C8DECF08D828E838FF0AB
:20468000128E6CFCEC75F00CA42418FB740C35F0FC8B828C83A3E50D240DF8E0F6A3E008FE
:2046A000F6A3E008F6A80D08E50D2404F9740326F77400083609F708E609F7E50D2404F86D
:2046C000740226FA74000836FB0886048A828B838CF0E50D240DF8E6128941A308E6128966
:2046E00041A308E6128941E50D2404F8E50D2407F9740526F77400083609F708E609F7E5C9
:204700000D240DF8E50D240AF9740526F77400083609F708E609F7E50D240AF88682088666
:20472000830886F0128E6CFAA3128E6CFBA3128E6CFCE50D2407F886820886830886F0EA87
:20474000128941A3EB128941A3EC128941E50D240AF886820886830886F0128E6CFAA3123E
:204760008E6CFBA3128E6CFC74022AFA74003BFB8A828B838CF0E50D2404F8E6128941A348
:2047800008E6128941A308E6128941E50D240AF886820886830886F0E50D2404F9E712899E
:2047A00041A309E7128941A309E7128941E50D2404F8E50D240AF9740B26F7740008360958
:2047C000F708E609F78D828E838FF0128E6CFCEC75F00CA42418FC740C35F0FB8C027C006A
:2047E000E50D240AF886820886830886F0EA128941A3EB128941A3EC1289418D828E838FC0
:20480000F0128E6CFCEC75F00CA42418FB740C35F0FC8B828C83E0FA0A8B828C83EAF0D001
:20482000E053E080E5E042A8D0E0900C8EE07003024865900C87E0FAA3E0FBA3E0FC741FCD
:204840002AFA74003BFB8A828B838CF0128E6CFA8D828E838FF0128E6CFDC3EA9D400302B7
:204860004865120961850D81D00D22C00D85810DC082C083C0F0058105817E00C006124A3C
:2048800000D006900C8BE0FAA3E0FBE50D2404F8A60208A603A80D0886820886830886F004
:2048A000128E6CFBA3128E6CFCE50D24FCF8E62BFD08E63CFF8D02E50D2404F8C3E69B0818
:2048C000E69C40030248E6C3EA9BEF9C4003024902E50D2404F8C3E69A08E69F4003024910
:2048E000027E01024902C3EA9BEF9C5003024900E50D2404F8C3E69A08E69F400302490207
:204900007E01A80D0886820886830886F0EA128941A3EF128941EE700302493AE50D240490
:20492000F8EAC396FAEF0896FFC0067400C0E08A828F831287C91581D006C006124A08E5E1
:2049400082D006600302494FC006120961D0068E82850D81D00D22AE82AF837D00EE4F703C
:2049600003024983C007C006124A00D006D0077400C0E08E828F831287C91581124A08AF8F
:20498000828F05ED600302498C120961227496C0E0740CC0E07400C0E0C0E0C0E0C0E0C0BE
:2049A000E074A7C0E07400C0E07448C0E07492C0E07480C0E07582BD75836B124140AF82D7
:2049C000E58124F4F581BF010280030249ECC2AF900C9474FFF0A3F0900C8E7401F0900CA5
:2049E0008B7400F0A3F01208E30249EED2F8909247E49322C2AF900C8E7400F01209602297
:204A0000900C99E02401F022C00D85810DE5812416F581E50D2410F87400F608F608760050
:204A2000E50D2413F87600C0E0C0A8C2AF900C99E014F0E0600302505D900C8AE0700302E0
:204A4000505D900C66E07003024FF7900C6CE0FAA3E0FBA3E0FC74082AFA74003BFB8A82D7
:204A60008B838CF0128E6CFAA3128E6CFBA3128E6CFCE50D2410F8A60208A60308A604E543
:204A80000D2410F8A90D09741126F77400083609F708E609F7E50D2410F8741C26FA74009A
:204AA0000836FB0886048A828B838CF0E50D2414F8128E6CF6A3128E6C08F6A3128E6C080D
:204AC000F6E50D2410F8741326FA74000836FB0886048A828B838CF0128E6CFDA3128E6C8E
:204AE000FEA3128E6CFFE50D240DF874052DF674003E08F608A607E50D2410F8E50D240AB0
:204B0000F9741626F77400083609F708E609F7E50D240AF886820886830886F0128E6CFD9D
:204B2000A3128E6CFEA3128E6CFFE50D240DF886820886830886F0ED128941A3EE12894132
:204B4000A3EF128941E50D240AF886820886830886F0128E6CFDA3128E6CFEA3128E6CFFD4
:204B600074022DFD74003EFE8A828B838CF0128E6CFAA3128E6CFBA3128E6CFC8D828E83D4
:204B80008FF0EA128941A3EB128941A3EC128941E50D2414F8740126FC74000836FB088607
:204BA000028C828B838AF0128E6CFDA3128E6CFEA3128E6CFFA80D08C005C006C0078682E2
:204BC0000886830886F012007915811581158170028003024C05E50D240AF8868208868380
:204BE0000886F0128E6CFDA3128E6CFEA3128E6CFF8C828B838AF0ED128941A3EE12894107
:204C0000A3EF128941A80D08740B26FD74000836FE0886078D828E838FF07400128941A3F0
:204C2000128941A3128941E50D2414F886820886830886F0128E6CFF1FE50D2414F886820C
:204C40000886830886F0EF128941E50D2410F8740326FD74000836FE088607E50D240DF8E2
:204C6000740B2DF674003E08F608A607E50D240DF886820886830886F0E50D2414F9128EB8
:204C80006CF7A3128E6C09F7A3128E6C09F7E50D240AF874022DF674003E08F608A607E558
:204CA0000D240AF886820886830886F0128E6CFAA3128E6CFBA3128E6CFCE50D2407F87446
:204CC000052AF674003B08F608A604A80D0874052DF674003E08F608A607A80D08868208C5
:204CE00086830886F0128E6CFAA3128E6CFBA3128E6CFCE50D2407F886820886830886F026
:204D0000EA128941A3EB128941A3EC128941A80D0886820886830886F0128E6CFAA3128E5B
:204D20006CFBA3128E6CFCE50D2407F874022AF674003B08F608A604E50D240AF88682082F
:204D400086830886F0128E6CFAA3128E6CFBA3128E6CFCE50D2407F886820886830886F0C5
:204D6000EA128941A3EB128941A3EC128941E50D2414F8E50D2407F9740126F7740008361C
:204D800009F708E609F7E50D2407F886820886830886F0128E6CFAA3128E6CFBA3128E6C1A
:204DA000FCC005C006C0078A828B838CF012007915811581158170028003024DF1A80D08D0
:204DC00086820886830886F0128E6CFAA3128E6CFBA3128E6CFCE50D2407F88682088683B3
:204DE0000886F0EA128941A3EB128941A3EC128941C005C006C007E50D240DF88682088697
:204E0000830886F07400128941A3128941A3128941E50D2414F886820886830886F0128EEA
:204E20006CFC1CE50D2414F886820886830886F0EC128941E50D2410F8E50D2404F9741FA9
:204E400026F77400083609F708E609F7E50D2404F886820886830886F0128E6CFC900C8DBB
:204E6000E0FFC3EF9CD007D006D0054003024E75900C8DECF0E50D2404F886820886830843
:204E800086F0128E6CFCEC75F00CA42418FB740C35F0FC8B828C83A3E0FAA3E0FBA3E0FC25
:204EA000E50D240AF886820886830886F0EA128941A3EB128941A3EC128941E50D2407F893
:204EC00074052AF674003B08F608A604E50D2407F886820886830886F0128E6CFAA3128EE5
:204EE0006CFBA3128E6CFCA80D0886820886830886F0EA128941A3EB128941A3EC128941B1
:204F0000E50D2407F886820886830886F0128E6CFAA3128E6CFBA3128E6CFC74022AFA747C
:204F2000003BFB8A828B838CF0ED128941A3EE128941A3EF128941E50D2407F88682088656
:204F4000830886F0ED128941A3EE128941A3EF128941E50D2404F886820886830886F012F1
:204F60008E6CFFEF75F00CA42418FE740C35F0FF7D00E50D240DF886820886830886F0EE39
:204F8000128941A3EF128941A3ED128941E50D2404F886820886830886F0128E6CFFEF7543
:204FA000F00CA42418FE740C35F0FF8E828F83E0FD0D8E828F83EDF0E50D2404F886820846
:204FC00086830886F0128E6CFF900C87E0FCA3E0FDA3E0FE741F2CFC74003DFD8C828D83B8
:204FE0008EF0128E6CFCC3EF9C5003024A42900C917401F0024A42E50D2410F8E60846701A
:2050000003025007126C3E900C8FE0FEA3E0FF8E048F05EE4F700302504A8C068D07C0078E
:20502000C006125112E582D006D0077003025036900C917401F01EBEFF011FEE4F600302F7
:20504000501E900C8F7400F0A3F0900C91E0700302505DE50D2413F87601120961D0E0537A
:20506000E080E5E042A8D0E0E50D2413F88682850D81D00D22C0E0C0A8C2AF900C8BE0FEB8
:20508000A3E0FFD0E053E080E5E042A8D0E08E828F8322900C8BE0FEA3E0FF8E828F8322BD
:2050A000900C8AE0FF8F8222AD82AE83AFF0ED4E60030250C3900C87E0FAA3E0FBA3E0FC0C
:2050C0000250C98D028E038F0474232AFA74003BFB8A828B838CF022AE82AF83C007C006F6
:2050E000124A00D006D007C0E0C0A8C2AF900C8FE0FCA3E0FD900C8FEE2CF0EF3DA3F0D0E3
:20510000E053E080E5E042A8D0E0124A08AF828F8222C00D85810DE5812418F581E50D24C7
:2051200013F87600900C99E060030258A1900C8BE0FDA3E0FEE50D2414F874012DF67400C8
:205140003E08F6E50D2414F8900C8BE6F008E6A3F0E50D2414F8E608466003025197900C34
:2051600060E0FAA3E0FBA3E0FC8B058C06900C63E0FBA3E0FCA3E0FF900C60EBF0ECA3F0A5
:20518000EFA3F0900C63EAF0EDA3F0EEA3F0900C92E004F0126C3E900C94E0FBA3E0FCE586
:2051A0000D2414F8C3E69B08E69C5003025850900C60E0FAA3E0FBA3E0FC8A828B838CF07E
:2051C000128E6C60030251D3900C9474FFF0A3F0025850900C60E0FAA3E0FBA3E0FC74041F
:2051E0002AFA74003BFB74022AFA74003BFB8A828B838CF0128E6CFAA3128E6CFBA3128E14
:205200006CFC74082AFA74003BFB8A828B838CF0128E6CFAA3128E6CFBA3128E6CFCE50DF9
:205220002410F8A60208A60308A604E50D2410F8740326FD74000836FE0886078D828E831A
:205240008FF0128E6CFFA3128E6CFEE50D2414F8C3E69F08E69E4003025266900C94EFF015
:20526000EEA3F0025850E50D2410F8740326FD74000836FE088607E50D2410F8740E26FA46
:2052800074000836FB0886048A828B838CF0E50D2416F8128E6CF6A3128E6C08F6A3128E23
:2052A0006C08F6E50D2410F8E50D2404F9740526F77400083609F708E609F7E50D2404F80B
:2052C00086820886830886F0128E6CFAA3128E6CFBA3128E6CFCA80D0874052AF674003BD7
:2052E00008F608A604E50D2410F8E50D2407F9740826F77400083609F708E609F7E50D247B
:2053000007F886820886830886F0128E6CFAA3128E6CFBA3128E6CFCA80D088682088683C6
:205320000886F0EA128941A3EB128941A3EC128941E50D2407F886820886830886F0128E08
:205340006CFAA3128E6CFBA3128E6CFCA80D0874022AF674003B08F608A604E50D2404F8CE
:2053600086820886830886F0128E6CFAA3128E6CFBA3128E6CFCA80D0886820886830886D7
:20538000F0EA128941A3EB128941A3EC128941E50D2416F8A90D09740126F7740008360952
:2053A000F708E609F7A80D0886820886830886F0128E6CFAA3128E6CFBA3128E6CFCC00594
:2053C000C006C0078A828B838CF01200791581158115817002800302540EE50D2407F88669
:2053E000820886830886F0128E6CFAA3128E6CFBA3128E6CFCA80D0886820886830886F0ED
:20540000EA128941A3EB128941A3EC128941E50D240DF8740B2DF674003E08F608A607E5EA
:205420000D240DF886820886830886F07400128941A3128941A3128941C005C006C007E51A
:205440000D2416F886820886830886F0128E6CFF1FE50D2416F886820886830886F0EF1290
:205460008941E50D2410F8A90D09741126F77400083609F708E609F7A80D08E50D2407F970
:20548000740B26F77400083609F708E609F7E50D2407F886820886830886F0128E6CFAA37B
:2054A000128E6CFBA3128E6CFCD007D006D005EA4B7003025667C005C006C007E50D2416D3
:2054C000F8A60208A60308A604A80D08740226FD74000836FE0886078D828E838FF0128EEF
:2054E0006CFAA3128E6CFBA3128E6CFCE50D240AF874052AF674003B08F608A604A80D0824
:20550000E50D2404F9740526F77400083609F708E609F7E50D2404F886820886830886F099
:20552000128E6CFAA3128E6CFBA3128E6CFCE50D240AF886820886830886F0EA128941A3F8
:20554000EB128941A3EC128941E50D2404F886820886830886F0128E6CFAA3128E6CFBA31D
:20556000128E6CFC74022AFA74003BFB8D828E838FF0128E6CFDA3128E6CFEA3128E6CFFDC
:205580008A828B838CF0ED128941A3EE128941A3EF128941E50D2416F8E50D240AF974011F
:2055A00026F77400083609F708E609F7E50D240AF886820886830886F0128E6CFDA3128E33
:2055C0006CFEA3128E6CFFA80D08C005C006C00786820886830886F0120079158115811541
:2055E0008170028009D007D006D00502562AD007D006D005E50D2404F886820886830886F0
:20560000F0128E6CFAA3128E6CFBA3128E6CFCE50D240AF886820886830886F0EA128941CA
:20562000A3EB128941A3EC128941E50D2407F886820886830886F07400128941A31289411A
:20564000A3128941E50D2416F886820886830886F0128E6CFC1CE50D2416F88682088683AF
:205660000886F0EC128941C005C006C007E50D2410F8A90D09741F26F77400083609F7084B
:20568000E609F7A80D0886820886830886F0128E6CFC900C8DE0FFC3EF9CD007D006D005F0
:2056A00040030256AA900C8DECF0A80D0886820886830886F0128E6CFCEC75F00CA4241807
:2056C000FB740C35F0FC8B828C83A3E50D2416F8E0F6A3E008F6A3E008F674022DFA740062
:2056E0003EFB8F048A828B838CF0E50D2416F8E6128941A308E6128941A308E6128941E5A3
:205700000D240AF874052DF674003E08F608A607E50D2416F8E50D2407F9740526F7740011
:20572000083609F708E609F7E50D2407F886820886830886F0128E6CFAA3128E6CFBA3122C
:205740008E6CFCE50D240AF886820886830886F0EA128941A3EB128941A3EC128941E50D17
:205760002407F886820886830886F0128E6CFAA3128E6CFBA3128E6CFC74022AFA74003BCB
:20578000FB8A828B838CF0ED128941A3EE128941A3EF128941E50D2407F88682088683089E
:2057A00086F0ED128941A3EE128941A3EF128941A80D0886820886830886F0128E6CFFEF81
:2057C00075F00CA42418FE740C35F0FF7D00E50D240DF886820886830886F0EE128941A33A
:2057E000EF128941A3ED128941A80D0886820886830886F0128E6CFFEF75F00CA42418FED5
:20580000740C35F0FF8E828F83E0FD0D8E828F83EDF0A80D0886820886830886F0128E6C79
:20582000FF900C87E0FCA3E0FDA3E0FE741F2CFC74003DFD8C828D838EF0128E6CFCC3EFAA
:205840009C50030251AFE50D2413F876010251AF900C87E0FDA3E0FEA3E0FF741F2DFD7489
:20586000003EFE8D828E838FF0128E6CFDED75F00CA42418F582740C35F0F583E0FFC3745C
:20588000019F400302588EE50D2413F87601900C91E070030258ADE50D2413F8760102582C
:2058A000AD900C8FE02401F0A3E03400F0E50D2413F88682850D81D00D22C00D85810DE574
:2058C00081240AF581900C99E070030258D7900C917401F0025A47900C917400F0900C8DFB
:2058E000E0FFEF75F00CA4FDAEF0ED2418FBEE340CFC8B828C83E060030259001F0258E2C7
:20590000E50D2407F8A607ED2418FDEE340CFEE50D2408F8A60508A606087600E50D240862
:20592000F8740126FA74000836FB0886078A828B838FF0128E6CFCA3128E6CFDA3128E6C9C
:20594000FE74022CFC74003DFD8C828D838EF0128E6CFCA3128E6CFDA3128E6CFE8A828B69
:20596000838FF0EC128941A3ED128941A3EE1289418A828B838FF0E50D2404F8128E6CF6D7
:20598000A3128E6C08F6A3128E6C08F6A80D08A60408A60508A606E50D2408F8740426FC2F
:2059A00074000836FD088606A80D08C004C005C00686820886830886F0120079158115814A
:2059C000158170028003025A02E50D2404F8740226FC74000836FD0886068C828D838EF055
:2059E000128E6CFCA3128E6CFDA3128E6CFE8A828B838FF0EC128941A3ED128941A3EE12D6
:205A000089418A828B838FF0128E6CFAA3128E6CFBA3128E6CFF74082AFA74003BFB8A826F
:205A20008B838FF0128E6CFAA3128E6CFBA3128E6CFF900C87EAF0EBA3F0EFA3F0E50D2468
:205A400007F8900C8DE6F0850D81D00D22C00D85810DAD82AE83AFF0900C87E0FAA3E0FBDC
:205A6000A3E0FC74112AFA74003BFBC002C003C0048D828E838FF0121FC5158115811581B4
:205A80007401C0E0E50D24FCF886820886831287C91581D00D22C00D85810DC082C083C0B2
:205AA000F0058105810581900C87E0FAA3E0FBA3E0FC74112AFA74003BFBE50D24FCF88687
:205AC000060886074307808A828B838CF0EE128941A3EF128941A80D08740126FD740008C2
:205AE00036FE0886078D828E838FF0128E6CFDA3128E6CFEA3128E6CFF900C87E0FAA3E05A
:205B0000FBA3E0FC74112AFA74003BFB74022AFA74003BFB8A828B838CF0ED128941A3EE84
:205B2000128941A3EF128941900C87E0FAA3E0FBA3E0FC74112AFA74003BFBE50D2404F8BC
:205B400074052AF674003B08F608A60474052DFD74003EFE8D828E838FF0128E6CFAA312A0
:205B60008E6CFBA3128E6CFCE50D2404F886820886830886F0EA128941A3EB128941A3EC1D
:205B80001289418D828E838FF0128E6CFAA3128E6CFBA3128E6CFCE50D2404F874022AF687
:205BA00074003B08F608A604900C87E0FAA3E0FBA3E0FC74112AFA74003BFBE50D2404F827
:205BC00086820886830886F0EA128941A3EB128941A3EC128941900C87E0FAA3E0FBA3E095
:205BE000FC74112AFA74003BFB8D828E838FF0EA128941A3EB128941A3EC128941900C87F9
:205C0000E0FDA3E0FEA3E0FF74112DFD74003EFE740B2DFD74003EFE8D828E838FF0A80D98
:205C200008E6128941A308E6128941A308E6128941A80D0886820886830886F0128E6CFF61
:205C40000FA80D0886820886830886F0EF1289417401C0E0E50D24FAF88682088683128747
:205C6000C91581850D81D00D22C00D85810DE5812419F581AD82AE83AFF074042DFD7400A5
:205C80003EFE74022DFD74003EFE8D828E838FF0128E6CFDA3128E6CFEA3128E6CFF7408F9
:205CA0002DFD74003EFE8D828E838FF0128E6CFDA3128E6CFEA3128E6CFFE50D2414F8A63F
:205CC0000508A60608A607E50D2414F8741126FA74000836FB088604E50D2414F8741C2678
:205CE000FD74000836FE0886078D828E838FF0E50D2417F8128E6CF6A3128E6C08F6A3123A
:205D00008E6C08F6E50D2414F8E50D2404F9741326F77400083609F708E609F7E50D2404F8
:205D2000F886820886830886F0128E6CFDA3128E6CFEA3128E6CFFA80D0874052DF67400A3
:205D40003E08F608A607E50D2414F8E50D240AF9741626F77400083609F708E609F7E50DDE
:205D6000240AF886820886830886F0128E6CFDA3128E6CFEA3128E6CFFA80D0886820886AF
:205D8000830886F0ED128941A3EE128941A3EF128941E50D240AF886820886830886F0129D
:205DA0008E6CFDA3128E6CFEA3128E6CFFA80D0874022DF674003E08F608A607E50D2404BC
:205DC000F886820886830886F0128E6CFDA3128E6CFEA3128E6CFFA80D08868208868308F2
:205DE00086F0ED128941A3EE128941A3EF128941E50D2417F8A90D09740126F77400083661
:205E000009F708E609F7A80D0886820886830886F0128E6CFDA3128E6CFEA3128E6CFFC01C
:205E200002C003C0048D828E838FF012007915811581158170028003025E6FE50D240AF811
:205E400086820886830886F0128E6CFDA3128E6CFEA3128E6CFFA80D0886820886830886E3
:205E6000F0ED128941A3EE128941A3EF128941E50D2410F8740B2AF674003B08F608A60472
:205E8000E50D2410F886820886830886F07400128941A3128941A3128941C002C003C004B6
:205EA000E50D2417F886820886830886F0128E6CFC1CE50D2417F886820886830886F0EC5A
:205EC000128941900C99E0D004D003D00260030262BFE50D2414F8740326FC74000836FB6A
:205EE000088602E50D240AF8740B2CF674003B08F608A602E50D240AF8868208868308863D
:205F0000F0128E6CFFA3128E6CFEA3128E6CFDE50D2404F874022CF674003B08F608A60226
:205F2000E50D2404F886820886830886F0E50D2407F9128E6CF7A3128E6C09F7A3128E6C41
:205F400009F7E50D2407F8740526F674000836F6E50D240DF874052CF674003B08F608A6DE
:205F600002E50D240DF886820886830886F0E50D2410F9128E6CF7A3128E6C09F7A3128E59
:205F80006C09F7E50D2407F886820886830886F0E50D2410F9E7128941A309E7128941A3F5
:205FA00009E7128941E50D240DF886820886830886F0E50D2410F9128E6CF7A3128E6C0989
:205FC000F7A3128E6C09F7E50D2410F8740226F674000836F6E50D2404F886820886830890
:205FE00086F0E50D2407F9128E6CF7A3128E6C09F7A3128E6C09F7E50D2410F88682088600
:20600000830886F0E50D2407F9E7128941A309E7128941A309E7128941E50D2410F8740135
:206020002FF674003E08F608A605E50D2410F886820886830886F0E50D2407F9128E6CF70A
:20604000A3128E6C09F7A3128E6C09F7E50D2407F8C004C003C00286820886830886F012DB
:206060000079158115811581700280030260B3E50D240DF886820886830886F0E50D24070C
:20608000F9128E6CF7A3128E6C09F7A3128E6C09F7E50D2410F886820886830886F0E50DFF
:2060A0002407F9E7128941A309E7128941A309E7128941E50D240AF886820886830886F06C
:2060C0007400128941A3128941A31289418F828E838DF0E50D2410F8128E6CF6E50D24108D
:2060E000F8E50D2410F9E614F78F828E838DF0E50D2410F8E6128941E50D2414F8741F263E
:20610000FF74000836FE0886058F828E838DF0E50D2407F8128E6CF6900C8DE50D2413F83D
:20612000E0F6E50D2407F8E50D2413F9C3E796400302613EE50D2407F8900C8DE6F08F8209
:206140008E838DF0E50D2413F8128E6CF6E50D2413F8E675F00CA4C8E50D2407C82418F693
:20616000740C35F008F6E50D2407F88682088683A3E50D2417F8E0F6A3E008F6A3E008F6AE
:20618000E50D2404F886820886830886F0E50D2417F9E7128941A309E7128941A309E71259
:2061A0008941E50D2417F8E50D2407F9740526F77400083609F708E609F7E50D2407F88609
:2061C000820886830886F0E50D2404F9128E6CF7A3128E6C09F7A3128E6C09F7E50D240D17
:2061E000F886820886830886F0E50D2404F9E7128941A309E7128941A309E7128941E50D6A
:206200002407F886820886830886F0E50D240DF9128E6CF7A3128E6C09F7A3128E6C09F747
:20622000E50D240DF8740226F674000836F6E50D240DF886820886830886F0EC128941A3EC
:20624000EB128941A3EA128941E50D2407F886820886830886F0EC128941A3EB128941A38D
:20626000EA1289418F828E838DF0128E6CFCEC75F00CA42418FC740C35F0FB7A00E50D2448
:206280000AF886820886830886F0EC128941A3EB128941A3EA1289418F828E838DF0128E8B
:2062A0006CFFEF75F00CA42418FF740C35F0FE8F828E83E0FD0D8F828E83EDF00263D090C1
:2062C0000C67E50D2417F8E0F6A3E008F6A3E008F674022AFD74003BFE8C078D828E838FC2
:2062E000F0E50D2417F8E6128941A308E6128941A308E6128941E50D240DF874052AF674C5
:20630000003B08F608A604E50D2417F8E50D2407F9740526F77400083609F708E609F7E53C
:206320000D2407F886820886830886F0128E6CFDA3128E6CFEA3128E6CFFE50D240DF88691
:20634000820886830886F0ED128941A3EE128941A3EF128941E50D2407F886820886830852
:2063600086F0128E6CFDA3128E6CFEA3128E6CFF74022DFD74003EFE8D828E838FF0EA1258
:206380008941A3EB128941A3EC128941E50D2407F886820886830886F0EA128941A3EB124C
:2063A0008941A3EC128941E50D2410F886820886830886F07466128941A3740C128941A39B
:2063C0007400128941900C66E0FF0F900C66EFF0E50D2414F8741F26FD74000836FE088686
:2063E000078D828E838FF0128E6CFD900C87E0FCA3E0FEA3E0FF741F2CFC74003EFE8C8273
:206400008E838FF0128E6CFCC3EC9D400302641A7F01900C91EFF002641C7F008F82850DA5
:2064200081D00D22C00D85810DC082C083C0F0E5812415F581E50D24FCF88603088604434A
:206440000480A80D0886820886830886F0EB128941A3EC128941A80D08740826FA7400085D
:2064600036FB0886048A828B838CF0128E6CFAA3128E6CFBA3128E6CFCE50D2413F8A6029F
:2064800008A60308A604A80D08740B26FA74000836FB0886048A828B838CF0E50D2416F844
:2064A000128E6CF6A3128E6C08F6A3128E6C08F6A80D08E50D2407F9740226F77400083668
:2064C00009F708E609F7E50D2407F886820886830886F0128E6CFDA3128E6CFEA3128E6CBD
:2064E000FFE50D240AF874052DF674003E08F608A607A80D08E50D2404F9740526F77400AA
:20650000083609F708E609F7E50D2404F886820886830886F0128E6CFDA3128E6CFEA3123B
:206520008E6CFFE50D240AF886820886830886F0ED128941A3EE128941A3EF128941E50D1D
:206540002404F886820886830886F0128E6CFDA3128E6CFEA3128E6CFFE50D240AF8740292
:206560002DF674003E08F608A607E50D2407F886820886830886F0128E6CFDA3128E6CFE31
:20658000A3128E6CFFE50D240AF886820886830886F0ED128941A3EE128941A3EF128941FA
:2065A000E50D2416F8E50D240AF9740126F77400083609F708E609F7E50D240AF886820844
:2065C00086830886F0128E6CFDA3128E6CFEA3128E6CFFA80D08C005C006C007868208862B
:2065E000830886F01200791581158115817002800302662AE50D2404F8868208868308860D
:20660000F0128E6CFDA3128E6CFEA3128E6CFFE50D240AF886820886830886F0ED128941AE
:20662000A3EE128941A3EF1289418A828B838CF07400128941A3128941A3128941E50D2485
:2066400016F886820886830886F0128E6CFF1FE50D2416F886820886830886F0EF128941E5
:20666000E50D2413F8740326FD74000836FE088607E50D240AF8740B2DF674003E08F608A8
:20668000A607E50D240AF886820886830886F0E50D2416F9128E6CF7A3128E6C09F7A31212
:2066A0008E6C09F7E50D2404F874022DF674003E08F608A607E50D2404F88682088683089D
:2066C00086F0128E6CFAA3128E6CFBA3128E6CFCE50D240DF874052AF674003B08F608A6DA
:2066E00004E50D2407F874052DF674003E08F608A607E50D2407F886820886830886F012C2
:206700008E6CFAA3128E6CFBA3128E6CFCE50D240DF886820886830886F0EA128941A3EB2A
:20672000128941A3EC128941E50D2407F886820886830886F0128E6CFAA3128E6CFBA31201
:206740008E6CFCE50D240DF874022AF674003B08F608A604E50D2404F8868208868308867A
:20676000F0128E6CFAA3128E6CFBA3128E6CFCE50D240DF886820886830886F0EA12894156
:20678000A3EB128941A3EC128941E50D2416F8E50D240DF9740126F77400083609F708E6B2
:2067A00009F7E50D240DF886820886830886F0128E6CFAA3128E6CFBA3128E6CFCC005C047
:2067C00006C0078A828B838CF01200791581158115817002800302680FE50D2407F886827E
:2067E0000886830886F0128E6CFAA3128E6CFBA3128E6CFCE50D240DF886820886830886ED
:20680000F0EA128941A3EB128941A3EC128941C005C006C007E50D240AF886820886830862
:2068200086F07400128941A3128941A3128941E50D2416F886820886830886F0128E6CFCD1
:206840001CE50D2416F886820886830886F0EC128941E50D2413F8E50D2410F9741F26F7A9
:206860007400083609F708E609F7E50D2410F886820886830886F0128E6CFC900C8DE0FFB3
:20688000C3EF9CD007D006D0054003026893900C8DECF0E50D2410F886820886830886F02E
:2068A000128E6CFCEC75F00CA42418FB740C35F0FC8B828C83A3E0FAA3E0FBA3E0FCE50D6F
:2068C0002404F886820886830886F0EA128941A3EB128941A3EC128941E50D240DF87405D2
:2068E0002AF674003B08F608A604E50D240DF886820886830886F0128E6CFAA3128E6CFBB7
:20690000A3128E6CFCE50D2407F886820886830886F0EA128941A3EB128941A3EC12894185
:20692000E50D240DF886820886830886F0128E6CFAA3128E6CFBA3128E6CFC74022AFA743C
