:200000000200BF32FFFFFFFFFFFFFF32FFFFFFFFFFFFFF32FFFFFFFFFFFFFF32FFFFFFFF70
:20002000FFFFFF32FFFFFFFFFFFFFF32FFFFFFFFFFFFFF32FFFFFFFFFFFFFF32FFFFFFFF14
:20004000FFFFFF32FFFFFFFFFFFFFF32FFFFFFFFFFFFFF32FFFFFFFFFFFFFF32FFFFFFFFF4
:20006000FFFFFF32FFFFFFFFFFFFFF32FFFFFFFFFFFFFF020CCDFFFFFFFFFF32FFFFFFFF29
:20008000FFFFFF32FFFFFFFFFFFFFF020F3C02029CE58124FCC3C8C0E0C082E608467006AE
:2000A000E5824583601218E58296F58208E58396428208E5F0964582D082C8D0E0C82275E6
:2000C0008120129559E582600302008E7929E94400601B7A0190961C787275A00FE493F2A7
:2000E000A308B8000205A0D9F4DAF275A0FFE478FFF6D8FD7800E84400600A790175A00086
:20010000E4F309D8FC7871E8440F600C7910900001E4F0A3D8FCD9FA90000A7400F0A3F0D2
:2001200090000CF0A3F090000EF0A3F0900010F0A3F0900F157400F0A3F0A3F002008E7519
:2001400096295397FEE5EA75EA0075F80022C00D85810DAF82C007124DAFD007E50D24FD6B
:20016000F8E660030201BEC374079F5003020212EF240A83F582EF240C83F583E4738E948D
:200180009AA0A6ACB2B8010101010101010143F80102021243F80202021243F80402021267
:2001A00043F80802021243F81002021243F82002021243F84002021243F880020212C3747B
:2001C000079F5003020212EF240A83F582EF240C83F583E473E5EBF1F7FD03090F010101B5
:2001E000010102020253F8FE02021253F8FD02021253F8FB02021253F8F702021253F8EF4C
:2002000002021253F8DF02021253F8BF02021253F87F124DB7D00D22AF827E007D00C00796
:20022000C006C005124DAFD005D006D007C374079F500302027CEF240A83F582EF240C833A
:20024000F583E47354595E63686D727702020202020202027E0102027E7E0202027E7E040E
:2002600002027E7E0802027E7E1002027E7E2002027E7E4002027E7E8002027E7D01BD01C8
:2002800003020298EE55F87003020295EEF4FFEF52F8020298EE42F8124DB7221203B41287
:2002A000013F758201121E427582021218E2758200121F6C7404C0E07400C0E074C2C0E0F9
:2002C0007401C0E07400C0E0758202121BABE58124FBF5817582021211F97400C0E0C0E060
:2002E000C0E0C0E074CDC0E074ABC0E07400C0E074A7C0E07400C0E0745DC0E07495C0E021
:200300007480C0E07582F97583071244F8E58124F4F5817400C0E0C0E0C0E0C0E0C0E0C0C4
:20032000E0C0E074A7C0E07400C0E07465C0E07495C0E07480C0E07582AF7583041244F8C8
:20034000E58124F4F5817400C0E0C0E0C0E0C0E0C0E0C0E0C0E074A7C0E07400C0E074652D
:20036000C0E07495C0E07480C0E07582517583061244F8E58124F4F5817400C0E0C0E0C0A4
:20038000E07403C0E07400C0E0C0E0C0E074A7C0E07400C0E0746AC0E07495C0E07480C068
:2003A000E07582277583041244F8E58124F4F581124D412275962D5397DFC2AF53F67F53B2
:2003C000F17F75AEEF75920075910743E680D2AF53F7FE53D8FE1203DA22C00D85810D05F6
:2003E00081058153ADF143AD0853ADFEA80D087610087627A80D088606088607A80D08EE9E
:2004000024FFF6EF34FF08F6EE4F60030203F4850D81D00D22E5D820E00302042353D8FEE6
:2004200002042643D801227F00900F72E060030204457591077582DC758305C007124D0B26
:20044000D007020452758232758300C007124D0BD007C0071220E6AE82D007BE0103020496
:20046000637F01C007121B85AE82D007BE01030204747F01C007121E29AE82D007BE010374
:200480000204857F01C007121875AE82D007BE01030204967F01BF010280030204A4900F78
:2004A000727401F0C007120415D00702042922C00D85810DE581240CF581E50D2409F876D2
:2004C0002B08765208769A0876C4A80D0876DD08769A087612087645A80D08E6C0E008E61B
:2004E000C0E008E6C0E008E6C0E0E50D2409F886820886830886F008E6128DC0AC82AD83E7
:20050000AEF0FFE58124FCF581E50D2405F8A60408A60508A60608A607E50D2405F8E6C0B0
:20052000E008E6C0E008E6C0E008E6C0E07582CD7583E475F08A7444128CF2AF82E581249F
:20054000FCF581EF6003020579749AC0E074E1C0E0748AC0E07444C0E0E50D2405F88682A3
:200560000886830886F008E6128CF2AF82E58124FCF581EF7003020590C0E0C0A8C2AF903F
:200580000F727401F0D0E053E080E5E042A8D0E0A80D08E6C0E008E6C0E008E6C0E008E666
:2005A000C0E0E50D2409F886820886830886F008E6129201AC82AD83AEF0FFE58124FCF5E4
:2005C00081E50D2405F8A60408A60508A60608A607E50D2405F8E6C0E008E6C0E008E6C0EC
:2005E000E008E6C0E075825C75838F75F00274BF128CF2AF82E58124FCF581EF6003020602
:20060000317414C0E074AEC0E07407C0E074BFC0E0E50D2405F886820886830886F008E639
:20062000128CF2AF82E58124FCF581EF70030204BAC0E0C0A8C2AF900F727401F0D0E053E9
:20064000E080E5E042A8D0E00204BA850D81D00D22C00D85810DE581240CF581A80D0876EA
:20066000450876D20876400876C6E50D2409F8765C0876350876B7087646E50D2409F8E651
:20068000C0E008E6C0E008E6C0E008E6C0E0A80D0886820886830886F008E6128DC0AC8241
:2006A000AD83AEF0FFE58124FCF581E50D2405F8A60408A60508A60608A607E50D2405F885
:2006C000E6C0E008E6C0E008E6C0E008E6C0E075829A75839875F02D7446128CF2AF82E5D7
:2006E0008124FCF581EF600302071B7433C0E07498C0E0742DC0E07446C0E0E50D2405F8CC
:2007000086820886830886F008E6128CF2AF82E58124FCF581EF7003020732C0E0C0A8C230
:20072000AF900F727401F0D0E053E080E5E042A8D0E0E50D2409F886040886050886060802
:20074000E6B2E7FFC004C005C006C007A80D0886820886830886F008E6129201AC82AD83C0
:20076000AEF0FFE58124FCF581E50D2405F8A60408A60508A60608A607E50D2405F8E6C04E
:20078000E008E6C0E008E6C0E008E6C0E07582147583AE75F007743F128CF2AF82E58124B4
:2007A000FCF581EF60030207D9745CC0E0748FC0E07402C0E0743FC0E0E50D2405F88682FC
:2007C0000886830886F008E6128CF2AF82E58124FCF581EF700302065CC0E0C0A8C2AF9010
:2007E0000F727401F0D0E053E080E5E042A8D0E002065C850D81D00D227420B58103020804
:2008000018C0E0C0A8C2AF900F727401F0D0E053E080E5E042A8D0E08500E0E5E070030270
:200820000839C0E0C0A8C2AF900F727401F0D0E053E080E5E042A8D0E08501E07401B5E056
:200840000302085BC0E0C0A8C2AF900F727401F0D0E053E080E5E042A8D0E08502E07402A2
:20086000B5E00302087DC0E0C0A8C2AF900F727401F0D0E053E080E5E042A8D0E08503E040
:200880007403B5E00302089FC0E0C0A8C2AF900F727401F0D0E053E080E5E042A8D0E0856A
:2008A00004E07404B5E0030208C1C0E0C0A8C2AF900F727401F0D0E053E080E5E042A8D0A8
:2008C000E08505E07405B5E0030208E3C0E0C0A8C2AF900F727401F0D0E053E080E5E04277
:2008E000A8D0E08506E07406B5E003020905C0E0C0A8C2AF900F727401F0D0E053E080E5DC
:20090000E042A8D0E08507E07407B5E003020927C0E0C0A8C2AF900F727401F0D0E053E0DA
:2009200080E5E042A8D0E074CDB58203020946C0E0C0A8C2AF900F727401F0D0E053E080BA
:20094000E5E042A8D0E074ABB58303020965C0E0C0A8C2AF900F727401F0D0E053E080E537
:20096000E042A8D0E0E5F00207F922C00D85810DE581240EF581AD82AE83AFF0E50D240CF5
:20098000F8A60508A60608A607E50D2409F874012DF674003E08F608A607E50D24FCF886A7
:2009A000020886037C807F008A06E50D2409F886820886830886F0EE128CD7E50D2405F875
:2009C000A60308A60408A607087600E50D2409F8740126FD74000836FE088607E50D24057A
:2009E000F886028D828E838FF0EA128CD70DBD00010E8D828E838FF074AA128CD70DBD00A4
:200A0000010E8D828E838FF07480128CD7E50D2405F874012DF674003E08F608A607E50DBD
:200A200024F9F886020886030886047F008A06E50D2405F886820886830886F0EE128CD7DA
:200A4000A80D08A60308A60408A607087600E50D2405F8740126FD74000836FE088607A8B3
:200A60000D0886028D828E838FF0EA128CD7A80D0808E618F60808E618F60808E618F60812
:200A800076000DBD00010EA80D0886028D828E838FF0EA128CD70DBD00010E8D828E838F3C
:200AA000F07402128CD70DBD00010E8D828E838FF07403128CD70DBD00010E8D828E838F6F
:200AC000F07404128CD70DBD00010E8D828E838FF07405128CD70DBD00010E8D828E838F4B
:200AE000F07406128CD70DBD00010E8D828E838FF07407128CD70DBD00010E8D828E838F27
:200B0000F07400128CD70DBD00010E8D828E838FF07401128CD70DBD00010E8D828E838F12
:200B2000F07400128CD70DBD00010E8D828E838FF074BB128CD7E50D240CF88602EDC39AD4
:200B4000FDE50D240CF886820886830886F0ED128CD7E50D240CF886820886830886F0854F
:200B60000D81D00D22120DC7759600900F88E0FDA3E0FEA3E0FF8D828E838FF01292C4F5F4
:200B800009A31292C4F50A750B20850982850A83E0F5080509E4B50902050A050BA90B8599
:200BA0000982850A83E0FFA7071508E5086003020B93850B81D00DD0D0D001D000D007D028
:200BC00006D005D004D003D002D0F0D083D082D0E020E705C2AF020BDBD2AFD0E0327582ED
:200BE000012222C0E0C0A8C2AFC082C083C0F0C002C003C004C005C006C007C000C001C026
:200C0000D075D000C00D900F88E0FDA3E0FEA3E0FF8D828E838FF01292C4F509A31292C4DB
:200C2000F50A750B21AF81EF24E0F508850982850A83E508F0E5087003020C570509E4B589
:200C40000902050A850982850A83A90B8707EFF0050B1508020C35125C77900F88E0FDA33B
:200C6000E0FEA3E0FF8D828E838FF01292C4F509A31292C4F50A750B20850982850A83E063
:200C8000F5080509E4B50902050A050BA90B850982850A83E0FFA7071508E5086003020CA8
:200CA00082850B81D00DD0D0D001D000D007D006D005D004D003D002D0F0D083D082D0E073
:200CC00020E705C2AF020CCAD2AFD0E032C0E0C0A8C2AFC082C083C0F0C002C003C004C0A5
:200CE00005C006C007C000C001C0D075D000C00D900F88E0FDA3E0FEA3E0FF8D828E838F89
:200D0000F01292C4F509A31292C4F50A750B21AF81EF24E0F508850982850A83E508F0E5CE
:200D2000087003020D410509E4B50902050A850982850A83A90B8707EFF0050B1508020DA8
:200D40001F1254C1E5827003020D4E125C7753F17F53AEF7900F88E0FDA3E0FEA3E0FF8DE2
:200D6000828E838FF01292C4F509A31292C4F50A750B20850982850A83E0F5080509E4B5AB
:200D80000902050A050BA90B850982850A83E0FFA7071508E5086003020D7C850B81D00DE0
:200DA000D0D0D001D000D007D006D005D004D003D002D0F0D083D082D0E020E705C2AF0263
:200DC0000DC4D2AFD0E032AF96759600C2AF43F68053F17F53AEF75393FE75940075952093
:200DE0005393F75393FD43930275962D5397EF4397105393FB85939343E6804393018F962F
:200E000022C00D85810DC082C083C0F0C0E00581C0E0C0A8C2AFE50D2405F8A696759600A2
:200E2000750C017400C0E004C0E0E50D24FDF88682122B89AA82AB83AFF0158115819000EA
:200E400001EAF0EBA3F0EFA3F07400C0E004C0E0E50D24FDF88682122B89AD82AE83AFF027
:200E600015811581900004EDF0EEA3F0EFA3F0C2AF43F40453E1FB75963453979F43972035
:200E800075961B43971075961B4397207596275397FE43EE107596275397FD53EEDFA80DD9
:200EA000080808860608E6C454F0CEC4CE6ECE54F0CE6EFF1818E6C4540F4EFE188604084A
:200EC000E6C454F0CCC4CC6CCC54F0CC6CFDC004C005C006C00775820075833675F06E7495
:200EE00001129021AC82AD83AEF0FFE58124FCF5818CDC8D0474035CF5DE43DE0843DE044A
:200F000043DD4053DDEF43DD2053DDFB43DD0853DDFD43DD0153DFE743E704E50D2405F817
:200F20008696D0E053E080E5E042A8D0E075820075830075F000850D81D00D22C020C0E0ED
:200F4000C0F0C082C083C007C006C005C004C003C002C001C000C0D075D000C00D85810D8B
:200F6000E5812405F581E50D2405F87600C0E0C0A8C2AF53E1FBE5DF20E303020FD3E50D9B
:200F80002404F8A6E275DF17E50D2405FF7E007D40E50D2404FCA80D08A604087600087670
:200FA00040900001E0FAA3E0FBA3E0FC7400C0E0C007C006C005A80D08E6C0E008E6C0E052
:200FC00008E6C0E08A828B838CF0123033E58124F9F581E5DF20E003020FDE75DF1EE5DF93
:200FE00020E103020FE975DF1DE5DF20E203020FF475DF1BE5DF20E40302105D75DF0FE5C3
:201000000D2405FF7E007D40E50D2404FCA80D08A604087600087640900004E0FAA3E0FBBB
:20102000A3E0FCC007C006C005A80D08E6C0E008E6C0E008E6C0E08A828B838CF0123B415C
:20104000AF82E58124FAF581BF0102800302105AE50D2404F886E202105D750C01E50D2433
:2010600005F8E6700302106B120BE3D0E053E080E5E042A8D0E0850D81D00DD0D0D000D0AB
:2010800001D002D003D004D005D006D007D083D082D0F0D0E0D02032C00D85810DE50D2427
:2010A000FBF88605088606088607900001E0FAA3E0FBA3E0FCE50D24F9F8E6C0E008E6C0E6
:2010C000E0C005C006C0078A828B838CF01232C3AF82E58124FBF581EF70030210E47582C6
:2010E000010210E7758200D00D22C00D85810DC0E0C0A8C2AF7401B50C028003021111E5E3
:201100000D24FDF886E2750C0075DF0F7F01021158E50D24FDFE8E077D007C40900004E01F
:20112000FAA3E0FBA3E0FE7400C0E0E50D24FBF8E6C0E008E6C0E0C007C005C0048A828B9E
:20114000838EF0122D34AE82E58124FAF5818E07EE60030211587F01D0E053E080E5E042B6
:20116000A8D0E08F82D00D22227400C0E07403C0E0758214122B89AD82AE83AFF01581153F
:2011800081900007EDF0EEA3F0EFA3F02222C00D85810DC082C083058105810581E50D2406
:2011A00003FD7C007B40900007E0FAA3E0FEA3E0FFA80D08E6C0E008E6C0E0C005C004C06A
:2011C000038A828E838FF01232C3AF82E58124FBF581BF010280030211EAE50D2403F88664
:2011E000820886830886F00211F375820075830075F000850D81D00D22C00D85810DC08250
:20120000E5812406F5817582087583001227A8AC82AD83AEF0A80D0808A60408A60508A624
:2012200006A80D0808E6084670030213B17403C0E07400C0E0758201122B89AA82AB83AF84
:20124000F015811581A80D080886820886830886F0EA128CD7A3EB128CD7A3EF128CD7A805
:201260000D080886820886830886F01292C4FEA31292C4FDA31292C4FCEA4B700302129DEC
:201280007400C0E0C0E0C0E0C0E0C0E0C0E08E828D838CF0122D34E58124FAF581A80D0854
:2012A0000886820886830886F01292C4FAA31292C4FBA31292C4FFEA4B70030213B1A80DFA
:2012C0000808740326FA74000836FB088607758204758300C007C003C0021227A8AC82AD2A
:2012E00083AEF0D002D003D0078A828B838FF0EC128CD7A3ED128CD7A3EE128CD78C828DB1
:20130000838EF074FF128CD7A37400128CD7A3128CD7A3128CD7A80D0808740626FD740052
:201320000836FE0886078D828E838FF07400128CD7A3128CD7A80D080886040886050886CC
:2013400006C0E0C0E0C0E0C0E0C004C005C00674A7C0E07400C0E07476C0E07495C0E07442
:2013600080C0E07582797583151244F8E58124F4F581A80D080886040886050886067400A4
:20138000C0E0C0E0C0E0C0E0C004C005C00674A7C0E07400C0E0747EC0E07495C0E0748080
:2013A000C0E07582797583151244F8E58124F4F5817582087583001227A8AD82AE83AFF0F7
:2013C000E50D2405F8A60508A60608A607E50D2405F8E6084670030215737403C0E0740017
:2013E000C0E0758201122B89AA82AB83ACF015811581E50D2405F886820886830886F0EAD9
:20140000128CD7A3EB128CD7A3EC128CD7E50D2405F886820886830886F01292C4FFA3128A
:2014200092C4FEA31292C4FDEA4B700302144C7400C0E0C0E0C0E0C0E0C0E0C0E08F828E73
:20144000838DF0122D34E58124FAF581E50D2405F886820886830886F01292C4FAA31292CC
:20146000C4FBA31292C4FCEA4B7003021573E50D2405F8740326FA74000836FB0886047516
:201480008204758300C004C003C0021227A8AD82AE83AFF0D002D003D0048A828B838CF096
:2014A000ED128CD7A3EE128CD7A3EF128CD78D828E838FF074FF128CD7A3740F128CD7A3F8
:2014C0007400128CD7A3128CD7E50D2405F8740626FD74000836FE0886078D828E838FF077
:2014E0007464128CD7A37400128CD7E50D2405F886050886060886077400C0E0C0E0C0E0F8
:20150000A80D08E6C0E0C005C006C00774A7C0E07400C0E07486C0E07495C0E07480C0E090
:201520007582797583151244F8E58124F4F581E50D2405F886050886060886077400C0E011
:20154000C0E0C0E0A80D08E6C0E0C005C006C00774A7C0E07400C0E0748EC0E07495C0E09C
:201560007480C0E07582797583151244F8E58124F4F581850D81D00D22C00D85810DE581C0
:201580002411F581AE82AC83ABF0E50D2404F87400F608F6C0E0C0A8C2AF900F7BE0FAA31C
:2015A000E0FFE50D2410F8A60208A607900F7BE0FAA3E0FD900F7B74012AF074003DA3F070
:2015C000D0E053E080E5E042A8D0E075827375839575F080C006C004C00312118DD003D0CD
:2015E00004D006E50D2406F8A60608A60408A603E50D2406F8740326FB74000836FE088604
:20160000078B828E838FF0E50D240DF81292C4F6A31292C408F6A31292C408F6E50D24067F
:20162000F8A90D09740626F77400083609F708E609F7A80D0886820886830886F01292C400
:20164000FEA31292C4FFEE4F7003021660E50D2409F876FF08760F740008F608F602166F4A
:20166000E50D2409F876FF740008F608F608F6A80D0886820886830886F01292C4FEA31201
:2016800092C4FFE50D2406F886820886830886F01292C4FBA31292C4FCA31292C4FDC00612
:2016A000C0078B828C838DF0123583AF8215811581BF0102800302184EE50D240DF88682D3
:2016C0000886830886F01292C4FBA31292C4FDA31292C4FEA31292C4FFE50D2409F8E6B54B
:2016E000031208E6B5050D08E6B5060808E6B5070302170A75827075839575F08012118D16
:20170000E50D2404F876010876007B007E007D007F00E50D2409F8C3E69B08E69E08E69D5B
:2017200008E69F5003021774E50D240DF886820886830886F0EB128CD7A3EE128CD7A3ED94
:20174000128CD7A3EF128CD7E50D240DF886820886830886F01292C4A31292C4A31292C4DD
:20176000A31292C40BBB00090EBE00050DBD00010F021712E50D2406F886820886830886FE
:20178000F01292C4FDA31292C4FEA31292C4FF7400C0E0C0E0C0E0C0E0C0E0C0E08D828E10
:2017A000838FF0122D34AF82E58124FAF581EF60030217CA75827075839575F08012118DCB
:2017C000E50D2404F87601087600E50D2404F8E60846600302181BE50D2410F886060886EC
:2017E00007C3EE9404EF64809480400302181BE50D2410F8E625E0FE08E633FFEE2473FE90
:20180000EF340FFF8E828F83E0FCA3E0FD0CBC00010D8E828F83ECF0EDA3F0A80D08868200
:201820000886830886F01292C4FEA31292C4FFC006C00775820A758300128D22AE82AF8300
:20184000158115818E828F83124D0B02166FA80D0886820886830886F01292C4FEA3129248
:20186000C4FFEE4F600302166F120BE302166F850D81D00D227F017E00EE75F002A4FCAD45
:20188000F0EC240AF582ED3400F583E0FAA3E0FBEC2473F582ED340FF583E0FCA3E0FDEAEE
:2018A000B50406EBB5050280030218AE7F00EE75F002A4FCADF0EC240AFAED3400FBEC2426
:2018C00073F582ED340FF583E0FCA3E0FD8A828B83ECF0EDA3F00EBE040050030218798F5F
:2018E0008222AF82C0077400C0E07402C0E075820A122B89AC82AD83AEF015811581D0075C
:20190000900012ECF0EDA3F0EEA3F0EC4D7003021988C0077400C0E0C0E0C0E0C007741291
:20192000C0E07400C0E07400C0E074A7C0E07400C0E074EDC0E07495C0E07480C0E07582DB
:201940005D75831A1244F8E58124F4F581D0077400C0E0C0E0C0E0C0077412C0E07400C08A
:20196000E07400C0E074A7C0E07400C0E074F5C0E07495C0E07480C0E075828975831912BB
:2019800044F8E58124F4F58122C00D85810DC082C083C0F0058105810581E50D2404F874C8
:2019A00000F608F67C00E50D2406F87600C004E50D2404FA7C007F40A80D08860308860541
:2019C0000886068B828D838EF01292C4FBA31292C4FDA31292C4FEC0047400C0E0C0E0C02C
:2019E000E0C002C004C0078B828D838EF0122D34AF82E58124FAF581D004BF0105D0040212
:201A00001A09D0047C01021A31EC6003021A26C0E0C0A8C2AF900F7EE004F0D0E053E080A7
:201A2000E5E042A8D0E0E50D2404F806B600020806E50D2406F806E50D2406F8C3E66480AE
:201A4000948350030219AD758222758300C004124D0BD0040219A6850D81D00D22C00D851C
:201A6000810DC082C083C0F00581058105817B007C00E50D2406F87600C003C004A80D084C
:201A800086020886060886078A828E838FF01292C4FBA31292C4FCA31292C4FD8B828C836B
:201AA0008DF0C007C006C004C003C002123D24E582D002D003D004D006D007D004D00370BC
:201AC00003021B6BC003C004E50D2404FD8D037C007D408A828E838FF01292C4FAA31292CF
:201AE000C4FEA31292C4FFC004C0037400C0E0C0E0C003C004C0058A828E838FF01232C3F0
:201B0000AF82E58124FBF581D003D004BF01028007D004D003021A79D004D003E50D2404AC
:201B2000F8E6B5030808E6B50403021B41E50D2406F87601E50D2404F88603088604021B2A
:201B400063E50D2406F8E66003021B63C0E0C0A8C2AF900F7DE004F0D0E053E080E5E04272
:201B6000A8D0E00BBB00010C021A7975820E758300C004C003124D0BD003D004021A7985F6
:201B80000D81D00D22900F7DE07003021B97900F7EE06003021B9C7F00021B9E7F01900F23
:201BA0007D7400F0900F7EF08F8222C00D85810DAF82E50D24F9F8900F82E6F0C0077418A2
:201BC000C0E0E50D24FAF886820886830886F008E6120E011581D0078F061EC0077400C09C
:201BE000E0C0E0C0E0C006C0E0C0E0C0E074A7C0E07400C0E074FDC0E07495C0E07480C0E2
:201C0000E075824875831C1244F8E58124F4F581D0077400C0E0C0E0C0E0C007C0E0C0E01D
:201C2000C0E074A7C0E07400C0E07403C0E07496C0E07480C0E07582F375831C1244F8E5AF
:201C40008124F4F581D00D227F41900F7FE0FCA3E0FDA3E0FEC0077400C0E0C0E0C0078CED
:201C6000828D838EF01210EAAE82158115811581D007BE01028003021C88900F82E0FE8E08
:201C800082C007120218D0070FC374589F4003021C4A900F82E0FF7400C0E08F8212014E8A
:201CA0001581125424AE82AF8374032EFE74003FFF7D007C007496C0E07400C0E0C0E0C036
:201CC000E08E828F838DF0EC128E62AC82AD83AEF0FFE58124FCF581C3EC9432ED9400406A
:201CE00003021CE87C327D008C828D83124D0B021C4822C00D85810DE5812405F5817F003C
:201D0000E50D2404F876007B41C007E50D2405FCA80D08A604087600087640900F7FE0FD03
:201D2000A3E0FEA3E0FFC004C00374FFC0E0C0E0A80D08E6C0E008E6C0E008E6C0E08D82F8
:201D40008E838FF0121098AF82E58124FBF581D003D004EFD0077003021D88E50D2405F873
:201D6000E6B503028003021D83900F82E0FE0E8E82C007C004C003120218D003D004D00789
:201D8000021D887F01021D9A0BC3745864808BF063F08095F04003021D09900F82E0FE0E9A
:201DA000C007C0047400C0E08E8212014E1581D004D007BF01028003021E0A8C06E50D24BB
:201DC00005F8B65803021DFF8E077C007B40C006900F7FE0FAA3E0FDA3E0FEC00674FFC053
:201DE000E0C0E0C007C004C0038A828D838EF0121098E58124FBF581D006D006021DBDE559
:201E00000D2404F8067F00021D07E50D2404F8C3E6648094824003021D07900F83E004F0D6
:201E2000021D07850D81D00D22900F83E06003021E377F00021E397F01900F837400F08F41
:201E40008222AF827E00C007C0067400C0E0C0E0C0E0C007C0E0C0E0C0E074A7C0E0740078
:201E6000C0E07409C0E07496C0E07480C0E075828E75831E1244F8E58124F4F581D006D0E4
:201E8000070EC3EE648094815003021E4622C00D85810D058105810581C0E0C0A8C2AF902D
:201EA0000F84E0FFA80D08A607E004F0D0E053E080E5E042A8D0E0A80D0886057E00C00525
:201EC000C00675824D758301128D22AD82AE8315811581744D2DFD74013EFEEEC313CD1372
:201EE000CDFEC006C005125424AB82AC83D005D006A80D0808A60308A604E50D2402FC8C3B
:201F0000027B007F40C006C005C004C005C0068A828B838FF0124C2315811581D004D005BC
:201F2000D006A80D088682C006C005C004120218D004D005D0067F007B40C006C005C00582
:201F4000C0068C828F838BF0124C2315811581D005D006A80D088682C006C005120218D07C
:201F600005D006021EFA850D81D00D22AF827D007E00ED2485FBEE340FFC7A00C007C00669
:201F8000C0057400C0E0C0E0C0E0C007C003C004C00274A7C0E07400C0E0740EC0E074961D
:201FA000C0E07480C0E07582D375831F1244F8E58124F4F581D005D006D0070DBD00010E6F
:201FC0008D038E04C3EB9401EC648094805003021F7222C00D85810DE5812407F581AD829A
:201FE000AE83AFF07B007C00E50D2405F8A60508A60608A607C003C004A80D08767B74004A
:2020000008F608F608F6A80D08744726F674940836F674030836F674000836F6A80D08E600
:20202000C0E008E6C0E008E6C0E008E6C0E07582FD7583FF75F0FF74FF1292E0AA82AB83B6
:20204000ACF0FFE58124FCF581A80D08A60208A60308A60408A607C0037407C0E07400C05A
:20206000E0C0E0C0E0A80D0886820886830886F008E6128F24AC82AD83AEF0FFE58124FCB8
:20208000F581D003A80D08A60408A60508A60608A607A80D08B61B1308B6770F08B6FE0BC8
:2020A00008B6FF07D004D0030220B3D004D0037B017C00EB4C6003021FF5C0E0C0A8C2AF18
:2020C000E50D2405F886820886830886F07401128CD7D0E053E080E5E042A8D0E0021FF594
:2020E000850D81D00D227F017D007E00ED2485FBEE340FFC8B828C83E060030221007F0094
:20210000ED2485F582EE340FF5837400F00DBD00010E8D038E04C3EB9401EC648094805033
:20212000030220EC8F8222C00D85810DC082C083C0F0058105810581A80D08740126FF74E9
:20214000000836FB088602A80D08E50D2404F9740426F77400083609F708E609F7E50D249B
:2021600004F886040886050886068F828B838AF0EC128CD7A3ED128CD7A3EE128CD7E50DBB
:202180002404F886820886830886F074FF128CD7A3128CD7E50D2404F8740226FF7400085F
:2021A00036FD088604E50D2404F886020886030886068F828D838CF0EA128CD7A3EB128C73
:2021C000D7A3EE128CD7E50D2404F8740526FF74000836FD088604E50D2404F88602088609
:2021E000030886068F828D838CF0EA128CD7A3EB128CD7A3EE128CD7A80D0886820886836D
:202200000886F07400128CD7850D81D00D22AD82AE83AFF0740B2DFD74003EFE8D828E83CD
:202220008FF07400128CD7A3128CD7A3128CD722C00D85810DC082C083C0F0E5812409F547
:2022400081A80D08740126FA74000836FB0886048A828B838CF0E50D240AF81292C4F6A3BD
:202260001292C408F6A31292C408F6E50D24FBF8860208860308860474022AFD74003BFEF1
:202280008C078D828E838FF0E50D240AF8E6128CD7A308E6128CD7A308E6128CD7E50D2477
:2022A00004F874052AF674003B08F608A604E50D240AF8E50D2407F9740526F774000836B4
:2022C00009F708E609F7E50D2407F886820886830886F01292C4FDA31292C4FEA31292C4EB
:2022E000FFE50D2404F886820886830886F0ED128CD7A3EE128CD7A3EF128CD7E50D2407AA
:20230000F886820886830886F01292C4FDA31292C4FEA31292C4FF74022DFD74003EFE8DD9
:20232000828E838FF0EA128CD7A3EB128CD7A3EC128CD7E50D2407F886820886830886F079
:20234000EA128CD7A3EB128CD7A3EC128CD7740B2AFA74003BFB8A828B838CF0A80D08E691
:20236000128CD7A308E6128CD7A308E6128CD7A80D0886820886830886F01292C4FF0FA86A
:202380000D0886820886830886F0EF128CD7850D81D00D22C00D85810DC082C083C0F0E521
:2023A00081240BF581E50D24FBF886020886030886048A828B838CF0E50D240AF81292C42D
:2023C000F6A31292C408F6E50D240AF8B6FF0608B6FF028003022419C002C003C004A80DAC
:2023E00008740426FA74000836FB08860474052AFA74003BFB8A828B838CF0E50D240CF807
:202400001292C4F6A31292C408F6A31292C408F6D004D003D0020224A3A80D08740426FDB2
:2024200074000836FE088607E50D240CF8A60508A60608A607C002C003C004E50D240CF8C6
:20244000740226FD74000836FE0886078D828E838FF01292C4FAA31292C4FBA31292C4FC90
:202460008A828B838CF01292C4FAA31292C4FBE50D240AF8C3E69A08E69BD004D003D00201
:2024800050030224A38D828E838FF0E50D240CF81292C4F6A31292C408F6A31292C408F6F7
:2024A000022435E50D2404F874022AF674003B08F608A604E50D240CF8E50D2407F9740214
:2024C00026F77400083609F708E609F7E50D2407F886820886830886F01292C4FDA31292E7
:2024E000C4FEA31292C4FFE50D2404F886820886830886F0ED128CD7A3EE128CD7A3EF125B
:202500008CD774052DFD74003EFE8D828E838FF0EA128CD7A3EB128CD7A3EC128CD7740587
:202520002AFD74003BFE8C078D828E838FF0E50D240CF8E6128CD7A308E6128CD7A308E689
:20254000128CD7E50D2407F886820886830886F0EA128CD7A3EB128CD7A3EC128CD7740B75
:202560002AFA74003BFB8A828B838CF0A80D08E6128CD7A308E6128CD7A308E6128CD7A82B
:202580000D0886820886830886F01292C4FF0FA80D0886820886830886F0EF128CD7850DCF
:2025A00081D00D22C00D85810DC082C083C0F0E581240CF581A80D08740B26FA740008366C
:2025C000FB0886048A828B838CF0E50D240DF81292C4F6A31292C408F6A31292C408F6A8A5
:2025E0000D08E50D2404F9740226F77400083609F708E609F7E50D2404F88682088683084D
:2026000086F01292C4FDA31292C4FEA31292C4FFE50D240AF874052DF674003E08F608A6BA
:2026200007A80D08E50D2407F9740526F77400083609F708E609F7E50D2407F886820886DF
:20264000830886F01292C4FDA31292C4FEA31292C4FFE50D240AF886820886830886F0ED65
:20266000128CD7A3EE128CD7A3EF128CD7E50D2407F886820886830886F01292C4FDA31212
:2026800092C4FEA31292C4FFE50D240AF874022DF674003E08F608A607E50D2404F88682AC
:2026A0000886830886F01292C4FDA31292C4FEA31292C4FFE50D240AF88682088683088654
:2026C000F0ED128CD7A3EE128CD7A3EF128CD7E50D240DF8E50D240AF9740126F774000859
:2026E0003609F708E609F7E50D240AF886820886830886F01292C4FDA31292C4FEA3129252
:20270000C4FFA80D08C005C006C00786820886830886F012009115811581158170028003F6
:20272000022759E50D2407F886820886830886F01292C4FDA31292C4FEA31292C4FFE50D01
:20274000240AF886820886830886F0ED128CD7A3EE128CD7A3EF128CD78A828B838CF07443
:2027600000128CD7A3128CD7A3128CD7E50D240DF886820886830886F01292C4FF1FE50D8A
:20278000240DF886820886830886F0EF128CD7E50D240DF886820886830886F01292C4FFFC
:2027A0008F82850D81D00D22C00D85810DC082C083058105810581E50D2403F87400F6087C
:2027C000F6087600124DAF900F15E0F5F0A3E045F060030227E97A157D007E007F00900F29
:2027E00015EAF0EDA3F0EEA3F0A80D08E608467003022852900F86E0FEA3E0FFA80D08E6E1
:202800002EFC08E63FFDC3EC94FFED940E4003022852A80D08E62EFC08E63FFDC3EE9CEFA1
:202820009D4003022852900F15E0FBA3E0FCA3E0FDEE2BFBEF3CFCE50D2403F8A60308A60B
:202840000408A605A80D08900F86E62EF008E63FA3F0124DB7E50D2403F8868208868308D3
:2028600086F0850D81D00D2222900F867400F0A3F022900F86E0FEA3E0FF74FFC39EFE74A5
:202880000E9FFF8E828F8322C00D85810DC082C083C0F0E581240AF581E50D240DF8760197
:2028A000A80D08E608467003022B75A80D08742526FA74000836FB0886048A828B838CF0C7
:2028C0001292C4FFBF01005003022B75C002C003C0048F037C00C002C003C0047582FF75D1
:2028E00083FF128C8BAB82AC8315811581D002A80D08E50D2407F9742626F774000836098E
:20290000F708E609F7E50D2407F886820886830886F01292C4FA7F00C3EB9AEC9FD004D0CE
:2029200003D0025003022B75C0E0C0A8C2AFA80D08E50D2404F9740626F77400083609F73B
:2029400008E609F7A80D0886820886830886F0E50D240AF91292C4F7A31292C409F7A312FD
:2029600092C409F78A828B838CF01292C4FFE50D2407F886820886830886F01292C4FE8F63
:20298000F0EEA4C8E50D240AC826FD08E635F0FE088607E50D2404F886820886830886F093
:2029A000ED128CD7A3EE128CD7A3EF128CD7A80D08742426FD74000836FE0886078D828E4E
:2029C000838FF07400128CD7A80D08E50D240AF9740326F77400083609F708E609F7A80D4D
:2029E0000886820886830886F01292C4FDA31292C4FEA31292C4FFE50D240AF88682088612
:202A0000830886F0ED128CD7A3EE128CD7A3EF128CD7E50D2404F8E50D240AF9740326F787
:202A20007400083609F708E609F7A80D0886820886830886F01292C4FDA31292C4FEA3127F
:202A400092C4FF8A828B838CF01292C4FA7C00E50D2404F8EA24FFF6EC34FF08F6E50D2465
:202A600007F886820886830886F01292C4FB7C00C007C006C005C003C004E50D2404F88670
:202A800082088683128D22AB82AC8315811581D005D006D007EB2DFDEC3EFEE50D240AF883
:202AA00086820886830886F0ED128CD7A3EE128CD7A3EF128CD7A80D08742726FD74000819
:202AC00036FE0886078D828E838FF074FF128CD7A80D08742826FD74000836FE0886078D58
:202AE000828E838FF074FF128CD7E50D24FDF8E66003022B37A80D08740C26FD7400083612
:202B0000FE0886078D828E838FF01292C47003022B67A80D08740C26FD74000836FE088676
:202B2000078D828E838FF0126026E5827003022B67120BE3022B67A80D08740C26FD740081
:202B40000836FE0886078D828E838FF0122127A80D08741826FD74000836FE0886078D82EB
:202B60008E838FF0122127D0E053E080E5E042A8D0E0022B7CE50D240DF87600E50D240D4C
:202B8000F88682850D81D00D22C00D85810DC0827C007D007E00A80D08E67003022C67C01F
:202BA00004C005C006A80D0886027B00C006C005C004C002C0037582FF7583FF128C8BAA32
:202BC00082AB8315811581D004D005D006E50D24FDF886057E00C3EA9DEB9ED006D005D038
:202BE000045003022C67A80D08E50D24FDF986F0E7A4FAABF0C374D69A74FF9B5003022C54
:202C00006774292AFA74003BFB8A828B831227A8AA82AB83AFF08A048B058F06EC4D70038F
:202C2000022C678C028D038E0774292AFA74003BFBC006C005C004C004C005C006E50D242D
:202C4000FCF8E6C0E0C002C003C007E50D24FDF8E6C0E0A80D088682122C72E58124F8F531
:202C600081D004D005D0068C828D838EF01581D00D22C00D85810DC082E50D24FDF8E660B0
:202C800003022CB5E50D24F6F88604088605088606E50D24F6F886020886030886078C82D9
:202CA0008D838EF0EA128CD7A3EB128CD7A3EF128CD7022CE3E50D24F6F8860408860508E3
:202CC0008606E50D24FAF886020886030886078C828D838EF0EA128CD7A3EB128CD7A3EF22
:202CE000128CD7E50D24F6F8860508860608860774252DFA74003EFB8F048A828B838CF011
:202D0000A80D08E6128CD774262DFA74003EFB8F048A828B838CF0E50D24FDF8E6128CD79E
:202D20007401C0E08D828E838FF012288815811581D00D22C00D85810DE5812411F581AD54
:202D400082AB83ACF0E50D2411F87600E50D240BF8A60508A60308A604E50D24F8F8B602AD
:202D600004740180027400FFE50D240EFEE50D240AF8A606A80D0874242DF674003B08F6DA
:202D800008A604E50D2404F874252DF674003B08F608A604C0E0C0A8C2AFA80D088682080E
:202DA00086830886F01292C4FDE50D2404F886820886830886F01292C4FCC3ED9C50030279
:202DC0002DC8EF7003022E5AE50D24F8F8E6C0E0E50D24FBF8E6C0E008E6C0E008E6C0E0DB
:202DE000E50D240BF886820886830886F0123DBFAC82E58124FCF5818C07E50D240BF874CB
:202E00001826FA74000836FB0886048A828B838CF01292C47003022E40E50D240BF87418B5
:202E200026FA74000836FB0886048A828B838CF0126026E5827003022E49120BE3022E4939
:202E4000EF7003022E49120BE3D0E053E080E5E042A8D0E075820102302DE50D24F9F8E691
:202E600008466003022E78D0E053E080E5E042A8D0E075820002302DE50D2411F8E6600379
:202E8000022EA18E027B007C408A828B838CF0C007C006126DFBD006D007E50D2411F876BB
:202EA00001D0E053E080E5E042A8D0E0C007C006124DAFD006D007C0E0C0A8C2AFE50D2478
:202EC0000BF8742726FA74000836FB0886048A828B838CF01292C4FDBDFF028003022EEB9E
:202EE0008A828B838CF07400128CD7E50D240BF8742826FA74000836FB0886048A828B8325
:202F00008CF01292C4FDBDFF028003022F198A828B838CF07400128CD7C007D0E053E0809C
:202F2000E5E042A8D0E0E50D24F9FCE50D2407F8A604087600087640E50D240AF886047D0D
:202F4000007F40C006E50D2407F8E6C0E008E6C0E008E6C0E08C828D838FF0126E2DAF82BA
:202F6000158115811581D006EFD0076003023017E50D240BF886820886830886F0C007C010
:202F800006124469E582D006D0077003022FF1E50D240BF8740C26FB74000836FC088605C8
:202FA000C007C006E50D24F9F8E6C0E008E6C0E08B828C838DF0125E0A15811581D006D084
:202FC00007E50D240BF886820886830886F0C007C006124274D006D007C007C006124DB795
:202FE000E582D006D0076003022D94120BE3022D94E50D240BF886820886830886F0C0075D
:20300000C006124274D006D007C007C006124DB7D006D007022D94E50D240BF886820886B3
:20302000830886F0124274124DB7758200850D81D00D22C00D85810D058105810581AA820A
:20304000AB83ACF0A80D08A60208A60308A60474242AFD74003BFE8C078D828E838FF0122E
:2030600092C4FD74252AFC74003BFE8C078C828E838FF01292C4FCC3ED9C500302308CE5BA
:203080000D24F7F8B60202800302318BA80D08742826FD74000836FE0886078D828E838FA5
:2030A000F01292C4FFA80D08742426FC74000836FD0886068C828D838EF01292C4C007E54F
:2030C0000D24F7F8E6C0E0E50D24FBF8E6C0E008E6C0E008E6C0E0A80D08868208868308C1
:2030E00086F0123DBFE58124FCF581D007BFFF028003023159A80D08741826FC740008368D
:20310000FD0886068C828D838EF01292C47003023186A80D08741826FC74000836FD088646
:20312000068C828D838EF0126026E5827003023186E50D24F8F8E608467003023186E50D6A
:2031400024F8F886040886050886068C828D838EF07401128CD7023186C00712544FAE82BF
:20316000D0078F05C3ED9E4003023186A80D08742826FC74000836FD0886060F8C828D83AF
:203180008EF0EF128CD77F0102318D7F008F82850D81D00D22C00D85810DC082C083C0F056
:2031A000E5812404F581A80D08742426FA74000836FB0886048A828B838CF0E50D2407F8AC
:2031C0001292C4F6A80D08742526FD74000836FE0886078D828E838FF01292C4FDE50D24B9
:2031E00007F8C3E69D40030232B9A80D08E50D2404F9742826F77400083609F708E609F731
:20320000E50D2404F886820886830886F01292C4FFE50D2407F8E604FE8A828B838CF0EE1D
:20322000128CD7BFFF02800302328FA80D08741826FC74000836FD0886068C828D838EF0C9
:203240001292C470030232B4A80D08741826FC74000836FD0886068C828D838EF0126026C9
:20326000E58270030232B4E50D24FBF8E6084670030232B4E50D24FBF88604088605088640
:20328000068C828D838EF07401128CD70232B4C00712544FAE82D0078F05C3ED9E40030210
:2032A00032B40FE50D2404F886820886830886F0EF128CD77F010232BB7F008F82850D81FA
:2032C000D00D22C00D85810DE581240BF581AC82AD83AFF0E50D2408F87600E50D2405F868
:2032E000A60408A60508A607E50D2409FEA80D08A606A80D080874242CF674003D08F60800
:20330000A607C0E0C0A8C2AFA80D080886820886830886F01292C4FC8C05EC70030233BCE6
:20332000C005E50D24FBF8E6C0E008E6C0E008E6C0E0E50D2405F886820886830886F01261
:203340004119158115811581D005E50D2405F8742426FB74000836FC088607ED14FA8B8265
:203360008C838FF0EA128CD7E50D2405F8740C26FB74000836FC0886078B828C838FF012BC
:2033800092C470030233ABE50D2405F8740C26FB74000836FC0886078B828C838FF0126080
:2033A00026E58270030233AB120BE3D0E053E080E5E042A8D0E075820102357DE50D24F9B0
:2033C000F8E6084660030233DAD0E053E080E5E042A8D0E075820002357DE50D2408F8E6E6
:2033E00060030233FF8E037C007F408B828C838FF0C006126DFBD006E50D2408F87601D05C
:20340000E053E080E5E042A8D0E0C006124DAFD006C0E0C0A8C2AFE50D2405F8742726FBC8
:2034200074000836FC0886078B828C838FF01292C4FABAFF0280030234458B828C838FF0F8
:203440007400128CD7E50D2405F8742826FB74000836FC0886078B828C838FF01292C4FA73
:20346000BAFF0280030234738B828C838FF07400128CD7C006D0E053E080E5E042A8D0E059
:20348000E50D24F9FF7C007B40A80D0886027D007E40C006C007C004C0038A828D838EF0B9
:2034A000126E2DAF82158115811581D006D006EF6003023544E50D2405F8868208868308BF
:2034C00086F0C00612440CE582D0067003023526E50D2405F8741826FC74000836FD088643
:2034E00007C006E50D24F9F8E6C0E008E6C0E08C828D838FF0125E0A15811581D006E50DD9
:203500002405F886820886830886F0C006124274D006C006124DB7E582D0066003023302DC
:20352000120BE3023302E50D2405F886820886830886F0C006124274D006C006124DB7D09A
:2035400006023302E50D2405F886820886830886F0C006124274D006C006124DB7D006E589
:203560000D2405F886820886830886F0C00612440CE582D0067003023302758200850D816D
:20358000D00D22C00D85810DE581240BF581AC82AD83AFF0E50D2405F87600E50D2406F8A7
:2035A000A60408A60508A607E50D2409FEE50D2404F8A606A80D0874242CF674003D08F6F8
:2035C00008A607C0E0C0A8C2AFA80D0886820886830886F01292C4FC8C07EC700302364695
:2035E000EF14FCA80D0886820886830886F0EC128CD7E50D2406F8740C26FB74000836FCB4
:203600000886078B828C838FF01292C47003023635E50D2406F8740C26FB74000836FC08C7
:2036200086078B828C838FF0126026E5827003023635120BE3D0E053E080E5E042A8D0E0C1
:20364000758201023809E50D24FCF8E608466003023664D0E053E080E5E042A8D0E0758239
:2036600000023809E50D2405F8E660030236898E037C007F408B828C838FF0C006126DFB43
:20368000D006E50D2405F87601D0E053E080E5E042A8D0E0C006124DAFD006C0E0C0A8C294
:2036A000AFE50D2406F8742726FB74000836FC0886078B828C838FF01292C4FABAFF028010
:2036C000030236CF8B828C838FF07400128CD7E50D2406F8742826FB74000836FC08860748
:2036E0008B828C838FF01292C4FABAFF0280030236FD8B828C838FF07400128CD7C006D040
:20370000E053E080E5E042A8D0E0E50D24FCFF7C007B40E50D2404F886027D007E40C006D4
:20372000C007C004C0038A828D838EF0126E2DAF82158115811581D006D006EF60030237CA
:20374000D0E50D2406F886820886830886F0C00612440CE582D00670030237B2E50D24060F
:20376000F8741826FC74000836FD088607C006E50D24FCF8E6C0E008E6C0E08C828D838FCE
:20378000F0125E0A15811581D006E50D2406F886820886830886F0C006124274D006C006E8
:2037A000124DB7E582D00660030235C3120BE30235C3E50D2406F886820886830886F0C0F4
:2037C00006124274D006C006124DB7D0060235C3E50D2406F886820886830886F0C0061216
:2037E0004274D006C006124DB7D006E50D2406F886820886830886F0C00612440CE582D081
:203800000670030235C3758200850D81D00D22C00D85810DE581240DF581AD82AB83AFF043
:203820007C00E50D240BF8A60508A60308A607E50D2408FEE50D2407F8A606A80D087424B0
:203840002DF674003B08F608A607C0E0C0A8C2AFA80D0886820886830886F01292C470033B
:20386000023943E50D240BF8740626FA74000836FB08860774032AFA74003BFB8A828B8376
:203880008FF01292C4FEA31292C4FDA31292C4FCC006C005C004E50D24FBF8E6C0E008E668
:2038A000C0E008E6C0E0E50D240BF886820886830886F0124119158115811581D004D00553
:2038C000D006E50D240BF8740626FA74000836FB08860774032AFA74003BFB8A828B838F2F
:2038E000F0EE128CD7A3ED128CD7A3EC128CD7E50D240BF8741826FA74000836FB08860765
:203900008A828B838FF01292C47003023932E50D240BF8741826FA74000836FB0886078A35
:20392000828B838FF0126026E5827003023932120BE3D0E053E080E5E042A8D0E0758201DF
:20394000023B3BE50D24F9F8E608466003023961D0E053E080E5E042A8D0E0758200023BBF
:203960003BEC600302397C8E027B007F408A828B838FF0C006126DFBD0067C01D0E053E02D
:2039800080E5E042A8D0E0C006C004124DAFD004D006C0E0C0A8C2AFE50D240BF8742726B3
:2039A000FA74000836FB0886078A828B838FF01292C4FDBDFF0280030239C68A828B838FE2
:2039C000F07400128CD7E50D240BF8742826FA74000836FB0886078A828B838FF01292C4F6
:2039E000FDBDFF0280030239F48A828B838FF07400128CD7C004D0E053E080E5E042A8D032
:203A0000E0E50D24F9FFE50D2404F8A607087600087640E50D2407F886047D007F40C0061C
:203A2000C004E50D2404F8E6C0E008E6C0E008E6C0E08C828D838FF0126E2DAF82158115E8
:203A4000811581D004D006D004EF6003023AF6E50D240BF886820886830886F0C006C00413
:203A600012440CE582D004D0067003023AD0E50D240BF8741826FB74000836FD088607C08A
:203A800006C004E50D24F9F8E6C0E008E6C0E08B828D838FF0125E0A15811581D004D00655
:203AA000E50D240BF886820886830886F0C006C004124274D004D006C006C004124DB7E5D5
:203AC00082D004D006600302384A120BE302384AE50D240BF886820886830886F0C006C019
:203AE00004124274D004D006C006C004124DB7D004D00602384AE50D240BF8868208868350
:203B00000886F0C006C004124274D004D006C006C004124DB7D004D006E50D240BF88682C0
:203B20000886830886F0C006C00412440CE582D004D006700302384A758200850D81D00D1B
:203B400022C00D85810DC082C083C0F0A80D08742426FA74000836FB0886048A828B838CD4
:203B6000F01292C4FA8A04EA7003023C6AA80D08742726FA74000836FB0886078A828B838C
:203B80008FF01292C4FFC007C004E50D24FBF8E6C0E008E6C0E008E6C0E0A80D088682083C
:203BA00086830886F0124119158115811581D004D007A80D08742426FB74000836FD0886F2
:203BC000061C8B828D838EF0EC128CD7BFFF028003023C38A80D08740C26FC74000836FD00
:203BE0000886068C828D838EF01292C47003023C65A80D08740C26FC74000836FD08860675
:203C00008C828D838EF0126026E5827003023C65E50D24F8F8E608467003023C65E50D248D
:203C2000F8F886040886050886068C828D838EF07401128CD7023C65C00712544FAE82D03E
:203C4000078F05C3ED9E4003023C65A80D08742726FC74000836FD0886060F8C828D838E1D
:203C6000F0EF128CD77F01023C6C7F008F82850D81D00D22C00D85810DAD82AE83AFF074D1
:203C8000242DFA74003EFB8F048A828B838CF01292C47003023D1D74062DFA74003EFB8FEF
:203CA0000474032AFA74003BFB8A828B838CF01292C4FAA31292C4FBA31292C4FCC007C02F
:203CC00006C005C004C003C002E50D24FBF8E6C0E008E6C0E008E6C0E08D828E838FF01274
:203CE0004119158115811581D002D003D004D005D006D00774062DFD74003EFE74032DFDB8
:203D000074003EFE8D828E838FF0EA128CD7A3EB128CD7A3EC128CD77F01023D1F7F008F02
:203D200082D00D22AD82AE83AFF0C0E0C0A8C2AF74242DFD74003EFE8D828E838FF01292D5
:203D4000C4FDD0E053E080E5E042A8D0E08D8222AD82AE83AFF0C0E0C0A8C2AF74252DFA77
:203D600074003EFB8F048A828B838CF01292C4FA74242DFD74003EFE8D828E838FF0129256
:203D8000C4FDEAC39DFAD0E053E080E5E042A8D0E08A8222AD82AE83AFF074242DFD7400F9
:203DA0003EFE8D828E838FF01292C4FD8D8222AD82AE83AFF08D828E838FF012286822C070
:203DC0000D85810DC082C083C0F0E581240AF581A80D08742426FA74000836FB0886048A46
:203DE000828B838CF0E50D240DF81292C4F6A80D08E50D2407F9742626F77400083609F702
:203E000008E609F7E50D2407F886820886830886F01292C4FEEE70030240FEE50D24FAF8F9
:203E2000E66003023F7BC002C003C0048E047D00A80D08E50D240AF9740326F77400083609
:203E400009F708E609F7E50D240AF886820886830886F01292C4FAA31292C4FBA31292C452
:203E6000FFC004C003C002C004C005E50D24FBF8E6C0E008E6C0E008E6C0E08A828B838F1D
:203E8000F01290ABE58124FBF581D002D003D004E50D240AF886820886830886F01292C45A
:203EA000FCA31292C4FDA31292C4FFE50D2407F886820886830886F01292C4FBE50D2404CB
:203EC000F8EB2CF674003D08F608A607E50D240AF886820886830886F0E50D2404F9E712BE
:203EE0008CD7A309E7128CD7A309E7128CD7A80D08740626FA74000836FB0886078A828B1F
:203F0000838FF01292C4FAA31292C4FBA31292C4FFE50D2404F8C002C003C0078682088639
:203F2000830886F0120091158115811581D004D003D00250030240FEC002C003C004A80D11
:203F40000886820886830886F01292C4FCA31292C4FDA31292C4FFE50D240AF8868208869E
:203F6000830886F0EC128CD7A3ED128CD7A3EF128CD7D004D003D0020240FEC002C003C0D5
:203F8000047F00A80D08E50D2404F9740626F77400083609F708E609F7E50D2404F8E50D93
:203FA000240AF9740326F77400083609F708E609F7E50D240AF886820886830886F0129253
:203FC000C4FBA31292C4FCA31292C4FDC004C003C002C006C007E50D24FBF8E6C0E008E6C0
:203FE000C0E008E6C0E08B828C838DF01290ABE58124FBF581D002D003D004E50D240AF821
:2040000086820886830886F01292C4FDA31292C4FEA31292C4FFE50D2407F8868208868363
:204020000886F01292C4FC7B00EDC39CFDEE9BFEE50D240AF886820886830886F0ED128C19
:20404000D7A3EE128CD7A3EF128CD7A80D0886820886830886F01292C4FAA31292C4FBA31D
:204060001292C4FCC002C003C0048D828E838FF0120091158115811581D004D003D00240D6
:20408000030240E0C002C003C004E50D2404F886820886830886F01292C4FDA31292C4FE9B
:2040A000A31292C4FFE50D2407F886820886830886F01292C4FC7B00EDC39CFDEE9BFEE5B6
:2040C0000D240AF886820886830886F0ED128CD7A3EE128CD7A3EF128CD7D004D003D0022E
:2040E000E50D24FAF8B6020280030240FEE50D240DF8E670030240FEE50D240DF816E50D64
:20410000240DF8E604FF8A828B838CF0EF128CD7758200850D81D00D22C00D85810DE58144
:204120002407F581C8E50D2405C8A68208A68308A6F0E50D2405F8742626FA74000836FBC2
:204140000886048A828B838CF0E50D2404F81292C4F6E50D2404F8E6700302426EC002C028
:2041600003C004E50D2405F8740626FA74000836FB088604A80D0874032AF674003B08F68B
:2041800008A604A80D0886820886830886F01292C4FDA31292C4FEA31292C4FFE50D240487
:2041A000F8E62DFD74003EFEA80D0886820886830886F0ED128CD7A3EE128CD7A3EF128C5B
:2041C000D78A828B838CF01292C4FAA31292C4FBA31292C4FCC002C003C0048D828E838F0B
:2041E000F0120091158115811581D004D003D0025003024229E50D2405F8868208868308FD
:2042000086F01292C4FDA31292C4FEA31292C4FFA80D0886820886830886F0ED128CD7A357
:20422000EE128CD7A3EF128CD78A828B838CF01292C4FA7F00A80D0886820886830886F049
:204240001292C4FCA31292C4FDA31292C4FEC002C007C004C005C006E50D24FBF8868208F8
:2042600086830886F01290ABE58124FBF581850D81D00D22C00D85810DC082C083C0F0E563
:20428000812404F581C0E0C0A8C2AFA80D08742826FA74000836FB0886048A828B838CF038
:2042A000E50D2407F81292C4F6A80D08E50D2404F9741826F77400083609F708E609F7E58D
:2042C0000D2407F8C37400648086F063F08095F0400302432DE50D2404F8868208868308DD
:2042E00086F01292C4700302432DA80D08741826FD74000836FE0886078D828E838FF0C0EB
:2043000004C003C002126026E582D002D003D0047003024324C004C003C002126F54D002D0
:20432000D003D004E50D2407F8160242BF8A828B838CF074FF128CD7D0E053E080E5E042C0
:20434000A8D0E0C0E0C0A8C2AFA80D08742726FD74000836FE0886078D828E838FF0129289
:20436000C4FCA80D08E50D2404F9740C26F77400083609F708E609F7C3740064808CF06376
:20438000F08095F040030243F0E50D2404F886820886830886F01292C470030243F0C00532
:2043A000C006C007A80D08740C26FA74000836FB0886078A828B838FF0C007C006C005C026
:2043C00004126026E582D004D005D006D007D007D006D00570030243ECC007C006C005C04C
:2043E00004126F54D004D005D006D0071C0243788D828E838FF074FF128CD7D0E053E080CB
:20440000E5E042A8D0E0850D81D00D22AD82AE83AFF0C0E0C0A8C2AF74242DFD74003EFE41
:204420008D828E838FF01292C460030244337F010244357F00D0E053E080E5E042A8D0E05D
:204440008F8222AD82AE83AFF074242DFD74003EFE8D828E838FF01292C460030244647F25
:20446000010244667F008F8222AD82AE83AFF0C0E0C0A8C2AF74242DFA74003EFB8F048ADC
:20448000828B838CF01292C4FA74252DFD74003EFE8D828E838FF01292C4FDEAB505028011
:2044A000030244A97F010244AB7F00D0E053E080E5E042A8D0E08F8222AD82AE83AFF074B2
:2044C000242DFA74003EFB8F048A828B838CF01292C4FA74252DFD74003EFE8D828E838F37
:2044E000F01292C4FDEAB5050280030244F37F010244F57F008F8222C00D85810D0581052D
:20450000810581AE82AF83758233758300C007C0061227A8AB82AC83ADF0D006D007A80D47
:2045200008A60308A60408A605A80D08E6084670030245DCC006C007A80D08860208860678
:20454000088607C007C0067433C0E07400C0E0C0E08A828E838FF012913E158115811581FF
:20456000D006D007A80D08742026FA74000836FE088607E50D24F9F886040886058C828D19
:2045800083C007C006C0021227A8AB82AC83ADF0D002D006D0078A828E838FF0EB128CD7F4
:2045A000A3EC128CD7A3ED128CD7D007D006EB4C60030245DCA80D0886030886040886051D
:2045C0008B828C838DF0C007C006122868D006D007A80D087400F608F6087600A80D08E620
:2045E0000846700302466BE50D24F9F886020886037C007D007400C0E0C0E0C0E0A80D081D
:20460000E6C0E008E6C0E008E6C0E0E50D24F2F8E6C0E008E6C0E008E6C0E0E50D24F5F853
:20462000E6C0E0E50D24F6F8E6C0E008E6C0E008E6C0E0C002C003C004C005E50D24FBF837
:20464000E6C0E008E6C0E008E6C0E08E828F83124675E58124ECF581A80D08868208868307
:204660000886F01249577F0102466D7FFF8F82850D81D00D22C00D85810DC082C083E58169
:20468000240CF581E50D24EDF8E50D2409F9E6F708E609F708E609F7E50D2409F8742026D7
:2046A000FA74000836FE0886078A828E838FF0E50D240CF81292C4F6A31292C408F6A312E9
:2046C00092C408F6E50D240CF8E50D2403F9E6F708E609F708E609F7E50D2409F8E50D2474
:2046E00006F9742B26F77400083609F708E609F7E50D24F7F8E624FFFA08E634FFFE08E64A
:2047000034FFFD08E634FFFFE50D240CF8EA26FAEE0836FE088605E50D2406F886820886BE
:20472000830886F0EA128CD7A3EE128CD7A3ED128CD7E50D24FBF8E6084670030247CCE564
:204740000D2409F8742326FD74000836FE0886077B00E50D2406F8EB2DF674003E08F608D3
:20476000A607C005C006C007E50D24FBF8EB26FD74000836FE0886078D828E838FF012929B
:20478000C4FCE50D2406F886820886830886F0EC128CD78D828E838FF01292C4D007D00699
:2047A000D00570030247B00BBB08005003024752E50D2409F8742A26FD74000836FE0886E6
:2047C000078D828E838FF07400128CD7E50D24F3F8B6040050030247E0E50D24F3F8760399
:2047E000E50D2409F8741F26FD74000836FE0886078D828E838FF0E50D24F3F8E6128CD7AC
:20480000E50D2409F8740326FD74000836FE0886078D828E838FF012220EE50D2409F87436
:204820001126FD74000836FE0886078D828E838FF012220EE50D2409F8740B26FD740008E9
:2048400036FE088607E50D24EDF886020886030886048D828E838FF0EA128CD7A3EB128CBF
:20486000D7A3EC128CD7E50D2409F8E50D2406F9741126F77400083609F708E609F7E50DFD
:2048800024F3F886077E007404C39FFF74009EFEE50D2406F886820886830886F0EF128CDD
:2048A000D7A3EE128CD7E50D2409F8741926FD74000836FE0886078D828E838FF0EA128CE8
:2048C000D7A3EB128CD7A3EC128CD7E50D24F4F8E6C0E008E6C0E008E6C0E0A80D08E6C0F3
:2048E000E008E6C0E0E50D2403F886820886830886F012096BAF82AE83ADF0E58124FBF5A3
:2049000081E50D2409F886820886830886F0EF128CD7A3EE128CD7A3ED128CD7E50D24F0F3
:20492000F8E608467003024951E50D24F0F886050886060886078D828E838FF0E50D2409CC
:20494000F8E6128CD7A308E6128CD7A308E6128CD7850D81D00D22C00D85810DC082C08381
:20496000C0F0E581240CF581C0E0C0A8C2AF900F8BE004F0900F88E0FAA3E0FBA3E0FCEA1C
:204980004B60030249A9A80D08900F88E6F008E6A3F008E6A3F0900F8BE0FCBC0102800371
:2049A000024A00126F73024A00900F8FE06003024A00900F88E0FAA3E0FBA3E0FC741F2AF3
:2049C000FA74003BFB8A828B838CF01292C4FAA80D08741F26FB74000836FC0886078B827A
:2049E0008C838FF01292C4FBC3EB9A5003024A00A80D08900F88E6F008E6A3F008E6A3F023
:204A0000900F94E02401F0A80D08741F26FD74000836FE0886078D828E838FF01292C4FCB3
:204A2000900F8EE0FBC3EB9C4003024A32900F8EECF08D828E838FF01292C4FCEC75F00CFA
:204A4000A42418FB740F35F0FC8B828C83A3E50D240DF8E0F6A3E008F6A3E008F6A80D0868
:204A6000E50D240AF9740326F77400083609F708E609F7E50D240AF8740226FA7400083689
:204A8000FB0886048A828B838CF0E50D240DF8E6128CD7A308E6128CD7A308E6128CD7E58C
:204AA0000D240AF8E50D2407F9740526F77400083609F708E609F7E50D240DF8E50D240442
:204AC000F9740526F77400083609F708E609F7E50D2404F886820886830886F01292C4FA9C
:204AE000A31292C4FBA31292C4FCE50D2407F886820886830886F0EA128CD7A3EB128CD79B
:204B0000A3EC128CD7E50D2404F886820886830886F01292C4FAA31292C4FBA31292C4FC79
:204B200074022AFA74003BFB8A828B838CF0E50D240AF8E6128CD7A308E6128CD7A308E691
:204B4000128CD7E50D2404F886820886830886F0E50D240AF9E7128CD7A309E7128CD7A317
:204B600009E7128CD7E50D240AF8E50D2404F9740B26F77400083609F708E609F78D828ECC
:204B8000838FF01292C4FCEC75F00CA42418FC740F35F0FB8C027C00E50D2404F8868208A7
:204BA00086830886F0EA128CD7A3EB128CD7A3EC128CD78D828E838FF01292C4FCEC75F0B4
:204BC0000CA42418FB740F35F0FC8B828C83E0FA0A8B828C83EAF0D0E053E080E5E042A842
:204BE000D0E0900F8FE07003024C1D900F88E0FAA3E0FBA3E0FC741F2AFA74003BFB8A82AE
:204C00008B838CF01292C4FA8D828E838FF01292C4FDC3EA9D4003024C1D120BE3850D8199
:204C2000D00D22C00D85810DC082C083C0F0058105817E00C006124DAFD006900F8CE0FA27
:204C4000A3E0FBE50D2404F8A60208A603A80D0886820886830886F01292C4FBA31292C4A9
:204C6000FCE50D24FCF8E62BFD08E63CFF8D02E50D2404F8C3E69B08E69C4003024C9EC396
:204C8000EA9BEF9C4003024CBAE50D2404F8C3E69A08E69F4003024CBA7E01024CBAC3EA58
:204CA0009BEF9C5003024CB8E50D2404F8C3E69A08E69F4003024CBA7E01A80D08868208FC
:204CC00086830886F0EA128CD7A3EF128CD7EE7003024CF2E50D2404F8EAC396FAEF08966A
:204CE000FFC0067400C0E08A828F83128B5F1581D006C006124DB7E582D0066003024D0387
:204D0000120BE38E82850D81D00D22AE82AF837D00EE4F7003024D37C007C006124DAFD0F1
:204D200006D0077400C0E08E828F83128B5F1581124DB7AF828F05ED6003024D40120BE314
:204D4000227497C0E0740FC0E07400C0E0C0E0C0E0C0E0C0E074A7C0E07400C0E07417C0B5
:204D6000E07496C0E07480C0E075825B75836F1244F8AF82E58124F4F581BF0102800302A2
:204D80004D9DC2AF900F9574FFF0A3F0900F8F7401F0900F8C7400F0A3F0120B659096161B
:204DA000E49322C2AF900F8F7400F0120BE222900F9AE02401F022C00D85810DE581241666
:204DC000F581E50D2410F87400F608F6087600E50D2413F87600C0E0C0A8C2AF900F9AE030
:204DE00014F0E0600302540C900F8BE0700302540C900F66E070030253A6900F6CE0FAA350
:204E0000E0FBA3E0FC74082AFA74003BFB8A828B838CF01292C4FAA31292C4FBA31292C4E5
:204E2000FCE50D2410F8A60208A60308A604E50D2410F8A90D09741126F77400083609F71C
:204E400008E609F7E50D2410F8741C26FA74000836FB0886048A828B838CF0E50D2414F89F
:204E60001292C4F6A31292C408F6A31292C408F6E50D2410F8741326FA74000836FB0886C2
:204E8000048A828B838CF01292C4FDA31292C4FEA31292C4FFE50D2407F874052DF67400DB
:204EA0003E08F608A607E50D2410F8E50D2404F9741626F77400083609F708E609F7E50D97
:204EC0002404F886820886830886F01292C4FDA31292C4FEA31292C4FFE50D2407F8868286
:204EE0000886830886F0ED128CD7A3EE128CD7A3EF128CD7E50D2404F886820886830886FB
:204F0000F01292C4FDA31292C4FEA31292C4FF74022DFD74003EFE8A828B838CF01292C4DB
:204F2000FAA31292C4FBA31292C4FC8D828E838FF0EA128CD7A3EB128CD7A3EC128CD7E580
:204F40000D2414F8740126FC74000836FB0886028C828B838AF01292C4FDA31292C4FEA399
:204F60001292C4FFA80D08C005C006C00786820886830886F012009115811581158170024D
:204F80008003024FB4E50D2404F886820886830886F01292C4FDA31292C4FEA31292C4FF68
:204FA0008C828B838AF0ED128CD7A3EE128CD7A3EF128CD7A80D08740B26FD74000836FEDD
:204FC0000886078D828E838FF07400128CD7A3128CD7A3128CD7E50D2414F8868208868349
:204FE0000886F01292C4FF1FE50D2414F886820886830886F0EF128CD7E50D2410F87403FB
:2050000026FD74000836FE088607E50D2407F8740B2DF674003E08F608A607E50D2407F8F7
:2050200086820886830886F0E50D2414F91292C4F7A31292C409F7A31292C409F7E50D242B
:2050400004F874022DF674003E08F608A607E50D2404F886820886830886F01292C4FAA3A8
:205060001292C4FBA31292C4FCE50D240DF874052AF674003B08F608A604A80D0874052D50
:20508000F674003E08F608A607A80D0886820886830886F01292C4FAA31292C4FBA31292B2
:2050A000C4FCE50D240DF886820886830886F0EA128CD7A3EB128CD7A3EC128CD7A80D085B
:2050C00086820886830886F01292C4FAA31292C4FBA31292C4FCE50D240DF874022AF674A5
:2050E000003B08F608A604E50D2404F886820886830886F01292C4FAA31292C4FBA312926D
:20510000C4FCE50D240DF886820886830886F0EA128CD7A3EB128CD7A3EC128CD7E50D24A1
:2051200014F8E50D240DF9740126F77400083609F708E609F7E50D240DF8868208868308D9
:2051400086F01292C4FAA31292C4FBA31292C4FCC005C006C0078A828B838CF012009115CA
:205160008115811581700280030251A0A80D0886820886830886F01292C4FAA31292C4FBDE
:20518000A31292C4FCE50D240DF886820886830886F0EA128CD7A3EB128CD7A3EC128CD7F0
:2051A000C005C006C007E50D2407F886820886830886F07400128CD7A3128CD7A3128CD7D8
:2051C000E50D2414F886820886830886F01292C4FC1CE50D2414F886820886830886F0ECF1
:2051E000128CD7E50D2410F8E50D240AF9741F26F77400083609F708E609F7E50D240AF89B
:2052000086820886830886F01292C4FC900F8EE0FFC3EF9CD007D006D0054003025224906C
:205220000F8EECF0E50D240AF886820886830886F01292C4FCEC75F00CA42418FB740F35F2
:20524000F0FC8B828C83A3E0FAA3E0FBA3E0FCE50D2404F886820886830886F0EA128CD7C4
:20526000A3EB128CD7A3EC128CD7E50D240DF874052AF674003B08F608A604E50D240DF8F9
:2052800086820886830886F01292C4FAA31292C4FBA31292C4FCA80D0886820886830886A4
:2052A000F0EA128CD7A3EB128CD7A3EC128CD7E50D240DF886820886830886F01292C4FA84
:2052C000A31292C4FBA31292C4FC74022AFA74003BFB8A828B838CF0ED128CD7A3EE128C56
:2052E000D7A3EF128CD7E50D240DF886820886830886F0ED128CD7A3EE128CD7A3EF128C86
:20530000D7E50D240AF886820886830886F01292C4FFEF75F00CA42418FE740F35F0FF7D3E
:2053200000E50D2407F886820886830886F0EE128CD7A3EF128CD7A3ED128CD7E50D240A32
:20534000F886820886830886F01292C4FFEF75F00CA42418FE740F35F0FF8E828F83E0FD73
:205360000D8E828F83EDF0E50D240AF886820886830886F01292C4FF900F88E0FCA3E0FD88
:20538000A3E0FE741F2CFC74003DFD8C828D838EF01292C4FCC3EF9C5003024DF1900F9211
:2053A0007401F0024DF1E50D2410F8E6084670030253B6126FDC900F90E0FEA3E0FF8E04FA
:2053C0008F05EE4F70030253F98C068D07C007C0061254C1E582D006D00770030253E59010
:2053E0000F927401F01EBEFF011FEE4F60030253CD900F907400F0A3F0900F92E07003023E
:20540000540CE50D2413F87601120BE3D0E053E080E5E042A8D0E0E50D2413F88682850D17
:2054200081D00D22C0E0C0A8C2AF900F8CE0FEA3E0FFD0E053E080E5E042A8D0E08E828F87
:205440008322900F8CE0FEA3E0FF8E828F8322900F8BE0FF8F8222AD82AE83AFF0ED4E6002
:2054600003025472900F88E0FAA3E0FBA3E0FC0254788D028E038F0474232AFA74003BFB7D
:205480008A828B838CF022AE82AF83C007C006124DAFD006D007C0E0C0A8C2AF900F90E022
:2054A000FCA3E0FD900F90EE2CF0EF3DA3F0D0E053E080E5E042A8D0E0124DB7AF828F825E
:2054C00022C00D85810DE5812418F581E50D2413F87600900F9AE06003025C5E900F8CE0D8
:2054E000FDA3E0FEE50D2414F874012DF674003E08F6E50D2414F8900F8CE6F008E6A3F020
:20550000E50D2414F8E608466003025546900F60E0FAA3E0FBA3E0FC8B058C06900F63E05B
:20552000FBA3E0FCA3E0FF900F60EBF0ECA3F0EFA3F0900F63EAF0EDA3F0EEA3F0900F9385
:20554000E004F0126FDC900F95E0FBA3E0FCE50D2414F8C3E69B08E69C5003025C0D900F3F
:2055600060E0FAA3E0FBA3E0FC8A828B838CF01292C46003025582900F9574FFF0A3F0028E
:205580005C0D900F60E0FAA3E0FBA3E0FC74042AFA74003BFB74022AFA74003BFB8A828BAB
:2055A000838CF01292C4FAA31292C4FBA31292C4FC74082AFA74003BFB8A828B838CF0128B
:2055C00092C4FAA31292C4FBA31292C4FCE50D2410F8A60208A60308A604E50D2410F874B3
:2055E0000326FD74000836FE0886078D828E838FF01292C4FFA31292C4FEE50D2414F8C34C
:20560000E69F08E69E4003025615900F95EFF0EEA3F0025C0DE50D2410F8740326FD74009E
:205620000836FE088607E50D2410F8740E26FA74000836FB0886048A828B838CF0E50D24EE
:2056400016F81292C4F6A31292C408F6A31292C408F6E50D2410F8E50D2407F9740526F702
:205660007400083609F708E609F7E50D2407F886820886830886F01292C4FAA31292C4FB76
:20568000A31292C4FCE50D240AF874052AF674003B08F608A604E50D2410F8A90D0974089A
:2056A00026F77400083609F708E609F7A80D0886820886830886F01292C4FAA31292C4FB71
:2056C000A31292C4FCE50D240AF886820886830886F0EA128CD7A3EB128CD7A3EC128CD7AE
:2056E000A80D0886820886830886F01292C4FAA31292C4FBA31292C4FCE50D240AF8740259
:205700002AF674003B08F608A604E50D2407F886820886830886F01292C4FAA31292C4FBF6
:20572000A31292C4FCE50D240AF886820886830886F0EA128CD7A3EB128CD7A3EC128CD74D
:20574000E50D2416F8E50D240AF9740126F77400083609F708E609F7E50D240AF8868208B2
:2057600086830886F01292C4FAA31292C4FBA31292C4FCC005C006C0078A828B838CF01239
:205780000091158115811581700280030257C3A80D0886820886830886F01292C4FAA3123A
:2057A00092C4FBA31292C4FCE50D240AF886820886830886F0EA128CD7A3EB128CD7A3ECF1
:2057C000128CD7E50D240DF8740B2DF674003E08F608A607E50D240DF88682088683088670
:2057E000F07400128CD7A3128CD7A3128CD7C005C006C007E50D2416F88682088683088683
:20580000F01292C4FF1FE50D2416F886820886830886F0EF128CD7E50D2410F8E50D240AB5
:20582000F9741126F77400083609F708E609F7E50D240AF8A90D09740B26F77400083609FF
:20584000F708E609F7A80D0886820886830886F01292C4FAA31292C4FBA31292C4FCD007C9
:20586000D006D005EA4B7003025A20C005C006C007E50D2416F8A60208A60308A604E50DE6
:20588000240AF8740226FD74000836FE0886078D828E838FF01292C4FAA31292C4FBA31248
:2058A00092C4FCE50D2404F874052AF674003B08F608A604E50D240AF8E50D2407F97405E5
:2058C00026F77400083609F708E609F7E50D2407F886820886830886F01292C4FAA31292B6
:2058E000C4FBA31292C4FCE50D2404F886820886830886F0EA128CD7A3EB128CD7A3EC1236
:205900008CD7E50D2407F886820886830886F01292C4FAA31292C4FBA31292C4FC74022A69
:20592000FA74003BFB8D828E838FF01292C4FDA31292C4FEA31292C4FF8A828B838CF0ED29
:20594000128CD7A3EE128CD7A3EF128CD7E50D2416F8E50D2404F9740126F7740008360941
:20596000F708E609F7E50D2404F886820886830886F01292C4FDA31292C4FEA31292C4FF21
:20598000E50D240AF8C005C006C00786820886830886F012009115811581158170028009A6
:2059A000D007D006D0050259E5D007D006D005E50D2407F886820886830886F01292C4FA95
:2059C000A31292C4FBA31292C4FCE50D2404F886820886830886F0EA128CD7A3EB128CD7AF
:2059E000A3EC128CD7A80D0886820886830886F07400128CD7A3128CD7A3128CD7E50D2420
:205A000016F886820886830886F01292C4FC1CE50D2416F886820886830886F0EC128CD745
:205A2000C005C006C007E50D2410F8E50D240AF9741F26F77400083609F708E609F7E50D9B
:205A4000240AF886820886830886F01292C4FC900F8EE0FFC3EF9CD007D006D00540030204
:205A60005A67900F8EECF0E50D240AF886820886830886F01292C4FCEC75F00CA42418FB11
:205A8000740F35F0FC8B828C83A3E50D2416F8E0F6A3E008F6A3E008F674022DFA74003E58
:205AA000FB8F048A828B838CF0E50D2416F8E6128CD7A308E6128CD7A308E6128CD7E50D45
:205AC0002404F874052DF674003E08F608A607E50D2416F8A90D09740526F7740008360971
:205AE000F708E609F7A80D0886820886830886F01292C4FAA31292C4FBA31292C4FCE50D0C
:205B00002404F886820886830886F0EA128CD7A3EB128CD7A3EC128CD7A80D088682088615
:205B2000830886F01292C4FAA31292C4FBA31292C4FC74022AFA74003BFB8A828B838CF01B
:205B4000ED128CD7A3EE128CD7A3EF128CD7A80D0886820886830886F0ED128CD7A3EE127D
:205B60008CD7A3EF128CD7E50D240AF886820886830886F01292C4FFEF75F00CA42418FE67
:205B8000740F35F0FF7D00E50D240DF886820886830886F0EE128CD7A3EF128CD7A3ED1223
:205BA0008CD7E50D240AF886820886830886F01292C4FFEF75F00CA42418FE740F35F0FF87
:205BC0008E828F83E0FD0D8E828F83EDF0E50D240AF886820886830886F01292C4FF900F05
:205BE00088E0FCA3E0FDA3E0FE741F2CFC74003DFD8C828D838EF01292C4FCC3EF9C500336
:205C000002555EE50D2413F8760102555E900F88E0FDA3E0FEA3E0FF741F2DFD74003EFE0E
:205C20008D828E838FF01292C4FDED75F00CA42418F582740F35F0F583E0FFC374019F4095
:205C400003025C4BE50D2413F87601900F92E07003025C6AE50D2413F87601025C6A900FB5
:205C600090E02401F0A3E03400F0E50D2413F88682850D81D00D22C00D85810DE581240A49
:205C8000F581900F9AE07003025C94900F927401F0025E04900F927400F0900F8EE0FFEF86
:205CA00075F00CA4FDAEF0ED2418FBEE340FFC8B828C83E06003025CBD1F025C9FE50D2437
:205CC00007F8A607ED2418FDEE340FFEE50D2408F8A60508A606087600E50D2408F8740145
:205CE00026FA74000836FB0886078A828B838FF01292C4FCA31292C4FDA31292C4FE7402BE
:205D00002CFC74003DFD8C828D838EF01292C4FCA31292C4FDA31292C4FE8A828B838FF003
:205D2000EC128CD7A3ED128CD7A3EE128CD78A828B838FF0A80D081292C4F6A31292C40830
:205D4000F6A31292C408F6E50D2404F8A60408A60508A606E50D2408F8740426FC740008F5
:205D600036FD088606E50D2404F8C004C005C00686820886830886F0120091158115811580
:205D80008170028003025DBFA80D08740226FC74000836FD0886068C828D838EF01292C4D3
:205DA000FCA31292C4FDA31292C4FE8A828B838FF0EC128CD7A3ED128CD7A3EE128CD78A47
:205DC000828B838FF01292C4FAA31292C4FBA31292C4FF74082AFA74003BFB8A828B838F4F
:205DE000F01292C4FAA31292C4FBA31292C4FF900F88EAF0EBA3F0EFA3F0E50D2407F8909B
:205E00000F8EE6F0850D81D00D22C00D85810DAD82AE83AFF0900F88E0FAA3E0FBA3E0FC20
:205E200074112AFA74003BFBC002C003C0048D828E838FF01223941581158115817401C067
:205E4000E0E50D24FCF88682088683128B5F1581D00D22C00D85810DC082C083C0F0058113
:205E600005810581900F88E0FAA3E0FBA3E0FC74112AFA74003BFBE50D24FCF886060886A1
:205E8000074307808A828B838CF0EE128CD7A3EF128CD7A80D08740126FD74000836FE0824
:205EA00086078D828E838FF01292C4FDA31292C4FEA31292C4FF900F88E0FAA3E0FBA3E03C
:205EC000FC74112AFA74003BFB74022AFA74003BFB8A828B838CF0ED128CD7A3EE128CD731
:205EE000A3EF128CD7900F88E0FAA3E0FBA3E0FC74112AFA74003BFBE50D2404F874052A95
:205F0000F674003B08F608A60474052DFD74003EFE8D828E838FF01292C4FAA31292C4FBD2
:205F2000A31292C4FCE50D2404F886820886830886F0EA128CD7A3EB128CD7A3EC128CD74B
:205F40008D828E838FF01292C4FAA31292C4FBA31292C4FCE50D2404F874022AF674003BDC
:205F600008F608A604900F88E0FAA3E0FBA3E0FC74112AFA74003BFBE50D2404F8868208FE
:205F800086830886F0EA128CD7A3EB128CD7A3EC128CD7900F88E0FAA3E0FBA3E0FC741191
:205FA0002AFA74003BFB8D828E838FF0EA128CD7A3EB128CD7A3EC128CD7900F88E0FDA367
:205FC000E0FEA3E0FF74112DFD74003EFE740B2DFD74003EFE8D828E838FF0A80D08E61255
:205FE0008CD7A308E6128CD7A308E6128CD7A80D0886820886830886F01292C4FF0FA80DB3
:206000000886820886830886F0EF128CD77401C0E0E50D24FAF88682088683128B5F1581B5
:20602000850D81D00D22C00D85810DE5812419F581AD82AE83AFF074042DFD74003EFE7490
:20604000022DFD74003EFE8D828E838FF01292C4FDA31292C4FEA31292C4FF74082DFD7433
:20606000003EFE8D828E838FF01292C4FDA31292C4FEA31292C4FFE50D2414F8A60508A652
:206080000608A607E50D2414F8741126FA74000836FB088604E50D2414F8741C26FD7400F6
:2060A0000836FE0886078D828E838FF0E50D2417F81292C4F6A31292C408F6A31292C408D1
:2060C000F6E50D2414F8E50D240BF9741326F77400083609F708E609F7E50D240BF8868229
:2060E0000886830886F01292C4FDA31292C4FEA31292C4FFE50D240EF874052DF674003E2F
:2061000008F608A607E50D2414F8E50D2408F9741626F77400083609F708E609F7E50D2436
:2061200008F886820886830886F01292C4FDA31292C4FEA31292C4FFE50D240EF886820824
:2061400086830886F0ED128CD7A3EE128CD7A3EF128CD7E50D2408F886820886830886F09C
:206160001292C4FDA31292C4FEA31292C4FFE50D240EF874022DF674003E08F608A607E5A8
:206180000D240BF886820886830886F01292C4FDA31292C4FEA31292C4FFE50D240EF8861A
:2061A000820886830886F0ED128CD7A3EE128CD7A3EF128CD7E50D2417F8E50D240EF974A9
:2061C0000126F77400083609F708E609F7E50D240EF886820886830886F01292C4FDA31234
:2061E00092C4FEA31292C4FFC002C003C0048D828E838FF012009115811581158170028002
:206200000302623AE50D2408F886820886830886F01292C4FDA31292C4FEA31292C4FFE5D3
:206220000D240EF886820886830886F0ED128CD7A3EE128CD7A3EF128CD7E50D2404F8749B
:206240000B2AF674003B08F608A604E50D2404F886820886830886F07400128CD7A3128CE1
:20626000D7A3128CD7C002C003C004E50D2417F886820886830886F01292C4FC1CE50D2494
:2062800017F886820886830886F0EC128CD7900F9AE0D004D003D0026003026665E50D241F
:2062A00014F8740326FC74000836FB088602E50D2408F8740B2CF674003B08F608A602E503
:2062C0000D2408F886820886830886F01292C4FFA31292C4FEA31292C4FDE50D240BF874F1
:2062E000022CF674003B08F608A602E50D240BF886820886830886F0A90D091292C4F7A3AC
:206300001292C409F7A31292C409F7A80D08740526F674000836F6E50D2411F874052CF656
:2063200074003B08F608A602E50D2411F886820886830886F0E50D2404F91292C4F7A31223
:2063400092C409F7A31292C409F7A80D0886820886830886F0E50D2404F9E7128CD7A3096D
:20636000E7128CD7A309E7128CD7E50D2411F886820886830886F0E50D2404F91292C4F791
:20638000A31292C409F7A31292C409F7E50D2404F8740226F674000836F6E50D240BF886FC
:2063A000820886830886F0A90D091292C4F7A31292C409F7A31292C409F7E50D2404F88600
:2063C000820886830886F0A90D09E7128CD7A309E7128CD7A309E7128CD7E50D2404F874FB
:2063E000012FF674003E08F608A605E50D2404F886820886830886F0A90D091292C4F7A3AA
:206400001292C409F7A31292C409F7A80D08C004C003C00286820886830886F012009115B4
:2064200081158115817002800302646CE50D2411F886820886830886F0A90D091292C4F714
:20644000A31292C409F7A31292C409F7E50D2404F886820886830886F0A90D09E7128CD762
:20646000A309E7128CD7A309E7128CD7E50D2408F886820886830886F07400128CD7A312C1
:206480008CD7A3128CD78F828E838DF0E50D2404F81292C4F6E50D2404F8E50D2404F9E667
:2064A00014F78F828E838DF0E50D2404F8E6128CD7E50D2414F8741F26FF74000836FE0833
:2064C00086058F828E838DF0A80D081292C4F6900F8EE50D2407F8E0F6A80D08E50D240785
:2064E000F9C3E79640030264F1A80D08900F8EE6F08F828E838DF0E50D2407F81292C4F6F7
:20650000E50D2407F8E675F00CA4A80D082418F6740F35F008F6A80D088682088683A3E578
:206520000D2417F8E0F6A3E008F6A3E008F6E50D240BF886820886830886F0E50D2417F96D
:20654000E7128CD7A309E7128CD7A309E7128CD7E50D2417F8A90D09740526F774000836A3
:2065600009F708E609F7A80D0886820886830886F0E50D240BF91292C4F7A31292C409F755
:20658000A31292C409F7E50D2411F886820886830886F0E50D240BF9E7128CD7A309E7121F
:2065A0008CD7A309E7128CD7A80D0886820886830886F0E50D2411F91292C4F7A31292C492
:2065C00009F7A31292C409F7E50D2411F8740226F674000836F6E50D2411F886820886831F
:2065E0000886F0EC128CD7A3EB128CD7A3EA128CD7A80D0886820886830886F0EC128CD702
:20660000A3EB128CD7A3EA128CD78F828E838DF01292C4FCEC75F00CA42418FC740F35F091
:20662000FB7A00E50D2408F886820886830886F0EC128CD7A3EB128CD7A3EA128CD78F82C1
:206640008E838DF01292C4FFEF75F00CA42418FF740F35F0FE8F828E83E0FD0D8F828E8332
:20666000EDF002676E900F67E50D2417F8E0F6A3E008F6A3E008F674022AFD74003BFE8C8D
:20668000078D828E838FF0E50D2417F8E6128CD7A308E6128CD7A308E6128CD7E50D2411A1
:2066A000F874052AF674003B08F608A604E50D2417F8A90D09740526F77400083609F708B6
:2066C000E609F7A80D0886820886830886F01292C4FDA31292C4FEA31292C4FFE50D2411E1
:2066E000F886820886830886F0ED128CD7A3EE128CD7A3EF128CD7A80D08868208868308BE
:2067000086F01292C4FDA31292C4FEA31292C4FF74022DFD74003EFE8D828E838FF0EA12A0
:206720008CD7A3EB128CD7A3EC128CD7A80D0886820886830886F0EA128CD7A3EB128CD739
:20674000A3EC128CD7E50D2404F886820886830886F07466128CD7A3740F128CD7A374008B
:20676000128CD7900F66E0FF0F900F66EFF0E50D2414F8741F26FD74000836FE0886078D23
:20678000828E838FF01292C4FD900F88E0FCA3E0FEA3E0FF741F2CFC74003EFE8C828E83F2
:2067A0008FF01292C4FCC3EC9D40030267B87F01900F92EFF00267BA7F008F82850D81D020
:2067C0000D22C00D85810DC082C083C0F0E5812415F581E50D24FCF8860308860443048074
:2067E000A80D0886820886830886F0EB128CD7A3EC128CD7A80D08740826FA74000836FBDB
:206800000886048A828B838CF01292C4FAA31292C4FBA31292C4FCE50D2413F8A60208A66A
:206820000308A604A80D08740B26FA74000836FB0886048A828B838CF0E50D2416F81292AA
:20684000C4F6A31292C408F6A31292C408F6A80D08E50D240AF9740226F77400083609F751
:2068600008E609F7E50D240AF886820886830886F01292C4FDA31292C4FEA31292C4FFE51E
:206880000D240DF874052DF674003E08F608A607A80D08E50D2404F9740526F774000836A9
:2068A00009F708E609F7E50D2404F886820886830886F01292C4FDA31292C4FEA31292C4C8
:2068C000FFE50D240DF886820886830886F0ED128CD7A3EE128CD7A3EF128CD7E50D24047E
:2068E000F886820886830886F01292C4FDA31292C4FEA31292C4FFE50D240DF874022DF6DD
:2069000074003E08F608A607E50D240AF886820886830886F01292C4FDA31292C4FEA31240
:2069200092C4FFE50D240DF886820886830886F0ED128CD7A3EE128CD7A3EF128CD7E50DEF
