:2000000002005F32FFFFFFFFFFFFFF32FFFFFFFFFFFFFF32FFFFFFFFFFFFFF32FFFFFFFFD0
:20002000FFFFFF020E37FFFFFFFFFF020C86020295E58124FCC3C8C0E0C082E608467006B7
:20004000E5824583601218E58296F58208E58396428208E5F0964582D082C8D0E0C8227546
:2000600081201293E7E582600302002E7928E94400601B7A019094C7787275A00CE493F236
:20008000A308B8000205A0D9F4DAF275A0FFE478FFF6D8FD7800E84400600A790175A000E6
:2000A000E4F309D8FC7871E8440C600C790D900001E4F0A3D8FCD9FA90000A7400F0A3F039
:2000C00090000CF0A3F090000EF0A3F0900010F0A3F0900C157400F0A3F0A3F002002EAFA3
:2000E000FF75FF0FE5FF75FFFF8FFFD2B322C00D85810DAF82C007124C4AD007E50D24FD88
:20010000F8E66003020186C374079F50030201E6EF240A83F582EF240C83F583E4732E390D
:20012000444F5A65707B0101010101010101D200A2B3A20092B30201E6D200A2B3A2009228
:20014000B30201E6D200A2B3A20092B30201E6D200A2B3A20092B30201E6D200A2B3A2004C
:2001600092B30201E6D200A2B3A20092B30201E6D200A2B3A20092B30201E6D200A2B3A29A
:200180000092B30201E6C374079F50030201E6EF240A83F582EF240C83F583E473ADB4BB74
:2001A000C2CDD4DBE20101010101010101A2B392B30201E6A2B392B30201E6A2B392B30275
:2001C00001E6C200A2B3A20092B30201E6A2B392B30201E6A2B392B30201E6A2B392B302AF
:2001E00001E6A2B392B3124C52D00D22AF827E007D00C007C006C005124C4AD005D006D02E
:2002000007C374079F5003020250EF240A83F582EF240C83F583E473282D32373C41464BFF
:2002200002020202020202027E020202527E080202527E200202527E010202527E040202AD
:20024000527E100202527E400202527E800202527D01BD0103020291A2B3E433FFEE5F7004
:20026000030202848E057F00EDF4FDEFF4FFA2B3E433FB7C00EB5205EC5207ED4F24FF92C6
:20028000B3020291A2B3E433FFEF4206EE24FF92B3124C52221203AD1200DF758201120F80
:2002A0004B75820212188D758200121DD974C8C0E07400C0E074C2C0E07401C0E07400C035
:2002C000E0758202121B56E58124FBF5817582021211A47400C0E0C0E0C0E0C0E074CDC012
:2002E000E074ABC0E07400C0E074BAC0E07400C0E074EBC0E07493C0E07480C0E0758292A6
:2003000075830712438FE58124F4F5817400C0E0C0E0C0E0C0E0C0E0C0E0C0E074BAC0E064
:200320007400C0E074F3C0E07493C0E07480C0E075824E75830412438FE58124F4F58174DA
:2003400000C0E0C0E0C0E0C0E0C0E0C0E0C0E074BAC0E07400C0E074F3C0E07493C0E07439
:2003600080C0E07582EA75830512438FE58124F4F5817400C0E0C0E0C0E07403C0E07400C8
:20038000C0E0C0E0C0E074BAC0E07400C0E074F8C0E07493C0E07480C0E07582C975830399
:2003A00012438FE58124F4F581124BDC222222C200A2F82000030203C0A2F892F80203C891
:2003C000D200A2F8A20092F8227F00900C72E060030203E4758288758313C007124BA6D086
:2003E000070203F17582FA758300C007124BA6D007C007121F53AE82D007BE01030204025A
:200400007F01C007121B30AE82D007BE01030204137F01C007121DC0AE82D007BE01030255
:2004200004247F01C007121820AE82D007BE01030204357F01BF01028003020443900C72E3
:200440007401F0C0071203AFD0070203CB22C00D85810DE581240CF581E50D2405F8762B43
:2004600008765208769A0876C4E50D2409F876DD08769A087612087645E50D2409F8E6C0C0
:20048000E008E6C0E008E6C0E008E6C0E0E50D2405F886820886830886F008E6128C91AC5F
:2004A00082AD83AEF0FFE58124FCF581A80D08A60408A60508A60608A607A80D08E6C0E02B
:2004C00008E6C0E008E6C0E008E6C0E07582CD7583E475F08A7444128BC3AF82E58124FC14
:2004E000F581EF6003020516749AC0E074E1C0E0748AC0E07444C0E0A80D088682088683A8
:200500000886F008E6128BC3AF82E58124FCF581EF700302052DC0E0C0A8C2AF900C727451
:2005200001F0D0E053E080E5E042A8D0E0E50D2409F8E6C0E008E6C0E008E6C0E008E6C0A1
:20054000E0E50D2405F886820886830886F008E6129010AC82AD83AEF0FFE58124FCF5817A
:20056000A80D08A60408A60508A60608A607A80D08E6C0E008E6C0E008E6C0E008E6C0E00B
:2005800075825C75838F75F00274BF128BC3AF82E58124FCF581EF60030205CA7414C0E00F
:2005A00074AEC0E07407C0E074BFC0E0A80D0886820886830886F008E6128BC3AF82E58152
:2005C00024FCF581EF7003020459C0E0C0A8C2AF900C727401F0D0E053E080E5E042A8D0F6
:2005E000E0020459850D81D00D22C00D85810DE581240CF581A80D0876450876D208764038
:200600000876C6E50D2405F8765C0876350876B7087646E50D2405F8E6C0E008E6C0E008D6
:20062000E6C0E008E6C0E0A80D0886820886830886F008E6128C91AC82AD83AEF0FFE581D4
:2006400024FCF581E50D2409F8A60408A60508A60608A607E50D2409F8E6C0E008E6C0E0FC
:2006600008E6C0E008E6C0E075829A75839875F02D7446128BC3AF82E58124FCF581EF6015
:20068000030206B47433C0E07498C0E0742DC0E07446C0E0E50D2409F8868208868308864F
:2006A000F008E6128BC3AF82E58124FCF581EF70030206CBC0E0C0A8C2AF900C727401F0AE
:2006C000D0E053E080E5E042A8D0E0E50D2405F8860408860508860608E6B2E7FFC004C08A
:2006E00005C006C007A80D0886820886830886F008E6129010AC82AD83AEF0FFE58124FCF3
:20070000F581E50D2409F8A60408A60508A60608A607E50D2409F8E6C0E008E6C0E008E66D
:20072000C0E008E6C0E07582147583AE75F007743F128BC3AF82E58124FCF581EF600302DA
:200740000772745CC0E0748FC0E07402C0E0743FC0E0E50D2409F886820886830886F008EE
:20076000E6128BC3AF82E58124FCF581EF70030205F5C0E0C0A8C2AF900C727401F0D0E00C
:2007800053E080E5E042A8D0E00205F5850D81D00D22740EB581030207B1C0E0C0A8C2AF4B
:2007A000900C727401F0D0E053E080E5E042A8D0E08500E0E5E070030207D2C0E0C0A8C2C2
:2007C000AF900C727401F0D0E053E080E5E042A8D0E08501E07401B5E0030207F4C0E0C065
:2007E000A8C2AF900C727401F0D0E053E080E5E042A8D0E08502E07402B5E003020816C056
:20080000E0C0A8C2AF900C727401F0D0E053E080E5E042A8D0E08503E07403B5E003020869
:2008200038C0E0C0A8C2AF900C727401F0D0E053E080E5E042A8D0E08504E07404B5E00359
:2008400002085AC0E0C0A8C2AF900C727401F0D0E053E080E5E042A8D0E08505E07405B5EE
:20086000E00302087CC0E0C0A8C2AF900C727401F0D0E053E080E5E042A8D0E08506E07482
:2008800006B5E00302089EC0E0C0A8C2AF900C727401F0D0E053E080E5E042A8D0E08507D8
:2008A000E07407B5E0030208C0C0E0C0A8C2AF900C727401F0D0E053E080E5E042A8D0E0CD
:2008C00074CDB582030208DFC0E0C0A8C2AF900C727401F0D0E053E080E5E042A8D0E07492
:2008E000ABB583030208FEC0E0C0A8C2AF900C727401F0D0E053E080E5E042A8D0E07401E7
:20090000B5F003020792C0E0C0A8C2AF900C727401F0D0E053E080E5E042A8D0E00207924B
:2009200022C00D85810DE581240EF581AD82AE83AFF0E50D240CF8A60508A60608A607A8D2
:200940000D0874012DF674003E08F608A607E50D24FCF886020886037C807F008A06A80DA2
:200960000886820886830886F0EE128BA8E50D2404F8A60308A60408A607087600A80D0848
:20098000740126FD74000836FE088607E50D2404F886028D828E838FF0EA128BA80DBD0048
:2009A000010E8D828E838FF074AA128BA80DBD00010E8D828E838FF07480128BA8E50D245F
:2009C00004F874012DF674003E08F608A607E50D24F9F886020886030886047F008A06E578
:2009E0000D2404F886820886830886F0EE128BA8E50D2408F8A60308A60408A6070876005C
:200A0000E50D2404F8740126FD74000836FE088607E50D2408F886028D828E838FF0EA12AE
:200A20008BA8E50D2408F808E618F60808E618F60808E618F60876000DBD00010EE50D24FC
:200A400008F886028D828E838FF0EA128BA80DBD00010E8D828E838FF07402128BA80DBD43
:200A600000010E8D828E838FF07403128BA80DBD00010E8D828E838FF07404128BA80DBD0D
:200A800000010E8D828E838FF07405128BA80DBD00010E8D828E838FF07406128BA80DBDE9
:200AA00000010E8D828E838FF07407128BA80DBD00010E8D828E838FF07400128BA80DBDCD
:200AC00000010E8D828E838FF07401128BA80DBD00010E8D828E838FF07400128BA80DBDB3
:200AE00000010E8D828E838FF074BB128BA8E50D240CF88602EDC39AFDE50D240CF88682C9
:200B00000886830886F0ED128BA8E50D240CF886820886830886F0850D81D00D22120DB67C
:200B200075FF00900C87E0FDA3E0FEA3E0FF8D828E838FF01290D3F509A31290D3F50A75A0
:200B40000B0D850982850A83E0F5080509E4B50902050A050BA90B850982850A83E0FFA751
:200B6000071508E5086003020B4B850B81D00DD0D0D001D000D007D006D005D004D003D081
:200B800002D0F0D083D082D0E020E705C2AF020B93D2AFD0E0327582012222C0E0C0A8C2B8
:200BA000AFC082C083C0F0C002C003C004C005C006C007C000C001C0D075D000C00D900CF7
:200BC00087E0FDA3E0FEA3E0FF8D828E838FF01290D3F509A31290D3F50A750B0EAF81EFD8
:200BE00024F3F508850982850A83E508F0E5087003020C0F0509E4B50902050A850982850F
:200C00000A83A90B8707EFF0050B1508020BED125B14900C87E0FDA3E0FEA3E0FF8D828EDE
:200C2000838FF01290D3F509A31290D3F50A750B0D850982850A83E0F5080509E4B50902EA
:200C4000050A050BA90B850982850A83E0FFA7071508E5086003020C3A850B81D00DD0D0CF
:200C6000D001D000D007D006D005D004D003D002D0F0D083D082D0E020E705C2AF020C82B6
:200C8000D2AFD0E03222C020C0E0C0F0C082C083C007C006C005C004C003C002C001C000FE
:200CA000C0D075D000C0E0C0A8C2AFC082C083C0F0C002C003C004C005C006C007C000C096
:200CC00001C0D075D000C00D900C87E0FDA3E0FEA3E0FF8D828E838FF01290D3F509A312A7
:200CE00090D3F50A750B0EAF81EF24F3F508850982850A83E508F0E5087003020D1905093C
:200D0000E4B50902050A850982850A83A90B8707EFF0050B1508020CF7125356E582700316
:200D2000020D26125B14900C87E0FDA3E0FEA3E0FF8D828E838FF01290D3F509A31290D3D0
:200D4000F50A750B0D850982850A83E0F5080509E4B50902050A050BA90B850982850A8361
:200D6000E0FFA7071508E5086003020D4E850B81D00DD0D0D001D000D007D006D005D00497
:200D8000D003D002D0F0D083D082D0E020E705C2AF020D96D2AFD0E032D0D0D000D001D003
:200DA00002D003D004D005D006D007D083D082D0F0D0E0D0203285FFFF22C00D85810DC08C
:200DC000E0C0A8C2AFAFFF750C01C0077400C0E004C0E0E50D24FDF88682122A00AC82AD81
:200DE00083AEF015811581D007900001ECF0EDA3F0EEA3F0C0077400C0E004C0E0E50D24CC
:200E0000FDF88682122A00AC82AD83AEF015811581D007900004ECF0EDA3F0EEA3F08FFF9B
:200E2000D0E053E080E5E042A8D0E075820075830075F000D00D22C020C0E0C0F0C082C06B
:200E400083C007C006C005C004C003C002C001C000C0D075D000C0E0C0A8C2AFD0E053E0C2
:200E600080E5E042A8D0E0D0D0D000D001D002D003D004D005D006D007D083D082D0F0D022
:200E8000E0D02032C00D85810DE50D24FBF88605088606088607900001E0FAA3E0FBA3E047
:200EA000FCE50D24F9F8E6C0E008E6C0E0C005C006C0078A828B838CF012314EAF82E5810B
:200EC00024FBF581EF7003020ED0758201020ED3758200D00D22C00D85810DC0E0C0A8C2C0
:200EE000AF7401B50C028003020EF3750C007F01020F3AE50D24FDFE8E077D007C409000CA
:200F000004E0FAA3E0FBA3E0FE7400C0E0E50D24FBF8E6C0E008E6C0E0C007C005C0048AE9
:200F2000828B838EF0122BABAE82E58124FAF5818E07EE6003020F3A7F01D0E053E080E598
:200F4000E042A8D0E08F82D00D2222C00D85810DC082E5812404F581E50D2405F87600E551
:200F60000D2405F8B60800400302104875820375830012261FAB82AC83ADF0A80D0808A63B
:200F80000308A60408A605A80D080886820886830886F0E50D2405F9E7128BA8A80D080888
:200FA000740126FA74000836FE088607E50D2405F886047D00C007C006C002C004C00575F0
:200FC000827D758300128BF3AC82AD8315811581D002D006D007747D2CFC74003DFD8A82AE
:200FE0008E838FF0EC128BA8A3ED128BA88A828E838FF0EC128BA8A3ED128BA8A80D0808F4
:2010000086030886040886057400C0E0C0E0C0E0A80D08E6C0E0C003C004C00574BAC0E071
:201020007400C0E07401C0E07494C0E07480C0E075824E75831012438FE58124F4F581E541
:201040000D2405F806020F5F850D81D00D22C00D85810D058105810581AD82AE83AFF075F4
:2010600082FE75839375F080C007C006C005121138D005D006D007A80D08A60508A606082D
:20108000A607A80D08740126FA74000836FB0886048A828B838CF01290D3FEA31290D3FFF2
:2010A000EFC313CE13CEFF8E828F83C004C003C002124BA6D002D003D004A80D0886820809
:2010C00086830886F01290D3FF8F82C004C003C0021201ECD002D003D0048A828B838CF0AD
:2010E0001290D3FAA31290D3FBEBC313CA13CAFB8A828B83124BA6A80D0886820886830810
:2011000086F01290D3FF8F821201EC021082850D81D00D227400C0E07403C0E075821412E7
:201120002A00AD82AE83AFF015811581900007EDF0EEA3F0EFA3F02222C00D85810DC0827D
:20114000C083058105810581E50D2403FD7C007B40900007E0FAA3E0FEA3E0FFA80D08E656
:20116000C0E008E6C0E0C005C004C0038A828E838FF012314EAF82E58124FBF581BF0102DA
:201180008003021195E50D2403F886820886830886F002119E75820075830075F000850DE5
:2011A00081D00D22C00D85810DC082E5812406F58175820875830012261FAC82AD83AEF03D
:2011C000A80D0808A60408A60508A606A80D0808E60846700302135C7403C0E07400C0E031
:2011E000758201122A00AA82AB83AFF015811581A80D080886820886830886F0EA128BA80B
:20120000A3EB128BA8A3EF128BA8A80D080886820886830886F01290D3FEA31290D3FDA39D
:201220001290D3FCEA4B70030212487400C0E0C0E0C0E0C0E0C0E0C0E08E828D838CF01257
:201240002BABE58124FAF581A80D080886820886830886F01290D3FAA31290D3FBA312909B
:20126000D3FFEA4B700302135CA80D0808740326FA74000836FB088607758204758300C032
:2012800007C003C00212261FAC82AD83AEF0D002D003D0078A828B838FF0EC128BA8A3ED99
:2012A000128BA8A3EE128BA88C828D838EF074FF128BA8A37400128BA8A3128BA8A3128B3B
:2012C000A8A80D0808740626FD74000836FE0886078D828E838FF07400128BA8A3128BA87F
:2012E000A80D08088604088605088606C0E0C0E0C0E0C0E0C004C005C00674BAC0E0740067
:20130000C0E07426C0E07494C0E07480C0E075822475831512438FE58124F4F581A80D08FA
:201320000886040886050886067400C0E0C0E0C0E0C0E0C004C005C00674BAC0E07400C0AF
:20134000E0742EC0E07494C0E07480C0E075822475831512438FE58124F4F58175820875BB
:20136000830012261FAD82AE83AFF0E50D2405F8A60508A60608A607E50D2405F8E6084626
:20138000700302151E7403C0E07400C0E0758201122A00AA82AB83ACF015811581E50D240E
:2013A00005F886820886830886F0EA128BA8A3EB128BA8A3EC128BA8E50D2405F8868208A0
:2013C00086830886F01290D3FFA31290D3FEA31290D3FDEA4B70030213F77400C0E0C0E07F
:2013E000C0E0C0E0C0E0C0E08F828E838DF0122BABE58124FAF581E50D2405F88682088643
:20140000830886F01290D3FAA31290D3FBA31290D3FCEA4B700302151EE50D2405F87403CE
:2014200026FA74000836FB088604758204758300C004C003C00212261FAD82AE83AFF0D0EB
:2014400002D003D0048A828B838CF0ED128BA8A3EE128BA8A3EF128BA88D828E838FF0745B
:20146000FF128BA8A3740F128BA8A37400128BA8A3128BA8E50D2405F8740626FD7400084D
:2014800036FE0886078D828E838FF07464128BA8A37400128BA8E50D2405F8860508860639
:2014A0000886077400C0E0C0E0C0E0A80D08E6C0E0C005C006C00774BAC0E07400C0E07458
:2014C00036C0E07494C0E07480C0E075822475831512438FE58124F4F581E50D2405F88661
:2014E000050886060886077400C0E0C0E0C0E0A80D08E6C0E0C005C006C00774BAC0E07493
:2015000000C0E0743EC0E07494C0E07480C0E075822475831512438FE58124F4F581850D0B
:2015200081D00D22C00D85810DE5812411F581AE82AC83ABF0E50D2404F87400F608F6C006
:20154000E0C0A8C2AF900C7BE0FAA3E0FFE50D240AF8A60208A607900C7BE0FAA3E0FD90E9
:201560000C7B74012AF074003DA3F0D0E053E080E5E042A8D0E075822375839475F080C004
:2015800006C004C003121138D003D004D006E50D240FF8A60608A60408A603E50D240FF89D
:2015A000740326FB74000836FE0886078B828E838FF0E50D240CF81290D3F6A31290D3080C
:2015C000F6A31290D308F6E50D240FF8A90D09740626F77400083609F708E609F7A80D082F
:2015E00086820886830886F01290D3FEA31290D3FFEE4F700302160BE50D2406F876FF0866
:20160000760F740008F608F602161AE50D2406F876FF740008F608F608F6A80D08868208DF
:2016200086830886F01290D3FEA31290D3FFE50D240FF886820886830886F01290D3FBA3D2
:201640001290D3FCA31290D3FDC006C0078B828C838DF0123412AF8215811581BF010280E7
:20166000030217F9E50D240CF886820886830886F01290D3FBA31290D3FDA31290D3FEA366
:201680001290D3FFE50D2406F8E6B5031208E6B5050D08E6B5060808E6B507030216B575BD
:2016A000822075839475F080121138E50D2404F876010876007B007E007D007F00E50D24AA
:2016C00006F8C3E69B08E69E08E69D08E69F500302171FE50D240CF886820886830886F0E8
:2016E000EB128BA8A3EE128BA8A3ED128BA8A3EF128BA8E50D240CF886820886830886F087
:201700001290D3A31290D3A31290D3A31290D30BBB00090EBE00050DBD00010F0216BDE5D8
:201720000D240FF886820886830886F01290D3FDA31290D3FEA31290D3FF7400C0E0C0E087
:20174000C0E0C0E0C0E0C0E08D828E838FF0122BABAF82E58124FAF581EF60030217757502
:20176000822075839475F080121138E50D2404F87601087600E50D2404F8E6084660030249
:2017800017C6E50D240AF88606088607C3EE9404EF6480948040030217C6E50D240AF8E6E3
:2017A00025E0FE08E633FFEE2473FEEF340CFF8E828F83E0FCA3E0FD0CBC00010D8E828F62
:2017C00083ECF0EDA3F0A80D0886820886830886F01290D3FEA31290D3FFC006C0077582C8
:2017E0000A758300128BF3AE82AF83158115818E828F83124BA602161AA80D08868208861F
:20180000830886F01290D3FEA31290D3FFEE4F600302161A120B9B02161A850D81D00D226F
:201820007F017E00EE75F002A4FCADF0EC240AF582ED3400F583E0FAA3E0FBEC2473F5829C
:20184000ED340CF583E0FCA3E0FDEAB50406EBB5050280030218597F00EE75F002A4FCAD20
:20186000F0EC240AFAED3400FBEC2473F582ED340CF583E0FCA3E0FD8A828B83ECF0EDA3C7
:20188000F00EBE040050030218248F8222AF82C0077400C0E07402C0E075820A122A00ACB9
:2018A00082AD83AEF015811581D007900012ECF0EDA3F0EEA3F0EC4D7003021933C0077421
:2018C00000C0E0C0E0C0E0C0077412C0E07400C0E07400C0E074BAC0E07400C0E0749DC060
:2018E000E07494C0E07480C0E075820875831A12438FE58124F4F581D0077400C0E0C0E058
:20190000C0E0C0077412C0E07400C0E07400C0E074BAC0E07400C0E074A5C0E07494C0E0CF
:201920007480C0E075823475831912438FE58124F4F58122C00D85810DC082C083C0F005C3
:201940008105810581E50D2404F87400F608F67C00E50D2406F87600C004E50D2404FA7C26
:20196000007F40A80D0886030886050886068B828D838EF01290D3FBA31290D3FDA31290D6
:20198000D3FEC0047400C0E0C0E0C0E0C002C004C0078B828D838EF0122BABAF82E58124D3
:2019A000FAF581D004BF0105D0040219B4D0047C010219DCEC60030219D1C0E0C0A8C2AF7F
:2019C000900C7EE004F0D0E053E080E5E042A8D0E0E50D2404F806B600020806E50D24065D
:2019E000F806E50D2406F8C3E6648094835003021958758203758300C004124BA6D00402DC
:201A00001951850D81D00D22C00D85810DC082C083C0F00581058105817B007C00E50D2496
:201A200004F87600C003C004A80D0886020886060886078A828E838FF01290D3FBA31290EE
:201A4000D3FCA31290D3FD8B828C838DF0C007C006C004C003C002123BBCE582D002D0031E
:201A6000D004D006D007D004D0037003021B16C003C004E50D2405FD8D037C007D408A8224
:201A80008E838FF01290D3FAA31290D3FEA31290D3FFC004C0037400C0E0C0E0C003C00458
:201AA000C0058A828E838FF012314EAF82E58124FBF581D003D004BF01028007D004D00371
:201AC000021A24D004D003E50D2405F8E6B5030808E6B50403021AECE50D2404F87601E546
:201AE0000D2405F88603088604021B0EE50D2404F8E66003021B0EC0E0C0A8C2AF900C7D5A
:201B0000E004F0D0E053E080E5E042A8D0E00BBB00010C021A247582EF7583FFC004C003B8
:201B2000124BA6D003D004021A24850D81D00D22900C7DE07003021B42900C7EE06003027F
:201B40001B477F00021B497F01900C7D7400F0900C7EF08F8222C00D85810DAF82E50D24DD
:201B6000F9F8900C82E6F0C0077418C0E0E50D24FAF886820886830886F008E6120DBA1512
:201B800081D0078F061EC0077400C0E0C0E0C0E0C006C0E0C0E0C0E074BAC0E07400C0E097
:201BA00074ADC0E07494C0E07480C0E07582F375831B12438FE58124F4F581D0077400C048
:201BC000E0C0E0C0E0C007C0E0C0E0C0E074BAC0E07400C0E074B3C0E07494C0E07480C039
:201BE000E075828E75831C12438FE58124F4F581D00D227F41900C7FE0FCA3E0FDA3E0FEDD
:201C0000C0077400C0E0C0E0C0078C828D838EF0120ED6AE82158115811581D007BE010266
:201C20008003021C33900C82E0FE8E82C0071201ECD0070FC374589F4003021BF5900C8277
:201C4000E0FF7400C0E08F821200EE15811252B9AE82AF8374032EFE74003FFF7496C0E06C
:201C60007400C0E08E828F831292C4AE82AF8315811581C3EE9432EF94004003021C837EDC
:201C8000327F008E828F83124BA6021BF322C00D85810DE5812405F5817F00A80D087600A5
:201CA0007B41C007E50D2405FCA80D0808A604087600087640900C7FE0FDA3E0FEA3E0FFE4
:201CC000C004C00374FFC0E0C0E0A80D0808E6C0E008E6C0E008E6C0E08D828E838FF012B2
:201CE0000E84AF82E58124FBF581D003D004EFD0077003021D23E50D2405F8E6B5030280D1
:201D000003021D1E900C82E0FE0E8E82C007C004C0031201ECD003D004D007021D237F01DC
:201D2000021D350BC3745864808BF063F08095F04003021CA2900C82E0FE0EC007C00474F2
:201D400000C0E08E821200EE1581D004D007BF01028003021DA38C06E50D2405F8B65803D5
:201D6000021D9A8E077C007B40C006900C7FE0FAA3E0FDA3E0FEC00674FFC0E0C0E0C007E2
:201D8000C004C0038A828D838EF0120E84E58124FBF581D006D006021D58A80D08067F001E
:201DA000021CA0A80D08C3E6648094824003021CA0900C83E004F0021CA0850D81D00D2241
:201DC000900C83E06003021DCE7F00021DD07F01900C837400F08F8222AF827D007E00EDF7
:201DE0002484FBEE340CFC7A00C007C006C0057400C0E0C0E0C0E0C007C003C004C0027472
:201E0000BAC0E07400C0E074B9C0E07494C0E07480C0E075824075831E12438FE58124F49C
:201E2000F581D005D006D0070DBD00010E8D038E04C3EB9401EC648094805003021DDF2215
:201E4000C00D85810DE5812407F581AD82AE83AFF07B007C00E50D2405F8A60508A606082B
:201E6000A607C003C004A80D08767B740008F608F608F6A80D08744726F674940836F674CE
:201E8000030836F674000836F6A80D08E6C0E008E6C0E008E6C0E008E6C0E07582FD75838A
:201EA000FF75F0FF74FF1290EFAA82AB83ACF0FFE58124FCF581A80D08A60208A60308A606
:201EC0000408A607C0037407C0E07400C0E0C0E0C0E0A80D0886820886830886F008E612C3
:201EE0008D33AC82AD83AEF0FFE58124FCF581D003A80D08A60408A60508A60608A607A82D
:201F00000D08B61B1308B6770F08B6FE0B08B6FF07D004D003021F20D004D0037B017C0072
:201F2000EB4C6003021E62C0E0C0A8C2AFE50D2405F886820886830886F07401128BA8D0D8
:201F4000E053E080E5E042A8D0E0021E62850D81D00D227F017D007E00ED2484FBEE340CC2
:201F6000FC8B828C83E06003021F6D7F00ED2484F582EE340CF5837400F00DBD00010E8D7D
:201F8000038E04C3EB9401EC648094805003021F598F8222C00D85810DC082C083C0F0056B
:201FA0008105810581A80D08740126FF74000836FB088602A80D08E50D2404F9740426F79B
:201FC0007400083609F708E609F7E50D2404F886040886050886068F828B838AF0EC128B7C
:201FE000A8A3ED128BA8A3EE128BA8E50D2404F886820886830886F074FF128BA8A3128BED
:20200000A8E50D2404F8740226FF74000836FD088604E50D2404F886020886030886068FDC
:20202000828D838CF0EA128BA8A3EB128BA8A3EE128BA8E50D2404F8740526FF7400083658
:20204000FD088604E50D2404F886020886030886068F828D838CF0EA128BA8A3EB128BA893
:20206000A3EE128BA8A80D0886820886830886F07400128BA8850D81D00D22AD82AE83AF5C
:20208000F0740B2DFD74003EFE8D828E838FF07400128BA8A3128BA8A3128BA822C00D855B
:2020A000810DC082C083C0F0E5812409F581A80D08740126FA74000836FB0886048A828B2C
:2020C000838CF0E50D240AF81290D3F6A31290D308F6A31290D308F6E50D24FBF8860208B9
:2020E000860308860474022AFD74003BFE8C078D828E838FF0E50D240AF8E6128BA8A3085B
:20210000E6128BA8A308E6128BA8E50D2404F874052AF674003B08F608A604E50D240AF89C
:20212000E50D2407F9740526F77400083609F708E609F7E50D2407F886820886830886F0A7
:202140001290D3FDA31290D3FEA31290D3FFE50D2404F886820886830886F0ED128BA8A362
:20216000EE128BA8A3EF128BA8E50D2407F886820886830886F01290D3FDA31290D3FEA37E
:202180001290D3FF74022DFD74003EFE8D828E838FF0EA128BA8A3EB128BA8A3EC128BA806
:2021A000E50D2407F886820886830886F0EA128BA8A3EB128BA8A3EC128BA8740B2AFA7486
:2021C000003BFB8A828B838CF0A80D08E6128BA8A308E6128BA8A308E6128BA8A80D08865C
:2021E000820886830886F01290D3FF0FA80D0886820886830886F0EF128BA8850D81D00DD3
:2022000022C00D85810DC082C083C0F0E581240BF581E50D24FBF886020886030886048A3E
:20222000828B838CF0E50D240AF81290D3F6A31290D308F6E50D240AF8B6FF0608B6FF0267
:202240008003022286C002C003C004A80D08740426FA74000836FB08860474052AFA740063
:202260003BFB8A828B838CF0E50D240CF81290D3F6A31290D308F6A31290D308F6D004D03D
:2022800003D002022310A80D08740426FD74000836FE088607E50D240CF8A60508A6060816
:2022A000A607C002C003C004E50D240CF8740226FD74000836FE0886078D828E838FF0127F
:2022C00090D3FAA31290D3FBA31290D3FC8A828B838CF01290D3FAA31290D3FBE50D240A42
:2022E000F8C3E69A08E69BD004D003D00250030223108D828E838FF0E50D240CF81290D3EB
:20230000F6A31290D308F6A31290D308F60222A2E50D2404F874022AF674003B08F608A6D2
:2023200004E50D240CF8E50D2407F9740226F77400083609F708E609F7E50D2407F8868219
:202340000886830886F01290D3FDA31290D3FEA31290D3FFE50D2404F88682088683088696
:20236000F0ED128BA8A3EE128BA8A3EF128BA874052DFD74003EFE8D828E838FF0EA128B15
:20238000A8A3EB128BA8A3EC128BA874052AFD74003BFE8C078D828E838FF0E50D240CF855
:2023A000E6128BA8A308E6128BA8A308E6128BA8E50D2407F886820886830886F0EA128B13
:2023C000A8A3EB128BA8A3EC128BA8740B2AFA74003BFB8A828B838CF0A80D08E6128BA8E3
:2023E000A308E6128BA8A308E6128BA8A80D0886820886830886F01290D3FF0FA80D088617
:20240000820886830886F0EF128BA8850D81D00D22C00D85810DE581240FF581C8E50D2498
:202420000AC8A68208A68308A6F0E50D240AF8740B26FA74000836FB0886048A828B838C37
:20244000F0E50D240DF81290D3F6A31290D308F6A31290D308F6E50D240AF8A90D0974028D
:2024600026F77400083609F708E609F7A80D0886820886830886F01290D3FDA31290D3FEC3
:20248000A31290D3FFE50D2404F874052DF674003E08F608A607E50D240AF8E50D2407F9E4
:2024A000740526F77400083609F708E609F7E50D2407F886820886830886F01290D3FDA325
:2024C0001290D3FEA31290D3FFE50D2404F886820886830886F0ED128BA8A3EE128BA8A31E
:2024E000EF128BA8E50D2407F886820886830886F01290D3FDA31290D3FEA31290D3FFE578
:202500000D2404F874022DF674003E08F608A607A80D0886820886830886F01290D3FDA327
:202520001290D3FEA31290D3FFE50D2404F886820886830886F0ED128BA8A3EE128BA8A3BD
:20254000EF128BA8E50D240DF8E50D2404F9740126F77400083609F708E609F7E50D2404CD
:20256000F886820886830886F01290D3FDA31290D3FEA31290D3FFE50D240AF8C005C0068A
:20258000C00786820886830886F0120031158115811581700280030225D0E50D2407F88651
:2025A000820886830886F01290D3FDA31290D3FEA31290D3FFE50D2404F886820886830838
:2025C00086F0ED128BA8A3EE128BA8A3EF128BA88A828B838CF07400128BA8A3128BA8A3CC
:2025E000128BA8E50D240DF886820886830886F01290D3FF1FE50D240DF886820886830815
:2026000086F0EF128BA8E50D240DF886820886830886F01290D3FF8F82850D81D00D22C007
:202620000D85810DC082C083058105810581E50D2403F87400F608F6087600124C4A900C28
:2026400015E0F5F0A3E045F060030226607A157D007E007F00900C15EAF0EDA3F0EEA3F068
:20266000A80D08E6084670030226C9900C85E0FEA3E0FFA80D08E62EFC08E63FFDC3EC944A
:20268000FFED940B40030226C9A80D08E62EFC08E63FFDC3EE9CEF9D40030226C9900C15C6
:2026A000E0FBA3E0FCA3E0FDEE2BFBEF3CFCE50D2403F8A60308A60408A605A80D08900C8D
:2026C00085E62EF008E63FA3F0124C52E50D2403F886820886830886F0850D81D00D222225
:2026E000900C857400F0A3F022900C85E0FEA3E0FF74FFC39EFE740B9FFF8E828F8322C02C
:202700000D85810DC082C083C0F0E581240AF581E50D240DF87601A80D08E6084670030262
:2027200029ECA80D08742526FA74000836FB0886048A828B838CF01290D3FFBF01005003B2
:202740000229ECC002C003C0048F037C00C002C003C0047582FF7583FF128B5CAB82AC8380
:2027600015811581D002A80D08E50D2404F9742626F77400083609F708E609F7E50D24041A
:20278000F886820886830886F01290D3FA7F00C3EB9AEC9FD004D003D00250030229ECC046
:2027A000E0C0A8C2AFA80D08E50D2407F9740626F77400083609F708E609F7A80D08868291
:2027C0000886830886F0E50D240AF91290D3F7A31290D309F7A31290D309F78A828B838C0F
:2027E000F01290D3FFE50D2404F886820886830886F01290D3FE8FF0EEA4C8E50D240AC898
:2028000026FD08E635F0FE088607E50D2407F886820886830886F0ED128BA8A3EE128BA83B
:20282000A3EF128BA8A80D08742426FD74000836FE0886078D828E838FF07400128BA8A804
:202840000D08E50D240AF9740326F77400083609F708E609F7A80D0886820886830886F0C2
:202860001290D3FDA31290D3FEA31290D3FFE50D240AF886820886830886F0ED128BA8A335
:20288000EE128BA8A3EF128BA8E50D2407F8E50D240AF9740326F77400083609F708E609C3
:2028A000F7A80D0886820886830886F01290D3FDA31290D3FEA31290D3FF8A828B838CF098
:2028C0001290D3FA7C00E50D2407F8EA24FFF6EC34FF08F6E50D2404F8868208868308861F
:2028E000F01290D3FB7C00C007C006C005C003C004E50D2407F88682088683128BF3AB8238
:20290000AC8315811581D005D006D007EB2DFDEC3EFEE50D240AF886820886830886F0ED01
:20292000128BA8A3EE128BA8A3EF128BA8A80D08742726FD74000836FE0886078D828E83C5
:202940008FF074FF128BA8A80D08742826FD74000836FE0886078D828E838FF074FF128BD0
:20296000A8E50D24FDF8E660030229AEA80D08740C26FD74000836FE0886078D828E838F2E
:20298000F01290D370030229DEA80D08740C26FD74000836FE0886078D828E838FF0125EA2
:2029A000C3E58270030229DE120B9B0229DEA80D08740C26FD74000836FE0886078D828E6E
:2029C000838FF0121F94A80D08741826FD74000836FE0886078D828E838FF0121F94D0E06B
:2029E00053E080E5E042A8D0E00229F3E50D240DF87600E50D240DF88682850D81D00D22E1
:202A0000C00D85810DC0827C007D007E00A80D08E67003022ADEC004C005C006A80D08866B
:202A2000027B00C006C005C004C002C0037582FF7583FF128B5CAA82AB8315811581D00405
:202A4000D005D006E50D24FDF886057E00C3EA9DEB9ED006D005D0045003022ADEA80D084B
:202A6000E50D24FDF986F0E7A4FAABF0C374D69A74FF9B5003022ADE74292AFA74003BFB37
:202A80008A828B8312261FAA82AB83AFF08A048B058F06EC4D7003022ADE8C028D038E07B0
:202AA00074292AFA74003BFBC006C005C004C004C005C006E50D24FCF8E6C0E0C002C003F8
:202AC000C007E50D24FDF8E6C0E0A80D088682122AE9E58124F8F581D004D005D0068C822F
:202AE0008D838EF01581D00D22C00D85810DC082E50D24FDF8E66003022B2CE50D24F6F8E0
:202B00008604088605088606E50D24F6F886020886030886078C828D838EF0EA128BA8A3E4
:202B2000EB128BA8A3EF128BA8022B5AE50D24F6F88604088605088606E50D24FAF88602C2
:202B40000886030886078C828D838EF0EA128BA8A3EB128BA8A3EF128BA8E50D24F6F88650
:202B60000508860608860774252DFA74003EFB8F048A828B838CF0A80D08E6128BA874260F
:202B80002DFA74003EFB8F048A828B838CF0E50D24FDF8E6128BA87401C0E08D828E838F3E
:202BA000F01226FF15811581D00D22C00D85810DE5812411F581AD82AB83ACF0E50D240EB5
:202BC000F87600E50D240BF8A60508A60308A604E50D24F8F8B60204740180027400FFE54F
:202BE0000D240FFEE50D240AF8A606E50D2404F874242DF674003B08F608A604A80D087476
:202C0000252DF674003B08F608A604C0E0C0A8C2AFE50D2404F886820886830886F0129049
:202C2000D3FDA80D0886820886830886F01290D3FCC3ED9C5003022C3FEF7003022CD1E5AD
:202C40000D24F8F8E6C0E0E50D24FBF8E6C0E008E6C0E008E6C0E0E50D240BF88682088673
:202C6000830886F0123C57AC82E58124FCF5818C07E50D240BF8741826FA74000836FB0877
:202C800086048A828B838CF01290D37003022CB7E50D240BF8741826FA74000836FB088647
:202CA000048A828B838CF0125EC3E5827003022CC0120B9B022CC0EF7003022CC0120B9BD1
:202CC000D0E053E080E5E042A8D0E0758201022EACE50D24F9F8E608466003022CEFD0E0F3
:202CE00053E080E5E042A8D0E0758200022EACE50D240EF8E66003022D188E027B007C407C
:202D00008A828B838CF0C007C006126CB5D006D007E50D240EF87601D0E053E080E5E042B3
:202D2000A8D0E0C007C006124C4AD006D007C0E0C0A8C2AFE50D240BF8742726FA74000890
:202D400036FB0886048A828B838CF01290D3FDBDFF028003022D628A828B838CF0740012BA
:202D60008BA8E50D240BF8742826FA74000836FB0886048A828B838CF01290D3FDBDFF0246
:202D80008003022D908A828B838CF07400128BA8C007D0E053E080E5E042A8D0E0E50D2403
:202DA000F9FCE50D2407F8A604087600087640E50D240AF886047D007F40C006E50D240762
:202DC000F8E6C0E008E6C0E008E6C0E08C828D838FF0126CE7AF82158115811581D006EF9F
:202DE000D0076003022E96E50D240BF886820886830886F0C007C006124300E582D006D034
:202E0000077003022E70E50D240BF8740C26FB74000836FC088605C007C006E50D24F9F809
:202E2000E6C0E008E6C0E08B828C838DF0125CA715811581D006D007E50D240BF8868208CE
:202E400086830886F0C007C00612410BD006D007C007C006124C52E582D006D0076003029D
:202E60002C0BC007C006120B9BD006D007022C0BE50D240BF886820886830886F0C007C0B9
:202E80000612410BD006D007C007C006124C52D006D007022C0BE50D240BF88682088683CC
:202EA0000886F012410B124C52758200850D81D00D22C00D85810D058105810581AA82AB34
:202EC00083ACF0A80D08A60208A60308A60474242AFD74003BFE8C078D828E838FF01290CB
:202EE000D3FD74252AFC74003BFE8C078C828E838FF01290D3FCC3ED9C5003022F0BE50D27
:202F000024F7F8B60202800302300AA80D08742826FD74000836FE0886078D828E838FF0C5
:202F20001290D3FFA80D08742426FC74000836FD0886068C828D838EF01290D3C007E50D99
:202F400024F7F8E6C0E0E50D24FBF8E6C0E008E6C0E008E6C0E0A80D0886820886830886C9
:202F6000F0123C57E58124FCF581D007BFFF028003022FD8A80D08741826FC74000836FD83
:202F80000886068C828D838EF01290D37003023005A80D08741826FC74000836FD08860634
:202FA0008C828D838EF0125EC3E5827003023005E50D24F8F8E608467003023005E50D2437
:202FC000F8F886040886050886068C828D838EF07401128BA8023005C0071252E4AE82D0B4
:202FE000078F05C3ED9E4003023005A80D08742826FC74000836FD0886060F8C828D838EF5
:20300000F0EF128BA87F0102300C7F008F82850D81D00D22C00D85810DE5812407F581C87D
:20302000E50D2404C8A68208A68308A6F0E50D2404F8742426FA74000836FB0886048A82A2
:203040008B838CF0E50D2407F81290D3F6E50D2404F8742526FD74000836FE0886078D8244
:203060008E838FF01290D3FDE50D2407F8C3E69D4003023144E50D2404F8A90D09742826A6
:20308000F77400083609F708E609F7A80D0886820886830886F01290D3FFE50D2407F8E6D6
:2030A00004FE8A828B838CF0EE128BA8BFFF02800302311CE50D2404F8741826FC74000877
:2030C00036FD0886068C828D838EF01290D3700302313FE50D2404F8741826FC74000836C1
:2030E000FD0886068C828D838EF0125EC3E582700302313FE50D24FBF8E608467003023141
:203100003FE50D24FBF886040886050886068C828D838EF07401128BA802313FC0071252C3
:20312000E4AE82D0078F05C3ED9E400302313F0FA80D0886820886830886F0EF128BA87FF7
:20314000010231467F008F82850D81D00D22C00D85810DE581240BF581AC82AD83AFF0E586
:203160000D2408F87600E50D2409F8A60408A60508A607E50D2405FEA80D08A606A80D0840
:203180000874242CF674003D08F608A607C0E0C0A8C2AFA80D080886820886830886F01222
:2031A00090D3FC8C05EC7003023247C005E50D24FBF8E6C0E008E6C0E008E6C0E0E50D24BF
:2031C00009F886820886830886F0123FB1158115811581D005E50D2409F8742426FB74007A
:2031E0000836FC088607ED14FA8B828C838FF0EA128BA8E50D2409F8740C26FB74000836D1
:20320000FC0886078B828C838FF01290D37003023236E50D2409F8740C26FB74000836FCCA
:203220000886078B828C838FF0125EC3E5827003023236120B9BD0E053E080E5E042A8D04D
:20324000E075820102340CE50D24F9F8E608466003023265D0E053E080E5E042A8D0E075E6
:20326000820002340CE50D2408F8E6600302328A8E037C007F408B828C838FF0C006126CC2
:20328000B5D006E50D2408F87601D0E053E080E5E042A8D0E0C006124C4AD006C0E0C0A808
:2032A000C2AFE50D2409F8742726FB74000836FC0886078B828C838FF01290D3FABAFF02C2
:2032C00080030232D08B828C838FF07400128BA8E50D2409F8742826FB74000836FC088603
:2032E000078B828C838FF01290D3FABAFF0280030232FE8B828C838FF07400128BA8C00633
:20330000D0E053E080E5E042A8D0E0E50D24F9FF7C007B40A80D0886027D007E40C006C0A0
:2033200007C004C0038A828D838EF0126CE7AF82158115811581D006D006EF60030233D307
:20334000E50D2409F886820886830886F0C0061242A3E582D00670030233B5E50D2409F851
:20336000741826FC74000836FD088607C006E50D24F9F8E6C0E008E6C0E08C828D838FF0DD
:20338000125CA715811581D006E50D2409F886820886830886F0C00612410BD006C0061296
:2033A0004C52E582D006600302318DC006120B9BD00602318DE50D2409F8868208868308C3
:2033C00086F0C00612410BD006C006124C52D00602318DE50D2409F886820886830886F0C3
:2033E000C00612410BD006C006124C52D006E50D2409F886820886830886F0C0061242A31C
:20340000E582D006700302318D758200850D81D00D22C00D85810DE581240BF581AC82AD6D
:2034200083AFF0E50D2408F87600E50D2409F8A60408A60508A607E50D2405FEA80D08A639
:2034400006A80D080874242CF674003D08F608A607C0E0C0A8C2AFA80D080886820886832C
:203460000886F01290D3FC8C07EC70030234D6EF14FCA80D080886820886830886F0EC1206
:203480008BA8E50D2409F8740C26FB74000836FC0886078B828C838FF01290D37003023445
:2034A000C5E50D2409F8740C26FB74000836FC0886078B828C838FF0125EC3E582700302A2
:2034C00034C5120B9BD0E053E080E5E042A8D0E075820102369BE50D24FCF8E6084660030D
:2034E0000234F4D0E053E080E5E042A8D0E075820002369BE50D2408F8E660030235198ED9
:20350000037C007F408B828C838FF0C006126CB5D006E50D2408F87601D0E053E080E5E04E
:2035200042A8D0E0C006124C4AD006C0E0C0A8C2AFE50D2409F8742726FB74000836FC08AB
:2035400086078B828C838FF01290D3FABAFF02800302355F8B828C838FF07400128BA8E5C7
:203560000D2409F8742826FB74000836FC0886078B828C838FF01290D3FABAFF02800302CF
:20358000358D8B828C838FF07400128BA8C006D0E053E080E5E042A8D0E0E50D24FCFF7C00
:2035A000007B40A80D0886027D007E40C006C007C004C0038A828D838EF0126CE7AF821577
:2035C0008115811581D006D006EF6003023662E50D2409F886820886830886F0C0061242DE
:2035E000A3E582D0067003023644E50D2409F8741826FC74000836FD088607C006E50D2417
:20360000FCF8E6C0E008E6C0E08C828D838FF0125CA715811581D006E50D2409F8868208C7
:2036200086830886F0C00612410BD006C006124C52E582D0066003023451C006120B9BD01E
:2036400006023451E50D2409F886820886830886F0C00612410BD006C006124C52D00602E7
:203660003451E50D2409F886820886830886F0C00612410BD006C006124C52D006E50D24BB
:2036800009F886820886830886F0C0061242A3E582D0067003023451758200850D81D00DB7
:2036A00022C00D85810DE581240DF581AD82AB83AFF07C00E50D2408F8A60508A60308A663
:2036C00007E50D240BFEA80D08A606A80D080874242DF674003B08F608A607C0E0C0A8C2AF
:2036E000AFA80D080886820886830886F01290D370030237D5E50D2408F8740626FA7400A5
:203700000836FB08860774032AFA74003BFB8A828B838FF01290D3FEA31290D3FDA3129030
:20372000D3FCC006C005C004E50D24FBF8E6C0E008E6C0E008E6C0E0E50D2408F88682089A
:2037400086830886F0123FB1158115811581D004D005D006E50D2408F8740626FA74000873
:2037600036FB08860774032AFA74003BFB8A828B838FF0EE128BA8A3ED128BA8A3EC128B71
:20378000A8E50D2408F8741826FA74000836FB0886078A828B838FF01290D370030237C4FF
:2037A000E50D2408F8741826FA74000836FB0886078A828B838FF0125EC3E5827003023726
:2037C000C4120B9BD0E053E080E5E042A8D0E07582010239D3E50D24F9F8E6084660030205
:2037E00037F3D0E053E080E5E042A8D0E07582000239D3EC600302380E8E027B007F408AED
:20380000828B838FF0C006126CB5D0067C01D0E053E080E5E042A8D0E0C006C004124C4A59
:20382000D004D006C0E0C0A8C2AFE50D2408F8742726FA74000836FB0886078A828B838FA9
:20384000F01290D3FDBDFF0280030238588A828B838FF07400128BA8E50D2408F874282609
:20386000FA74000836FB0886078A828B838FF01290D3FDBDFF0280030238868A828B838F57
:20388000F07400128BA8C004D0E053E080E5E042A8D0E0E50D24F9FFE50D2405F8A6070823
:2038A0007600087640A80D0886047D007F40C006C004E50D2405F8E6C0E008E6C0E008E6B2
:2038C000C0E08C828D838FF0126CE7AF82158115811581D004D006D004EF600302398EE5D5
:2038E0000D2408F886820886830886F0C006C0041242A3E582D004D0067003023968E50D66
:203900002408F8741826FB74000836FD088607C006C004E50D24F9F8E6C0E008E6C0E08B62
:20392000828D838FF0125CA715811581D004D006E50D2408F886820886830886F0C006C058
:203940000412410BD004D006C006C004124C52E582D004D00660030236DBC006C004120BF3
:203960009BD004D0060236DBE50D2408F886820886830886F0C006C00412410BD004D006B0
:20398000C006C004124C52D004D0060236DBE50D2408F886820886830886F0C006C00412E7
:2039A000410BD004D006C006C004124C52D004D006E50D2408F886820886830886F0C006BA
:2039C000C0041242A3E582D004D00670030236DB758200850D81D00D22C00D85810DC0826A
:2039E000C083C0F0A80D08742426FA74000836FB0886048A828B838CF01290D3FA8A04EAA3
:203A00007003023B02A80D08742726FA74000836FB0886078A828B838FF01290D3FFC00766
:203A2000C004E50D24FBF8E6C0E008E6C0E008E6C0E0A80D0886820886830886F0123FB1C1
:203A4000158115811581D004D007A80D08742426FB74000836FD0886061C8B828D838EF089
:203A6000EC128BA8BFFF028003023AD0A80D08740C26FC74000836FD0886068C828D838E78
:203A8000F01290D37003023AFDA80D08740C26FC74000836FD0886068C828D838EF0125E67
:203AA000C3E5827003023AFDE50D24F8F8E608467003023AFDE50D24F8F88604088605081F
:203AC00086068C828D838EF07401128BA8023AFDC0071252E4AE82D0078F05C3ED9E400390
:203AE000023AFDA80D08742726FC74000836FD0886060F8C828D838EF0EF128BA87F01026F
:203B00003B047F008F82850D81D00D22C00D85810DAD82AE83AFF074242DFA74003EFB8FEA
:203B2000048A828B838CF01290D37003023BB574062DFA74003EFB8F0474032AFA74003BE6
:203B4000FB8A828B838CF01290D3FAA31290D3FBA31290D3FCC007C006C005C004C003C0A5
:203B600002E50D24FBF8E6C0E008E6C0E008E6C0E08D828E838FF0123FB115811581158135
:203B8000D002D003D004D005D006D00774062DFD74003EFE74032DFD74003EFE8D828E8365
:203BA0008FF0EA128BA8A3EB128BA8A3EC128BA87F01023BB77F008F82D00D22AD82AE834D
:203BC000AFF0C0E0C0A8C2AF74242DFD74003EFE8D828E838FF01290D3FDD0E053E080E502
:203BE000E042A8D0E08D8222AD82AE83AFF0C0E0C0A8C2AF74252DFA74003EFB8F048A8296
:203C00008B838CF01290D3FA74242DFD74003EFE8D828E838FF01290D3FDEAC39DFAD0E034
:203C200053E080E5E042A8D0E08A8222AD82AE83AFF074242DFD74003EFE8D828E838FF034
:203C40001290D3FD8D8222AD82AE83AFF08D828E838FF01226DF22C00D85810DC082C08385
:203C6000C0F0E581240AF581A80D08742426FA74000836FB0886048A828B838CF0E50D242A
:203C80000DF81290D3F6A80D08E50D2407F9742626F77400083609F708E609F7E50D24076D
:203CA000F886820886830886F01290D3FEEE7003023F96E50D24FAF8E66003023E13C00264
:203CC000C003C0048E047D00A80D08E50D240AF9740326F77400083609F708E609F7E50D52
:203CE000240AF886820886830886F01290D3FAA31290D3FBA31290D3FFC004C003C002C065
:203D000004C005E50D24FBF8E6C0E008E6C0E008E6C0E08A828B838FF0128EBAE58124FBB7
:203D2000F581D002D003D004E50D240AF886820886830886F01290D3FCA31290D3FDA312AA
:203D400090D3FFE50D2407F886820886830886F01290D3FBE50D2404F8EB2CF674003D080D
:203D6000F608A607E50D240AF886820886830886F0E50D2404F9E7128BA8A309E7128BA8D2
:203D8000A309E7128BA8A80D08740626FA74000836FB0886078A828B838FF01290D3FAA307
:203DA0001290D3FBA31290D3FFE50D2404F8C002C003C00786820886830886F0120031152F
:203DC0008115811581D004D003D0025003023F96C002C003C004A80D0886820886830886E6
:203DE000F01290D3FCA31290D3FDA31290D3FFE50D240AF886820886830886F0EC128BA856
:203E0000A3ED128BA8A3EF128BA8D004D003D002023F96C002C003C0047F00A80D08E50D2F
:203E20002404F9740626F77400083609F708E609F7E50D2404F8E50D240AF9740326F774F7
:203E400000083609F708E609F7E50D240AF886820886830886F01290D3FBA31290D3FCA360
:203E60001290D3FDC004C003C002C006C007E50D24FBF8E6C0E008E6C0E008E6C0E08B8242
:203E80008C838DF0128EBAE58124FBF581D002D003D004E50D240AF886820886830886F019
:203EA0001290D3FDA31290D3FEA31290D3FFE50D2407F886820886830886F01290D3FC7BCB
:203EC00000EDC39CFDEE9BFEE50D240AF886820886830886F0ED128BA8A3EE128BA8A3EFC9
:203EE000128BA8A80D0886820886830886F01290D3FAA31290D3FBA31290D3FCC002C0030E
:203F0000C0048D828E838FF0120031158115811581D004D003D0024003023F78C002C0033F
:203F2000C004E50D2404F886820886830886F01290D3FDA31290D3FEA31290D3FFE50D245F
:203F400007F886820886830886F01290D3FC7B00EDC39CFDEE9BFEE50D240AF88682088661
:203F6000830886F0ED128BA8A3EE128BA8A3EF128BA8D004D003D002E50D24FAF8B6020226
:203F80008003023F96E50D240DF8E67003023F96E50D240DF816E50D240DF8E604FF8A823B
:203FA0008B838CF0EF128BA8758200850D81D00D22C00D85810DE5812407F581C8E50D2475
:203FC00005C8A68208A68308A6F0E50D2405F8742626FA74000836FB0886048A828B838C6B
:203FE000F0A80D081290D3F6A80D08E67003024105C002C003C004E50D2405F8740626FA55
:2040000074000836FB088604A80D080874032AF674003B08F608A604A80D0808868208864B
:20402000830886F01290D3FDA31290D3FEA31290D3FFA80D08E62DFD74003EFEA80D08089E
:2040400086820886830886F0ED128BA8A3EE128BA8A3EF128BA88A828B838CF01290D3FAE5
:20406000A31290D3FBA31290D3FCC002C003C0048D828E838FF0120031158115811581D05C
:2040800004D003D00250030240BFE50D2405F886820886830886F01290D3FDA31290D3FEF1
:2040A000A31290D3FFA80D080886820886830886F0ED128BA8A3EE128BA8A3EF128BA88A24
:2040C000828B838CF01290D3FA7F00A80D080886820886830886F01290D3FCA31290D3FD04
:2040E000A31290D3FEC002C007C004C005C006E50D24FBF886820886830886F0128EBAE5F3
:204100008124FBF581850D81D00D22C00D85810DC082C083C0F0E5812404F581C0E0C0A856
:20412000C2AFA80D08742826FA74000836FB0886048A828B838CF0E50D2404F81290D3F643
:20414000A80D08E50D2405F9741826F77400083609F708E609F7E50D2404F8C37400648018
:2041600086F063F08095F040030241C4E50D2405F886820886830886F01290D37003024152
:20418000C4A80D08741826FD74000836FE0886078D828E838FF0C004C003C002125EC3E5AA
:2041A00082D002D003D00470030241BBC004C003C002126E15D002D003D004E50D2404F82A
:2041C000160241568A828B838CF074FF128BA8D0E053E080E5E042A8D0E0C0E0C0A8C2AFA7
:2041E000A80D08742726FD74000836FE0886078D828E838FF01290D3FCA80D08E50D240517
:20420000F9740C26F77400083609F708E609F7C3740064808CF063F08095F040030242876B
:20422000E50D2405F886820886830886F01290D37003024287C005C006C007A80D08740C92
:2042400026FA74000836FB0886078A828B838FF0C007C006C005C004125EC3E582D004D00F
:2042600005D006D007D007D006D0057003024283C007C006C005C004126E15D004D005D0AC
:2042800006D0071C02420F8D828E838FF074FF128BA8D0E053E080E5E042A8D0E0850D81A6
:2042A000D00D22AD82AE83AFF0C0E0C0A8C2AF74242DFD74003EFE8D828E838FF01290D301
:2042C00060030242CA7F010242CC7F00D0E053E080E5E042A8D0E08F8222AD82AE83AFF06A
:2042E00074242DFD74003EFE8D828E838FF01290D360030242FB7F010242FD7F008F822223
:20430000AD82AE83AFF0C0E0C0A8C2AF74242DFA74003EFB8F048A828B838CF01290D3FA21
:2043200074252DFD74003EFE8D828E838FF01290D3FDEAB5050280030243407F0102434244
:204340007F00D0E053E080E5E042A8D0E08F8222AD82AE83AFF074242DFA74003EFB8F04EB
:204360008A828B838CF01290D3FA74252DFD74003EFE8D828E838FF01290D3FDEAB505020E
:20438000800302438A7F0102438C7F008F8222C00D85810D058105810581AE82AF837582FD
:2043A00033758300C007C00612261FAB82AC83ADF0D006D007A80D08A60308A60408A6057D
:2043C000A80D08E608467003024473C006C007A80D088602088606088607C007C006743391
:2043E000C0E07400C0E0C0E08A828E838FF0128F4D158115811581D006D007A80D0874201F
:2044000026FA74000836FE088607E50D24F9F886040886058C828D83C007C006C00212266E
:204420001FAB82AC83ADF0D002D006D0078A828E838FF0EB128BA8A3EC128BA8A3ED128B18
:20444000A8D007D006EB4C6003024473A80D0886030886040886058B828C838DF0C007C029
:20446000061226DFD006D007A80D087400F608F6087600A80D08E608467003024502E50D30
:2044800024F9F886020886037C007D007400C0E0C0E0C0E0A80D08E6C0E008E6C0E008E6E2
:2044A000C0E0E50D24F2F8E6C0E008E6C0E008E6C0E0E50D24F5F8E6C0E0E50D24F6F8E647
:2044C000C0E008E6C0E008E6C0E0C002C003C004C005E50D24FBF8E6C0E008E6C0E008E607
:2044E000C0E08E828F8312450CE58124ECF581A80D0886820886830886F01247EE7F01028E
:2045000045047FFF8F82850D81D00D22C00D85810DC082C083E581240CF581E50D24EDF845
:20452000E50D2406F9E6F708E609F708E609F7E50D2406F8742026FA74000836FE088607A0
:204540008A828E838FF0E50D240CF81290D3F6A31290D308F6A31290D308F6E50D240CF8F4
:20456000E50D2403F9E6F708E609F708E609F7E50D2406F8E50D2409F9742B26F77400080C
:204580003609F708E609F7E50D24F7F8E624FFFA08E634FFFE08E634FFFD08E634FFFFE5AD
:2045A0000D240CF8EA26FAEE0836FE088605E50D2409F886820886830886F0EA128BA8A37F
:2045C000EE128BA8A3ED128BA8E50D24FBF8E608467003024663E50D2406F8742326FD7436
:2045E000000836FE0886077B00E50D2409F8EB2DF674003E08F608A607C005C006C007E5AE
:204600000D24FBF8EB26FD74000836FE0886078D828E838FF01290D3FCE50D2409F88682F4
:204620000886830886F0EC128BA88D828E838FF01290D3D007D006D00570030246470BBB5C
:20464000080050030245E9E50D2406F8742A26FD74000836FE0886078D828E838FF07400A2
:20466000128BA8E50D24F3F8B604005003024677E50D24F3F87603E50D2406F8741F26FDE4
:2046800074000836FE0886078D828E838FF0E50D24F3F8E6128BA8E50D2406F8740326FD5C
:2046A00074000836FE0886078D828E838FF012207BE50D2406F8741126FD74000836FE08F5
:2046C00086078D828E838FF012207BE50D2406F8740B26FD74000836FE088607E50D24ED03
:2046E000F886020886030886048D828E838FF0EA128BA8A3EB128BA8A3EC128BA8E50D248C
:2047000006F8E50D2409F9741126F77400083609F708E609F7E50D24F3F886077E007404BD
:20472000C39FFF74009EFEE50D2409F886820886830886F0EF128BA8A3EE128BA8E50D243A
:2047400006F8741926FD74000836FE0886078D828E838FF0EA128BA8A3EB128BA8A3EC1224
:204760008BA8E50D24F4F8E6C0E008E6C0E008E6C0E0A80D08E6C0E008E6C0E0E50D240378
:20478000F886820886830886F0120921AF82AE83ADF0E58124FBF581E50D2406F886820830
:2047A00086830886F0EF128BA8A3EE128BA8A3ED128BA8E50D24F0F8E6084670030247E8BD
:2047C000E50D24F0F886050886060886078D828E838FF0E50D2406F8E6128BA8A308E612A6
:2047E0008BA8A308E6128BA8850D81D00D22C00D85810DC082C083C0F0E581240CF581C0BD
:20480000E0C0A8C2AF900C8AE004F0900C87E0FAA3E0FBA3E0FCEA4B6003024840A80D080C
:20482000900C87E6F008E6A3F008E6A3F0900C8AE0FCBC01028003024897126E34024897C3
:20484000900C8EE06003024897900C87E0FAA3E0FBA3E0FC741F2AFA74003BFB8A828B8395
:204860008CF01290D3FAA80D08741F26FB74000836FC0886078B828C838FF01290D3FBC3CB
:20488000EB9A5003024897A80D08900C87E6F008E6A3F008E6A3F0900C93E02401F0A80DCE
:2048A00008741F26FD74000836FE0886078D828E838FF01290D3FC900C8DE0FBC3EB9C4057
:2048C000030248C9900C8DECF08D828E838FF01290D3FCEC75F00CA42418FB740C35F0FCD4
:2048E0008B828C83A3E50D240DF8E0F6A3E008F6A3E008F6A80D08E50D2407F9740326F79F
:204900007400083609F708E609F7E50D2407F8740226FA74000836FB0886048A828B838C67
:20492000F0E50D240DF8E6128BA8A308E6128BA8A308E6128BA8E50D2407F8E50D2404F96D
:20494000740526F77400083609F708E609F7E50D240DF8E50D240AF9740526F774000836A5
:2049600009F708E609F7E50D240AF886820886830886F01290D3FAA31290D3FBA31290D300
:20498000FCE50D2404F886820886830886F0EA128BA8A3EB128BA8A3EC128BA8E50D240A7C
:2049A000F886820886830886F01290D3FAA31290D3FBA31290D3FC74022AFA74003BFB8A04
:2049C000828B838CF0E50D2407F8E6128BA8A308E6128BA8A308E6128BA8E50D240AF88641
:2049E000820886830886F0E50D2407F9E7128BA8A309E7128BA8A309E7128BA8E50D240797
:204A0000F8E50D240AF9740B26F77400083609F708E609F78D828E838FF01290D3FCEC75D8
:204A2000F00CA42418FC740C35F0FB8C027C00E50D240AF886820886830886F0EA128BA816
:204A4000A3EB128BA8A3EC128BA88D828E838FF01290D3FCEC75F00CA42418FB740C35F0C2
:204A6000FC8B828C83E0FA0A8B828C83EAF0D0E053E080E5E042A8D0E0900C8EE070030203
:204A80004AB4900C87E0FAA3E0FBA3E0FC741F2AFA74003BFB8A828B838CF01290D3FA8D2B
:204AA000828E838FF01290D3FDC3EA9D4003024AB4120B9B850D81D00D22C00D85810DC07B
:204AC00082C083C0F0058105817E00C006124C4AD006900C8BE0FAA3E0FBE50D2404F8A65C
:204AE0000208A603A80D0886820886830886F01290D3FBA31290D3FCE50D24FCF8E62BFD13
:204B000008E63CFF8D02E50D2404F8C3E69B08E69C4003024B35C3EA9BEF9C4003024B5184
:204B2000E50D2404F8C3E69A08E69F4003024B517E01024B51C3EA9BEF9C5003024B4FE5EE
:204B40000D2404F8C3E69A08E69F4003024B517E01A80D0886820886830886F0EA128BA875
:204B6000A3EF128BA8EE7003024B89E50D2404F8EAC396FAEF0896FFC0067400C0E08A8266
:204B80008F83128A301581D006C006124C52E582D0066003024B9EC006120B9BD0068E8266
:204BA000850D81D00D22AE82AF837D00EE4F7003024BD2C007C006124C4AD006D0077400DF
:204BC000C0E08E828F83128A301581124C52AF828F05ED6003024BDB120B9B227496C0E040
:204BE000740CC0E07400C0E0C0E0C0E0C0E0C0E074BAC0E07400C0E074C2C0E07494C0E0A1
:204C00007480C0E075821C75836E12438FAF82E58124F4F581BF01028003024C38C2AF90B2
:204C20000C9474FFF0A3F0900C8E7401F0900C8B7400F0A3F0120B1D9094C1E49322C2AF08
:204C4000900C8E7400F0120B9A22900C99E02401F022C00D85810DE5812416F581E50D2495
:204C600010F87400F608F6087600E50D2413F87600C0E0C0A8C2AF900C99E014F0E06003DA
:204C80000252A1900C8AE070030252A1900C66E0700302523B900C6CE0FAA3E0FBA3E0FCEE
:204CA00074082AFA74003BFB8A828B838CF01290D3FAA31290D3FBA31290D3FCE50D241058
:204CC000F8A60208A60308A604E50D2410F8E50D2407F9741126F77400083609F708E60952
:204CE000F7E50D2410F8741C26FA74000836FB0886048A828B838CF0E50D2414F81290D383
:204D0000F6A31290D308F6A31290D308F6E50D2410F8741326FA74000836FB0886048A8261
:204D20008B838CF01290D3FDA31290D3FEA31290D3FFE50D240AF874052DF674003E08F6E6
:204D400008A607E50D2410F8E50D240DF9741626F77400083609F708E609F7E50D240DF802
:204D600086820886830886F01290D3FDA31290D3FEA31290D3FFE50D240AF88682088683CC
:204D80000886F0ED128BA8A3EE128BA8A3EF128BA8E50D240DF886820886830886F0129062
:204DA000D3FDA31290D3FEA31290D3FF74022DFD74003EFE8A828B838CF01290D3FAA312EC
:204DC00090D3FBA31290D3FC8D828E838FF0EA128BA8A3EB128BA8A3EC128BA8E50D2414C2
:204DE000F8740126FC74000836FB0886028C828B838AF01290D3FDA31290D3FEA31290D3B1
:204E0000FFE50D2407F8C005C006C00786820886830886F01200311581158115817002809E
:204E200003024E53E50D240DF886820886830886F01290D3FDA31290D3FEA31290D3FF8CEF
:204E4000828B838AF0ED128BA8A3EE128BA8A3EF128BA8E50D2407F8740B26FD7400083600
:204E6000FE0886078D828E838FF07400128BA8A3128BA8A3128BA8E50D2414F886820886BF
:204E8000830886F01290D3FF1FE50D2414F886820886830886F0EF128BA8E50D2410F874FF
:204EA0000326FD74000836FE088607E50D240AF8740B2DF674003E08F608A607E50D240A48
:204EC000F886820886830886F0E50D2414F91290D3F7A31290D309F7A31290D309F7E50D92
:204EE000240DF874022DF674003E08F608A607E50D240DF886820886830886F01290D3FA6A
:204F0000A31290D3FBA31290D3FCA80D0874052AF674003B08F608A604E50D2407F8740527
:204F20002DF674003E08F608A607E50D2407F886820886830886F01290D3FAA31290D3FBBB
:204F4000A31290D3FCA80D0886820886830886F0EA128BA8A3EB128BA8A3EC128BA8E50D21
:204F60002407F886820886830886F01290D3FAA31290D3FBA31290D3FCA80D0874022AF68E
:204F800074003B08F608A604E50D240DF886820886830886F01290D3FAA31290D3FBA312C9
:204FA00090D3FCA80D0886820886830886F0EA128BA8A3EB128BA8A3EC128BA8E50D24143E
:204FC000F8A90D09740126F77400083609F708E609F7A80D0886820886830886F01290D31F
:204FE000FAA31290D3FBA31290D3FCC005C006C0078A828B838CF0120031158115811581A3
:205000007002800302503BE50D2407F886820886830886F01290D3FAA31290D3FBA312909B
:20502000D3FCA80D0886820886830886F0EA128BA8A3EB128BA8A3EC128BA8C005C006C02C
:2050400007E50D240AF886820886830886F07400128BA8A3128BA8A3128BA8E50D2414F8EF
:2050600086820886830886F01290D3FC1CE50D2414F886820886830886F0EC128BA8E50D30
:205080002410F8E50D2404F9741F26F77400083609F708E609F7E50D2404F8868208868356
:2050A0000886F01290D3FC900C8DE0FFC3EF9CD007D006D00540030250BF900C8DECF0E5EB
:2050C0000D2404F886820886830886F01290D3FCEC75F00CA42418FB740C35F0FC8B828C29
:2050E00083A3E0FAA3E0FBA3E0FCE50D240DF886820886830886F0EA128BA8A3EB128BA8FF
:20510000A3EC128BA8A80D0874052AF674003B08F608A604A80D0886820886830886F012A0
:2051200090D3FAA31290D3FBA31290D3FCE50D2407F886820886830886F0EA128BA8A3EB82
:20514000128BA8A3EC128BA8A80D0886820886830886F01290D3FAA31290D3FBA31290D348
:20516000FC74022AFA74003BFB8A828B838CF0ED128BA8A3EE128BA8A3EF128BA8A80D08BD
:2051800086820886830886F0ED128BA8A3EE128BA8A3EF128BA8E50D2404F886820886836E
:2051A0000886F01290D3FFEF75F00CA42418FE740C35F0FF7D00E50D240AF886820886836D
:2051C0000886F0EE128BA8A3EF128BA8A3ED128BA8E50D2404F886820886830886F0129027
:2051E000D3FFEF75F00CA42418FE740C35F0FF8E828F83E0FD0D8E828F83EDF0E50D2404D6
:20520000F886820886830886F01290D3FF900C87E0FCA3E0FDA3E0FE741F2CFC74003DFD22
:205220008C828D838EF01290D3FCC3EF9C5003024C8C900C917401F0024C8CE50D2410F85C
:20524000E60846700302524B126E9D900C8FE0FEA3E0FF8E048F05EE4F700302528E8C0616
:205260008D07C007C006125356E582D006D007700302527A900C917401F01EBEFF011FEE82
:205280004F6003025262900C8F7400F0A3F0900C91E070030252A1E50D2413F87601120B5A
:2052A0009BD0E053E080E5E042A8D0E0E50D2413F88682850D81D00D22C0E0C0A8C2AF904D
:2052C0000C8BE0FEA3E0FFD0E053E080E5E042A8D0E08E828F8322900C8BE0FEA3E0FF8EBC
:2052E000828F8322900C8AE0FF8F8222AD82AE83AFF0ED4E6003025307900C87E0FAA3E047
:20530000FBA3E0FC02530D8D028E038F0474232AFA74003BFB8A828B838CF022AE82AF837F
:20532000C007C006124C4AD006D007C0E0C0A8C2AF900C8FE0FCA3E0FD900C8FEE2CF0EF67
:205340003DA3F0D0E053E080E5E042A8D0E0124C52AF828F8222C00D85810DE5812418F530
:2053600081E50D2413F87600900C99E06003025AFB900C8BE0FDA3E0FEE50D2414F874012A
:205380002DF674003E08F6E50D2414F8900C8BE6F008E6A3F0E50D2414F8E60846600302DF
:2053A00053DB900C60E0FAA3E0FBA3E0FC8B058C06900C63E0FBA3E0FCA3E0FF900C60EB08
:2053C000F0ECA3F0EFA3F0900C63EAF0EDA3F0EEA3F0900C92E004F0126E9D900C94E0FBD8
:2053E000A3E0FCE50D2414F8C3E69B08E69C5003025AAA900C60E0FAA3E0FBA3E0FC8A8206
:205400008B838CF01290D36003025417900C9474FFF0A3F0025AAA900C60E0FAA3E0FBA39A
:20542000E0FC74042AFA74003BFB74022AFA74003BFB8A828B838CF01290D3FAA31290D3E9
:20544000FBA31290D3FC74082AFA74003BFB8A828B838CF01290D3FAA31290D3FBA3129096
:20546000D3FCE50D2410F8A60208A60308A604E50D2410F8740326FD74000836FE08860737
:205480008D828E838FF01290D3FFA31290D3FEE50D2414F8C3E69F08E69E40030254AA901A
:2054A0000C94EFF0EEA3F0025AAAE50D2410F8740326FD74000836FE088607E50D2410F8CB
:2054C000740E26FA74000836FB0886048A828B838CF0E50D2416F81290D3F6A31290D308A6
:2054E000F6A31290D308F6E50D2410F8A90D09740526F77400083609F708E609F7A80D08D0
:2055000086820886830886F01290D3FAA31290D3FBA31290D3FCE50D2407F874052AF6743C
:20552000003B08F608A604E50D2410F8E50D2404F9740826F77400083609F708E609F7E531
:205540000D2404F886820886830886F01290D3FAA31290D3FBA31290D3FCE50D2407F88656
:20556000820886830886F0EA128BA8A3EB128BA8A3EC128BA8E50D2404F886820886830811
:2055800086F01290D3FAA31290D3FBA31290D3FCE50D2407F874022AF674003B08F608A6F9
:2055A00004A80D0886820886830886F01290D3FAA31290D3FBA31290D3FCE50D2407F88662
:2055C000820886830886F0EA128BA8A3EB128BA8A3EC128BA8E50D2416F8E50D2407F97436
:2055E0000126F77400083609F708E609F7E50D2407F886820886830886F01290D3FAA3121D
:2056000090D3FBA31290D3FCC005C006C0078A828B838CF012003115811581158170028039
:205620000302565AE50D2404F886820886830886F01290D3FAA31290D3FBA31290D3FCE591
:205640000D2407F886820886830886F0EA128BA8A3EB128BA8A3EC128BA8E50D240DF8741E
:205660000B2DF674003E08F608A607E50D240DF886820886830886F07400128BA8A3128BEC
:20568000A8A3128BA8C005C006C007E50D2416F886820886830886F01290D3FF1FE50D24C4
:2056A00016F886820886830886F0EF128BA8E50D2410F8E50D2407F9741126F77400083689
:2056C00009F708E609F7E50D2407F8E50D2404F9740B26F77400083609F708E609F7E50D86
:2056E0002404F886820886830886F01290D3FAA31290D3FBA31290D3FCD007D006D005EAF1
:205700004B70030258B5C005C006C007E50D2416F8A60208A60308A604E50D2407F87402B0
:2057200026FD74000836FE0886078D828E838FF01290D3FAA31290D3FBA31290D3FCE50DDA
:20574000240AF874052AF674003B08F608A604E50D2407F8A90D09740526F7740008360906
:20576000F708E609F7A80D0886820886830886F01290D3FAA31290D3FBA31290D3FCE50D68
:20578000240AF886820886830886F0EA128BA8A3EB128BA8A3EC128BA8A80D088682088623
:2057A000830886F01290D3FAA31290D3FBA31290D3FC74022AFA74003BFB8D828E838FF06F
:2057C0001290D3FDA31290D3FEA31290D3FF8A828B838CF0ED128BA8A3EE128BA8A3EF12E8
:2057E0008BA8E50D2416F8E50D240AF9740126F77400083609F708E609F7E50D240AF88669
:20580000820886830886F01290D3FDA31290D3FEA31290D3FFE50D2407F8C005C006C00771
:2058200086820886830886F012003115811581158170028009D007D006D005025878D007A6
:20584000D006D005A80D0886820886830886F01290D3FAA31290D3FBA31290D3FCE50D249D
:205860000AF886820886830886F0EA128BA8A3EB128BA8A3EC128BA8E50D2404F886820897
:2058800086830886F07400128BA8A3128BA8A3128BA8E50D2416F886820886830886F0122B
:2058A00090D3FC1CE50D2416F886820886830886F0EC128BA8C005C006C007E50D2410F811
:2058C000E50D2407F9741F26F77400083609F708E609F7E50D2407F886820886830886F0B6
:2058E0001290D3FC900C8DE0FFC3EF9CD007D006D00540030258FC900C8DECF0E50D2407A4
:20590000F886820886830886F01290D3FCEC75F00CA42418FB740C35F0FC8B828C83A3E50A
:205920000D2416F8E0F6A3E008F6A3E008F674022DFA74003EFB8F048A828B838CF0E50DEB
:205940002416F8E6128BA8A308E6128BA8A308E6128BA8E50D240AF874052DF674003E08D0
:20596000F608A607E50D2416F8E50D2404F9740526F77400083609F708E609F7E50D2404F5
:20598000F886820886830886F01290D3FAA31290D3FBA31290D3FCE50D240AF88682088634
:2059A000830886F0EA128BA8A3EB128BA8A3EC128BA8E50D2404F886820886830886F01255
:2059C00090D3FAA31290D3FBA31290D3FC74022AFA74003BFB8A828B838CF0ED128BA8A394
:2059E000EE128BA8A3EF128BA8E50D2404F886820886830886F0ED128BA8A3EE128BA8A349
:205A0000EF128BA8E50D2407F886820886830886F01290D3FFEF75F00CA42418FE740C353F
:205A2000F0FF7D00E50D240DF886820886830886F0EE128BA8A3EF128BA8A3ED128BA8E584
:205A40000D2407F886820886830886F01290D3FFEF75F00CA42418FE740C35F0FF8E828F8A
:205A600083E0FD0D8E828F83EDF0E50D2407F886820886830886F01290D3FF900C87E0FC9B
:205A8000A3E0FDA3E0FE741F2CFC74003DFD8C828D838EF01290D3FCC3EF9C50030253F3A6
:205AA000E50D2413F876010253F3900C87E0FDA3E0FEA3E0FF741F2DFD74003EFE8D828EF9
:205AC000838FF01290D3FDED75F00CA42418F582740C35F0F583E0FFC374019F4003025A2B
:205AE000E8E50D2413F87601900C91E07003025B07E50D2413F87601025B07900C8FE02417
:205B000001F0A3E03400F0E50D2413F88682850D81D00D22C00D85810DE581240AF5819038
:205B20000C99E07003025B31900C917401F0025CA1900C917400F0900C8DE0FFEF75F00C55
:205B4000A4FDAEF0ED2418FBEE340CFC8B828C83E06003025B5A1F025B3CE50D2407F8A62F
:205B600007ED2418FDEE340CFEE50D2408F8A60508A606087600E50D2408F8740126FA74BA
:205B8000000836FB0886078A828B838FF01290D3FCA31290D3FDA31290D3FE74022CFC74F0
:205BA000003DFD8C828D838EF01290D3FCA31290D3FDA31290D3FE8A828B838FF0EC128B51
:205BC000A8A3ED128BA8A3EE128BA88A828B838FF0A80D081290D3F6A31290D308F6A312E6
:205BE00090D308F6E50D2404F8A60408A60508A606E50D2408F8740426FC74000836FD08BA
:205C00008606E50D2404F8C004C005C00686820886830886F0120031158115811581700289
:205C20008003025C5CA80D08740226FC74000836FD0886068C828D838EF01290D3FCA312CD
:205C400090D3FDA31290D3FE8A828B838FF0EC128BA8A3ED128BA8A3EE128BA88A828B833F
:205C60008FF01290D3FAA31290D3FBA31290D3FF74082AFA74003BFB8A828B838FF0129087
:205C8000D3FAA31290D3FBA31290D3FF900C87EAF0EBA3F0EFA3F0E50D2407F8900C8DE6EC
:205CA000F0850D81D00D22C00D85810DAD82AE83AFF0900C87E0FAA3E0FBA3E0FC74112A5A
:205CC000FA74003BFBC002C003C0048D828E838FF01222011581158115817401C0E0E50D3A
:205CE00024FCF88682088683128A301581D00D22C00D85810DC082C083C0F00581058105EC
:205D000081900C87E0FAA3E0FBA3E0FC74112AFA74003BFBE50D24FCF88606088607430740
:205D2000808A828B838CF0EE128BA8A3EF128BA8A80D08740126FD74000836FE0886078D1C
:205D4000828E838FF01290D3FDA31290D3FEA31290D3FF900C87E0FAA3E0FBA3E0FC741113
:205D60002AFA74003BFB74022AFA74003BFB8A828B838CF0ED128BA8A3EE128BA8A3EF12CF
:205D80008BA8900C87E0FAA3E0FBA3E0FC74112AFA74003BFBE50D2404F874052AF6740064
:205DA0003B08F608A60474052DFD74003EFE8D828E838FF01290D3FAA31290D3FBA312903F
:205DC000D3FCE50D2404F886820886830886F0EA128BA8A3EB128BA8A3EC128BA88D828ED8
:205DE000838FF01290D3FAA31290D3FBA31290D3FCE50D2404F874022AF674003B08F608AE
:205E0000A604900C87E0FAA3E0FBA3E0FC74112AFA74003BFBE50D2404F886820886830858
:205E200086F0EA128BA8A3EB128BA8A3EC128BA8900C87E0FAA3E0FBA3E0FC74112AFA74FF
:205E4000003BFB8D828E838FF0EA128BA8A3EB128BA8A3EC128BA8900C87E0FDA3E0FEA373
:205E6000E0FF74112DFD74003EFE740B2DFD74003EFE8D828E838FF0A80D08E6128BA8A361
:205E800008E6128BA8A308E6128BA8A80D0886820886830886F01290D3FF0FA80D0886825D
:205EA0000886830886F0EF128BA87401C0E0E50D24FAF88682088683128A301581850D8174
:205EC000D00D22C00D85810DE5812419F581AD82AE83AFF074042DFD74003EFE74022DFDD9
:205EE00074003EFE8D828E838FF01290D3FDA31290D3FEA31290D3FF74082DFD74003EFE5E
:205F00008D828E838FF01290D3FDA31290D3FEA31290D3FFE50D2414F8A60508A60608A614
:205F200007E50D2414F8741126FA74000836FB088604E50D2414F8741C26FD74000836FECF
:205F40000886078D828E838FF0E50D2417F81290D3F6A31290D308F6A31290D308F6E50D5F
:205F60002414F8E50D2407F9741326F77400083609F708E609F7E50D2407F8868208868369
:205F80000886F01290D3FDA31290D3FEA31290D3FFE50D2404F874052DF674003E08F6087E
:205FA000A607E50D2414F8A90D09741626F77400083609F708E609F7A80D08868208868336
:205FC0000886F01290D3FDA31290D3FEA31290D3FFE50D2404F886820886830886F0ED12FC
:205FE0008BA8A3EE128BA8A3EF128BA8A80D0886820886830886F01290D3FDA31290D3FEE5
:20600000A31290D3FFE50D2404F874022DF674003E08F608A607E50D2407F886820886832B
:206020000886F01290D3FDA31290D3FEA31290D3FFE50D2404F886820886830886F0ED129B
:206040008BA8A3EE128BA8A3EF128BA8E50D2417F8E50D2404F9740126F77400083609F7E4
:2060600008E609F7E50D2404F886820886830886F01290D3FDA31290D3FEA31290D3FFC02A
:2060800002C003C0048D828E838FF0120031158115811581700280030260CFA80D088682E8
:2060A0000886830886F01290D3FDA31290D3FEA31290D3FFE50D2404F886820886830886F9
:2060C000F0ED128BA8A3EE128BA8A3EF128BA8E50D2410F8740B2AF674003B08F608A604D5
:2060E000E50D2410F886820886830886F07400128BA8A3128BA8A3128BA8C002C003C00419
:20610000E50D2417F886820886830886F01290D3FC1CE50D2417F886820886830886F0EC8E
:20612000128BA8900C99E0D004D003D0026003026517E50D2414F8740326FC74000836FB43
:20614000088602A80D08740B2CF674003B08F608A602A80D0886820886830886F01290D32B
:20616000FFA31290D3FEA31290D3FDE50D2407F874022CF674003B08F608A602E50D2407CE
:20618000F886820886830886F0E50D240AF91290D3F7A31290D309F7A31290D309F7E50DC9
:2061A000240AF8740526F674000836F6E50D240DF874052CF674003B08F608A602E50D2453
:2061C0000DF886820886830886F0E50D2410F91290D3F7A31290D309F7A31290D309F7E583
:2061E0000D240AF886820886830886F0E50D2410F9E7128BA8A309E7128BA8A309E7128B82
:20620000A8E50D240DF886820886830886F0E50D2410F91290D3F7A31290D309F7A312903C
:20622000D309F7E50D2410F8740226F674000836F6E50D2407F886820886830886F0E50D95
:20624000240AF91290D3F7A31290D309F7A31290D309F7E50D2410F886820886830886F0C6
:20626000E50D240AF9E7128BA8A309E7128BA8A309E7128BA8E50D2410F874012FF67400FD
:206280003E08F608A605E50D2410F886820886830886F0E50D240AF91290D3F7A31290D3BD
:2062A00009F7A31290D309F7E50D240AF8C004C003C00286820886830886F01200311581F5
:2062C000158115817002800302630FE50D240DF886820886830886F0E50D240AF91290D3E9
:2062E000F7A31290D309F7A31290D309F7E50D2410F886820886830886F0E50D240AF9E7C2
:20630000128BA8A309E7128BA8A309E7128BA8A80D0886820886830886F07400128BA8A3D8
:20632000128BA8A3128BA88F828E838DF0E50D2410F81290D3F6E50D2410F8E50D2410F9CB
:20634000E614F78F828E838DF0E50D2410F8E6128BA8E50D2414F8741F26FF74000836FEDA
:206360000886058F828E838DF0E50D240AF81290D3F6900C8DE50D2413F8E0F6E50D240A28
:20638000F8E50D2413F9C3E7964003026398E50D240AF8900C8DE6F08F828E838DF0E50DBB
:2063A0002413F81290D3F6E50D2413F8E675F00CA4C8E50D240AC82418F6740C35F008F6A2
:2063C000E50D240AF88682088683A3E50D2417F8E0F6A3E008F6A3E008F6E50D2407F88651
:2063E000820886830886F0E50D2417F9E7128BA8A309E7128BA8A309E7128BA8E50D24175D
:20640000F8E50D240AF9740526F77400083609F708E609F7E50D240AF88682088683088676
:20642000F0E50D2407F91290D3F7A31290D309F7A31290D309F7E50D240DF8868208868386
:206440000886F0E50D2407F9E7128BA8A309E7128BA8A309E7128BA8E50D240AF8868208A4
:2064600086830886F0E50D240DF91290D3F7A31290D309F7A31290D309F7E50D240DF8744E
:206480000226F674000836F6E50D240DF886820886830886F0EC128BA8A3EB128BA8A3EAF3
:2064A000128BA8E50D240AF886820886830886F0EC128BA8A3EB128BA8A3EA128BA88F8201
:2064C0008E838DF01290D3FCEC75F00CA42418FC740C35F0FB7A00A80D088682088683088C
:2064E00086F0EC128BA8A3EB128BA8A3EA128BA88F828E838DF01290D3FFEF75F00CA42415
:2065000018FF740C35F0FE8F828E83E0FD0D8F828E83EDF0026628900C67E50D2417F8E01E
:20652000F6A3E008F6A3E008F674022AFD74003BFE8C078D828E838FF0E50D2417F8E612CA
:206540008BA8A308E6128BA8A308E6128BA8E50D240DF874052AF674003B08F608A604E564
:206560000D2417F8E50D240AF9740526F77400083609F708E609F7E50D240AF886820886DE
:20658000830886F01290D3FDA31290D3FEA31290D3FFE50D240DF886820886830886F0EDBC
:2065A000128BA8A3EE128BA8A3EF128BA8E50D240AF886820886830886F01290D3FDA31213
:2065C00090D3FEA31290D3FF74022DFD74003EFE8D828E838FF0EA128BA8A3EB128BA8A3AF
:2065E000EC128BA8E50D240AF886820886830886F0EA128BA8A3EB128BA8A3EC128BA8E500
:206600000D2410F886820886830886F07466128BA8A3740C128BA8A37400128BA8900C66C5
:20662000E0FF0F900C66EFF0E50D2414F8741F26FD74000836FE0886078D828E838FF012BD
:2066400090D3FD900C87E0FCA3E0FEA3E0FF741F2CFC74003EFE8C828E838FF01290D3FC5E
:20666000C3EC9D40030266727F01900C91EFF00266747F008F82850D81D00D22C00D8581D4
:206680000DC082C083C0F0E5812415F581E50D24FCF88603088604430480A80D08868208EA
:2066A00086830886F0EB128BA8A3EC128BA8A80D08740826FA74000836FB0886048A828B20
:2066C000838CF01290D3FAA31290D3FBA31290D3FCE50D2413F8A60208A60308A604A80D44
:2066E00008740B26FA74000836FB0886048A828B838CF0E50D2416F81290D3F6A31290D377
:2067000008F6A31290D308F6A80D08E50D240DF9740226F77400083609F708E609F7E50D67
:20672000240DF886820886830886F01290D3FDA31290D3FEA31290D3FFE50D2410F8740563
:206740002DF674003E08F608A607A80D08E50D2404F9740526F77400083609F708E609F7AB
:20676000E50D2404F886820886830886F01290D3FDA31290D3FEA31290D3FFE50D2410F8B3
:2067800086820886830886F0ED128BA8A3EE128BA8A3EF128BA8E50D2404F8868208868358
:2067A0000886F01290D3FDA31290D3FEA31290D3FFE50D2410F874022DF674003E08F6084D
:2067C000A607E50D240DF886820886830886F01290D3FDA31290D3FEA31290D3FFE50D24A5
:2067E00010F886820886830886F0ED128BA8A3EE128BA8A3EF128BA8E50D2416F8E50D24E1
:2068000010F9740126F77400083609F708E609F7E50D2410F886820886830886F01290D313
:20682000FDA31290D3FEA31290D3FFA80D08C005C006C00786820886830886F01200311530
:20684000811581158170028003026882E50D2404F886820886830886F01290D3FDA312904A
:20686000D3FEA31290D3FFE50D2410F886820886830886F0ED128BA8A3EE128BA8A3EF12CF
:206880008BA88A828B838CF07400128BA8A3128BA8A3128BA8E50D2416F886820886830861
:2068A00086F01290D3FF1FE50D2416F886820886830886F0EF128BA8E50D2413F874032622
:2068C000FD74000836FE088607E50D2410F8740B2DF674003E08F608A607E50D2410F886AD
:2068E000820886830886F0E50D2416F91290D3F7A31290D309F7A31290D309F7E50D2404AC
:20690000F874022DF674003E08F608A607E50D2404F886820886830886F01290D3FAA312B4
:2069200090D3FBA31290D3FCE50D2407F874052AF674003B08F608A604E50D240DF8740544
