:200000000200BF32FFFFFFFFFFFFFF32FFFFFFFFFFFFFF32FFFFFFFFFFFFFF32FFFFFFFF70
:20002000FFFFFF32FFFFFFFFFFFFFF32FFFFFFFFFFFFFF32FFFFFFFFFFFFFF32FFFFFFFF14
:20004000FFFFFF32FFFFFFFFFFFFFF32FFFFFFFFFFFFFF32FFFFFFFFFFFFFF32FFFFFFFFF4
:20006000FFFFFF32FFFFFFFFFFFFFF32FFFFFFFFFFFFFF020CBFFFFFFFFFFF32FFFFFFFF37
:20008000FFFFFF32FFFFFFFFFFFFFF020F2E02029CE58124FCC3C8C0E0C082E608467006BC
:2000A000E5824583601218E58296F58208E58396428208E5F0964582D082C8D0E0C82275E6
:2000C000812012956EE582600302008E7929E94400601B7A01909631787275A00FE493F27D
:2000E000A308B8000205A0D9F4DAF275A0FFE478FFF6D8FD7800E84400600A790175A00086
:20010000E4F309D8FC7871E8440F600C7910900001E4F0A3D8FCD9FA90000A7400F0A3F0D2
:2001200090000CF0A3F090000EF0A3F0900010F0A3F0900F157400F0A3F0A3F002008E7519
:2001400096295397FEE5EA75EA0075F80022C00D85810DAF82C007124DCBD007E50D24FD4F
:20016000F8E660030201BEC374079F5003020212EF240A83F582EF240C83F583E4738E948D
:200180009AA0A6ACB2B8010101010101010143F80202021243F80802021243F82002021244
:2001A00043F80102021243F80402021243F81002021243F84002021243F880020212C3749E
:2001C000079F5003020212EF240A83F582EF240C83F583E473E5EBF1F7FD03090F010101B5
:2001E000010102020253F8FD02021253F8F702021253F8DF02021253F8FE02021253F8FB5C
:2002000002021253F8EF02021253F8BF02021253F87F124DD3D00D22AF827E007D00C0076A
:20022000C006C005124DCBD005D006D007C374079F500302027CEF240A83F582EF240C831E
:20024000F583E47354595E63686D727702020202020202027E0202027E7E0802027E7E20EB
:2002600002027E7E0102027E7E0402027E7E1002027E7E4002027E7E8002027E7D01BD01EB
:2002800003020298EE55F87003020295EEF4FFEF52F8020298EE42F8124DD3221203AC1273
:2002A000013F7582021218D4758200121F787404C0E074C0C0E07412C0E07400C0E0C0E0A1
:2002C000758202121B9DE58124FBF5817582021211EB7400C0E0C0E0C0E0C0E074CDC0E084
:2002E00074ABC0E07400C0E074A7C0E07400C0E07472C0E07495C0E07480C0E07582EB7542
:200300008307124514E58124F4F5817400C0E0C0E0C0E0C0E0C0E0C0E0C0E074A7C0E074F1
:2003200000C0E0747AC0E07495C0E07480C0E07582A7758304124514E58124F4F5817400E5
:20034000C0E0C0E0C0E0C0E0C0E0C0E0C0E074A7C0E07400C0E0747AC0E07495C0E0748043
:20036000C0E0758243758306124514E58124F4F5817400C0E0C0E0C0E07403C0E07400C0A7
:20038000E0C0E0C0E074A7C0E07400C0E0747FC0E07495C0E07480C0E075821F758304127A
:2003A0004514E58124F4F581124D5D2275962D5397DFC2AF53F67F53F17F75AEEF759200FC
:2003C00075910743E680D2AF53F7FE53D8FE1203D222C00D85810D0581058153ADF143AD9F
:2003E0000853ADFEA80D087610087627A80D088606088607A80D08EE24FFF6EF34FF08F64D
:20040000EE4F60030203EC850D81D00D22E5D820E00302041B53D8FE02041E43D801227F4E
:2004200000900F72E0600302043D759107758264758300C007124D27D00702044A75820555
:20044000758300C007124D27D007C0071220F2AE82D007BE010302045B7F01C007121B7780
:20046000AE82D007BE010302046C7F01C007121E07AE82D007BE010302047D7F01C007121E
:200480001867AE82D007BE010302048E7F01BF0102800302049C900F727401F0C0071204C6
:2004A0000DD00702042122C00D85810DE581240CF581E50D2405F8762B08765208769A087F
:2004C00076C4E50D2409F876DD08769A087612087645E50D2409F8E6C0E008E6C0E008E6F4
:2004E000C0E008E6C0E0E50D2405F886820886830886F008E6128E18AC82AD83AEF0FFE59E
:200500008124FCF581A80D08A60408A60508A60608A607A80D08E6C0E008E6C0E008E6C0C2
:20052000E008E6C0E07582CD7583E475F08A7444128D4AAF82E58124FCF581EF6003020597
:200540006F749AC0E074E1C0E0748AC0E07444C0E0A80D0886820886830886F008E6128DB2
:200560004AAF82E58124FCF581EF7003020586C0E0C0A8C2AF900F727401F0D0E053E080C3
:20058000E5E042A8D0E0E50D2409F8E6C0E008E6C0E008E6C0E008E6C0E0E50D2405F8861C
:2005A000820886830886F008E6129197AC82AD83AEF0FFE58124FCF581A80D08A60408A6F6
:2005C0000508A60608A607A80D08E6C0E008E6C0E008E6C0E008E6C0E075825C75838F7571
:2005E000F00274BF128D4AAF82E58124FCF581EF60030206237414C0E074AEC0E07407C01E
:20060000E074BFC0E0A80D0886820886830886F008E6128D4AAF82E58124FCF581EF70036D
:200620000204B2C0E0C0A8C2AF900F727401F0D0E053E080E5E042A8D0E00204B2850D8186
:20064000D00D22C00D85810DE581240CF581A80D0876450876D20876400876C6E50D2409C6
:20066000F8765C0876350876B7087646E50D2409F8E6C0E008E6C0E008E6C0E008E6C0E0BD
:20068000A80D0886820886830886F008E6128E18AC82AD83AEF0FFE58124FCF581E50D2453
:2006A00005F8A60408A60508A60608A607E50D2405F8E6C0E008E6C0E008E6C0E008E6C014
:2006C000E075829A75839875F02D7446128D4AAF82E58124FCF581EF600302070D7433C0E8
:2006E000E07498C0E0742DC0E07446C0E0E50D2405F886820886830886F008E6128D4AAFA3
:2007000082E58124FCF581EF7003020724C0E0C0A8C2AF900F727401F0D0E053E080E5E0B5
:2007200042A8D0E0E50D2409F8860408860508860608E6B2E7FFC004C005C006C007A80D06
:200740000886820886830886F008E6129197AC82AD83AEF0FFE58124FCF581E50D2405F8C8
:20076000A60408A60508A60608A607E50D2405F8E6C0E008E6C0E008E6C0E008E6C0E075FB
:2007800082147583AE75F007743F128D4AAF82E58124FCF581EF60030207CB745CC0E074DE
:2007A0008FC0E07402C0E0743FC0E0E50D2405F886820886830886F008E6128D4AAF82E50A
:2007C0008124FCF581EF700302064EC0E0C0A8C2AF900F727401F0D0E053E080E5E042A849
:2007E000D0E002064E850D81D00D227420B5810302080AC0E0C0A8C2AF900F727401F0D041
:20080000E053E080E5E042A8D0E08500E0E5E0700302082BC0E0C0A8C2AF900F727401F025
:20082000D0E053E080E5E042A8D0E08501E07401B5E00302084DC0E0C0A8C2AF900F72742E
:2008400001F0D0E053E080E5E042A8D0E08502E07402B5E00302086FC0E0C0A8C2AF900FDF
:20086000727401F0D0E053E080E5E042A8D0E08503E07403B5E003020891C0E0C0A8C2AF54
:20088000900F727401F0D0E053E080E5E042A8D0E08504E07404B5E0030208B3C0E0C0A8E2
:2008A000C2AF900F727401F0D0E053E080E5E042A8D0E08505E07405B5E0030208D5C0E095
:2008C000C0A8C2AF900F727401F0D0E053E080E5E042A8D0E08506E07406B5E0030208F789
:2008E000C0E0C0A8C2AF900F727401F0D0E053E080E5E042A8D0E08507E07407B5E00302C6
:200900000919C0E0C0A8C2AF900F727401F0D0E053E080E5E042A8D0E074CDB5820302097E
:2009200038C0E0C0A8C2AF900F727401F0D0E053E080E5E042A8D0E074ABB5830302095712
:20094000C0E0C0A8C2AF900F727401F0D0E053E080E5E042A8D0E0E5F00207EB22C00D85A9
:20096000810DE581240EF581AD82AE83AFF0E50D240CF8A60508A60608A607E50D2405F89B
:2009800074012DF674003E08F608A607E50D24FCF886020886037C807F008A06E50D240511
:2009A000F886820886830886F0EE128D2FE50D2408F8A60308A60408A607087600E50D2432
:2009C00005F8740126FD74000836FE088607E50D2408F886028D828E838FF0EA128D2F0D3B
:2009E000BD00010E8D828E838FF074AA128D2F0DBD00010E8D828E838FF07480128D2FE581
:200A00000D2408F874012DF674003E08F608A607E50D24F9F886020886030886047F008AED
:200A200006E50D2408F886820886830886F0EE128D2FA80D08A60308A60408A607087600FC
:200A4000E50D2408F8740126FD74000836FE088607A80D0886028D828E838FF0EA128D2F07
:200A6000A80D0808E618F60808E618F60808E618F60876000DBD00010EA80D0886028D820A
:200A80008E838FF0EA128D2F0DBD00010E8D828E838FF07402128D2F0DBD00010E8D828EDC
:200AA000838FF07403128D2F0DBD00010E8D828E838FF07404128D2F0DBD00010E8D828EBB
:200AC000838FF07405128D2F0DBD00010E8D828E838FF07406128D2F0DBD00010E8D828E97
:200AE000838FF07407128D2F0DBD00010E8D828E838FF07400128D2F0DBD00010E8D828E7B
:200B0000838FF07401128D2F0DBD00010E8D828E838FF07400128D2F0DBD00010E8D828E60
:200B2000838FF074BB128D2FE50D240CF88602EDC39AFDE50D240CF886820886830886F01C
:200B4000ED128D2FE50D240CF886820886830886F0850D81D00D22120DB9759600900F880D
:200B6000E0FDA3E0FEA3E0FF8D828E838FF012925AF509A312925AF50A750B208509828525
:200B80000A83E0F5080509E4B50902050A050BA90B850982850A83E0FFA7071508E508604D
:200BA00003020B85850B81D00DD0D0D001D000D007D006D005D004D003D002D0F0D083D093
:200BC00082D0E020E705C2AF020BCDD2AFD0E0327582012222C0E0C0A8C2AFC082C083C02F
:200BE000F0C002C003C004C005C006C007C000C001C0D075D000C00D900F88E0FDA3E0FEC2
:200C0000A3E0FF8D828E838FF012925AF509A312925AF50A750B21AF81EF24E0F5088509C8
:200C200082850A83E508F0E5087003020C490509E4B50902050A850982850A83A90B870767
:200C4000EFF0050B1508020C27125CA3900F88E0FDA3E0FEA3E0FF8D828E838FF012925A9E
:200C6000F509A312925AF50A750B20850982850A83E0F5080509E4B50902050A050BA90BB2
:200C8000850982850A83E0FFA7071508E5086003020C74850B81D00DD0D0D001D000D007B0
:200CA000D006D005D004D003D002D0F0D083D082D0E020E705C2AF020CBCD2AFD0E032C091
:200CC000E0C0A8C2AFC082C083C0F0C002C003C004C005C006C007C000C001C0D075D00035
:200CE000C00D900F88E0FDA3E0FEA3E0FF8D828E838FF012925AF509A312925AF50A750B65
:200D000021AF81EF24E0F508850982850A83E508F0E5087003020D330509E4B50902050A30
:200D2000850982850A83A90B8707EFF0050B1508020D111254DDE5827003020D40125CA3A6
:200D400053F17F53AEF7900F88E0FDA3E0FEA3E0FF8D828E838FF012925AF509A312925A95
:200D6000F50A750B20850982850A83E0F5080509E4B50902050A050BA90B850982850A832E
:200D8000E0FFA7071508E5086003020D6E850B81D00DD0D0D001D000D007D006D005D00457
:200DA000D003D002D0F0D083D082D0E020E705C2AF020DB6D2AFD0E032AF96759600C2AF13
:200DC00043F68053F17F53AEF75393FE7594017595475393F75393FD43930275962D5397A6
:200DE000EF4397105393FB85939343E6804393018F9622C00D85810DC082C083C0F0C0E012
:200E00000581C0E0C0A8C2AFE50D2405F8A696759600750C017400C0E004C0E0E50D24FD2C
:200E2000F88682122B9DAA82AB83AFF015811581900001EAF0EBA3F0EFA3F07400C0E00430
:200E4000C0E0E50D24FDF88682122B9DAD82AE83AFF015811581900004EDF0EEA3F0EFA356
:200E6000F0C2AF43F40453E1FB75963453979F43972075961B43971075961B4397207596AA
:200E8000275397FE43EE107596275397FD53EEDFA80D080808860608E6C454F0CEC4CE6EAC
:200EA000CE54F0CE6EFF1818E6C4540F4EFE18860408E6C454F0CCC4CC6CCC54F0CC6CFDB7
:200EC000C004C005C006C00775820075833675F06E7401128FB7AC82AD83AEF0FFE58124B2
:200EE000FCF5818CDC8D0474035CF5DE43DE0843DE0443DD4053DDEF43DD2053DDFB43DD89
:200F00000853DDFD43DD0153DFE743E704E50D2405F88696D0E053E080E5E042A8D0E075CE
:200F2000820075830075F000850D81D00D22C020C0E0C0F0C082C083C007C006C005C004F5
:200F4000C003C002C001C000C0D075D000C00D85810DE5812405F581E50D2404F87600C089
:200F6000E0C0A8C2AF53E1FBE5DF20E303020FC5E50D2405F8A6E275DF17E50D2404FF7E4C
:200F8000007D40E50D2405FCA80D08A604087600087640900001E0FAA3E0FBA3E0FC7400FE
:200FA000C0E0C007C006C005A80D08E6C0E008E6C0E008E6C0E08A828B838CF0123047E5DC
:200FC0008124F9F581E5DF20E003020FD075DF1EE5DF20E103020FDB75DF1DE5DF20E203F5
:200FE000020FE675DF1BE5DF20E40302104F75DF0FE50D2404FF7E007D40E50D2405FCA8E9
:201000000D08A604087600087640900004E0FAA3E0FBA3E0FCC007C006C005A80D08E6C0B5
:20102000E008E6C0E008E6C0E08A828B838CF0123B61AF82E58124FAF581BF0102800302FE
:20104000104CE50D2405F886E202104F750C01E50D2404F8E6700302105D120BD5D0E05307
:20106000E080E5E042A8D0E0850D81D00DD0D0D000D001D002D003D004D005D006D007D0B5
:2010800083D082D0F0D0E0D02032C00D85810DE50D24FBF88605088606088607900001E0DB
:2010A000FAA3E0FBA3E0FCE50D24F9F8E6C0E008E6C0E0C005C006C0078A828B838CF01224
:2010C00032E3AF82E58124FBF581EF70030210D67582010210D9758200D00D22C00D8581D9
:2010E0000DC0E0C0A8C2AF7401B50C028003021103E50D24FDF886E2750C0075DF0F7F01C2
:2011000002114AE50D24FDFE8E077D007C40900004E0FAA3E0FBA3E0FE7400C0E0E50D24FC
:20112000FBF8E6C0E008E6C0E0C007C005C0048A828B838EF0122D48AE82E58124FAF5810F
:201140008E07EE600302114A7F01D0E053E080E5E042A8D0E08F82D00D22227400C0E07450
:2011600003C0E0758214122B9DAD82AE83AFF015811581900007EDF0EEA3F0EFA3F0222201
:20118000C00D85810DC082C083058105810581E50D2403FD7C007B40900007E0FAA3E0FE19
:2011A000A3E0FFA80D08E6C0E008E6C0E0C005C004C0038A828E838FF01232E3AF82E58136
:2011C00024FBF581BF010280030211DCE50D2403F886820886830886F00211E5758200753A
:2011E000830075F000850D81D00D22C00D85810DC082E5812406F58175820875830012279D
:20120000BCAC82AD83AEF0A80D0808A60408A60508A606A80D0808E6084670030213A374A8
:2012200003C0E07400C0E0758201122B9DAA82AB83AFF015811581A80D0808868208868322
:201240000886F0EA128D2FA3EB128D2FA3EF128D2FA80D080886820886830886F012925A42
:20126000FEA312925AFDA312925AFCEA4B700302128F7400C0E0C0E0C0E0C0E0C0E0C0E0B6
:201280008E828D838CF0122D48E58124FAF581A80D080886820886830886F012925AFAA33A
:2012A00012925AFBA312925AFFEA4B70030213A3A80D0808740326FA74000836FB08860797
:2012C000758204758300C007C003C0021227BCAC82AD83AEF0D002D003D0078A828B838FB9
:2012E000F0EC128D2FA3ED128D2FA3EE128D2F8C828D838EF074FF128D2FA37400128D2FC5
:20130000A3128D2FA3128D2FA80D0808740626FD74000836FE0886078D828E838FF0740031
:20132000128D2FA3128D2FA80D08088604088605088606C0E0C0E0C0E0C0E0C004C005C02F
:201340000674A7C0E07400C0E0748BC0E07495C0E07480C0E075826B758315124514E5819C
:2013600024F4F581A80D080886040886050886067400C0E0C0E0C0E0C0E0C004C005C00626
:2013800074A7C0E07400C0E07493C0E07495C0E07480C0E075826B758315124514E5812436
:2013A000F4F5817582087583001227BCAD82AE83AFF0E50D2405F8A60508A60608A607E5CC
:2013C0000D2405F8E6084670030215657403C0E07400C0E0758201122B9DAA82AB83ACF0C9
:2013E00015811581E50D2405F886820886830886F0EA128D2FA3EB128D2FA3EC128D2FE5C1
:201400000D2405F886820886830886F012925AFFA312925AFEA312925AFDEA4B700302140F
:201420003E7400C0E0C0E0C0E0C0E0C0E0C0E08F828E838DF0122D48E58124FAF581E50D28
:201440002405F886820886830886F012925AFAA312925AFBA312925AFCEA4B70030215657F
:20146000E50D2405F8740326FA74000836FB088604758204758300C004C003C0021227BC52
:20148000AD82AE83AFF0D002D003D0048A828B838CF0ED128D2FA3EE128D2FA3EF128D2FC4
:2014A0008D828E838FF074FF128D2FA3740F128D2FA37400128D2FA3128D2FE50D2405F8EF
:2014C000740626FD74000836FE0886078D828E838FF0740A128D2FA37400128D2FE50D2444
:2014E00005F886050886060886077400C0E0C0E0C0E0A80D08E6C0E0C005C006C00774A737
:20150000C0E07400C0E0749BC0E07495C0E07480C0E075826B758315124514E58124F4F5DE
:2015200081E50D2405F886050886060886077400C0E0C0E0C0E0A80D08E6C0E0C005C00641
:20154000C00774A7C0E07400C0E074A3C0E07495C0E07480C0E075826B758315124514E542
:201560008124F4F581850D81D00D22C00D85810DE5812411F581AE82AC83ABF0E50D240B3E
:20158000F87400F608F6C0E0C0A8C2AF900F7BE0FAA3E0FFE50D240DF8A60208A607900FE5
:2015A0007BE0FAA3E0FD900F7B74012AF074003DA3F0D0E053E080E5E042A8D0E075828828
:2015C00075839575F080C006C004C00312117FD003D004D006E50D240FF8A60608A60408AA
:2015E000A603E50D240FF8740326FB74000836FE0886078B828E838FF0E50D2408F81292F1
:201600005AF6A312925A08F6A312925A08F6E50D240FF8A90D09740626F77400083609F717
:2016200008E609F7A80D0886820886830886F012925AFEA312925AFFEE4F7003021652E5CD
:201640000D2404F876FF08760F740008F608F6021661E50D2404F876FF740008F608F60873
:20166000F6A80D0886820886830886F012925AFEA312925AFFE50D240FF886820886830846
:2016800086F012925AFBA312925AFCA312925AFDC006C0078B828C838DF01235A3AF82154A
:2016A000811581BF01028003021840E50D2408F886820886830886F012925AFBA312925A2D
:2016C000FDA312925AFEA312925AFFE50D2404F8E6B5031208E6B5050D08E6B5060808E6B8
:2016E000B507030216FC75828575839575F08012117FE50D240BF876010876007B007E0080
:201700007D007F00E50D2404F8C3E69B08E69E08E69D08E69F5003021766E50D2408F88665
:20172000820886830886F0EB128D2FA3EE128D2FA3ED128D2FA3EF128D2FE50D2408F88626
:20174000820886830886F012925AA312925AA312925AA312925A0BBB00090EBE00050DBD2D
:2017600000010F021704E50D240FF886820886830886F012925AFDA312925AFEA312925A4D
:20178000FF7400C0E0C0E0C0E0C0E0C0E0C0E08D828E838FF0122D48AF82E58124FAF581C5
:2017A000EF60030217BC75828575839575F08012117FE50D240BF87601087600E50D240B43
:2017C000F8E60846600302180DE50D240DF88606088607C3EE9404EF64809480400302188A
:2017E0000DE50D240DF8E625E0FE08E633FFEE2473FEEF340FFF8E828F83E0FCA3E0FD0C7A
:20180000BC00010D8E828F83ECF0EDA3F0A80D0886820886830886F012925AFEA312925A8F
:20182000FFC006C00775820A758300128D7AAE82AF83158115818E828F83124D270216615B
:20184000A80D0886820886830886F012925AFEA312925AFFEE4F6003021661120BD5021675
:2018600061850D81D00D227F017E00EE75F002A4FCADF0EC240AF582ED3400F583E0FAA3BE
:20188000E0FBEC2473F582ED340FF583E0FCA3E0FDEAB50406EBB5050280030218A07F0063
:2018A000EE75F002A4FCADF0EC240AFAED3400FBEC2473F582ED340FF583E0FCA3E0FD8ADE
:2018C000828B83ECF0EDA3F00EBE0400500302186B8F8222AF82C0077400C0E07402C0E01F
:2018E00075820A122B9DAC82AD83AEF015811581D007900012ECF0EDA3F0EEA3F0EC4D70E6
:201900000302197AC0077400C0E0C0E0C0E0C0077412C0E07400C0E07400C0E074A7C0E044
:201920007400C0E07402C0E07496C0E07480C0E075824F75831A124514E58124F4F581D0B8
:20194000077400C0E0C0E0C0E0C0077412C0E07400C0E07400C0E074A7C0E07400C0E074D4
:201960000AC0E07496C0E07480C0E075827B758319124514E58124F4F58122C00D85810D9B
:20198000C082C083C0F0058105810581E50D2405F87400F608F67C00E50D2404F87600C041
:2019A00004E50D2405FA7C007F40A80D0886030886050886068B828D838EF012925AFBA32F
:2019C00012925AFDA312925AFEC0047400C0E0C0E0C0E0C002C004C0078B828D838EF0125B
:2019E0002D48AF82E58124FAF581D004BF0105D0040219FBD0047C01021A23EC6003021AC9
:201A000018C0E0C0A8C2AF900F7EE004F0D0E053E080E5E042A8D0E0E50D2405F806B600B3
:201A2000020806E50D2404F806E50D2404F8C3E664809483500302199F75820A758300C002
:201A400004124D27D004021998850D81D00D22C00D85810DC082C083C0F0058105810581BC
:201A60007B007C00E50D2406F87600C003C004A80D0886020886060886078A828E838FF054
:201A800012925AFBA312925AFCA312925AFD8B828C838DF0C007C006C004C003C002123D54
:201AA00044E582D002D003D004D006D007D004D0037003021B5DC003C004E50D2404FD8D96
:201AC000037C007D408A828E838FF012925AFAA312925AFEA312925AFFC004C0037400C03C
:201AE000E0C0E0C003C004C0058A828E838FF01232E3AF82E58124FBF581D003D004BF01C4
:201B0000028007D004D003021A6BD004D003E50D2404F8E6B5030808E6B50403021B33E5D0
:201B20000D2406F87601E50D2404F88603088604021B55E50D2406F8E66003021B55C0E0F1
:201B4000C0A8C2AF900F7DE004F0D0E053E080E5E042A8D0E00BBB00010C021A6B758208A1
:201B6000758300C004C003124D27D003D004021A6B850D81D00D22900F7DE07003021B890B
:201B8000900F7EE06003021B8E7F00021B907F01900F7D7400F0900F7EF08F8222C00D857C
:201BA000810DAF82E50D24F9F8900F82E6F0C0077418C0E0E50D24FAF886820886830886C6
:201BC000F008E6120DF31581D0078F061EC0077400C0E0C0E0C0E0C006C0E0C0E0C0E074C0
:201BE000A7C0E07400C0E07412C0E07496C0E07480C0E075823A75831C124514E58124F4F8
:201C0000F581D0077400C0E0C0E0C0E0C007C0E0C0E0C0E074A7C0E07400C0E07418C0E081
:201C20007496C0E07480C0E07582D575831C124514E58124F4F581D00D227F41900F7FE06A
:201C4000FCA3E0FDA3E0FEC0077400C0E0C0E0C0078C828D838EF01210DCAE82158115814F
:201C60001581D007BE01028003021C7A900F82E0FE8E82C007120218D0070FC374589F40C5
:201C800003021C3C900F82E0FF7400C0E08F8212014E1581125440AE82AF8374032EFE74AC
:201CA000003FFF7496C0E07400C0E08E828F8312944BAE82AF8315811581C3EE9432EF948D
:201CC000004003021CCA7E327F008E828F83124D27021C3A22C00D85810DE5812405F581A3
:201CE0007F00A80D0876007B41C007E50D2405FCA80D0808A604087600087640900F7FE0EF
:201D0000FDA3E0FEA3E0FFC004C00374FFC0E0C0E0A80D0808E6C0E008E6C0E008E6C0E022
:201D20008D828E838FF012108AAF82E58124FBF581D003D004EFD0077003021D6AE50D24AD
:201D400005F8E6B503028003021D65900F82E0FE0E8E82C007C004C003120218D003D004A1
:201D6000D007021D6A7F01021D7C0BC3745864808BF063F08095F04003021CE9900F82E04C
:201D8000FE0EC007C0047400C0E08E8212014E1581D004D007BF01028003021DEA8C06E521
:201DA0000D2405F8B65803021DE18E077C007B40C006900F7FE0FAA3E0FDA3E0FEC006741F
:201DC000FFC0E0C0E0C007C004C0038A828D838EF012108AE58124FBF581D006D006021D6A
:201DE0009FA80D08067F00021CE7A80D08C3E6648094824003021CE7900F83E004F0021C41
:201E0000E7850D81D00D22900F83E06003021E157F00021E177F01900F837400F08F822240
:201E2000AF827E00C007C0067400C0E0C0E0C0E0C007C0E0C0E0C0E074A7C0E07400C0E09C
:201E4000741EC0E07496C0E07480C0E075826C75831E124514E58124F4F581D006D0070E7F
:201E6000C3EE648094835003021E2422C00D85810D058105810581C0E0C0A8C2AF900F84EF
:201E8000E0FFE50D2403F8A607E004F0D0E053E080E5E042A8D0E0E50D2403F886057E00F5
:201EA000C005C00675824D758301128D7AAD82AE8315811581744D2DFD74013EFE7C007B22
:201EC00000740AC0E07400C0E0C0E0C0E08D828E838CF0EB128FB7AB82AC83ADF0FEE58154
:201EE00024FCF5818B05ECC313CD13CDFEC006C005125440AB82AC83D005D006A80D08A6B4
:201F00000308A604AC0D0C8C027B007F40C006C005C004C005C0068A828B838FF0124C3F6F
:201F200015811581D004D005D006E50D2403F88682C006C005C004120218D004D005D006E3
:201F40007F007B40C006C005C005C0068C828F838BF0124C3F15811581D005D006E50D240C
:201F600003F88682C006C005120218D005D006021F04850D81D00D22AF827D007E00ED2488
:201F800085FBEE340FFC7A00C007C006C0057400C0E0C0E0C0E0C007C003C004C00274A749
:201FA000C0E07400C0E07423C0E07496C0E07480C0E07582DF75831F124514E58124F4F52D
:201FC00081D005D006D0070DBD00010E8D038E04C3EB9401EC648094805003021F7E22C008
:201FE0000D85810DE5812407F581AD82AE83AFF07B007C00E50D2405F8A60508A60608A6A4
:2020000007C003C004A80D08767B740008F608F608F6A80D08744726F674940836F67403CF
:202020000836F674000836F6A80D08E6C0E008E6C0E008E6C0E008E6C0E07582FD7583FFEC
:2020400075F0FF74FF129276AA82AB83ACF0FFE58124FCF581A80D08A60208A60308A604D6
:2020600008A607C0037407C0E07400C0E0C0E0C0E0A80D0886820886830886F008E6128E97
:20208000BAAC82AD83AEF0FFE58124FCF581D003A80D08A60408A60508A60608A607A80D84
:2020A00008B61B1308B6770F08B6FE0B08B6FF07D004D0030220BFD004D0037B017C00EB53
:2020C0004C6003022001C0E0C0A8C2AFE50D2405F886820886830886F07401128D2FD0E018
:2020E00053E080E5E042A8D0E0022001850D81D00D227F017D007E00ED2485FBEE340FFC60
:202100008B828C83E0600302210C7F00ED2485F582EE340FF5837400F00DBD00010E8D032F
:202120008E04C3EB9401EC6480948050030220F88F8222C00D85810DC082C083C0F00581AB
:2021400005810581A80D08740126FF74000836FB088602A80D08E50D2404F9740426F77406
:2021600000083609F708E609F7E50D2404F886040886050886068F828B838AF0EC128D2F1D
:20218000A3ED128D2FA3EE128D2FE50D2404F886820886830886F074FF128D2FA3128D2F27
:2021A000E50D2404F8740226FF74000836FD088604E50D2404F886020886030886068F8261
:2021C0008D838CF0EA128D2FA3EB128D2FA3EE128D2FE50D2404F8740526FF74000836FDA1
:2021E000088604E50D2404F886020886030886068F828D838CF0EA128D2FA3EB128D2FA33A
:20220000EE128D2FA80D0886820886830886F07400128D2F850D81D00D22AD82AE83AFF05B
:20222000740B2DFD74003EFE8D828E838FF07400128D2FA3128D2FA3128D2F22C00D85818D
:202240000DC082C083C0F0E5812409F581A80D08740126FA74000836FB0886048A828B8388
:202260008CF0E50D240AF812925AF6A312925A08F6A312925A08F6E50D24FBF88602088679
:202280000308860474022AFD74003BFE8C078D828E838FF0E50D240AF8E6128D2FA308E6D0
:2022A000128D2FA308E6128D2FE50D2404F874052AF674003B08F608A604E50D240AF8E5EA
:2022C0000D2407F9740526F77400083609F708E609F7E50D2407F886820886830886F012D9
:2022E000925AFDA312925AFEA312925AFFE50D2404F886820886830886F0ED128D2FA3EEC1
:20230000128D2FA3EF128D2FE50D2407F886820886830886F012925AFDA312925AFEA31294
:20232000925AFF74022DFD74003EFE8D828E838FF0EA128D2FA3EB128D2FA3EC128D2FE56D
:202340000D2407F886820886830886F0EA128D2FA3EB128D2FA3EC128D2F740B2AFA74002E
:202360003BFB8A828B838CF0A80D08E6128D2FA308E6128D2FA308E6128D2FA80D0886829D
:202380000886830886F012925AFF0FA80D0886820886830886F0EF128D2F850D81D00D227F
:2023A000C00D85810DC082C083C0F0E581240BF581E50D24FBF886020886030886048A823D
:2023C0008B838CF0E50D240DF812925AF6A312925A08F6E50D240DF8B6FF0608B6FF0280B0
:2023E00003022425C002C003C004A80D08740426FA74000836FB08860474052AFA74003B66
:20240000FB8A828B838CF0E50D240AF812925AF6A312925A08F6A312925A08F6D004D0033A
:20242000D0020224AFA80D08740426FD74000836FE088607E50D240AF8A60508A60608A633
:2024400007C002C003C004E50D240AF8740226FD74000836FE0886078D828E838FF01292F3
:202460005AFAA312925AFBA312925AFC8A828B838CF012925AFAA312925AFBE50D240DF88A
:20248000C3E69A08E69BD004D003D00250030224AF8D828E838FF0E50D240AF812925AF624
:2024A000A312925A08F6A312925A08F6022441E50D2407F874022AF674003B08F608A6046D
:2024C000E50D240AF8E50D2404F9740226F77400083609F708E609F7E50D2404F88682087C
:2024E00086830886F012925AFDA312925AFEA312925AFFE50D2407F886820886830886F06F
:20250000ED128D2FA3EE128D2FA3EF128D2F74052DFD74003EFE8D828E838FF0EA128D2F97
:20252000A3EB128D2FA3EC128D2F74052AFD74003BFE8C078D828E838FF0E50D240AF8E665
:20254000128D2FA308E6128D2FA308E6128D2FE50D2404F886820886830886F0EA128D2F8E
:20256000A3EB128D2FA3EC128D2F740B2AFA74003BFB8A828B838CF0A80D08E6128D2FA3AB
:2025800008E6128D2FA308E6128D2FA80D0886820886830886F012925AFF0FA80D088682FB
:2025A0000886830886F0EF128D2F850D81D00D22C00D85810DE581240FF581C8E50D240AE6
:2025C000C8A68208A68308A6F0E50D240AF8740B26FA74000836FB0886048A828B838CF0B0
:2025E000E50D240DF812925AF6A312925A08F6A312925A08F6E50D240AF8E50D2404F974EF
:202600000226F77400083609F708E609F7E50D2404F886820886830886F012925AFDA312A2
:20262000925AFEA312925AFFE50D2407F874052DF674003E08F608A607E50D240AF8A90D2C
:2026400009740526F77400083609F708E609F7A80D0886820886830886F012925AFDA31237
:20266000925AFEA312925AFFE50D2407F886820886830886F0ED128D2FA3EE128D2FA3EF78
:20268000128D2FA80D0886820886830886F012925AFDA312925AFEA312925AFFE50D2407C1
:2026A000F874022DF674003E08F608A607E50D2404F886820886830886F012925AFDA312CB
:2026C000925AFEA312925AFFE50D2407F886820886830886F0ED128D2FA3EE128D2FA3EF18
:2026E000128D2FE50D240DF8E50D2407F9740126F77400083609F708E609F7E50D2407F894
:2027000086820886830886F012925AFDA312925AFEA312925AFFE50D240AF8C005C006C085
:202720000786820886830886F01200911581158115817002800302276DA80D0886820886B8
:20274000830886F012925AFDA312925AFEA312925AFFE50D2407F886820886830886F0EDA5
:20276000128D2FA3EE128D2FA3EF128D2F8A828B838CF07400128D2FA3128D2FA3128D2F12
:20278000E50D240DF886820886830886F012925AFF1FE50D240DF886820886830886F0EFCA
:2027A000128D2FE50D240DF886820886830886F012925AFF8F82850D81D00D22C00D8581A6
:2027C0000DC082C083058105810581E50D2403F87400F608F6087600124DCB900F15E0F52B
:2027E000F0A3E045F060030227FD7A157D007E007F00900F15EAF0EDA3F0EEA3F0A80D0853
:20280000E608467003022866900F86E0FEA3E0FFA80D08E62EFC08E63FFDC3EC94FFED9442
:202820000E4003022866A80D08E62EFC08E63FFDC3EE9CEF9D4003022866900F15E0FBA3E2
:20284000E0FCA3E0FDEE2BFBEF3CFCE50D2403F8A60308A60408A605A80D08900F86E62ECC
:20286000F008E63FA3F0124DD3E50D2403F886820886830886F0850D81D00D2222900F8675
:202880007400F0A3F022900F86E0FEA3E0FF74FFC39EFE740E9FFF8E828F8322C00D858191
:2028A0000DC082C083C0F0E581240AF581E50D240DF87601A80D08E608467003022B89A878
:2028C0000D08742526FA74000836FB0886048A828B838CF012925AFFBF01005003022B898F
:2028E000C002C003C0048F037C00C002C003C0047582FF7583FF128CE3AB82AC83158115C3
:2029000081D002A80D08E50D240AF9742626F77400083609F708E609F7E50D240AF8868217
:202920000886830886F012925AFA7F00C3EB9AEC9FD004D003D0025003022B89C0E0C0A834
:20294000C2AFA80D08E50D2404F9740626F77400083609F708E609F7A80D08868208868329
:202960000886F0E50D2407F912925AF7A312925A09F7A312925A09F78A828B838CF0129252
:202980005AFFE50D240AF886820886830886F012925AFE8FF0EEA4C8E50D2407C826FD084A
:2029A000E635F0FE088607E50D2404F886820886830886F0ED128D2FA3EE128D2FA3EF1212
:2029C0008D2FA80D08742426FD74000836FE0886078D828E838FF07400128D2FA80D08E5FB
:2029E0000D2407F9740326F77400083609F708E609F7A80D0886820886830886F012925A20
:202A0000FDA312925AFEA312925AFFE50D2407F886820886830886F0ED128D2FA3EE128DE3
:202A20002FA3EF128D2FE50D2404F8E50D2407F9740326F77400083609F708E609F7A80DF6
:202A40000886820886830886F012925AFDA312925AFEA312925AFF8A828B838CF012925A09
:202A6000FA7C00E50D2404F8EA24FFF6EC34FF08F6E50D240AF886820886830886F012925B
:202A80005AFB7C00C007C006C005C003C004E50D2404F88682088683128D7AAB82AC8315D7
:202AA000811581D005D006D007EB2DFDEC3EFEE50D2407F886820886830886F0ED128D2FD9
:202AC000A3EE128D2FA3EF128D2FA80D08742726FD74000836FE0886078D828E838FF07464
:202AE000FF128D2FA80D08742826FD74000836FE0886078D828E838FF074FF128D2FE50D76
:202B000024FDF8E66003022B4BA80D08740C26FD74000836FE0886078D828E838FF01292F3
:202B20005A7003022B7BA80D08740C26FD74000836FE0886078D828E838FF0126052E582B1
:202B40007003022B7B120BD5022B7BA80D08740C26FD74000836FE0886078D828E838FF07C
:202B6000122133A80D08741826FD74000836FE0886078D828E838FF0122133D0E053E080D6
:202B8000E5E042A8D0E0022B90E50D240DF87600E50D240DF88682850D81D00D22C00D8501
:202BA000810DC0827C007D007E00A80D08E67003022C7BC004C005C006A80D0886027B0000
:202BC000C006C005C004C002C0037582FF7583FF128CE3AA82AB8315811581D004D005D0B4
:202BE00006E50D24FDF886057E00C3EA9DEB9ED006D005D0045003022C7BA80D08E50D249A
:202C0000FDF986F0E7A4FAABF0C374D69A74FF9B5003022C7B74292AFA74003BFB8A828B75
:202C2000831227BCAA82AB83AFF08A048B058F06EC4D7003022C7B8C028D038E0774292AA1
:202C4000FA74003BFBC006C005C004C004C005C006E50D24FCF8E6C0E0C002C003C007E571
:202C60000D24FDF8E6C0E0A80D088682122C86E58124F8F581D004D005D0068C828D838EFC
:202C8000F01581D00D22C00D85810DC082E50D24FDF8E66003022CC9E50D24F6F8860408AC
:202CA0008605088606E50D24F6F886020886030886078C828D838EF0EA128D2FA3EB128DC2
:202CC0002FA3EF128D2F022CF7E50D24F6F88604088605088606E50D24FAF886020886036A
:202CE0000886078C828D838EF0EA128D2FA3EB128D2FA3EF128D2FE50D24F6F88605088612
:202D00000608860774252DFA74003EFB8F048A828B838CF0A80D08E6128D2F74262DFA74DC
:202D2000003EFB8F048A828B838CF0E50D24FDF8E6128D2F7401C0E08D828E838FF0122884
:202D40009C15811581D00D22C00D85810DE5812411F581AD82AB83ACF0E50D240EF8760030
:202D6000E50D240BF8A60508A60308A604E50D24F8F8B60204740180027400FFE50D240FDB
:202D8000FEE50D240AF8A606E50D2404F874242DF674003B08F608A604A80D0874252DF6CC
:202DA00074003B08F608A604C0E0C0A8C2AFE50D2404F886820886830886F012925AFDA8EF
:202DC0000D0886820886830886F012925AFCC3ED9C5003022DDCEF7003022E6EE50D24F895
:202DE000F8E6C0E0E50D24FBF8E6C0E008E6C0E008E6C0E0E50D240BF886820886830886EA
:202E0000F0123DDFAC82E58124FCF5818C07E50D240BF8741826FA74000836FB0886048A49
:202E2000828B838CF012925A7003022E54E50D240BF8741826FA74000836FB0886048A8281
:202E40008B838CF0126052E5827003022E5D120BD5022E5DEF7003022E5D120BD5D0E0535A
:202E6000E080E5E042A8D0E0758201023041E50D24F9F8E608466003022E8CD0E053E0806B
:202E8000E5E042A8D0E0758200023041E50D240EF8E66003022EB58E027B007C408A828BC1
:202EA000838CF0C007C006126E36D006D007E50D240EF87601D0E053E080E5E042A8D0E0CE
:202EC000C007C006124DCBD006D007C0E0C0A8C2AFE50D240BF8742726FA74000836FB088C
:202EE00086048A828B838CF012925AFDBDFF028003022EFF8A828B838CF07400128D2FE58A
:202F00000D240BF8742826FA74000836FB0886048A828B838CF012925AFDBDFF02800302AE
:202F20002F2D8A828B838CF07400128D2FC007D0E053E080E5E042A8D0E0E50D24F9FCE5E4
:202F40000D2407F8A604087600087640E50D240AF886047D007F40C006E50D2407F8E6C0FC
:202F6000E008E6C0E008E6C0E08C828D838FF0126E68AF82158115811581D006EFD00760E1
:202F80000302302BE50D240BF886820886830886F0C007C006124485E582D006D007700332
:202FA000023005E50D240BF8740C26FB74000836FC088605C007C006E50D24F9F8E6C0E0C5
:202FC00008E6C0E08B828C838DF0125E3615811581D006D007E50D240BF886820886830811
:202FE00086F0C007C006124290D006D007C007C006124DD3E582D006D0076003022DA8121E
:203000000BD5022DA8E50D240BF886820886830886F0C007C006124290D006D007C007C0A4
:2030200006124DD3D006D007022DA8E50D240BF886820886830886F0124290124DD3758217
:2030400000850D81D00D22C00D85810D058105810581AA82AB83ACF0A80D08A60208A603E0
:2030600008A60474242AFD74003BFE8C078D828E838FF012925AFD74252AFC74003BFE8C0D
:20308000078C828E838FF012925AFCC3ED9C50030230A0E50D24F7F8B60202800302319F0C
:2030A000A80D08742826FD74000836FE0886078D828E838FF012925AFFA80D08742426FC3C
:2030C00074000836FD0886068C828D838EF012925AC007E50D24F7F8E6C0E0E50D24FBF8B8
:2030E000E6C0E008E6C0E008E6C0E0A80D0886820886830886F0123DDFE58124FCF581D0E0
:2031000007BFFF02800302316DA80D08741826FC74000836FD0886068C828D838EF01292D7
:203120005A700302319AA80D08741826FC74000836FD0886068C828D838EF0126052E58280
:20314000700302319AE50D24F8F8E60846700302319AE50D24F8F886040886050886068C72
:20316000828D838EF07401128D2F02319AC00712546BAE82D0078F05C3ED9E400302319A9E
:20318000A80D08742826FC74000836FD0886060F8C828D838EF0EF128D2F7F010231A17F36
:2031A000008F82850D81D00D22C00D85810DE5812407F581C8E50D2404C8A68208A68308FA
:2031C000A6F0E50D2404F8742426FA74000836FB0886048A828B838CF0E50D2407F8129201
:2031E0005AF6E50D2404F8742526FD74000836FE0886078D828E838FF012925AFDE50D24BC
:2032000007F8C3E69D40030232D9E50D2404F8A90D09742826F77400083609F708E609F7EF
:20322000A80D0886820886830886F012925AFFE50D2407F8E604FE8A828B838CF0EE128D1D
:203240002FBFFF0280030232B1E50D2404F8741826FC74000836FD0886068C828D838EF078
:2032600012925A70030232D4E50D2404F8741826FC74000836FD0886068C828D838EF01224
:203280006052E58270030232D4E50D24FBF8E6084670030232D4E50D24FBF88604088605BC
:2032A0000886068C828D838EF07401128D2F0232D4C00712546BAE82D0078F05C3ED9E40D2
:2032C000030232D40FA80D0886820886830886F0EF128D2F7F010232DB7F008F82850D8191
:2032E000D00D22C00D85810DE581240BF581AC82AD83AFF0E50D2408F87600E50D2405F848
:20330000A60408A60508A607E50D2409FEA80D08A606A80D080874242CF674003D08F608DF
:20332000A607C0E0C0A8C2AFA80D080886820886830886F012925AFC8C05EC70030233DC10
:20334000C005E50D24FBF8E6C0E008E6C0E008E6C0E0E50D2405F886820886830886F01241
:203360004139158115811581D005E50D2405F8742426FB74000836FC088607ED14FA8B8225
:203380008C838FF0EA128D2FE50D2405F8740C26FB74000836FC0886078B828C838FF01243
:2033A000925A70030233CBE50D2405F8740C26FB74000836FC0886078B828C838FF01260AA
:2033C00052E58270030233CB120BD5D0E053E080E5E042A8D0E075820102359DE50D24F932
:2033E000F8E6084660030233FAD0E053E080E5E042A8D0E075820002359DE50D2408F8E686
:20340000600302341F8E037C007F408B828C838FF0C006126E36D006E50D2408F87601D0DE
:20342000E053E080E5E042A8D0E0C006124DCBD006C0E0C0A8C2AFE50D2405F8742726FB8C
:2034400074000836FC0886078B828C838FF012925AFABAFF0280030234658B828C838FF022
:203460007400128D2FE50D2405F8742826FB74000836FC0886078B828C838FF012925AFA64
:20348000BAFF0280030234938B828C838FF07400128D2FC006D0E053E080E5E042A8D0E0C0
:2034A000E50D24F9FF7C007B40A80D0886027D007E40C006C007C004C0038A828D838EF099
:2034C000126E68AF82158115811581D006D006EF6003023564E50D2405F886820886830844
:2034E00086F0C006124428E582D0067003023546E50D2405F8741826FC74000836FD0886E7
:2035000007C006E50D24F9F8E6C0E008E6C0E08C828D838FF0125E3615811581D006E50D8C
:203520002405F886820886830886F0C006124290D006C006124DD3E582D006600302332264
:20354000120BD5023322E50D2405F886820886830886F0C006124290D006C006124DD3D030
:2035600006023322E50D2405F886820886830886F0C006124290D006C006124DD3D006E511
:203580000D2405F886820886830886F0C006124428E582D0067003023322758200850D8111
:2035A000D00D22C00D85810DE581240BF581AC82AD83AFF0E50D2405F87600E50D2409F884
:2035C000A60408A60508A607E50D2406FEE50D2404F8A606A80D0874242CF674003D08F6DB
:2035E00008A607C0E0C0A8C2AFA80D0886820886830886F012925AFC8C07EC7003023666BF
:20360000EF14FCA80D0886820886830886F0EC128D2FE50D2409F8740C26FB74000836FC37
:203620000886078B828C838FF012925A7003023655E50D2409F8740C26FB74000836FC08EE
:2036400086078B828C838FF0126052E5827003023655120BD5D0E053E080E5E042A8D0E063
:20366000758201023829E50D24FCF8E608466003023684D0E053E080E5E042A8D0E07582D9
:2036800000023829E50D2405F8E660030236A98E037C007F408B828C838FF0C006126E36A7
:2036A000D006E50D2405F87601D0E053E080E5E042A8D0E0C006124DCBD006C0E0C0A8C258
:2036C000AFE50D2409F8742726FB74000836FC0886078B828C838FF012925AFABAFF028057
:2036E000030236EF8B828C838FF07400128D2FE50D2409F8742826FB74000836FC088607AC
:203700008B828C838FF012925AFABAFF02800302371D8B828C838FF07400128D2FC006D00F
:20372000E053E080E5E042A8D0E0E50D24FCFF7C007B40E50D2404F886027D007E40C006B4
:20374000C007C004C0038A828D838EF0126E68AF82158115811581D006D006EF600302376F
:20376000F0E50D2409F886820886830886F0C006124428E582D00670030237D2E50D24098D
:20378000F8741826FC74000836FD088607C006E50D24FCF8E6C0E008E6C0E08C828D838FAE
:2037A000F0125E3615811581D006E50D2409F886820886830886F0C006124290D006C0067D
:2037C000124DD3E582D00660030235E3120BD50235E3E50D2409F886820886830886F0C083
:2037E00006124290D006C006124DD3D0060235E3E50D2409F886820886830886F0C006129B
:203800004290D006C006124DD3D006E50D2409F886820886830886F0C006124428E582D009
:203820000670030235E3758200850D81D00D22C00D85810DE581240DF581AD82AB83AFF003
:203840007C00E50D2408F8A60508A60308A607E50D240BFEE50D2407F8A606E50D2404F8D3
:2038600074242DF674003B08F608A607C0E0C0A8C2AFE50D2404F886820886830886F012F7
:20388000925A7003023967E50D2408F8740626FA74000836FB08860774032AFA74003BFBF0
:2038A0008A828B838FF012925AFEA312925AFDA312925AFCC006C005C004E50D24FBF8E6FA
:2038C000C0E008E6C0E008E6C0E0E50D2408F886820886830886F012413915811581158131
:2038E000D004D005D006E50D2408F8740626FA74000836FB08860774032AFA74003BFB8A88
:20390000828B838FF0EE128D2FA3ED128D2FA3EC128D2FE50D2408F8741826FA74000836AD
:20392000FB0886078A828B838FF012925A7003023956E50D2408F8741826FA74000836FBED
:203940000886078A828B838FF0126052E5827003023956120BD5D0E053E080E5E042A8D036
:20396000E0758201023B5BE50D24F9F8E608466003023985D0E053E080E5E042A8D0E07542
:203980008200023B5BEC60030239A08E027B007F408A828B838FF0C006126E36D0067C01B1
:2039A000D0E053E080E5E042A8D0E0C006C004124DCBD004D006C0E0C0A8C2AFE50D240850
:2039C000F8742726FA74000836FB0886078A828B838FF012925AFDBDFF0280030239EA8A6E
:2039E000828B838FF07400128D2FE50D2408F8742826FA74000836FB0886078A828B838FB9
:203A0000F012925AFDBDFF028003023A188A828B838FF07400128D2FC004D0E053E080E53F
:203A2000E042A8D0E0E50D24F9FFA80D08A607087600087640E50D2407F886047D007F407D
:203A4000C006C004A80D08E6C0E008E6C0E008E6C0E08C828D838FF0126E68AF821581151C
:203A6000811581D004D006D004EF6003023B16E50D2408F886820886830886F0C006C004D5
:203A8000124428E582D004D0067003023AF0E50D2408F8741826FB74000836FD088607C031
:203AA00006C004E50D24F9F8E6C0E008E6C0E08B828D838FF0125E3615811581D004D00609
:203AC000E50D2408F886820886830886F0C006C004124290D004D006C006C004124DD3E580
:203AE00082D004D006600302386C120BD502386CE50D2408F886820886830886F0C006C0C6
:203B000004124290D004D006C006C004124DD3D004D00602386CE50D2408F88682088683D8
:203B20000886F0C006C004124290D004D006C006C004124DD3D004D006E50D2408F886826B
:203B40000886830886F0C006C004124428E582D004D006700302386C758200850D81D00DBD
:203B600022C00D85810DC082C083C0F0A80D08742426FA74000836FB0886048A828B838CB4
:203B8000F012925AFA8A04EA7003023C8AA80D08742726FA74000836FB0886078A828B83B6
:203BA0008FF012925AFFC007C004E50D24FBF8E6C0E008E6C0E008E6C0E0A80D0886820886
:203BC00086830886F0124139158115811581D004D007A80D08742426FB74000836FD0886B2
:203BE000061C8B828D838EF0EC128D2FBFFF028003023C58A80D08740C26FC74000836FD67
:203C00000886068C828D838EF012925A7003023C85A80D08740C26FC74000836FD0886069E
:203C20008C828D838EF0126052E5827003023C85E50D24F8F8E608467003023C85E50D2401
:203C4000F8F886040886050886068C828D838EF07401128D2F023C85C00712546BAE82D089
:203C6000078F05C3ED9E4003023C85A80D08742726FC74000836FD0886060F8C828D838EDD
:203C8000F0EF128D2F7F01023C8C7F008F82850D81D00D22C00D85810DAD82AE83AFF07438
:203CA000242DFA74003EFB8F048A828B838CF012925A7003023D3D74062DFA74003EFB8F19
:203CC0000474032AFA74003BFB8A828B838CF012925AFAA312925AFBA312925AFCC007C04D
:203CE00006C005C004C003C002E50D24FBF8E6C0E008E6C0E008E6C0E08D828E838FF01254
:203D00004139158115811581D002D003D004D005D006D00774062DFD74003EFE74032DFD77
:203D200074003EFE8D828E838FF0EA128D2FA3EB128D2FA3EC128D2F7F01023D3F7F008FB7
:203D400082D00D22AD82AE83AFF0C0E0C0A8C2AF74242DFD74003EFE8D828E838FF01292B5
:203D60005AFDD0E053E080E5E042A8D0E08D8222AD82AE83AFF0C0E0C0A8C2AF74252DFAC1
:203D800074003EFB8F048A828B838CF012925AFA74242DFD74003EFE8D828E838FF01292A0
:203DA0005AFDEAC39DFAD0E053E080E5E042A8D0E08A8222AD82AE83AFF074242DFD740043
:203DC0003EFE8D828E838FF012925AFD8D8222AD82AE83AFF08D828E838FF012287C22C0A6
:203DE0000D85810DC082C083C0F0E581240AF581A80D08742426FA74000836FB0886048A26
:203E0000828B838CF0E50D240DF812925AF6A80D08E50D2404F9742626F77400083609F74E
:203E200008E609F7E50D2404F886820886830886F012925AFEEE700302411EE50D24FAF825
:203E4000E66003023F9BC002C003C0048E047D00A80D08E50D2407F9740326F774000836CC
:203E600009F708E609F7E50D2407F886820886830886F012925AFAA312925AFBA312925A73
:203E8000FFC004C003C002C004C005E50D24FBF8E6C0E008E6C0E008E6C0E08A828B838FFD
:203EA000F0129041E58124FBF581D002D003D004E50D2407F886820886830886F012925A11
:203EC000FCA312925AFDA312925AFFE50D2404F886820886830886F012925AFBE50D240AE6
:203EE000F8EB2CF674003D08F608A607E50D2407F886820886830886F0E50D240AF9E7129B
:203F00008D2FA309E7128D2FA309E7128D2FA80D08740626FA74000836FB0886078A828BF3
:203F2000838FF012925AFAA312925AFBA312925AFFE50D240AF8C002C003C0078682088651
:203F4000830886F0120091158115811581D004D003D002500302411EC002C003C004A80DD0
:203F60000886820886830886F012925AFCA312925AFDA312925AFFE50D2407F886820886BF
:203F8000830886F0EC128D2FA3ED128D2FA3EF128D2FD004D003D00202411EC002C003C089
:203FA000047F00A80D08E50D240AF9740626F77400083609F708E609F7E50D240AF8E50D67
:203FC0002407F9740326F77400083609F708E609F7E50D2407F886820886830886F0129239
:203FE0005AFBA312925AFCA312925AFDC004C003C002C006C007E50D24FBF8E6C0E008E6DE
:20400000C0E008E6C0E08B828C838DF0129041E58124FBF581D002D003D004E50D2407F86D
:2040200086820886830886F012925AFDA312925AFEA312925AFFE50D2404F8868208868384
:204040000886F012925AFC7B00EDC39CFDEE9BFEE50D2407F886820886830886F0ED128D65
:204060002FA3EE128D2FA3EF128D2FA80D0886820886830886F012925AFAA312925AFBA3C7
:2040800012925AFCC002C003C0048D828E838FF0120091158115811581D004D003D0024020
:2040A00003024100C002C003C004E50D240AF886820886830886F012925AFDA312925AFE28
:2040C000A312925AFFE50D2404F886820886830886F012925AFC7B00EDC39CFDEE9BFEE56D
:2040E0000D2407F886820886830886F0ED128D2FA3EE128D2FA3EF128D2FD004D003D00206
:20410000E50D24FAF8B60202800302411EE50D240DF8E6700302411EE50D240DF816E50D01
:20412000240DF8E604FF8A828B838CF0EF128D2F758200850D81D00D22C00D85810DC082EF
:20414000C083C0F0E5812404F581A80D08742626FA74000836FB0886048A828B838CF0E537
:204160000D2407F812925AF6E50D2407F8E6700302428AC002C003C004A80D08740626FA3F
:2041800074000836FB088604E50D2404F874032AF674003B08F608A604E50D2404F88682BE
:2041A0000886830886F012925AFDA312925AFEA312925AFFE50D2407F8E62DFD74003EFE61
:2041C000E50D2404F886820886830886F0ED128D2FA3EE128D2FA3EF128D2F8A828B838C16
:2041E000F012925AFAA312925AFBA312925AFCC002C003C0048D828E838FF012009115817D
:2042000015811581D004D003D0025003024243A80D0886820886830886F012925AFDA3121B
:20422000925AFEA312925AFFE50D2404F886820886830886F0ED128D2FA3EE128D2FA3EF9F
:20424000128D2F8A828B838CF012925AFA7F00E50D2404F886820886830886F012925AFCE0
:20426000A312925AFDA312925AFEC002C007C004C005C006E50D24FBF88682088683088679
:20428000F0129041E58124FBF581850D81D00D22C00D85810DC082C083C0F0E5812404F5A6
:2042A00081C0E0C0A8C2AFA80D08742826FA74000836FB0886048A828B838CF0E50D240799
:2042C000F812925AF6A80D08E50D2404F9741826F77400083609F708E609F7E50D2407F8C4
:2042E000C37400648086F063F08095F04003024349E50D2404F886820886830886F01292B7
:204300005A7003024349A80D08741826FD74000836FE0886078D828E838FF0C004C003C0AB
:2043200002126052E582D002D003D0047003024340C004C003C002126F96D002D003D00406
:20434000E50D2407F8160242DB8A828B838CF074FF128D2FD0E053E080E5E042A8D0E0C0BA
:20436000E0C0A8C2AFA80D08742726FD74000836FE0886078D828E838FF012925AFCA80D76
:2043800008E50D2404F9740C26F77400083609F708E609F7C3740064808CF063F08095F0D6
:2043A000400302440CE50D2404F886820886830886F012925A700302440CC005C006C007AA
:2043C000A80D08740C26FA74000836FB0886078A828B838FF0C007C006C005C004126052CB
:2043E000E582D004D005D006D007D007D006D0057003024408C007C006C005C004126F9690
:20440000D004D005D006D0071C0243948D828E838FF074FF128D2FD0E053E080E5E042A85F
:20442000D0E0850D81D00D22AD82AE83AFF0C0E0C0A8C2AF74242DFD74003EFE8D828E83B0
:204440008FF012925A600302444F7F010244517F00D0E053E080E5E042A8D0E08F8222ADAF
:2044600082AE83AFF074242DFD74003EFE8D828E838FF012925A60030244807F010244826A
:204480007F008F8222AD82AE83AFF0C0E0C0A8C2AF74242DFA74003EFB8F048A828B838C4D
:2044A000F012925AFA74252DFD74003EFE8D828E838FF012925AFDEAB5050280030244C5D3
:2044C0007F010244C77F00D0E053E080E5E042A8D0E08F8222AD82AE83AFF074242DFA74A9
:2044E000003EFB8F048A828B838CF012925AFA74252DFD74003EFE8D828E838FF012925A52
:20450000FDEAB50502800302450F7F010245117F008F8222C00D85810D058105810581AE75
:2045200082AF83758233758300C007C0061227BCAB82AC83ADF0D006D007A80D08A603080F
:20454000A60408A605A80D08E6084670030245F8C006C007A80D088602088606088607C0A0
:2045600007C0067433C0E07400C0E0C0E08A828E838FF01290D4158115811581D006D007F2
:20458000A80D08742026FA74000836FE088607E50D24F9F886040886058C828D83C007C09C
:2045A00006C0021227BCAB82AC83ADF0D002D006D0078A828E838FF0EB128D2FA3EC128D43
:2045C0002FA3ED128D2FD007D006EB4C60030245F8A80D0886030886040886058B828C8341
:2045E0008DF0C007C00612287CD006D007A80D087400F608F6087600A80D08E60846700347
:20460000024687E50D24F9F886020886037C007D007400C0E0C0E0C0E0A80D08E6C0E00813
:20462000E6C0E008E6C0E0E50D24F2F8E6C0E008E6C0E008E6C0E0E50D24F5F8E6C0E0E556
:204640000D24F6F8E6C0E008E6C0E008E6C0E0C002C003C004C005E50D24FBF8E6C0E008F4
:20466000E6C0E008E6C0E08E828F83124691E58124ECF581A80D0886820886830886F012C9
:2046800049737F010246897FFF8F82850D81D00D22C00D85810DC082C083E581240CF581FB
:2046A000E50D24EDF8E50D2406F9E6F708E609F708E609F7E50D2406F8742026FA740008ED
:2046C00036FE0886078A828E838FF0E50D240CF812925AF6A312925A08F6A312925A08F629
:2046E000E50D240CF8E50D2403F9E6F708E609F708E609F7E50D2406F8E50D2409F9742B0A
:2047000026F77400083609F708E609F7E50D24F7F8E624FFFA08E634FFFE08E634FFFD088F
:20472000E634FFFFE50D240CF8EA26FAEE0836FE088605E50D2409F886820886830886F0D2
:20474000EA128D2FA3EE128D2FA3ED128D2FE50D24FBF8E6084670030247E8E50D2406F8EF
:20476000742326FD74000836FE0886077B00E50D2409F8EB2DF674003E08F608A607C00570
:20478000C006C007E50D24FBF8EB26FD74000836FE0886078D828E838FF012925AFCE50DA5
:2047A0002409F886820886830886F0EC128D2F8D828E838FF012925AD007D006D0057003F1
:2047C0000247CC0BBB0800500302476EE50D2406F8742A26FD74000836FE0886078D828E35
:2047E000838FF07400128D2FE50D24F3F8B6040050030247FCE50D24F3F87603E50D24068C
:20480000F8741F26FD74000836FE0886078D828E838FF0E50D24F3F8E6128D2FE50D240635
:20482000F8740326FD74000836FE0886078D828E838FF012221AE50D2406F8741126FD7484
:20484000000836FE0886078D828E838FF012221AE50D2406F8740B26FD74000836FE0886A6
:2048600007E50D24EDF886020886030886048D828E838FF0EA128D2FA3EB128D2FA3EC1237
:204880008D2FE50D2406F8E50D2409F9741126F77400083609F708E609F7E50D24F3F88667
:2048A000077E007404C39FFF74009EFEE50D2409F886820886830886F0EF128D2FA3EE127C
:2048C0008D2FE50D2406F8741926FD74000836FE0886078D828E838FF0EA128D2FA3EB121C
:2048E0008D2FA3EC128D2FE50D24F4F8E6C0E008E6C0E008E6C0E0A80D08E6C0E008E6C00A
:20490000E0E50D2403F886820886830886F012095DAF82AE83ADF0E58124FBF581E50D2487
:2049200006F886820886830886F0EF128D2FA3EE128D2FA3ED128D2FE50D24F0F8E6084636
:20494000700302496DE50D24F0F886050886060886078D828E838FF0E50D2406F8E6128D42
:204960002FA308E6128D2FA308E6128D2F850D81D00D22C00D85810DC082C083C0F0E581BD
:20498000240CF581C0E0C0A8C2AF900F8BE004F0900F88E0FAA3E0FBA3E0FCEA4B60030262
:2049A00049C5A80D08900F88E6F008E6A3F008E6A3F0900F8BE0FCBC01028003024A1C126B
:2049C0006FB5024A1C900F8FE06003024A1C900F88E0FAA3E0FBA3E0FC741F2AFA74003B0E
:2049E000FB8A828B838CF012925AFAA80D08741F26FB74000836FC0886078B828C838FF0DF
:204A000012925AFBC3EB9A5003024A1CA80D08900F88E6F008E6A3F008E6A3F0900F94E0CB
:204A20002401F0A80D08741F26FD74000836FE0886078D828E838FF012925AFC900F8EE003
:204A4000FBC3EB9C4003024A4E900F8EECF08D828E838FF012925AFCEC75F00CA42418FB5A
:204A6000740F35F0FC8B828C83A3E50D240DF8E0F6A3E008F6A3E008F6A80D08E50D240409
:204A8000F9740326F77400083609F708E609F7E50D2404F8740226FA74000836FB08860402
:204AA0008A828B838CF0E50D240DF8E6128D2FA308E6128D2FA308E6128D2FE50D2404F8C1
:204AC000E50D2407F9740526F77400083609F708E609F7E50D240DF8E50D240AF9740526B7
:204AE000F77400083609F708E609F7E50D240AF886820886830886F012925AFAA312925AD7
:204B0000FBA312925AFCE50D2407F886820886830886F0EA128D2FA3EB128D2FA3EC128D0F
:204B20002FE50D240AF886820886830886F012925AFAA312925AFBA312925AFC74022AFACC
:204B400074003BFB8A828B838CF0E50D2404F8E6128D2FA308E6128D2FA308E6128D2FE5AC
:204B60000D240AF886820886830886F0E50D2404F9E7128D2FA309E7128D2FA309E7128D10
:204B80002FE50D2404F8E50D240AF9740B26F77400083609F708E609F78D828E838FF012CE
:204BA000925AFCEC75F00CA42418FC740F35F0FB8C027C00E50D240AF88682088683088668
:204BC000F0EA128D2FA3EB128D2FA3EC128D2F8D828E838FF012925AFCEC75F00CA424189E
:204BE000FB740F35F0FC8B828C83E0FA0A8B828C83EAF0D0E053E080E5E042A8D0E0900FBF
:204C00008FE07003024C39900F88E0FAA3E0FBA3E0FC741F2AFA74003BFB8A828B838CF036
:204C200012925AFA8D828E838FF012925AFDC3EA9D4003024C39120BD5850D81D00D22C00A
:204C40000D85810DC082C083C0F0058105817E00C006124DCBD006900F8CE0FAA3E0FBE547
:204C60000D2404F8A60208A603A80D0886820886830886F012925AFBA312925AFCE50D24AE
:204C8000FCF8E62BFD08E63CFF8D02E50D2404F8C3E69B08E69C4003024CBAC3EA9BEF9C5C
:204CA0004003024CD6E50D2404F8C3E69A08E69F4003024CD67E01024CD6C3EA9BEF9C507E
:204CC00003024CD4E50D2404F8C3E69A08E69F4003024CD67E01A80D088682088683088683
:204CE000F0EA128D2FA3EF128D2FEE7003024D0EE50D2404F8EAC396FAEF0896FFC00674D9
:204D000000C0E08A828F83128BB71581D006C006124DD3E582D0066003024D1F120BD58E8F
:204D200082850D81D00D22AE82AF837D00EE4F7003024D53C007C006124DCBD006D00774D6
:204D400000C0E08E828F83128BB71581124DD3AF828F05ED6003024D5C120BD5227497C0D6
:204D6000E0740FC0E07400C0E0C0E0C0E0C0E0C0E074A7C0E07400C0E0742CC0E07496C0C3
:204D8000E07480C0E075829D75836F124514AF82E58124F4F581BF01028003024DB9C2AF56
:204DA000900F9574FFF0A3F0900F8F7401F0900F8C7400F0A3F0120B5790962BE49322C2F4
:204DC000AF900F8F7400F0120BD422900F9AE02401F022C00D85810DE5812416F581E50D47
:204DE0002411F87400F608F6087600E50D2410F87600C0E0C0A8C2AF900F9AE014F0E06036
:204E000003025428900F8BE07003025428900F66E070030253C2900F6CE0FAA3E0FBA3E0C1
:204E2000FC74082AFA74003BFB8A828B838CF012925AFAA312925AFBA312925AFCE50D244F
:204E400011F8A60208A60308A604E50D2411F8E50D2404F9741126F77400083609F708E6CA
:204E600009F7E50D2411F8741C26FA74000836FB0886048A828B838CF0E50D2414F81292C8
:204E80005AF6A312925A08F6A312925A08F6E50D2411F8741326FA74000836FB0886048AF5
:204EA000828B838CF012925AFDA312925AFEA312925AFFE50D2407F874052DF674003E0841
:204EC000F608A607E50D2411F8A90D09741626F77400083609F708E609F7A80D0886820835
:204EE00086830886F012925AFDA312925AFEA312925AFFE50D2407F886820886830886F045
:204F0000ED128D2FA3EE128D2FA3EF128D2FA80D0886820886830886F012925AFDA3129281
:204F20005AFEA312925AFF74022DFD74003EFE8A828B838CF012925AFAA312925AFBA3124A
:204F4000925AFC8D828E838FF0EA128D2FA3EB128D2FA3EC128D2FE50D2414F8740126FCA0
:204F600074000836FB0886028C828B838AF012925AFDA312925AFEA312925AFFE50D24040A
:204F8000F8C005C006C00786820886830886F012009115811581158170028003024FCCA811
:204FA0000D0886820886830886F012925AFDA312925AFEA312925AFF8C828B838AF0ED1276
:204FC0008D2FA3EE128D2FA3EF128D2FE50D2404F8740B26FD74000836FE0886078D828EC0
:204FE000838FF07400128D2FA3128D2FA3128D2FE50D2414F886820886830886F012925AD4
:20500000FF1FE50D2414F886820886830886F0EF128D2FE50D2411F8740326FD7400083691
:20502000FE088607E50D2407F8740B2DF674003E08F608A607E50D2407F88682088683088B
:2050400086F0E50D2414F912925AF7A312925A09F7A312925A09F7A80D0874022DF67400B6
:205060003E08F608A607A80D0886820886830886F012925AFAA312925AFBA312925AFCE5D5
:205080000D240DF874052AF674003B08F608A604E50D2404F874052DF674003E08F608A6D6
:2050A00007E50D2404F886820886830886F012925AFAA312925AFBA312925AFCE50D240DEC
:2050C000F886820886830886F0EA128D2FA3EB128D2FA3EC128D2FE50D2404F88682088628
:2050E000830886F012925AFAA312925AFBA312925AFCE50D240DF874022AF674003B08F620
:2051000008A604A80D0886820886830886F012925AFAA312925AFBA312925AFCE50D240D35
:20512000F886820886830886F0EA128D2FA3EB128D2FA3EC128D2FE50D2414F8E50D240D2A
:20514000F9740126F77400083609F708E609F7E50D240DF886820886830886F012925AFA7A
:20516000A312925AFBA312925AFCC005C006C0078A828B838CF01200911581158115817039
:205180000280030251BCE50D2404F886820886830886F012925AFAA312925AFBA312925A9D
:2051A000FCE50D240DF886820886830886F0EA128D2FA3EB128D2FA3EC128D2FC005C00645
:2051C000C007E50D2407F886820886830886F07400128D2FA3128D2FA3128D2FE50D24140E
:2051E000F886820886830886F012925AFC1CE50D2414F886820886830886F0EC128D2FE5B2
:205200000D2411F8E50D240AF9741F26F77400083609F708E609F7E50D240AF8868208863D
:20522000830886F012925AFC900F8EE0FFC3EF9CD007D006D0054003025240900F8EECF0B7
:20524000E50D240AF886820886830886F012925AFCEC75F00CA42418FB740F35F0FC8B82BC
:205260008C83A3E0FAA3E0FBA3E0FCA80D0886820886830886F0EA128D2FA3EB128D2FA39A
:20528000EC128D2FE50D240DF874052AF674003B08F608A604E50D240DF886820886830805
:2052A00086F012925AFAA312925AFBA312925AFCE50D2404F886820886830886F0EA128D15
:2052C0002FA3EB128D2FA3EC128D2FE50D240DF886820886830886F012925AFAA312925A9B
:2052E000FBA312925AFC74022AFA74003BFB8A828B838CF0ED128D2FA3EE128D2FA3EF127E
:205300008D2FE50D240DF886820886830886F0ED128D2FA3EE128D2FA3EF128D2FE50D248F
:205320000AF886820886830886F012925AFFEF75F00CA42418FE740F35F0FF7D00E50D245F
:2053400007F886820886830886F0EE128D2FA3EF128D2FA3ED128D2FE50D240AF886820815
:2053600086830886F012925AFFEF75F00CA42418FE740F35F0FF8E828F83E0FD0D8E828F19
:2053800083EDF0E50D240AF886820886830886F012925AFF900F88E0FCA3E0FDA3E0FE7489
:2053A0001F2CFC74003DFD8C828D838EF012925AFCC3EF9C5003024E0D900F927401F002CC
:2053C0004E0DE50D2411F8E6084670030253D212701E900F90E0FEA3E0FF8E048F05EE4FF3
:2053E00070030254158C068D07C007C0061254DDE582D006D0077003025401900F92740155
:20540000F01EBEFF011FEE4F60030253E9900F907400F0A3F0900F92E07003025428E50DA9
:205420002410F87601120BD5D0E053E080E5E042A8D0E0E50D2410F88682850D81D00D22DD
:20544000C0E0C0A8C2AF900F8CE0FEA3E0FFD0E053E080E5E042A8D0E08E828F8322900FA3
:205460008CE0FEA3E0FF8E828F8322900F8BE0FF8F8222AD82AE83AFF0ED4E600302548E3F
:20548000900F88E0FAA3E0FBA3E0FC0254948D028E038F0474232AFA74003BFB8A828B83F2
:2054A0008CF022AE82AF83C007C006124DCBD006D007C0E0C0A8C2AF900F90E0FCA3E0FD84
:2054C000900F90EE2CF0EF3DA3F0D0E053E080E5E042A8D0E0124DD3AF828F8222C00D852A
:2054E000810DE5812418F581E50D2410F87600900F9AE06003025C8A900F8CE0FDA3E0FE85
:20550000E50D2414F874012DF674003E08F6E50D2414F8900F8CE6F008E6A3F0E50D241453
:20552000F8E608466003025562900F60E0FAA3E0FBA3E0FC8B058C06900F63E0FBA3E0FCCF
:20554000A3E0FF900F60EBF0ECA3F0EFA3F0900F63EAF0EDA3F0EEA3F0900F93E004F012F9
:20556000701E900F95E0FBA3E0FCE50D2414F8C3E69B08E69C5003025C39900F60E0FAA3B9
:20558000E0FBA3E0FC8A828B838CF012925A600302559E900F9574FFF0A3F0025C39900F65
:2055A00060E0FAA3E0FBA3E0FC74042AFA74003BFB74022AFA74003BFB8A828B838CF01282
:2055C000925AFAA312925AFBA312925AFC74082AFA74003BFB8A828B838CF012925AFAA331
:2055E00012925AFBA312925AFCE50D2411F8A60208A60308A604E50D2411F8740326FD74BE
:20560000000836FE0886078D828E838FF012925AFFA312925AFEE50D2414F8C3E69F08E626
:205620009E4003025631900F95EFF0EEA3F0025C39E50D2411F8740326FD74000836FE0864
:205640008607E50D2411F8740E26FA74000836FB0886048A828B838CF0E50D2416F812925F
:205660005AF6A312925A08F6A312925A08F6E50D2411F8E50D2404F9740526F77400083622
:2056800009F708E609F7E50D2404F886820886830886F012925AFAA312925AFBA312925A3E
:2056A000FCE50D240DF874052AF674003B08F608A604E50D2411F8E50D2407F9740826F70D
:2056C0007400083609F708E609F7E50D2407F886820886830886F012925AFAA312925AFBEA
:2056E000A312925AFCE50D240DF886820886830886F0EA128D2FA3EB128D2FA3EC128D2FEA
:20570000E50D2407F886820886830886F012925AFAA312925AFBA312925AFCE50D240DF891
:2057200074022AF674003B08F608A604E50D2404F886820886830886F012925AFAA312928C
:205740005AFBA312925AFCE50D240DF886820886830886F0EA128D2FA3EB128D2FA3EC12F0
:205760008D2FE50D2416F8E50D240DF9740126F77400083609F708E609F7E50D240DF8865A
:20578000820886830886F012925AFAA312925AFBA312925AFCC005C006C0078A828B838CCF
:2057A000F0120091158115811581700280030257E7E50D2407F886820886830886F012920F
:2057C0005AFAA312925AFBA312925AFCE50D240DF886820886830886F0EA128D2FA3EB1232
:2057E0008D2FA3EC128D2FA80D08740B2DF674003E08F608A607A80D088682088683088668
:20580000F07400128D2FA3128D2FA3128D2FC005C006C007E50D2416F88682088683088657
:20582000F012925AFF1FE50D2416F886820886830886F0EF128D2FE50D2411F8E50D240DA2
:20584000F9741126F77400083609F708E609F7E50D240DF8E50D2407F9740B26F7740008C4
:205860003609F708E609F7E50D2407F886820886830886F012925AFAA312925AFBA312927D
:205880005AFCD007D006D005EA4B7003025A46C005C006C007E50D2416F8A60208A603080F
:2058A000A604E50D240DF8740226FD74000836FE0886078D828E838FF012925AFAA3129267
:2058C0005AFBA312925AFCE50D240AF874052AF674003B08F608A604E50D240DF8E50D2495
:2058E00004F9740526F77400083609F708E609F7E50D2404F886820886830886F012925ACE
:20590000FAA312925AFBA312925AFCE50D240AF886820886830886F0EA128D2FA3EB128DC0
:205920002FA3EC128D2FE50D2404F886820886830886F012925AFAA312925AFBA312925AFD
:20594000FC74022AFA74003BFB8D828E838FF012925AFDA312925AFEA312925AFF8A828B97
:20596000838CF0ED128D2FA3EE128D2FA3EF128D2FE50D2416F8E50D240AF9740126F7746B
:2059800000083609F708E609F7E50D240AF886820886830886F012925AFDA312925AFEA3EF
:2059A00012925AFFE50D240DF8C005C006C00786820886830886F012009115811581158181
:2059C00070028009D007D006D005025A09D007D006D005E50D2404F886820886830886F0BA
:2059E00012925AFAA312925AFBA312925AFCE50D240AF886820886830886F0EA128D2FA36C
:205A0000EB128D2FA3EC128D2FE50D2407F886820886830886F07400128D2FA3128D2FA36E
:205A2000128D2FE50D2416F886820886830886F012925AFC1CE50D2416F886820886830882
:205A400086F0EC128D2FC005C006C007E50D2411F8E50D240DF9741F26F77400083609F727
:205A600008E609F7E50D240DF886820886830886F012925AFC900F8EE0FFC3EF9CD007D08B
:205A800006D0054003025A8D900F8EECF0E50D240DF886820886830886F012925AFCEC75E9
:205AA000F00CA42418FB740F35F0FC8B828C83A3E50D2416F8E0F6A3E008F6A3E008F6743C
:205AC000022DFA74003EFB8F048A828B838CF0E50D2416F8E6128D2FA308E6128D2FA308E5
:205AE000E6128D2FE50D240AF874052DF674003E08F608A607E50D2416F8E50D2407F9742B
:205B00000526F77400083609F708E609F7E50D2407F886820886830886F012925AFAA3126A
:205B2000925AFBA312925AFCE50D240AF886820886830886F0EA128D2FA3EB128D2FA3EC8F
:205B4000128D2FE50D2407F886820886830886F012925AFAA312925AFBA312925AFC740224
:205B60002AFA74003BFB8A828B838CF0ED128D2FA3EE128D2FA3EF128D2FE50D2407F886AC
:205B8000820886830886F0ED128D2FA3EE128D2FA3EF128D2FE50D240DF88682088683083E
:205BA00086F012925AFFEF75F00CA42418FE740F35F0FF7D00A80D0886820886830886F0BC
:205BC000EE128D2FA3EF128D2FA3ED128D2FE50D240DF886820886830886F012925AFFEFAD
:205BE00075F00CA42418FE740F35F0FF8E828F83E0FD0D8E828F83EDF0E50D240DF8868281
:205C00000886830886F012925AFF900F88E0FCA3E0FDA3E0FE741F2CFC74003DFD8C828DF0
:205C2000838EF012925AFCC3EF9C500302557AE50D2410F8760102557A900F88E0FDA3E00A
:205C4000FEA3E0FF741F2DFD74003EFE8D828E838FF012925AFDED75F00CA42418F5827494
:205C60000F35F0F583E0FFC374019F4003025C77E50D2410F87601900F92E07003025C969D
:205C8000E50D2410F87601025C96900F90E02401F0A3E03400F0E50D2410F88682850D8177
:205CA000D00D22C00D85810DE581240AF581900F9AE07003025CC0900F927401F0025E302B
:205CC000900F927400F0900F8EE0FFEF75F00CA4FDAEF0ED2418FBEE340FFC8B828C83E037
:205CE0006003025CE91F025CCBE50D2407F8A607ED2418FDEE340FFEE50D2408F8A60508D2
:205D0000A606087600E50D2408F8740126FA74000836FB0886078A828B838FF012925AFCD9
:205D2000A312925AFDA312925AFE74022CFC74003DFD8C828D838EF012925AFCA312925AA3
:205D4000FDA312925AFE8A828B838FF0EC128D2FA3ED128D2FA3EE128D2F8A828B838FF0FE
:205D6000E50D2404F812925AF6A312925A08F6A312925A08F6A80D08A60408A60508A60611
:205D8000E50D2408F8740426FC74000836FD088606A80D08C004C005C006868208868308E3
:205DA00086F012009115811581158170028003025DEBE50D2404F8740226FC74000836FD70
:205DC0000886068C828D838EF012925AFCA312925AFDA312925AFE8A828B838FF0EC128D38
:205DE0002FA3ED128D2FA3EE128D2F8A828B838FF012925AFAA312925AFBA312925AFF7476
:205E0000082AFA74003BFB8A828B838FF012925AFAA312925AFBA312925AFF900F88EAF0DE
:205E2000EBA3F0EFA3F0E50D2407F8900F8EE6F0850D81D00D22C00D85810DAD82AE83AF49
:205E4000F0900F88E0FAA3E0FBA3E0FC74112AFA74003BFBC002C003C0048D828E838FF019
:205E60001223A01581158115817401C0E0E50D24FCF88682088683128BB71581D00D22C0AA
:205E80000D85810DC082C083C0F0058105810581900F88E0FAA3E0FBA3E0FC74112AFA7400
:205EA000003BFBE50D24FCF886060886074307808A828B838CF0EE128D2FA3EF128D2FA85D
:205EC0000D08740126FD74000836FE0886078D828E838FF012925AFDA312925AFEA3129250
:205EE0005AFF900F88E0FAA3E0FBA3E0FC74112AFA74003BFB74022AFA74003BFB8A828B1D
:205F0000838CF0ED128D2FA3EE128D2FA3EF128D2F900F88E0FAA3E0FBA3E0FC74112AFA61
:205F200074003BFBE50D2404F874052AF674003B08F608A60474052DFD74003EFE8D828EBD
:205F4000838FF012925AFAA312925AFBA312925AFCE50D2404F886820886830886F0EA1269
:205F60008D2FA3EB128D2FA3EC128D2F8D828E838FF012925AFAA312925AFBA312925AFCDC
:205F8000E50D2404F874022AF674003B08F608A604900F88E0FAA3E0FBA3E0FC74112AFA53
:205FA00074003BFBE50D2404F886820886830886F0EA128D2FA3EB128D2FA3EC128D2F908D
:205FC0000F88E0FAA3E0FBA3E0FC74112AFA74003BFB8D828E838FF0EA128D2FA3EB128D7C
:205FE0002FA3EC128D2F900F88E0FDA3E0FEA3E0FF74112DFD74003EFE740B2DFD74003E54
:20600000FE8D828E838FF0A80D08E6128D2FA308E6128D2FA308E6128D2FA80D08868208E7
:2060200086830886F012925AFF0FA80D0886820886830886F0EF128D2F7401C0E0E50D2491
:20604000FAF88682088683128BB71581850D81D00D22C00D85810DE5812419F581AD82AE63
:2060600083AFF074042DFD74003EFE74022DFD74003EFE8D828E838FF012925AFDA312927B
:206080005AFEA312925AFF74082DFD74003EFE8D828E838FF012925AFDA312925AFEA312C4
:2060A000925AFFE50D2414F8A60508A60608A607E50D2414F8741126FA74000836FB0886BD
:2060C00004E50D2414F8741C26FD74000836FE0886078D828E838FF0E50D2417F812925AE0
:2060E000F6A312925A08F6A312925A08F6E50D2414F8E50D240AF9741326F77400083609D2
:20610000F708E609F7E50D240AF886820886830886F012925AFDA312925AFEA312925AFFB1
:20612000E50D2410F874052DF674003E08F608A607E50D2414F8E50D240DF9741626F774E7
:2061400000083609F708E609F7E50D240DF886820886830886F012925AFDA312925AFEA324
:2061600012925AFFE50D2410F886820886830886F0ED128D2FA3EE128D2FA3EF128D2FE50E
:206180000D240DF886820886830886F012925AFDA312925AFEA312925AFFE50D2410F87466
:2061A000022DF674003E08F608A607E50D240AF886820886830886F012925AFDA312925A0A
:2061C000FEA312925AFFE50D2410F886820886830886F0ED128D2FA3EE128D2FA3EF128D21
:2061E0002FE50D2417F8E50D2410F9740126F77400083609F708E609F7E50D2410F88682D4
:206200000886830886F012925AFDA312925AFEA312925AFFC002C003C0048D828E838FF0CD
:2062200012009115811581158170028003026266E50D240DF886820886830886F012925A8A
:20624000FDA312925AFEA312925AFFE50D2410F886820886830886F0ED128D2FA3EE128D62
:206260002FA3EF128D2FA80D08740B2AF674003B08F608A604A80D0886820886830886F080
:206280007400128D2FA3128D2FA3128D2FC002C003C004E50D2417F886820886830886F0D5
:2062A00012925AFC1CE50D2417F886820886830886F0EC128D2F900F9AE0D004D003D002C0
:2062C000600302669AE50D2414F8740326FC74000836FB088602E50D240DF8740B2CF67431
:2062E000003B08F608A602E50D240DF886820886830886F012925AFFA312925AFEA3129220
:206300005AFDE50D240AF874022CF674003B08F608A602E50D240AF886820886830886F06A
:20632000E50D2407F912925AF7A312925A09F7A312925A09F7E50D2407F8740526F67400F2
:206340000836F6E50D2404F874052CF674003B08F608A602E50D2404F88682088683088646
:20636000F0A90D0912925AF7A312925A09F7A312925A09F7E50D2407F8868208868308867B
:20638000F0A90D09E7128D2FA309E7128D2FA309E7128D2FE50D2404F8868208868308861E
:2063A000F0A90D0912925AF7A312925A09F7A312925A09F7A80D08740226F674000836F600
:2063C000E50D240AF886820886830886F0E50D2407F912925AF7A312925A09F7A312925AC1
:2063E00009F7A80D0886820886830886F0E50D2407F9E7128D2FA309E7128D2FA309E71278
:206400008D2FA80D0874012FF674003E08F608A605A80D0886820886830886F0E50D240795
:20642000F912925AF7A312925A09F7A312925A09F7E50D2407F8C004C003C0028682088638
:20644000830886F012009115811581158170028003026496E50D2404F8868208868308862C
:20646000F0E50D2407F912925AF7A312925A09F7A312925A09F7A80D08868208868308867B
:20648000F0E50D2407F9E7128D2FA309E7128D2FA309E7128D2FE50D240DF886820886834B
:2064A0000886F07400128D2FA3128D2FA3128D2F8F828E838DF0A80D0812925AF6A80D082D
:2064C000A90D09E614F78F828E838DF0A80D08E6128D2FE50D2414F8741F26FF7400083670
:2064E000FE0886058F828E838DF0E50D2407F812925AF6900F8EE50D2413F8E0F6E50D2429
:2065000007F8E50D2413F9C3E7964003026519E50D2407F8900F8EE6F08F828E838DF0E5BB
:206520000D2413F812925AF6E50D2413F8E675F00CA4C8E50D2407C82418F6740F35F00880
:20654000F6E50D2407F88682088683A3E50D2417F8E0F6A3E008F6A3E008F6E50D240AF85F
:2065600086820886830886F0E50D2417F9E7128D2FA309E7128D2FA309E7128D2FE50D24D1
:2065800017F8E50D2407F9740526F77400083609F708E609F7E50D2407F88682088683086A
:2065A00086F0E50D240AF912925AF7A312925A09F7A312925A09F7E50D2404F8868208866D
:2065C000830886F0E50D240AF9E7128D2FA309E7128D2FA309E7128D2FE50D2407F886820D
:2065E0000886830886F0E50D2404F912925AF7A312925A09F7A312925A09F7E50D2404F8B0
:20660000740226F674000836F6E50D2404F886820886830886F0EC128D2FA3EB128D2FA3DE
:20662000EA128D2FE50D2407F886820886830886F0EC128D2FA3EB128D2FA3EA128D2F8FF6
:20664000828E838DF012925AFCEC75F00CA42418FC740F35F0FB7A00E50D240DF8868208AF
:2066600086830886F0EC128D2FA3EB128D2FA3EA128D2F8F828E838DF012925AFFEF75F032
:206680000CA42418FF740F35F0FE8F828E83E0FD0D8F828E83EDF00267A9900F67E50D2430
:2066A00017F8E0F6A3E008F6A3E008F674022AFD74003BFE8C078D828E838FF0E50D24174A
:2066C000F8E6128D2FA308E6128D2FA308E6128D2FE50D2404F874052AF674003B08F608F0
:2066E000A604E50D2417F8E50D2407F9740526F77400083609F708E609F7E50D2407F886E4
:20670000820886830886F012925AFDA312925AFEA312925AFFE50D2404F8868208868308FB
:2067200086F0ED128D2FA3EE128D2FA3EF128D2FE50D2407F886820886830886F012925ABF
:20674000FDA312925AFEA312925AFF74022DFD74003EFE8D828E838FF0EA128D2FA3EB12B6
:206760008D2FA3EC128D2FE50D2407F886820886830886F0EA128D2FA3EB128D2FA3EC129F
:206780008D2FA80D0886820886830886F07466128D2FA3740F128D2FA37400128D2F900FC9
:2067A00066E0FF0F900F66EFF0E50D2414F8741F26FD74000836FE0886078D828E838FF0E5
:2067C00012925AFD900F88E0FCA3E0FEA3E0FF741F2CFC74003EFE8C828E838FF012925AB1
:2067E000FCC3EC9D40030267F37F01900F92EFF00267F57F008F82850D81D00D22C00D85D0
:20680000810DC082C083C0F0E5812415F581E50D24FCF88603088604430480A80D088682EF
:206820000886830886F0EB128D2FA3EC128D2FA80D08740826FA74000836FB0886048A820F
:206840008B838CF012925AFAA312925AFBA312925AFCE50D2413F8A60208A60308A604A8A9
:206860000D08740B26FA74000836FB0886048A828B838CF0E50D2416F812925AF6A3129230
:206880005A08F6A312925A08F6A80D08E50D2410F9740226F77400083609F708E609F7E50D
:2068A0000D2410F886820886830886F012925AFDA312925AFEA312925AFFE50D2404F87448
:2068C000052DF674003E08F608A607A80D08E50D2407F9740526F77400083609F708E60919
:2068E000F7E50D2407F886820886830886F012925AFDA312925AFEA312925AFFE50D2404A1
:20690000F886820886830886F0ED128D2FA3EE128D2FA3EF128D2FE50D2407F886820886C3
:20692000830886F012925AFDA312925AFEA312925AFFE50D2404F874022DF674003E08F6C1
